{
	"data": {
		"bytecode": {
			"linkReferences": {},
			"object": "608060405234801561000f575f80fd5b5061002c61002161003160201b60201c565b61003860201b60201c565b6100f9565b5f33905090565b5f805f9054906101000a900473ffffffffffffffffffffffffffffffffffffffff169050815f806101000a81548173ffffffffffffffffffffffffffffffffffffffff021916908373ffffffffffffffffffffffffffffffffffffffff1602179055508173ffffffffffffffffffffffffffffffffffffffff168173ffffffffffffffffffffffffffffffffffffffff167f8be0079c531659141344cd1fd0a4f28419497f9722a3daafe3b4186f6b6457e060405160405180910390a35050565b6150d9806101065f395ff3fe608060405234801562000010575f80fd5b506004361062000068575f3560e01c80631b6cf219146200006c578063715018a6146200008e57806379d747be146200009a5780638da5cb5b14620000d0578063eeef6e6214620000f2578063f2fde38b1462000112575b5f80fd5b6200007662000132565b60405162000085919062000823565b60405180910390f35b6200009862000246565b005b620000b86004803603810190620000b2919062000881565b6200025d565b604051620000c7919062000918565b60405180910390f35b620000da62000299565b604051620000e9919062000944565b60405180910390f35b6200011060048036038101906200010a91906200098e565b620002c0565b005b6200013060048036038101906200012a919062000a3c565b62000546565b005b60605f60018054905090505f8167ffffffffffffffff8111156200015b576200015a62000a6c565b5b6040519080825280602002602001820160405280156200018a5781602001602082028036833780820191505090505b5090505f5b828110156200023d5760018181548110620001af57620001ae62000a99565b5b905f5260205f20015f9054906101000a900473ffffffffffffffffffffffffffffffffffffffff16828281518110620001ed57620001ec62000a99565b5b602002602001019073ffffffffffffffffffffffffffffffffffffffff16908173ffffffffffffffffffffffffffffffffffffffff16815250508080620002349062000af3565b9150506200018f565b50809250505090565b62000250620005cf565b6200025b5f62000654565b565b600181815481106200026d575f80fd5b905f5260205f20015f915054906101000a900473ffffffffffffffffffffffffffffffffffffffff1681565b5f805f9054906101000a900473ffffffffffffffffffffffffffffffffffffffff16905090565b5f30620002cc62000299565b89898989898989604051620002e1906200071c565b620002f59998979695949392919062000b50565b604051809103905ff0801580156200030f573d5f803e3d5ffd5b5090508073ffffffffffffffffffffffffffffffffffffffff1663f2fde38b336040518263ffffffff1660e01b81526004016200034d919062000944565b5f604051808303815f87803b15801562000365575f80fd5b505af115801562000378573d5f803e3d5ffd5b505050508773ffffffffffffffffffffffffffffffffffffffff166323b872dd3383896040518463ffffffff1660e01b8152600401620003bb9392919062000bed565b6020604051808303815f875af1158015620003d8573d5f803e3d5ffd5b505050506040513d601f19601f82011682018060405250810190620003fe919062000c62565b508673ffffffffffffffffffffffffffffffffffffffff166323b872dd3383886040518463ffffffff1660e01b81526004016200043e9392919062000bed565b6020604051808303815f875af11580156200045b573d5f803e3d5ffd5b505050506040513d601f19601f8201168201806040525081019062000481919062000c62565b50600181908060018154018082558091505060019003905f5260205f20015f9091909190916101000a81548173ffffffffffffffffffffffffffffffffffffffff021916908373ffffffffffffffffffffffffffffffffffffffff1602179055508073ffffffffffffffffffffffffffffffffffffffff163373ffffffffffffffffffffffffffffffffffffffff167fc70bcc9deb5c2c45fbd04fc61d1513be9ff5edee82cc676f5f9c9ec65480287460405160405180910390a35050505050505050565b62000550620005cf565b5f73ffffffffffffffffffffffffffffffffffffffff168173ffffffffffffffffffffffffffffffffffffffff1603620005c1576040517f08c379a0000000000000000000000000000000000000000000000000000000008152600401620005b89062000d16565b60405180910390fd5b620005cc8162000654565b50565b620005d962000715565b73ffffffffffffffffffffffffffffffffffffffff16620005f962000299565b73ffffffffffffffffffffffffffffffffffffffff161462000652576040517f08c379a0000000000000000000000000000000000000000000000000000000008152600401620006499062000d84565b60405180910390fd5b565b5f805f9054906101000a900473ffffffffffffffffffffffffffffffffffffffff169050815f806101000a81548173ffffffffffffffffffffffffffffffffffffffff021916908373ffffffffffffffffffffffffffffffffffffffff1602179055508173ffffffffffffffffffffffffffffffffffffffff168173ffffffffffffffffffffffffffffffffffffffff167f8be0079c531659141344cd1fd0a4f28419497f9722a3daafe3b4186f6b6457e060405160405180910390a35050565b5f33905090565b6142ff8062000da583390190565b5f81519050919050565b5f82825260208201905092915050565b5f819050602082019050919050565b5f73ffffffffffffffffffffffffffffffffffffffff82169050919050565b5f6200077e8262000753565b9050919050565b620007908162000772565b82525050565b5f620007a3838362000785565b60208301905092915050565b5f602082019050919050565b5f620007c7826200072a565b620007d3818562000734565b9350620007e08362000744565b805f5b8381101562000816578151620007fa888262000796565b97506200080783620007af565b925050600181019050620007e3565b5085935050505092915050565b5f6020820190508181035f8301526200083d8184620007bb565b905092915050565b5f80fd5b5f819050919050565b6200085d8162000849565b811462000868575f80fd5b50565b5f813590506200087b8162000852565b92915050565b5f6020828403121562000899576200089862000845565b5b5f620008a8848285016200086b565b91505092915050565b5f819050919050565b5f620008da620008d4620008ce8462000753565b620008b1565b62000753565b9050919050565b5f620008ed82620008ba565b9050919050565b5f6200090082620008e1565b9050919050565b6200091281620008f4565b82525050565b5f6020820190506200092d5f83018462000907565b92915050565b6200093e8162000772565b82525050565b5f602082019050620009595f83018462000933565b92915050565b6200096a8162000772565b811462000975575f80fd5b50565b5f8135905062000988816200095f565b92915050565b5f805f805f805f60e0888a031215620009ac57620009ab62000845565b5b5f620009bb8a828b0162000978565b9750506020620009ce8a828b0162000978565b9650506040620009e18a828b016200086b565b9550506060620009f48a828b016200086b565b945050608062000a078a828b016200086b565b93505060a062000a1a8a828b016200086b565b92505060c062000a2d8a828b016200086b565b91505092959891949750929550565b5f6020828403121562000a545762000a5362000845565b5b5f62000a638482850162000978565b91505092915050565b7f4e487b71000000000000000000000000000000000000000000000000000000005f52604160045260245ffd5b7f4e487b71000000000000000000000000000000000000000000000000000000005f52603260045260245ffd5b7f4e487b71000000000000000000000000000000000000000000000000000000005f52601160045260245ffd5b5f62000aff8262000849565b91507fffffffffffffffffffffffffffffffffffffffffffffffffffffffffffffffff820362000b345762000b3362000ac6565b5b600182019050919050565b62000b4a8162000849565b82525050565b5f6101208201905062000b665f83018c62000933565b62000b75602083018b62000933565b62000b84604083018a62000933565b62000b93606083018962000933565b62000ba2608083018862000b3f565b62000bb160a083018762000b3f565b62000bc060c083018662000b3f565b62000bcf60e083018562000b3f565b62000bdf61010083018462000b3f565b9a9950505050505050505050565b5f60608201905062000c025f83018662000933565b62000c11602083018562000933565b62000c20604083018462000b3f565b949350505050565b5f8115159050919050565b62000c3e8162000c28565b811462000c49575f80fd5b50565b5f8151905062000c5c8162000c33565b92915050565b5f6020828403121562000c7a5762000c7962000845565b5b5f62000c898482850162000c4c565b91505092915050565b5f82825260208201905092915050565b7f4f776e61626c653a206e6577206f776e657220697320746865207a65726f20615f8201527f6464726573730000000000000000000000000000000000000000000000000000602082015250565b5f62000cfe60268362000c92565b915062000d0b8262000ca2565b604082019050919050565b5f6020820190508181035f83015262000d2f8162000cf0565b9050919050565b7f4f776e61626c653a2063616c6c6572206973206e6f7420746865206f776e65725f82015250565b5f62000d6c60208362000c92565b915062000d798262000d36565b602082019050919050565b5f6020820190508181035f83015262000d9d8162000d5e565b905091905056fe608060405234801562000010575f80fd5b50604051620042ff380380620042ff8339818101604052810190620000369190620008fe565b6040518060400160405280600881526020017f4c5020546f6b656e0000000000000000000000000000000000000000000000008152506040518060400160405280600281526020017f4c50000000000000000000000000000000000000000000000000000000000000815250620186a05f6001819055505f60028190555080600381905550508160079081620000cd919062000c32565b508060089081620000df919062000c32565b50505062000102620000f66200040560201b60201c565b6200040c60201b60201c565b88600a5f6101000a81548173ffffffffffffffffffffffffffffffffffffffff021916908373ffffffffffffffffffffffffffffffffffffffff16021790555087600b5f6101000a81548173ffffffffffffffffffffffffffffffffffffffff021916908373ffffffffffffffffffffffffffffffffffffffff1602179055508573ffffffffffffffffffffffffffffffffffffffff168773ffffffffffffffffffffffffffffffffffffffff1603620001f3576040517f08c379a0000000000000000000000000000000000000000000000000000000008152600401620001ea9062000d74565b60405180910390fd5b86600c5f6101000a81548173ffffffffffffffffffffffffffffffffffffffff021916908373ffffffffffffffffffffffffffffffffffffffff16021790555085600d5f6101000a81548173ffffffffffffffffffffffffffffffffffffffff021916908373ffffffffffffffffffffffffffffffffffffffff16021790555084600e8190555083600f8190555082821015620002c7576040517f08c379a0000000000000000000000000000000000000000000000000000000008152600401620002be9062000e08565b60405180910390fd5b826013819055508160148190555080601581905550620002ef838387620004cf60201b60201c565b6010819055506200030c878460105488886200055360201b60201c565b601181905550601154600f5462000324919062000e55565b601054600e5462000336919062000e55565b62000342919062000e8f565b6012819055506040518060800160405280600e548152602001600f5481526020016013548152602001428152505f808081526020019081526020015f205f820151815f01556020820151816001015560408201518160020155606082015181600301559050507fcf2aa50876cdfbb541206f89af0ee78d44a2abf8d328e37fa4917f982149848a600e54600f54604051620003df92919062000eea565b60405180910390a160646016819055505f601881905550505050505050505050620011be565b5f33905090565b5f60095f9054906101000a900473ffffffffffffffffffffffffffffffffffffffff1690508160095f6101000a81548173ffffffffffffffffffffffffffffffffffffffff021916908373ffffffffffffffffffffffffffffffffffffffff1602179055508173ffffffffffffffffffffffffffffffffffffffff168173ffffffffffffffffffffffffffffffffffffffff167f8be0079c531659141344cd1fd0a4f28419497f9722a3daafe3b4186f6b6457e060405160405180910390a35050565b5f80620004f8670de0b6b3a764000086620004eb919062000e8f565b856200063160201b60201c565b90505f6200050c826200064860201b60201c565b90505f84826200051d919062000e8f565b90505f82633b9aca0062000532919062000f15565b90506200054682826200063160201b60201c565b9450505050509392505050565b5f808673ffffffffffffffffffffffffffffffffffffffff1663313ce5676040518163ffffffff1660e01b8152600401602060405180830381865afa1580156200059f573d5f803e3d5ffd5b505050506040513d601f19601f82011682018060405250810190620005c5919062000f8a565b90505f81600a620005d791906200110a565b90505f8482620005e8919062000e8f565b8787620005f6919062000e55565b8962000603919062000e8f565b6200060f919062000f15565b90506200062381836200063160201b60201c565b935050505095945050505050565b5f818362000640919062001187565b905092915050565b5f8082036200065a575f905062000763565b5f60016200066e846200076860201b60201c565b901c6001901b905060018184816200068b576200068a6200115a565b5b048201901c90506001818481620006a757620006a66200115a565b5b048201901c90506001818481620006c357620006c26200115a565b5b048201901c90506001818481620006df57620006de6200115a565b5b048201901c90506001818481620006fb57620006fa6200115a565b5b048201901c905060018184816200071757620007166200115a565b5b048201901c905060018184816200073357620007326200115a565b5b048201901c90506200075f818285816200075257620007516200115a565b5b046200084760201b60201c565b9150505b919050565b5f805f90505f608084901c11156200078857608083901c92506080810190505b5f604084901c1115620007a357604083901c92506040810190505b5f602084901c1115620007be57602083901c92506020810190505b5f601084901c1115620007d957601083901c92506010810190505b5f600884901c1115620007f457600883901c92506008810190505b5f600484901c11156200080f57600483901c92506004810190505b5f600284901c11156200082a57600283901c92506002810190505b5f600184901c11156200083e576001810190505b80915050919050565b5f81831062000857578162000859565b825b905092915050565b5f80fd5b5f73ffffffffffffffffffffffffffffffffffffffff82169050919050565b5f620008908262000865565b9050919050565b620008a28162000884565b8114620008ad575f80fd5b50565b5f81519050620008c08162000897565b92915050565b5f819050919050565b620008da81620008c6565b8114620008e5575f80fd5b50565b5f81519050620008f881620008cf565b92915050565b5f805f805f805f805f6101208a8c0312156200091f576200091e62000861565b5b5f6200092e8c828d01620008b0565b9950506020620009418c828d01620008b0565b9850506040620009548c828d01620008b0565b9750506060620009678c828d01620008b0565b96505060806200097a8c828d01620008e8565b95505060a06200098d8c828d01620008e8565b94505060c0620009a08c828d01620008e8565b93505060e0620009b38c828d01620008e8565b925050610100620009c78c828d01620008e8565b9150509295985092959850929598565b5f81519050919050565b7f4e487b71000000000000000000000000000000000000000000000000000000005f52604160045260245ffd5b7f4e487b71000000000000000000000000000000000000000000000000000000005f52602260045260245ffd5b5f600282049050600182168062000a5357607f821691505b60208210810362000a695762000a6862000a0e565b5b50919050565b5f819050815f5260205f209050919050565b5f6020601f8301049050919050565b5f82821b905092915050565b5f6008830262000acd7fffffffffffffffffffffffffffffffffffffffffffffffffffffffffffffffff8262000a90565b62000ad9868362000a90565b95508019841693508086168417925050509392505050565b5f819050919050565b5f62000b1a62000b1462000b0e84620008c6565b62000af1565b620008c6565b9050919050565b5f819050919050565b62000b358362000afa565b62000b4d62000b448262000b21565b84845462000a9c565b825550505050565b5f90565b62000b6362000b55565b62000b7081848462000b2a565b505050565b5b8181101562000b975762000b8b5f8262000b59565b60018101905062000b76565b5050565b601f82111562000be65762000bb08162000a6f565b62000bbb8462000a81565b8101602085101562000bcb578190505b62000be362000bda8562000a81565b83018262000b75565b50505b505050565b5f82821c905092915050565b5f62000c085f198460080262000beb565b1980831691505092915050565b5f62000c22838362000bf7565b9150826002028217905092915050565b62000c3d82620009d7565b67ffffffffffffffff81111562000c595762000c58620009e1565b5b62000c65825462000a3b565b62000c7282828562000b9b565b5f60209050601f83116001811462000ca8575f841562000c93578287015190505b62000c9f858262000c15565b86555062000d0e565b601f19841662000cb88662000a6f565b5f5b8281101562000ce15784890151825560018201915060208501945060208101905062000cba565b8683101562000d01578489015162000cfd601f89168262000bf7565b8355505b6001600288020188555050505b505050505050565b5f82825260208201905092915050565b7f426f746820746f6b656e732063616e6e6f74206265207468652073616d6500005f82015250565b5f62000d5c601e8362000d16565b915062000d698262000d26565b602082019050919050565b5f6020820190508181035f83015262000d8d8162000d4e565b9050919050565b7f4d6178696d756d207072696365206d75737420626520677265617465722074685f8201527f616e206f7220657175616c20746f207468652062617365207072696365000000602082015250565b5f62000df0603d8362000d16565b915062000dfd8262000d94565b604082019050919050565b5f6020820190508181035f83015262000e218162000de2565b9050919050565b7f4e487b71000000000000000000000000000000000000000000000000000000005f52601160045260245ffd5b5f62000e6182620008c6565b915062000e6e83620008c6565b925082820190508082111562000e895762000e8862000e28565b5b92915050565b5f62000e9b82620008c6565b915062000ea883620008c6565b925082820262000eb881620008c6565b9150828204841483151762000ed25762000ed162000e28565b5b5092915050565b62000ee481620008c6565b82525050565b5f60408201905062000eff5f83018562000ed9565b62000f0e602083018462000ed9565b9392505050565b5f62000f2182620008c6565b915062000f2e83620008c6565b925082820390508181111562000f495762000f4862000e28565b5b92915050565b5f60ff82169050919050565b62000f668162000f4f565b811462000f71575f80fd5b50565b5f8151905062000f848162000f5b565b92915050565b5f6020828403121562000fa25762000fa162000861565b5b5f62000fb18482850162000f74565b91505092915050565b5f8160011c9050919050565b5f808291508390505b6001851115620010175780860481111562000fef5762000fee62000e28565b5b600185161562000fff5780820291505b80810290506200100f8562000fba565b945062000fcf565b94509492505050565b5f8262001031576001905062001103565b8162001040575f905062001103565b816001811462001059576002811462001064576200109a565b600191505062001103565b60ff84111562001079576200107862000e28565b5b8360020a91508482111562001093576200109262000e28565b5b5062001103565b5060208310610133831016604e8410600b8410161715620010d45782820a905083811115620010ce57620010cd62000e28565b5b62001103565b620010e3848484600162000fc6565b92509050818404811115620010fd57620010fc62000e28565b5b81810290505b9392505050565b5f6200111682620008c6565b9150620011238362000f4f565b9250620011527fffffffffffffffffffffffffffffffffffffffffffffffffffffffffffffffff848462001020565b905092915050565b7f4e487b71000000000000000000000000000000000000000000000000000000005f52601260045260245ffd5b5f6200119382620008c6565b9150620011a083620008c6565b925082620011b357620011b26200115a565b5b828204905092915050565b61313380620011cc5f395ff3fe608060405234801561000f575f80fd5b506004361061021a575f3560e01c80637c07a38011610123578063b6b55f25116100ab578063d21220a71161007a578063d21220a71461064b578063dd62ed3e14610669578063ec1893b414610699578063ef3501b9146106b7578063f2fde38b146106d55761021a565b8063b6b55f25146105c2578063c392f766146105de578063c45a0155146105fc578063ccbaf7361461061a5761021a565b80639f8e55d6116100f25780639f8e55d6146104f6578063a457c2d714610526578063a9059cbb14610556578063aff56c1414610586578063b0e21e8a146105a45761021a565b80637c07a3801461047e578063870e415e1461049c5780638da5cb5b146104ba57806395d89b41146104d85761021a565b8063313ce567116101a65780634273601c116101755780634273601c146103ea578063433065d0146104085780635a656c241461042657806370a0823114610444578063715018a6146104745761021a565b8063313ce56714610360578063364abc3d1461037e578063395093511461039c5780633d1c387b146103cc5761021a565b806313724b70116101ed57806313724b70146102ba57806318160ddd146102d85780631cf2128c146102f657806323b872dd146103145780632bec60fe146103445761021a565b806304786ab41461021e57806306fdde031461024e578063095ea7b31461026c5780630dfe16811461029c575b5f80fd5b61023860048036038101906102339190612287565b6106f1565b60405161024591906122c1565b60405180910390f35b610256610757565b6040516102639190612364565b60405180910390f35b610286600480360381019061028191906123de565b6107e7565b6040516102939190612436565b60405180910390f35b6102a4610809565b6040516102b1919061245e565b60405180910390f35b6102c261082e565b6040516102cf91906122c1565b60405180910390f35b6102e0610834565b6040516102ed91906122c1565b60405180910390f35b6102fe61083d565b60405161030b91906122c1565b60405180910390f35b61032e60048036038101906103299190612477565b610843565b60405161033b9190612436565b60405180910390f35b61035e600480360381019061035991906124f1565b610871565b005b610368610902565b604051610375919061255c565b60405180910390f35b61038661090a565b60405161039391906122c1565b60405180910390f35b6103b660048036038101906103b191906123de565b610910565b6040516103c39190612436565b60405180910390f35b6103d4610946565b6040516103e1919061267f565b60405180910390f35b6103f2610a5e565b6040516103ff919061245e565b60405180910390f35b610410610a83565b60405161041d91906122c1565b60405180910390f35b61042e610ac7565b60405161043b91906122c1565b60405180910390f35b61045e6004803603810190610459919061269f565b610acd565b60405161046b91906122c1565b60405180910390f35b61047c610b13565b005b610486610b26565b60405161049391906122c1565b60405180910390f35b6104a4610b2c565b6040516104b191906122c1565b60405180910390f35b6104c2610b32565b6040516104cf919061245e565b60405180910390f35b6104e0610b5a565b6040516104ed9190612364565b60405180910390f35b610510600480360381019061050b9190612287565b610bea565b60405161051d91906122c1565b60405180910390f35b610540600480360381019061053b91906123de565b610c50565b60405161054d9190612436565b60405180910390f35b610570600480360381019061056b91906123de565b610cc5565b60405161057d9190612436565b60405180910390f35b61058e610ce7565b60405161059b91906122c1565b60405180910390f35b6105ac610ced565b6040516105b991906122c1565b60405180910390f35b6105dc60048036038101906105d79190612287565b610cf3565b005b6105e6611000565b6040516105f391906122c1565b60405180910390f35b610604611006565b604051610611919061245e565b60405180910390f35b610634600480360381019061062f9190612287565b61102b565b6040516106429291906126ca565b60405180910390f35b610653611079565b604051610660919061245e565b60405180910390f35b610683600480360381019061067e91906126f1565b61109e565b60405161069091906122c1565b60405180910390f35b6106a1611120565b6040516106ae9190612791565b60405180910390f35b6106bf6111cf565b6040516106cc91906122c1565b60405180910390f35b6106ef60048036038101906106ea919061269f565b6111d5565b005b5f806106fb611257565b90505f6107066112f6565b90505f848261071591906127d7565b90505f6010546107346012546011548561072f91906127d7565b611395565b61073e919061280a565b9050808461074c919061280a565b945050505050919050565b6060600780546107669061286a565b80601f01602080910402602001604051908101604052809291908181526020018280546107929061286a565b80156107dd5780601f106107b4576101008083540402835291602001916107dd565b820191905f5260205f20905b8154815290600101906020018083116107c057829003601f168201915b5050505050905090565b5f806107f16113aa565b90506107fe8185856113b1565b600191505092915050565b600c5f9054906101000a900473ffffffffffffffffffffffffffffffffffffffff1681565b600f5481565b5f600654905090565b60115481565b5f8061084d6113aa565b905061085a858285611574565b6108658585856115ff565b60019150509392505050565b801561088657610881838361186e565b610891565b6108908383611a72565b5b5f61089a611257565b90505f6108a56112f6565b90506108c282826108bd670de0b6b3a7640000610bea565b611d54565b7fcf2aa50876cdfbb541206f89af0ee78d44a2abf8d328e37fa4917f982149848a82826040516108f392919061289a565b60405180910390a15050505050565b5f6012905090565b60145481565b5f8061091a6113aa565b905061093b81858561092c858961109e565b61093691906127d7565b6113b1565b600191505092915050565b60605f6001805460025461095a919061280a565b61096491906127d7565b67ffffffffffffffff81111561097d5761097c6128c1565b5b6040519080825280602002602001820160405280156109b657816020015b6109a36121dc565b81526020019060019003908161099b5790505b5090505f60015490505b60016002546109cf91906127d7565b811015610a56575f808281526020019081526020015f206040518060800160405290815f820154815260200160018201548152602001600282015481526020016003820154815250508260015483610a27919061280a565b81518110610a3857610a376128ee565b5b60200260200101819052508080610a4e9061291b565b9150506109c0565b508091505090565b600b5f9054906101000a900473ffffffffffffffffffffffffffffffffffffffff1681565b5f80610a8d611257565b90505f610a986112f6565b905060115481610aa891906127d7565b60105483610ab691906127d7565b610ac09190612962565b9250505090565b60125481565b5f60045f8373ffffffffffffffffffffffffffffffffffffffff1673ffffffffffffffffffffffffffffffffffffffff1681526020019081526020015f20549050919050565b610b1b611e2c565b610b245f611eaa565b565b600e5481565b60035481565b5f60095f9054906101000a900473ffffffffffffffffffffffffffffffffffffffff16905090565b606060088054610b699061286a565b80601f0160208091040260200160405190810160405280929190818152602001828054610b959061286a565b8015610be05780601f10610bb757610100808354040283529160200191610be0565b820191905f5260205f20905b815481529060010190602001808311610bc357829003601f168201915b5050505050905090565b5f80610bf4611257565b90505f610bff6112f6565b90505f8483610c0e91906127d7565b90505f601154610c2d60125460105485610c2891906127d7565b611395565b610c37919061280a565b90508083610c45919061280a565b945050505050919050565b5f80610c5a6113aa565b90505f610c67828661109e565b905083811015610cac576040517f08c379a0000000000000000000000000000000000000000000000000000000008152600401610ca390612a13565b60405180910390fd5b610cb982868684036113b1565b60019250505092915050565b5f80610ccf6113aa565b9050610cdc8185856115ff565b600191505092915050565b60105481565b60155481565b5f610d04620c3500620f4240611395565b82610d0f9190612962565b90505f8183610d1e919061280a565b9050600d5f9054906101000a900473ffffffffffffffffffffffffffffffffffffffff1673ffffffffffffffffffffffffffffffffffffffff166323b872dd3330856040518463ffffffff1660e01b8152600401610d7e93929190612a31565b6020604051808303815f875af1158015610d9a573d5f803e3d5ffd5b505050506040513d601f19601f82011682018060405250810190610dbe9190612a7a565b50600d5f9054906101000a900473ffffffffffffffffffffffffffffffffffffffff1673ffffffffffffffffffffffffffffffffffffffff166323b872dd33600b5f9054906101000a900473ffffffffffffffffffffffffffffffffffffffff16846040518463ffffffff1660e01b8152600401610e3e93929190612a31565b6020604051808303815f875af1158015610e5a573d5f803e3d5ffd5b505050506040513d601f19601f82011682018060405250810190610e7e9190612a7a565b50610e893384611f6d565b610e916120bc565b5f60185403610f07573360175f8081526020019081526020015f205f6101000a81548173ffffffffffffffffffffffffffffffffffffffff021916908373ffffffffffffffffffffffffffffffffffffffff16021790555060185f815480929190610efb9061291b565b91905055505050610ffd565b5f5b601854811015610f91573373ffffffffffffffffffffffffffffffffffffffff1660175f8381526020019081526020015f205f9054906101000a900473ffffffffffffffffffffffffffffffffffffffff1673ffffffffffffffffffffffffffffffffffffffff1603610f7e57505050610ffd565b8080610f899061291b565b915050610f09565b503360175f60185481526020019081526020015f205f6101000a81548173ffffffffffffffffffffffffffffffffffffffff021916908373ffffffffffffffffffffffffffffffffffffffff16021790555060185f815480929190610ff59061291b565b919050555050505b50565b60165481565b600a5f9054906101000a900473ffffffffffffffffffffffffffffffffffffffff1681565b6019818154811061103a575f80fd5b905f5260205f2090600202015f91509050805f015f9054906101000a900473ffffffffffffffffffffffffffffffffffffffff16908060010154905082565b600d5f9054906101000a900473ffffffffffffffffffffffffffffffffffffffff1681565b5f60055f8473ffffffffffffffffffffffffffffffffffffffff1673ffffffffffffffffffffffffffffffffffffffff1681526020019081526020015f205f8373ffffffffffffffffffffffffffffffffffffffff1673ffffffffffffffffffffffffffffffffffffffff1681526020019081526020015f2054905092915050565b611128612200565b5f6040518060800160405280600c5f9054906101000a900473ffffffffffffffffffffffffffffffffffffffff1673ffffffffffffffffffffffffffffffffffffffff168152602001600d5f9054906101000a900473ffffffffffffffffffffffffffffffffffffffff1673ffffffffffffffffffffffffffffffffffffffff1681526020016111b6611257565b81526020016111c36112f6565b81525090508091505090565b60135481565b6111dd611e2c565b5f73ffffffffffffffffffffffffffffffffffffffff168173ffffffffffffffffffffffffffffffffffffffff160361124b576040517f08c379a000000000000000000000000000000000000000000000000000000000815260040161124290612b15565b60405180910390fd5b61125481611eaa565b50565b5f600c5f9054906101000a900473ffffffffffffffffffffffffffffffffffffffff1673ffffffffffffffffffffffffffffffffffffffff166370a08231306040518263ffffffff1660e01b81526004016112b2919061245e565b602060405180830381865afa1580156112cd573d5f803e3d5ffd5b505050506040513d601f19601f820116820180604052508101906112f19190612b47565b905090565b5f600d5f9054906101000a900473ffffffffffffffffffffffffffffffffffffffff1673ffffffffffffffffffffffffffffffffffffffff166370a08231306040518263ffffffff1660e01b8152600401611351919061245e565b602060405180830381865afa15801561136c573d5f803e3d5ffd5b505050506040513d601f19601f820116820180604052508101906113909190612b47565b905090565b5f81836113a29190612b9f565b905092915050565b5f33905090565b5f73ffffffffffffffffffffffffffffffffffffffff168373ffffffffffffffffffffffffffffffffffffffff160361141f576040517f08c379a000000000000000000000000000000000000000000000000000000000815260040161141690612c3f565b60405180910390fd5b5f73ffffffffffffffffffffffffffffffffffffffff168273ffffffffffffffffffffffffffffffffffffffff160361148d576040517f08c379a000000000000000000000000000000000000000000000000000000000815260040161148490612ccd565b60405180910390fd5b8060055f8573ffffffffffffffffffffffffffffffffffffffff1673ffffffffffffffffffffffffffffffffffffffff1681526020019081526020015f205f8473ffffffffffffffffffffffffffffffffffffffff1673ffffffffffffffffffffffffffffffffffffffff1681526020019081526020015f20819055508173ffffffffffffffffffffffffffffffffffffffff168373ffffffffffffffffffffffffffffffffffffffff167f8c5be1e5ebec7d5bd14f71427d1e84f3dd0314c0f7b2291e5b200ac8c7c3b9258360405161156791906122c1565b60405180910390a3505050565b5f61157f848461109e565b90507fffffffffffffffffffffffffffffffffffffffffffffffffffffffffffffffff81146115f957818110156115eb576040517f08c379a00000000000000000000000000000000000000000000000000000000081526004016115e290612d35565b60405180910390fd5b6115f884848484036113b1565b5b50505050565b5f73ffffffffffffffffffffffffffffffffffffffff168373ffffffffffffffffffffffffffffffffffffffff160361166d576040517f08c379a000000000000000000000000000000000000000000000000000000000815260040161166490612dc3565b60405180910390fd5b5f73ffffffffffffffffffffffffffffffffffffffff168273ffffffffffffffffffffffffffffffffffffffff16036116db576040517f08c379a00000000000000000000000000000000000000000000000000000000081526004016116d290612e51565b60405180910390fd5b6116e6838383612102565b5f60045f8573ffffffffffffffffffffffffffffffffffffffff1673ffffffffffffffffffffffffffffffffffffffff1681526020019081526020015f205490508181101561176a576040517f08c379a000000000000000000000000000000000000000000000000000000000815260040161176190612edf565b60405180910390fd5b81810360045f8673ffffffffffffffffffffffffffffffffffffffff1673ffffffffffffffffffffffffffffffffffffffff1681526020019081526020015f20819055508160045f8573ffffffffffffffffffffffffffffffffffffffff1673ffffffffffffffffffffffffffffffffffffffff1681526020019081526020015f205f82825401925050819055508273ffffffffffffffffffffffffffffffffffffffff168473ffffffffffffffffffffffffffffffffffffffff167fddf252ad1be2c89b69c2b068fc378daa952ba7f163c4a11628f55a4df523b3ef8460405161185591906122c1565b60405180910390a3611868848484612107565b50505050565b5f611878836106f1565b9050818110156118bd576040517f08c379a00000000000000000000000000000000000000000000000000000000081526004016118b490612f47565b60405180910390fd5b600d5f9054906101000a900473ffffffffffffffffffffffffffffffffffffffff1673ffffffffffffffffffffffffffffffffffffffff166323b872dd3330866040518463ffffffff1660e01b815260040161191b93929190612a31565b6020604051808303815f875af1158015611937573d5f803e3d5ffd5b505050506040513d601f19601f8201168201806040525081019061195b9190612a7a565b50600c5f9054906101000a900473ffffffffffffffffffffffffffffffffffffffff1673ffffffffffffffffffffffffffffffffffffffff1663a9059cbb33836040518363ffffffff1660e01b81526004016119b89291906126ca565b6020604051808303815f875af11580156119d4573d5f803e3d5ffd5b505050506040513d601f19601f820116820180604052508101906119f89190612a7a565b503073ffffffffffffffffffffffffffffffffffffffff163373ffffffffffffffffffffffffffffffffffffffff167fd78ad95fa46c994b6551d0da85fc275fe613ce37657fb8d5e3d130840159d8225f86865f604051611a5c9493929190612fa7565b60405180910390a3611a6d8361210c565b505050565b5f611a7c83610bea565b905081811015611ac1576040517f08c379a0000000000000000000000000000000000000000000000000000000008152600401611ab890612f47565b60405180910390fd5b600c5f9054906101000a900473ffffffffffffffffffffffffffffffffffffffff1673ffffffffffffffffffffffffffffffffffffffff166323b872dd3330866040518463ffffffff1660e01b8152600401611b1f93929190612a31565b6020604051808303815f875af1158015611b3b573d5f803e3d5ffd5b505050506040513d601f19601f82011682018060405250810190611b5f9190612a7a565b505f611b7b82601554611b729190612962565b620f4240611395565b9050600d5f9054906101000a900473ffffffffffffffffffffffffffffffffffffffff1673ffffffffffffffffffffffffffffffffffffffff1663a9059cbb600b5f9054906101000a900473ffffffffffffffffffffffffffffffffffffffff16836040518363ffffffff1660e01b8152600401611bfa9291906126ca565b6020604051808303815f875af1158015611c16573d5f803e3d5ffd5b505050506040513d601f19601f82011682018060405250810190611c3a9190612a7a565b50600d5f9054906101000a900473ffffffffffffffffffffffffffffffffffffffff1673ffffffffffffffffffffffffffffffffffffffff1663a9059cbb338385611c85919061280a565b6040518363ffffffff1660e01b8152600401611ca29291906126ca565b6020604051808303815f875af1158015611cbe573d5f803e3d5ffd5b505050506040513d601f19601f82011682018060405250810190611ce29190612a7a565b503073ffffffffffffffffffffffffffffffffffffffff163373ffffffffffffffffffffffffffffffffffffffff167fd78ad95fa46c994b6551d0da85fc275fe613ce37657fb8d5e3d130840159d822865f8088604051611d469493929190612fea565b60405180910390a350505050565b600354600154600254611d67919061280a565b03611db4575f8060015481526020019081526020015f205f8082015f9055600182015f9055600282015f9055600382015f9055505060015f815480929190611dae9061291b565b91905055505b60025f815480929190611dc69061291b565b91905055506040518060800160405280848152602001838152602001828152602001428152505f8060025481526020019081526020015f205f820151815f0155602082015181600101556040820151816002015560608201518160030155905050505050565b611e346113aa565b73ffffffffffffffffffffffffffffffffffffffff16611e52610b32565b73ffffffffffffffffffffffffffffffffffffffff1614611ea8576040517f08c379a0000000000000000000000000000000000000000000000000000000008152600401611e9f90613077565b60405180910390fd5b565b5f60095f9054906101000a900473ffffffffffffffffffffffffffffffffffffffff1690508160095f6101000a81548173ffffffffffffffffffffffffffffffffffffffff021916908373ffffffffffffffffffffffffffffffffffffffff1602179055508173ffffffffffffffffffffffffffffffffffffffff168173ffffffffffffffffffffffffffffffffffffffff167f8be0079c531659141344cd1fd0a4f28419497f9722a3daafe3b4186f6b6457e060405160405180910390a35050565b5f73ffffffffffffffffffffffffffffffffffffffff168273ffffffffffffffffffffffffffffffffffffffff1603611fdb576040517f08c379a0000000000000000000000000000000000000000000000000000000008152600401611fd2906130df565b60405180910390fd5b611fe65f8383612102565b8060065f828254611ff791906127d7565b925050819055508060045f8473ffffffffffffffffffffffffffffffffffffffff1673ffffffffffffffffffffffffffffffffffffffff1681526020019081526020015f205f82825401925050819055508173ffffffffffffffffffffffffffffffffffffffff165f73ffffffffffffffffffffffffffffffffffffffff167fddf252ad1be2c89b69c2b068fc378daa952ba7f163c4a11628f55a4df523b3ef836040516120a591906122c1565b60405180910390a36120b85f8383612107565b5050565b5f6120c5611257565b90505f6120d06112f6565b9050601154816120e091906127d7565b601054836120ee91906127d7565b6120f89190612962565b6012819055505050565b505050565b505050565b5f60185403156121d9575f5b6018548110156121d7575f61215c60175f8481526020019081526020015f205f9054906101000a900473ffffffffffffffffffffffffffffffffffffffff16610acd565b90506121c360175f8481526020019081526020015f205f9054906101000a900473ffffffffffffffffffffffffffffffffffffffff166121be60165484876121a49190612962565b6121ae9190612962565b69152d02c7e14af6800000611395565b611f6d565b5080806121cf9061291b565b915050612118565b505b50565b60405180608001604052805f81526020015f81526020015f81526020015f81525090565b60405180608001604052805f73ffffffffffffffffffffffffffffffffffffffff1681526020015f73ffffffffffffffffffffffffffffffffffffffff1681526020015f81526020015f81525090565b5f80fd5b5f819050919050565b61226681612254565b8114612270575f80fd5b50565b5f813590506122818161225d565b92915050565b5f6020828403121561229c5761229b612250565b5b5f6122a984828501612273565b91505092915050565b6122bb81612254565b82525050565b5f6020820190506122d45f8301846122b2565b92915050565b5f81519050919050565b5f82825260208201905092915050565b5f5b838110156123115780820151818401526020810190506122f6565b5f8484015250505050565b5f601f19601f8301169050919050565b5f612336826122da565b61234081856122e4565b93506123508185602086016122f4565b6123598161231c565b840191505092915050565b5f6020820190508181035f83015261237c818461232c565b905092915050565b5f73ffffffffffffffffffffffffffffffffffffffff82169050919050565b5f6123ad82612384565b9050919050565b6123bd816123a3565b81146123c7575f80fd5b50565b5f813590506123d8816123b4565b92915050565b5f80604083850312156123f4576123f3612250565b5b5f612401858286016123ca565b925050602061241285828601612273565b9150509250929050565b5f8115159050919050565b6124308161241c565b82525050565b5f6020820190506124495f830184612427565b92915050565b612458816123a3565b82525050565b5f6020820190506124715f83018461244f565b92915050565b5f805f6060848603121561248e5761248d612250565b5b5f61249b868287016123ca565b93505060206124ac868287016123ca565b92505060406124bd86828701612273565b9150509250925092565b6124d08161241c565b81146124da575f80fd5b50565b5f813590506124eb816124c7565b92915050565b5f805f6060848603121561250857612507612250565b5b5f61251586828701612273565b935050602061252686828701612273565b9250506040612537868287016124dd565b9150509250925092565b5f60ff82169050919050565b61255681612541565b82525050565b5f60208201905061256f5f83018461254d565b92915050565b5f81519050919050565b5f82825260208201905092915050565b5f819050602082019050919050565b6125a781612254565b82525050565b608082015f8201516125c15f85018261259e565b5060208201516125d4602085018261259e565b5060408201516125e7604085018261259e565b5060608201516125fa606085018261259e565b50505050565b5f61260b83836125ad565b60808301905092915050565b5f602082019050919050565b5f61262d82612575565b612637818561257f565b93506126428361258f565b805f5b838110156126725781516126598882612600565b975061266483612617565b925050600181019050612645565b5085935050505092915050565b5f6020820190508181035f8301526126978184612623565b905092915050565b5f602082840312156126b4576126b3612250565b5b5f6126c1848285016123ca565b91505092915050565b5f6040820190506126dd5f83018561244f565b6126ea60208301846122b2565b9392505050565b5f806040838503121561270757612706612250565b5b5f612714858286016123ca565b9250506020612725858286016123ca565b9150509250929050565b612738816123a3565b82525050565b608082015f8201516127525f85018261272f565b506020820151612765602085018261272f565b506040820151612778604085018261259e565b50606082015161278b606085018261259e565b50505050565b5f6080820190506127a45f83018461273e565b92915050565b7f4e487b71000000000000000000000000000000000000000000000000000000005f52601160045260245ffd5b5f6127e182612254565b91506127ec83612254565b9250828201905080821115612804576128036127aa565b5b92915050565b5f61281482612254565b915061281f83612254565b9250828203905081811115612837576128366127aa565b5b92915050565b7f4e487b71000000000000000000000000000000000000000000000000000000005f52602260045260245ffd5b5f600282049050600182168061288157607f821691505b6020821081036128945761289361283d565b5b50919050565b5f6040820190506128ad5f8301856122b2565b6128ba60208301846122b2565b9392505050565b7f4e487b71000000000000000000000000000000000000000000000000000000005f52604160045260245ffd5b7f4e487b71000000000000000000000000000000000000000000000000000000005f52603260045260245ffd5b5f61292582612254565b91507fffffffffffffffffffffffffffffffffffffffffffffffffffffffffffffffff8203612957576129566127aa565b5b600182019050919050565b5f61296c82612254565b915061297783612254565b925082820261298581612254565b9150828204841483151761299c5761299b6127aa565b5b5092915050565b7f45524332303a2064656372656173656420616c6c6f77616e63652062656c6f775f8201527f207a65726f000000000000000000000000000000000000000000000000000000602082015250565b5f6129fd6025836122e4565b9150612a08826129a3565b604082019050919050565b5f6020820190508181035f830152612a2a816129f1565b9050919050565b5f606082019050612a445f83018661244f565b612a51602083018561244f565b612a5e60408301846122b2565b949350505050565b5f81519050612a74816124c7565b92915050565b5f60208284031215612a8f57612a8e612250565b5b5f612a9c84828501612a66565b91505092915050565b7f4f776e61626c653a206e6577206f776e657220697320746865207a65726f20615f8201527f6464726573730000000000000000000000000000000000000000000000000000602082015250565b5f612aff6026836122e4565b9150612b0a82612aa5565b604082019050919050565b5f6020820190508181035f830152612b2c81612af3565b9050919050565b5f81519050612b418161225d565b92915050565b5f60208284031215612b5c57612b5b612250565b5b5f612b6984828501612b33565b91505092915050565b7f4e487b71000000000000000000000000000000000000000000000000000000005f52601260045260245ffd5b5f612ba982612254565b9150612bb483612254565b925082612bc457612bc3612b72565b5b828204905092915050565b7f45524332303a20617070726f76652066726f6d20746865207a65726f206164645f8201527f7265737300000000000000000000000000000000000000000000000000000000602082015250565b5f612c296024836122e4565b9150612c3482612bcf565b604082019050919050565b5f6020820190508181035f830152612c5681612c1d565b9050919050565b7f45524332303a20617070726f766520746f20746865207a65726f2061646472655f8201527f7373000000000000000000000000000000000000000000000000000000000000602082015250565b5f612cb76022836122e4565b9150612cc282612c5d565b604082019050919050565b5f6020820190508181035f830152612ce481612cab565b9050919050565b7f45524332303a20696e73756666696369656e7420616c6c6f77616e63650000005f82015250565b5f612d1f601d836122e4565b9150612d2a82612ceb565b602082019050919050565b5f6020820190508181035f830152612d4c81612d13565b9050919050565b7f45524332303a207472616e736665722066726f6d20746865207a65726f2061645f8201527f6472657373000000000000000000000000000000000000000000000000000000602082015250565b5f612dad6025836122e4565b9150612db882612d53565b604082019050919050565b5f6020820190508181035f830152612dda81612da1565b9050919050565b7f45524332303a207472616e7366657220746f20746865207a65726f20616464725f8201527f6573730000000000000000000000000000000000000000000000000000000000602082015250565b5f612e3b6023836122e4565b9150612e4682612de1565b604082019050919050565b5f6020820190508181035f830152612e6881612e2f565b9050919050565b7f45524332303a207472616e7366657220616d6f756e74206578636565647320625f8201527f616c616e63650000000000000000000000000000000000000000000000000000602082015250565b5f612ec96026836122e4565b9150612ed482612e6f565b604082019050919050565b5f6020820190508181035f830152612ef681612ebd565b9050919050565b7f496e73756666696369656e74206f757470757420616d6f756e740000000000005f82015250565b5f612f31601a836122e4565b9150612f3c82612efd565b602082019050919050565b5f6020820190508181035f830152612f5e81612f25565b9050919050565b5f819050919050565b5f819050919050565b5f612f91612f8c612f8784612f65565b612f6e565b612254565b9050919050565b612fa181612f77565b82525050565b5f608082019050612fba5f830187612f98565b612fc760208301866122b2565b612fd460408301856122b2565b612fe16060830184612f98565b95945050505050565b5f608082019050612ffd5f8301876122b2565b61300a6020830186612f98565b6130176040830185612f98565b61302460608301846122b2565b95945050505050565b7f4f776e61626c653a2063616c6c6572206973206e6f7420746865206f776e65725f82015250565b5f6130616020836122e4565b915061306c8261302d565b602082019050919050565b5f6020820190508181035f83015261308e81613055565b9050919050565b7f45524332303a206d696e7420746f20746865207a65726f2061646472657373005f82015250565b5f6130c9601f836122e4565b91506130d482613095565b602082019050919050565b5f6020820190508181035f8301526130f6816130bd565b905091905056fea2646970667358221220ac838bc09a8e4cee06c83e6f6347e75c1811b941a65dc44557033afa30b6576a64736f6c63430008150033a2646970667358221220728dcba4cc4840e3ca503cbed26e5facf6ad3100ac6d734610934ff09aa1312e64736f6c63430008150033",
			"opcodes": "PUSH1 0x80 PUSH1 0x40 MSTORE CALLVALUE DUP1 ISZERO PUSH2 0xF JUMPI PUSH0 DUP1 REVERT JUMPDEST POP PUSH2 0x2C PUSH2 0x21 PUSH2 0x31 PUSH1 0x20 SHL PUSH1 0x20 SHR JUMP JUMPDEST PUSH2 0x38 PUSH1 0x20 SHL PUSH1 0x20 SHR JUMP JUMPDEST PUSH2 0xF9 JUMP JUMPDEST PUSH0 CALLER SWAP1 POP SWAP1 JUMP JUMPDEST PUSH0 DUP1 PUSH0 SWAP1 SLOAD SWAP1 PUSH2 0x100 EXP SWAP1 DIV PUSH20 0xFFFFFFFFFFFFFFFFFFFFFFFFFFFFFFFFFFFFFFFF AND SWAP1 POP DUP2 PUSH0 DUP1 PUSH2 0x100 EXP DUP2 SLOAD DUP2 PUSH20 0xFFFFFFFFFFFFFFFFFFFFFFFFFFFFFFFFFFFFFFFF MUL NOT AND SWAP1 DUP4 PUSH20 0xFFFFFFFFFFFFFFFFFFFFFFFFFFFFFFFFFFFFFFFF AND MUL OR SWAP1 SSTORE POP DUP2 PUSH20 0xFFFFFFFFFFFFFFFFFFFFFFFFFFFFFFFFFFFFFFFF AND DUP2 PUSH20 0xFFFFFFFFFFFFFFFFFFFFFFFFFFFFFFFFFFFFFFFF AND PUSH32 0x8BE0079C531659141344CD1FD0A4F28419497F9722A3DAAFE3B4186F6B6457E0 PUSH1 0x40 MLOAD PUSH1 0x40 MLOAD DUP1 SWAP2 SUB SWAP1 LOG3 POP POP JUMP JUMPDEST PUSH2 0x50D9 DUP1 PUSH2 0x106 PUSH0 CODECOPY PUSH0 RETURN INVALID PUSH1 0x80 PUSH1 0x40 MSTORE CALLVALUE DUP1 ISZERO PUSH3 0x10 JUMPI PUSH0 DUP1 REVERT JUMPDEST POP PUSH1 0x4 CALLDATASIZE LT PUSH3 0x68 JUMPI PUSH0 CALLDATALOAD PUSH1 0xE0 SHR DUP1 PUSH4 0x1B6CF219 EQ PUSH3 0x6C JUMPI DUP1 PUSH4 0x715018A6 EQ PUSH3 0x8E JUMPI DUP1 PUSH4 0x79D747BE EQ PUSH3 0x9A JUMPI DUP1 PUSH4 0x8DA5CB5B EQ PUSH3 0xD0 JUMPI DUP1 PUSH4 0xEEEF6E62 EQ PUSH3 0xF2 JUMPI DUP1 PUSH4 0xF2FDE38B EQ PUSH3 0x112 JUMPI JUMPDEST PUSH0 DUP1 REVERT JUMPDEST PUSH3 0x76 PUSH3 0x132 JUMP JUMPDEST PUSH1 0x40 MLOAD PUSH3 0x85 SWAP2 SWAP1 PUSH3 0x823 JUMP JUMPDEST PUSH1 0x40 MLOAD DUP1 SWAP2 SUB SWAP1 RETURN JUMPDEST PUSH3 0x98 PUSH3 0x246 JUMP JUMPDEST STOP JUMPDEST PUSH3 0xB8 PUSH1 0x4 DUP1 CALLDATASIZE SUB DUP2 ADD SWAP1 PUSH3 0xB2 SWAP2 SWAP1 PUSH3 0x881 JUMP JUMPDEST PUSH3 0x25D JUMP JUMPDEST PUSH1 0x40 MLOAD PUSH3 0xC7 SWAP2 SWAP1 PUSH3 0x918 JUMP JUMPDEST PUSH1 0x40 MLOAD DUP1 SWAP2 SUB SWAP1 RETURN JUMPDEST PUSH3 0xDA PUSH3 0x299 JUMP JUMPDEST PUSH1 0x40 MLOAD PUSH3 0xE9 SWAP2 SWAP1 PUSH3 0x944 JUMP JUMPDEST PUSH1 0x40 MLOAD DUP1 SWAP2 SUB SWAP1 RETURN JUMPDEST PUSH3 0x110 PUSH1 0x4 DUP1 CALLDATASIZE SUB DUP2 ADD SWAP1 PUSH3 0x10A SWAP2 SWAP1 PUSH3 0x98E JUMP JUMPDEST PUSH3 0x2C0 JUMP JUMPDEST STOP JUMPDEST PUSH3 0x130 PUSH1 0x4 DUP1 CALLDATASIZE SUB DUP2 ADD SWAP1 PUSH3 0x12A SWAP2 SWAP1 PUSH3 0xA3C JUMP JUMPDEST PUSH3 0x546 JUMP JUMPDEST STOP JUMPDEST PUSH1 0x60 PUSH0 PUSH1 0x1 DUP1 SLOAD SWAP1 POP SWAP1 POP PUSH0 DUP2 PUSH8 0xFFFFFFFFFFFFFFFF DUP2 GT ISZERO PUSH3 0x15B JUMPI PUSH3 0x15A PUSH3 0xA6C JUMP JUMPDEST JUMPDEST PUSH1 0x40 MLOAD SWAP1 DUP1 DUP3 MSTORE DUP1 PUSH1 0x20 MUL PUSH1 0x20 ADD DUP3 ADD PUSH1 0x40 MSTORE DUP1 ISZERO PUSH3 0x18A JUMPI DUP2 PUSH1 0x20 ADD PUSH1 0x20 DUP3 MUL DUP1 CALLDATASIZE DUP4 CALLDATACOPY DUP1 DUP3 ADD SWAP2 POP POP SWAP1 POP JUMPDEST POP SWAP1 POP PUSH0 JUMPDEST DUP3 DUP2 LT ISZERO PUSH3 0x23D JUMPI PUSH1 0x1 DUP2 DUP2 SLOAD DUP2 LT PUSH3 0x1AF JUMPI PUSH3 0x1AE PUSH3 0xA99 JUMP JUMPDEST JUMPDEST SWAP1 PUSH0 MSTORE PUSH1 0x20 PUSH0 KECCAK256 ADD PUSH0 SWAP1 SLOAD SWAP1 PUSH2 0x100 EXP SWAP1 DIV PUSH20 0xFFFFFFFFFFFFFFFFFFFFFFFFFFFFFFFFFFFFFFFF AND DUP3 DUP3 DUP2 MLOAD DUP2 LT PUSH3 0x1ED JUMPI PUSH3 0x1EC PUSH3 0xA99 JUMP JUMPDEST JUMPDEST PUSH1 0x20 MUL PUSH1 0x20 ADD ADD SWAP1 PUSH20 0xFFFFFFFFFFFFFFFFFFFFFFFFFFFFFFFFFFFFFFFF AND SWAP1 DUP2 PUSH20 0xFFFFFFFFFFFFFFFFFFFFFFFFFFFFFFFFFFFFFFFF AND DUP2 MSTORE POP POP DUP1 DUP1 PUSH3 0x234 SWAP1 PUSH3 0xAF3 JUMP JUMPDEST SWAP2 POP POP PUSH3 0x18F JUMP JUMPDEST POP DUP1 SWAP3 POP POP POP SWAP1 JUMP JUMPDEST PUSH3 0x250 PUSH3 0x5CF JUMP JUMPDEST PUSH3 0x25B PUSH0 PUSH3 0x654 JUMP JUMPDEST JUMP JUMPDEST PUSH1 0x1 DUP2 DUP2 SLOAD DUP2 LT PUSH3 0x26D JUMPI PUSH0 DUP1 REVERT JUMPDEST SWAP1 PUSH0 MSTORE PUSH1 0x20 PUSH0 KECCAK256 ADD PUSH0 SWAP2 POP SLOAD SWAP1 PUSH2 0x100 EXP SWAP1 DIV PUSH20 0xFFFFFFFFFFFFFFFFFFFFFFFFFFFFFFFFFFFFFFFF AND DUP2 JUMP JUMPDEST PUSH0 DUP1 PUSH0 SWAP1 SLOAD SWAP1 PUSH2 0x100 EXP SWAP1 DIV PUSH20 0xFFFFFFFFFFFFFFFFFFFFFFFFFFFFFFFFFFFFFFFF AND SWAP1 POP SWAP1 JUMP JUMPDEST PUSH0 ADDRESS PUSH3 0x2CC PUSH3 0x299 JUMP JUMPDEST DUP10 DUP10 DUP10 DUP10 DUP10 DUP10 DUP10 PUSH1 0x40 MLOAD PUSH3 0x2E1 SWAP1 PUSH3 0x71C JUMP JUMPDEST PUSH3 0x2F5 SWAP10 SWAP9 SWAP8 SWAP7 SWAP6 SWAP5 SWAP4 SWAP3 SWAP2 SWAP1 PUSH3 0xB50 JUMP JUMPDEST PUSH1 0x40 MLOAD DUP1 SWAP2 SUB SWAP1 PUSH0 CREATE DUP1 ISZERO DUP1 ISZERO PUSH3 0x30F JUMPI RETURNDATASIZE PUSH0 DUP1 RETURNDATACOPY RETURNDATASIZE PUSH0 REVERT JUMPDEST POP SWAP1 POP DUP1 PUSH20 0xFFFFFFFFFFFFFFFFFFFFFFFFFFFFFFFFFFFFFFFF AND PUSH4 0xF2FDE38B CALLER PUSH1 0x40 MLOAD DUP3 PUSH4 0xFFFFFFFF AND PUSH1 0xE0 SHL DUP2 MSTORE PUSH1 0x4 ADD PUSH3 0x34D SWAP2 SWAP1 PUSH3 0x944 JUMP JUMPDEST PUSH0 PUSH1 0x40 MLOAD DUP1 DUP4 SUB DUP2 PUSH0 DUP8 DUP1 EXTCODESIZE ISZERO DUP1 ISZERO PUSH3 0x365 JUMPI PUSH0 DUP1 REVERT JUMPDEST POP GAS CALL ISZERO DUP1 ISZERO PUSH3 0x378 JUMPI RETURNDATASIZE PUSH0 DUP1 RETURNDATACOPY RETURNDATASIZE PUSH0 REVERT JUMPDEST POP POP POP POP DUP8 PUSH20 0xFFFFFFFFFFFFFFFFFFFFFFFFFFFFFFFFFFFFFFFF AND PUSH4 0x23B872DD CALLER DUP4 DUP10 PUSH1 0x40 MLOAD DUP5 PUSH4 0xFFFFFFFF AND PUSH1 0xE0 SHL DUP2 MSTORE PUSH1 0x4 ADD PUSH3 0x3BB SWAP4 SWAP3 SWAP2 SWAP1 PUSH3 0xBED JUMP JUMPDEST PUSH1 0x20 PUSH1 0x40 MLOAD DUP1 DUP4 SUB DUP2 PUSH0 DUP8 GAS CALL ISZERO DUP1 ISZERO PUSH3 0x3D8 JUMPI RETURNDATASIZE PUSH0 DUP1 RETURNDATACOPY RETURNDATASIZE PUSH0 REVERT JUMPDEST POP POP POP POP PUSH1 0x40 MLOAD RETURNDATASIZE PUSH1 0x1F NOT PUSH1 0x1F DUP3 ADD AND DUP3 ADD DUP1 PUSH1 0x40 MSTORE POP DUP2 ADD SWAP1 PUSH3 0x3FE SWAP2 SWAP1 PUSH3 0xC62 JUMP JUMPDEST POP DUP7 PUSH20 0xFFFFFFFFFFFFFFFFFFFFFFFFFFFFFFFFFFFFFFFF AND PUSH4 0x23B872DD CALLER DUP4 DUP9 PUSH1 0x40 MLOAD DUP5 PUSH4 0xFFFFFFFF AND PUSH1 0xE0 SHL DUP2 MSTORE PUSH1 0x4 ADD PUSH3 0x43E SWAP4 SWAP3 SWAP2 SWAP1 PUSH3 0xBED JUMP JUMPDEST PUSH1 0x20 PUSH1 0x40 MLOAD DUP1 DUP4 SUB DUP2 PUSH0 DUP8 GAS CALL ISZERO DUP1 ISZERO PUSH3 0x45B JUMPI RETURNDATASIZE PUSH0 DUP1 RETURNDATACOPY RETURNDATASIZE PUSH0 REVERT JUMPDEST POP POP POP POP PUSH1 0x40 MLOAD RETURNDATASIZE PUSH1 0x1F NOT PUSH1 0x1F DUP3 ADD AND DUP3 ADD DUP1 PUSH1 0x40 MSTORE POP DUP2 ADD SWAP1 PUSH3 0x481 SWAP2 SWAP1 PUSH3 0xC62 JUMP JUMPDEST POP PUSH1 0x1 DUP2 SWAP1 DUP1 PUSH1 0x1 DUP2 SLOAD ADD DUP1 DUP3 SSTORE DUP1 SWAP2 POP POP PUSH1 0x1 SWAP1 SUB SWAP1 PUSH0 MSTORE PUSH1 0x20 PUSH0 KECCAK256 ADD PUSH0 SWAP1 SWAP2 SWAP1 SWAP2 SWAP1 SWAP2 PUSH2 0x100 EXP DUP2 SLOAD DUP2 PUSH20 0xFFFFFFFFFFFFFFFFFFFFFFFFFFFFFFFFFFFFFFFF MUL NOT AND SWAP1 DUP4 PUSH20 0xFFFFFFFFFFFFFFFFFFFFFFFFFFFFFFFFFFFFFFFF AND MUL OR SWAP1 SSTORE POP DUP1 PUSH20 0xFFFFFFFFFFFFFFFFFFFFFFFFFFFFFFFFFFFFFFFF AND CALLER PUSH20 0xFFFFFFFFFFFFFFFFFFFFFFFFFFFFFFFFFFFFFFFF AND PUSH32 0xC70BCC9DEB5C2C45FBD04FC61D1513BE9FF5EDEE82CC676F5F9C9EC654802874 PUSH1 0x40 MLOAD PUSH1 0x40 MLOAD DUP1 SWAP2 SUB SWAP1 LOG3 POP POP POP POP POP POP POP POP JUMP JUMPDEST PUSH3 0x550 PUSH3 0x5CF JUMP JUMPDEST PUSH0 PUSH20 0xFFFFFFFFFFFFFFFFFFFFFFFFFFFFFFFFFFFFFFFF AND DUP2 PUSH20 0xFFFFFFFFFFFFFFFFFFFFFFFFFFFFFFFFFFFFFFFF AND SUB PUSH3 0x5C1 JUMPI PUSH1 0x40 MLOAD PUSH32 0x8C379A000000000000000000000000000000000000000000000000000000000 DUP2 MSTORE PUSH1 0x4 ADD PUSH3 0x5B8 SWAP1 PUSH3 0xD16 JUMP JUMPDEST PUSH1 0x40 MLOAD DUP1 SWAP2 SUB SWAP1 REVERT JUMPDEST PUSH3 0x5CC DUP2 PUSH3 0x654 JUMP JUMPDEST POP JUMP JUMPDEST PUSH3 0x5D9 PUSH3 0x715 JUMP JUMPDEST PUSH20 0xFFFFFFFFFFFFFFFFFFFFFFFFFFFFFFFFFFFFFFFF AND PUSH3 0x5F9 PUSH3 0x299 JUMP JUMPDEST PUSH20 0xFFFFFFFFFFFFFFFFFFFFFFFFFFFFFFFFFFFFFFFF AND EQ PUSH3 0x652 JUMPI PUSH1 0x40 MLOAD PUSH32 0x8C379A000000000000000000000000000000000000000000000000000000000 DUP2 MSTORE PUSH1 0x4 ADD PUSH3 0x649 SWAP1 PUSH3 0xD84 JUMP JUMPDEST PUSH1 0x40 MLOAD DUP1 SWAP2 SUB SWAP1 REVERT JUMPDEST JUMP JUMPDEST PUSH0 DUP1 PUSH0 SWAP1 SLOAD SWAP1 PUSH2 0x100 EXP SWAP1 DIV PUSH20 0xFFFFFFFFFFFFFFFFFFFFFFFFFFFFFFFFFFFFFFFF AND SWAP1 POP DUP2 PUSH0 DUP1 PUSH2 0x100 EXP DUP2 SLOAD DUP2 PUSH20 0xFFFFFFFFFFFFFFFFFFFFFFFFFFFFFFFFFFFFFFFF MUL NOT AND SWAP1 DUP4 PUSH20 0xFFFFFFFFFFFFFFFFFFFFFFFFFFFFFFFFFFFFFFFF AND MUL OR SWAP1 SSTORE POP DUP2 PUSH20 0xFFFFFFFFFFFFFFFFFFFFFFFFFFFFFFFFFFFFFFFF AND DUP2 PUSH20 0xFFFFFFFFFFFFFFFFFFFFFFFFFFFFFFFFFFFFFFFF AND PUSH32 0x8BE0079C531659141344CD1FD0A4F28419497F9722A3DAAFE3B4186F6B6457E0 PUSH1 0x40 MLOAD PUSH1 0x40 MLOAD DUP1 SWAP2 SUB SWAP1 LOG3 POP POP JUMP JUMPDEST PUSH0 CALLER SWAP1 POP SWAP1 JUMP JUMPDEST PUSH2 0x42FF DUP1 PUSH3 0xDA5 DUP4 CODECOPY ADD SWAP1 JUMP JUMPDEST PUSH0 DUP2 MLOAD SWAP1 POP SWAP2 SWAP1 POP JUMP JUMPDEST PUSH0 DUP3 DUP3 MSTORE PUSH1 0x20 DUP3 ADD SWAP1 POP SWAP3 SWAP2 POP POP JUMP JUMPDEST PUSH0 DUP2 SWAP1 POP PUSH1 0x20 DUP3 ADD SWAP1 POP SWAP2 SWAP1 POP JUMP JUMPDEST PUSH0 PUSH20 0xFFFFFFFFFFFFFFFFFFFFFFFFFFFFFFFFFFFFFFFF DUP3 AND SWAP1 POP SWAP2 SWAP1 POP JUMP JUMPDEST PUSH0 PUSH3 0x77E DUP3 PUSH3 0x753 JUMP JUMPDEST SWAP1 POP SWAP2 SWAP1 POP JUMP JUMPDEST PUSH3 0x790 DUP2 PUSH3 0x772 JUMP JUMPDEST DUP3 MSTORE POP POP JUMP JUMPDEST PUSH0 PUSH3 0x7A3 DUP4 DUP4 PUSH3 0x785 JUMP JUMPDEST PUSH1 0x20 DUP4 ADD SWAP1 POP SWAP3 SWAP2 POP POP JUMP JUMPDEST PUSH0 PUSH1 0x20 DUP3 ADD SWAP1 POP SWAP2 SWAP1 POP JUMP JUMPDEST PUSH0 PUSH3 0x7C7 DUP3 PUSH3 0x72A JUMP JUMPDEST PUSH3 0x7D3 DUP2 DUP6 PUSH3 0x734 JUMP JUMPDEST SWAP4 POP PUSH3 0x7E0 DUP4 PUSH3 0x744 JUMP JUMPDEST DUP1 PUSH0 JUMPDEST DUP4 DUP2 LT ISZERO PUSH3 0x816 JUMPI DUP2 MLOAD PUSH3 0x7FA DUP9 DUP3 PUSH3 0x796 JUMP JUMPDEST SWAP8 POP PUSH3 0x807 DUP4 PUSH3 0x7AF JUMP JUMPDEST SWAP3 POP POP PUSH1 0x1 DUP2 ADD SWAP1 POP PUSH3 0x7E3 JUMP JUMPDEST POP DUP6 SWAP4 POP POP POP POP SWAP3 SWAP2 POP POP JUMP JUMPDEST PUSH0 PUSH1 0x20 DUP3 ADD SWAP1 POP DUP2 DUP2 SUB PUSH0 DUP4 ADD MSTORE PUSH3 0x83D DUP2 DUP5 PUSH3 0x7BB JUMP JUMPDEST SWAP1 POP SWAP3 SWAP2 POP POP JUMP JUMPDEST PUSH0 DUP1 REVERT JUMPDEST PUSH0 DUP2 SWAP1 POP SWAP2 SWAP1 POP JUMP JUMPDEST PUSH3 0x85D DUP2 PUSH3 0x849 JUMP JUMPDEST DUP2 EQ PUSH3 0x868 JUMPI PUSH0 DUP1 REVERT JUMPDEST POP JUMP JUMPDEST PUSH0 DUP2 CALLDATALOAD SWAP1 POP PUSH3 0x87B DUP2 PUSH3 0x852 JUMP JUMPDEST SWAP3 SWAP2 POP POP JUMP JUMPDEST PUSH0 PUSH1 0x20 DUP3 DUP5 SUB SLT ISZERO PUSH3 0x899 JUMPI PUSH3 0x898 PUSH3 0x845 JUMP JUMPDEST JUMPDEST PUSH0 PUSH3 0x8A8 DUP5 DUP3 DUP6 ADD PUSH3 0x86B JUMP JUMPDEST SWAP2 POP POP SWAP3 SWAP2 POP POP JUMP JUMPDEST PUSH0 DUP2 SWAP1 POP SWAP2 SWAP1 POP JUMP JUMPDEST PUSH0 PUSH3 0x8DA PUSH3 0x8D4 PUSH3 0x8CE DUP5 PUSH3 0x753 JUMP JUMPDEST PUSH3 0x8B1 JUMP JUMPDEST PUSH3 0x753 JUMP JUMPDEST SWAP1 POP SWAP2 SWAP1 POP JUMP JUMPDEST PUSH0 PUSH3 0x8ED DUP3 PUSH3 0x8BA JUMP JUMPDEST SWAP1 POP SWAP2 SWAP1 POP JUMP JUMPDEST PUSH0 PUSH3 0x900 DUP3 PUSH3 0x8E1 JUMP JUMPDEST SWAP1 POP SWAP2 SWAP1 POP JUMP JUMPDEST PUSH3 0x912 DUP2 PUSH3 0x8F4 JUMP JUMPDEST DUP3 MSTORE POP POP JUMP JUMPDEST PUSH0 PUSH1 0x20 DUP3 ADD SWAP1 POP PUSH3 0x92D PUSH0 DUP4 ADD DUP5 PUSH3 0x907 JUMP JUMPDEST SWAP3 SWAP2 POP POP JUMP JUMPDEST PUSH3 0x93E DUP2 PUSH3 0x772 JUMP JUMPDEST DUP3 MSTORE POP POP JUMP JUMPDEST PUSH0 PUSH1 0x20 DUP3 ADD SWAP1 POP PUSH3 0x959 PUSH0 DUP4 ADD DUP5 PUSH3 0x933 JUMP JUMPDEST SWAP3 SWAP2 POP POP JUMP JUMPDEST PUSH3 0x96A DUP2 PUSH3 0x772 JUMP JUMPDEST DUP2 EQ PUSH3 0x975 JUMPI PUSH0 DUP1 REVERT JUMPDEST POP JUMP JUMPDEST PUSH0 DUP2 CALLDATALOAD SWAP1 POP PUSH3 0x988 DUP2 PUSH3 0x95F JUMP JUMPDEST SWAP3 SWAP2 POP POP JUMP JUMPDEST PUSH0 DUP1 PUSH0 DUP1 PUSH0 DUP1 PUSH0 PUSH1 0xE0 DUP9 DUP11 SUB SLT ISZERO PUSH3 0x9AC JUMPI PUSH3 0x9AB PUSH3 0x845 JUMP JUMPDEST JUMPDEST PUSH0 PUSH3 0x9BB DUP11 DUP3 DUP12 ADD PUSH3 0x978 JUMP JUMPDEST SWAP8 POP POP PUSH1 0x20 PUSH3 0x9CE DUP11 DUP3 DUP12 ADD PUSH3 0x978 JUMP JUMPDEST SWAP7 POP POP PUSH1 0x40 PUSH3 0x9E1 DUP11 DUP3 DUP12 ADD PUSH3 0x86B JUMP JUMPDEST SWAP6 POP POP PUSH1 0x60 PUSH3 0x9F4 DUP11 DUP3 DUP12 ADD PUSH3 0x86B JUMP JUMPDEST SWAP5 POP POP PUSH1 0x80 PUSH3 0xA07 DUP11 DUP3 DUP12 ADD PUSH3 0x86B JUMP JUMPDEST SWAP4 POP POP PUSH1 0xA0 PUSH3 0xA1A DUP11 DUP3 DUP12 ADD PUSH3 0x86B JUMP JUMPDEST SWAP3 POP POP PUSH1 0xC0 PUSH3 0xA2D DUP11 DUP3 DUP12 ADD PUSH3 0x86B JUMP JUMPDEST SWAP2 POP POP SWAP3 SWAP6 SWAP9 SWAP2 SWAP5 SWAP8 POP SWAP3 SWAP6 POP JUMP JUMPDEST PUSH0 PUSH1 0x20 DUP3 DUP5 SUB SLT ISZERO PUSH3 0xA54 JUMPI PUSH3 0xA53 PUSH3 0x845 JUMP JUMPDEST JUMPDEST PUSH0 PUSH3 0xA63 DUP5 DUP3 DUP6 ADD PUSH3 0x978 JUMP JUMPDEST SWAP2 POP POP SWAP3 SWAP2 POP POP JUMP JUMPDEST PUSH32 0x4E487B7100000000000000000000000000000000000000000000000000000000 PUSH0 MSTORE PUSH1 0x41 PUSH1 0x4 MSTORE PUSH1 0x24 PUSH0 REVERT JUMPDEST PUSH32 0x4E487B7100000000000000000000000000000000000000000000000000000000 PUSH0 MSTORE PUSH1 0x32 PUSH1 0x4 MSTORE PUSH1 0x24 PUSH0 REVERT JUMPDEST PUSH32 0x4E487B7100000000000000000000000000000000000000000000000000000000 PUSH0 MSTORE PUSH1 0x11 PUSH1 0x4 MSTORE PUSH1 0x24 PUSH0 REVERT JUMPDEST PUSH0 PUSH3 0xAFF DUP3 PUSH3 0x849 JUMP JUMPDEST SWAP2 POP PUSH32 0xFFFFFFFFFFFFFFFFFFFFFFFFFFFFFFFFFFFFFFFFFFFFFFFFFFFFFFFFFFFFFFFF DUP3 SUB PUSH3 0xB34 JUMPI PUSH3 0xB33 PUSH3 0xAC6 JUMP JUMPDEST JUMPDEST PUSH1 0x1 DUP3 ADD SWAP1 POP SWAP2 SWAP1 POP JUMP JUMPDEST PUSH3 0xB4A DUP2 PUSH3 0x849 JUMP JUMPDEST DUP3 MSTORE POP POP JUMP JUMPDEST PUSH0 PUSH2 0x120 DUP3 ADD SWAP1 POP PUSH3 0xB66 PUSH0 DUP4 ADD DUP13 PUSH3 0x933 JUMP JUMPDEST PUSH3 0xB75 PUSH1 0x20 DUP4 ADD DUP12 PUSH3 0x933 JUMP JUMPDEST PUSH3 0xB84 PUSH1 0x40 DUP4 ADD DUP11 PUSH3 0x933 JUMP JUMPDEST PUSH3 0xB93 PUSH1 0x60 DUP4 ADD DUP10 PUSH3 0x933 JUMP JUMPDEST PUSH3 0xBA2 PUSH1 0x80 DUP4 ADD DUP9 PUSH3 0xB3F JUMP JUMPDEST PUSH3 0xBB1 PUSH1 0xA0 DUP4 ADD DUP8 PUSH3 0xB3F JUMP JUMPDEST PUSH3 0xBC0 PUSH1 0xC0 DUP4 ADD DUP7 PUSH3 0xB3F JUMP JUMPDEST PUSH3 0xBCF PUSH1 0xE0 DUP4 ADD DUP6 PUSH3 0xB3F JUMP JUMPDEST PUSH3 0xBDF PUSH2 0x100 DUP4 ADD DUP5 PUSH3 0xB3F JUMP JUMPDEST SWAP11 SWAP10 POP POP POP POP POP POP POP POP POP POP JUMP JUMPDEST PUSH0 PUSH1 0x60 DUP3 ADD SWAP1 POP PUSH3 0xC02 PUSH0 DUP4 ADD DUP7 PUSH3 0x933 JUMP JUMPDEST PUSH3 0xC11 PUSH1 0x20 DUP4 ADD DUP6 PUSH3 0x933 JUMP JUMPDEST PUSH3 0xC20 PUSH1 0x40 DUP4 ADD DUP5 PUSH3 0xB3F JUMP JUMPDEST SWAP5 SWAP4 POP POP POP POP JUMP JUMPDEST PUSH0 DUP2 ISZERO ISZERO SWAP1 POP SWAP2 SWAP1 POP JUMP JUMPDEST PUSH3 0xC3E DUP2 PUSH3 0xC28 JUMP JUMPDEST DUP2 EQ PUSH3 0xC49 JUMPI PUSH0 DUP1 REVERT JUMPDEST POP JUMP JUMPDEST PUSH0 DUP2 MLOAD SWAP1 POP PUSH3 0xC5C DUP2 PUSH3 0xC33 JUMP JUMPDEST SWAP3 SWAP2 POP POP JUMP JUMPDEST PUSH0 PUSH1 0x20 DUP3 DUP5 SUB SLT ISZERO PUSH3 0xC7A JUMPI PUSH3 0xC79 PUSH3 0x845 JUMP JUMPDEST JUMPDEST PUSH0 PUSH3 0xC89 DUP5 DUP3 DUP6 ADD PUSH3 0xC4C JUMP JUMPDEST SWAP2 POP POP SWAP3 SWAP2 POP POP JUMP JUMPDEST PUSH0 DUP3 DUP3 MSTORE PUSH1 0x20 DUP3 ADD SWAP1 POP SWAP3 SWAP2 POP POP JUMP JUMPDEST PUSH32 0x4F776E61626C653A206E6577206F776E657220697320746865207A65726F2061 PUSH0 DUP3 ADD MSTORE PUSH32 0x6464726573730000000000000000000000000000000000000000000000000000 PUSH1 0x20 DUP3 ADD MSTORE POP JUMP JUMPDEST PUSH0 PUSH3 0xCFE PUSH1 0x26 DUP4 PUSH3 0xC92 JUMP JUMPDEST SWAP2 POP PUSH3 0xD0B DUP3 PUSH3 0xCA2 JUMP JUMPDEST PUSH1 0x40 DUP3 ADD SWAP1 POP SWAP2 SWAP1 POP JUMP JUMPDEST PUSH0 PUSH1 0x20 DUP3 ADD SWAP1 POP DUP2 DUP2 SUB PUSH0 DUP4 ADD MSTORE PUSH3 0xD2F DUP2 PUSH3 0xCF0 JUMP JUMPDEST SWAP1 POP SWAP2 SWAP1 POP JUMP JUMPDEST PUSH32 0x4F776E61626C653A2063616C6C6572206973206E6F7420746865206F776E6572 PUSH0 DUP3 ADD MSTORE POP JUMP JUMPDEST PUSH0 PUSH3 0xD6C PUSH1 0x20 DUP4 PUSH3 0xC92 JUMP JUMPDEST SWAP2 POP PUSH3 0xD79 DUP3 PUSH3 0xD36 JUMP JUMPDEST PUSH1 0x20 DUP3 ADD SWAP1 POP SWAP2 SWAP1 POP JUMP JUMPDEST PUSH0 PUSH1 0x20 DUP3 ADD SWAP1 POP DUP2 DUP2 SUB PUSH0 DUP4 ADD MSTORE PUSH3 0xD9D DUP2 PUSH3 0xD5E JUMP JUMPDEST SWAP1 POP SWAP2 SWAP1 POP JUMP INVALID PUSH1 0x80 PUSH1 0x40 MSTORE CALLVALUE DUP1 ISZERO PUSH3 0x10 JUMPI PUSH0 DUP1 REVERT JUMPDEST POP PUSH1 0x40 MLOAD PUSH3 0x42FF CODESIZE SUB DUP1 PUSH3 0x42FF DUP4 CODECOPY DUP2 DUP2 ADD PUSH1 0x40 MSTORE DUP2 ADD SWAP1 PUSH3 0x36 SWAP2 SWAP1 PUSH3 0x8FE JUMP JUMPDEST PUSH1 0x40 MLOAD DUP1 PUSH1 0x40 ADD PUSH1 0x40 MSTORE DUP1 PUSH1 0x8 DUP2 MSTORE PUSH1 0x20 ADD PUSH32 0x4C5020546F6B656E000000000000000000000000000000000000000000000000 DUP2 MSTORE POP PUSH1 0x40 MLOAD DUP1 PUSH1 0x40 ADD PUSH1 0x40 MSTORE DUP1 PUSH1 0x2 DUP2 MSTORE PUSH1 0x20 ADD PUSH32 0x4C50000000000000000000000000000000000000000000000000000000000000 DUP2 MSTORE POP PUSH3 0x186A0 PUSH0 PUSH1 0x1 DUP2 SWAP1 SSTORE POP PUSH0 PUSH1 0x2 DUP2 SWAP1 SSTORE POP DUP1 PUSH1 0x3 DUP2 SWAP1 SSTORE POP POP DUP2 PUSH1 0x7 SWAP1 DUP2 PUSH3 0xCD SWAP2 SWAP1 PUSH3 0xC32 JUMP JUMPDEST POP DUP1 PUSH1 0x8 SWAP1 DUP2 PUSH3 0xDF SWAP2 SWAP1 PUSH3 0xC32 JUMP JUMPDEST POP POP POP PUSH3 0x102 PUSH3 0xF6 PUSH3 0x405 PUSH1 0x20 SHL PUSH1 0x20 SHR JUMP JUMPDEST PUSH3 0x40C PUSH1 0x20 SHL PUSH1 0x20 SHR JUMP JUMPDEST DUP9 PUSH1 0xA PUSH0 PUSH2 0x100 EXP DUP2 SLOAD DUP2 PUSH20 0xFFFFFFFFFFFFFFFFFFFFFFFFFFFFFFFFFFFFFFFF MUL NOT AND SWAP1 DUP4 PUSH20 0xFFFFFFFFFFFFFFFFFFFFFFFFFFFFFFFFFFFFFFFF AND MUL OR SWAP1 SSTORE POP DUP8 PUSH1 0xB PUSH0 PUSH2 0x100 EXP DUP2 SLOAD DUP2 PUSH20 0xFFFFFFFFFFFFFFFFFFFFFFFFFFFFFFFFFFFFFFFF MUL NOT AND SWAP1 DUP4 PUSH20 0xFFFFFFFFFFFFFFFFFFFFFFFFFFFFFFFFFFFFFFFF AND MUL OR SWAP1 SSTORE POP DUP6 PUSH20 0xFFFFFFFFFFFFFFFFFFFFFFFFFFFFFFFFFFFFFFFF AND DUP8 PUSH20 0xFFFFFFFFFFFFFFFFFFFFFFFFFFFFFFFFFFFFFFFF AND SUB PUSH3 0x1F3 JUMPI PUSH1 0x40 MLOAD PUSH32 0x8C379A000000000000000000000000000000000000000000000000000000000 DUP2 MSTORE PUSH1 0x4 ADD PUSH3 0x1EA SWAP1 PUSH3 0xD74 JUMP JUMPDEST PUSH1 0x40 MLOAD DUP1 SWAP2 SUB SWAP1 REVERT JUMPDEST DUP7 PUSH1 0xC PUSH0 PUSH2 0x100 EXP DUP2 SLOAD DUP2 PUSH20 0xFFFFFFFFFFFFFFFFFFFFFFFFFFFFFFFFFFFFFFFF MUL NOT AND SWAP1 DUP4 PUSH20 0xFFFFFFFFFFFFFFFFFFFFFFFFFFFFFFFFFFFFFFFF AND MUL OR SWAP1 SSTORE POP DUP6 PUSH1 0xD PUSH0 PUSH2 0x100 EXP DUP2 SLOAD DUP2 PUSH20 0xFFFFFFFFFFFFFFFFFFFFFFFFFFFFFFFFFFFFFFFF MUL NOT AND SWAP1 DUP4 PUSH20 0xFFFFFFFFFFFFFFFFFFFFFFFFFFFFFFFFFFFFFFFF AND MUL OR SWAP1 SSTORE POP DUP5 PUSH1 0xE DUP2 SWAP1 SSTORE POP DUP4 PUSH1 0xF DUP2 SWAP1 SSTORE POP DUP3 DUP3 LT ISZERO PUSH3 0x2C7 JUMPI PUSH1 0x40 MLOAD PUSH32 0x8C379A000000000000000000000000000000000000000000000000000000000 DUP2 MSTORE PUSH1 0x4 ADD PUSH3 0x2BE SWAP1 PUSH3 0xE08 JUMP JUMPDEST PUSH1 0x40 MLOAD DUP1 SWAP2 SUB SWAP1 REVERT JUMPDEST DUP3 PUSH1 0x13 DUP2 SWAP1 SSTORE POP DUP2 PUSH1 0x14 DUP2 SWAP1 SSTORE POP DUP1 PUSH1 0x15 DUP2 SWAP1 SSTORE POP PUSH3 0x2EF DUP4 DUP4 DUP8 PUSH3 0x4CF PUSH1 0x20 SHL PUSH1 0x20 SHR JUMP JUMPDEST PUSH1 0x10 DUP2 SWAP1 SSTORE POP PUSH3 0x30C DUP8 DUP5 PUSH1 0x10 SLOAD DUP9 DUP9 PUSH3 0x553 PUSH1 0x20 SHL PUSH1 0x20 SHR JUMP JUMPDEST PUSH1 0x11 DUP2 SWAP1 SSTORE POP PUSH1 0x11 SLOAD PUSH1 0xF SLOAD PUSH3 0x324 SWAP2 SWAP1 PUSH3 0xE55 JUMP JUMPDEST PUSH1 0x10 SLOAD PUSH1 0xE SLOAD PUSH3 0x336 SWAP2 SWAP1 PUSH3 0xE55 JUMP JUMPDEST PUSH3 0x342 SWAP2 SWAP1 PUSH3 0xE8F JUMP JUMPDEST PUSH1 0x12 DUP2 SWAP1 SSTORE POP PUSH1 0x40 MLOAD DUP1 PUSH1 0x80 ADD PUSH1 0x40 MSTORE DUP1 PUSH1 0xE SLOAD DUP2 MSTORE PUSH1 0x20 ADD PUSH1 0xF SLOAD DUP2 MSTORE PUSH1 0x20 ADD PUSH1 0x13 SLOAD DUP2 MSTORE PUSH1 0x20 ADD TIMESTAMP DUP2 MSTORE POP PUSH0 DUP1 DUP1 DUP2 MSTORE PUSH1 0x20 ADD SWAP1 DUP2 MSTORE PUSH1 0x20 ADD PUSH0 KECCAK256 PUSH0 DUP3 ADD MLOAD DUP2 PUSH0 ADD SSTORE PUSH1 0x20 DUP3 ADD MLOAD DUP2 PUSH1 0x1 ADD SSTORE PUSH1 0x40 DUP3 ADD MLOAD DUP2 PUSH1 0x2 ADD SSTORE PUSH1 0x60 DUP3 ADD MLOAD DUP2 PUSH1 0x3 ADD SSTORE SWAP1 POP POP PUSH32 0xCF2AA50876CDFBB541206F89AF0EE78D44A2ABF8D328E37FA4917F982149848A PUSH1 0xE SLOAD PUSH1 0xF SLOAD PUSH1 0x40 MLOAD PUSH3 0x3DF SWAP3 SWAP2 SWAP1 PUSH3 0xEEA JUMP JUMPDEST PUSH1 0x40 MLOAD DUP1 SWAP2 SUB SWAP1 LOG1 PUSH1 0x64 PUSH1 0x16 DUP2 SWAP1 SSTORE POP PUSH0 PUSH1 0x18 DUP2 SWAP1 SSTORE POP POP POP POP POP POP POP POP POP POP PUSH3 0x11BE JUMP JUMPDEST PUSH0 CALLER SWAP1 POP SWAP1 JUMP JUMPDEST PUSH0 PUSH1 0x9 PUSH0 SWAP1 SLOAD SWAP1 PUSH2 0x100 EXP SWAP1 DIV PUSH20 0xFFFFFFFFFFFFFFFFFFFFFFFFFFFFFFFFFFFFFFFF AND SWAP1 POP DUP2 PUSH1 0x9 PUSH0 PUSH2 0x100 EXP DUP2 SLOAD DUP2 PUSH20 0xFFFFFFFFFFFFFFFFFFFFFFFFFFFFFFFFFFFFFFFF MUL NOT AND SWAP1 DUP4 PUSH20 0xFFFFFFFFFFFFFFFFFFFFFFFFFFFFFFFFFFFFFFFF AND MUL OR SWAP1 SSTORE POP DUP2 PUSH20 0xFFFFFFFFFFFFFFFFFFFFFFFFFFFFFFFFFFFFFFFF AND DUP2 PUSH20 0xFFFFFFFFFFFFFFFFFFFFFFFFFFFFFFFFFFFFFFFF AND PUSH32 0x8BE0079C531659141344CD1FD0A4F28419497F9722A3DAAFE3B4186F6B6457E0 PUSH1 0x40 MLOAD PUSH1 0x40 MLOAD DUP1 SWAP2 SUB SWAP1 LOG3 POP POP JUMP JUMPDEST PUSH0 DUP1 PUSH3 0x4F8 PUSH8 0xDE0B6B3A7640000 DUP7 PUSH3 0x4EB SWAP2 SWAP1 PUSH3 0xE8F JUMP JUMPDEST DUP6 PUSH3 0x631 PUSH1 0x20 SHL PUSH1 0x20 SHR JUMP JUMPDEST SWAP1 POP PUSH0 PUSH3 0x50C DUP3 PUSH3 0x648 PUSH1 0x20 SHL PUSH1 0x20 SHR JUMP JUMPDEST SWAP1 POP PUSH0 DUP5 DUP3 PUSH3 0x51D SWAP2 SWAP1 PUSH3 0xE8F JUMP JUMPDEST SWAP1 POP PUSH0 DUP3 PUSH4 0x3B9ACA00 PUSH3 0x532 SWAP2 SWAP1 PUSH3 0xF15 JUMP JUMPDEST SWAP1 POP PUSH3 0x546 DUP3 DUP3 PUSH3 0x631 PUSH1 0x20 SHL PUSH1 0x20 SHR JUMP JUMPDEST SWAP5 POP POP POP POP POP SWAP4 SWAP3 POP POP POP JUMP JUMPDEST PUSH0 DUP1 DUP7 PUSH20 0xFFFFFFFFFFFFFFFFFFFFFFFFFFFFFFFFFFFFFFFF AND PUSH4 0x313CE567 PUSH1 0x40 MLOAD DUP2 PUSH4 0xFFFFFFFF AND PUSH1 0xE0 SHL DUP2 MSTORE PUSH1 0x4 ADD PUSH1 0x20 PUSH1 0x40 MLOAD DUP1 DUP4 SUB DUP2 DUP7 GAS STATICCALL ISZERO DUP1 ISZERO PUSH3 0x59F JUMPI RETURNDATASIZE PUSH0 DUP1 RETURNDATACOPY RETURNDATASIZE PUSH0 REVERT JUMPDEST POP POP POP POP PUSH1 0x40 MLOAD RETURNDATASIZE PUSH1 0x1F NOT PUSH1 0x1F DUP3 ADD AND DUP3 ADD DUP1 PUSH1 0x40 MSTORE POP DUP2 ADD SWAP1 PUSH3 0x5C5 SWAP2 SWAP1 PUSH3 0xF8A JUMP JUMPDEST SWAP1 POP PUSH0 DUP2 PUSH1 0xA PUSH3 0x5D7 SWAP2 SWAP1 PUSH3 0x110A JUMP JUMPDEST SWAP1 POP PUSH0 DUP5 DUP3 PUSH3 0x5E8 SWAP2 SWAP1 PUSH3 0xE8F JUMP JUMPDEST DUP8 DUP8 PUSH3 0x5F6 SWAP2 SWAP1 PUSH3 0xE55 JUMP JUMPDEST DUP10 PUSH3 0x603 SWAP2 SWAP1 PUSH3 0xE8F JUMP JUMPDEST PUSH3 0x60F SWAP2 SWAP1 PUSH3 0xF15 JUMP JUMPDEST SWAP1 POP PUSH3 0x623 DUP2 DUP4 PUSH3 0x631 PUSH1 0x20 SHL PUSH1 0x20 SHR JUMP JUMPDEST SWAP4 POP POP POP POP SWAP6 SWAP5 POP POP POP POP POP JUMP JUMPDEST PUSH0 DUP2 DUP4 PUSH3 0x640 SWAP2 SWAP1 PUSH3 0x1187 JUMP JUMPDEST SWAP1 POP SWAP3 SWAP2 POP POP JUMP JUMPDEST PUSH0 DUP1 DUP3 SUB PUSH3 0x65A JUMPI PUSH0 SWAP1 POP PUSH3 0x763 JUMP JUMPDEST PUSH0 PUSH1 0x1 PUSH3 0x66E DUP5 PUSH3 0x768 PUSH1 0x20 SHL PUSH1 0x20 SHR JUMP JUMPDEST SWAP1 SHR PUSH1 0x1 SWAP1 SHL SWAP1 POP PUSH1 0x1 DUP2 DUP5 DUP2 PUSH3 0x68B JUMPI PUSH3 0x68A PUSH3 0x115A JUMP JUMPDEST JUMPDEST DIV DUP3 ADD SWAP1 SHR SWAP1 POP PUSH1 0x1 DUP2 DUP5 DUP2 PUSH3 0x6A7 JUMPI PUSH3 0x6A6 PUSH3 0x115A JUMP JUMPDEST JUMPDEST DIV DUP3 ADD SWAP1 SHR SWAP1 POP PUSH1 0x1 DUP2 DUP5 DUP2 PUSH3 0x6C3 JUMPI PUSH3 0x6C2 PUSH3 0x115A JUMP JUMPDEST JUMPDEST DIV DUP3 ADD SWAP1 SHR SWAP1 POP PUSH1 0x1 DUP2 DUP5 DUP2 PUSH3 0x6DF JUMPI PUSH3 0x6DE PUSH3 0x115A JUMP JUMPDEST JUMPDEST DIV DUP3 ADD SWAP1 SHR SWAP1 POP PUSH1 0x1 DUP2 DUP5 DUP2 PUSH3 0x6FB JUMPI PUSH3 0x6FA PUSH3 0x115A JUMP JUMPDEST JUMPDEST DIV DUP3 ADD SWAP1 SHR SWAP1 POP PUSH1 0x1 DUP2 DUP5 DUP2 PUSH3 0x717 JUMPI PUSH3 0x716 PUSH3 0x115A JUMP JUMPDEST JUMPDEST DIV DUP3 ADD SWAP1 SHR SWAP1 POP PUSH1 0x1 DUP2 DUP5 DUP2 PUSH3 0x733 JUMPI PUSH3 0x732 PUSH3 0x115A JUMP JUMPDEST JUMPDEST DIV DUP3 ADD SWAP1 SHR SWAP1 POP PUSH3 0x75F DUP2 DUP3 DUP6 DUP2 PUSH3 0x752 JUMPI PUSH3 0x751 PUSH3 0x115A JUMP JUMPDEST JUMPDEST DIV PUSH3 0x847 PUSH1 0x20 SHL PUSH1 0x20 SHR JUMP JUMPDEST SWAP2 POP POP JUMPDEST SWAP2 SWAP1 POP JUMP JUMPDEST PUSH0 DUP1 PUSH0 SWAP1 POP PUSH0 PUSH1 0x80 DUP5 SWAP1 SHR GT ISZERO PUSH3 0x788 JUMPI PUSH1 0x80 DUP4 SWAP1 SHR SWAP3 POP PUSH1 0x80 DUP2 ADD SWAP1 POP JUMPDEST PUSH0 PUSH1 0x40 DUP5 SWAP1 SHR GT ISZERO PUSH3 0x7A3 JUMPI PUSH1 0x40 DUP4 SWAP1 SHR SWAP3 POP PUSH1 0x40 DUP2 ADD SWAP1 POP JUMPDEST PUSH0 PUSH1 0x20 DUP5 SWAP1 SHR GT ISZERO PUSH3 0x7BE JUMPI PUSH1 0x20 DUP4 SWAP1 SHR SWAP3 POP PUSH1 0x20 DUP2 ADD SWAP1 POP JUMPDEST PUSH0 PUSH1 0x10 DUP5 SWAP1 SHR GT ISZERO PUSH3 0x7D9 JUMPI PUSH1 0x10 DUP4 SWAP1 SHR SWAP3 POP PUSH1 0x10 DUP2 ADD SWAP1 POP JUMPDEST PUSH0 PUSH1 0x8 DUP5 SWAP1 SHR GT ISZERO PUSH3 0x7F4 JUMPI PUSH1 0x8 DUP4 SWAP1 SHR SWAP3 POP PUSH1 0x8 DUP2 ADD SWAP1 POP JUMPDEST PUSH0 PUSH1 0x4 DUP5 SWAP1 SHR GT ISZERO PUSH3 0x80F JUMPI PUSH1 0x4 DUP4 SWAP1 SHR SWAP3 POP PUSH1 0x4 DUP2 ADD SWAP1 POP JUMPDEST PUSH0 PUSH1 0x2 DUP5 SWAP1 SHR GT ISZERO PUSH3 0x82A JUMPI PUSH1 0x2 DUP4 SWAP1 SHR SWAP3 POP PUSH1 0x2 DUP2 ADD SWAP1 POP JUMPDEST PUSH0 PUSH1 0x1 DUP5 SWAP1 SHR GT ISZERO PUSH3 0x83E JUMPI PUSH1 0x1 DUP2 ADD SWAP1 POP JUMPDEST DUP1 SWAP2 POP POP SWAP2 SWAP1 POP JUMP JUMPDEST PUSH0 DUP2 DUP4 LT PUSH3 0x857 JUMPI DUP2 PUSH3 0x859 JUMP JUMPDEST DUP3 JUMPDEST SWAP1 POP SWAP3 SWAP2 POP POP JUMP JUMPDEST PUSH0 DUP1 REVERT JUMPDEST PUSH0 PUSH20 0xFFFFFFFFFFFFFFFFFFFFFFFFFFFFFFFFFFFFFFFF DUP3 AND SWAP1 POP SWAP2 SWAP1 POP JUMP JUMPDEST PUSH0 PUSH3 0x890 DUP3 PUSH3 0x865 JUMP JUMPDEST SWAP1 POP SWAP2 SWAP1 POP JUMP JUMPDEST PUSH3 0x8A2 DUP2 PUSH3 0x884 JUMP JUMPDEST DUP2 EQ PUSH3 0x8AD JUMPI PUSH0 DUP1 REVERT JUMPDEST POP JUMP JUMPDEST PUSH0 DUP2 MLOAD SWAP1 POP PUSH3 0x8C0 DUP2 PUSH3 0x897 JUMP JUMPDEST SWAP3 SWAP2 POP POP JUMP JUMPDEST PUSH0 DUP2 SWAP1 POP SWAP2 SWAP1 POP JUMP JUMPDEST PUSH3 0x8DA DUP2 PUSH3 0x8C6 JUMP JUMPDEST DUP2 EQ PUSH3 0x8E5 JUMPI PUSH0 DUP1 REVERT JUMPDEST POP JUMP JUMPDEST PUSH0 DUP2 MLOAD SWAP1 POP PUSH3 0x8F8 DUP2 PUSH3 0x8CF JUMP JUMPDEST SWAP3 SWAP2 POP POP JUMP JUMPDEST PUSH0 DUP1 PUSH0 DUP1 PUSH0 DUP1 PUSH0 DUP1 PUSH0 PUSH2 0x120 DUP11 DUP13 SUB SLT ISZERO PUSH3 0x91F JUMPI PUSH3 0x91E PUSH3 0x861 JUMP JUMPDEST JUMPDEST PUSH0 PUSH3 0x92E DUP13 DUP3 DUP14 ADD PUSH3 0x8B0 JUMP JUMPDEST SWAP10 POP POP PUSH1 0x20 PUSH3 0x941 DUP13 DUP3 DUP14 ADD PUSH3 0x8B0 JUMP JUMPDEST SWAP9 POP POP PUSH1 0x40 PUSH3 0x954 DUP13 DUP3 DUP14 ADD PUSH3 0x8B0 JUMP JUMPDEST SWAP8 POP POP PUSH1 0x60 PUSH3 0x967 DUP13 DUP3 DUP14 ADD PUSH3 0x8B0 JUMP JUMPDEST SWAP7 POP POP PUSH1 0x80 PUSH3 0x97A DUP13 DUP3 DUP14 ADD PUSH3 0x8E8 JUMP JUMPDEST SWAP6 POP POP PUSH1 0xA0 PUSH3 0x98D DUP13 DUP3 DUP14 ADD PUSH3 0x8E8 JUMP JUMPDEST SWAP5 POP POP PUSH1 0xC0 PUSH3 0x9A0 DUP13 DUP3 DUP14 ADD PUSH3 0x8E8 JUMP JUMPDEST SWAP4 POP POP PUSH1 0xE0 PUSH3 0x9B3 DUP13 DUP3 DUP14 ADD PUSH3 0x8E8 JUMP JUMPDEST SWAP3 POP POP PUSH2 0x100 PUSH3 0x9C7 DUP13 DUP3 DUP14 ADD PUSH3 0x8E8 JUMP JUMPDEST SWAP2 POP POP SWAP3 SWAP6 SWAP9 POP SWAP3 SWAP6 SWAP9 POP SWAP3 SWAP6 SWAP9 JUMP JUMPDEST PUSH0 DUP2 MLOAD SWAP1 POP SWAP2 SWAP1 POP JUMP JUMPDEST PUSH32 0x4E487B7100000000000000000000000000000000000000000000000000000000 PUSH0 MSTORE PUSH1 0x41 PUSH1 0x4 MSTORE PUSH1 0x24 PUSH0 REVERT JUMPDEST PUSH32 0x4E487B7100000000000000000000000000000000000000000000000000000000 PUSH0 MSTORE PUSH1 0x22 PUSH1 0x4 MSTORE PUSH1 0x24 PUSH0 REVERT JUMPDEST PUSH0 PUSH1 0x2 DUP3 DIV SWAP1 POP PUSH1 0x1 DUP3 AND DUP1 PUSH3 0xA53 JUMPI PUSH1 0x7F DUP3 AND SWAP2 POP JUMPDEST PUSH1 0x20 DUP3 LT DUP2 SUB PUSH3 0xA69 JUMPI PUSH3 0xA68 PUSH3 0xA0E JUMP JUMPDEST JUMPDEST POP SWAP2 SWAP1 POP JUMP JUMPDEST PUSH0 DUP2 SWAP1 POP DUP2 PUSH0 MSTORE PUSH1 0x20 PUSH0 KECCAK256 SWAP1 POP SWAP2 SWAP1 POP JUMP JUMPDEST PUSH0 PUSH1 0x20 PUSH1 0x1F DUP4 ADD DIV SWAP1 POP SWAP2 SWAP1 POP JUMP JUMPDEST PUSH0 DUP3 DUP3 SHL SWAP1 POP SWAP3 SWAP2 POP POP JUMP JUMPDEST PUSH0 PUSH1 0x8 DUP4 MUL PUSH3 0xACD PUSH32 0xFFFFFFFFFFFFFFFFFFFFFFFFFFFFFFFFFFFFFFFFFFFFFFFFFFFFFFFFFFFFFFFF DUP3 PUSH3 0xA90 JUMP JUMPDEST PUSH3 0xAD9 DUP7 DUP4 PUSH3 0xA90 JUMP JUMPDEST SWAP6 POP DUP1 NOT DUP5 AND SWAP4 POP DUP1 DUP7 AND DUP5 OR SWAP3 POP POP POP SWAP4 SWAP3 POP POP POP JUMP JUMPDEST PUSH0 DUP2 SWAP1 POP SWAP2 SWAP1 POP JUMP JUMPDEST PUSH0 PUSH3 0xB1A PUSH3 0xB14 PUSH3 0xB0E DUP5 PUSH3 0x8C6 JUMP JUMPDEST PUSH3 0xAF1 JUMP JUMPDEST PUSH3 0x8C6 JUMP JUMPDEST SWAP1 POP SWAP2 SWAP1 POP JUMP JUMPDEST PUSH0 DUP2 SWAP1 POP SWAP2 SWAP1 POP JUMP JUMPDEST PUSH3 0xB35 DUP4 PUSH3 0xAFA JUMP JUMPDEST PUSH3 0xB4D PUSH3 0xB44 DUP3 PUSH3 0xB21 JUMP JUMPDEST DUP5 DUP5 SLOAD PUSH3 0xA9C JUMP JUMPDEST DUP3 SSTORE POP POP POP POP JUMP JUMPDEST PUSH0 SWAP1 JUMP JUMPDEST PUSH3 0xB63 PUSH3 0xB55 JUMP JUMPDEST PUSH3 0xB70 DUP2 DUP5 DUP5 PUSH3 0xB2A JUMP JUMPDEST POP POP POP JUMP JUMPDEST JUMPDEST DUP2 DUP2 LT ISZERO PUSH3 0xB97 JUMPI PUSH3 0xB8B PUSH0 DUP3 PUSH3 0xB59 JUMP JUMPDEST PUSH1 0x1 DUP2 ADD SWAP1 POP PUSH3 0xB76 JUMP JUMPDEST POP POP JUMP JUMPDEST PUSH1 0x1F DUP3 GT ISZERO PUSH3 0xBE6 JUMPI PUSH3 0xBB0 DUP2 PUSH3 0xA6F JUMP JUMPDEST PUSH3 0xBBB DUP5 PUSH3 0xA81 JUMP JUMPDEST DUP2 ADD PUSH1 0x20 DUP6 LT ISZERO PUSH3 0xBCB JUMPI DUP2 SWAP1 POP JUMPDEST PUSH3 0xBE3 PUSH3 0xBDA DUP6 PUSH3 0xA81 JUMP JUMPDEST DUP4 ADD DUP3 PUSH3 0xB75 JUMP JUMPDEST POP POP JUMPDEST POP POP POP JUMP JUMPDEST PUSH0 DUP3 DUP3 SHR SWAP1 POP SWAP3 SWAP2 POP POP JUMP JUMPDEST PUSH0 PUSH3 0xC08 PUSH0 NOT DUP5 PUSH1 0x8 MUL PUSH3 0xBEB JUMP JUMPDEST NOT DUP1 DUP4 AND SWAP2 POP POP SWAP3 SWAP2 POP POP JUMP JUMPDEST PUSH0 PUSH3 0xC22 DUP4 DUP4 PUSH3 0xBF7 JUMP JUMPDEST SWAP2 POP DUP3 PUSH1 0x2 MUL DUP3 OR SWAP1 POP SWAP3 SWAP2 POP POP JUMP JUMPDEST PUSH3 0xC3D DUP3 PUSH3 0x9D7 JUMP JUMPDEST PUSH8 0xFFFFFFFFFFFFFFFF DUP2 GT ISZERO PUSH3 0xC59 JUMPI PUSH3 0xC58 PUSH3 0x9E1 JUMP JUMPDEST JUMPDEST PUSH3 0xC65 DUP3 SLOAD PUSH3 0xA3B JUMP JUMPDEST PUSH3 0xC72 DUP3 DUP3 DUP6 PUSH3 0xB9B JUMP JUMPDEST PUSH0 PUSH1 0x20 SWAP1 POP PUSH1 0x1F DUP4 GT PUSH1 0x1 DUP2 EQ PUSH3 0xCA8 JUMPI PUSH0 DUP5 ISZERO PUSH3 0xC93 JUMPI DUP3 DUP8 ADD MLOAD SWAP1 POP JUMPDEST PUSH3 0xC9F DUP6 DUP3 PUSH3 0xC15 JUMP JUMPDEST DUP7 SSTORE POP PUSH3 0xD0E JUMP JUMPDEST PUSH1 0x1F NOT DUP5 AND PUSH3 0xCB8 DUP7 PUSH3 0xA6F JUMP JUMPDEST PUSH0 JUMPDEST DUP3 DUP2 LT ISZERO PUSH3 0xCE1 JUMPI DUP5 DUP10 ADD MLOAD DUP3 SSTORE PUSH1 0x1 DUP3 ADD SWAP2 POP PUSH1 0x20 DUP6 ADD SWAP5 POP PUSH1 0x20 DUP2 ADD SWAP1 POP PUSH3 0xCBA JUMP JUMPDEST DUP7 DUP4 LT ISZERO PUSH3 0xD01 JUMPI DUP5 DUP10 ADD MLOAD PUSH3 0xCFD PUSH1 0x1F DUP10 AND DUP3 PUSH3 0xBF7 JUMP JUMPDEST DUP4 SSTORE POP JUMPDEST PUSH1 0x1 PUSH1 0x2 DUP9 MUL ADD DUP9 SSTORE POP POP POP JUMPDEST POP POP POP POP POP POP JUMP JUMPDEST PUSH0 DUP3 DUP3 MSTORE PUSH1 0x20 DUP3 ADD SWAP1 POP SWAP3 SWAP2 POP POP JUMP JUMPDEST PUSH32 0x426F746820746F6B656E732063616E6E6F74206265207468652073616D650000 PUSH0 DUP3 ADD MSTORE POP JUMP JUMPDEST PUSH0 PUSH3 0xD5C PUSH1 0x1E DUP4 PUSH3 0xD16 JUMP JUMPDEST SWAP2 POP PUSH3 0xD69 DUP3 PUSH3 0xD26 JUMP JUMPDEST PUSH1 0x20 DUP3 ADD SWAP1 POP SWAP2 SWAP1 POP JUMP JUMPDEST PUSH0 PUSH1 0x20 DUP3 ADD SWAP1 POP DUP2 DUP2 SUB PUSH0 DUP4 ADD MSTORE PUSH3 0xD8D DUP2 PUSH3 0xD4E JUMP JUMPDEST SWAP1 POP SWAP2 SWAP1 POP JUMP JUMPDEST PUSH32 0x4D6178696D756D207072696365206D7573742062652067726561746572207468 PUSH0 DUP3 ADD MSTORE PUSH32 0x616E206F7220657175616C20746F207468652062617365207072696365000000 PUSH1 0x20 DUP3 ADD MSTORE POP JUMP JUMPDEST PUSH0 PUSH3 0xDF0 PUSH1 0x3D DUP4 PUSH3 0xD16 JUMP JUMPDEST SWAP2 POP PUSH3 0xDFD DUP3 PUSH3 0xD94 JUMP JUMPDEST PUSH1 0x40 DUP3 ADD SWAP1 POP SWAP2 SWAP1 POP JUMP JUMPDEST PUSH0 PUSH1 0x20 DUP3 ADD SWAP1 POP DUP2 DUP2 SUB PUSH0 DUP4 ADD MSTORE PUSH3 0xE21 DUP2 PUSH3 0xDE2 JUMP JUMPDEST SWAP1 POP SWAP2 SWAP1 POP JUMP JUMPDEST PUSH32 0x4E487B7100000000000000000000000000000000000000000000000000000000 PUSH0 MSTORE PUSH1 0x11 PUSH1 0x4 MSTORE PUSH1 0x24 PUSH0 REVERT JUMPDEST PUSH0 PUSH3 0xE61 DUP3 PUSH3 0x8C6 JUMP JUMPDEST SWAP2 POP PUSH3 0xE6E DUP4 PUSH3 0x8C6 JUMP JUMPDEST SWAP3 POP DUP3 DUP3 ADD SWAP1 POP DUP1 DUP3 GT ISZERO PUSH3 0xE89 JUMPI PUSH3 0xE88 PUSH3 0xE28 JUMP JUMPDEST JUMPDEST SWAP3 SWAP2 POP POP JUMP JUMPDEST PUSH0 PUSH3 0xE9B DUP3 PUSH3 0x8C6 JUMP JUMPDEST SWAP2 POP PUSH3 0xEA8 DUP4 PUSH3 0x8C6 JUMP JUMPDEST SWAP3 POP DUP3 DUP3 MUL PUSH3 0xEB8 DUP2 PUSH3 0x8C6 JUMP JUMPDEST SWAP2 POP DUP3 DUP3 DIV DUP5 EQ DUP4 ISZERO OR PUSH3 0xED2 JUMPI PUSH3 0xED1 PUSH3 0xE28 JUMP JUMPDEST JUMPDEST POP SWAP3 SWAP2 POP POP JUMP JUMPDEST PUSH3 0xEE4 DUP2 PUSH3 0x8C6 JUMP JUMPDEST DUP3 MSTORE POP POP JUMP JUMPDEST PUSH0 PUSH1 0x40 DUP3 ADD SWAP1 POP PUSH3 0xEFF PUSH0 DUP4 ADD DUP6 PUSH3 0xED9 JUMP JUMPDEST PUSH3 0xF0E PUSH1 0x20 DUP4 ADD DUP5 PUSH3 0xED9 JUMP JUMPDEST SWAP4 SWAP3 POP POP POP JUMP JUMPDEST PUSH0 PUSH3 0xF21 DUP3 PUSH3 0x8C6 JUMP JUMPDEST SWAP2 POP PUSH3 0xF2E DUP4 PUSH3 0x8C6 JUMP JUMPDEST SWAP3 POP DUP3 DUP3 SUB SWAP1 POP DUP2 DUP2 GT ISZERO PUSH3 0xF49 JUMPI PUSH3 0xF48 PUSH3 0xE28 JUMP JUMPDEST JUMPDEST SWAP3 SWAP2 POP POP JUMP JUMPDEST PUSH0 PUSH1 0xFF DUP3 AND SWAP1 POP SWAP2 SWAP1 POP JUMP JUMPDEST PUSH3 0xF66 DUP2 PUSH3 0xF4F JUMP JUMPDEST DUP2 EQ PUSH3 0xF71 JUMPI PUSH0 DUP1 REVERT JUMPDEST POP JUMP JUMPDEST PUSH0 DUP2 MLOAD SWAP1 POP PUSH3 0xF84 DUP2 PUSH3 0xF5B JUMP JUMPDEST SWAP3 SWAP2 POP POP JUMP JUMPDEST PUSH0 PUSH1 0x20 DUP3 DUP5 SUB SLT ISZERO PUSH3 0xFA2 JUMPI PUSH3 0xFA1 PUSH3 0x861 JUMP JUMPDEST JUMPDEST PUSH0 PUSH3 0xFB1 DUP5 DUP3 DUP6 ADD PUSH3 0xF74 JUMP JUMPDEST SWAP2 POP POP SWAP3 SWAP2 POP POP JUMP JUMPDEST PUSH0 DUP2 PUSH1 0x1 SHR SWAP1 POP SWAP2 SWAP1 POP JUMP JUMPDEST PUSH0 DUP1 DUP3 SWAP2 POP DUP4 SWAP1 POP JUMPDEST PUSH1 0x1 DUP6 GT ISZERO PUSH3 0x1017 JUMPI DUP1 DUP7 DIV DUP2 GT ISZERO PUSH3 0xFEF JUMPI PUSH3 0xFEE PUSH3 0xE28 JUMP JUMPDEST JUMPDEST PUSH1 0x1 DUP6 AND ISZERO PUSH3 0xFFF JUMPI DUP1 DUP3 MUL SWAP2 POP JUMPDEST DUP1 DUP2 MUL SWAP1 POP PUSH3 0x100F DUP6 PUSH3 0xFBA JUMP JUMPDEST SWAP5 POP PUSH3 0xFCF JUMP JUMPDEST SWAP5 POP SWAP5 SWAP3 POP POP POP JUMP JUMPDEST PUSH0 DUP3 PUSH3 0x1031 JUMPI PUSH1 0x1 SWAP1 POP PUSH3 0x1103 JUMP JUMPDEST DUP2 PUSH3 0x1040 JUMPI PUSH0 SWAP1 POP PUSH3 0x1103 JUMP JUMPDEST DUP2 PUSH1 0x1 DUP2 EQ PUSH3 0x1059 JUMPI PUSH1 0x2 DUP2 EQ PUSH3 0x1064 JUMPI PUSH3 0x109A JUMP JUMPDEST PUSH1 0x1 SWAP2 POP POP PUSH3 0x1103 JUMP JUMPDEST PUSH1 0xFF DUP5 GT ISZERO PUSH3 0x1079 JUMPI PUSH3 0x1078 PUSH3 0xE28 JUMP JUMPDEST JUMPDEST DUP4 PUSH1 0x2 EXP SWAP2 POP DUP5 DUP3 GT ISZERO PUSH3 0x1093 JUMPI PUSH3 0x1092 PUSH3 0xE28 JUMP JUMPDEST JUMPDEST POP PUSH3 0x1103 JUMP JUMPDEST POP PUSH1 0x20 DUP4 LT PUSH2 0x133 DUP4 LT AND PUSH1 0x4E DUP5 LT PUSH1 0xB DUP5 LT AND OR ISZERO PUSH3 0x10D4 JUMPI DUP3 DUP3 EXP SWAP1 POP DUP4 DUP2 GT ISZERO PUSH3 0x10CE JUMPI PUSH3 0x10CD PUSH3 0xE28 JUMP JUMPDEST JUMPDEST PUSH3 0x1103 JUMP JUMPDEST PUSH3 0x10E3 DUP5 DUP5 DUP5 PUSH1 0x1 PUSH3 0xFC6 JUMP JUMPDEST SWAP3 POP SWAP1 POP DUP2 DUP5 DIV DUP2 GT ISZERO PUSH3 0x10FD JUMPI PUSH3 0x10FC PUSH3 0xE28 JUMP JUMPDEST JUMPDEST DUP2 DUP2 MUL SWAP1 POP JUMPDEST SWAP4 SWAP3 POP POP POP JUMP JUMPDEST PUSH0 PUSH3 0x1116 DUP3 PUSH3 0x8C6 JUMP JUMPDEST SWAP2 POP PUSH3 0x1123 DUP4 PUSH3 0xF4F JUMP JUMPDEST SWAP3 POP PUSH3 0x1152 PUSH32 0xFFFFFFFFFFFFFFFFFFFFFFFFFFFFFFFFFFFFFFFFFFFFFFFFFFFFFFFFFFFFFFFF DUP5 DUP5 PUSH3 0x1020 JUMP JUMPDEST SWAP1 POP SWAP3 SWAP2 POP POP JUMP JUMPDEST PUSH32 0x4E487B7100000000000000000000000000000000000000000000000000000000 PUSH0 MSTORE PUSH1 0x12 PUSH1 0x4 MSTORE PUSH1 0x24 PUSH0 REVERT JUMPDEST PUSH0 PUSH3 0x1193 DUP3 PUSH3 0x8C6 JUMP JUMPDEST SWAP2 POP PUSH3 0x11A0 DUP4 PUSH3 0x8C6 JUMP JUMPDEST SWAP3 POP DUP3 PUSH3 0x11B3 JUMPI PUSH3 0x11B2 PUSH3 0x115A JUMP JUMPDEST JUMPDEST DUP3 DUP3 DIV SWAP1 POP SWAP3 SWAP2 POP POP JUMP JUMPDEST PUSH2 0x3133 DUP1 PUSH3 0x11CC PUSH0 CODECOPY PUSH0 RETURN INVALID PUSH1 0x80 PUSH1 0x40 MSTORE CALLVALUE DUP1 ISZERO PUSH2 0xF JUMPI PUSH0 DUP1 REVERT JUMPDEST POP PUSH1 0x4 CALLDATASIZE LT PUSH2 0x21A JUMPI PUSH0 CALLDATALOAD PUSH1 0xE0 SHR DUP1 PUSH4 0x7C07A380 GT PUSH2 0x123 JUMPI DUP1 PUSH4 0xB6B55F25 GT PUSH2 0xAB JUMPI DUP1 PUSH4 0xD21220A7 GT PUSH2 0x7A JUMPI DUP1 PUSH4 0xD21220A7 EQ PUSH2 0x64B JUMPI DUP1 PUSH4 0xDD62ED3E EQ PUSH2 0x669 JUMPI DUP1 PUSH4 0xEC1893B4 EQ PUSH2 0x699 JUMPI DUP1 PUSH4 0xEF3501B9 EQ PUSH2 0x6B7 JUMPI DUP1 PUSH4 0xF2FDE38B EQ PUSH2 0x6D5 JUMPI PUSH2 0x21A JUMP JUMPDEST DUP1 PUSH4 0xB6B55F25 EQ PUSH2 0x5C2 JUMPI DUP1 PUSH4 0xC392F766 EQ PUSH2 0x5DE JUMPI DUP1 PUSH4 0xC45A0155 EQ PUSH2 0x5FC JUMPI DUP1 PUSH4 0xCCBAF736 EQ PUSH2 0x61A JUMPI PUSH2 0x21A JUMP JUMPDEST DUP1 PUSH4 0x9F8E55D6 GT PUSH2 0xF2 JUMPI DUP1 PUSH4 0x9F8E55D6 EQ PUSH2 0x4F6 JUMPI DUP1 PUSH4 0xA457C2D7 EQ PUSH2 0x526 JUMPI DUP1 PUSH4 0xA9059CBB EQ PUSH2 0x556 JUMPI DUP1 PUSH4 0xAFF56C14 EQ PUSH2 0x586 JUMPI DUP1 PUSH4 0xB0E21E8A EQ PUSH2 0x5A4 JUMPI PUSH2 0x21A JUMP JUMPDEST DUP1 PUSH4 0x7C07A380 EQ PUSH2 0x47E JUMPI DUP1 PUSH4 0x870E415E EQ PUSH2 0x49C JUMPI DUP1 PUSH4 0x8DA5CB5B EQ PUSH2 0x4BA JUMPI DUP1 PUSH4 0x95D89B41 EQ PUSH2 0x4D8 JUMPI PUSH2 0x21A JUMP JUMPDEST DUP1 PUSH4 0x313CE567 GT PUSH2 0x1A6 JUMPI DUP1 PUSH4 0x4273601C GT PUSH2 0x175 JUMPI DUP1 PUSH4 0x4273601C EQ PUSH2 0x3EA JUMPI DUP1 PUSH4 0x433065D0 EQ PUSH2 0x408 JUMPI DUP1 PUSH4 0x5A656C24 EQ PUSH2 0x426 JUMPI DUP1 PUSH4 0x70A08231 EQ PUSH2 0x444 JUMPI DUP1 PUSH4 0x715018A6 EQ PUSH2 0x474 JUMPI PUSH2 0x21A JUMP JUMPDEST DUP1 PUSH4 0x313CE567 EQ PUSH2 0x360 JUMPI DUP1 PUSH4 0x364ABC3D EQ PUSH2 0x37E JUMPI DUP1 PUSH4 0x39509351 EQ PUSH2 0x39C JUMPI DUP1 PUSH4 0x3D1C387B EQ PUSH2 0x3CC JUMPI PUSH2 0x21A JUMP JUMPDEST DUP1 PUSH4 0x13724B70 GT PUSH2 0x1ED JUMPI DUP1 PUSH4 0x13724B70 EQ PUSH2 0x2BA JUMPI DUP1 PUSH4 0x18160DDD EQ PUSH2 0x2D8 JUMPI DUP1 PUSH4 0x1CF2128C EQ PUSH2 0x2F6 JUMPI DUP1 PUSH4 0x23B872DD EQ PUSH2 0x314 JUMPI DUP1 PUSH4 0x2BEC60FE EQ PUSH2 0x344 JUMPI PUSH2 0x21A JUMP JUMPDEST DUP1 PUSH4 0x4786AB4 EQ PUSH2 0x21E JUMPI DUP1 PUSH4 0x6FDDE03 EQ PUSH2 0x24E JUMPI DUP1 PUSH4 0x95EA7B3 EQ PUSH2 0x26C JUMPI DUP1 PUSH4 0xDFE1681 EQ PUSH2 0x29C JUMPI JUMPDEST PUSH0 DUP1 REVERT JUMPDEST PUSH2 0x238 PUSH1 0x4 DUP1 CALLDATASIZE SUB DUP2 ADD SWAP1 PUSH2 0x233 SWAP2 SWAP1 PUSH2 0x2287 JUMP JUMPDEST PUSH2 0x6F1 JUMP JUMPDEST PUSH1 0x40 MLOAD PUSH2 0x245 SWAP2 SWAP1 PUSH2 0x22C1 JUMP JUMPDEST PUSH1 0x40 MLOAD DUP1 SWAP2 SUB SWAP1 RETURN JUMPDEST PUSH2 0x256 PUSH2 0x757 JUMP JUMPDEST PUSH1 0x40 MLOAD PUSH2 0x263 SWAP2 SWAP1 PUSH2 0x2364 JUMP JUMPDEST PUSH1 0x40 MLOAD DUP1 SWAP2 SUB SWAP1 RETURN JUMPDEST PUSH2 0x286 PUSH1 0x4 DUP1 CALLDATASIZE SUB DUP2 ADD SWAP1 PUSH2 0x281 SWAP2 SWAP1 PUSH2 0x23DE JUMP JUMPDEST PUSH2 0x7E7 JUMP JUMPDEST PUSH1 0x40 MLOAD PUSH2 0x293 SWAP2 SWAP1 PUSH2 0x2436 JUMP JUMPDEST PUSH1 0x40 MLOAD DUP1 SWAP2 SUB SWAP1 RETURN JUMPDEST PUSH2 0x2A4 PUSH2 0x809 JUMP JUMPDEST PUSH1 0x40 MLOAD PUSH2 0x2B1 SWAP2 SWAP1 PUSH2 0x245E JUMP JUMPDEST PUSH1 0x40 MLOAD DUP1 SWAP2 SUB SWAP1 RETURN JUMPDEST PUSH2 0x2C2 PUSH2 0x82E JUMP JUMPDEST PUSH1 0x40 MLOAD PUSH2 0x2CF SWAP2 SWAP1 PUSH2 0x22C1 JUMP JUMPDEST PUSH1 0x40 MLOAD DUP1 SWAP2 SUB SWAP1 RETURN JUMPDEST PUSH2 0x2E0 PUSH2 0x834 JUMP JUMPDEST PUSH1 0x40 MLOAD PUSH2 0x2ED SWAP2 SWAP1 PUSH2 0x22C1 JUMP JUMPDEST PUSH1 0x40 MLOAD DUP1 SWAP2 SUB SWAP1 RETURN JUMPDEST PUSH2 0x2FE PUSH2 0x83D JUMP JUMPDEST PUSH1 0x40 MLOAD PUSH2 0x30B SWAP2 SWAP1 PUSH2 0x22C1 JUMP JUMPDEST PUSH1 0x40 MLOAD DUP1 SWAP2 SUB SWAP1 RETURN JUMPDEST PUSH2 0x32E PUSH1 0x4 DUP1 CALLDATASIZE SUB DUP2 ADD SWAP1 PUSH2 0x329 SWAP2 SWAP1 PUSH2 0x2477 JUMP JUMPDEST PUSH2 0x843 JUMP JUMPDEST PUSH1 0x40 MLOAD PUSH2 0x33B SWAP2 SWAP1 PUSH2 0x2436 JUMP JUMPDEST PUSH1 0x40 MLOAD DUP1 SWAP2 SUB SWAP1 RETURN JUMPDEST PUSH2 0x35E PUSH1 0x4 DUP1 CALLDATASIZE SUB DUP2 ADD SWAP1 PUSH2 0x359 SWAP2 SWAP1 PUSH2 0x24F1 JUMP JUMPDEST PUSH2 0x871 JUMP JUMPDEST STOP JUMPDEST PUSH2 0x368 PUSH2 0x902 JUMP JUMPDEST PUSH1 0x40 MLOAD PUSH2 0x375 SWAP2 SWAP1 PUSH2 0x255C JUMP JUMPDEST PUSH1 0x40 MLOAD DUP1 SWAP2 SUB SWAP1 RETURN JUMPDEST PUSH2 0x386 PUSH2 0x90A JUMP JUMPDEST PUSH1 0x40 MLOAD PUSH2 0x393 SWAP2 SWAP1 PUSH2 0x22C1 JUMP JUMPDEST PUSH1 0x40 MLOAD DUP1 SWAP2 SUB SWAP1 RETURN JUMPDEST PUSH2 0x3B6 PUSH1 0x4 DUP1 CALLDATASIZE SUB DUP2 ADD SWAP1 PUSH2 0x3B1 SWAP2 SWAP1 PUSH2 0x23DE JUMP JUMPDEST PUSH2 0x910 JUMP JUMPDEST PUSH1 0x40 MLOAD PUSH2 0x3C3 SWAP2 SWAP1 PUSH2 0x2436 JUMP JUMPDEST PUSH1 0x40 MLOAD DUP1 SWAP2 SUB SWAP1 RETURN JUMPDEST PUSH2 0x3D4 PUSH2 0x946 JUMP JUMPDEST PUSH1 0x40 MLOAD PUSH2 0x3E1 SWAP2 SWAP1 PUSH2 0x267F JUMP JUMPDEST PUSH1 0x40 MLOAD DUP1 SWAP2 SUB SWAP1 RETURN JUMPDEST PUSH2 0x3F2 PUSH2 0xA5E JUMP JUMPDEST PUSH1 0x40 MLOAD PUSH2 0x3FF SWAP2 SWAP1 PUSH2 0x245E JUMP JUMPDEST PUSH1 0x40 MLOAD DUP1 SWAP2 SUB SWAP1 RETURN JUMPDEST PUSH2 0x410 PUSH2 0xA83 JUMP JUMPDEST PUSH1 0x40 MLOAD PUSH2 0x41D SWAP2 SWAP1 PUSH2 0x22C1 JUMP JUMPDEST PUSH1 0x40 MLOAD DUP1 SWAP2 SUB SWAP1 RETURN JUMPDEST PUSH2 0x42E PUSH2 0xAC7 JUMP JUMPDEST PUSH1 0x40 MLOAD PUSH2 0x43B SWAP2 SWAP1 PUSH2 0x22C1 JUMP JUMPDEST PUSH1 0x40 MLOAD DUP1 SWAP2 SUB SWAP1 RETURN JUMPDEST PUSH2 0x45E PUSH1 0x4 DUP1 CALLDATASIZE SUB DUP2 ADD SWAP1 PUSH2 0x459 SWAP2 SWAP1 PUSH2 0x269F JUMP JUMPDEST PUSH2 0xACD JUMP JUMPDEST PUSH1 0x40 MLOAD PUSH2 0x46B SWAP2 SWAP1 PUSH2 0x22C1 JUMP JUMPDEST PUSH1 0x40 MLOAD DUP1 SWAP2 SUB SWAP1 RETURN JUMPDEST PUSH2 0x47C PUSH2 0xB13 JUMP JUMPDEST STOP JUMPDEST PUSH2 0x486 PUSH2 0xB26 JUMP JUMPDEST PUSH1 0x40 MLOAD PUSH2 0x493 SWAP2 SWAP1 PUSH2 0x22C1 JUMP JUMPDEST PUSH1 0x40 MLOAD DUP1 SWAP2 SUB SWAP1 RETURN JUMPDEST PUSH2 0x4A4 PUSH2 0xB2C JUMP JUMPDEST PUSH1 0x40 MLOAD PUSH2 0x4B1 SWAP2 SWAP1 PUSH2 0x22C1 JUMP JUMPDEST PUSH1 0x40 MLOAD DUP1 SWAP2 SUB SWAP1 RETURN JUMPDEST PUSH2 0x4C2 PUSH2 0xB32 JUMP JUMPDEST PUSH1 0x40 MLOAD PUSH2 0x4CF SWAP2 SWAP1 PUSH2 0x245E JUMP JUMPDEST PUSH1 0x40 MLOAD DUP1 SWAP2 SUB SWAP1 RETURN JUMPDEST PUSH2 0x4E0 PUSH2 0xB5A JUMP JUMPDEST PUSH1 0x40 MLOAD PUSH2 0x4ED SWAP2 SWAP1 PUSH2 0x2364 JUMP JUMPDEST PUSH1 0x40 MLOAD DUP1 SWAP2 SUB SWAP1 RETURN JUMPDEST PUSH2 0x510 PUSH1 0x4 DUP1 CALLDATASIZE SUB DUP2 ADD SWAP1 PUSH2 0x50B SWAP2 SWAP1 PUSH2 0x2287 JUMP JUMPDEST PUSH2 0xBEA JUMP JUMPDEST PUSH1 0x40 MLOAD PUSH2 0x51D SWAP2 SWAP1 PUSH2 0x22C1 JUMP JUMPDEST PUSH1 0x40 MLOAD DUP1 SWAP2 SUB SWAP1 RETURN JUMPDEST PUSH2 0x540 PUSH1 0x4 DUP1 CALLDATASIZE SUB DUP2 ADD SWAP1 PUSH2 0x53B SWAP2 SWAP1 PUSH2 0x23DE JUMP JUMPDEST PUSH2 0xC50 JUMP JUMPDEST PUSH1 0x40 MLOAD PUSH2 0x54D SWAP2 SWAP1 PUSH2 0x2436 JUMP JUMPDEST PUSH1 0x40 MLOAD DUP1 SWAP2 SUB SWAP1 RETURN JUMPDEST PUSH2 0x570 PUSH1 0x4 DUP1 CALLDATASIZE SUB DUP2 ADD SWAP1 PUSH2 0x56B SWAP2 SWAP1 PUSH2 0x23DE JUMP JUMPDEST PUSH2 0xCC5 JUMP JUMPDEST PUSH1 0x40 MLOAD PUSH2 0x57D SWAP2 SWAP1 PUSH2 0x2436 JUMP JUMPDEST PUSH1 0x40 MLOAD DUP1 SWAP2 SUB SWAP1 RETURN JUMPDEST PUSH2 0x58E PUSH2 0xCE7 JUMP JUMPDEST PUSH1 0x40 MLOAD PUSH2 0x59B SWAP2 SWAP1 PUSH2 0x22C1 JUMP JUMPDEST PUSH1 0x40 MLOAD DUP1 SWAP2 SUB SWAP1 RETURN JUMPDEST PUSH2 0x5AC PUSH2 0xCED JUMP JUMPDEST PUSH1 0x40 MLOAD PUSH2 0x5B9 SWAP2 SWAP1 PUSH2 0x22C1 JUMP JUMPDEST PUSH1 0x40 MLOAD DUP1 SWAP2 SUB SWAP1 RETURN JUMPDEST PUSH2 0x5DC PUSH1 0x4 DUP1 CALLDATASIZE SUB DUP2 ADD SWAP1 PUSH2 0x5D7 SWAP2 SWAP1 PUSH2 0x2287 JUMP JUMPDEST PUSH2 0xCF3 JUMP JUMPDEST STOP JUMPDEST PUSH2 0x5E6 PUSH2 0x1000 JUMP JUMPDEST PUSH1 0x40 MLOAD PUSH2 0x5F3 SWAP2 SWAP1 PUSH2 0x22C1 JUMP JUMPDEST PUSH1 0x40 MLOAD DUP1 SWAP2 SUB SWAP1 RETURN JUMPDEST PUSH2 0x604 PUSH2 0x1006 JUMP JUMPDEST PUSH1 0x40 MLOAD PUSH2 0x611 SWAP2 SWAP1 PUSH2 0x245E JUMP JUMPDEST PUSH1 0x40 MLOAD DUP1 SWAP2 SUB SWAP1 RETURN JUMPDEST PUSH2 0x634 PUSH1 0x4 DUP1 CALLDATASIZE SUB DUP2 ADD SWAP1 PUSH2 0x62F SWAP2 SWAP1 PUSH2 0x2287 JUMP JUMPDEST PUSH2 0x102B JUMP JUMPDEST PUSH1 0x40 MLOAD PUSH2 0x642 SWAP3 SWAP2 SWAP1 PUSH2 0x26CA JUMP JUMPDEST PUSH1 0x40 MLOAD DUP1 SWAP2 SUB SWAP1 RETURN JUMPDEST PUSH2 0x653 PUSH2 0x1079 JUMP JUMPDEST PUSH1 0x40 MLOAD PUSH2 0x660 SWAP2 SWAP1 PUSH2 0x245E JUMP JUMPDEST PUSH1 0x40 MLOAD DUP1 SWAP2 SUB SWAP1 RETURN JUMPDEST PUSH2 0x683 PUSH1 0x4 DUP1 CALLDATASIZE SUB DUP2 ADD SWAP1 PUSH2 0x67E SWAP2 SWAP1 PUSH2 0x26F1 JUMP JUMPDEST PUSH2 0x109E JUMP JUMPDEST PUSH1 0x40 MLOAD PUSH2 0x690 SWAP2 SWAP1 PUSH2 0x22C1 JUMP JUMPDEST PUSH1 0x40 MLOAD DUP1 SWAP2 SUB SWAP1 RETURN JUMPDEST PUSH2 0x6A1 PUSH2 0x1120 JUMP JUMPDEST PUSH1 0x40 MLOAD PUSH2 0x6AE SWAP2 SWAP1 PUSH2 0x2791 JUMP JUMPDEST PUSH1 0x40 MLOAD DUP1 SWAP2 SUB SWAP1 RETURN JUMPDEST PUSH2 0x6BF PUSH2 0x11CF JUMP JUMPDEST PUSH1 0x40 MLOAD PUSH2 0x6CC SWAP2 SWAP1 PUSH2 0x22C1 JUMP JUMPDEST PUSH1 0x40 MLOAD DUP1 SWAP2 SUB SWAP1 RETURN JUMPDEST PUSH2 0x6EF PUSH1 0x4 DUP1 CALLDATASIZE SUB DUP2 ADD SWAP1 PUSH2 0x6EA SWAP2 SWAP1 PUSH2 0x269F JUMP JUMPDEST PUSH2 0x11D5 JUMP JUMPDEST STOP JUMPDEST PUSH0 DUP1 PUSH2 0x6FB PUSH2 0x1257 JUMP JUMPDEST SWAP1 POP PUSH0 PUSH2 0x706 PUSH2 0x12F6 JUMP JUMPDEST SWAP1 POP PUSH0 DUP5 DUP3 PUSH2 0x715 SWAP2 SWAP1 PUSH2 0x27D7 JUMP JUMPDEST SWAP1 POP PUSH0 PUSH1 0x10 SLOAD PUSH2 0x734 PUSH1 0x12 SLOAD PUSH1 0x11 SLOAD DUP6 PUSH2 0x72F SWAP2 SWAP1 PUSH2 0x27D7 JUMP JUMPDEST PUSH2 0x1395 JUMP JUMPDEST PUSH2 0x73E SWAP2 SWAP1 PUSH2 0x280A JUMP JUMPDEST SWAP1 POP DUP1 DUP5 PUSH2 0x74C SWAP2 SWAP1 PUSH2 0x280A JUMP JUMPDEST SWAP5 POP POP POP POP POP SWAP2 SWAP1 POP JUMP JUMPDEST PUSH1 0x60 PUSH1 0x7 DUP1 SLOAD PUSH2 0x766 SWAP1 PUSH2 0x286A JUMP JUMPDEST DUP1 PUSH1 0x1F ADD PUSH1 0x20 DUP1 SWAP2 DIV MUL PUSH1 0x20 ADD PUSH1 0x40 MLOAD SWAP1 DUP2 ADD PUSH1 0x40 MSTORE DUP1 SWAP3 SWAP2 SWAP1 DUP2 DUP2 MSTORE PUSH1 0x20 ADD DUP3 DUP1 SLOAD PUSH2 0x792 SWAP1 PUSH2 0x286A JUMP JUMPDEST DUP1 ISZERO PUSH2 0x7DD JUMPI DUP1 PUSH1 0x1F LT PUSH2 0x7B4 JUMPI PUSH2 0x100 DUP1 DUP4 SLOAD DIV MUL DUP4 MSTORE SWAP2 PUSH1 0x20 ADD SWAP2 PUSH2 0x7DD JUMP JUMPDEST DUP3 ADD SWAP2 SWAP1 PUSH0 MSTORE PUSH1 0x20 PUSH0 KECCAK256 SWAP1 JUMPDEST DUP2 SLOAD DUP2 MSTORE SWAP1 PUSH1 0x1 ADD SWAP1 PUSH1 0x20 ADD DUP1 DUP4 GT PUSH2 0x7C0 JUMPI DUP3 SWAP1 SUB PUSH1 0x1F AND DUP3 ADD SWAP2 JUMPDEST POP POP POP POP POP SWAP1 POP SWAP1 JUMP JUMPDEST PUSH0 DUP1 PUSH2 0x7F1 PUSH2 0x13AA JUMP JUMPDEST SWAP1 POP PUSH2 0x7FE DUP2 DUP6 DUP6 PUSH2 0x13B1 JUMP JUMPDEST PUSH1 0x1 SWAP2 POP POP SWAP3 SWAP2 POP POP JUMP JUMPDEST PUSH1 0xC PUSH0 SWAP1 SLOAD SWAP1 PUSH2 0x100 EXP SWAP1 DIV PUSH20 0xFFFFFFFFFFFFFFFFFFFFFFFFFFFFFFFFFFFFFFFF AND DUP2 JUMP JUMPDEST PUSH1 0xF SLOAD DUP2 JUMP JUMPDEST PUSH0 PUSH1 0x6 SLOAD SWAP1 POP SWAP1 JUMP JUMPDEST PUSH1 0x11 SLOAD DUP2 JUMP JUMPDEST PUSH0 DUP1 PUSH2 0x84D PUSH2 0x13AA JUMP JUMPDEST SWAP1 POP PUSH2 0x85A DUP6 DUP3 DUP6 PUSH2 0x1574 JUMP JUMPDEST PUSH2 0x865 DUP6 DUP6 DUP6 PUSH2 0x15FF JUMP JUMPDEST PUSH1 0x1 SWAP2 POP POP SWAP4 SWAP3 POP POP POP JUMP JUMPDEST DUP1 ISZERO PUSH2 0x886 JUMPI PUSH2 0x881 DUP4 DUP4 PUSH2 0x186E JUMP JUMPDEST PUSH2 0x891 JUMP JUMPDEST PUSH2 0x890 DUP4 DUP4 PUSH2 0x1A72 JUMP JUMPDEST JUMPDEST PUSH0 PUSH2 0x89A PUSH2 0x1257 JUMP JUMPDEST SWAP1 POP PUSH0 PUSH2 0x8A5 PUSH2 0x12F6 JUMP JUMPDEST SWAP1 POP PUSH2 0x8C2 DUP3 DUP3 PUSH2 0x8BD PUSH8 0xDE0B6B3A7640000 PUSH2 0xBEA JUMP JUMPDEST PUSH2 0x1D54 JUMP JUMPDEST PUSH32 0xCF2AA50876CDFBB541206F89AF0EE78D44A2ABF8D328E37FA4917F982149848A DUP3 DUP3 PUSH1 0x40 MLOAD PUSH2 0x8F3 SWAP3 SWAP2 SWAP1 PUSH2 0x289A JUMP JUMPDEST PUSH1 0x40 MLOAD DUP1 SWAP2 SUB SWAP1 LOG1 POP POP POP POP POP JUMP JUMPDEST PUSH0 PUSH1 0x12 SWAP1 POP SWAP1 JUMP JUMPDEST PUSH1 0x14 SLOAD DUP2 JUMP JUMPDEST PUSH0 DUP1 PUSH2 0x91A PUSH2 0x13AA JUMP JUMPDEST SWAP1 POP PUSH2 0x93B DUP2 DUP6 DUP6 PUSH2 0x92C DUP6 DUP10 PUSH2 0x109E JUMP JUMPDEST PUSH2 0x936 SWAP2 SWAP1 PUSH2 0x27D7 JUMP JUMPDEST PUSH2 0x13B1 JUMP JUMPDEST PUSH1 0x1 SWAP2 POP POP SWAP3 SWAP2 POP POP JUMP JUMPDEST PUSH1 0x60 PUSH0 PUSH1 0x1 DUP1 SLOAD PUSH1 0x2 SLOAD PUSH2 0x95A SWAP2 SWAP1 PUSH2 0x280A JUMP JUMPDEST PUSH2 0x964 SWAP2 SWAP1 PUSH2 0x27D7 JUMP JUMPDEST PUSH8 0xFFFFFFFFFFFFFFFF DUP2 GT ISZERO PUSH2 0x97D JUMPI PUSH2 0x97C PUSH2 0x28C1 JUMP JUMPDEST JUMPDEST PUSH1 0x40 MLOAD SWAP1 DUP1 DUP3 MSTORE DUP1 PUSH1 0x20 MUL PUSH1 0x20 ADD DUP3 ADD PUSH1 0x40 MSTORE DUP1 ISZERO PUSH2 0x9B6 JUMPI DUP2 PUSH1 0x20 ADD JUMPDEST PUSH2 0x9A3 PUSH2 0x21DC JUMP JUMPDEST DUP2 MSTORE PUSH1 0x20 ADD SWAP1 PUSH1 0x1 SWAP1 SUB SWAP1 DUP2 PUSH2 0x99B JUMPI SWAP1 POP JUMPDEST POP SWAP1 POP PUSH0 PUSH1 0x1 SLOAD SWAP1 POP JUMPDEST PUSH1 0x1 PUSH1 0x2 SLOAD PUSH2 0x9CF SWAP2 SWAP1 PUSH2 0x27D7 JUMP JUMPDEST DUP2 LT ISZERO PUSH2 0xA56 JUMPI PUSH0 DUP1 DUP3 DUP2 MSTORE PUSH1 0x20 ADD SWAP1 DUP2 MSTORE PUSH1 0x20 ADD PUSH0 KECCAK256 PUSH1 0x40 MLOAD DUP1 PUSH1 0x80 ADD PUSH1 0x40 MSTORE SWAP1 DUP2 PUSH0 DUP3 ADD SLOAD DUP2 MSTORE PUSH1 0x20 ADD PUSH1 0x1 DUP3 ADD SLOAD DUP2 MSTORE PUSH1 0x20 ADD PUSH1 0x2 DUP3 ADD SLOAD DUP2 MSTORE PUSH1 0x20 ADD PUSH1 0x3 DUP3 ADD SLOAD DUP2 MSTORE POP POP DUP3 PUSH1 0x1 SLOAD DUP4 PUSH2 0xA27 SWAP2 SWAP1 PUSH2 0x280A JUMP JUMPDEST DUP2 MLOAD DUP2 LT PUSH2 0xA38 JUMPI PUSH2 0xA37 PUSH2 0x28EE JUMP JUMPDEST JUMPDEST PUSH1 0x20 MUL PUSH1 0x20 ADD ADD DUP2 SWAP1 MSTORE POP DUP1 DUP1 PUSH2 0xA4E SWAP1 PUSH2 0x291B JUMP JUMPDEST SWAP2 POP POP PUSH2 0x9C0 JUMP JUMPDEST POP DUP1 SWAP2 POP POP SWAP1 JUMP JUMPDEST PUSH1 0xB PUSH0 SWAP1 SLOAD SWAP1 PUSH2 0x100 EXP SWAP1 DIV PUSH20 0xFFFFFFFFFFFFFFFFFFFFFFFFFFFFFFFFFFFFFFFF AND DUP2 JUMP JUMPDEST PUSH0 DUP1 PUSH2 0xA8D PUSH2 0x1257 JUMP JUMPDEST SWAP1 POP PUSH0 PUSH2 0xA98 PUSH2 0x12F6 JUMP JUMPDEST SWAP1 POP PUSH1 0x11 SLOAD DUP2 PUSH2 0xAA8 SWAP2 SWAP1 PUSH2 0x27D7 JUMP JUMPDEST PUSH1 0x10 SLOAD DUP4 PUSH2 0xAB6 SWAP2 SWAP1 PUSH2 0x27D7 JUMP JUMPDEST PUSH2 0xAC0 SWAP2 SWAP1 PUSH2 0x2962 JUMP JUMPDEST SWAP3 POP POP POP SWAP1 JUMP JUMPDEST PUSH1 0x12 SLOAD DUP2 JUMP JUMPDEST PUSH0 PUSH1 0x4 PUSH0 DUP4 PUSH20 0xFFFFFFFFFFFFFFFFFFFFFFFFFFFFFFFFFFFFFFFF AND PUSH20 0xFFFFFFFFFFFFFFFFFFFFFFFFFFFFFFFFFFFFFFFF AND DUP2 MSTORE PUSH1 0x20 ADD SWAP1 DUP2 MSTORE PUSH1 0x20 ADD PUSH0 KECCAK256 SLOAD SWAP1 POP SWAP2 SWAP1 POP JUMP JUMPDEST PUSH2 0xB1B PUSH2 0x1E2C JUMP JUMPDEST PUSH2 0xB24 PUSH0 PUSH2 0x1EAA JUMP JUMPDEST JUMP JUMPDEST PUSH1 0xE SLOAD DUP2 JUMP JUMPDEST PUSH1 0x3 SLOAD DUP2 JUMP JUMPDEST PUSH0 PUSH1 0x9 PUSH0 SWAP1 SLOAD SWAP1 PUSH2 0x100 EXP SWAP1 DIV PUSH20 0xFFFFFFFFFFFFFFFFFFFFFFFFFFFFFFFFFFFFFFFF AND SWAP1 POP SWAP1 JUMP JUMPDEST PUSH1 0x60 PUSH1 0x8 DUP1 SLOAD PUSH2 0xB69 SWAP1 PUSH2 0x286A JUMP JUMPDEST DUP1 PUSH1 0x1F ADD PUSH1 0x20 DUP1 SWAP2 DIV MUL PUSH1 0x20 ADD PUSH1 0x40 MLOAD SWAP1 DUP2 ADD PUSH1 0x40 MSTORE DUP1 SWAP3 SWAP2 SWAP1 DUP2 DUP2 MSTORE PUSH1 0x20 ADD DUP3 DUP1 SLOAD PUSH2 0xB95 SWAP1 PUSH2 0x286A JUMP JUMPDEST DUP1 ISZERO PUSH2 0xBE0 JUMPI DUP1 PUSH1 0x1F LT PUSH2 0xBB7 JUMPI PUSH2 0x100 DUP1 DUP4 SLOAD DIV MUL DUP4 MSTORE SWAP2 PUSH1 0x20 ADD SWAP2 PUSH2 0xBE0 JUMP JUMPDEST DUP3 ADD SWAP2 SWAP1 PUSH0 MSTORE PUSH1 0x20 PUSH0 KECCAK256 SWAP1 JUMPDEST DUP2 SLOAD DUP2 MSTORE SWAP1 PUSH1 0x1 ADD SWAP1 PUSH1 0x20 ADD DUP1 DUP4 GT PUSH2 0xBC3 JUMPI DUP3 SWAP1 SUB PUSH1 0x1F AND DUP3 ADD SWAP2 JUMPDEST POP POP POP POP POP SWAP1 POP SWAP1 JUMP JUMPDEST PUSH0 DUP1 PUSH2 0xBF4 PUSH2 0x1257 JUMP JUMPDEST SWAP1 POP PUSH0 PUSH2 0xBFF PUSH2 0x12F6 JUMP JUMPDEST SWAP1 POP PUSH0 DUP5 DUP4 PUSH2 0xC0E SWAP2 SWAP1 PUSH2 0x27D7 JUMP JUMPDEST SWAP1 POP PUSH0 PUSH1 0x11 SLOAD PUSH2 0xC2D PUSH1 0x12 SLOAD PUSH1 0x10 SLOAD DUP6 PUSH2 0xC28 SWAP2 SWAP1 PUSH2 0x27D7 JUMP JUMPDEST PUSH2 0x1395 JUMP JUMPDEST PUSH2 0xC37 SWAP2 SWAP1 PUSH2 0x280A JUMP JUMPDEST SWAP1 POP DUP1 DUP4 PUSH2 0xC45 SWAP2 SWAP1 PUSH2 0x280A JUMP JUMPDEST SWAP5 POP POP POP POP POP SWAP2 SWAP1 POP JUMP JUMPDEST PUSH0 DUP1 PUSH2 0xC5A PUSH2 0x13AA JUMP JUMPDEST SWAP1 POP PUSH0 PUSH2 0xC67 DUP3 DUP7 PUSH2 0x109E JUMP JUMPDEST SWAP1 POP DUP4 DUP2 LT ISZERO PUSH2 0xCAC JUMPI PUSH1 0x40 MLOAD PUSH32 0x8C379A000000000000000000000000000000000000000000000000000000000 DUP2 MSTORE PUSH1 0x4 ADD PUSH2 0xCA3 SWAP1 PUSH2 0x2A13 JUMP JUMPDEST PUSH1 0x40 MLOAD DUP1 SWAP2 SUB SWAP1 REVERT JUMPDEST PUSH2 0xCB9 DUP3 DUP7 DUP7 DUP5 SUB PUSH2 0x13B1 JUMP JUMPDEST PUSH1 0x1 SWAP3 POP POP POP SWAP3 SWAP2 POP POP JUMP JUMPDEST PUSH0 DUP1 PUSH2 0xCCF PUSH2 0x13AA JUMP JUMPDEST SWAP1 POP PUSH2 0xCDC DUP2 DUP6 DUP6 PUSH2 0x15FF JUMP JUMPDEST PUSH1 0x1 SWAP2 POP POP SWAP3 SWAP2 POP POP JUMP JUMPDEST PUSH1 0x10 SLOAD DUP2 JUMP JUMPDEST PUSH1 0x15 SLOAD DUP2 JUMP JUMPDEST PUSH0 PUSH2 0xD04 PUSH3 0xC3500 PUSH3 0xF4240 PUSH2 0x1395 JUMP JUMPDEST DUP3 PUSH2 0xD0F SWAP2 SWAP1 PUSH2 0x2962 JUMP JUMPDEST SWAP1 POP PUSH0 DUP2 DUP4 PUSH2 0xD1E SWAP2 SWAP1 PUSH2 0x280A JUMP JUMPDEST SWAP1 POP PUSH1 0xD PUSH0 SWAP1 SLOAD SWAP1 PUSH2 0x100 EXP SWAP1 DIV PUSH20 0xFFFFFFFFFFFFFFFFFFFFFFFFFFFFFFFFFFFFFFFF AND PUSH20 0xFFFFFFFFFFFFFFFFFFFFFFFFFFFFFFFFFFFFFFFF AND PUSH4 0x23B872DD CALLER ADDRESS DUP6 PUSH1 0x40 MLOAD DUP5 PUSH4 0xFFFFFFFF AND PUSH1 0xE0 SHL DUP2 MSTORE PUSH1 0x4 ADD PUSH2 0xD7E SWAP4 SWAP3 SWAP2 SWAP1 PUSH2 0x2A31 JUMP JUMPDEST PUSH1 0x20 PUSH1 0x40 MLOAD DUP1 DUP4 SUB DUP2 PUSH0 DUP8 GAS CALL ISZERO DUP1 ISZERO PUSH2 0xD9A JUMPI RETURNDATASIZE PUSH0 DUP1 RETURNDATACOPY RETURNDATASIZE PUSH0 REVERT JUMPDEST POP POP POP POP PUSH1 0x40 MLOAD RETURNDATASIZE PUSH1 0x1F NOT PUSH1 0x1F DUP3 ADD AND DUP3 ADD DUP1 PUSH1 0x40 MSTORE POP DUP2 ADD SWAP1 PUSH2 0xDBE SWAP2 SWAP1 PUSH2 0x2A7A JUMP JUMPDEST POP PUSH1 0xD PUSH0 SWAP1 SLOAD SWAP1 PUSH2 0x100 EXP SWAP1 DIV PUSH20 0xFFFFFFFFFFFFFFFFFFFFFFFFFFFFFFFFFFFFFFFF AND PUSH20 0xFFFFFFFFFFFFFFFFFFFFFFFFFFFFFFFFFFFFFFFF AND PUSH4 0x23B872DD CALLER PUSH1 0xB PUSH0 SWAP1 SLOAD SWAP1 PUSH2 0x100 EXP SWAP1 DIV PUSH20 0xFFFFFFFFFFFFFFFFFFFFFFFFFFFFFFFFFFFFFFFF AND DUP5 PUSH1 0x40 MLOAD DUP5 PUSH4 0xFFFFFFFF AND PUSH1 0xE0 SHL DUP2 MSTORE PUSH1 0x4 ADD PUSH2 0xE3E SWAP4 SWAP3 SWAP2 SWAP1 PUSH2 0x2A31 JUMP JUMPDEST PUSH1 0x20 PUSH1 0x40 MLOAD DUP1 DUP4 SUB DUP2 PUSH0 DUP8 GAS CALL ISZERO DUP1 ISZERO PUSH2 0xE5A JUMPI RETURNDATASIZE PUSH0 DUP1 RETURNDATACOPY RETURNDATASIZE PUSH0 REVERT JUMPDEST POP POP POP POP PUSH1 0x40 MLOAD RETURNDATASIZE PUSH1 0x1F NOT PUSH1 0x1F DUP3 ADD AND DUP3 ADD DUP1 PUSH1 0x40 MSTORE POP DUP2 ADD SWAP1 PUSH2 0xE7E SWAP2 SWAP1 PUSH2 0x2A7A JUMP JUMPDEST POP PUSH2 0xE89 CALLER DUP5 PUSH2 0x1F6D JUMP JUMPDEST PUSH2 0xE91 PUSH2 0x20BC JUMP JUMPDEST PUSH0 PUSH1 0x18 SLOAD SUB PUSH2 0xF07 JUMPI CALLER PUSH1 0x17 PUSH0 DUP1 DUP2 MSTORE PUSH1 0x20 ADD SWAP1 DUP2 MSTORE PUSH1 0x20 ADD PUSH0 KECCAK256 PUSH0 PUSH2 0x100 EXP DUP2 SLOAD DUP2 PUSH20 0xFFFFFFFFFFFFFFFFFFFFFFFFFFFFFFFFFFFFFFFF MUL NOT AND SWAP1 DUP4 PUSH20 0xFFFFFFFFFFFFFFFFFFFFFFFFFFFFFFFFFFFFFFFF AND MUL OR SWAP1 SSTORE POP PUSH1 0x18 PUSH0 DUP2 SLOAD DUP1 SWAP3 SWAP2 SWAP1 PUSH2 0xEFB SWAP1 PUSH2 0x291B JUMP JUMPDEST SWAP2 SWAP1 POP SSTORE POP POP POP PUSH2 0xFFD JUMP JUMPDEST PUSH0 JUMPDEST PUSH1 0x18 SLOAD DUP2 LT ISZERO PUSH2 0xF91 JUMPI CALLER PUSH20 0xFFFFFFFFFFFFFFFFFFFFFFFFFFFFFFFFFFFFFFFF AND PUSH1 0x17 PUSH0 DUP4 DUP2 MSTORE PUSH1 0x20 ADD SWAP1 DUP2 MSTORE PUSH1 0x20 ADD PUSH0 KECCAK256 PUSH0 SWAP1 SLOAD SWAP1 PUSH2 0x100 EXP SWAP1 DIV PUSH20 0xFFFFFFFFFFFFFFFFFFFFFFFFFFFFFFFFFFFFFFFF AND PUSH20 0xFFFFFFFFFFFFFFFFFFFFFFFFFFFFFFFFFFFFFFFF AND SUB PUSH2 0xF7E JUMPI POP POP POP PUSH2 0xFFD JUMP JUMPDEST DUP1 DUP1 PUSH2 0xF89 SWAP1 PUSH2 0x291B JUMP JUMPDEST SWAP2 POP POP PUSH2 0xF09 JUMP JUMPDEST POP CALLER PUSH1 0x17 PUSH0 PUSH1 0x18 SLOAD DUP2 MSTORE PUSH1 0x20 ADD SWAP1 DUP2 MSTORE PUSH1 0x20 ADD PUSH0 KECCAK256 PUSH0 PUSH2 0x100 EXP DUP2 SLOAD DUP2 PUSH20 0xFFFFFFFFFFFFFFFFFFFFFFFFFFFFFFFFFFFFFFFF MUL NOT AND SWAP1 DUP4 PUSH20 0xFFFFFFFFFFFFFFFFFFFFFFFFFFFFFFFFFFFFFFFF AND MUL OR SWAP1 SSTORE POP PUSH1 0x18 PUSH0 DUP2 SLOAD DUP1 SWAP3 SWAP2 SWAP1 PUSH2 0xFF5 SWAP1 PUSH2 0x291B JUMP JUMPDEST SWAP2 SWAP1 POP SSTORE POP POP POP JUMPDEST POP JUMP JUMPDEST PUSH1 0x16 SLOAD DUP2 JUMP JUMPDEST PUSH1 0xA PUSH0 SWAP1 SLOAD SWAP1 PUSH2 0x100 EXP SWAP1 DIV PUSH20 0xFFFFFFFFFFFFFFFFFFFFFFFFFFFFFFFFFFFFFFFF AND DUP2 JUMP JUMPDEST PUSH1 0x19 DUP2 DUP2 SLOAD DUP2 LT PUSH2 0x103A JUMPI PUSH0 DUP1 REVERT JUMPDEST SWAP1 PUSH0 MSTORE PUSH1 0x20 PUSH0 KECCAK256 SWAP1 PUSH1 0x2 MUL ADD PUSH0 SWAP2 POP SWAP1 POP DUP1 PUSH0 ADD PUSH0 SWAP1 SLOAD SWAP1 PUSH2 0x100 EXP SWAP1 DIV PUSH20 0xFFFFFFFFFFFFFFFFFFFFFFFFFFFFFFFFFFFFFFFF AND SWAP1 DUP1 PUSH1 0x1 ADD SLOAD SWAP1 POP DUP3 JUMP JUMPDEST PUSH1 0xD PUSH0 SWAP1 SLOAD SWAP1 PUSH2 0x100 EXP SWAP1 DIV PUSH20 0xFFFFFFFFFFFFFFFFFFFFFFFFFFFFFFFFFFFFFFFF AND DUP2 JUMP JUMPDEST PUSH0 PUSH1 0x5 PUSH0 DUP5 PUSH20 0xFFFFFFFFFFFFFFFFFFFFFFFFFFFFFFFFFFFFFFFF AND PUSH20 0xFFFFFFFFFFFFFFFFFFFFFFFFFFFFFFFFFFFFFFFF AND DUP2 MSTORE PUSH1 0x20 ADD SWAP1 DUP2 MSTORE PUSH1 0x20 ADD PUSH0 KECCAK256 PUSH0 DUP4 PUSH20 0xFFFFFFFFFFFFFFFFFFFFFFFFFFFFFFFFFFFFFFFF AND PUSH20 0xFFFFFFFFFFFFFFFFFFFFFFFFFFFFFFFFFFFFFFFF AND DUP2 MSTORE PUSH1 0x20 ADD SWAP1 DUP2 MSTORE PUSH1 0x20 ADD PUSH0 KECCAK256 SLOAD SWAP1 POP SWAP3 SWAP2 POP POP JUMP JUMPDEST PUSH2 0x1128 PUSH2 0x2200 JUMP JUMPDEST PUSH0 PUSH1 0x40 MLOAD DUP1 PUSH1 0x80 ADD PUSH1 0x40 MSTORE DUP1 PUSH1 0xC PUSH0 SWAP1 SLOAD SWAP1 PUSH2 0x100 EXP SWAP1 DIV PUSH20 0xFFFFFFFFFFFFFFFFFFFFFFFFFFFFFFFFFFFFFFFF AND PUSH20 0xFFFFFFFFFFFFFFFFFFFFFFFFFFFFFFFFFFFFFFFF AND DUP2 MSTORE PUSH1 0x20 ADD PUSH1 0xD PUSH0 SWAP1 SLOAD SWAP1 PUSH2 0x100 EXP SWAP1 DIV PUSH20 0xFFFFFFFFFFFFFFFFFFFFFFFFFFFFFFFFFFFFFFFF AND PUSH20 0xFFFFFFFFFFFFFFFFFFFFFFFFFFFFFFFFFFFFFFFF AND DUP2 MSTORE PUSH1 0x20 ADD PUSH2 0x11B6 PUSH2 0x1257 JUMP JUMPDEST DUP2 MSTORE PUSH1 0x20 ADD PUSH2 0x11C3 PUSH2 0x12F6 JUMP JUMPDEST DUP2 MSTORE POP SWAP1 POP DUP1 SWAP2 POP POP SWAP1 JUMP JUMPDEST PUSH1 0x13 SLOAD DUP2 JUMP JUMPDEST PUSH2 0x11DD PUSH2 0x1E2C JUMP JUMPDEST PUSH0 PUSH20 0xFFFFFFFFFFFFFFFFFFFFFFFFFFFFFFFFFFFFFFFF AND DUP2 PUSH20 0xFFFFFFFFFFFFFFFFFFFFFFFFFFFFFFFFFFFFFFFF AND SUB PUSH2 0x124B JUMPI PUSH1 0x40 MLOAD PUSH32 0x8C379A000000000000000000000000000000000000000000000000000000000 DUP2 MSTORE PUSH1 0x4 ADD PUSH2 0x1242 SWAP1 PUSH2 0x2B15 JUMP JUMPDEST PUSH1 0x40 MLOAD DUP1 SWAP2 SUB SWAP1 REVERT JUMPDEST PUSH2 0x1254 DUP2 PUSH2 0x1EAA JUMP JUMPDEST POP JUMP JUMPDEST PUSH0 PUSH1 0xC PUSH0 SWAP1 SLOAD SWAP1 PUSH2 0x100 EXP SWAP1 DIV PUSH20 0xFFFFFFFFFFFFFFFFFFFFFFFFFFFFFFFFFFFFFFFF AND PUSH20 0xFFFFFFFFFFFFFFFFFFFFFFFFFFFFFFFFFFFFFFFF AND PUSH4 0x70A08231 ADDRESS PUSH1 0x40 MLOAD DUP3 PUSH4 0xFFFFFFFF AND PUSH1 0xE0 SHL DUP2 MSTORE PUSH1 0x4 ADD PUSH2 0x12B2 SWAP2 SWAP1 PUSH2 0x245E JUMP JUMPDEST PUSH1 0x20 PUSH1 0x40 MLOAD DUP1 DUP4 SUB DUP2 DUP7 GAS STATICCALL ISZERO DUP1 ISZERO PUSH2 0x12CD JUMPI RETURNDATASIZE PUSH0 DUP1 RETURNDATACOPY RETURNDATASIZE PUSH0 REVERT JUMPDEST POP POP POP POP PUSH1 0x40 MLOAD RETURNDATASIZE PUSH1 0x1F NOT PUSH1 0x1F DUP3 ADD AND DUP3 ADD DUP1 PUSH1 0x40 MSTORE POP DUP2 ADD SWAP1 PUSH2 0x12F1 SWAP2 SWAP1 PUSH2 0x2B47 JUMP JUMPDEST SWAP1 POP SWAP1 JUMP JUMPDEST PUSH0 PUSH1 0xD PUSH0 SWAP1 SLOAD SWAP1 PUSH2 0x100 EXP SWAP1 DIV PUSH20 0xFFFFFFFFFFFFFFFFFFFFFFFFFFFFFFFFFFFFFFFF AND PUSH20 0xFFFFFFFFFFFFFFFFFFFFFFFFFFFFFFFFFFFFFFFF AND PUSH4 0x70A08231 ADDRESS PUSH1 0x40 MLOAD DUP3 PUSH4 0xFFFFFFFF AND PUSH1 0xE0 SHL DUP2 MSTORE PUSH1 0x4 ADD PUSH2 0x1351 SWAP2 SWAP1 PUSH2 0x245E JUMP JUMPDEST PUSH1 0x20 PUSH1 0x40 MLOAD DUP1 DUP4 SUB DUP2 DUP7 GAS STATICCALL ISZERO DUP1 ISZERO PUSH2 0x136C JUMPI RETURNDATASIZE PUSH0 DUP1 RETURNDATACOPY RETURNDATASIZE PUSH0 REVERT JUMPDEST POP POP POP POP PUSH1 0x40 MLOAD RETURNDATASIZE PUSH1 0x1F NOT PUSH1 0x1F DUP3 ADD AND DUP3 ADD DUP1 PUSH1 0x40 MSTORE POP DUP2 ADD SWAP1 PUSH2 0x1390 SWAP2 SWAP1 PUSH2 0x2B47 JUMP JUMPDEST SWAP1 POP SWAP1 JUMP JUMPDEST PUSH0 DUP2 DUP4 PUSH2 0x13A2 SWAP2 SWAP1 PUSH2 0x2B9F JUMP JUMPDEST SWAP1 POP SWAP3 SWAP2 POP POP JUMP JUMPDEST PUSH0 CALLER SWAP1 POP SWAP1 JUMP JUMPDEST PUSH0 PUSH20 0xFFFFFFFFFFFFFFFFFFFFFFFFFFFFFFFFFFFFFFFF AND DUP4 PUSH20 0xFFFFFFFFFFFFFFFFFFFFFFFFFFFFFFFFFFFFFFFF AND SUB PUSH2 0x141F JUMPI PUSH1 0x40 MLOAD PUSH32 0x8C379A000000000000000000000000000000000000000000000000000000000 DUP2 MSTORE PUSH1 0x4 ADD PUSH2 0x1416 SWAP1 PUSH2 0x2C3F JUMP JUMPDEST PUSH1 0x40 MLOAD DUP1 SWAP2 SUB SWAP1 REVERT JUMPDEST PUSH0 PUSH20 0xFFFFFFFFFFFFFFFFFFFFFFFFFFFFFFFFFFFFFFFF AND DUP3 PUSH20 0xFFFFFFFFFFFFFFFFFFFFFFFFFFFFFFFFFFFFFFFF AND SUB PUSH2 0x148D JUMPI PUSH1 0x40 MLOAD PUSH32 0x8C379A000000000000000000000000000000000000000000000000000000000 DUP2 MSTORE PUSH1 0x4 ADD PUSH2 0x1484 SWAP1 PUSH2 0x2CCD JUMP JUMPDEST PUSH1 0x40 MLOAD DUP1 SWAP2 SUB SWAP1 REVERT JUMPDEST DUP1 PUSH1 0x5 PUSH0 DUP6 PUSH20 0xFFFFFFFFFFFFFFFFFFFFFFFFFFFFFFFFFFFFFFFF AND PUSH20 0xFFFFFFFFFFFFFFFFFFFFFFFFFFFFFFFFFFFFFFFF AND DUP2 MSTORE PUSH1 0x20 ADD SWAP1 DUP2 MSTORE PUSH1 0x20 ADD PUSH0 KECCAK256 PUSH0 DUP5 PUSH20 0xFFFFFFFFFFFFFFFFFFFFFFFFFFFFFFFFFFFFFFFF AND PUSH20 0xFFFFFFFFFFFFFFFFFFFFFFFFFFFFFFFFFFFFFFFF AND DUP2 MSTORE PUSH1 0x20 ADD SWAP1 DUP2 MSTORE PUSH1 0x20 ADD PUSH0 KECCAK256 DUP2 SWAP1 SSTORE POP DUP2 PUSH20 0xFFFFFFFFFFFFFFFFFFFFFFFFFFFFFFFFFFFFFFFF AND DUP4 PUSH20 0xFFFFFFFFFFFFFFFFFFFFFFFFFFFFFFFFFFFFFFFF AND PUSH32 0x8C5BE1E5EBEC7D5BD14F71427D1E84F3DD0314C0F7B2291E5B200AC8C7C3B925 DUP4 PUSH1 0x40 MLOAD PUSH2 0x1567 SWAP2 SWAP1 PUSH2 0x22C1 JUMP JUMPDEST PUSH1 0x40 MLOAD DUP1 SWAP2 SUB SWAP1 LOG3 POP POP POP JUMP JUMPDEST PUSH0 PUSH2 0x157F DUP5 DUP5 PUSH2 0x109E JUMP JUMPDEST SWAP1 POP PUSH32 0xFFFFFFFFFFFFFFFFFFFFFFFFFFFFFFFFFFFFFFFFFFFFFFFFFFFFFFFFFFFFFFFF DUP2 EQ PUSH2 0x15F9 JUMPI DUP2 DUP2 LT ISZERO PUSH2 0x15EB JUMPI PUSH1 0x40 MLOAD PUSH32 0x8C379A000000000000000000000000000000000000000000000000000000000 DUP2 MSTORE PUSH1 0x4 ADD PUSH2 0x15E2 SWAP1 PUSH2 0x2D35 JUMP JUMPDEST PUSH1 0x40 MLOAD DUP1 SWAP2 SUB SWAP1 REVERT JUMPDEST PUSH2 0x15F8 DUP5 DUP5 DUP5 DUP5 SUB PUSH2 0x13B1 JUMP JUMPDEST JUMPDEST POP POP POP POP JUMP JUMPDEST PUSH0 PUSH20 0xFFFFFFFFFFFFFFFFFFFFFFFFFFFFFFFFFFFFFFFF AND DUP4 PUSH20 0xFFFFFFFFFFFFFFFFFFFFFFFFFFFFFFFFFFFFFFFF AND SUB PUSH2 0x166D JUMPI PUSH1 0x40 MLOAD PUSH32 0x8C379A000000000000000000000000000000000000000000000000000000000 DUP2 MSTORE PUSH1 0x4 ADD PUSH2 0x1664 SWAP1 PUSH2 0x2DC3 JUMP JUMPDEST PUSH1 0x40 MLOAD DUP1 SWAP2 SUB SWAP1 REVERT JUMPDEST PUSH0 PUSH20 0xFFFFFFFFFFFFFFFFFFFFFFFFFFFFFFFFFFFFFFFF AND DUP3 PUSH20 0xFFFFFFFFFFFFFFFFFFFFFFFFFFFFFFFFFFFFFFFF AND SUB PUSH2 0x16DB JUMPI PUSH1 0x40 MLOAD PUSH32 0x8C379A000000000000000000000000000000000000000000000000000000000 DUP2 MSTORE PUSH1 0x4 ADD PUSH2 0x16D2 SWAP1 PUSH2 0x2E51 JUMP JUMPDEST PUSH1 0x40 MLOAD DUP1 SWAP2 SUB SWAP1 REVERT JUMPDEST PUSH2 0x16E6 DUP4 DUP4 DUP4 PUSH2 0x2102 JUMP JUMPDEST PUSH0 PUSH1 0x4 PUSH0 DUP6 PUSH20 0xFFFFFFFFFFFFFFFFFFFFFFFFFFFFFFFFFFFFFFFF AND PUSH20 0xFFFFFFFFFFFFFFFFFFFFFFFFFFFFFFFFFFFFFFFF AND DUP2 MSTORE PUSH1 0x20 ADD SWAP1 DUP2 MSTORE PUSH1 0x20 ADD PUSH0 KECCAK256 SLOAD SWAP1 POP DUP2 DUP2 LT ISZERO PUSH2 0x176A JUMPI PUSH1 0x40 MLOAD PUSH32 0x8C379A000000000000000000000000000000000000000000000000000000000 DUP2 MSTORE PUSH1 0x4 ADD PUSH2 0x1761 SWAP1 PUSH2 0x2EDF JUMP JUMPDEST PUSH1 0x40 MLOAD DUP1 SWAP2 SUB SWAP1 REVERT JUMPDEST DUP2 DUP2 SUB PUSH1 0x4 PUSH0 DUP7 PUSH20 0xFFFFFFFFFFFFFFFFFFFFFFFFFFFFFFFFFFFFFFFF AND PUSH20 0xFFFFFFFFFFFFFFFFFFFFFFFFFFFFFFFFFFFFFFFF AND DUP2 MSTORE PUSH1 0x20 ADD SWAP1 DUP2 MSTORE PUSH1 0x20 ADD PUSH0 KECCAK256 DUP2 SWAP1 SSTORE POP DUP2 PUSH1 0x4 PUSH0 DUP6 PUSH20 0xFFFFFFFFFFFFFFFFFFFFFFFFFFFFFFFFFFFFFFFF AND PUSH20 0xFFFFFFFFFFFFFFFFFFFFFFFFFFFFFFFFFFFFFFFF AND DUP2 MSTORE PUSH1 0x20 ADD SWAP1 DUP2 MSTORE PUSH1 0x20 ADD PUSH0 KECCAK256 PUSH0 DUP3 DUP3 SLOAD ADD SWAP3 POP POP DUP2 SWAP1 SSTORE POP DUP3 PUSH20 0xFFFFFFFFFFFFFFFFFFFFFFFFFFFFFFFFFFFFFFFF AND DUP5 PUSH20 0xFFFFFFFFFFFFFFFFFFFFFFFFFFFFFFFFFFFFFFFF AND PUSH32 0xDDF252AD1BE2C89B69C2B068FC378DAA952BA7F163C4A11628F55A4DF523B3EF DUP5 PUSH1 0x40 MLOAD PUSH2 0x1855 SWAP2 SWAP1 PUSH2 0x22C1 JUMP JUMPDEST PUSH1 0x40 MLOAD DUP1 SWAP2 SUB SWAP1 LOG3 PUSH2 0x1868 DUP5 DUP5 DUP5 PUSH2 0x2107 JUMP JUMPDEST POP POP POP POP JUMP JUMPDEST PUSH0 PUSH2 0x1878 DUP4 PUSH2 0x6F1 JUMP JUMPDEST SWAP1 POP DUP2 DUP2 LT ISZERO PUSH2 0x18BD JUMPI PUSH1 0x40 MLOAD PUSH32 0x8C379A000000000000000000000000000000000000000000000000000000000 DUP2 MSTORE PUSH1 0x4 ADD PUSH2 0x18B4 SWAP1 PUSH2 0x2F47 JUMP JUMPDEST PUSH1 0x40 MLOAD DUP1 SWAP2 SUB SWAP1 REVERT JUMPDEST PUSH1 0xD PUSH0 SWAP1 SLOAD SWAP1 PUSH2 0x100 EXP SWAP1 DIV PUSH20 0xFFFFFFFFFFFFFFFFFFFFFFFFFFFFFFFFFFFFFFFF AND PUSH20 0xFFFFFFFFFFFFFFFFFFFFFFFFFFFFFFFFFFFFFFFF AND PUSH4 0x23B872DD CALLER ADDRESS DUP7 PUSH1 0x40 MLOAD DUP5 PUSH4 0xFFFFFFFF AND PUSH1 0xE0 SHL DUP2 MSTORE PUSH1 0x4 ADD PUSH2 0x191B SWAP4 SWAP3 SWAP2 SWAP1 PUSH2 0x2A31 JUMP JUMPDEST PUSH1 0x20 PUSH1 0x40 MLOAD DUP1 DUP4 SUB DUP2 PUSH0 DUP8 GAS CALL ISZERO DUP1 ISZERO PUSH2 0x1937 JUMPI RETURNDATASIZE PUSH0 DUP1 RETURNDATACOPY RETURNDATASIZE PUSH0 REVERT JUMPDEST POP POP POP POP PUSH1 0x40 MLOAD RETURNDATASIZE PUSH1 0x1F NOT PUSH1 0x1F DUP3 ADD AND DUP3 ADD DUP1 PUSH1 0x40 MSTORE POP DUP2 ADD SWAP1 PUSH2 0x195B SWAP2 SWAP1 PUSH2 0x2A7A JUMP JUMPDEST POP PUSH1 0xC PUSH0 SWAP1 SLOAD SWAP1 PUSH2 0x100 EXP SWAP1 DIV PUSH20 0xFFFFFFFFFFFFFFFFFFFFFFFFFFFFFFFFFFFFFFFF AND PUSH20 0xFFFFFFFFFFFFFFFFFFFFFFFFFFFFFFFFFFFFFFFF AND PUSH4 0xA9059CBB CALLER DUP4 PUSH1 0x40 MLOAD DUP4 PUSH4 0xFFFFFFFF AND PUSH1 0xE0 SHL DUP2 MSTORE PUSH1 0x4 ADD PUSH2 0x19B8 SWAP3 SWAP2 SWAP1 PUSH2 0x26CA JUMP JUMPDEST PUSH1 0x20 PUSH1 0x40 MLOAD DUP1 DUP4 SUB DUP2 PUSH0 DUP8 GAS CALL ISZERO DUP1 ISZERO PUSH2 0x19D4 JUMPI RETURNDATASIZE PUSH0 DUP1 RETURNDATACOPY RETURNDATASIZE PUSH0 REVERT JUMPDEST POP POP POP POP PUSH1 0x40 MLOAD RETURNDATASIZE PUSH1 0x1F NOT PUSH1 0x1F DUP3 ADD AND DUP3 ADD DUP1 PUSH1 0x40 MSTORE POP DUP2 ADD SWAP1 PUSH2 0x19F8 SWAP2 SWAP1 PUSH2 0x2A7A JUMP JUMPDEST POP ADDRESS PUSH20 0xFFFFFFFFFFFFFFFFFFFFFFFFFFFFFFFFFFFFFFFF AND CALLER PUSH20 0xFFFFFFFFFFFFFFFFFFFFFFFFFFFFFFFFFFFFFFFF AND PUSH32 0xD78AD95FA46C994B6551D0DA85FC275FE613CE37657FB8D5E3D130840159D822 PUSH0 DUP7 DUP7 PUSH0 PUSH1 0x40 MLOAD PUSH2 0x1A5C SWAP5 SWAP4 SWAP3 SWAP2 SWAP1 PUSH2 0x2FA7 JUMP JUMPDEST PUSH1 0x40 MLOAD DUP1 SWAP2 SUB SWAP1 LOG3 PUSH2 0x1A6D DUP4 PUSH2 0x210C JUMP JUMPDEST POP POP POP JUMP JUMPDEST PUSH0 PUSH2 0x1A7C DUP4 PUSH2 0xBEA JUMP JUMPDEST SWAP1 POP DUP2 DUP2 LT ISZERO PUSH2 0x1AC1 JUMPI PUSH1 0x40 MLOAD PUSH32 0x8C379A000000000000000000000000000000000000000000000000000000000 DUP2 MSTORE PUSH1 0x4 ADD PUSH2 0x1AB8 SWAP1 PUSH2 0x2F47 JUMP JUMPDEST PUSH1 0x40 MLOAD DUP1 SWAP2 SUB SWAP1 REVERT JUMPDEST PUSH1 0xC PUSH0 SWAP1 SLOAD SWAP1 PUSH2 0x100 EXP SWAP1 DIV PUSH20 0xFFFFFFFFFFFFFFFFFFFFFFFFFFFFFFFFFFFFFFFF AND PUSH20 0xFFFFFFFFFFFFFFFFFFFFFFFFFFFFFFFFFFFFFFFF AND PUSH4 0x23B872DD CALLER ADDRESS DUP7 PUSH1 0x40 MLOAD DUP5 PUSH4 0xFFFFFFFF AND PUSH1 0xE0 SHL DUP2 MSTORE PUSH1 0x4 ADD PUSH2 0x1B1F SWAP4 SWAP3 SWAP2 SWAP1 PUSH2 0x2A31 JUMP JUMPDEST PUSH1 0x20 PUSH1 0x40 MLOAD DUP1 DUP4 SUB DUP2 PUSH0 DUP8 GAS CALL ISZERO DUP1 ISZERO PUSH2 0x1B3B JUMPI RETURNDATASIZE PUSH0 DUP1 RETURNDATACOPY RETURNDATASIZE PUSH0 REVERT JUMPDEST POP POP POP POP PUSH1 0x40 MLOAD RETURNDATASIZE PUSH1 0x1F NOT PUSH1 0x1F DUP3 ADD AND DUP3 ADD DUP1 PUSH1 0x40 MSTORE POP DUP2 ADD SWAP1 PUSH2 0x1B5F SWAP2 SWAP1 PUSH2 0x2A7A JUMP JUMPDEST POP PUSH0 PUSH2 0x1B7B DUP3 PUSH1 0x15 SLOAD PUSH2 0x1B72 SWAP2 SWAP1 PUSH2 0x2962 JUMP JUMPDEST PUSH3 0xF4240 PUSH2 0x1395 JUMP JUMPDEST SWAP1 POP PUSH1 0xD PUSH0 SWAP1 SLOAD SWAP1 PUSH2 0x100 EXP SWAP1 DIV PUSH20 0xFFFFFFFFFFFFFFFFFFFFFFFFFFFFFFFFFFFFFFFF AND PUSH20 0xFFFFFFFFFFFFFFFFFFFFFFFFFFFFFFFFFFFFFFFF AND PUSH4 0xA9059CBB PUSH1 0xB PUSH0 SWAP1 SLOAD SWAP1 PUSH2 0x100 EXP SWAP1 DIV PUSH20 0xFFFFFFFFFFFFFFFFFFFFFFFFFFFFFFFFFFFFFFFF AND DUP4 PUSH1 0x40 MLOAD DUP4 PUSH4 0xFFFFFFFF AND PUSH1 0xE0 SHL DUP2 MSTORE PUSH1 0x4 ADD PUSH2 0x1BFA SWAP3 SWAP2 SWAP1 PUSH2 0x26CA JUMP JUMPDEST PUSH1 0x20 PUSH1 0x40 MLOAD DUP1 DUP4 SUB DUP2 PUSH0 DUP8 GAS CALL ISZERO DUP1 ISZERO PUSH2 0x1C16 JUMPI RETURNDATASIZE PUSH0 DUP1 RETURNDATACOPY RETURNDATASIZE PUSH0 REVERT JUMPDEST POP POP POP POP PUSH1 0x40 MLOAD RETURNDATASIZE PUSH1 0x1F NOT PUSH1 0x1F DUP3 ADD AND DUP3 ADD DUP1 PUSH1 0x40 MSTORE POP DUP2 ADD SWAP1 PUSH2 0x1C3A SWAP2 SWAP1 PUSH2 0x2A7A JUMP JUMPDEST POP PUSH1 0xD PUSH0 SWAP1 SLOAD SWAP1 PUSH2 0x100 EXP SWAP1 DIV PUSH20 0xFFFFFFFFFFFFFFFFFFFFFFFFFFFFFFFFFFFFFFFF AND PUSH20 0xFFFFFFFFFFFFFFFFFFFFFFFFFFFFFFFFFFFFFFFF AND PUSH4 0xA9059CBB CALLER DUP4 DUP6 PUSH2 0x1C85 SWAP2 SWAP1 PUSH2 0x280A JUMP JUMPDEST PUSH1 0x40 MLOAD DUP4 PUSH4 0xFFFFFFFF AND PUSH1 0xE0 SHL DUP2 MSTORE PUSH1 0x4 ADD PUSH2 0x1CA2 SWAP3 SWAP2 SWAP1 PUSH2 0x26CA JUMP JUMPDEST PUSH1 0x20 PUSH1 0x40 MLOAD DUP1 DUP4 SUB DUP2 PUSH0 DUP8 GAS CALL ISZERO DUP1 ISZERO PUSH2 0x1CBE JUMPI RETURNDATASIZE PUSH0 DUP1 RETURNDATACOPY RETURNDATASIZE PUSH0 REVERT JUMPDEST POP POP POP POP PUSH1 0x40 MLOAD RETURNDATASIZE PUSH1 0x1F NOT PUSH1 0x1F DUP3 ADD AND DUP3 ADD DUP1 PUSH1 0x40 MSTORE POP DUP2 ADD SWAP1 PUSH2 0x1CE2 SWAP2 SWAP1 PUSH2 0x2A7A JUMP JUMPDEST POP ADDRESS PUSH20 0xFFFFFFFFFFFFFFFFFFFFFFFFFFFFFFFFFFFFFFFF AND CALLER PUSH20 0xFFFFFFFFFFFFFFFFFFFFFFFFFFFFFFFFFFFFFFFF AND PUSH32 0xD78AD95FA46C994B6551D0DA85FC275FE613CE37657FB8D5E3D130840159D822 DUP7 PUSH0 DUP1 DUP9 PUSH1 0x40 MLOAD PUSH2 0x1D46 SWAP5 SWAP4 SWAP3 SWAP2 SWAP1 PUSH2 0x2FEA JUMP JUMPDEST PUSH1 0x40 MLOAD DUP1 SWAP2 SUB SWAP1 LOG3 POP POP POP POP JUMP JUMPDEST PUSH1 0x3 SLOAD PUSH1 0x1 SLOAD PUSH1 0x2 SLOAD PUSH2 0x1D67 SWAP2 SWAP1 PUSH2 0x280A JUMP JUMPDEST SUB PUSH2 0x1DB4 JUMPI PUSH0 DUP1 PUSH1 0x1 SLOAD DUP2 MSTORE PUSH1 0x20 ADD SWAP1 DUP2 MSTORE PUSH1 0x20 ADD PUSH0 KECCAK256 PUSH0 DUP1 DUP3 ADD PUSH0 SWAP1 SSTORE PUSH1 0x1 DUP3 ADD PUSH0 SWAP1 SSTORE PUSH1 0x2 DUP3 ADD PUSH0 SWAP1 SSTORE PUSH1 0x3 DUP3 ADD PUSH0 SWAP1 SSTORE POP POP PUSH1 0x1 PUSH0 DUP2 SLOAD DUP1 SWAP3 SWAP2 SWAP1 PUSH2 0x1DAE SWAP1 PUSH2 0x291B JUMP JUMPDEST SWAP2 SWAP1 POP SSTORE POP JUMPDEST PUSH1 0x2 PUSH0 DUP2 SLOAD DUP1 SWAP3 SWAP2 SWAP1 PUSH2 0x1DC6 SWAP1 PUSH2 0x291B JUMP JUMPDEST SWAP2 SWAP1 POP SSTORE POP PUSH1 0x40 MLOAD DUP1 PUSH1 0x80 ADD PUSH1 0x40 MSTORE DUP1 DUP5 DUP2 MSTORE PUSH1 0x20 ADD DUP4 DUP2 MSTORE PUSH1 0x20 ADD DUP3 DUP2 MSTORE PUSH1 0x20 ADD TIMESTAMP DUP2 MSTORE POP PUSH0 DUP1 PUSH1 0x2 SLOAD DUP2 MSTORE PUSH1 0x20 ADD SWAP1 DUP2 MSTORE PUSH1 0x20 ADD PUSH0 KECCAK256 PUSH0 DUP3 ADD MLOAD DUP2 PUSH0 ADD SSTORE PUSH1 0x20 DUP3 ADD MLOAD DUP2 PUSH1 0x1 ADD SSTORE PUSH1 0x40 DUP3 ADD MLOAD DUP2 PUSH1 0x2 ADD SSTORE PUSH1 0x60 DUP3 ADD MLOAD DUP2 PUSH1 0x3 ADD SSTORE SWAP1 POP POP POP POP POP JUMP JUMPDEST PUSH2 0x1E34 PUSH2 0x13AA JUMP JUMPDEST PUSH20 0xFFFFFFFFFFFFFFFFFFFFFFFFFFFFFFFFFFFFFFFF AND PUSH2 0x1E52 PUSH2 0xB32 JUMP JUMPDEST PUSH20 0xFFFFFFFFFFFFFFFFFFFFFFFFFFFFFFFFFFFFFFFF AND EQ PUSH2 0x1EA8 JUMPI PUSH1 0x40 MLOAD PUSH32 0x8C379A000000000000000000000000000000000000000000000000000000000 DUP2 MSTORE PUSH1 0x4 ADD PUSH2 0x1E9F SWAP1 PUSH2 0x3077 JUMP JUMPDEST PUSH1 0x40 MLOAD DUP1 SWAP2 SUB SWAP1 REVERT JUMPDEST JUMP JUMPDEST PUSH0 PUSH1 0x9 PUSH0 SWAP1 SLOAD SWAP1 PUSH2 0x100 EXP SWAP1 DIV PUSH20 0xFFFFFFFFFFFFFFFFFFFFFFFFFFFFFFFFFFFFFFFF AND SWAP1 POP DUP2 PUSH1 0x9 PUSH0 PUSH2 0x100 EXP DUP2 SLOAD DUP2 PUSH20 0xFFFFFFFFFFFFFFFFFFFFFFFFFFFFFFFFFFFFFFFF MUL NOT AND SWAP1 DUP4 PUSH20 0xFFFFFFFFFFFFFFFFFFFFFFFFFFFFFFFFFFFFFFFF AND MUL OR SWAP1 SSTORE POP DUP2 PUSH20 0xFFFFFFFFFFFFFFFFFFFFFFFFFFFFFFFFFFFFFFFF AND DUP2 PUSH20 0xFFFFFFFFFFFFFFFFFFFFFFFFFFFFFFFFFFFFFFFF AND PUSH32 0x8BE0079C531659141344CD1FD0A4F28419497F9722A3DAAFE3B4186F6B6457E0 PUSH1 0x40 MLOAD PUSH1 0x40 MLOAD DUP1 SWAP2 SUB SWAP1 LOG3 POP POP JUMP JUMPDEST PUSH0 PUSH20 0xFFFFFFFFFFFFFFFFFFFFFFFFFFFFFFFFFFFFFFFF AND DUP3 PUSH20 0xFFFFFFFFFFFFFFFFFFFFFFFFFFFFFFFFFFFFFFFF AND SUB PUSH2 0x1FDB JUMPI PUSH1 0x40 MLOAD PUSH32 0x8C379A000000000000000000000000000000000000000000000000000000000 DUP2 MSTORE PUSH1 0x4 ADD PUSH2 0x1FD2 SWAP1 PUSH2 0x30DF JUMP JUMPDEST PUSH1 0x40 MLOAD DUP1 SWAP2 SUB SWAP1 REVERT JUMPDEST PUSH2 0x1FE6 PUSH0 DUP4 DUP4 PUSH2 0x2102 JUMP JUMPDEST DUP1 PUSH1 0x6 PUSH0 DUP3 DUP3 SLOAD PUSH2 0x1FF7 SWAP2 SWAP1 PUSH2 0x27D7 JUMP JUMPDEST SWAP3 POP POP DUP2 SWAP1 SSTORE POP DUP1 PUSH1 0x4 PUSH0 DUP5 PUSH20 0xFFFFFFFFFFFFFFFFFFFFFFFFFFFFFFFFFFFFFFFF AND PUSH20 0xFFFFFFFFFFFFFFFFFFFFFFFFFFFFFFFFFFFFFFFF AND DUP2 MSTORE PUSH1 0x20 ADD SWAP1 DUP2 MSTORE PUSH1 0x20 ADD PUSH0 KECCAK256 PUSH0 DUP3 DUP3 SLOAD ADD SWAP3 POP POP DUP2 SWAP1 SSTORE POP DUP2 PUSH20 0xFFFFFFFFFFFFFFFFFFFFFFFFFFFFFFFFFFFFFFFF AND PUSH0 PUSH20 0xFFFFFFFFFFFFFFFFFFFFFFFFFFFFFFFFFFFFFFFF AND PUSH32 0xDDF252AD1BE2C89B69C2B068FC378DAA952BA7F163C4A11628F55A4DF523B3EF DUP4 PUSH1 0x40 MLOAD PUSH2 0x20A5 SWAP2 SWAP1 PUSH2 0x22C1 JUMP JUMPDEST PUSH1 0x40 MLOAD DUP1 SWAP2 SUB SWAP1 LOG3 PUSH2 0x20B8 PUSH0 DUP4 DUP4 PUSH2 0x2107 JUMP JUMPDEST POP POP JUMP JUMPDEST PUSH0 PUSH2 0x20C5 PUSH2 0x1257 JUMP JUMPDEST SWAP1 POP PUSH0 PUSH2 0x20D0 PUSH2 0x12F6 JUMP JUMPDEST SWAP1 POP PUSH1 0x11 SLOAD DUP2 PUSH2 0x20E0 SWAP2 SWAP1 PUSH2 0x27D7 JUMP JUMPDEST PUSH1 0x10 SLOAD DUP4 PUSH2 0x20EE SWAP2 SWAP1 PUSH2 0x27D7 JUMP JUMPDEST PUSH2 0x20F8 SWAP2 SWAP1 PUSH2 0x2962 JUMP JUMPDEST PUSH1 0x12 DUP2 SWAP1 SSTORE POP POP POP JUMP JUMPDEST POP POP POP JUMP JUMPDEST POP POP POP JUMP JUMPDEST PUSH0 PUSH1 0x18 SLOAD SUB ISZERO PUSH2 0x21D9 JUMPI PUSH0 JUMPDEST PUSH1 0x18 SLOAD DUP2 LT ISZERO PUSH2 0x21D7 JUMPI PUSH0 PUSH2 0x215C PUSH1 0x17 PUSH0 DUP5 DUP2 MSTORE PUSH1 0x20 ADD SWAP1 DUP2 MSTORE PUSH1 0x20 ADD PUSH0 KECCAK256 PUSH0 SWAP1 SLOAD SWAP1 PUSH2 0x100 EXP SWAP1 DIV PUSH20 0xFFFFFFFFFFFFFFFFFFFFFFFFFFFFFFFFFFFFFFFF AND PUSH2 0xACD JUMP JUMPDEST SWAP1 POP PUSH2 0x21C3 PUSH1 0x17 PUSH0 DUP5 DUP2 MSTORE PUSH1 0x20 ADD SWAP1 DUP2 MSTORE PUSH1 0x20 ADD PUSH0 KECCAK256 PUSH0 SWAP1 SLOAD SWAP1 PUSH2 0x100 EXP SWAP1 DIV PUSH20 0xFFFFFFFFFFFFFFFFFFFFFFFFFFFFFFFFFFFFFFFF AND PUSH2 0x21BE PUSH1 0x16 SLOAD DUP5 DUP8 PUSH2 0x21A4 SWAP2 SWAP1 PUSH2 0x2962 JUMP JUMPDEST PUSH2 0x21AE SWAP2 SWAP1 PUSH2 0x2962 JUMP JUMPDEST PUSH10 0x152D02C7E14AF6800000 PUSH2 0x1395 JUMP JUMPDEST PUSH2 0x1F6D JUMP JUMPDEST POP DUP1 DUP1 PUSH2 0x21CF SWAP1 PUSH2 0x291B JUMP JUMPDEST SWAP2 POP POP PUSH2 0x2118 JUMP JUMPDEST POP JUMPDEST POP JUMP JUMPDEST PUSH1 0x40 MLOAD DUP1 PUSH1 0x80 ADD PUSH1 0x40 MSTORE DUP1 PUSH0 DUP2 MSTORE PUSH1 0x20 ADD PUSH0 DUP2 MSTORE PUSH1 0x20 ADD PUSH0 DUP2 MSTORE PUSH1 0x20 ADD PUSH0 DUP2 MSTORE POP SWAP1 JUMP JUMPDEST PUSH1 0x40 MLOAD DUP1 PUSH1 0x80 ADD PUSH1 0x40 MSTORE DUP1 PUSH0 PUSH20 0xFFFFFFFFFFFFFFFFFFFFFFFFFFFFFFFFFFFFFFFF AND DUP2 MSTORE PUSH1 0x20 ADD PUSH0 PUSH20 0xFFFFFFFFFFFFFFFFFFFFFFFFFFFFFFFFFFFFFFFF AND DUP2 MSTORE PUSH1 0x20 ADD PUSH0 DUP2 MSTORE PUSH1 0x20 ADD PUSH0 DUP2 MSTORE POP SWAP1 JUMP JUMPDEST PUSH0 DUP1 REVERT JUMPDEST PUSH0 DUP2 SWAP1 POP SWAP2 SWAP1 POP JUMP JUMPDEST PUSH2 0x2266 DUP2 PUSH2 0x2254 JUMP JUMPDEST DUP2 EQ PUSH2 0x2270 JUMPI PUSH0 DUP1 REVERT JUMPDEST POP JUMP JUMPDEST PUSH0 DUP2 CALLDATALOAD SWAP1 POP PUSH2 0x2281 DUP2 PUSH2 0x225D JUMP JUMPDEST SWAP3 SWAP2 POP POP JUMP JUMPDEST PUSH0 PUSH1 0x20 DUP3 DUP5 SUB SLT ISZERO PUSH2 0x229C JUMPI PUSH2 0x229B PUSH2 0x2250 JUMP JUMPDEST JUMPDEST PUSH0 PUSH2 0x22A9 DUP5 DUP3 DUP6 ADD PUSH2 0x2273 JUMP JUMPDEST SWAP2 POP POP SWAP3 SWAP2 POP POP JUMP JUMPDEST PUSH2 0x22BB DUP2 PUSH2 0x2254 JUMP JUMPDEST DUP3 MSTORE POP POP JUMP JUMPDEST PUSH0 PUSH1 0x20 DUP3 ADD SWAP1 POP PUSH2 0x22D4 PUSH0 DUP4 ADD DUP5 PUSH2 0x22B2 JUMP JUMPDEST SWAP3 SWAP2 POP POP JUMP JUMPDEST PUSH0 DUP2 MLOAD SWAP1 POP SWAP2 SWAP1 POP JUMP JUMPDEST PUSH0 DUP3 DUP3 MSTORE PUSH1 0x20 DUP3 ADD SWAP1 POP SWAP3 SWAP2 POP POP JUMP JUMPDEST PUSH0 JUMPDEST DUP4 DUP2 LT ISZERO PUSH2 0x2311 JUMPI DUP1 DUP3 ADD MLOAD DUP2 DUP5 ADD MSTORE PUSH1 0x20 DUP2 ADD SWAP1 POP PUSH2 0x22F6 JUMP JUMPDEST PUSH0 DUP5 DUP5 ADD MSTORE POP POP POP POP JUMP JUMPDEST PUSH0 PUSH1 0x1F NOT PUSH1 0x1F DUP4 ADD AND SWAP1 POP SWAP2 SWAP1 POP JUMP JUMPDEST PUSH0 PUSH2 0x2336 DUP3 PUSH2 0x22DA JUMP JUMPDEST PUSH2 0x2340 DUP2 DUP6 PUSH2 0x22E4 JUMP JUMPDEST SWAP4 POP PUSH2 0x2350 DUP2 DUP6 PUSH1 0x20 DUP7 ADD PUSH2 0x22F4 JUMP JUMPDEST PUSH2 0x2359 DUP2 PUSH2 0x231C JUMP JUMPDEST DUP5 ADD SWAP2 POP POP SWAP3 SWAP2 POP POP JUMP JUMPDEST PUSH0 PUSH1 0x20 DUP3 ADD SWAP1 POP DUP2 DUP2 SUB PUSH0 DUP4 ADD MSTORE PUSH2 0x237C DUP2 DUP5 PUSH2 0x232C JUMP JUMPDEST SWAP1 POP SWAP3 SWAP2 POP POP JUMP JUMPDEST PUSH0 PUSH20 0xFFFFFFFFFFFFFFFFFFFFFFFFFFFFFFFFFFFFFFFF DUP3 AND SWAP1 POP SWAP2 SWAP1 POP JUMP JUMPDEST PUSH0 PUSH2 0x23AD DUP3 PUSH2 0x2384 JUMP JUMPDEST SWAP1 POP SWAP2 SWAP1 POP JUMP JUMPDEST PUSH2 0x23BD DUP2 PUSH2 0x23A3 JUMP JUMPDEST DUP2 EQ PUSH2 0x23C7 JUMPI PUSH0 DUP1 REVERT JUMPDEST POP JUMP JUMPDEST PUSH0 DUP2 CALLDATALOAD SWAP1 POP PUSH2 0x23D8 DUP2 PUSH2 0x23B4 JUMP JUMPDEST SWAP3 SWAP2 POP POP JUMP JUMPDEST PUSH0 DUP1 PUSH1 0x40 DUP4 DUP6 SUB SLT ISZERO PUSH2 0x23F4 JUMPI PUSH2 0x23F3 PUSH2 0x2250 JUMP JUMPDEST JUMPDEST PUSH0 PUSH2 0x2401 DUP6 DUP3 DUP7 ADD PUSH2 0x23CA JUMP JUMPDEST SWAP3 POP POP PUSH1 0x20 PUSH2 0x2412 DUP6 DUP3 DUP7 ADD PUSH2 0x2273 JUMP JUMPDEST SWAP2 POP POP SWAP3 POP SWAP3 SWAP1 POP JUMP JUMPDEST PUSH0 DUP2 ISZERO ISZERO SWAP1 POP SWAP2 SWAP1 POP JUMP JUMPDEST PUSH2 0x2430 DUP2 PUSH2 0x241C JUMP JUMPDEST DUP3 MSTORE POP POP JUMP JUMPDEST PUSH0 PUSH1 0x20 DUP3 ADD SWAP1 POP PUSH2 0x2449 PUSH0 DUP4 ADD DUP5 PUSH2 0x2427 JUMP JUMPDEST SWAP3 SWAP2 POP POP JUMP JUMPDEST PUSH2 0x2458 DUP2 PUSH2 0x23A3 JUMP JUMPDEST DUP3 MSTORE POP POP JUMP JUMPDEST PUSH0 PUSH1 0x20 DUP3 ADD SWAP1 POP PUSH2 0x2471 PUSH0 DUP4 ADD DUP5 PUSH2 0x244F JUMP JUMPDEST SWAP3 SWAP2 POP POP JUMP JUMPDEST PUSH0 DUP1 PUSH0 PUSH1 0x60 DUP5 DUP7 SUB SLT ISZERO PUSH2 0x248E JUMPI PUSH2 0x248D PUSH2 0x2250 JUMP JUMPDEST JUMPDEST PUSH0 PUSH2 0x249B DUP7 DUP3 DUP8 ADD PUSH2 0x23CA JUMP JUMPDEST SWAP4 POP POP PUSH1 0x20 PUSH2 0x24AC DUP7 DUP3 DUP8 ADD PUSH2 0x23CA JUMP JUMPDEST SWAP3 POP POP PUSH1 0x40 PUSH2 0x24BD DUP7 DUP3 DUP8 ADD PUSH2 0x2273 JUMP JUMPDEST SWAP2 POP POP SWAP3 POP SWAP3 POP SWAP3 JUMP JUMPDEST PUSH2 0x24D0 DUP2 PUSH2 0x241C JUMP JUMPDEST DUP2 EQ PUSH2 0x24DA JUMPI PUSH0 DUP1 REVERT JUMPDEST POP JUMP JUMPDEST PUSH0 DUP2 CALLDATALOAD SWAP1 POP PUSH2 0x24EB DUP2 PUSH2 0x24C7 JUMP JUMPDEST SWAP3 SWAP2 POP POP JUMP JUMPDEST PUSH0 DUP1 PUSH0 PUSH1 0x60 DUP5 DUP7 SUB SLT ISZERO PUSH2 0x2508 JUMPI PUSH2 0x2507 PUSH2 0x2250 JUMP JUMPDEST JUMPDEST PUSH0 PUSH2 0x2515 DUP7 DUP3 DUP8 ADD PUSH2 0x2273 JUMP JUMPDEST SWAP4 POP POP PUSH1 0x20 PUSH2 0x2526 DUP7 DUP3 DUP8 ADD PUSH2 0x2273 JUMP JUMPDEST SWAP3 POP POP PUSH1 0x40 PUSH2 0x2537 DUP7 DUP3 DUP8 ADD PUSH2 0x24DD JUMP JUMPDEST SWAP2 POP POP SWAP3 POP SWAP3 POP SWAP3 JUMP JUMPDEST PUSH0 PUSH1 0xFF DUP3 AND SWAP1 POP SWAP2 SWAP1 POP JUMP JUMPDEST PUSH2 0x2556 DUP2 PUSH2 0x2541 JUMP JUMPDEST DUP3 MSTORE POP POP JUMP JUMPDEST PUSH0 PUSH1 0x20 DUP3 ADD SWAP1 POP PUSH2 0x256F PUSH0 DUP4 ADD DUP5 PUSH2 0x254D JUMP JUMPDEST SWAP3 SWAP2 POP POP JUMP JUMPDEST PUSH0 DUP2 MLOAD SWAP1 POP SWAP2 SWAP1 POP JUMP JUMPDEST PUSH0 DUP3 DUP3 MSTORE PUSH1 0x20 DUP3 ADD SWAP1 POP SWAP3 SWAP2 POP POP JUMP JUMPDEST PUSH0 DUP2 SWAP1 POP PUSH1 0x20 DUP3 ADD SWAP1 POP SWAP2 SWAP1 POP JUMP JUMPDEST PUSH2 0x25A7 DUP2 PUSH2 0x2254 JUMP JUMPDEST DUP3 MSTORE POP POP JUMP JUMPDEST PUSH1 0x80 DUP3 ADD PUSH0 DUP3 ADD MLOAD PUSH2 0x25C1 PUSH0 DUP6 ADD DUP3 PUSH2 0x259E JUMP JUMPDEST POP PUSH1 0x20 DUP3 ADD MLOAD PUSH2 0x25D4 PUSH1 0x20 DUP6 ADD DUP3 PUSH2 0x259E JUMP JUMPDEST POP PUSH1 0x40 DUP3 ADD MLOAD PUSH2 0x25E7 PUSH1 0x40 DUP6 ADD DUP3 PUSH2 0x259E JUMP JUMPDEST POP PUSH1 0x60 DUP3 ADD MLOAD PUSH2 0x25FA PUSH1 0x60 DUP6 ADD DUP3 PUSH2 0x259E JUMP JUMPDEST POP POP POP POP JUMP JUMPDEST PUSH0 PUSH2 0x260B DUP4 DUP4 PUSH2 0x25AD JUMP JUMPDEST PUSH1 0x80 DUP4 ADD SWAP1 POP SWAP3 SWAP2 POP POP JUMP JUMPDEST PUSH0 PUSH1 0x20 DUP3 ADD SWAP1 POP SWAP2 SWAP1 POP JUMP JUMPDEST PUSH0 PUSH2 0x262D DUP3 PUSH2 0x2575 JUMP JUMPDEST PUSH2 0x2637 DUP2 DUP6 PUSH2 0x257F JUMP JUMPDEST SWAP4 POP PUSH2 0x2642 DUP4 PUSH2 0x258F JUMP JUMPDEST DUP1 PUSH0 JUMPDEST DUP4 DUP2 LT ISZERO PUSH2 0x2672 JUMPI DUP2 MLOAD PUSH2 0x2659 DUP9 DUP3 PUSH2 0x2600 JUMP JUMPDEST SWAP8 POP PUSH2 0x2664 DUP4 PUSH2 0x2617 JUMP JUMPDEST SWAP3 POP POP PUSH1 0x1 DUP2 ADD SWAP1 POP PUSH2 0x2645 JUMP JUMPDEST POP DUP6 SWAP4 POP POP POP POP SWAP3 SWAP2 POP POP JUMP JUMPDEST PUSH0 PUSH1 0x20 DUP3 ADD SWAP1 POP DUP2 DUP2 SUB PUSH0 DUP4 ADD MSTORE PUSH2 0x2697 DUP2 DUP5 PUSH2 0x2623 JUMP JUMPDEST SWAP1 POP SWAP3 SWAP2 POP POP JUMP JUMPDEST PUSH0 PUSH1 0x20 DUP3 DUP5 SUB SLT ISZERO PUSH2 0x26B4 JUMPI PUSH2 0x26B3 PUSH2 0x2250 JUMP JUMPDEST JUMPDEST PUSH0 PUSH2 0x26C1 DUP5 DUP3 DUP6 ADD PUSH2 0x23CA JUMP JUMPDEST SWAP2 POP POP SWAP3 SWAP2 POP POP JUMP JUMPDEST PUSH0 PUSH1 0x40 DUP3 ADD SWAP1 POP PUSH2 0x26DD PUSH0 DUP4 ADD DUP6 PUSH2 0x244F JUMP JUMPDEST PUSH2 0x26EA PUSH1 0x20 DUP4 ADD DUP5 PUSH2 0x22B2 JUMP JUMPDEST SWAP4 SWAP3 POP POP POP JUMP JUMPDEST PUSH0 DUP1 PUSH1 0x40 DUP4 DUP6 SUB SLT ISZERO PUSH2 0x2707 JUMPI PUSH2 0x2706 PUSH2 0x2250 JUMP JUMPDEST JUMPDEST PUSH0 PUSH2 0x2714 DUP6 DUP3 DUP7 ADD PUSH2 0x23CA JUMP JUMPDEST SWAP3 POP POP PUSH1 0x20 PUSH2 0x2725 DUP6 DUP3 DUP7 ADD PUSH2 0x23CA JUMP JUMPDEST SWAP2 POP POP SWAP3 POP SWAP3 SWAP1 POP JUMP JUMPDEST PUSH2 0x2738 DUP2 PUSH2 0x23A3 JUMP JUMPDEST DUP3 MSTORE POP POP JUMP JUMPDEST PUSH1 0x80 DUP3 ADD PUSH0 DUP3 ADD MLOAD PUSH2 0x2752 PUSH0 DUP6 ADD DUP3 PUSH2 0x272F JUMP JUMPDEST POP PUSH1 0x20 DUP3 ADD MLOAD PUSH2 0x2765 PUSH1 0x20 DUP6 ADD DUP3 PUSH2 0x272F JUMP JUMPDEST POP PUSH1 0x40 DUP3 ADD MLOAD PUSH2 0x2778 PUSH1 0x40 DUP6 ADD DUP3 PUSH2 0x259E JUMP JUMPDEST POP PUSH1 0x60 DUP3 ADD MLOAD PUSH2 0x278B PUSH1 0x60 DUP6 ADD DUP3 PUSH2 0x259E JUMP JUMPDEST POP POP POP POP JUMP JUMPDEST PUSH0 PUSH1 0x80 DUP3 ADD SWAP1 POP PUSH2 0x27A4 PUSH0 DUP4 ADD DUP5 PUSH2 0x273E JUMP JUMPDEST SWAP3 SWAP2 POP POP JUMP JUMPDEST PUSH32 0x4E487B7100000000000000000000000000000000000000000000000000000000 PUSH0 MSTORE PUSH1 0x11 PUSH1 0x4 MSTORE PUSH1 0x24 PUSH0 REVERT JUMPDEST PUSH0 PUSH2 0x27E1 DUP3 PUSH2 0x2254 JUMP JUMPDEST SWAP2 POP PUSH2 0x27EC DUP4 PUSH2 0x2254 JUMP JUMPDEST SWAP3 POP DUP3 DUP3 ADD SWAP1 POP DUP1 DUP3 GT ISZERO PUSH2 0x2804 JUMPI PUSH2 0x2803 PUSH2 0x27AA JUMP JUMPDEST JUMPDEST SWAP3 SWAP2 POP POP JUMP JUMPDEST PUSH0 PUSH2 0x2814 DUP3 PUSH2 0x2254 JUMP JUMPDEST SWAP2 POP PUSH2 0x281F DUP4 PUSH2 0x2254 JUMP JUMPDEST SWAP3 POP DUP3 DUP3 SUB SWAP1 POP DUP2 DUP2 GT ISZERO PUSH2 0x2837 JUMPI PUSH2 0x2836 PUSH2 0x27AA JUMP JUMPDEST JUMPDEST SWAP3 SWAP2 POP POP JUMP JUMPDEST PUSH32 0x4E487B7100000000000000000000000000000000000000000000000000000000 PUSH0 MSTORE PUSH1 0x22 PUSH1 0x4 MSTORE PUSH1 0x24 PUSH0 REVERT JUMPDEST PUSH0 PUSH1 0x2 DUP3 DIV SWAP1 POP PUSH1 0x1 DUP3 AND DUP1 PUSH2 0x2881 JUMPI PUSH1 0x7F DUP3 AND SWAP2 POP JUMPDEST PUSH1 0x20 DUP3 LT DUP2 SUB PUSH2 0x2894 JUMPI PUSH2 0x2893 PUSH2 0x283D JUMP JUMPDEST JUMPDEST POP SWAP2 SWAP1 POP JUMP JUMPDEST PUSH0 PUSH1 0x40 DUP3 ADD SWAP1 POP PUSH2 0x28AD PUSH0 DUP4 ADD DUP6 PUSH2 0x22B2 JUMP JUMPDEST PUSH2 0x28BA PUSH1 0x20 DUP4 ADD DUP5 PUSH2 0x22B2 JUMP JUMPDEST SWAP4 SWAP3 POP POP POP JUMP JUMPDEST PUSH32 0x4E487B7100000000000000000000000000000000000000000000000000000000 PUSH0 MSTORE PUSH1 0x41 PUSH1 0x4 MSTORE PUSH1 0x24 PUSH0 REVERT JUMPDEST PUSH32 0x4E487B7100000000000000000000000000000000000000000000000000000000 PUSH0 MSTORE PUSH1 0x32 PUSH1 0x4 MSTORE PUSH1 0x24 PUSH0 REVERT JUMPDEST PUSH0 PUSH2 0x2925 DUP3 PUSH2 0x2254 JUMP JUMPDEST SWAP2 POP PUSH32 0xFFFFFFFFFFFFFFFFFFFFFFFFFFFFFFFFFFFFFFFFFFFFFFFFFFFFFFFFFFFFFFFF DUP3 SUB PUSH2 0x2957 JUMPI PUSH2 0x2956 PUSH2 0x27AA JUMP JUMPDEST JUMPDEST PUSH1 0x1 DUP3 ADD SWAP1 POP SWAP2 SWAP1 POP JUMP JUMPDEST PUSH0 PUSH2 0x296C DUP3 PUSH2 0x2254 JUMP JUMPDEST SWAP2 POP PUSH2 0x2977 DUP4 PUSH2 0x2254 JUMP JUMPDEST SWAP3 POP DUP3 DUP3 MUL PUSH2 0x2985 DUP2 PUSH2 0x2254 JUMP JUMPDEST SWAP2 POP DUP3 DUP3 DIV DUP5 EQ DUP4 ISZERO OR PUSH2 0x299C JUMPI PUSH2 0x299B PUSH2 0x27AA JUMP JUMPDEST JUMPDEST POP SWAP3 SWAP2 POP POP JUMP JUMPDEST PUSH32 0x45524332303A2064656372656173656420616C6C6F77616E63652062656C6F77 PUSH0 DUP3 ADD MSTORE PUSH32 0x207A65726F000000000000000000000000000000000000000000000000000000 PUSH1 0x20 DUP3 ADD MSTORE POP JUMP JUMPDEST PUSH0 PUSH2 0x29FD PUSH1 0x25 DUP4 PUSH2 0x22E4 JUMP JUMPDEST SWAP2 POP PUSH2 0x2A08 DUP3 PUSH2 0x29A3 JUMP JUMPDEST PUSH1 0x40 DUP3 ADD SWAP1 POP SWAP2 SWAP1 POP JUMP JUMPDEST PUSH0 PUSH1 0x20 DUP3 ADD SWAP1 POP DUP2 DUP2 SUB PUSH0 DUP4 ADD MSTORE PUSH2 0x2A2A DUP2 PUSH2 0x29F1 JUMP JUMPDEST SWAP1 POP SWAP2 SWAP1 POP JUMP JUMPDEST PUSH0 PUSH1 0x60 DUP3 ADD SWAP1 POP PUSH2 0x2A44 PUSH0 DUP4 ADD DUP7 PUSH2 0x244F JUMP JUMPDEST PUSH2 0x2A51 PUSH1 0x20 DUP4 ADD DUP6 PUSH2 0x244F JUMP JUMPDEST PUSH2 0x2A5E PUSH1 0x40 DUP4 ADD DUP5 PUSH2 0x22B2 JUMP JUMPDEST SWAP5 SWAP4 POP POP POP POP JUMP JUMPDEST PUSH0 DUP2 MLOAD SWAP1 POP PUSH2 0x2A74 DUP2 PUSH2 0x24C7 JUMP JUMPDEST SWAP3 SWAP2 POP POP JUMP JUMPDEST PUSH0 PUSH1 0x20 DUP3 DUP5 SUB SLT ISZERO PUSH2 0x2A8F JUMPI PUSH2 0x2A8E PUSH2 0x2250 JUMP JUMPDEST JUMPDEST PUSH0 PUSH2 0x2A9C DUP5 DUP3 DUP6 ADD PUSH2 0x2A66 JUMP JUMPDEST SWAP2 POP POP SWAP3 SWAP2 POP POP JUMP JUMPDEST PUSH32 0x4F776E61626C653A206E6577206F776E657220697320746865207A65726F2061 PUSH0 DUP3 ADD MSTORE PUSH32 0x6464726573730000000000000000000000000000000000000000000000000000 PUSH1 0x20 DUP3 ADD MSTORE POP JUMP JUMPDEST PUSH0 PUSH2 0x2AFF PUSH1 0x26 DUP4 PUSH2 0x22E4 JUMP JUMPDEST SWAP2 POP PUSH2 0x2B0A DUP3 PUSH2 0x2AA5 JUMP JUMPDEST PUSH1 0x40 DUP3 ADD SWAP1 POP SWAP2 SWAP1 POP JUMP JUMPDEST PUSH0 PUSH1 0x20 DUP3 ADD SWAP1 POP DUP2 DUP2 SUB PUSH0 DUP4 ADD MSTORE PUSH2 0x2B2C DUP2 PUSH2 0x2AF3 JUMP JUMPDEST SWAP1 POP SWAP2 SWAP1 POP JUMP JUMPDEST PUSH0 DUP2 MLOAD SWAP1 POP PUSH2 0x2B41 DUP2 PUSH2 0x225D JUMP JUMPDEST SWAP3 SWAP2 POP POP JUMP JUMPDEST PUSH0 PUSH1 0x20 DUP3 DUP5 SUB SLT ISZERO PUSH2 0x2B5C JUMPI PUSH2 0x2B5B PUSH2 0x2250 JUMP JUMPDEST JUMPDEST PUSH0 PUSH2 0x2B69 DUP5 DUP3 DUP6 ADD PUSH2 0x2B33 JUMP JUMPDEST SWAP2 POP POP SWAP3 SWAP2 POP POP JUMP JUMPDEST PUSH32 0x4E487B7100000000000000000000000000000000000000000000000000000000 PUSH0 MSTORE PUSH1 0x12 PUSH1 0x4 MSTORE PUSH1 0x24 PUSH0 REVERT JUMPDEST PUSH0 PUSH2 0x2BA9 DUP3 PUSH2 0x2254 JUMP JUMPDEST SWAP2 POP PUSH2 0x2BB4 DUP4 PUSH2 0x2254 JUMP JUMPDEST SWAP3 POP DUP3 PUSH2 0x2BC4 JUMPI PUSH2 0x2BC3 PUSH2 0x2B72 JUMP JUMPDEST JUMPDEST DUP3 DUP3 DIV SWAP1 POP SWAP3 SWAP2 POP POP JUMP JUMPDEST PUSH32 0x45524332303A20617070726F76652066726F6D20746865207A65726F20616464 PUSH0 DUP3 ADD MSTORE PUSH32 0x7265737300000000000000000000000000000000000000000000000000000000 PUSH1 0x20 DUP3 ADD MSTORE POP JUMP JUMPDEST PUSH0 PUSH2 0x2C29 PUSH1 0x24 DUP4 PUSH2 0x22E4 JUMP JUMPDEST SWAP2 POP PUSH2 0x2C34 DUP3 PUSH2 0x2BCF JUMP JUMPDEST PUSH1 0x40 DUP3 ADD SWAP1 POP SWAP2 SWAP1 POP JUMP JUMPDEST PUSH0 PUSH1 0x20 DUP3 ADD SWAP1 POP DUP2 DUP2 SUB PUSH0 DUP4 ADD MSTORE PUSH2 0x2C56 DUP2 PUSH2 0x2C1D JUMP JUMPDEST SWAP1 POP SWAP2 SWAP1 POP JUMP JUMPDEST PUSH32 0x45524332303A20617070726F766520746F20746865207A65726F206164647265 PUSH0 DUP3 ADD MSTORE PUSH32 0x7373000000000000000000000000000000000000000000000000000000000000 PUSH1 0x20 DUP3 ADD MSTORE POP JUMP JUMPDEST PUSH0 PUSH2 0x2CB7 PUSH1 0x22 DUP4 PUSH2 0x22E4 JUMP JUMPDEST SWAP2 POP PUSH2 0x2CC2 DUP3 PUSH2 0x2C5D JUMP JUMPDEST PUSH1 0x40 DUP3 ADD SWAP1 POP SWAP2 SWAP1 POP JUMP JUMPDEST PUSH0 PUSH1 0x20 DUP3 ADD SWAP1 POP DUP2 DUP2 SUB PUSH0 DUP4 ADD MSTORE PUSH2 0x2CE4 DUP2 PUSH2 0x2CAB JUMP JUMPDEST SWAP1 POP SWAP2 SWAP1 POP JUMP JUMPDEST PUSH32 0x45524332303A20696E73756666696369656E7420616C6C6F77616E6365000000 PUSH0 DUP3 ADD MSTORE POP JUMP JUMPDEST PUSH0 PUSH2 0x2D1F PUSH1 0x1D DUP4 PUSH2 0x22E4 JUMP JUMPDEST SWAP2 POP PUSH2 0x2D2A DUP3 PUSH2 0x2CEB JUMP JUMPDEST PUSH1 0x20 DUP3 ADD SWAP1 POP SWAP2 SWAP1 POP JUMP JUMPDEST PUSH0 PUSH1 0x20 DUP3 ADD SWAP1 POP DUP2 DUP2 SUB PUSH0 DUP4 ADD MSTORE PUSH2 0x2D4C DUP2 PUSH2 0x2D13 JUMP JUMPDEST SWAP1 POP SWAP2 SWAP1 POP JUMP JUMPDEST PUSH32 0x45524332303A207472616E736665722066726F6D20746865207A65726F206164 PUSH0 DUP3 ADD MSTORE PUSH32 0x6472657373000000000000000000000000000000000000000000000000000000 PUSH1 0x20 DUP3 ADD MSTORE POP JUMP JUMPDEST PUSH0 PUSH2 0x2DAD PUSH1 0x25 DUP4 PUSH2 0x22E4 JUMP JUMPDEST SWAP2 POP PUSH2 0x2DB8 DUP3 PUSH2 0x2D53 JUMP JUMPDEST PUSH1 0x40 DUP3 ADD SWAP1 POP SWAP2 SWAP1 POP JUMP JUMPDEST PUSH0 PUSH1 0x20 DUP3 ADD SWAP1 POP DUP2 DUP2 SUB PUSH0 DUP4 ADD MSTORE PUSH2 0x2DDA DUP2 PUSH2 0x2DA1 JUMP JUMPDEST SWAP1 POP SWAP2 SWAP1 POP JUMP JUMPDEST PUSH32 0x45524332303A207472616E7366657220746F20746865207A65726F2061646472 PUSH0 DUP3 ADD MSTORE PUSH32 0x6573730000000000000000000000000000000000000000000000000000000000 PUSH1 0x20 DUP3 ADD MSTORE POP JUMP JUMPDEST PUSH0 PUSH2 0x2E3B PUSH1 0x23 DUP4 PUSH2 0x22E4 JUMP JUMPDEST SWAP2 POP PUSH2 0x2E46 DUP3 PUSH2 0x2DE1 JUMP JUMPDEST PUSH1 0x40 DUP3 ADD SWAP1 POP SWAP2 SWAP1 POP JUMP JUMPDEST PUSH0 PUSH1 0x20 DUP3 ADD SWAP1 POP DUP2 DUP2 SUB PUSH0 DUP4 ADD MSTORE PUSH2 0x2E68 DUP2 PUSH2 0x2E2F JUMP JUMPDEST SWAP1 POP SWAP2 SWAP1 POP JUMP JUMPDEST PUSH32 0x45524332303A207472616E7366657220616D6F756E7420657863656564732062 PUSH0 DUP3 ADD MSTORE PUSH32 0x616C616E63650000000000000000000000000000000000000000000000000000 PUSH1 0x20 DUP3 ADD MSTORE POP JUMP JUMPDEST PUSH0 PUSH2 0x2EC9 PUSH1 0x26 DUP4 PUSH2 0x22E4 JUMP JUMPDEST SWAP2 POP PUSH2 0x2ED4 DUP3 PUSH2 0x2E6F JUMP JUMPDEST PUSH1 0x40 DUP3 ADD SWAP1 POP SWAP2 SWAP1 POP JUMP JUMPDEST PUSH0 PUSH1 0x20 DUP3 ADD SWAP1 POP DUP2 DUP2 SUB PUSH0 DUP4 ADD MSTORE PUSH2 0x2EF6 DUP2 PUSH2 0x2EBD JUMP JUMPDEST SWAP1 POP SWAP2 SWAP1 POP JUMP JUMPDEST PUSH32 0x496E73756666696369656E74206F757470757420616D6F756E74000000000000 PUSH0 DUP3 ADD MSTORE POP JUMP JUMPDEST PUSH0 PUSH2 0x2F31 PUSH1 0x1A DUP4 PUSH2 0x22E4 JUMP JUMPDEST SWAP2 POP PUSH2 0x2F3C DUP3 PUSH2 0x2EFD JUMP JUMPDEST PUSH1 0x20 DUP3 ADD SWAP1 POP SWAP2 SWAP1 POP JUMP JUMPDEST PUSH0 PUSH1 0x20 DUP3 ADD SWAP1 POP DUP2 DUP2 SUB PUSH0 DUP4 ADD MSTORE PUSH2 0x2F5E DUP2 PUSH2 0x2F25 JUMP JUMPDEST SWAP1 POP SWAP2 SWAP1 POP JUMP JUMPDEST PUSH0 DUP2 SWAP1 POP SWAP2 SWAP1 POP JUMP JUMPDEST PUSH0 DUP2 SWAP1 POP SWAP2 SWAP1 POP JUMP JUMPDEST PUSH0 PUSH2 0x2F91 PUSH2 0x2F8C PUSH2 0x2F87 DUP5 PUSH2 0x2F65 JUMP JUMPDEST PUSH2 0x2F6E JUMP JUMPDEST PUSH2 0x2254 JUMP JUMPDEST SWAP1 POP SWAP2 SWAP1 POP JUMP JUMPDEST PUSH2 0x2FA1 DUP2 PUSH2 0x2F77 JUMP JUMPDEST DUP3 MSTORE POP POP JUMP JUMPDEST PUSH0 PUSH1 0x80 DUP3 ADD SWAP1 POP PUSH2 0x2FBA PUSH0 DUP4 ADD DUP8 PUSH2 0x2F98 JUMP JUMPDEST PUSH2 0x2FC7 PUSH1 0x20 DUP4 ADD DUP7 PUSH2 0x22B2 JUMP JUMPDEST PUSH2 0x2FD4 PUSH1 0x40 DUP4 ADD DUP6 PUSH2 0x22B2 JUMP JUMPDEST PUSH2 0x2FE1 PUSH1 0x60 DUP4 ADD DUP5 PUSH2 0x2F98 JUMP JUMPDEST SWAP6 SWAP5 POP POP POP POP POP JUMP JUMPDEST PUSH0 PUSH1 0x80 DUP3 ADD SWAP1 POP PUSH2 0x2FFD PUSH0 DUP4 ADD DUP8 PUSH2 0x22B2 JUMP JUMPDEST PUSH2 0x300A PUSH1 0x20 DUP4 ADD DUP7 PUSH2 0x2F98 JUMP JUMPDEST PUSH2 0x3017 PUSH1 0x40 DUP4 ADD DUP6 PUSH2 0x2F98 JUMP JUMPDEST PUSH2 0x3024 PUSH1 0x60 DUP4 ADD DUP5 PUSH2 0x22B2 JUMP JUMPDEST SWAP6 SWAP5 POP POP POP POP POP JUMP JUMPDEST PUSH32 0x4F776E61626C653A2063616C6C6572206973206E6F7420746865206F776E6572 PUSH0 DUP3 ADD MSTORE POP JUMP JUMPDEST PUSH0 PUSH2 0x3061 PUSH1 0x20 DUP4 PUSH2 0x22E4 JUMP JUMPDEST SWAP2 POP PUSH2 0x306C DUP3 PUSH2 0x302D JUMP JUMPDEST PUSH1 0x20 DUP3 ADD SWAP1 POP SWAP2 SWAP1 POP JUMP JUMPDEST PUSH0 PUSH1 0x20 DUP3 ADD SWAP1 POP DUP2 DUP2 SUB PUSH0 DUP4 ADD MSTORE PUSH2 0x308E DUP2 PUSH2 0x3055 JUMP JUMPDEST SWAP1 POP SWAP2 SWAP1 POP JUMP JUMPDEST PUSH32 0x45524332303A206D696E7420746F20746865207A65726F206164647265737300 PUSH0 DUP3 ADD MSTORE POP JUMP JUMPDEST PUSH0 PUSH2 0x30C9 PUSH1 0x1F DUP4 PUSH2 0x22E4 JUMP JUMPDEST SWAP2 POP PUSH2 0x30D4 DUP3 PUSH2 0x3095 JUMP JUMPDEST PUSH1 0x20 DUP3 ADD SWAP1 POP SWAP2 SWAP1 POP JUMP JUMPDEST PUSH0 PUSH1 0x20 DUP3 ADD SWAP1 POP DUP2 DUP2 SUB PUSH0 DUP4 ADD MSTORE PUSH2 0x30F6 DUP2 PUSH2 0x30BD JUMP JUMPDEST SWAP1 POP SWAP2 SWAP1 POP JUMP INVALID LOG2 PUSH5 0x6970667358 0x22 SLT KECCAK256 0xAC DUP4 DUP12 0xC0 SWAP11 DUP15 0x4C 0xEE MOD 0xC8 RETURNDATACOPY PUSH16 0x6347E75C1811B941A65DC44557033AFA ADDRESS 0xB6 JUMPI PUSH11 0x64736F6C63430008150033 LOG2 PUSH5 0x6970667358 0x22 SLT KECCAK256 PUSH19 0x8DCBA4CC4840E3CA503CBED26E5FACF6AD3100 0xAC PUSH14 0x734610934FF09AA1312E64736F6C PUSH4 0x43000815 STOP CALLER "
		},
		"gasEstimates": {
			"creation": {
				"codeDepositCost": "4139400",
				"executionCost": "infinite",
				"totalCost": "infinite"
			},
			"external": {
				"allLiquidityPools()": "infinite",
				"createLiquidityPool(address,address,uint256,uint256,uint256,uint256,uint256)": "infinite",
				"liquidityPools(uint256)": "infinite",
				"owner()": "2559",
				"renounceOwnership()": "30390",
				"transferOwnership(address)": "30819"
			}
		},
		"methodIdentifiers": {
			"allLiquidityPools()": "1b6cf219",
			"createLiquidityPool(address,address,uint256,uint256,uint256,uint256,uint256)": "eeef6e62",
			"liquidityPools(uint256)": "79d747be",
			"owner()": "8da5cb5b",
			"renounceOwnership()": "715018a6",
			"transferOwnership(address)": "f2fde38b"
		}
	},
	"abi": [
		{
			"anonymous": false,
			"inputs": [
				{
					"indexed": true,
					"internalType": "address",
					"name": "creator",
					"type": "address"
				},
				{
					"indexed": true,
					"internalType": "address",
					"name": "liquidityPool",
					"type": "address"
				}
			],
			"name": "CreateLiquidityPool",
			"type": "event"
		},
		{
			"anonymous": false,
			"inputs": [
				{
					"indexed": true,
					"internalType": "address",
					"name": "previousOwner",
					"type": "address"
				},
				{
					"indexed": true,
					"internalType": "address",
					"name": "newOwner",
					"type": "address"
				}
			],
			"name": "OwnershipTransferred",
			"type": "event"
		},
		{
			"inputs": [],
			"name": "allLiquidityPools",
			"outputs": [
				{
					"internalType": "address[]",
					"name": "",
					"type": "address[]"
				}
			],
			"stateMutability": "view",
			"type": "function"
		},
		{
			"inputs": [
				{
					"internalType": "address",
					"name": "_token0",
					"type": "address"
				},
				{
					"internalType": "address",
					"name": "_token1",
					"type": "address"
				},
				{
					"internalType": "uint256",
					"name": "_token0DepositAmount",
					"type": "uint256"
				},
				{
					"internalType": "uint256",
					"name": "_token1DepositAmount",
					"type": "uint256"
				},
				{
					"internalType": "uint256",
					"name": "_token0BasePrice",
					"type": "uint256"
				},
				{
					"internalType": "uint256",
					"name": "_token0MaxPrice",
					"type": "uint256"
				},
				{
					"internalType": "uint256",
					"name": "_protocolFee",
					"type": "uint256"
				}
			],
			"name": "createLiquidityPool",
			"outputs": [],
			"stateMutability": "nonpayable",
			"type": "function"
		},
		{
			"inputs": [
				{
					"internalType": "uint256",
					"name": "",
					"type": "uint256"
				}
			],
			"name": "liquidityPools",
			"outputs": [
				{
					"internalType": "contract LiquidityPool",
					"name": "",
					"type": "address"
				}
			],
			"stateMutability": "view",
			"type": "function"
		},
		{
			"inputs": [],
			"name": "owner",
			"outputs": [
				{
					"internalType": "address",
					"name": "",
					"type": "address"
				}
			],
			"stateMutability": "view",
			"type": "function"
		},
		{
			"inputs": [],
			"name": "renounceOwnership",
			"outputs": [],
			"stateMutability": "nonpayable",
			"type": "function"
		},
		{
			"inputs": [
				{
					"internalType": "address",
					"name": "newOwner",
					"type": "address"
				}
			],
			"name": "transferOwnership",
			"outputs": [],
			"stateMutability": "nonpayable",
			"type": "function"
		}
	]
}