{
	"data": {
		"bytecode": {
			"linkReferences": {},
			"object": "608060405234801561001057600080fd5b5061002d61002261003260201b60201c565b61003a60201b60201c565b6100fe565b600033905090565b60008060009054906101000a900473ffffffffffffffffffffffffffffffffffffffff169050816000806101000a81548173ffffffffffffffffffffffffffffffffffffffff021916908373ffffffffffffffffffffffffffffffffffffffff1602179055508173ffffffffffffffffffffffffffffffffffffffff168173ffffffffffffffffffffffffffffffffffffffff167f8be0079c531659141344cd1fd0a4f28419497f9722a3daafe3b4186f6b6457e060405160405180910390a35050565b6130d28061010d6000396000f3fe60806040523480156200001157600080fd5b50600436106200006a5760003560e01c80631b6cf219146200006f578063715018a6146200009157806379d747be146200009d5780638da5cb5b14620000d3578063eeef6e6214620000f5578063f2fde38b1462000115575b600080fd5b6200007962000135565b60405162000088919062000853565b60405180910390f35b6200009b6200024f565b005b620000bb6004803603810190620000b59190620008b7565b62000267565b604051620000ca919062000954565b60405180910390f35b620000dd620002a7565b604051620000ec919062000982565b60405180910390f35b6200011360048036038101906200010d9190620009d0565b620002d0565b005b6200013360048036038101906200012d919062000a83565b62000568565b005b60606000600180549050905060008167ffffffffffffffff81111562000160576200015f62000ab5565b5b6040519080825280602002602001820160405280156200018f5781602001602082028036833780820191505090505b50905060005b82811015620002465760018181548110620001b557620001b462000ae4565b5b9060005260206000200160009054906101000a900473ffffffffffffffffffffffffffffffffffffffff16828281518110620001f657620001f562000ae4565b5b602002602001019073ffffffffffffffffffffffffffffffffffffffff16908173ffffffffffffffffffffffffffffffffffffffff168152505080806200023d9062000b42565b91505062000195565b50809250505090565b62000259620005f2565b62000265600062000677565b565b600181815481106200027857600080fd5b906000526020600020016000915054906101000a900473ffffffffffffffffffffffffffffffffffffffff1681565b60008060009054906101000a900473ffffffffffffffffffffffffffffffffffffffff16905090565b600030620002dd620002a7565b89898989898989604051620002f29062000743565b620003069998979695949392919062000ba0565b604051809103906000f08015801562000323573d6000803e3d6000fd5b5090508073ffffffffffffffffffffffffffffffffffffffff1663f2fde38b336040518263ffffffff1660e01b815260040162000361919062000982565b600060405180830381600087803b1580156200037c57600080fd5b505af115801562000391573d6000803e3d6000fd5b505050508773ffffffffffffffffffffffffffffffffffffffff166323b872dd3383896040518463ffffffff1660e01b8152600401620003d49392919062000c3f565b6020604051808303816000875af1158015620003f4573d6000803e3d6000fd5b505050506040513d601f19601f820116820180604052508101906200041a919062000cb9565b508673ffffffffffffffffffffffffffffffffffffffff166323b872dd3383886040518463ffffffff1660e01b81526004016200045a9392919062000c3f565b6020604051808303816000875af11580156200047a573d6000803e3d6000fd5b505050506040513d601f19601f82011682018060405250810190620004a0919062000cb9565b506001819080600181540180825580915050600190039060005260206000200160009091909190916101000a81548173ffffffffffffffffffffffffffffffffffffffff021916908373ffffffffffffffffffffffffffffffffffffffff1602179055508073ffffffffffffffffffffffffffffffffffffffff163373ffffffffffffffffffffffffffffffffffffffff167f3366ddec6d22baedae5089cdef368ab66cbf7cc63aec389ca0d4b54e447baa1b60405160405180910390a35050505050505050565b62000572620005f2565b600073ffffffffffffffffffffffffffffffffffffffff168173ffffffffffffffffffffffffffffffffffffffff1603620005e4576040517f08c379a0000000000000000000000000000000000000000000000000000000008152600401620005db9062000d72565b60405180910390fd5b620005ef8162000677565b50565b620005fc6200073b565b73ffffffffffffffffffffffffffffffffffffffff166200061c620002a7565b73ffffffffffffffffffffffffffffffffffffffff161462000675576040517f08c379a00000000000000000000000000000000000000000000000000000000081526004016200066c9062000de4565b60405180910390fd5b565b60008060009054906101000a900473ffffffffffffffffffffffffffffffffffffffff169050816000806101000a81548173ffffffffffffffffffffffffffffffffffffffff021916908373ffffffffffffffffffffffffffffffffffffffff1602179055508173ffffffffffffffffffffffffffffffffffffffff168173ffffffffffffffffffffffffffffffffffffffff167f8be0079c531659141344cd1fd0a4f28419497f9722a3daafe3b4186f6b6457e060405160405180910390a35050565b600033905090565b6122968062000e0783390190565b600081519050919050565b600082825260208201905092915050565b6000819050602082019050919050565b600073ffffffffffffffffffffffffffffffffffffffff82169050919050565b6000620007aa826200077d565b9050919050565b620007bc816200079d565b82525050565b6000620007d08383620007b1565b60208301905092915050565b6000602082019050919050565b6000620007f68262000751565b6200080281856200075c565b93506200080f836200076d565b8060005b83811015620008465781516200082a8882620007c2565b97506200083783620007dc565b92505060018101905062000813565b5085935050505092915050565b600060208201905081810360008301526200086f8184620007e9565b905092915050565b600080fd5b6000819050919050565b62000891816200087c565b81146200089d57600080fd5b50565b600081359050620008b18162000886565b92915050565b600060208284031215620008d057620008cf62000877565b5b6000620008e084828501620008a0565b91505092915050565b6000819050919050565b6000620009146200090e62000908846200077d565b620008e9565b6200077d565b9050919050565b60006200092882620008f3565b9050919050565b60006200093c826200091b565b9050919050565b6200094e816200092f565b82525050565b60006020820190506200096b600083018462000943565b92915050565b6200097c816200079d565b82525050565b600060208201905062000999600083018462000971565b92915050565b620009aa816200079d565b8114620009b657600080fd5b50565b600081359050620009ca816200099f565b92915050565b600080600080600080600060e0888a031215620009f257620009f162000877565b5b600062000a028a828b01620009b9565b975050602062000a158a828b01620009b9565b965050604062000a288a828b01620008a0565b955050606062000a3b8a828b01620008a0565b945050608062000a4e8a828b01620008a0565b93505060a062000a618a828b01620008a0565b92505060c062000a748a828b01620008a0565b91505092959891949750929550565b60006020828403121562000a9c5762000a9b62000877565b5b600062000aac84828501620009b9565b91505092915050565b7f4e487b7100000000000000000000000000000000000000000000000000000000600052604160045260246000fd5b7f4e487b7100000000000000000000000000000000000000000000000000000000600052603260045260246000fd5b7f4e487b7100000000000000000000000000000000000000000000000000000000600052601160045260246000fd5b600062000b4f826200087c565b91507fffffffffffffffffffffffffffffffffffffffffffffffffffffffffffffffff820362000b845762000b8362000b13565b5b600182019050919050565b62000b9a816200087c565b82525050565b60006101208201905062000bb8600083018c62000971565b62000bc7602083018b62000971565b62000bd6604083018a62000971565b62000be5606083018962000971565b62000bf4608083018862000b8f565b62000c0360a083018762000b8f565b62000c1260c083018662000b8f565b62000c2160e083018562000b8f565b62000c3161010083018462000b8f565b9a9950505050505050505050565b600060608201905062000c56600083018662000971565b62000c65602083018562000971565b62000c74604083018462000b8f565b949350505050565b60008115159050919050565b62000c938162000c7c565b811462000c9f57600080fd5b50565b60008151905062000cb38162000c88565b92915050565b60006020828403121562000cd25762000cd162000877565b5b600062000ce28482850162000ca2565b91505092915050565b600082825260208201905092915050565b7f4f776e61626c653a206e6577206f776e657220697320746865207a65726f206160008201527f6464726573730000000000000000000000000000000000000000000000000000602082015250565b600062000d5a60268362000ceb565b915062000d678262000cfc565b604082019050919050565b6000602082019050818103600083015262000d8d8162000d4b565b9050919050565b7f4f776e61626c653a2063616c6c6572206973206e6f7420746865206f776e6572600082015250565b600062000dcc60208362000ceb565b915062000dd98262000d94565b602082019050919050565b6000602082019050818103600083015262000dff8162000dbd565b905091905056fe60806040523480156200001157600080fd5b5060405162002296380380620022968339818101604052810190620000379190620007db565b620000576200004b620002b060201b60201c565b620002b860201b60201c565b88600160006101000a81548173ffffffffffffffffffffffffffffffffffffffff021916908373ffffffffffffffffffffffffffffffffffffffff16021790555087600260006101000a81548173ffffffffffffffffffffffffffffffffffffffff021916908373ffffffffffffffffffffffffffffffffffffffff1602179055508573ffffffffffffffffffffffffffffffffffffffff168773ffffffffffffffffffffffffffffffffffffffff16036200014a576040517f08c379a000000000000000000000000000000000000000000000000000000000815260040162000141906200091b565b60405180910390fd5b86600360006101000a81548173ffffffffffffffffffffffffffffffffffffffff021916908373ffffffffffffffffffffffffffffffffffffffff16021790555085600460006101000a81548173ffffffffffffffffffffffffffffffffffffffff021916908373ffffffffffffffffffffffffffffffffffffffff16021790555084600581905550836006819055508282101562000220576040517f08c379a00000000000000000000000000000000000000000000000000000000081526004016200021790620009b3565b60405180910390fd5b82600a8190555081600b8190555080600c81905550620002488383876200037c60201b60201c565b60078190555062000265878460075488886200040f60201b60201c565b6008819055506008546006546200027d919062000a04565b6007546005546200028f919062000a04565b6200029b919062000a3f565b60098190555050505050505050505062000d41565b600033905090565b60008060009054906101000a900473ffffffffffffffffffffffffffffffffffffffff169050816000806101000a81548173ffffffffffffffffffffffffffffffffffffffff021916908373ffffffffffffffffffffffffffffffffffffffff1602179055508173ffffffffffffffffffffffffffffffffffffffff168173ffffffffffffffffffffffffffffffffffffffff167f8be0079c531659141344cd1fd0a4f28419497f9722a3daafe3b4186f6b6457e060405160405180910390a35050565b600080620003a864174876e8008662000396919062000a3f565b85620004f760201b62000b251760201c565b90506000620003c2826200050f60201b62000b3b1760201c565b905060008482620003d4919062000a3f565b9050600082620f4240620003e9919062000a8a565b9050620004028282620004f760201b62000b251760201c565b9450505050509392505050565b6000808673ffffffffffffffffffffffffffffffffffffffff1663313ce5676040518163ffffffff1660e01b8152600401602060405180830381865afa1580156200045e573d6000803e3d6000fd5b505050506040513d601f19601f8201168201806040525081019062000484919062000b03565b9050600081600a62000497919062000c89565b905060008482620004a9919062000a3f565b8787620004b7919062000a04565b89620004c4919062000a3f565b620004d0919062000a8a565b9050620004e98183620004f760201b62000b251760201c565b935050505095945050505050565b6000818362000507919062000d09565b905092915050565b60008082036200052357600090506200062d565b6000600162000538846200063260201b60201c565b901c6001901b9050600181848162000555576200055462000cda565b5b048201901c9050600181848162000571576200057062000cda565b5b048201901c905060018184816200058d576200058c62000cda565b5b048201901c90506001818481620005a957620005a862000cda565b5b048201901c90506001818481620005c557620005c462000cda565b5b048201901c90506001818481620005e157620005e062000cda565b5b048201901c90506001818481620005fd57620005fc62000cda565b5b048201901c905062000629818285816200061c576200061b62000cda565b5b046200071b60201b60201c565b9150505b919050565b600080600090506000608084901c11156200065557608083901c92506080810190505b6000604084901c11156200067157604083901c92506040810190505b6000602084901c11156200068d57602083901c92506020810190505b6000601084901c1115620006a957601083901c92506010810190505b6000600884901c1115620006c557600883901c92506008810190505b6000600484901c1115620006e157600483901c92506004810190505b6000600284901c1115620006fd57600283901c92506002810190505b6000600184901c111562000712576001810190505b80915050919050565b60008183106200072c57816200072e565b825b905092915050565b600080fd5b600073ffffffffffffffffffffffffffffffffffffffff82169050919050565b600062000768826200073b565b9050919050565b6200077a816200075b565b81146200078657600080fd5b50565b6000815190506200079a816200076f565b92915050565b6000819050919050565b620007b581620007a0565b8114620007c157600080fd5b50565b600081519050620007d581620007aa565b92915050565b60008060008060008060008060006101208a8c03121562000801576200080062000736565b5b6000620008118c828d0162000789565b9950506020620008248c828d0162000789565b9850506040620008378c828d0162000789565b97505060606200084a8c828d0162000789565b96505060806200085d8c828d01620007c4565b95505060a0620008708c828d01620007c4565b94505060c0620008838c828d01620007c4565b93505060e0620008968c828d01620007c4565b925050610100620008aa8c828d01620007c4565b9150509295985092959850929598565b600082825260208201905092915050565b7f426f746820746f6b656e732063616e6e6f74206265207468652073616d650000600082015250565b600062000903601e83620008ba565b91506200091082620008cb565b602082019050919050565b600060208201905081810360008301526200093681620008f4565b9050919050565b7f4d6178696d756d207072696365206d757374206265206772656174657220746860008201527f616e206f7220657175616c20746f207468652062617365207072696365000000602082015250565b60006200099b603d83620008ba565b9150620009a8826200093d565b604082019050919050565b60006020820190508181036000830152620009ce816200098c565b9050919050565b7f4e487b7100000000000000000000000000000000000000000000000000000000600052601160045260246000fd5b600062000a1182620007a0565b915062000a1e83620007a0565b925082820190508082111562000a395762000a38620009d5565b5b92915050565b600062000a4c82620007a0565b915062000a5983620007a0565b925082820262000a6981620007a0565b9150828204841483151762000a835762000a82620009d5565b5b5092915050565b600062000a9782620007a0565b915062000aa483620007a0565b925082820390508181111562000abf5762000abe620009d5565b5b92915050565b600060ff82169050919050565b62000add8162000ac5565b811462000ae957600080fd5b50565b60008151905062000afd8162000ad2565b92915050565b60006020828403121562000b1c5762000b1b62000736565b5b600062000b2c8482850162000aec565b91505092915050565b60008160011c9050919050565b6000808291508390505b600185111562000b945780860481111562000b6c5762000b6b620009d5565b5b600185161562000b7c5780820291505b808102905062000b8c8562000b35565b945062000b4c565b94509492505050565b60008262000baf576001905062000c82565b8162000bbf576000905062000c82565b816001811462000bd8576002811462000be35762000c19565b600191505062000c82565b60ff84111562000bf85762000bf7620009d5565b5b8360020a91508482111562000c125762000c11620009d5565b5b5062000c82565b5060208310610133831016604e8410600b841016171562000c535782820a90508381111562000c4d5762000c4c620009d5565b5b62000c82565b62000c62848484600162000b42565b9250905081840481111562000c7c5762000c7b620009d5565b5b81810290505b9392505050565b600062000c9682620007a0565b915062000ca38362000ac5565b925062000cd27fffffffffffffffffffffffffffffffffffffffffffffffffffffffffffffffff848462000b9d565b905092915050565b7f4e487b7100000000000000000000000000000000000000000000000000000000600052601260045260246000fd5b600062000d1682620007a0565b915062000d2383620007a0565b92508262000d365762000d3562000cda565b5b828204905092915050565b6115458062000d516000396000f3fe608060405234801561001057600080fd5b50600436106101165760003560e01c80638da5cb5b116100a2578063c45a015511610071578063c45a0155146102b1578063d21220a7146102cf578063ec1893b4146102ed578063ef3501b91461030b578063f2fde38b1461032957610116565b80638da5cb5b146102275780639f8e55d614610245578063aff56c1414610275578063b0e21e8a1461029357610116565b8063364abc3d116100e9578063364abc3d146101a55780634273601c146101c35780635a656c24146101e1578063715018a6146101ff5780637c07a3801461020957610116565b806304786ab41461011b5780630dfe16811461014b57806313724b70146101695780631cf2128c14610187575b600080fd5b61013560048036038101906101309190610f07565b610345565b6040516101429190610f43565b60405180910390f35b610153610584565b6040516101609190610f9f565b60405180910390f35b6101716105aa565b60405161017e9190610f43565b60405180910390f35b61018f6105b0565b60405161019c9190610f43565b60405180910390f35b6101ad6105b6565b6040516101ba9190610f43565b60405180910390f35b6101cb6105bc565b6040516101d89190610f9f565b60405180910390f35b6101e96105e2565b6040516101f69190610f43565b60405180910390f35b6102076105e8565b005b6102116105fc565b60405161021e9190610f43565b60405180910390f35b61022f610602565b60405161023c9190610f9f565b60405180910390f35b61025f600480360381019061025a9190610f07565b61062b565b60405161026c9190610f43565b60405180910390f35b61027d61086a565b60405161028a9190610f43565b60405180910390f35b61029b610870565b6040516102a89190610f43565b60405180910390f35b6102b9610876565b6040516102c69190610f9f565b60405180910390f35b6102d761089c565b6040516102e49190610f9f565b60405180910390f35b6102f56108c2565b604051610302919061102d565b60405180910390f35b610313610a9c565b6040516103209190610f43565b60405180910390f35b610343600480360381019061033e9190611074565b610aa2565b005b600080600360009054906101000a900473ffffffffffffffffffffffffffffffffffffffff1673ffffffffffffffffffffffffffffffffffffffff166370a08231306040518263ffffffff1660e01b81526004016103a39190610f9f565b602060405180830381865afa1580156103c0573d6000803e3d6000fd5b505050506040513d601f19601f820116820180604052508101906103e491906110b6565b90506000600460009054906101000a900473ffffffffffffffffffffffffffffffffffffffff1673ffffffffffffffffffffffffffffffffffffffff166370a08231306040518263ffffffff1660e01b81526004016104439190610f9f565b602060405180830381865afa158015610460573d6000803e3d6000fd5b505050506040513d601f19601f8201168201806040525081019061048491906110b6565b90506000600460009054906101000a900473ffffffffffffffffffffffffffffffffffffffff1673ffffffffffffffffffffffffffffffffffffffff1663313ce5676040518163ffffffff1660e01b8152600401602060405180830381865afa1580156104f5573d6000803e3d6000fd5b505050506040513d601f19601f82011682018060405250810190610519919061111c565b9050600081600a61052a91906112ab565b8661053591906112f6565b836105409190611338565b905060006007546105606009546008548561055b9190611338565b610b25565b61056a919061136c565b90508085610578919061136c565b95505050505050919050565b600360009054906101000a900473ffffffffffffffffffffffffffffffffffffffff1681565b60065481565b60085481565b600b5481565b600260009054906101000a900473ffffffffffffffffffffffffffffffffffffffff1681565b60095481565b6105f0610c34565b6105fa6000610cb2565b565b60055481565b60008060009054906101000a900473ffffffffffffffffffffffffffffffffffffffff16905090565b600080600360009054906101000a900473ffffffffffffffffffffffffffffffffffffffff1673ffffffffffffffffffffffffffffffffffffffff166370a08231306040518263ffffffff1660e01b81526004016106899190610f9f565b602060405180830381865afa1580156106a6573d6000803e3d6000fd5b505050506040513d601f19601f820116820180604052508101906106ca91906110b6565b90506000600460009054906101000a900473ffffffffffffffffffffffffffffffffffffffff1673ffffffffffffffffffffffffffffffffffffffff166370a08231306040518263ffffffff1660e01b81526004016107299190610f9f565b602060405180830381865afa158015610746573d6000803e3d6000fd5b505050506040513d601f19601f8201168201806040525081019061076a91906110b6565b90506000600360009054906101000a900473ffffffffffffffffffffffffffffffffffffffff1673ffffffffffffffffffffffffffffffffffffffff1663313ce5676040518163ffffffff1660e01b8152600401602060405180830381865afa1580156107db573d6000803e3d6000fd5b505050506040513d601f19601f820116820180604052508101906107ff919061111c565b9050600081600a61081091906112ab565b8661081b91906112f6565b846108269190611338565b90506000600854610846600954600754856108419190611338565b610b25565b610850919061136c565b9050808461085e919061136c565b95505050505050919050565b60075481565b600c5481565b600160009054906101000a900473ffffffffffffffffffffffffffffffffffffffff1681565b600460009054906101000a900473ffffffffffffffffffffffffffffffffffffffff1681565b6108ca610e78565b60006040518060800160405280600360009054906101000a900473ffffffffffffffffffffffffffffffffffffffff1673ffffffffffffffffffffffffffffffffffffffff168152602001600460009054906101000a900473ffffffffffffffffffffffffffffffffffffffff1673ffffffffffffffffffffffffffffffffffffffff168152602001600360009054906101000a900473ffffffffffffffffffffffffffffffffffffffff1673ffffffffffffffffffffffffffffffffffffffff166370a08231306040518263ffffffff1660e01b81526004016109ae9190610f9f565b602060405180830381865afa1580156109cb573d6000803e3d6000fd5b505050506040513d601f19601f820116820180604052508101906109ef91906110b6565b8152602001600460009054906101000a900473ffffffffffffffffffffffffffffffffffffffff1673ffffffffffffffffffffffffffffffffffffffff166370a08231306040518263ffffffff1660e01b8152600401610a4f9190610f9f565b602060405180830381865afa158015610a6c573d6000803e3d6000fd5b505050506040513d601f19601f82011682018060405250810190610a9091906110b6565b81525090508091505090565b600a5481565b610aaa610c34565b600073ffffffffffffffffffffffffffffffffffffffff168173ffffffffffffffffffffffffffffffffffffffff1603610b19576040517f08c379a0000000000000000000000000000000000000000000000000000000008152600401610b1090611423565b60405180910390fd5b610b2281610cb2565b50565b60008183610b339190611472565b905092915050565b6000808203610b4d5760009050610c2f565b60006001610b5a84610d76565b901c6001901b90506001818481610b7457610b73611443565b5b048201901c90506001818481610b8d57610b8c611443565b5b048201901c90506001818481610ba657610ba5611443565b5b048201901c90506001818481610bbf57610bbe611443565b5b048201901c90506001818481610bd857610bd7611443565b5b048201901c90506001818481610bf157610bf0611443565b5b048201901c90506001818481610c0a57610c09611443565b5b048201901c9050610c2b81828581610c2557610c24611443565b5b04610e57565b9150505b919050565b610c3c610e70565b73ffffffffffffffffffffffffffffffffffffffff16610c5a610602565b73ffffffffffffffffffffffffffffffffffffffff1614610cb0576040517f08c379a0000000000000000000000000000000000000000000000000000000008152600401610ca7906114ef565b60405180910390fd5b565b60008060009054906101000a900473ffffffffffffffffffffffffffffffffffffffff169050816000806101000a81548173ffffffffffffffffffffffffffffffffffffffff021916908373ffffffffffffffffffffffffffffffffffffffff1602179055508173ffffffffffffffffffffffffffffffffffffffff168173ffffffffffffffffffffffffffffffffffffffff167f8be0079c531659141344cd1fd0a4f28419497f9722a3daafe3b4186f6b6457e060405160405180910390a35050565b600080600090506000608084901c1115610d9857608083901c92506080810190505b6000604084901c1115610db357604083901c92506040810190505b6000602084901c1115610dce57602083901c92506020810190505b6000601084901c1115610de957601083901c92506010810190505b6000600884901c1115610e0457600883901c92506008810190505b6000600484901c1115610e1f57600483901c92506004810190505b6000600284901c1115610e3a57600283901c92506002810190505b6000600184901c1115610e4e576001810190505b80915050919050565b6000818310610e665781610e68565b825b905092915050565b600033905090565b6040518060800160405280600073ffffffffffffffffffffffffffffffffffffffff168152602001600073ffffffffffffffffffffffffffffffffffffffff16815260200160008152602001600081525090565b600080fd5b6000819050919050565b610ee481610ed1565b8114610eef57600080fd5b50565b600081359050610f0181610edb565b92915050565b600060208284031215610f1d57610f1c610ecc565b5b6000610f2b84828501610ef2565b91505092915050565b610f3d81610ed1565b82525050565b6000602082019050610f586000830184610f34565b92915050565b600073ffffffffffffffffffffffffffffffffffffffff82169050919050565b6000610f8982610f5e565b9050919050565b610f9981610f7e565b82525050565b6000602082019050610fb46000830184610f90565b92915050565b610fc381610f7e565b82525050565b610fd281610ed1565b82525050565b608082016000820151610fee6000850182610fba565b5060208201516110016020850182610fba565b5060408201516110146040850182610fc9565b5060608201516110276060850182610fc9565b50505050565b60006080820190506110426000830184610fd8565b92915050565b61105181610f7e565b811461105c57600080fd5b50565b60008135905061106e81611048565b92915050565b60006020828403121561108a57611089610ecc565b5b60006110988482850161105f565b91505092915050565b6000815190506110b081610edb565b92915050565b6000602082840312156110cc576110cb610ecc565b5b60006110da848285016110a1565b91505092915050565b600060ff82169050919050565b6110f9816110e3565b811461110457600080fd5b50565b600081519050611116816110f0565b92915050565b60006020828403121561113257611131610ecc565b5b600061114084828501611107565b91505092915050565b7f4e487b7100000000000000000000000000000000000000000000000000000000600052601160045260246000fd5b60008160011c9050919050565b6000808291508390505b60018511156111cf578086048111156111ab576111aa611149565b5b60018516156111ba5780820291505b80810290506111c885611178565b945061118f565b94509492505050565b6000826111e857600190506112a4565b816111f657600090506112a4565b816001811461120c576002811461121657611245565b60019150506112a4565b60ff84111561122857611227611149565b5b8360020a91508482111561123f5761123e611149565b5b506112a4565b5060208310610133831016604e8410600b841016171561127a5782820a90508381111561127557611274611149565b5b6112a4565b6112878484846001611185565b9250905081840481111561129e5761129d611149565b5b81810290505b9392505050565b60006112b682610ed1565b91506112c1836110e3565b92506112ee7fffffffffffffffffffffffffffffffffffffffffffffffffffffffffffffffff84846111d8565b905092915050565b600061130182610ed1565b915061130c83610ed1565b925082820261131a81610ed1565b9150828204841483151761133157611330611149565b5b5092915050565b600061134382610ed1565b915061134e83610ed1565b925082820190508082111561136657611365611149565b5b92915050565b600061137782610ed1565b915061138283610ed1565b925082820390508181111561139a57611399611149565b5b92915050565b600082825260208201905092915050565b7f4f776e61626c653a206e6577206f776e657220697320746865207a65726f206160008201527f6464726573730000000000000000000000000000000000000000000000000000602082015250565b600061140d6026836113a0565b9150611418826113b1565b604082019050919050565b6000602082019050818103600083015261143c81611400565b9050919050565b7f4e487b7100000000000000000000000000000000000000000000000000000000600052601260045260246000fd5b600061147d82610ed1565b915061148883610ed1565b92508261149857611497611443565b5b828204905092915050565b7f4f776e61626c653a2063616c6c6572206973206e6f7420746865206f776e6572600082015250565b60006114d96020836113a0565b91506114e4826114a3565b602082019050919050565b60006020820190508181036000830152611508816114cc565b905091905056fea2646970667358221220e8b08815bbdbb28bd55b6c040173112b84b0abbc9fbdb34c7a275ef5d555301264736f6c63430008120033a26469706673582212209e53f0bb26f0ecc49e94b8775dd3f5a3fc795feb17570515b1d40f2a924a6c8864736f6c63430008120033",
			"opcodes": "PUSH1 0x80 PUSH1 0x40 MSTORE CALLVALUE DUP1 ISZERO PUSH2 0x10 JUMPI PUSH1 0x0 DUP1 REVERT JUMPDEST POP PUSH2 0x2D PUSH2 0x22 PUSH2 0x32 PUSH1 0x20 SHL PUSH1 0x20 SHR JUMP JUMPDEST PUSH2 0x3A PUSH1 0x20 SHL PUSH1 0x20 SHR JUMP JUMPDEST PUSH2 0xFE JUMP JUMPDEST PUSH1 0x0 CALLER SWAP1 POP SWAP1 JUMP JUMPDEST PUSH1 0x0 DUP1 PUSH1 0x0 SWAP1 SLOAD SWAP1 PUSH2 0x100 EXP SWAP1 DIV PUSH20 0xFFFFFFFFFFFFFFFFFFFFFFFFFFFFFFFFFFFFFFFF AND SWAP1 POP DUP2 PUSH1 0x0 DUP1 PUSH2 0x100 EXP DUP2 SLOAD DUP2 PUSH20 0xFFFFFFFFFFFFFFFFFFFFFFFFFFFFFFFFFFFFFFFF MUL NOT AND SWAP1 DUP4 PUSH20 0xFFFFFFFFFFFFFFFFFFFFFFFFFFFFFFFFFFFFFFFF AND MUL OR SWAP1 SSTORE POP DUP2 PUSH20 0xFFFFFFFFFFFFFFFFFFFFFFFFFFFFFFFFFFFFFFFF AND DUP2 PUSH20 0xFFFFFFFFFFFFFFFFFFFFFFFFFFFFFFFFFFFFFFFF AND PUSH32 0x8BE0079C531659141344CD1FD0A4F28419497F9722A3DAAFE3B4186F6B6457E0 PUSH1 0x40 MLOAD PUSH1 0x40 MLOAD DUP1 SWAP2 SUB SWAP1 LOG3 POP POP JUMP JUMPDEST PUSH2 0x30D2 DUP1 PUSH2 0x10D PUSH1 0x0 CODECOPY PUSH1 0x0 RETURN INVALID PUSH1 0x80 PUSH1 0x40 MSTORE CALLVALUE DUP1 ISZERO PUSH3 0x11 JUMPI PUSH1 0x0 DUP1 REVERT JUMPDEST POP PUSH1 0x4 CALLDATASIZE LT PUSH3 0x6A JUMPI PUSH1 0x0 CALLDATALOAD PUSH1 0xE0 SHR DUP1 PUSH4 0x1B6CF219 EQ PUSH3 0x6F JUMPI DUP1 PUSH4 0x715018A6 EQ PUSH3 0x91 JUMPI DUP1 PUSH4 0x79D747BE EQ PUSH3 0x9D JUMPI DUP1 PUSH4 0x8DA5CB5B EQ PUSH3 0xD3 JUMPI DUP1 PUSH4 0xEEEF6E62 EQ PUSH3 0xF5 JUMPI DUP1 PUSH4 0xF2FDE38B EQ PUSH3 0x115 JUMPI JUMPDEST PUSH1 0x0 DUP1 REVERT JUMPDEST PUSH3 0x79 PUSH3 0x135 JUMP JUMPDEST PUSH1 0x40 MLOAD PUSH3 0x88 SWAP2 SWAP1 PUSH3 0x853 JUMP JUMPDEST PUSH1 0x40 MLOAD DUP1 SWAP2 SUB SWAP1 RETURN JUMPDEST PUSH3 0x9B PUSH3 0x24F JUMP JUMPDEST STOP JUMPDEST PUSH3 0xBB PUSH1 0x4 DUP1 CALLDATASIZE SUB DUP2 ADD SWAP1 PUSH3 0xB5 SWAP2 SWAP1 PUSH3 0x8B7 JUMP JUMPDEST PUSH3 0x267 JUMP JUMPDEST PUSH1 0x40 MLOAD PUSH3 0xCA SWAP2 SWAP1 PUSH3 0x954 JUMP JUMPDEST PUSH1 0x40 MLOAD DUP1 SWAP2 SUB SWAP1 RETURN JUMPDEST PUSH3 0xDD PUSH3 0x2A7 JUMP JUMPDEST PUSH1 0x40 MLOAD PUSH3 0xEC SWAP2 SWAP1 PUSH3 0x982 JUMP JUMPDEST PUSH1 0x40 MLOAD DUP1 SWAP2 SUB SWAP1 RETURN JUMPDEST PUSH3 0x113 PUSH1 0x4 DUP1 CALLDATASIZE SUB DUP2 ADD SWAP1 PUSH3 0x10D SWAP2 SWAP1 PUSH3 0x9D0 JUMP JUMPDEST PUSH3 0x2D0 JUMP JUMPDEST STOP JUMPDEST PUSH3 0x133 PUSH1 0x4 DUP1 CALLDATASIZE SUB DUP2 ADD SWAP1 PUSH3 0x12D SWAP2 SWAP1 PUSH3 0xA83 JUMP JUMPDEST PUSH3 0x568 JUMP JUMPDEST STOP JUMPDEST PUSH1 0x60 PUSH1 0x0 PUSH1 0x1 DUP1 SLOAD SWAP1 POP SWAP1 POP PUSH1 0x0 DUP2 PUSH8 0xFFFFFFFFFFFFFFFF DUP2 GT ISZERO PUSH3 0x160 JUMPI PUSH3 0x15F PUSH3 0xAB5 JUMP JUMPDEST JUMPDEST PUSH1 0x40 MLOAD SWAP1 DUP1 DUP3 MSTORE DUP1 PUSH1 0x20 MUL PUSH1 0x20 ADD DUP3 ADD PUSH1 0x40 MSTORE DUP1 ISZERO PUSH3 0x18F JUMPI DUP2 PUSH1 0x20 ADD PUSH1 0x20 DUP3 MUL DUP1 CALLDATASIZE DUP4 CALLDATACOPY DUP1 DUP3 ADD SWAP2 POP POP SWAP1 POP JUMPDEST POP SWAP1 POP PUSH1 0x0 JUMPDEST DUP3 DUP2 LT ISZERO PUSH3 0x246 JUMPI PUSH1 0x1 DUP2 DUP2 SLOAD DUP2 LT PUSH3 0x1B5 JUMPI PUSH3 0x1B4 PUSH3 0xAE4 JUMP JUMPDEST JUMPDEST SWAP1 PUSH1 0x0 MSTORE PUSH1 0x20 PUSH1 0x0 KECCAK256 ADD PUSH1 0x0 SWAP1 SLOAD SWAP1 PUSH2 0x100 EXP SWAP1 DIV PUSH20 0xFFFFFFFFFFFFFFFFFFFFFFFFFFFFFFFFFFFFFFFF AND DUP3 DUP3 DUP2 MLOAD DUP2 LT PUSH3 0x1F6 JUMPI PUSH3 0x1F5 PUSH3 0xAE4 JUMP JUMPDEST JUMPDEST PUSH1 0x20 MUL PUSH1 0x20 ADD ADD SWAP1 PUSH20 0xFFFFFFFFFFFFFFFFFFFFFFFFFFFFFFFFFFFFFFFF AND SWAP1 DUP2 PUSH20 0xFFFFFFFFFFFFFFFFFFFFFFFFFFFFFFFFFFFFFFFF AND DUP2 MSTORE POP POP DUP1 DUP1 PUSH3 0x23D SWAP1 PUSH3 0xB42 JUMP JUMPDEST SWAP2 POP POP PUSH3 0x195 JUMP JUMPDEST POP DUP1 SWAP3 POP POP POP SWAP1 JUMP JUMPDEST PUSH3 0x259 PUSH3 0x5F2 JUMP JUMPDEST PUSH3 0x265 PUSH1 0x0 PUSH3 0x677 JUMP JUMPDEST JUMP JUMPDEST PUSH1 0x1 DUP2 DUP2 SLOAD DUP2 LT PUSH3 0x278 JUMPI PUSH1 0x0 DUP1 REVERT JUMPDEST SWAP1 PUSH1 0x0 MSTORE PUSH1 0x20 PUSH1 0x0 KECCAK256 ADD PUSH1 0x0 SWAP2 POP SLOAD SWAP1 PUSH2 0x100 EXP SWAP1 DIV PUSH20 0xFFFFFFFFFFFFFFFFFFFFFFFFFFFFFFFFFFFFFFFF AND DUP2 JUMP JUMPDEST PUSH1 0x0 DUP1 PUSH1 0x0 SWAP1 SLOAD SWAP1 PUSH2 0x100 EXP SWAP1 DIV PUSH20 0xFFFFFFFFFFFFFFFFFFFFFFFFFFFFFFFFFFFFFFFF AND SWAP1 POP SWAP1 JUMP JUMPDEST PUSH1 0x0 ADDRESS PUSH3 0x2DD PUSH3 0x2A7 JUMP JUMPDEST DUP10 DUP10 DUP10 DUP10 DUP10 DUP10 DUP10 PUSH1 0x40 MLOAD PUSH3 0x2F2 SWAP1 PUSH3 0x743 JUMP JUMPDEST PUSH3 0x306 SWAP10 SWAP9 SWAP8 SWAP7 SWAP6 SWAP5 SWAP4 SWAP3 SWAP2 SWAP1 PUSH3 0xBA0 JUMP JUMPDEST PUSH1 0x40 MLOAD DUP1 SWAP2 SUB SWAP1 PUSH1 0x0 CREATE DUP1 ISZERO DUP1 ISZERO PUSH3 0x323 JUMPI RETURNDATASIZE PUSH1 0x0 DUP1 RETURNDATACOPY RETURNDATASIZE PUSH1 0x0 REVERT JUMPDEST POP SWAP1 POP DUP1 PUSH20 0xFFFFFFFFFFFFFFFFFFFFFFFFFFFFFFFFFFFFFFFF AND PUSH4 0xF2FDE38B CALLER PUSH1 0x40 MLOAD DUP3 PUSH4 0xFFFFFFFF AND PUSH1 0xE0 SHL DUP2 MSTORE PUSH1 0x4 ADD PUSH3 0x361 SWAP2 SWAP1 PUSH3 0x982 JUMP JUMPDEST PUSH1 0x0 PUSH1 0x40 MLOAD DUP1 DUP4 SUB DUP2 PUSH1 0x0 DUP8 DUP1 EXTCODESIZE ISZERO DUP1 ISZERO PUSH3 0x37C JUMPI PUSH1 0x0 DUP1 REVERT JUMPDEST POP GAS CALL ISZERO DUP1 ISZERO PUSH3 0x391 JUMPI RETURNDATASIZE PUSH1 0x0 DUP1 RETURNDATACOPY RETURNDATASIZE PUSH1 0x0 REVERT JUMPDEST POP POP POP POP DUP8 PUSH20 0xFFFFFFFFFFFFFFFFFFFFFFFFFFFFFFFFFFFFFFFF AND PUSH4 0x23B872DD CALLER DUP4 DUP10 PUSH1 0x40 MLOAD DUP5 PUSH4 0xFFFFFFFF AND PUSH1 0xE0 SHL DUP2 MSTORE PUSH1 0x4 ADD PUSH3 0x3D4 SWAP4 SWAP3 SWAP2 SWAP1 PUSH3 0xC3F JUMP JUMPDEST PUSH1 0x20 PUSH1 0x40 MLOAD DUP1 DUP4 SUB DUP2 PUSH1 0x0 DUP8 GAS CALL ISZERO DUP1 ISZERO PUSH3 0x3F4 JUMPI RETURNDATASIZE PUSH1 0x0 DUP1 RETURNDATACOPY RETURNDATASIZE PUSH1 0x0 REVERT JUMPDEST POP POP POP POP PUSH1 0x40 MLOAD RETURNDATASIZE PUSH1 0x1F NOT PUSH1 0x1F DUP3 ADD AND DUP3 ADD DUP1 PUSH1 0x40 MSTORE POP DUP2 ADD SWAP1 PUSH3 0x41A SWAP2 SWAP1 PUSH3 0xCB9 JUMP JUMPDEST POP DUP7 PUSH20 0xFFFFFFFFFFFFFFFFFFFFFFFFFFFFFFFFFFFFFFFF AND PUSH4 0x23B872DD CALLER DUP4 DUP9 PUSH1 0x40 MLOAD DUP5 PUSH4 0xFFFFFFFF AND PUSH1 0xE0 SHL DUP2 MSTORE PUSH1 0x4 ADD PUSH3 0x45A SWAP4 SWAP3 SWAP2 SWAP1 PUSH3 0xC3F JUMP JUMPDEST PUSH1 0x20 PUSH1 0x40 MLOAD DUP1 DUP4 SUB DUP2 PUSH1 0x0 DUP8 GAS CALL ISZERO DUP1 ISZERO PUSH3 0x47A JUMPI RETURNDATASIZE PUSH1 0x0 DUP1 RETURNDATACOPY RETURNDATASIZE PUSH1 0x0 REVERT JUMPDEST POP POP POP POP PUSH1 0x40 MLOAD RETURNDATASIZE PUSH1 0x1F NOT PUSH1 0x1F DUP3 ADD AND DUP3 ADD DUP1 PUSH1 0x40 MSTORE POP DUP2 ADD SWAP1 PUSH3 0x4A0 SWAP2 SWAP1 PUSH3 0xCB9 JUMP JUMPDEST POP PUSH1 0x1 DUP2 SWAP1 DUP1 PUSH1 0x1 DUP2 SLOAD ADD DUP1 DUP3 SSTORE DUP1 SWAP2 POP POP PUSH1 0x1 SWAP1 SUB SWAP1 PUSH1 0x0 MSTORE PUSH1 0x20 PUSH1 0x0 KECCAK256 ADD PUSH1 0x0 SWAP1 SWAP2 SWAP1 SWAP2 SWAP1 SWAP2 PUSH2 0x100 EXP DUP2 SLOAD DUP2 PUSH20 0xFFFFFFFFFFFFFFFFFFFFFFFFFFFFFFFFFFFFFFFF MUL NOT AND SWAP1 DUP4 PUSH20 0xFFFFFFFFFFFFFFFFFFFFFFFFFFFFFFFFFFFFFFFF AND MUL OR SWAP1 SSTORE POP DUP1 PUSH20 0xFFFFFFFFFFFFFFFFFFFFFFFFFFFFFFFFFFFFFFFF AND CALLER PUSH20 0xFFFFFFFFFFFFFFFFFFFFFFFFFFFFFFFFFFFFFFFF AND PUSH32 0x3366DDEC6D22BAEDAE5089CDEF368AB66CBF7CC63AEC389CA0D4B54E447BAA1B PUSH1 0x40 MLOAD PUSH1 0x40 MLOAD DUP1 SWAP2 SUB SWAP1 LOG3 POP POP POP POP POP POP POP POP JUMP JUMPDEST PUSH3 0x572 PUSH3 0x5F2 JUMP JUMPDEST PUSH1 0x0 PUSH20 0xFFFFFFFFFFFFFFFFFFFFFFFFFFFFFFFFFFFFFFFF AND DUP2 PUSH20 0xFFFFFFFFFFFFFFFFFFFFFFFFFFFFFFFFFFFFFFFF AND SUB PUSH3 0x5E4 JUMPI PUSH1 0x40 MLOAD PUSH32 0x8C379A000000000000000000000000000000000000000000000000000000000 DUP2 MSTORE PUSH1 0x4 ADD PUSH3 0x5DB SWAP1 PUSH3 0xD72 JUMP JUMPDEST PUSH1 0x40 MLOAD DUP1 SWAP2 SUB SWAP1 REVERT JUMPDEST PUSH3 0x5EF DUP2 PUSH3 0x677 JUMP JUMPDEST POP JUMP JUMPDEST PUSH3 0x5FC PUSH3 0x73B JUMP JUMPDEST PUSH20 0xFFFFFFFFFFFFFFFFFFFFFFFFFFFFFFFFFFFFFFFF AND PUSH3 0x61C PUSH3 0x2A7 JUMP JUMPDEST PUSH20 0xFFFFFFFFFFFFFFFFFFFFFFFFFFFFFFFFFFFFFFFF AND EQ PUSH3 0x675 JUMPI PUSH1 0x40 MLOAD PUSH32 0x8C379A000000000000000000000000000000000000000000000000000000000 DUP2 MSTORE PUSH1 0x4 ADD PUSH3 0x66C SWAP1 PUSH3 0xDE4 JUMP JUMPDEST PUSH1 0x40 MLOAD DUP1 SWAP2 SUB SWAP1 REVERT JUMPDEST JUMP JUMPDEST PUSH1 0x0 DUP1 PUSH1 0x0 SWAP1 SLOAD SWAP1 PUSH2 0x100 EXP SWAP1 DIV PUSH20 0xFFFFFFFFFFFFFFFFFFFFFFFFFFFFFFFFFFFFFFFF AND SWAP1 POP DUP2 PUSH1 0x0 DUP1 PUSH2 0x100 EXP DUP2 SLOAD DUP2 PUSH20 0xFFFFFFFFFFFFFFFFFFFFFFFFFFFFFFFFFFFFFFFF MUL NOT AND SWAP1 DUP4 PUSH20 0xFFFFFFFFFFFFFFFFFFFFFFFFFFFFFFFFFFFFFFFF AND MUL OR SWAP1 SSTORE POP DUP2 PUSH20 0xFFFFFFFFFFFFFFFFFFFFFFFFFFFFFFFFFFFFFFFF AND DUP2 PUSH20 0xFFFFFFFFFFFFFFFFFFFFFFFFFFFFFFFFFFFFFFFF AND PUSH32 0x8BE0079C531659141344CD1FD0A4F28419497F9722A3DAAFE3B4186F6B6457E0 PUSH1 0x40 MLOAD PUSH1 0x40 MLOAD DUP1 SWAP2 SUB SWAP1 LOG3 POP POP JUMP JUMPDEST PUSH1 0x0 CALLER SWAP1 POP SWAP1 JUMP JUMPDEST PUSH2 0x2296 DUP1 PUSH3 0xE07 DUP4 CODECOPY ADD SWAP1 JUMP JUMPDEST PUSH1 0x0 DUP2 MLOAD SWAP1 POP SWAP2 SWAP1 POP JUMP JUMPDEST PUSH1 0x0 DUP3 DUP3 MSTORE PUSH1 0x20 DUP3 ADD SWAP1 POP SWAP3 SWAP2 POP POP JUMP JUMPDEST PUSH1 0x0 DUP2 SWAP1 POP PUSH1 0x20 DUP3 ADD SWAP1 POP SWAP2 SWAP1 POP JUMP JUMPDEST PUSH1 0x0 PUSH20 0xFFFFFFFFFFFFFFFFFFFFFFFFFFFFFFFFFFFFFFFF DUP3 AND SWAP1 POP SWAP2 SWAP1 POP JUMP JUMPDEST PUSH1 0x0 PUSH3 0x7AA DUP3 PUSH3 0x77D JUMP JUMPDEST SWAP1 POP SWAP2 SWAP1 POP JUMP JUMPDEST PUSH3 0x7BC DUP2 PUSH3 0x79D JUMP JUMPDEST DUP3 MSTORE POP POP JUMP JUMPDEST PUSH1 0x0 PUSH3 0x7D0 DUP4 DUP4 PUSH3 0x7B1 JUMP JUMPDEST PUSH1 0x20 DUP4 ADD SWAP1 POP SWAP3 SWAP2 POP POP JUMP JUMPDEST PUSH1 0x0 PUSH1 0x20 DUP3 ADD SWAP1 POP SWAP2 SWAP1 POP JUMP JUMPDEST PUSH1 0x0 PUSH3 0x7F6 DUP3 PUSH3 0x751 JUMP JUMPDEST PUSH3 0x802 DUP2 DUP6 PUSH3 0x75C JUMP JUMPDEST SWAP4 POP PUSH3 0x80F DUP4 PUSH3 0x76D JUMP JUMPDEST DUP1 PUSH1 0x0 JUMPDEST DUP4 DUP2 LT ISZERO PUSH3 0x846 JUMPI DUP2 MLOAD PUSH3 0x82A DUP9 DUP3 PUSH3 0x7C2 JUMP JUMPDEST SWAP8 POP PUSH3 0x837 DUP4 PUSH3 0x7DC JUMP JUMPDEST SWAP3 POP POP PUSH1 0x1 DUP2 ADD SWAP1 POP PUSH3 0x813 JUMP JUMPDEST POP DUP6 SWAP4 POP POP POP POP SWAP3 SWAP2 POP POP JUMP JUMPDEST PUSH1 0x0 PUSH1 0x20 DUP3 ADD SWAP1 POP DUP2 DUP2 SUB PUSH1 0x0 DUP4 ADD MSTORE PUSH3 0x86F DUP2 DUP5 PUSH3 0x7E9 JUMP JUMPDEST SWAP1 POP SWAP3 SWAP2 POP POP JUMP JUMPDEST PUSH1 0x0 DUP1 REVERT JUMPDEST PUSH1 0x0 DUP2 SWAP1 POP SWAP2 SWAP1 POP JUMP JUMPDEST PUSH3 0x891 DUP2 PUSH3 0x87C JUMP JUMPDEST DUP2 EQ PUSH3 0x89D JUMPI PUSH1 0x0 DUP1 REVERT JUMPDEST POP JUMP JUMPDEST PUSH1 0x0 DUP2 CALLDATALOAD SWAP1 POP PUSH3 0x8B1 DUP2 PUSH3 0x886 JUMP JUMPDEST SWAP3 SWAP2 POP POP JUMP JUMPDEST PUSH1 0x0 PUSH1 0x20 DUP3 DUP5 SUB SLT ISZERO PUSH3 0x8D0 JUMPI PUSH3 0x8CF PUSH3 0x877 JUMP JUMPDEST JUMPDEST PUSH1 0x0 PUSH3 0x8E0 DUP5 DUP3 DUP6 ADD PUSH3 0x8A0 JUMP JUMPDEST SWAP2 POP POP SWAP3 SWAP2 POP POP JUMP JUMPDEST PUSH1 0x0 DUP2 SWAP1 POP SWAP2 SWAP1 POP JUMP JUMPDEST PUSH1 0x0 PUSH3 0x914 PUSH3 0x90E PUSH3 0x908 DUP5 PUSH3 0x77D JUMP JUMPDEST PUSH3 0x8E9 JUMP JUMPDEST PUSH3 0x77D JUMP JUMPDEST SWAP1 POP SWAP2 SWAP1 POP JUMP JUMPDEST PUSH1 0x0 PUSH3 0x928 DUP3 PUSH3 0x8F3 JUMP JUMPDEST SWAP1 POP SWAP2 SWAP1 POP JUMP JUMPDEST PUSH1 0x0 PUSH3 0x93C DUP3 PUSH3 0x91B JUMP JUMPDEST SWAP1 POP SWAP2 SWAP1 POP JUMP JUMPDEST PUSH3 0x94E DUP2 PUSH3 0x92F JUMP JUMPDEST DUP3 MSTORE POP POP JUMP JUMPDEST PUSH1 0x0 PUSH1 0x20 DUP3 ADD SWAP1 POP PUSH3 0x96B PUSH1 0x0 DUP4 ADD DUP5 PUSH3 0x943 JUMP JUMPDEST SWAP3 SWAP2 POP POP JUMP JUMPDEST PUSH3 0x97C DUP2 PUSH3 0x79D JUMP JUMPDEST DUP3 MSTORE POP POP JUMP JUMPDEST PUSH1 0x0 PUSH1 0x20 DUP3 ADD SWAP1 POP PUSH3 0x999 PUSH1 0x0 DUP4 ADD DUP5 PUSH3 0x971 JUMP JUMPDEST SWAP3 SWAP2 POP POP JUMP JUMPDEST PUSH3 0x9AA DUP2 PUSH3 0x79D JUMP JUMPDEST DUP2 EQ PUSH3 0x9B6 JUMPI PUSH1 0x0 DUP1 REVERT JUMPDEST POP JUMP JUMPDEST PUSH1 0x0 DUP2 CALLDATALOAD SWAP1 POP PUSH3 0x9CA DUP2 PUSH3 0x99F JUMP JUMPDEST SWAP3 SWAP2 POP POP JUMP JUMPDEST PUSH1 0x0 DUP1 PUSH1 0x0 DUP1 PUSH1 0x0 DUP1 PUSH1 0x0 PUSH1 0xE0 DUP9 DUP11 SUB SLT ISZERO PUSH3 0x9F2 JUMPI PUSH3 0x9F1 PUSH3 0x877 JUMP JUMPDEST JUMPDEST PUSH1 0x0 PUSH3 0xA02 DUP11 DUP3 DUP12 ADD PUSH3 0x9B9 JUMP JUMPDEST SWAP8 POP POP PUSH1 0x20 PUSH3 0xA15 DUP11 DUP3 DUP12 ADD PUSH3 0x9B9 JUMP JUMPDEST SWAP7 POP POP PUSH1 0x40 PUSH3 0xA28 DUP11 DUP3 DUP12 ADD PUSH3 0x8A0 JUMP JUMPDEST SWAP6 POP POP PUSH1 0x60 PUSH3 0xA3B DUP11 DUP3 DUP12 ADD PUSH3 0x8A0 JUMP JUMPDEST SWAP5 POP POP PUSH1 0x80 PUSH3 0xA4E DUP11 DUP3 DUP12 ADD PUSH3 0x8A0 JUMP JUMPDEST SWAP4 POP POP PUSH1 0xA0 PUSH3 0xA61 DUP11 DUP3 DUP12 ADD PUSH3 0x8A0 JUMP JUMPDEST SWAP3 POP POP PUSH1 0xC0 PUSH3 0xA74 DUP11 DUP3 DUP12 ADD PUSH3 0x8A0 JUMP JUMPDEST SWAP2 POP POP SWAP3 SWAP6 SWAP9 SWAP2 SWAP5 SWAP8 POP SWAP3 SWAP6 POP JUMP JUMPDEST PUSH1 0x0 PUSH1 0x20 DUP3 DUP5 SUB SLT ISZERO PUSH3 0xA9C JUMPI PUSH3 0xA9B PUSH3 0x877 JUMP JUMPDEST JUMPDEST PUSH1 0x0 PUSH3 0xAAC DUP5 DUP3 DUP6 ADD PUSH3 0x9B9 JUMP JUMPDEST SWAP2 POP POP SWAP3 SWAP2 POP POP JUMP JUMPDEST PUSH32 0x4E487B7100000000000000000000000000000000000000000000000000000000 PUSH1 0x0 MSTORE PUSH1 0x41 PUSH1 0x4 MSTORE PUSH1 0x24 PUSH1 0x0 REVERT JUMPDEST PUSH32 0x4E487B7100000000000000000000000000000000000000000000000000000000 PUSH1 0x0 MSTORE PUSH1 0x32 PUSH1 0x4 MSTORE PUSH1 0x24 PUSH1 0x0 REVERT JUMPDEST PUSH32 0x4E487B7100000000000000000000000000000000000000000000000000000000 PUSH1 0x0 MSTORE PUSH1 0x11 PUSH1 0x4 MSTORE PUSH1 0x24 PUSH1 0x0 REVERT JUMPDEST PUSH1 0x0 PUSH3 0xB4F DUP3 PUSH3 0x87C JUMP JUMPDEST SWAP2 POP PUSH32 0xFFFFFFFFFFFFFFFFFFFFFFFFFFFFFFFFFFFFFFFFFFFFFFFFFFFFFFFFFFFFFFFF DUP3 SUB PUSH3 0xB84 JUMPI PUSH3 0xB83 PUSH3 0xB13 JUMP JUMPDEST JUMPDEST PUSH1 0x1 DUP3 ADD SWAP1 POP SWAP2 SWAP1 POP JUMP JUMPDEST PUSH3 0xB9A DUP2 PUSH3 0x87C JUMP JUMPDEST DUP3 MSTORE POP POP JUMP JUMPDEST PUSH1 0x0 PUSH2 0x120 DUP3 ADD SWAP1 POP PUSH3 0xBB8 PUSH1 0x0 DUP4 ADD DUP13 PUSH3 0x971 JUMP JUMPDEST PUSH3 0xBC7 PUSH1 0x20 DUP4 ADD DUP12 PUSH3 0x971 JUMP JUMPDEST PUSH3 0xBD6 PUSH1 0x40 DUP4 ADD DUP11 PUSH3 0x971 JUMP JUMPDEST PUSH3 0xBE5 PUSH1 0x60 DUP4 ADD DUP10 PUSH3 0x971 JUMP JUMPDEST PUSH3 0xBF4 PUSH1 0x80 DUP4 ADD DUP9 PUSH3 0xB8F JUMP JUMPDEST PUSH3 0xC03 PUSH1 0xA0 DUP4 ADD DUP8 PUSH3 0xB8F JUMP JUMPDEST PUSH3 0xC12 PUSH1 0xC0 DUP4 ADD DUP7 PUSH3 0xB8F JUMP JUMPDEST PUSH3 0xC21 PUSH1 0xE0 DUP4 ADD DUP6 PUSH3 0xB8F JUMP JUMPDEST PUSH3 0xC31 PUSH2 0x100 DUP4 ADD DUP5 PUSH3 0xB8F JUMP JUMPDEST SWAP11 SWAP10 POP POP POP POP POP POP POP POP POP POP JUMP JUMPDEST PUSH1 0x0 PUSH1 0x60 DUP3 ADD SWAP1 POP PUSH3 0xC56 PUSH1 0x0 DUP4 ADD DUP7 PUSH3 0x971 JUMP JUMPDEST PUSH3 0xC65 PUSH1 0x20 DUP4 ADD DUP6 PUSH3 0x971 JUMP JUMPDEST PUSH3 0xC74 PUSH1 0x40 DUP4 ADD DUP5 PUSH3 0xB8F JUMP JUMPDEST SWAP5 SWAP4 POP POP POP POP JUMP JUMPDEST PUSH1 0x0 DUP2 ISZERO ISZERO SWAP1 POP SWAP2 SWAP1 POP JUMP JUMPDEST PUSH3 0xC93 DUP2 PUSH3 0xC7C JUMP JUMPDEST DUP2 EQ PUSH3 0xC9F JUMPI PUSH1 0x0 DUP1 REVERT JUMPDEST POP JUMP JUMPDEST PUSH1 0x0 DUP2 MLOAD SWAP1 POP PUSH3 0xCB3 DUP2 PUSH3 0xC88 JUMP JUMPDEST SWAP3 SWAP2 POP POP JUMP JUMPDEST PUSH1 0x0 PUSH1 0x20 DUP3 DUP5 SUB SLT ISZERO PUSH3 0xCD2 JUMPI PUSH3 0xCD1 PUSH3 0x877 JUMP JUMPDEST JUMPDEST PUSH1 0x0 PUSH3 0xCE2 DUP5 DUP3 DUP6 ADD PUSH3 0xCA2 JUMP JUMPDEST SWAP2 POP POP SWAP3 SWAP2 POP POP JUMP JUMPDEST PUSH1 0x0 DUP3 DUP3 MSTORE PUSH1 0x20 DUP3 ADD SWAP1 POP SWAP3 SWAP2 POP POP JUMP JUMPDEST PUSH32 0x4F776E61626C653A206E6577206F776E657220697320746865207A65726F2061 PUSH1 0x0 DUP3 ADD MSTORE PUSH32 0x6464726573730000000000000000000000000000000000000000000000000000 PUSH1 0x20 DUP3 ADD MSTORE POP JUMP JUMPDEST PUSH1 0x0 PUSH3 0xD5A PUSH1 0x26 DUP4 PUSH3 0xCEB JUMP JUMPDEST SWAP2 POP PUSH3 0xD67 DUP3 PUSH3 0xCFC JUMP JUMPDEST PUSH1 0x40 DUP3 ADD SWAP1 POP SWAP2 SWAP1 POP JUMP JUMPDEST PUSH1 0x0 PUSH1 0x20 DUP3 ADD SWAP1 POP DUP2 DUP2 SUB PUSH1 0x0 DUP4 ADD MSTORE PUSH3 0xD8D DUP2 PUSH3 0xD4B JUMP JUMPDEST SWAP1 POP SWAP2 SWAP1 POP JUMP JUMPDEST PUSH32 0x4F776E61626C653A2063616C6C6572206973206E6F7420746865206F776E6572 PUSH1 0x0 DUP3 ADD MSTORE POP JUMP JUMPDEST PUSH1 0x0 PUSH3 0xDCC PUSH1 0x20 DUP4 PUSH3 0xCEB JUMP JUMPDEST SWAP2 POP PUSH3 0xDD9 DUP3 PUSH3 0xD94 JUMP JUMPDEST PUSH1 0x20 DUP3 ADD SWAP1 POP SWAP2 SWAP1 POP JUMP JUMPDEST PUSH1 0x0 PUSH1 0x20 DUP3 ADD SWAP1 POP DUP2 DUP2 SUB PUSH1 0x0 DUP4 ADD MSTORE PUSH3 0xDFF DUP2 PUSH3 0xDBD JUMP JUMPDEST SWAP1 POP SWAP2 SWAP1 POP JUMP INVALID PUSH1 0x80 PUSH1 0x40 MSTORE CALLVALUE DUP1 ISZERO PUSH3 0x11 JUMPI PUSH1 0x0 DUP1 REVERT JUMPDEST POP PUSH1 0x40 MLOAD PUSH3 0x2296 CODESIZE SUB DUP1 PUSH3 0x2296 DUP4 CODECOPY DUP2 DUP2 ADD PUSH1 0x40 MSTORE DUP2 ADD SWAP1 PUSH3 0x37 SWAP2 SWAP1 PUSH3 0x7DB JUMP JUMPDEST PUSH3 0x57 PUSH3 0x4B PUSH3 0x2B0 PUSH1 0x20 SHL PUSH1 0x20 SHR JUMP JUMPDEST PUSH3 0x2B8 PUSH1 0x20 SHL PUSH1 0x20 SHR JUMP JUMPDEST DUP9 PUSH1 0x1 PUSH1 0x0 PUSH2 0x100 EXP DUP2 SLOAD DUP2 PUSH20 0xFFFFFFFFFFFFFFFFFFFFFFFFFFFFFFFFFFFFFFFF MUL NOT AND SWAP1 DUP4 PUSH20 0xFFFFFFFFFFFFFFFFFFFFFFFFFFFFFFFFFFFFFFFF AND MUL OR SWAP1 SSTORE POP DUP8 PUSH1 0x2 PUSH1 0x0 PUSH2 0x100 EXP DUP2 SLOAD DUP2 PUSH20 0xFFFFFFFFFFFFFFFFFFFFFFFFFFFFFFFFFFFFFFFF MUL NOT AND SWAP1 DUP4 PUSH20 0xFFFFFFFFFFFFFFFFFFFFFFFFFFFFFFFFFFFFFFFF AND MUL OR SWAP1 SSTORE POP DUP6 PUSH20 0xFFFFFFFFFFFFFFFFFFFFFFFFFFFFFFFFFFFFFFFF AND DUP8 PUSH20 0xFFFFFFFFFFFFFFFFFFFFFFFFFFFFFFFFFFFFFFFF AND SUB PUSH3 0x14A JUMPI PUSH1 0x40 MLOAD PUSH32 0x8C379A000000000000000000000000000000000000000000000000000000000 DUP2 MSTORE PUSH1 0x4 ADD PUSH3 0x141 SWAP1 PUSH3 0x91B JUMP JUMPDEST PUSH1 0x40 MLOAD DUP1 SWAP2 SUB SWAP1 REVERT JUMPDEST DUP7 PUSH1 0x3 PUSH1 0x0 PUSH2 0x100 EXP DUP2 SLOAD DUP2 PUSH20 0xFFFFFFFFFFFFFFFFFFFFFFFFFFFFFFFFFFFFFFFF MUL NOT AND SWAP1 DUP4 PUSH20 0xFFFFFFFFFFFFFFFFFFFFFFFFFFFFFFFFFFFFFFFF AND MUL OR SWAP1 SSTORE POP DUP6 PUSH1 0x4 PUSH1 0x0 PUSH2 0x100 EXP DUP2 SLOAD DUP2 PUSH20 0xFFFFFFFFFFFFFFFFFFFFFFFFFFFFFFFFFFFFFFFF MUL NOT AND SWAP1 DUP4 PUSH20 0xFFFFFFFFFFFFFFFFFFFFFFFFFFFFFFFFFFFFFFFF AND MUL OR SWAP1 SSTORE POP DUP5 PUSH1 0x5 DUP2 SWAP1 SSTORE POP DUP4 PUSH1 0x6 DUP2 SWAP1 SSTORE POP DUP3 DUP3 LT ISZERO PUSH3 0x220 JUMPI PUSH1 0x40 MLOAD PUSH32 0x8C379A000000000000000000000000000000000000000000000000000000000 DUP2 MSTORE PUSH1 0x4 ADD PUSH3 0x217 SWAP1 PUSH3 0x9B3 JUMP JUMPDEST PUSH1 0x40 MLOAD DUP1 SWAP2 SUB SWAP1 REVERT JUMPDEST DUP3 PUSH1 0xA DUP2 SWAP1 SSTORE POP DUP2 PUSH1 0xB DUP2 SWAP1 SSTORE POP DUP1 PUSH1 0xC DUP2 SWAP1 SSTORE POP PUSH3 0x248 DUP4 DUP4 DUP8 PUSH3 0x37C PUSH1 0x20 SHL PUSH1 0x20 SHR JUMP JUMPDEST PUSH1 0x7 DUP2 SWAP1 SSTORE POP PUSH3 0x265 DUP8 DUP5 PUSH1 0x7 SLOAD DUP9 DUP9 PUSH3 0x40F PUSH1 0x20 SHL PUSH1 0x20 SHR JUMP JUMPDEST PUSH1 0x8 DUP2 SWAP1 SSTORE POP PUSH1 0x8 SLOAD PUSH1 0x6 SLOAD PUSH3 0x27D SWAP2 SWAP1 PUSH3 0xA04 JUMP JUMPDEST PUSH1 0x7 SLOAD PUSH1 0x5 SLOAD PUSH3 0x28F SWAP2 SWAP1 PUSH3 0xA04 JUMP JUMPDEST PUSH3 0x29B SWAP2 SWAP1 PUSH3 0xA3F JUMP JUMPDEST PUSH1 0x9 DUP2 SWAP1 SSTORE POP POP POP POP POP POP POP POP POP POP PUSH3 0xD41 JUMP JUMPDEST PUSH1 0x0 CALLER SWAP1 POP SWAP1 JUMP JUMPDEST PUSH1 0x0 DUP1 PUSH1 0x0 SWAP1 SLOAD SWAP1 PUSH2 0x100 EXP SWAP1 DIV PUSH20 0xFFFFFFFFFFFFFFFFFFFFFFFFFFFFFFFFFFFFFFFF AND SWAP1 POP DUP2 PUSH1 0x0 DUP1 PUSH2 0x100 EXP DUP2 SLOAD DUP2 PUSH20 0xFFFFFFFFFFFFFFFFFFFFFFFFFFFFFFFFFFFFFFFF MUL NOT AND SWAP1 DUP4 PUSH20 0xFFFFFFFFFFFFFFFFFFFFFFFFFFFFFFFFFFFFFFFF AND MUL OR SWAP1 SSTORE POP DUP2 PUSH20 0xFFFFFFFFFFFFFFFFFFFFFFFFFFFFFFFFFFFFFFFF AND DUP2 PUSH20 0xFFFFFFFFFFFFFFFFFFFFFFFFFFFFFFFFFFFFFFFF AND PUSH32 0x8BE0079C531659141344CD1FD0A4F28419497F9722A3DAAFE3B4186F6B6457E0 PUSH1 0x40 MLOAD PUSH1 0x40 MLOAD DUP1 SWAP2 SUB SWAP1 LOG3 POP POP JUMP JUMPDEST PUSH1 0x0 DUP1 PUSH3 0x3A8 PUSH5 0x174876E800 DUP7 PUSH3 0x396 SWAP2 SWAP1 PUSH3 0xA3F JUMP JUMPDEST DUP6 PUSH3 0x4F7 PUSH1 0x20 SHL PUSH3 0xB25 OR PUSH1 0x20 SHR JUMP JUMPDEST SWAP1 POP PUSH1 0x0 PUSH3 0x3C2 DUP3 PUSH3 0x50F PUSH1 0x20 SHL PUSH3 0xB3B OR PUSH1 0x20 SHR JUMP JUMPDEST SWAP1 POP PUSH1 0x0 DUP5 DUP3 PUSH3 0x3D4 SWAP2 SWAP1 PUSH3 0xA3F JUMP JUMPDEST SWAP1 POP PUSH1 0x0 DUP3 PUSH3 0xF4240 PUSH3 0x3E9 SWAP2 SWAP1 PUSH3 0xA8A JUMP JUMPDEST SWAP1 POP PUSH3 0x402 DUP3 DUP3 PUSH3 0x4F7 PUSH1 0x20 SHL PUSH3 0xB25 OR PUSH1 0x20 SHR JUMP JUMPDEST SWAP5 POP POP POP POP POP SWAP4 SWAP3 POP POP POP JUMP JUMPDEST PUSH1 0x0 DUP1 DUP7 PUSH20 0xFFFFFFFFFFFFFFFFFFFFFFFFFFFFFFFFFFFFFFFF AND PUSH4 0x313CE567 PUSH1 0x40 MLOAD DUP2 PUSH4 0xFFFFFFFF AND PUSH1 0xE0 SHL DUP2 MSTORE PUSH1 0x4 ADD PUSH1 0x20 PUSH1 0x40 MLOAD DUP1 DUP4 SUB DUP2 DUP7 GAS STATICCALL ISZERO DUP1 ISZERO PUSH3 0x45E JUMPI RETURNDATASIZE PUSH1 0x0 DUP1 RETURNDATACOPY RETURNDATASIZE PUSH1 0x0 REVERT JUMPDEST POP POP POP POP PUSH1 0x40 MLOAD RETURNDATASIZE PUSH1 0x1F NOT PUSH1 0x1F DUP3 ADD AND DUP3 ADD DUP1 PUSH1 0x40 MSTORE POP DUP2 ADD SWAP1 PUSH3 0x484 SWAP2 SWAP1 PUSH3 0xB03 JUMP JUMPDEST SWAP1 POP PUSH1 0x0 DUP2 PUSH1 0xA PUSH3 0x497 SWAP2 SWAP1 PUSH3 0xC89 JUMP JUMPDEST SWAP1 POP PUSH1 0x0 DUP5 DUP3 PUSH3 0x4A9 SWAP2 SWAP1 PUSH3 0xA3F JUMP JUMPDEST DUP8 DUP8 PUSH3 0x4B7 SWAP2 SWAP1 PUSH3 0xA04 JUMP JUMPDEST DUP10 PUSH3 0x4C4 SWAP2 SWAP1 PUSH3 0xA3F JUMP JUMPDEST PUSH3 0x4D0 SWAP2 SWAP1 PUSH3 0xA8A JUMP JUMPDEST SWAP1 POP PUSH3 0x4E9 DUP2 DUP4 PUSH3 0x4F7 PUSH1 0x20 SHL PUSH3 0xB25 OR PUSH1 0x20 SHR JUMP JUMPDEST SWAP4 POP POP POP POP SWAP6 SWAP5 POP POP POP POP POP JUMP JUMPDEST PUSH1 0x0 DUP2 DUP4 PUSH3 0x507 SWAP2 SWAP1 PUSH3 0xD09 JUMP JUMPDEST SWAP1 POP SWAP3 SWAP2 POP POP JUMP JUMPDEST PUSH1 0x0 DUP1 DUP3 SUB PUSH3 0x523 JUMPI PUSH1 0x0 SWAP1 POP PUSH3 0x62D JUMP JUMPDEST PUSH1 0x0 PUSH1 0x1 PUSH3 0x538 DUP5 PUSH3 0x632 PUSH1 0x20 SHL PUSH1 0x20 SHR JUMP JUMPDEST SWAP1 SHR PUSH1 0x1 SWAP1 SHL SWAP1 POP PUSH1 0x1 DUP2 DUP5 DUP2 PUSH3 0x555 JUMPI PUSH3 0x554 PUSH3 0xCDA JUMP JUMPDEST JUMPDEST DIV DUP3 ADD SWAP1 SHR SWAP1 POP PUSH1 0x1 DUP2 DUP5 DUP2 PUSH3 0x571 JUMPI PUSH3 0x570 PUSH3 0xCDA JUMP JUMPDEST JUMPDEST DIV DUP3 ADD SWAP1 SHR SWAP1 POP PUSH1 0x1 DUP2 DUP5 DUP2 PUSH3 0x58D JUMPI PUSH3 0x58C PUSH3 0xCDA JUMP JUMPDEST JUMPDEST DIV DUP3 ADD SWAP1 SHR SWAP1 POP PUSH1 0x1 DUP2 DUP5 DUP2 PUSH3 0x5A9 JUMPI PUSH3 0x5A8 PUSH3 0xCDA JUMP JUMPDEST JUMPDEST DIV DUP3 ADD SWAP1 SHR SWAP1 POP PUSH1 0x1 DUP2 DUP5 DUP2 PUSH3 0x5C5 JUMPI PUSH3 0x5C4 PUSH3 0xCDA JUMP JUMPDEST JUMPDEST DIV DUP3 ADD SWAP1 SHR SWAP1 POP PUSH1 0x1 DUP2 DUP5 DUP2 PUSH3 0x5E1 JUMPI PUSH3 0x5E0 PUSH3 0xCDA JUMP JUMPDEST JUMPDEST DIV DUP3 ADD SWAP1 SHR SWAP1 POP PUSH1 0x1 DUP2 DUP5 DUP2 PUSH3 0x5FD JUMPI PUSH3 0x5FC PUSH3 0xCDA JUMP JUMPDEST JUMPDEST DIV DUP3 ADD SWAP1 SHR SWAP1 POP PUSH3 0x629 DUP2 DUP3 DUP6 DUP2 PUSH3 0x61C JUMPI PUSH3 0x61B PUSH3 0xCDA JUMP JUMPDEST JUMPDEST DIV PUSH3 0x71B PUSH1 0x20 SHL PUSH1 0x20 SHR JUMP JUMPDEST SWAP2 POP POP JUMPDEST SWAP2 SWAP1 POP JUMP JUMPDEST PUSH1 0x0 DUP1 PUSH1 0x0 SWAP1 POP PUSH1 0x0 PUSH1 0x80 DUP5 SWAP1 SHR GT ISZERO PUSH3 0x655 JUMPI PUSH1 0x80 DUP4 SWAP1 SHR SWAP3 POP PUSH1 0x80 DUP2 ADD SWAP1 POP JUMPDEST PUSH1 0x0 PUSH1 0x40 DUP5 SWAP1 SHR GT ISZERO PUSH3 0x671 JUMPI PUSH1 0x40 DUP4 SWAP1 SHR SWAP3 POP PUSH1 0x40 DUP2 ADD SWAP1 POP JUMPDEST PUSH1 0x0 PUSH1 0x20 DUP5 SWAP1 SHR GT ISZERO PUSH3 0x68D JUMPI PUSH1 0x20 DUP4 SWAP1 SHR SWAP3 POP PUSH1 0x20 DUP2 ADD SWAP1 POP JUMPDEST PUSH1 0x0 PUSH1 0x10 DUP5 SWAP1 SHR GT ISZERO PUSH3 0x6A9 JUMPI PUSH1 0x10 DUP4 SWAP1 SHR SWAP3 POP PUSH1 0x10 DUP2 ADD SWAP1 POP JUMPDEST PUSH1 0x0 PUSH1 0x8 DUP5 SWAP1 SHR GT ISZERO PUSH3 0x6C5 JUMPI PUSH1 0x8 DUP4 SWAP1 SHR SWAP3 POP PUSH1 0x8 DUP2 ADD SWAP1 POP JUMPDEST PUSH1 0x0 PUSH1 0x4 DUP5 SWAP1 SHR GT ISZERO PUSH3 0x6E1 JUMPI PUSH1 0x4 DUP4 SWAP1 SHR SWAP3 POP PUSH1 0x4 DUP2 ADD SWAP1 POP JUMPDEST PUSH1 0x0 PUSH1 0x2 DUP5 SWAP1 SHR GT ISZERO PUSH3 0x6FD JUMPI PUSH1 0x2 DUP4 SWAP1 SHR SWAP3 POP PUSH1 0x2 DUP2 ADD SWAP1 POP JUMPDEST PUSH1 0x0 PUSH1 0x1 DUP5 SWAP1 SHR GT ISZERO PUSH3 0x712 JUMPI PUSH1 0x1 DUP2 ADD SWAP1 POP JUMPDEST DUP1 SWAP2 POP POP SWAP2 SWAP1 POP JUMP JUMPDEST PUSH1 0x0 DUP2 DUP4 LT PUSH3 0x72C JUMPI DUP2 PUSH3 0x72E JUMP JUMPDEST DUP3 JUMPDEST SWAP1 POP SWAP3 SWAP2 POP POP JUMP JUMPDEST PUSH1 0x0 DUP1 REVERT JUMPDEST PUSH1 0x0 PUSH20 0xFFFFFFFFFFFFFFFFFFFFFFFFFFFFFFFFFFFFFFFF DUP3 AND SWAP1 POP SWAP2 SWAP1 POP JUMP JUMPDEST PUSH1 0x0 PUSH3 0x768 DUP3 PUSH3 0x73B JUMP JUMPDEST SWAP1 POP SWAP2 SWAP1 POP JUMP JUMPDEST PUSH3 0x77A DUP2 PUSH3 0x75B JUMP JUMPDEST DUP2 EQ PUSH3 0x786 JUMPI PUSH1 0x0 DUP1 REVERT JUMPDEST POP JUMP JUMPDEST PUSH1 0x0 DUP2 MLOAD SWAP1 POP PUSH3 0x79A DUP2 PUSH3 0x76F JUMP JUMPDEST SWAP3 SWAP2 POP POP JUMP JUMPDEST PUSH1 0x0 DUP2 SWAP1 POP SWAP2 SWAP1 POP JUMP JUMPDEST PUSH3 0x7B5 DUP2 PUSH3 0x7A0 JUMP JUMPDEST DUP2 EQ PUSH3 0x7C1 JUMPI PUSH1 0x0 DUP1 REVERT JUMPDEST POP JUMP JUMPDEST PUSH1 0x0 DUP2 MLOAD SWAP1 POP PUSH3 0x7D5 DUP2 PUSH3 0x7AA JUMP JUMPDEST SWAP3 SWAP2 POP POP JUMP JUMPDEST PUSH1 0x0 DUP1 PUSH1 0x0 DUP1 PUSH1 0x0 DUP1 PUSH1 0x0 DUP1 PUSH1 0x0 PUSH2 0x120 DUP11 DUP13 SUB SLT ISZERO PUSH3 0x801 JUMPI PUSH3 0x800 PUSH3 0x736 JUMP JUMPDEST JUMPDEST PUSH1 0x0 PUSH3 0x811 DUP13 DUP3 DUP14 ADD PUSH3 0x789 JUMP JUMPDEST SWAP10 POP POP PUSH1 0x20 PUSH3 0x824 DUP13 DUP3 DUP14 ADD PUSH3 0x789 JUMP JUMPDEST SWAP9 POP POP PUSH1 0x40 PUSH3 0x837 DUP13 DUP3 DUP14 ADD PUSH3 0x789 JUMP JUMPDEST SWAP8 POP POP PUSH1 0x60 PUSH3 0x84A DUP13 DUP3 DUP14 ADD PUSH3 0x789 JUMP JUMPDEST SWAP7 POP POP PUSH1 0x80 PUSH3 0x85D DUP13 DUP3 DUP14 ADD PUSH3 0x7C4 JUMP JUMPDEST SWAP6 POP POP PUSH1 0xA0 PUSH3 0x870 DUP13 DUP3 DUP14 ADD PUSH3 0x7C4 JUMP JUMPDEST SWAP5 POP POP PUSH1 0xC0 PUSH3 0x883 DUP13 DUP3 DUP14 ADD PUSH3 0x7C4 JUMP JUMPDEST SWAP4 POP POP PUSH1 0xE0 PUSH3 0x896 DUP13 DUP3 DUP14 ADD PUSH3 0x7C4 JUMP JUMPDEST SWAP3 POP POP PUSH2 0x100 PUSH3 0x8AA DUP13 DUP3 DUP14 ADD PUSH3 0x7C4 JUMP JUMPDEST SWAP2 POP POP SWAP3 SWAP6 SWAP9 POP SWAP3 SWAP6 SWAP9 POP SWAP3 SWAP6 SWAP9 JUMP JUMPDEST PUSH1 0x0 DUP3 DUP3 MSTORE PUSH1 0x20 DUP3 ADD SWAP1 POP SWAP3 SWAP2 POP POP JUMP JUMPDEST PUSH32 0x426F746820746F6B656E732063616E6E6F74206265207468652073616D650000 PUSH1 0x0 DUP3 ADD MSTORE POP JUMP JUMPDEST PUSH1 0x0 PUSH3 0x903 PUSH1 0x1E DUP4 PUSH3 0x8BA JUMP JUMPDEST SWAP2 POP PUSH3 0x910 DUP3 PUSH3 0x8CB JUMP JUMPDEST PUSH1 0x20 DUP3 ADD SWAP1 POP SWAP2 SWAP1 POP JUMP JUMPDEST PUSH1 0x0 PUSH1 0x20 DUP3 ADD SWAP1 POP DUP2 DUP2 SUB PUSH1 0x0 DUP4 ADD MSTORE PUSH3 0x936 DUP2 PUSH3 0x8F4 JUMP JUMPDEST SWAP1 POP SWAP2 SWAP1 POP JUMP JUMPDEST PUSH32 0x4D6178696D756D207072696365206D7573742062652067726561746572207468 PUSH1 0x0 DUP3 ADD MSTORE PUSH32 0x616E206F7220657175616C20746F207468652062617365207072696365000000 PUSH1 0x20 DUP3 ADD MSTORE POP JUMP JUMPDEST PUSH1 0x0 PUSH3 0x99B PUSH1 0x3D DUP4 PUSH3 0x8BA JUMP JUMPDEST SWAP2 POP PUSH3 0x9A8 DUP3 PUSH3 0x93D JUMP JUMPDEST PUSH1 0x40 DUP3 ADD SWAP1 POP SWAP2 SWAP1 POP JUMP JUMPDEST PUSH1 0x0 PUSH1 0x20 DUP3 ADD SWAP1 POP DUP2 DUP2 SUB PUSH1 0x0 DUP4 ADD MSTORE PUSH3 0x9CE DUP2 PUSH3 0x98C JUMP JUMPDEST SWAP1 POP SWAP2 SWAP1 POP JUMP JUMPDEST PUSH32 0x4E487B7100000000000000000000000000000000000000000000000000000000 PUSH1 0x0 MSTORE PUSH1 0x11 PUSH1 0x4 MSTORE PUSH1 0x24 PUSH1 0x0 REVERT JUMPDEST PUSH1 0x0 PUSH3 0xA11 DUP3 PUSH3 0x7A0 JUMP JUMPDEST SWAP2 POP PUSH3 0xA1E DUP4 PUSH3 0x7A0 JUMP JUMPDEST SWAP3 POP DUP3 DUP3 ADD SWAP1 POP DUP1 DUP3 GT ISZERO PUSH3 0xA39 JUMPI PUSH3 0xA38 PUSH3 0x9D5 JUMP JUMPDEST JUMPDEST SWAP3 SWAP2 POP POP JUMP JUMPDEST PUSH1 0x0 PUSH3 0xA4C DUP3 PUSH3 0x7A0 JUMP JUMPDEST SWAP2 POP PUSH3 0xA59 DUP4 PUSH3 0x7A0 JUMP JUMPDEST SWAP3 POP DUP3 DUP3 MUL PUSH3 0xA69 DUP2 PUSH3 0x7A0 JUMP JUMPDEST SWAP2 POP DUP3 DUP3 DIV DUP5 EQ DUP4 ISZERO OR PUSH3 0xA83 JUMPI PUSH3 0xA82 PUSH3 0x9D5 JUMP JUMPDEST JUMPDEST POP SWAP3 SWAP2 POP POP JUMP JUMPDEST PUSH1 0x0 PUSH3 0xA97 DUP3 PUSH3 0x7A0 JUMP JUMPDEST SWAP2 POP PUSH3 0xAA4 DUP4 PUSH3 0x7A0 JUMP JUMPDEST SWAP3 POP DUP3 DUP3 SUB SWAP1 POP DUP2 DUP2 GT ISZERO PUSH3 0xABF JUMPI PUSH3 0xABE PUSH3 0x9D5 JUMP JUMPDEST JUMPDEST SWAP3 SWAP2 POP POP JUMP JUMPDEST PUSH1 0x0 PUSH1 0xFF DUP3 AND SWAP1 POP SWAP2 SWAP1 POP JUMP JUMPDEST PUSH3 0xADD DUP2 PUSH3 0xAC5 JUMP JUMPDEST DUP2 EQ PUSH3 0xAE9 JUMPI PUSH1 0x0 DUP1 REVERT JUMPDEST POP JUMP JUMPDEST PUSH1 0x0 DUP2 MLOAD SWAP1 POP PUSH3 0xAFD DUP2 PUSH3 0xAD2 JUMP JUMPDEST SWAP3 SWAP2 POP POP JUMP JUMPDEST PUSH1 0x0 PUSH1 0x20 DUP3 DUP5 SUB SLT ISZERO PUSH3 0xB1C JUMPI PUSH3 0xB1B PUSH3 0x736 JUMP JUMPDEST JUMPDEST PUSH1 0x0 PUSH3 0xB2C DUP5 DUP3 DUP6 ADD PUSH3 0xAEC JUMP JUMPDEST SWAP2 POP POP SWAP3 SWAP2 POP POP JUMP JUMPDEST PUSH1 0x0 DUP2 PUSH1 0x1 SHR SWAP1 POP SWAP2 SWAP1 POP JUMP JUMPDEST PUSH1 0x0 DUP1 DUP3 SWAP2 POP DUP4 SWAP1 POP JUMPDEST PUSH1 0x1 DUP6 GT ISZERO PUSH3 0xB94 JUMPI DUP1 DUP7 DIV DUP2 GT ISZERO PUSH3 0xB6C JUMPI PUSH3 0xB6B PUSH3 0x9D5 JUMP JUMPDEST JUMPDEST PUSH1 0x1 DUP6 AND ISZERO PUSH3 0xB7C JUMPI DUP1 DUP3 MUL SWAP2 POP JUMPDEST DUP1 DUP2 MUL SWAP1 POP PUSH3 0xB8C DUP6 PUSH3 0xB35 JUMP JUMPDEST SWAP5 POP PUSH3 0xB4C JUMP JUMPDEST SWAP5 POP SWAP5 SWAP3 POP POP POP JUMP JUMPDEST PUSH1 0x0 DUP3 PUSH3 0xBAF JUMPI PUSH1 0x1 SWAP1 POP PUSH3 0xC82 JUMP JUMPDEST DUP2 PUSH3 0xBBF JUMPI PUSH1 0x0 SWAP1 POP PUSH3 0xC82 JUMP JUMPDEST DUP2 PUSH1 0x1 DUP2 EQ PUSH3 0xBD8 JUMPI PUSH1 0x2 DUP2 EQ PUSH3 0xBE3 JUMPI PUSH3 0xC19 JUMP JUMPDEST PUSH1 0x1 SWAP2 POP POP PUSH3 0xC82 JUMP JUMPDEST PUSH1 0xFF DUP5 GT ISZERO PUSH3 0xBF8 JUMPI PUSH3 0xBF7 PUSH3 0x9D5 JUMP JUMPDEST JUMPDEST DUP4 PUSH1 0x2 EXP SWAP2 POP DUP5 DUP3 GT ISZERO PUSH3 0xC12 JUMPI PUSH3 0xC11 PUSH3 0x9D5 JUMP JUMPDEST JUMPDEST POP PUSH3 0xC82 JUMP JUMPDEST POP PUSH1 0x20 DUP4 LT PUSH2 0x133 DUP4 LT AND PUSH1 0x4E DUP5 LT PUSH1 0xB DUP5 LT AND OR ISZERO PUSH3 0xC53 JUMPI DUP3 DUP3 EXP SWAP1 POP DUP4 DUP2 GT ISZERO PUSH3 0xC4D JUMPI PUSH3 0xC4C PUSH3 0x9D5 JUMP JUMPDEST JUMPDEST PUSH3 0xC82 JUMP JUMPDEST PUSH3 0xC62 DUP5 DUP5 DUP5 PUSH1 0x1 PUSH3 0xB42 JUMP JUMPDEST SWAP3 POP SWAP1 POP DUP2 DUP5 DIV DUP2 GT ISZERO PUSH3 0xC7C JUMPI PUSH3 0xC7B PUSH3 0x9D5 JUMP JUMPDEST JUMPDEST DUP2 DUP2 MUL SWAP1 POP JUMPDEST SWAP4 SWAP3 POP POP POP JUMP JUMPDEST PUSH1 0x0 PUSH3 0xC96 DUP3 PUSH3 0x7A0 JUMP JUMPDEST SWAP2 POP PUSH3 0xCA3 DUP4 PUSH3 0xAC5 JUMP JUMPDEST SWAP3 POP PUSH3 0xCD2 PUSH32 0xFFFFFFFFFFFFFFFFFFFFFFFFFFFFFFFFFFFFFFFFFFFFFFFFFFFFFFFFFFFFFFFF DUP5 DUP5 PUSH3 0xB9D JUMP JUMPDEST SWAP1 POP SWAP3 SWAP2 POP POP JUMP JUMPDEST PUSH32 0x4E487B7100000000000000000000000000000000000000000000000000000000 PUSH1 0x0 MSTORE PUSH1 0x12 PUSH1 0x4 MSTORE PUSH1 0x24 PUSH1 0x0 REVERT JUMPDEST PUSH1 0x0 PUSH3 0xD16 DUP3 PUSH3 0x7A0 JUMP JUMPDEST SWAP2 POP PUSH3 0xD23 DUP4 PUSH3 0x7A0 JUMP JUMPDEST SWAP3 POP DUP3 PUSH3 0xD36 JUMPI PUSH3 0xD35 PUSH3 0xCDA JUMP JUMPDEST JUMPDEST DUP3 DUP3 DIV SWAP1 POP SWAP3 SWAP2 POP POP JUMP JUMPDEST PUSH2 0x1545 DUP1 PUSH3 0xD51 PUSH1 0x0 CODECOPY PUSH1 0x0 RETURN INVALID PUSH1 0x80 PUSH1 0x40 MSTORE CALLVALUE DUP1 ISZERO PUSH2 0x10 JUMPI PUSH1 0x0 DUP1 REVERT JUMPDEST POP PUSH1 0x4 CALLDATASIZE LT PUSH2 0x116 JUMPI PUSH1 0x0 CALLDATALOAD PUSH1 0xE0 SHR DUP1 PUSH4 0x8DA5CB5B GT PUSH2 0xA2 JUMPI DUP1 PUSH4 0xC45A0155 GT PUSH2 0x71 JUMPI DUP1 PUSH4 0xC45A0155 EQ PUSH2 0x2B1 JUMPI DUP1 PUSH4 0xD21220A7 EQ PUSH2 0x2CF JUMPI DUP1 PUSH4 0xEC1893B4 EQ PUSH2 0x2ED JUMPI DUP1 PUSH4 0xEF3501B9 EQ PUSH2 0x30B JUMPI DUP1 PUSH4 0xF2FDE38B EQ PUSH2 0x329 JUMPI PUSH2 0x116 JUMP JUMPDEST DUP1 PUSH4 0x8DA5CB5B EQ PUSH2 0x227 JUMPI DUP1 PUSH4 0x9F8E55D6 EQ PUSH2 0x245 JUMPI DUP1 PUSH4 0xAFF56C14 EQ PUSH2 0x275 JUMPI DUP1 PUSH4 0xB0E21E8A EQ PUSH2 0x293 JUMPI PUSH2 0x116 JUMP JUMPDEST DUP1 PUSH4 0x364ABC3D GT PUSH2 0xE9 JUMPI DUP1 PUSH4 0x364ABC3D EQ PUSH2 0x1A5 JUMPI DUP1 PUSH4 0x4273601C EQ PUSH2 0x1C3 JUMPI DUP1 PUSH4 0x5A656C24 EQ PUSH2 0x1E1 JUMPI DUP1 PUSH4 0x715018A6 EQ PUSH2 0x1FF JUMPI DUP1 PUSH4 0x7C07A380 EQ PUSH2 0x209 JUMPI PUSH2 0x116 JUMP JUMPDEST DUP1 PUSH4 0x4786AB4 EQ PUSH2 0x11B JUMPI DUP1 PUSH4 0xDFE1681 EQ PUSH2 0x14B JUMPI DUP1 PUSH4 0x13724B70 EQ PUSH2 0x169 JUMPI DUP1 PUSH4 0x1CF2128C EQ PUSH2 0x187 JUMPI JUMPDEST PUSH1 0x0 DUP1 REVERT JUMPDEST PUSH2 0x135 PUSH1 0x4 DUP1 CALLDATASIZE SUB DUP2 ADD SWAP1 PUSH2 0x130 SWAP2 SWAP1 PUSH2 0xF07 JUMP JUMPDEST PUSH2 0x345 JUMP JUMPDEST PUSH1 0x40 MLOAD PUSH2 0x142 SWAP2 SWAP1 PUSH2 0xF43 JUMP JUMPDEST PUSH1 0x40 MLOAD DUP1 SWAP2 SUB SWAP1 RETURN JUMPDEST PUSH2 0x153 PUSH2 0x584 JUMP JUMPDEST PUSH1 0x40 MLOAD PUSH2 0x160 SWAP2 SWAP1 PUSH2 0xF9F JUMP JUMPDEST PUSH1 0x40 MLOAD DUP1 SWAP2 SUB SWAP1 RETURN JUMPDEST PUSH2 0x171 PUSH2 0x5AA JUMP JUMPDEST PUSH1 0x40 MLOAD PUSH2 0x17E SWAP2 SWAP1 PUSH2 0xF43 JUMP JUMPDEST PUSH1 0x40 MLOAD DUP1 SWAP2 SUB SWAP1 RETURN JUMPDEST PUSH2 0x18F PUSH2 0x5B0 JUMP JUMPDEST PUSH1 0x40 MLOAD PUSH2 0x19C SWAP2 SWAP1 PUSH2 0xF43 JUMP JUMPDEST PUSH1 0x40 MLOAD DUP1 SWAP2 SUB SWAP1 RETURN JUMPDEST PUSH2 0x1AD PUSH2 0x5B6 JUMP JUMPDEST PUSH1 0x40 MLOAD PUSH2 0x1BA SWAP2 SWAP1 PUSH2 0xF43 JUMP JUMPDEST PUSH1 0x40 MLOAD DUP1 SWAP2 SUB SWAP1 RETURN JUMPDEST PUSH2 0x1CB PUSH2 0x5BC JUMP JUMPDEST PUSH1 0x40 MLOAD PUSH2 0x1D8 SWAP2 SWAP1 PUSH2 0xF9F JUMP JUMPDEST PUSH1 0x40 MLOAD DUP1 SWAP2 SUB SWAP1 RETURN JUMPDEST PUSH2 0x1E9 PUSH2 0x5E2 JUMP JUMPDEST PUSH1 0x40 MLOAD PUSH2 0x1F6 SWAP2 SWAP1 PUSH2 0xF43 JUMP JUMPDEST PUSH1 0x40 MLOAD DUP1 SWAP2 SUB SWAP1 RETURN JUMPDEST PUSH2 0x207 PUSH2 0x5E8 JUMP JUMPDEST STOP JUMPDEST PUSH2 0x211 PUSH2 0x5FC JUMP JUMPDEST PUSH1 0x40 MLOAD PUSH2 0x21E SWAP2 SWAP1 PUSH2 0xF43 JUMP JUMPDEST PUSH1 0x40 MLOAD DUP1 SWAP2 SUB SWAP1 RETURN JUMPDEST PUSH2 0x22F PUSH2 0x602 JUMP JUMPDEST PUSH1 0x40 MLOAD PUSH2 0x23C SWAP2 SWAP1 PUSH2 0xF9F JUMP JUMPDEST PUSH1 0x40 MLOAD DUP1 SWAP2 SUB SWAP1 RETURN JUMPDEST PUSH2 0x25F PUSH1 0x4 DUP1 CALLDATASIZE SUB DUP2 ADD SWAP1 PUSH2 0x25A SWAP2 SWAP1 PUSH2 0xF07 JUMP JUMPDEST PUSH2 0x62B JUMP JUMPDEST PUSH1 0x40 MLOAD PUSH2 0x26C SWAP2 SWAP1 PUSH2 0xF43 JUMP JUMPDEST PUSH1 0x40 MLOAD DUP1 SWAP2 SUB SWAP1 RETURN JUMPDEST PUSH2 0x27D PUSH2 0x86A JUMP JUMPDEST PUSH1 0x40 MLOAD PUSH2 0x28A SWAP2 SWAP1 PUSH2 0xF43 JUMP JUMPDEST PUSH1 0x40 MLOAD DUP1 SWAP2 SUB SWAP1 RETURN JUMPDEST PUSH2 0x29B PUSH2 0x870 JUMP JUMPDEST PUSH1 0x40 MLOAD PUSH2 0x2A8 SWAP2 SWAP1 PUSH2 0xF43 JUMP JUMPDEST PUSH1 0x40 MLOAD DUP1 SWAP2 SUB SWAP1 RETURN JUMPDEST PUSH2 0x2B9 PUSH2 0x876 JUMP JUMPDEST PUSH1 0x40 MLOAD PUSH2 0x2C6 SWAP2 SWAP1 PUSH2 0xF9F JUMP JUMPDEST PUSH1 0x40 MLOAD DUP1 SWAP2 SUB SWAP1 RETURN JUMPDEST PUSH2 0x2D7 PUSH2 0x89C JUMP JUMPDEST PUSH1 0x40 MLOAD PUSH2 0x2E4 SWAP2 SWAP1 PUSH2 0xF9F JUMP JUMPDEST PUSH1 0x40 MLOAD DUP1 SWAP2 SUB SWAP1 RETURN JUMPDEST PUSH2 0x2F5 PUSH2 0x8C2 JUMP JUMPDEST PUSH1 0x40 MLOAD PUSH2 0x302 SWAP2 SWAP1 PUSH2 0x102D JUMP JUMPDEST PUSH1 0x40 MLOAD DUP1 SWAP2 SUB SWAP1 RETURN JUMPDEST PUSH2 0x313 PUSH2 0xA9C JUMP JUMPDEST PUSH1 0x40 MLOAD PUSH2 0x320 SWAP2 SWAP1 PUSH2 0xF43 JUMP JUMPDEST PUSH1 0x40 MLOAD DUP1 SWAP2 SUB SWAP1 RETURN JUMPDEST PUSH2 0x343 PUSH1 0x4 DUP1 CALLDATASIZE SUB DUP2 ADD SWAP1 PUSH2 0x33E SWAP2 SWAP1 PUSH2 0x1074 JUMP JUMPDEST PUSH2 0xAA2 JUMP JUMPDEST STOP JUMPDEST PUSH1 0x0 DUP1 PUSH1 0x3 PUSH1 0x0 SWAP1 SLOAD SWAP1 PUSH2 0x100 EXP SWAP1 DIV PUSH20 0xFFFFFFFFFFFFFFFFFFFFFFFFFFFFFFFFFFFFFFFF AND PUSH20 0xFFFFFFFFFFFFFFFFFFFFFFFFFFFFFFFFFFFFFFFF AND PUSH4 0x70A08231 ADDRESS PUSH1 0x40 MLOAD DUP3 PUSH4 0xFFFFFFFF AND PUSH1 0xE0 SHL DUP2 MSTORE PUSH1 0x4 ADD PUSH2 0x3A3 SWAP2 SWAP1 PUSH2 0xF9F JUMP JUMPDEST PUSH1 0x20 PUSH1 0x40 MLOAD DUP1 DUP4 SUB DUP2 DUP7 GAS STATICCALL ISZERO DUP1 ISZERO PUSH2 0x3C0 JUMPI RETURNDATASIZE PUSH1 0x0 DUP1 RETURNDATACOPY RETURNDATASIZE PUSH1 0x0 REVERT JUMPDEST POP POP POP POP PUSH1 0x40 MLOAD RETURNDATASIZE PUSH1 0x1F NOT PUSH1 0x1F DUP3 ADD AND DUP3 ADD DUP1 PUSH1 0x40 MSTORE POP DUP2 ADD SWAP1 PUSH2 0x3E4 SWAP2 SWAP1 PUSH2 0x10B6 JUMP JUMPDEST SWAP1 POP PUSH1 0x0 PUSH1 0x4 PUSH1 0x0 SWAP1 SLOAD SWAP1 PUSH2 0x100 EXP SWAP1 DIV PUSH20 0xFFFFFFFFFFFFFFFFFFFFFFFFFFFFFFFFFFFFFFFF AND PUSH20 0xFFFFFFFFFFFFFFFFFFFFFFFFFFFFFFFFFFFFFFFF AND PUSH4 0x70A08231 ADDRESS PUSH1 0x40 MLOAD DUP3 PUSH4 0xFFFFFFFF AND PUSH1 0xE0 SHL DUP2 MSTORE PUSH1 0x4 ADD PUSH2 0x443 SWAP2 SWAP1 PUSH2 0xF9F JUMP JUMPDEST PUSH1 0x20 PUSH1 0x40 MLOAD DUP1 DUP4 SUB DUP2 DUP7 GAS STATICCALL ISZERO DUP1 ISZERO PUSH2 0x460 JUMPI RETURNDATASIZE PUSH1 0x0 DUP1 RETURNDATACOPY RETURNDATASIZE PUSH1 0x0 REVERT JUMPDEST POP POP POP POP PUSH1 0x40 MLOAD RETURNDATASIZE PUSH1 0x1F NOT PUSH1 0x1F DUP3 ADD AND DUP3 ADD DUP1 PUSH1 0x40 MSTORE POP DUP2 ADD SWAP1 PUSH2 0x484 SWAP2 SWAP1 PUSH2 0x10B6 JUMP JUMPDEST SWAP1 POP PUSH1 0x0 PUSH1 0x4 PUSH1 0x0 SWAP1 SLOAD SWAP1 PUSH2 0x100 EXP SWAP1 DIV PUSH20 0xFFFFFFFFFFFFFFFFFFFFFFFFFFFFFFFFFFFFFFFF AND PUSH20 0xFFFFFFFFFFFFFFFFFFFFFFFFFFFFFFFFFFFFFFFF AND PUSH4 0x313CE567 PUSH1 0x40 MLOAD DUP2 PUSH4 0xFFFFFFFF AND PUSH1 0xE0 SHL DUP2 MSTORE PUSH1 0x4 ADD PUSH1 0x20 PUSH1 0x40 MLOAD DUP1 DUP4 SUB DUP2 DUP7 GAS STATICCALL ISZERO DUP1 ISZERO PUSH2 0x4F5 JUMPI RETURNDATASIZE PUSH1 0x0 DUP1 RETURNDATACOPY RETURNDATASIZE PUSH1 0x0 REVERT JUMPDEST POP POP POP POP PUSH1 0x40 MLOAD RETURNDATASIZE PUSH1 0x1F NOT PUSH1 0x1F DUP3 ADD AND DUP3 ADD DUP1 PUSH1 0x40 MSTORE POP DUP2 ADD SWAP1 PUSH2 0x519 SWAP2 SWAP1 PUSH2 0x111C JUMP JUMPDEST SWAP1 POP PUSH1 0x0 DUP2 PUSH1 0xA PUSH2 0x52A SWAP2 SWAP1 PUSH2 0x12AB JUMP JUMPDEST DUP7 PUSH2 0x535 SWAP2 SWAP1 PUSH2 0x12F6 JUMP JUMPDEST DUP4 PUSH2 0x540 SWAP2 SWAP1 PUSH2 0x1338 JUMP JUMPDEST SWAP1 POP PUSH1 0x0 PUSH1 0x7 SLOAD PUSH2 0x560 PUSH1 0x9 SLOAD PUSH1 0x8 SLOAD DUP6 PUSH2 0x55B SWAP2 SWAP1 PUSH2 0x1338 JUMP JUMPDEST PUSH2 0xB25 JUMP JUMPDEST PUSH2 0x56A SWAP2 SWAP1 PUSH2 0x136C JUMP JUMPDEST SWAP1 POP DUP1 DUP6 PUSH2 0x578 SWAP2 SWAP1 PUSH2 0x136C JUMP JUMPDEST SWAP6 POP POP POP POP POP POP SWAP2 SWAP1 POP JUMP JUMPDEST PUSH1 0x3 PUSH1 0x0 SWAP1 SLOAD SWAP1 PUSH2 0x100 EXP SWAP1 DIV PUSH20 0xFFFFFFFFFFFFFFFFFFFFFFFFFFFFFFFFFFFFFFFF AND DUP2 JUMP JUMPDEST PUSH1 0x6 SLOAD DUP2 JUMP JUMPDEST PUSH1 0x8 SLOAD DUP2 JUMP JUMPDEST PUSH1 0xB SLOAD DUP2 JUMP JUMPDEST PUSH1 0x2 PUSH1 0x0 SWAP1 SLOAD SWAP1 PUSH2 0x100 EXP SWAP1 DIV PUSH20 0xFFFFFFFFFFFFFFFFFFFFFFFFFFFFFFFFFFFFFFFF AND DUP2 JUMP JUMPDEST PUSH1 0x9 SLOAD DUP2 JUMP JUMPDEST PUSH2 0x5F0 PUSH2 0xC34 JUMP JUMPDEST PUSH2 0x5FA PUSH1 0x0 PUSH2 0xCB2 JUMP JUMPDEST JUMP JUMPDEST PUSH1 0x5 SLOAD DUP2 JUMP JUMPDEST PUSH1 0x0 DUP1 PUSH1 0x0 SWAP1 SLOAD SWAP1 PUSH2 0x100 EXP SWAP1 DIV PUSH20 0xFFFFFFFFFFFFFFFFFFFFFFFFFFFFFFFFFFFFFFFF AND SWAP1 POP SWAP1 JUMP JUMPDEST PUSH1 0x0 DUP1 PUSH1 0x3 PUSH1 0x0 SWAP1 SLOAD SWAP1 PUSH2 0x100 EXP SWAP1 DIV PUSH20 0xFFFFFFFFFFFFFFFFFFFFFFFFFFFFFFFFFFFFFFFF AND PUSH20 0xFFFFFFFFFFFFFFFFFFFFFFFFFFFFFFFFFFFFFFFF AND PUSH4 0x70A08231 ADDRESS PUSH1 0x40 MLOAD DUP3 PUSH4 0xFFFFFFFF AND PUSH1 0xE0 SHL DUP2 MSTORE PUSH1 0x4 ADD PUSH2 0x689 SWAP2 SWAP1 PUSH2 0xF9F JUMP JUMPDEST PUSH1 0x20 PUSH1 0x40 MLOAD DUP1 DUP4 SUB DUP2 DUP7 GAS STATICCALL ISZERO DUP1 ISZERO PUSH2 0x6A6 JUMPI RETURNDATASIZE PUSH1 0x0 DUP1 RETURNDATACOPY RETURNDATASIZE PUSH1 0x0 REVERT JUMPDEST POP POP POP POP PUSH1 0x40 MLOAD RETURNDATASIZE PUSH1 0x1F NOT PUSH1 0x1F DUP3 ADD AND DUP3 ADD DUP1 PUSH1 0x40 MSTORE POP DUP2 ADD SWAP1 PUSH2 0x6CA SWAP2 SWAP1 PUSH2 0x10B6 JUMP JUMPDEST SWAP1 POP PUSH1 0x0 PUSH1 0x4 PUSH1 0x0 SWAP1 SLOAD SWAP1 PUSH2 0x100 EXP SWAP1 DIV PUSH20 0xFFFFFFFFFFFFFFFFFFFFFFFFFFFFFFFFFFFFFFFF AND PUSH20 0xFFFFFFFFFFFFFFFFFFFFFFFFFFFFFFFFFFFFFFFF AND PUSH4 0x70A08231 ADDRESS PUSH1 0x40 MLOAD DUP3 PUSH4 0xFFFFFFFF AND PUSH1 0xE0 SHL DUP2 MSTORE PUSH1 0x4 ADD PUSH2 0x729 SWAP2 SWAP1 PUSH2 0xF9F JUMP JUMPDEST PUSH1 0x20 PUSH1 0x40 MLOAD DUP1 DUP4 SUB DUP2 DUP7 GAS STATICCALL ISZERO DUP1 ISZERO PUSH2 0x746 JUMPI RETURNDATASIZE PUSH1 0x0 DUP1 RETURNDATACOPY RETURNDATASIZE PUSH1 0x0 REVERT JUMPDEST POP POP POP POP PUSH1 0x40 MLOAD RETURNDATASIZE PUSH1 0x1F NOT PUSH1 0x1F DUP3 ADD AND DUP3 ADD DUP1 PUSH1 0x40 MSTORE POP DUP2 ADD SWAP1 PUSH2 0x76A SWAP2 SWAP1 PUSH2 0x10B6 JUMP JUMPDEST SWAP1 POP PUSH1 0x0 PUSH1 0x3 PUSH1 0x0 SWAP1 SLOAD SWAP1 PUSH2 0x100 EXP SWAP1 DIV PUSH20 0xFFFFFFFFFFFFFFFFFFFFFFFFFFFFFFFFFFFFFFFF AND PUSH20 0xFFFFFFFFFFFFFFFFFFFFFFFFFFFFFFFFFFFFFFFF AND PUSH4 0x313CE567 PUSH1 0x40 MLOAD DUP2 PUSH4 0xFFFFFFFF AND PUSH1 0xE0 SHL DUP2 MSTORE PUSH1 0x4 ADD PUSH1 0x20 PUSH1 0x40 MLOAD DUP1 DUP4 SUB DUP2 DUP7 GAS STATICCALL ISZERO DUP1 ISZERO PUSH2 0x7DB JUMPI RETURNDATASIZE PUSH1 0x0 DUP1 RETURNDATACOPY RETURNDATASIZE PUSH1 0x0 REVERT JUMPDEST POP POP POP POP PUSH1 0x40 MLOAD RETURNDATASIZE PUSH1 0x1F NOT PUSH1 0x1F DUP3 ADD AND DUP3 ADD DUP1 PUSH1 0x40 MSTORE POP DUP2 ADD SWAP1 PUSH2 0x7FF SWAP2 SWAP1 PUSH2 0x111C JUMP JUMPDEST SWAP1 POP PUSH1 0x0 DUP2 PUSH1 0xA PUSH2 0x810 SWAP2 SWAP1 PUSH2 0x12AB JUMP JUMPDEST DUP7 PUSH2 0x81B SWAP2 SWAP1 PUSH2 0x12F6 JUMP JUMPDEST DUP5 PUSH2 0x826 SWAP2 SWAP1 PUSH2 0x1338 JUMP JUMPDEST SWAP1 POP PUSH1 0x0 PUSH1 0x8 SLOAD PUSH2 0x846 PUSH1 0x9 SLOAD PUSH1 0x7 SLOAD DUP6 PUSH2 0x841 SWAP2 SWAP1 PUSH2 0x1338 JUMP JUMPDEST PUSH2 0xB25 JUMP JUMPDEST PUSH2 0x850 SWAP2 SWAP1 PUSH2 0x136C JUMP JUMPDEST SWAP1 POP DUP1 DUP5 PUSH2 0x85E SWAP2 SWAP1 PUSH2 0x136C JUMP JUMPDEST SWAP6 POP POP POP POP POP POP SWAP2 SWAP1 POP JUMP JUMPDEST PUSH1 0x7 SLOAD DUP2 JUMP JUMPDEST PUSH1 0xC SLOAD DUP2 JUMP JUMPDEST PUSH1 0x1 PUSH1 0x0 SWAP1 SLOAD SWAP1 PUSH2 0x100 EXP SWAP1 DIV PUSH20 0xFFFFFFFFFFFFFFFFFFFFFFFFFFFFFFFFFFFFFFFF AND DUP2 JUMP JUMPDEST PUSH1 0x4 PUSH1 0x0 SWAP1 SLOAD SWAP1 PUSH2 0x100 EXP SWAP1 DIV PUSH20 0xFFFFFFFFFFFFFFFFFFFFFFFFFFFFFFFFFFFFFFFF AND DUP2 JUMP JUMPDEST PUSH2 0x8CA PUSH2 0xE78 JUMP JUMPDEST PUSH1 0x0 PUSH1 0x40 MLOAD DUP1 PUSH1 0x80 ADD PUSH1 0x40 MSTORE DUP1 PUSH1 0x3 PUSH1 0x0 SWAP1 SLOAD SWAP1 PUSH2 0x100 EXP SWAP1 DIV PUSH20 0xFFFFFFFFFFFFFFFFFFFFFFFFFFFFFFFFFFFFFFFF AND PUSH20 0xFFFFFFFFFFFFFFFFFFFFFFFFFFFFFFFFFFFFFFFF AND DUP2 MSTORE PUSH1 0x20 ADD PUSH1 0x4 PUSH1 0x0 SWAP1 SLOAD SWAP1 PUSH2 0x100 EXP SWAP1 DIV PUSH20 0xFFFFFFFFFFFFFFFFFFFFFFFFFFFFFFFFFFFFFFFF AND PUSH20 0xFFFFFFFFFFFFFFFFFFFFFFFFFFFFFFFFFFFFFFFF AND DUP2 MSTORE PUSH1 0x20 ADD PUSH1 0x3 PUSH1 0x0 SWAP1 SLOAD SWAP1 PUSH2 0x100 EXP SWAP1 DIV PUSH20 0xFFFFFFFFFFFFFFFFFFFFFFFFFFFFFFFFFFFFFFFF AND PUSH20 0xFFFFFFFFFFFFFFFFFFFFFFFFFFFFFFFFFFFFFFFF AND PUSH4 0x70A08231 ADDRESS PUSH1 0x40 MLOAD DUP3 PUSH4 0xFFFFFFFF AND PUSH1 0xE0 SHL DUP2 MSTORE PUSH1 0x4 ADD PUSH2 0x9AE SWAP2 SWAP1 PUSH2 0xF9F JUMP JUMPDEST PUSH1 0x20 PUSH1 0x40 MLOAD DUP1 DUP4 SUB DUP2 DUP7 GAS STATICCALL ISZERO DUP1 ISZERO PUSH2 0x9CB JUMPI RETURNDATASIZE PUSH1 0x0 DUP1 RETURNDATACOPY RETURNDATASIZE PUSH1 0x0 REVERT JUMPDEST POP POP POP POP PUSH1 0x40 MLOAD RETURNDATASIZE PUSH1 0x1F NOT PUSH1 0x1F DUP3 ADD AND DUP3 ADD DUP1 PUSH1 0x40 MSTORE POP DUP2 ADD SWAP1 PUSH2 0x9EF SWAP2 SWAP1 PUSH2 0x10B6 JUMP JUMPDEST DUP2 MSTORE PUSH1 0x20 ADD PUSH1 0x4 PUSH1 0x0 SWAP1 SLOAD SWAP1 PUSH2 0x100 EXP SWAP1 DIV PUSH20 0xFFFFFFFFFFFFFFFFFFFFFFFFFFFFFFFFFFFFFFFF AND PUSH20 0xFFFFFFFFFFFFFFFFFFFFFFFFFFFFFFFFFFFFFFFF AND PUSH4 0x70A08231 ADDRESS PUSH1 0x40 MLOAD DUP3 PUSH4 0xFFFFFFFF AND PUSH1 0xE0 SHL DUP2 MSTORE PUSH1 0x4 ADD PUSH2 0xA4F SWAP2 SWAP1 PUSH2 0xF9F JUMP JUMPDEST PUSH1 0x20 PUSH1 0x40 MLOAD DUP1 DUP4 SUB DUP2 DUP7 GAS STATICCALL ISZERO DUP1 ISZERO PUSH2 0xA6C JUMPI RETURNDATASIZE PUSH1 0x0 DUP1 RETURNDATACOPY RETURNDATASIZE PUSH1 0x0 REVERT JUMPDEST POP POP POP POP PUSH1 0x40 MLOAD RETURNDATASIZE PUSH1 0x1F NOT PUSH1 0x1F DUP3 ADD AND DUP3 ADD DUP1 PUSH1 0x40 MSTORE POP DUP2 ADD SWAP1 PUSH2 0xA90 SWAP2 SWAP1 PUSH2 0x10B6 JUMP JUMPDEST DUP2 MSTORE POP SWAP1 POP DUP1 SWAP2 POP POP SWAP1 JUMP JUMPDEST PUSH1 0xA SLOAD DUP2 JUMP JUMPDEST PUSH2 0xAAA PUSH2 0xC34 JUMP JUMPDEST PUSH1 0x0 PUSH20 0xFFFFFFFFFFFFFFFFFFFFFFFFFFFFFFFFFFFFFFFF AND DUP2 PUSH20 0xFFFFFFFFFFFFFFFFFFFFFFFFFFFFFFFFFFFFFFFF AND SUB PUSH2 0xB19 JUMPI PUSH1 0x40 MLOAD PUSH32 0x8C379A000000000000000000000000000000000000000000000000000000000 DUP2 MSTORE PUSH1 0x4 ADD PUSH2 0xB10 SWAP1 PUSH2 0x1423 JUMP JUMPDEST PUSH1 0x40 MLOAD DUP1 SWAP2 SUB SWAP1 REVERT JUMPDEST PUSH2 0xB22 DUP2 PUSH2 0xCB2 JUMP JUMPDEST POP JUMP JUMPDEST PUSH1 0x0 DUP2 DUP4 PUSH2 0xB33 SWAP2 SWAP1 PUSH2 0x1472 JUMP JUMPDEST SWAP1 POP SWAP3 SWAP2 POP POP JUMP JUMPDEST PUSH1 0x0 DUP1 DUP3 SUB PUSH2 0xB4D JUMPI PUSH1 0x0 SWAP1 POP PUSH2 0xC2F JUMP JUMPDEST PUSH1 0x0 PUSH1 0x1 PUSH2 0xB5A DUP5 PUSH2 0xD76 JUMP JUMPDEST SWAP1 SHR PUSH1 0x1 SWAP1 SHL SWAP1 POP PUSH1 0x1 DUP2 DUP5 DUP2 PUSH2 0xB74 JUMPI PUSH2 0xB73 PUSH2 0x1443 JUMP JUMPDEST JUMPDEST DIV DUP3 ADD SWAP1 SHR SWAP1 POP PUSH1 0x1 DUP2 DUP5 DUP2 PUSH2 0xB8D JUMPI PUSH2 0xB8C PUSH2 0x1443 JUMP JUMPDEST JUMPDEST DIV DUP3 ADD SWAP1 SHR SWAP1 POP PUSH1 0x1 DUP2 DUP5 DUP2 PUSH2 0xBA6 JUMPI PUSH2 0xBA5 PUSH2 0x1443 JUMP JUMPDEST JUMPDEST DIV DUP3 ADD SWAP1 SHR SWAP1 POP PUSH1 0x1 DUP2 DUP5 DUP2 PUSH2 0xBBF JUMPI PUSH2 0xBBE PUSH2 0x1443 JUMP JUMPDEST JUMPDEST DIV DUP3 ADD SWAP1 SHR SWAP1 POP PUSH1 0x1 DUP2 DUP5 DUP2 PUSH2 0xBD8 JUMPI PUSH2 0xBD7 PUSH2 0x1443 JUMP JUMPDEST JUMPDEST DIV DUP3 ADD SWAP1 SHR SWAP1 POP PUSH1 0x1 DUP2 DUP5 DUP2 PUSH2 0xBF1 JUMPI PUSH2 0xBF0 PUSH2 0x1443 JUMP JUMPDEST JUMPDEST DIV DUP3 ADD SWAP1 SHR SWAP1 POP PUSH1 0x1 DUP2 DUP5 DUP2 PUSH2 0xC0A JUMPI PUSH2 0xC09 PUSH2 0x1443 JUMP JUMPDEST JUMPDEST DIV DUP3 ADD SWAP1 SHR SWAP1 POP PUSH2 0xC2B DUP2 DUP3 DUP6 DUP2 PUSH2 0xC25 JUMPI PUSH2 0xC24 PUSH2 0x1443 JUMP JUMPDEST JUMPDEST DIV PUSH2 0xE57 JUMP JUMPDEST SWAP2 POP POP JUMPDEST SWAP2 SWAP1 POP JUMP JUMPDEST PUSH2 0xC3C PUSH2 0xE70 JUMP JUMPDEST PUSH20 0xFFFFFFFFFFFFFFFFFFFFFFFFFFFFFFFFFFFFFFFF AND PUSH2 0xC5A PUSH2 0x602 JUMP JUMPDEST PUSH20 0xFFFFFFFFFFFFFFFFFFFFFFFFFFFFFFFFFFFFFFFF AND EQ PUSH2 0xCB0 JUMPI PUSH1 0x40 MLOAD PUSH32 0x8C379A000000000000000000000000000000000000000000000000000000000 DUP2 MSTORE PUSH1 0x4 ADD PUSH2 0xCA7 SWAP1 PUSH2 0x14EF JUMP JUMPDEST PUSH1 0x40 MLOAD DUP1 SWAP2 SUB SWAP1 REVERT JUMPDEST JUMP JUMPDEST PUSH1 0x0 DUP1 PUSH1 0x0 SWAP1 SLOAD SWAP1 PUSH2 0x100 EXP SWAP1 DIV PUSH20 0xFFFFFFFFFFFFFFFFFFFFFFFFFFFFFFFFFFFFFFFF AND SWAP1 POP DUP2 PUSH1 0x0 DUP1 PUSH2 0x100 EXP DUP2 SLOAD DUP2 PUSH20 0xFFFFFFFFFFFFFFFFFFFFFFFFFFFFFFFFFFFFFFFF MUL NOT AND SWAP1 DUP4 PUSH20 0xFFFFFFFFFFFFFFFFFFFFFFFFFFFFFFFFFFFFFFFF AND MUL OR SWAP1 SSTORE POP DUP2 PUSH20 0xFFFFFFFFFFFFFFFFFFFFFFFFFFFFFFFFFFFFFFFF AND DUP2 PUSH20 0xFFFFFFFFFFFFFFFFFFFFFFFFFFFFFFFFFFFFFFFF AND PUSH32 0x8BE0079C531659141344CD1FD0A4F28419497F9722A3DAAFE3B4186F6B6457E0 PUSH1 0x40 MLOAD PUSH1 0x40 MLOAD DUP1 SWAP2 SUB SWAP1 LOG3 POP POP JUMP JUMPDEST PUSH1 0x0 DUP1 PUSH1 0x0 SWAP1 POP PUSH1 0x0 PUSH1 0x80 DUP5 SWAP1 SHR GT ISZERO PUSH2 0xD98 JUMPI PUSH1 0x80 DUP4 SWAP1 SHR SWAP3 POP PUSH1 0x80 DUP2 ADD SWAP1 POP JUMPDEST PUSH1 0x0 PUSH1 0x40 DUP5 SWAP1 SHR GT ISZERO PUSH2 0xDB3 JUMPI PUSH1 0x40 DUP4 SWAP1 SHR SWAP3 POP PUSH1 0x40 DUP2 ADD SWAP1 POP JUMPDEST PUSH1 0x0 PUSH1 0x20 DUP5 SWAP1 SHR GT ISZERO PUSH2 0xDCE JUMPI PUSH1 0x20 DUP4 SWAP1 SHR SWAP3 POP PUSH1 0x20 DUP2 ADD SWAP1 POP JUMPDEST PUSH1 0x0 PUSH1 0x10 DUP5 SWAP1 SHR GT ISZERO PUSH2 0xDE9 JUMPI PUSH1 0x10 DUP4 SWAP1 SHR SWAP3 POP PUSH1 0x10 DUP2 ADD SWAP1 POP JUMPDEST PUSH1 0x0 PUSH1 0x8 DUP5 SWAP1 SHR GT ISZERO PUSH2 0xE04 JUMPI PUSH1 0x8 DUP4 SWAP1 SHR SWAP3 POP PUSH1 0x8 DUP2 ADD SWAP1 POP JUMPDEST PUSH1 0x0 PUSH1 0x4 DUP5 SWAP1 SHR GT ISZERO PUSH2 0xE1F JUMPI PUSH1 0x4 DUP4 SWAP1 SHR SWAP3 POP PUSH1 0x4 DUP2 ADD SWAP1 POP JUMPDEST PUSH1 0x0 PUSH1 0x2 DUP5 SWAP1 SHR GT ISZERO PUSH2 0xE3A JUMPI PUSH1 0x2 DUP4 SWAP1 SHR SWAP3 POP PUSH1 0x2 DUP2 ADD SWAP1 POP JUMPDEST PUSH1 0x0 PUSH1 0x1 DUP5 SWAP1 SHR GT ISZERO PUSH2 0xE4E JUMPI PUSH1 0x1 DUP2 ADD SWAP1 POP JUMPDEST DUP1 SWAP2 POP POP SWAP2 SWAP1 POP JUMP JUMPDEST PUSH1 0x0 DUP2 DUP4 LT PUSH2 0xE66 JUMPI DUP2 PUSH2 0xE68 JUMP JUMPDEST DUP3 JUMPDEST SWAP1 POP SWAP3 SWAP2 POP POP JUMP JUMPDEST PUSH1 0x0 CALLER SWAP1 POP SWAP1 JUMP JUMPDEST PUSH1 0x40 MLOAD DUP1 PUSH1 0x80 ADD PUSH1 0x40 MSTORE DUP1 PUSH1 0x0 PUSH20 0xFFFFFFFFFFFFFFFFFFFFFFFFFFFFFFFFFFFFFFFF AND DUP2 MSTORE PUSH1 0x20 ADD PUSH1 0x0 PUSH20 0xFFFFFFFFFFFFFFFFFFFFFFFFFFFFFFFFFFFFFFFF AND DUP2 MSTORE PUSH1 0x20 ADD PUSH1 0x0 DUP2 MSTORE PUSH1 0x20 ADD PUSH1 0x0 DUP2 MSTORE POP SWAP1 JUMP JUMPDEST PUSH1 0x0 DUP1 REVERT JUMPDEST PUSH1 0x0 DUP2 SWAP1 POP SWAP2 SWAP1 POP JUMP JUMPDEST PUSH2 0xEE4 DUP2 PUSH2 0xED1 JUMP JUMPDEST DUP2 EQ PUSH2 0xEEF JUMPI PUSH1 0x0 DUP1 REVERT JUMPDEST POP JUMP JUMPDEST PUSH1 0x0 DUP2 CALLDATALOAD SWAP1 POP PUSH2 0xF01 DUP2 PUSH2 0xEDB JUMP JUMPDEST SWAP3 SWAP2 POP POP JUMP JUMPDEST PUSH1 0x0 PUSH1 0x20 DUP3 DUP5 SUB SLT ISZERO PUSH2 0xF1D JUMPI PUSH2 0xF1C PUSH2 0xECC JUMP JUMPDEST JUMPDEST PUSH1 0x0 PUSH2 0xF2B DUP5 DUP3 DUP6 ADD PUSH2 0xEF2 JUMP JUMPDEST SWAP2 POP POP SWAP3 SWAP2 POP POP JUMP JUMPDEST PUSH2 0xF3D DUP2 PUSH2 0xED1 JUMP JUMPDEST DUP3 MSTORE POP POP JUMP JUMPDEST PUSH1 0x0 PUSH1 0x20 DUP3 ADD SWAP1 POP PUSH2 0xF58 PUSH1 0x0 DUP4 ADD DUP5 PUSH2 0xF34 JUMP JUMPDEST SWAP3 SWAP2 POP POP JUMP JUMPDEST PUSH1 0x0 PUSH20 0xFFFFFFFFFFFFFFFFFFFFFFFFFFFFFFFFFFFFFFFF DUP3 AND SWAP1 POP SWAP2 SWAP1 POP JUMP JUMPDEST PUSH1 0x0 PUSH2 0xF89 DUP3 PUSH2 0xF5E JUMP JUMPDEST SWAP1 POP SWAP2 SWAP1 POP JUMP JUMPDEST PUSH2 0xF99 DUP2 PUSH2 0xF7E JUMP JUMPDEST DUP3 MSTORE POP POP JUMP JUMPDEST PUSH1 0x0 PUSH1 0x20 DUP3 ADD SWAP1 POP PUSH2 0xFB4 PUSH1 0x0 DUP4 ADD DUP5 PUSH2 0xF90 JUMP JUMPDEST SWAP3 SWAP2 POP POP JUMP JUMPDEST PUSH2 0xFC3 DUP2 PUSH2 0xF7E JUMP JUMPDEST DUP3 MSTORE POP POP JUMP JUMPDEST PUSH2 0xFD2 DUP2 PUSH2 0xED1 JUMP JUMPDEST DUP3 MSTORE POP POP JUMP JUMPDEST PUSH1 0x80 DUP3 ADD PUSH1 0x0 DUP3 ADD MLOAD PUSH2 0xFEE PUSH1 0x0 DUP6 ADD DUP3 PUSH2 0xFBA JUMP JUMPDEST POP PUSH1 0x20 DUP3 ADD MLOAD PUSH2 0x1001 PUSH1 0x20 DUP6 ADD DUP3 PUSH2 0xFBA JUMP JUMPDEST POP PUSH1 0x40 DUP3 ADD MLOAD PUSH2 0x1014 PUSH1 0x40 DUP6 ADD DUP3 PUSH2 0xFC9 JUMP JUMPDEST POP PUSH1 0x60 DUP3 ADD MLOAD PUSH2 0x1027 PUSH1 0x60 DUP6 ADD DUP3 PUSH2 0xFC9 JUMP JUMPDEST POP POP POP POP JUMP JUMPDEST PUSH1 0x0 PUSH1 0x80 DUP3 ADD SWAP1 POP PUSH2 0x1042 PUSH1 0x0 DUP4 ADD DUP5 PUSH2 0xFD8 JUMP JUMPDEST SWAP3 SWAP2 POP POP JUMP JUMPDEST PUSH2 0x1051 DUP2 PUSH2 0xF7E JUMP JUMPDEST DUP2 EQ PUSH2 0x105C JUMPI PUSH1 0x0 DUP1 REVERT JUMPDEST POP JUMP JUMPDEST PUSH1 0x0 DUP2 CALLDATALOAD SWAP1 POP PUSH2 0x106E DUP2 PUSH2 0x1048 JUMP JUMPDEST SWAP3 SWAP2 POP POP JUMP JUMPDEST PUSH1 0x0 PUSH1 0x20 DUP3 DUP5 SUB SLT ISZERO PUSH2 0x108A JUMPI PUSH2 0x1089 PUSH2 0xECC JUMP JUMPDEST JUMPDEST PUSH1 0x0 PUSH2 0x1098 DUP5 DUP3 DUP6 ADD PUSH2 0x105F JUMP JUMPDEST SWAP2 POP POP SWAP3 SWAP2 POP POP JUMP JUMPDEST PUSH1 0x0 DUP2 MLOAD SWAP1 POP PUSH2 0x10B0 DUP2 PUSH2 0xEDB JUMP JUMPDEST SWAP3 SWAP2 POP POP JUMP JUMPDEST PUSH1 0x0 PUSH1 0x20 DUP3 DUP5 SUB SLT ISZERO PUSH2 0x10CC JUMPI PUSH2 0x10CB PUSH2 0xECC JUMP JUMPDEST JUMPDEST PUSH1 0x0 PUSH2 0x10DA DUP5 DUP3 DUP6 ADD PUSH2 0x10A1 JUMP JUMPDEST SWAP2 POP POP SWAP3 SWAP2 POP POP JUMP JUMPDEST PUSH1 0x0 PUSH1 0xFF DUP3 AND SWAP1 POP SWAP2 SWAP1 POP JUMP JUMPDEST PUSH2 0x10F9 DUP2 PUSH2 0x10E3 JUMP JUMPDEST DUP2 EQ PUSH2 0x1104 JUMPI PUSH1 0x0 DUP1 REVERT JUMPDEST POP JUMP JUMPDEST PUSH1 0x0 DUP2 MLOAD SWAP1 POP PUSH2 0x1116 DUP2 PUSH2 0x10F0 JUMP JUMPDEST SWAP3 SWAP2 POP POP JUMP JUMPDEST PUSH1 0x0 PUSH1 0x20 DUP3 DUP5 SUB SLT ISZERO PUSH2 0x1132 JUMPI PUSH2 0x1131 PUSH2 0xECC JUMP JUMPDEST JUMPDEST PUSH1 0x0 PUSH2 0x1140 DUP5 DUP3 DUP6 ADD PUSH2 0x1107 JUMP JUMPDEST SWAP2 POP POP SWAP3 SWAP2 POP POP JUMP JUMPDEST PUSH32 0x4E487B7100000000000000000000000000000000000000000000000000000000 PUSH1 0x0 MSTORE PUSH1 0x11 PUSH1 0x4 MSTORE PUSH1 0x24 PUSH1 0x0 REVERT JUMPDEST PUSH1 0x0 DUP2 PUSH1 0x1 SHR SWAP1 POP SWAP2 SWAP1 POP JUMP JUMPDEST PUSH1 0x0 DUP1 DUP3 SWAP2 POP DUP4 SWAP1 POP JUMPDEST PUSH1 0x1 DUP6 GT ISZERO PUSH2 0x11CF JUMPI DUP1 DUP7 DIV DUP2 GT ISZERO PUSH2 0x11AB JUMPI PUSH2 0x11AA PUSH2 0x1149 JUMP JUMPDEST JUMPDEST PUSH1 0x1 DUP6 AND ISZERO PUSH2 0x11BA JUMPI DUP1 DUP3 MUL SWAP2 POP JUMPDEST DUP1 DUP2 MUL SWAP1 POP PUSH2 0x11C8 DUP6 PUSH2 0x1178 JUMP JUMPDEST SWAP5 POP PUSH2 0x118F JUMP JUMPDEST SWAP5 POP SWAP5 SWAP3 POP POP POP JUMP JUMPDEST PUSH1 0x0 DUP3 PUSH2 0x11E8 JUMPI PUSH1 0x1 SWAP1 POP PUSH2 0x12A4 JUMP JUMPDEST DUP2 PUSH2 0x11F6 JUMPI PUSH1 0x0 SWAP1 POP PUSH2 0x12A4 JUMP JUMPDEST DUP2 PUSH1 0x1 DUP2 EQ PUSH2 0x120C JUMPI PUSH1 0x2 DUP2 EQ PUSH2 0x1216 JUMPI PUSH2 0x1245 JUMP JUMPDEST PUSH1 0x1 SWAP2 POP POP PUSH2 0x12A4 JUMP JUMPDEST PUSH1 0xFF DUP5 GT ISZERO PUSH2 0x1228 JUMPI PUSH2 0x1227 PUSH2 0x1149 JUMP JUMPDEST JUMPDEST DUP4 PUSH1 0x2 EXP SWAP2 POP DUP5 DUP3 GT ISZERO PUSH2 0x123F JUMPI PUSH2 0x123E PUSH2 0x1149 JUMP JUMPDEST JUMPDEST POP PUSH2 0x12A4 JUMP JUMPDEST POP PUSH1 0x20 DUP4 LT PUSH2 0x133 DUP4 LT AND PUSH1 0x4E DUP5 LT PUSH1 0xB DUP5 LT AND OR ISZERO PUSH2 0x127A JUMPI DUP3 DUP3 EXP SWAP1 POP DUP4 DUP2 GT ISZERO PUSH2 0x1275 JUMPI PUSH2 0x1274 PUSH2 0x1149 JUMP JUMPDEST JUMPDEST PUSH2 0x12A4 JUMP JUMPDEST PUSH2 0x1287 DUP5 DUP5 DUP5 PUSH1 0x1 PUSH2 0x1185 JUMP JUMPDEST SWAP3 POP SWAP1 POP DUP2 DUP5 DIV DUP2 GT ISZERO PUSH2 0x129E JUMPI PUSH2 0x129D PUSH2 0x1149 JUMP JUMPDEST JUMPDEST DUP2 DUP2 MUL SWAP1 POP JUMPDEST SWAP4 SWAP3 POP POP POP JUMP JUMPDEST PUSH1 0x0 PUSH2 0x12B6 DUP3 PUSH2 0xED1 JUMP JUMPDEST SWAP2 POP PUSH2 0x12C1 DUP4 PUSH2 0x10E3 JUMP JUMPDEST SWAP3 POP PUSH2 0x12EE PUSH32 0xFFFFFFFFFFFFFFFFFFFFFFFFFFFFFFFFFFFFFFFFFFFFFFFFFFFFFFFFFFFFFFFF DUP5 DUP5 PUSH2 0x11D8 JUMP JUMPDEST SWAP1 POP SWAP3 SWAP2 POP POP JUMP JUMPDEST PUSH1 0x0 PUSH2 0x1301 DUP3 PUSH2 0xED1 JUMP JUMPDEST SWAP2 POP PUSH2 0x130C DUP4 PUSH2 0xED1 JUMP JUMPDEST SWAP3 POP DUP3 DUP3 MUL PUSH2 0x131A DUP2 PUSH2 0xED1 JUMP JUMPDEST SWAP2 POP DUP3 DUP3 DIV DUP5 EQ DUP4 ISZERO OR PUSH2 0x1331 JUMPI PUSH2 0x1330 PUSH2 0x1149 JUMP JUMPDEST JUMPDEST POP SWAP3 SWAP2 POP POP JUMP JUMPDEST PUSH1 0x0 PUSH2 0x1343 DUP3 PUSH2 0xED1 JUMP JUMPDEST SWAP2 POP PUSH2 0x134E DUP4 PUSH2 0xED1 JUMP JUMPDEST SWAP3 POP DUP3 DUP3 ADD SWAP1 POP DUP1 DUP3 GT ISZERO PUSH2 0x1366 JUMPI PUSH2 0x1365 PUSH2 0x1149 JUMP JUMPDEST JUMPDEST SWAP3 SWAP2 POP POP JUMP JUMPDEST PUSH1 0x0 PUSH2 0x1377 DUP3 PUSH2 0xED1 JUMP JUMPDEST SWAP2 POP PUSH2 0x1382 DUP4 PUSH2 0xED1 JUMP JUMPDEST SWAP3 POP DUP3 DUP3 SUB SWAP1 POP DUP2 DUP2 GT ISZERO PUSH2 0x139A JUMPI PUSH2 0x1399 PUSH2 0x1149 JUMP JUMPDEST JUMPDEST SWAP3 SWAP2 POP POP JUMP JUMPDEST PUSH1 0x0 DUP3 DUP3 MSTORE PUSH1 0x20 DUP3 ADD SWAP1 POP SWAP3 SWAP2 POP POP JUMP JUMPDEST PUSH32 0x4F776E61626C653A206E6577206F776E657220697320746865207A65726F2061 PUSH1 0x0 DUP3 ADD MSTORE PUSH32 0x6464726573730000000000000000000000000000000000000000000000000000 PUSH1 0x20 DUP3 ADD MSTORE POP JUMP JUMPDEST PUSH1 0x0 PUSH2 0x140D PUSH1 0x26 DUP4 PUSH2 0x13A0 JUMP JUMPDEST SWAP2 POP PUSH2 0x1418 DUP3 PUSH2 0x13B1 JUMP JUMPDEST PUSH1 0x40 DUP3 ADD SWAP1 POP SWAP2 SWAP1 POP JUMP JUMPDEST PUSH1 0x0 PUSH1 0x20 DUP3 ADD SWAP1 POP DUP2 DUP2 SUB PUSH1 0x0 DUP4 ADD MSTORE PUSH2 0x143C DUP2 PUSH2 0x1400 JUMP JUMPDEST SWAP1 POP SWAP2 SWAP1 POP JUMP JUMPDEST PUSH32 0x4E487B7100000000000000000000000000000000000000000000000000000000 PUSH1 0x0 MSTORE PUSH1 0x12 PUSH1 0x4 MSTORE PUSH1 0x24 PUSH1 0x0 REVERT JUMPDEST PUSH1 0x0 PUSH2 0x147D DUP3 PUSH2 0xED1 JUMP JUMPDEST SWAP2 POP PUSH2 0x1488 DUP4 PUSH2 0xED1 JUMP JUMPDEST SWAP3 POP DUP3 PUSH2 0x1498 JUMPI PUSH2 0x1497 PUSH2 0x1443 JUMP JUMPDEST JUMPDEST DUP3 DUP3 DIV SWAP1 POP SWAP3 SWAP2 POP POP JUMP JUMPDEST PUSH32 0x4F776E61626C653A2063616C6C6572206973206E6F7420746865206F776E6572 PUSH1 0x0 DUP3 ADD MSTORE POP JUMP JUMPDEST PUSH1 0x0 PUSH2 0x14D9 PUSH1 0x20 DUP4 PUSH2 0x13A0 JUMP JUMPDEST SWAP2 POP PUSH2 0x14E4 DUP3 PUSH2 0x14A3 JUMP JUMPDEST PUSH1 0x20 DUP3 ADD SWAP1 POP SWAP2 SWAP1 POP JUMP JUMPDEST PUSH1 0x0 PUSH1 0x20 DUP3 ADD SWAP1 POP DUP2 DUP2 SUB PUSH1 0x0 DUP4 ADD MSTORE PUSH2 0x1508 DUP2 PUSH2 0x14CC JUMP JUMPDEST SWAP1 POP SWAP2 SWAP1 POP JUMP INVALID LOG2 PUSH5 0x6970667358 0x22 SLT KECCAK256 0xE8 0xB0 DUP9 ISZERO 0xBB 0xDB 0xB2 DUP12 0xD5 JUMPDEST PUSH13 0x40173112B84B0ABBC9FBDB34C PUSH27 0x275EF5D555301264736F6C63430008120033A26469706673582212 KECCAK256 SWAP15 MSTORE8 CREATE 0xBB 0x26 CREATE 0xEC 0xC4 SWAP15 SWAP5 0xB8 PUSH24 0x5DD3F5A3FC795FEB17570515B1D40F2A924A6C8864736F6C PUSH4 0x43000812 STOP CALLER "
		},
		"gasEstimates": {
			"creation": {
				"codeDepositCost": "2499600",
				"executionCost": "infinite",
				"totalCost": "infinite"
			},
			"external": {
				"allLiquidityPools()": "infinite",
				"createLiquidityPool(address,address,uint256,uint256,uint256,uint256,uint256)": "infinite",
				"liquidityPools(uint256)": "infinite",
				"owner()": "2566",
				"renounceOwnership()": "30398",
				"transferOwnership(address)": "30832"
			}
		},
		"methodIdentifiers": {
			"allLiquidityPools()": "1b6cf219",
			"createLiquidityPool(address,address,uint256,uint256,uint256,uint256,uint256)": "eeef6e62",
			"liquidityPools(uint256)": "79d747be",
			"owner()": "8da5cb5b",
			"renounceOwnership()": "715018a6",
			"transferOwnership(address)": "f2fde38b"
		}
	},
	"abi": [
		{
			"anonymous": false,
			"inputs": [
				{
					"indexed": true,
					"internalType": "address",
					"name": "creator",
					"type": "address"
				},
				{
					"indexed": true,
					"internalType": "address",
					"name": "liquidityPool",
					"type": "address"
				}
			],
			"name": "LiquidityPoolCreated",
			"type": "event"
		},
		{
			"anonymous": false,
			"inputs": [
				{
					"indexed": true,
					"internalType": "address",
					"name": "previousOwner",
					"type": "address"
				},
				{
					"indexed": true,
					"internalType": "address",
					"name": "newOwner",
					"type": "address"
				}
			],
			"name": "OwnershipTransferred",
			"type": "event"
		},
		{
			"inputs": [],
			"name": "allLiquidityPools",
			"outputs": [
				{
					"internalType": "address[]",
					"name": "",
					"type": "address[]"
				}
			],
			"stateMutability": "view",
			"type": "function"
		},
		{
			"inputs": [
				{
					"internalType": "address",
					"name": "_token0",
					"type": "address"
				},
				{
					"internalType": "address",
					"name": "_token1",
					"type": "address"
				},
				{
					"internalType": "uint256",
					"name": "_token0DepositAmount",
					"type": "uint256"
				},
				{
					"internalType": "uint256",
					"name": "_token1DepositAmount",
					"type": "uint256"
				},
				{
					"internalType": "uint256",
					"name": "_token0BasePrice",
					"type": "uint256"
				},
				{
					"internalType": "uint256",
					"name": "_token0MaxPrice",
					"type": "uint256"
				},
				{
					"internalType": "uint256",
					"name": "_protocolFee",
					"type": "uint256"
				}
			],
			"name": "createLiquidityPool",
			"outputs": [],
			"stateMutability": "nonpayable",
			"type": "function"
		},
		{
			"inputs": [
				{
					"internalType": "uint256",
					"name": "",
					"type": "uint256"
				}
			],
			"name": "liquidityPools",
			"outputs": [
				{
					"internalType": "contract LiquidityPool",
					"name": "",
					"type": "address"
				}
			],
			"stateMutability": "view",
			"type": "function"
		},
		{
			"inputs": [],
			"name": "owner",
			"outputs": [
				{
					"internalType": "address",
					"name": "",
					"type": "address"
				}
			],
			"stateMutability": "view",
			"type": "function"
		},
		{
			"inputs": [],
			"name": "renounceOwnership",
			"outputs": [],
			"stateMutability": "nonpayable",
			"type": "function"
		},
		{
			"inputs": [
				{
					"internalType": "address",
					"name": "newOwner",
					"type": "address"
				}
			],
			"name": "transferOwnership",
			"outputs": [],
			"stateMutability": "nonpayable",
			"type": "function"
		}
	]
}