{
	"data": {
		"bytecode": {
			"linkReferences": {},
			"object": "608060405234801561001057600080fd5b5061002d61002261003260201b60201c565b61003a60201b60201c565b6100fe565b600033905090565b60008060009054906101000a900473ffffffffffffffffffffffffffffffffffffffff169050816000806101000a81548173ffffffffffffffffffffffffffffffffffffffff021916908373ffffffffffffffffffffffffffffffffffffffff1602179055508173ffffffffffffffffffffffffffffffffffffffff168173ffffffffffffffffffffffffffffffffffffffff167f8be0079c531659141344cd1fd0a4f28419497f9722a3daafe3b4186f6b6457e060405160405180910390a35050565b6114c78061010d6000396000f3fe60806040523480156200001157600080fd5b50600436106200005e5760003560e01c8063715018a6146200006357806379d747be146200006f5780638da5cb5b14620000a5578063eeef6e6214620000c7578063f2fde38b14620000e7575b600080fd5b6200006d62000107565b005b6200008d600480360381019062000087919062000530565b6200011f565b6040516200009c9190620005ed565b60405180910390f35b620000af6200015f565b604051620000be91906200062f565b60405180910390f35b620000e56004803603810190620000df91906200067d565b62000188565b005b620001056004803603810190620000ff919062000730565b62000307565b005b6200011162000391565b6200011d600062000416565b565b600181815481106200013057600080fd5b906000526020600020016000915054906101000a900473ffffffffffffffffffffffffffffffffffffffff1681565b60008060009054906101000a900473ffffffffffffffffffffffffffffffffffffffff16905090565b6000878787878787876040516200019f90620004e2565b620001b1979695949392919062000773565b604051809103906000f080158015620001ce573d6000803e3d6000fd5b5090508073ffffffffffffffffffffffffffffffffffffffff1663f2fde38b336040518263ffffffff1660e01b81526004016200020c91906200062f565b600060405180830381600087803b1580156200022757600080fd5b505af11580156200023c573d6000803e3d6000fd5b505050506001819080600181540180825580915050600190039060005260206000200160009091909190916101000a81548173ffffffffffffffffffffffffffffffffffffffff021916908373ffffffffffffffffffffffffffffffffffffffff1602179055508073ffffffffffffffffffffffffffffffffffffffff163373ffffffffffffffffffffffffffffffffffffffff167f3366ddec6d22baedae5089cdef368ab66cbf7cc63aec389ca0d4b54e447baa1b60405160405180910390a35050505050505050565b6200031162000391565b600073ffffffffffffffffffffffffffffffffffffffff168173ffffffffffffffffffffffffffffffffffffffff160362000383576040517f08c379a00000000000000000000000000000000000000000000000000000000081526004016200037a9062000877565b60405180910390fd5b6200038e8162000416565b50565b6200039b620004da565b73ffffffffffffffffffffffffffffffffffffffff16620003bb6200015f565b73ffffffffffffffffffffffffffffffffffffffff161462000414576040517f08c379a00000000000000000000000000000000000000000000000000000000081526004016200040b90620008e9565b60405180910390fd5b565b60008060009054906101000a900473ffffffffffffffffffffffffffffffffffffffff169050816000806101000a81548173ffffffffffffffffffffffffffffffffffffffff021916908373ffffffffffffffffffffffffffffffffffffffff1602179055508173ffffffffffffffffffffffffffffffffffffffff168173ffffffffffffffffffffffffffffffffffffffff167f8be0079c531659141344cd1fd0a4f28419497f9722a3daafe3b4186f6b6457e060405160405180910390a35050565b600033905090565b610b86806200090c83390190565b600080fd5b6000819050919050565b6200050a81620004f5565b81146200051657600080fd5b50565b6000813590506200052a81620004ff565b92915050565b600060208284031215620005495762000548620004f0565b5b6000620005598482850162000519565b91505092915050565b600073ffffffffffffffffffffffffffffffffffffffff82169050919050565b6000819050919050565b6000620005ad620005a7620005a18462000562565b62000582565b62000562565b9050919050565b6000620005c1826200058c565b9050919050565b6000620005d582620005b4565b9050919050565b620005e781620005c8565b82525050565b6000602082019050620006046000830184620005dc565b92915050565b6000620006178262000562565b9050919050565b62000629816200060a565b82525050565b60006020820190506200064660008301846200061e565b92915050565b62000657816200060a565b81146200066357600080fd5b50565b60008135905062000677816200064c565b92915050565b600080600080600080600060e0888a0312156200069f576200069e620004f0565b5b6000620006af8a828b0162000666565b9750506020620006c28a828b0162000666565b9650506040620006d58a828b0162000519565b9550506060620006e88a828b0162000519565b9450506080620006fb8a828b0162000519565b93505060a06200070e8a828b0162000519565b92505060c0620007218a828b0162000519565b91505092959891949750929550565b600060208284031215620007495762000748620004f0565b5b6000620007598482850162000666565b91505092915050565b6200076d81620004f5565b82525050565b600060e0820190506200078a600083018a6200061e565b6200079960208301896200061e565b620007a8604083018862000762565b620007b7606083018762000762565b620007c6608083018662000762565b620007d560a083018562000762565b620007e460c083018462000762565b98975050505050505050565b600082825260208201905092915050565b7f4f776e61626c653a206e6577206f776e657220697320746865207a65726f206160008201527f6464726573730000000000000000000000000000000000000000000000000000602082015250565b60006200085f602683620007f0565b91506200086c8262000801565b604082019050919050565b60006020820190508181036000830152620008928162000850565b9050919050565b7f4f776e61626c653a2063616c6c6572206973206e6f7420746865206f776e6572600082015250565b6000620008d1602083620007f0565b9150620008de8262000899565b602082019050919050565b600060208201905081810360008301526200090481620008c2565b905091905056fe60806040523480156200001157600080fd5b5060405162000b8638038062000b86833981810160405281019062000037919062000354565b620000576200004b620001e360201b60201c565b620001eb60201b60201c565b86600360006101000a81548173ffffffffffffffffffffffffffffffffffffffff021916908373ffffffffffffffffffffffffffffffffffffffff16021790555085600460006101000a81548173ffffffffffffffffffffffffffffffffffffffff021916908373ffffffffffffffffffffffffffffffffffffffff16021790555084600581905550836008819055508260078190555081600881905550806009819055506000600160009054906101000a900473ffffffffffffffffffffffffffffffffffffffff1690508073ffffffffffffffffffffffffffffffffffffffff16638da5cb5b6040518163ffffffff1660e01b8152600401602060405180830381865afa1580156200016f573d6000803e3d6000fd5b505050506040513d601f19601f8201168201806040525081019062000195919062000407565b600260006101000a81548173ffffffffffffffffffffffffffffffffffffffff021916908373ffffffffffffffffffffffffffffffffffffffff160217905550505050505050505062000439565b600033905090565b60008060009054906101000a900473ffffffffffffffffffffffffffffffffffffffff169050816000806101000a81548173ffffffffffffffffffffffffffffffffffffffff021916908373ffffffffffffffffffffffffffffffffffffffff1602179055508173ffffffffffffffffffffffffffffffffffffffff168173ffffffffffffffffffffffffffffffffffffffff167f8be0079c531659141344cd1fd0a4f28419497f9722a3daafe3b4186f6b6457e060405160405180910390a35050565b600080fd5b600073ffffffffffffffffffffffffffffffffffffffff82169050919050565b6000620002e182620002b4565b9050919050565b620002f381620002d4565b8114620002ff57600080fd5b50565b6000815190506200031381620002e8565b92915050565b6000819050919050565b6200032e8162000319565b81146200033a57600080fd5b50565b6000815190506200034e8162000323565b92915050565b600080600080600080600060e0888a031215620003765762000375620002af565b5b6000620003868a828b0162000302565b9750506020620003998a828b0162000302565b9650506040620003ac8a828b016200033d565b9550506060620003bf8a828b016200033d565b9450506080620003d28a828b016200033d565b93505060a0620003e58a828b016200033d565b92505060c0620003f88a828b016200033d565b91505092959891949750929550565b60006020828403121562000420576200041f620002af565b5b6000620004308482850162000302565b91505092915050565b61073d80620004496000396000f3fe608060405234801561001057600080fd5b50600436106100cf5760003560e01c8063a068bd8f1161008c578063b258598e11610066578063b258598e146101ce578063c45a0155146101ec578063d21220a71461020a578063f2fde38b14610228576100cf565b8063a068bd8f14610174578063ab11b19214610192578063b0e21e8a146101b0576100cf565b80630dfe1681146100d45780631a686502146100f25780634273601c14610110578063610c06e61461012e578063715018a61461014c5780638da5cb5b14610156575b600080fd5b6100dc610244565b6040516100e9919061054b565b60405180910390f35b6100fa61026a565b604051610107919061057f565b60405180910390f35b610118610270565b604051610125919061054b565b60405180910390f35b610136610296565b604051610143919061057f565b60405180910390f35b61015461029c565b005b61015e6102b0565b60405161016b919061054b565b60405180910390f35b61017c6102d9565b604051610189919061057f565b60405180910390f35b61019a6102df565b6040516101a7919061057f565b60405180910390f35b6101b86102e5565b6040516101c5919061057f565b60405180910390f35b6101d66102eb565b6040516101e3919061057f565b60405180910390f35b6101f46102f1565b604051610201919061054b565b60405180910390f35b610212610317565b60405161021f919061054b565b60405180910390f35b610242600480360381019061023d91906105cb565b61033d565b005b600360009054906101000a900473ffffffffffffffffffffffffffffffffffffffff1681565b600a5481565b600260009054906101000a900473ffffffffffffffffffffffffffffffffffffffff1681565b60065481565b6102a46103c0565b6102ae600061043e565b565b60008060009054906101000a900473ffffffffffffffffffffffffffffffffffffffff16905090565b60085481565b60075481565b60095481565b60055481565b600160009054906101000a900473ffffffffffffffffffffffffffffffffffffffff1681565b600460009054906101000a900473ffffffffffffffffffffffffffffffffffffffff1681565b6103456103c0565b600073ffffffffffffffffffffffffffffffffffffffff168173ffffffffffffffffffffffffffffffffffffffff16036103b4576040517f08c379a00000000000000000000000000000000000000000000000000000000081526004016103ab9061067b565b60405180910390fd5b6103bd8161043e565b50565b6103c8610502565b73ffffffffffffffffffffffffffffffffffffffff166103e66102b0565b73ffffffffffffffffffffffffffffffffffffffff161461043c576040517f08c379a0000000000000000000000000000000000000000000000000000000008152600401610433906106e7565b60405180910390fd5b565b60008060009054906101000a900473ffffffffffffffffffffffffffffffffffffffff169050816000806101000a81548173ffffffffffffffffffffffffffffffffffffffff021916908373ffffffffffffffffffffffffffffffffffffffff1602179055508173ffffffffffffffffffffffffffffffffffffffff168173ffffffffffffffffffffffffffffffffffffffff167f8be0079c531659141344cd1fd0a4f28419497f9722a3daafe3b4186f6b6457e060405160405180910390a35050565b600033905090565b600073ffffffffffffffffffffffffffffffffffffffff82169050919050565b60006105358261050a565b9050919050565b6105458161052a565b82525050565b6000602082019050610560600083018461053c565b92915050565b6000819050919050565b61057981610566565b82525050565b60006020820190506105946000830184610570565b92915050565b600080fd5b6105a88161052a565b81146105b357600080fd5b50565b6000813590506105c58161059f565b92915050565b6000602082840312156105e1576105e061059a565b5b60006105ef848285016105b6565b91505092915050565b600082825260208201905092915050565b7f4f776e61626c653a206e6577206f776e657220697320746865207a65726f206160008201527f6464726573730000000000000000000000000000000000000000000000000000602082015250565b60006106656026836105f8565b915061067082610609565b604082019050919050565b6000602082019050818103600083015261069481610658565b9050919050565b7f4f776e61626c653a2063616c6c6572206973206e6f7420746865206f776e6572600082015250565b60006106d16020836105f8565b91506106dc8261069b565b602082019050919050565b60006020820190508181036000830152610700816106c4565b905091905056fea2646970667358221220e74417c011cfcb8e3d0ef12853c24aeb6c5dfa91adb6bf8133fe4498d2c03a9b64736f6c63430008120033a2646970667358221220e77b0b431c89949cda9ad695266b63b4770328793b3db47a29552483a0854da464736f6c63430008120033",
			"opcodes": "PUSH1 0x80 PUSH1 0x40 MSTORE CALLVALUE DUP1 ISZERO PUSH2 0x10 JUMPI PUSH1 0x0 DUP1 REVERT JUMPDEST POP PUSH2 0x2D PUSH2 0x22 PUSH2 0x32 PUSH1 0x20 SHL PUSH1 0x20 SHR JUMP JUMPDEST PUSH2 0x3A PUSH1 0x20 SHL PUSH1 0x20 SHR JUMP JUMPDEST PUSH2 0xFE JUMP JUMPDEST PUSH1 0x0 CALLER SWAP1 POP SWAP1 JUMP JUMPDEST PUSH1 0x0 DUP1 PUSH1 0x0 SWAP1 SLOAD SWAP1 PUSH2 0x100 EXP SWAP1 DIV PUSH20 0xFFFFFFFFFFFFFFFFFFFFFFFFFFFFFFFFFFFFFFFF AND SWAP1 POP DUP2 PUSH1 0x0 DUP1 PUSH2 0x100 EXP DUP2 SLOAD DUP2 PUSH20 0xFFFFFFFFFFFFFFFFFFFFFFFFFFFFFFFFFFFFFFFF MUL NOT AND SWAP1 DUP4 PUSH20 0xFFFFFFFFFFFFFFFFFFFFFFFFFFFFFFFFFFFFFFFF AND MUL OR SWAP1 SSTORE POP DUP2 PUSH20 0xFFFFFFFFFFFFFFFFFFFFFFFFFFFFFFFFFFFFFFFF AND DUP2 PUSH20 0xFFFFFFFFFFFFFFFFFFFFFFFFFFFFFFFFFFFFFFFF AND PUSH32 0x8BE0079C531659141344CD1FD0A4F28419497F9722A3DAAFE3B4186F6B6457E0 PUSH1 0x40 MLOAD PUSH1 0x40 MLOAD DUP1 SWAP2 SUB SWAP1 LOG3 POP POP JUMP JUMPDEST PUSH2 0x14C7 DUP1 PUSH2 0x10D PUSH1 0x0 CODECOPY PUSH1 0x0 RETURN INVALID PUSH1 0x80 PUSH1 0x40 MSTORE CALLVALUE DUP1 ISZERO PUSH3 0x11 JUMPI PUSH1 0x0 DUP1 REVERT JUMPDEST POP PUSH1 0x4 CALLDATASIZE LT PUSH3 0x5E JUMPI PUSH1 0x0 CALLDATALOAD PUSH1 0xE0 SHR DUP1 PUSH4 0x715018A6 EQ PUSH3 0x63 JUMPI DUP1 PUSH4 0x79D747BE EQ PUSH3 0x6F JUMPI DUP1 PUSH4 0x8DA5CB5B EQ PUSH3 0xA5 JUMPI DUP1 PUSH4 0xEEEF6E62 EQ PUSH3 0xC7 JUMPI DUP1 PUSH4 0xF2FDE38B EQ PUSH3 0xE7 JUMPI JUMPDEST PUSH1 0x0 DUP1 REVERT JUMPDEST PUSH3 0x6D PUSH3 0x107 JUMP JUMPDEST STOP JUMPDEST PUSH3 0x8D PUSH1 0x4 DUP1 CALLDATASIZE SUB DUP2 ADD SWAP1 PUSH3 0x87 SWAP2 SWAP1 PUSH3 0x530 JUMP JUMPDEST PUSH3 0x11F JUMP JUMPDEST PUSH1 0x40 MLOAD PUSH3 0x9C SWAP2 SWAP1 PUSH3 0x5ED JUMP JUMPDEST PUSH1 0x40 MLOAD DUP1 SWAP2 SUB SWAP1 RETURN JUMPDEST PUSH3 0xAF PUSH3 0x15F JUMP JUMPDEST PUSH1 0x40 MLOAD PUSH3 0xBE SWAP2 SWAP1 PUSH3 0x62F JUMP JUMPDEST PUSH1 0x40 MLOAD DUP1 SWAP2 SUB SWAP1 RETURN JUMPDEST PUSH3 0xE5 PUSH1 0x4 DUP1 CALLDATASIZE SUB DUP2 ADD SWAP1 PUSH3 0xDF SWAP2 SWAP1 PUSH3 0x67D JUMP JUMPDEST PUSH3 0x188 JUMP JUMPDEST STOP JUMPDEST PUSH3 0x105 PUSH1 0x4 DUP1 CALLDATASIZE SUB DUP2 ADD SWAP1 PUSH3 0xFF SWAP2 SWAP1 PUSH3 0x730 JUMP JUMPDEST PUSH3 0x307 JUMP JUMPDEST STOP JUMPDEST PUSH3 0x111 PUSH3 0x391 JUMP JUMPDEST PUSH3 0x11D PUSH1 0x0 PUSH3 0x416 JUMP JUMPDEST JUMP JUMPDEST PUSH1 0x1 DUP2 DUP2 SLOAD DUP2 LT PUSH3 0x130 JUMPI PUSH1 0x0 DUP1 REVERT JUMPDEST SWAP1 PUSH1 0x0 MSTORE PUSH1 0x20 PUSH1 0x0 KECCAK256 ADD PUSH1 0x0 SWAP2 POP SLOAD SWAP1 PUSH2 0x100 EXP SWAP1 DIV PUSH20 0xFFFFFFFFFFFFFFFFFFFFFFFFFFFFFFFFFFFFFFFF AND DUP2 JUMP JUMPDEST PUSH1 0x0 DUP1 PUSH1 0x0 SWAP1 SLOAD SWAP1 PUSH2 0x100 EXP SWAP1 DIV PUSH20 0xFFFFFFFFFFFFFFFFFFFFFFFFFFFFFFFFFFFFFFFF AND SWAP1 POP SWAP1 JUMP JUMPDEST PUSH1 0x0 DUP8 DUP8 DUP8 DUP8 DUP8 DUP8 DUP8 PUSH1 0x40 MLOAD PUSH3 0x19F SWAP1 PUSH3 0x4E2 JUMP JUMPDEST PUSH3 0x1B1 SWAP8 SWAP7 SWAP6 SWAP5 SWAP4 SWAP3 SWAP2 SWAP1 PUSH3 0x773 JUMP JUMPDEST PUSH1 0x40 MLOAD DUP1 SWAP2 SUB SWAP1 PUSH1 0x0 CREATE DUP1 ISZERO DUP1 ISZERO PUSH3 0x1CE JUMPI RETURNDATASIZE PUSH1 0x0 DUP1 RETURNDATACOPY RETURNDATASIZE PUSH1 0x0 REVERT JUMPDEST POP SWAP1 POP DUP1 PUSH20 0xFFFFFFFFFFFFFFFFFFFFFFFFFFFFFFFFFFFFFFFF AND PUSH4 0xF2FDE38B CALLER PUSH1 0x40 MLOAD DUP3 PUSH4 0xFFFFFFFF AND PUSH1 0xE0 SHL DUP2 MSTORE PUSH1 0x4 ADD PUSH3 0x20C SWAP2 SWAP1 PUSH3 0x62F JUMP JUMPDEST PUSH1 0x0 PUSH1 0x40 MLOAD DUP1 DUP4 SUB DUP2 PUSH1 0x0 DUP8 DUP1 EXTCODESIZE ISZERO DUP1 ISZERO PUSH3 0x227 JUMPI PUSH1 0x0 DUP1 REVERT JUMPDEST POP GAS CALL ISZERO DUP1 ISZERO PUSH3 0x23C JUMPI RETURNDATASIZE PUSH1 0x0 DUP1 RETURNDATACOPY RETURNDATASIZE PUSH1 0x0 REVERT JUMPDEST POP POP POP POP PUSH1 0x1 DUP2 SWAP1 DUP1 PUSH1 0x1 DUP2 SLOAD ADD DUP1 DUP3 SSTORE DUP1 SWAP2 POP POP PUSH1 0x1 SWAP1 SUB SWAP1 PUSH1 0x0 MSTORE PUSH1 0x20 PUSH1 0x0 KECCAK256 ADD PUSH1 0x0 SWAP1 SWAP2 SWAP1 SWAP2 SWAP1 SWAP2 PUSH2 0x100 EXP DUP2 SLOAD DUP2 PUSH20 0xFFFFFFFFFFFFFFFFFFFFFFFFFFFFFFFFFFFFFFFF MUL NOT AND SWAP1 DUP4 PUSH20 0xFFFFFFFFFFFFFFFFFFFFFFFFFFFFFFFFFFFFFFFF AND MUL OR SWAP1 SSTORE POP DUP1 PUSH20 0xFFFFFFFFFFFFFFFFFFFFFFFFFFFFFFFFFFFFFFFF AND CALLER PUSH20 0xFFFFFFFFFFFFFFFFFFFFFFFFFFFFFFFFFFFFFFFF AND PUSH32 0x3366DDEC6D22BAEDAE5089CDEF368AB66CBF7CC63AEC389CA0D4B54E447BAA1B PUSH1 0x40 MLOAD PUSH1 0x40 MLOAD DUP1 SWAP2 SUB SWAP1 LOG3 POP POP POP POP POP POP POP POP JUMP JUMPDEST PUSH3 0x311 PUSH3 0x391 JUMP JUMPDEST PUSH1 0x0 PUSH20 0xFFFFFFFFFFFFFFFFFFFFFFFFFFFFFFFFFFFFFFFF AND DUP2 PUSH20 0xFFFFFFFFFFFFFFFFFFFFFFFFFFFFFFFFFFFFFFFF AND SUB PUSH3 0x383 JUMPI PUSH1 0x40 MLOAD PUSH32 0x8C379A000000000000000000000000000000000000000000000000000000000 DUP2 MSTORE PUSH1 0x4 ADD PUSH3 0x37A SWAP1 PUSH3 0x877 JUMP JUMPDEST PUSH1 0x40 MLOAD DUP1 SWAP2 SUB SWAP1 REVERT JUMPDEST PUSH3 0x38E DUP2 PUSH3 0x416 JUMP JUMPDEST POP JUMP JUMPDEST PUSH3 0x39B PUSH3 0x4DA JUMP JUMPDEST PUSH20 0xFFFFFFFFFFFFFFFFFFFFFFFFFFFFFFFFFFFFFFFF AND PUSH3 0x3BB PUSH3 0x15F JUMP JUMPDEST PUSH20 0xFFFFFFFFFFFFFFFFFFFFFFFFFFFFFFFFFFFFFFFF AND EQ PUSH3 0x414 JUMPI PUSH1 0x40 MLOAD PUSH32 0x8C379A000000000000000000000000000000000000000000000000000000000 DUP2 MSTORE PUSH1 0x4 ADD PUSH3 0x40B SWAP1 PUSH3 0x8E9 JUMP JUMPDEST PUSH1 0x40 MLOAD DUP1 SWAP2 SUB SWAP1 REVERT JUMPDEST JUMP JUMPDEST PUSH1 0x0 DUP1 PUSH1 0x0 SWAP1 SLOAD SWAP1 PUSH2 0x100 EXP SWAP1 DIV PUSH20 0xFFFFFFFFFFFFFFFFFFFFFFFFFFFFFFFFFFFFFFFF AND SWAP1 POP DUP2 PUSH1 0x0 DUP1 PUSH2 0x100 EXP DUP2 SLOAD DUP2 PUSH20 0xFFFFFFFFFFFFFFFFFFFFFFFFFFFFFFFFFFFFFFFF MUL NOT AND SWAP1 DUP4 PUSH20 0xFFFFFFFFFFFFFFFFFFFFFFFFFFFFFFFFFFFFFFFF AND MUL OR SWAP1 SSTORE POP DUP2 PUSH20 0xFFFFFFFFFFFFFFFFFFFFFFFFFFFFFFFFFFFFFFFF AND DUP2 PUSH20 0xFFFFFFFFFFFFFFFFFFFFFFFFFFFFFFFFFFFFFFFF AND PUSH32 0x8BE0079C531659141344CD1FD0A4F28419497F9722A3DAAFE3B4186F6B6457E0 PUSH1 0x40 MLOAD PUSH1 0x40 MLOAD DUP1 SWAP2 SUB SWAP1 LOG3 POP POP JUMP JUMPDEST PUSH1 0x0 CALLER SWAP1 POP SWAP1 JUMP JUMPDEST PUSH2 0xB86 DUP1 PUSH3 0x90C DUP4 CODECOPY ADD SWAP1 JUMP JUMPDEST PUSH1 0x0 DUP1 REVERT JUMPDEST PUSH1 0x0 DUP2 SWAP1 POP SWAP2 SWAP1 POP JUMP JUMPDEST PUSH3 0x50A DUP2 PUSH3 0x4F5 JUMP JUMPDEST DUP2 EQ PUSH3 0x516 JUMPI PUSH1 0x0 DUP1 REVERT JUMPDEST POP JUMP JUMPDEST PUSH1 0x0 DUP2 CALLDATALOAD SWAP1 POP PUSH3 0x52A DUP2 PUSH3 0x4FF JUMP JUMPDEST SWAP3 SWAP2 POP POP JUMP JUMPDEST PUSH1 0x0 PUSH1 0x20 DUP3 DUP5 SUB SLT ISZERO PUSH3 0x549 JUMPI PUSH3 0x548 PUSH3 0x4F0 JUMP JUMPDEST JUMPDEST PUSH1 0x0 PUSH3 0x559 DUP5 DUP3 DUP6 ADD PUSH3 0x519 JUMP JUMPDEST SWAP2 POP POP SWAP3 SWAP2 POP POP JUMP JUMPDEST PUSH1 0x0 PUSH20 0xFFFFFFFFFFFFFFFFFFFFFFFFFFFFFFFFFFFFFFFF DUP3 AND SWAP1 POP SWAP2 SWAP1 POP JUMP JUMPDEST PUSH1 0x0 DUP2 SWAP1 POP SWAP2 SWAP1 POP JUMP JUMPDEST PUSH1 0x0 PUSH3 0x5AD PUSH3 0x5A7 PUSH3 0x5A1 DUP5 PUSH3 0x562 JUMP JUMPDEST PUSH3 0x582 JUMP JUMPDEST PUSH3 0x562 JUMP JUMPDEST SWAP1 POP SWAP2 SWAP1 POP JUMP JUMPDEST PUSH1 0x0 PUSH3 0x5C1 DUP3 PUSH3 0x58C JUMP JUMPDEST SWAP1 POP SWAP2 SWAP1 POP JUMP JUMPDEST PUSH1 0x0 PUSH3 0x5D5 DUP3 PUSH3 0x5B4 JUMP JUMPDEST SWAP1 POP SWAP2 SWAP1 POP JUMP JUMPDEST PUSH3 0x5E7 DUP2 PUSH3 0x5C8 JUMP JUMPDEST DUP3 MSTORE POP POP JUMP JUMPDEST PUSH1 0x0 PUSH1 0x20 DUP3 ADD SWAP1 POP PUSH3 0x604 PUSH1 0x0 DUP4 ADD DUP5 PUSH3 0x5DC JUMP JUMPDEST SWAP3 SWAP2 POP POP JUMP JUMPDEST PUSH1 0x0 PUSH3 0x617 DUP3 PUSH3 0x562 JUMP JUMPDEST SWAP1 POP SWAP2 SWAP1 POP JUMP JUMPDEST PUSH3 0x629 DUP2 PUSH3 0x60A JUMP JUMPDEST DUP3 MSTORE POP POP JUMP JUMPDEST PUSH1 0x0 PUSH1 0x20 DUP3 ADD SWAP1 POP PUSH3 0x646 PUSH1 0x0 DUP4 ADD DUP5 PUSH3 0x61E JUMP JUMPDEST SWAP3 SWAP2 POP POP JUMP JUMPDEST PUSH3 0x657 DUP2 PUSH3 0x60A JUMP JUMPDEST DUP2 EQ PUSH3 0x663 JUMPI PUSH1 0x0 DUP1 REVERT JUMPDEST POP JUMP JUMPDEST PUSH1 0x0 DUP2 CALLDATALOAD SWAP1 POP PUSH3 0x677 DUP2 PUSH3 0x64C JUMP JUMPDEST SWAP3 SWAP2 POP POP JUMP JUMPDEST PUSH1 0x0 DUP1 PUSH1 0x0 DUP1 PUSH1 0x0 DUP1 PUSH1 0x0 PUSH1 0xE0 DUP9 DUP11 SUB SLT ISZERO PUSH3 0x69F JUMPI PUSH3 0x69E PUSH3 0x4F0 JUMP JUMPDEST JUMPDEST PUSH1 0x0 PUSH3 0x6AF DUP11 DUP3 DUP12 ADD PUSH3 0x666 JUMP JUMPDEST SWAP8 POP POP PUSH1 0x20 PUSH3 0x6C2 DUP11 DUP3 DUP12 ADD PUSH3 0x666 JUMP JUMPDEST SWAP7 POP POP PUSH1 0x40 PUSH3 0x6D5 DUP11 DUP3 DUP12 ADD PUSH3 0x519 JUMP JUMPDEST SWAP6 POP POP PUSH1 0x60 PUSH3 0x6E8 DUP11 DUP3 DUP12 ADD PUSH3 0x519 JUMP JUMPDEST SWAP5 POP POP PUSH1 0x80 PUSH3 0x6FB DUP11 DUP3 DUP12 ADD PUSH3 0x519 JUMP JUMPDEST SWAP4 POP POP PUSH1 0xA0 PUSH3 0x70E DUP11 DUP3 DUP12 ADD PUSH3 0x519 JUMP JUMPDEST SWAP3 POP POP PUSH1 0xC0 PUSH3 0x721 DUP11 DUP3 DUP12 ADD PUSH3 0x519 JUMP JUMPDEST SWAP2 POP POP SWAP3 SWAP6 SWAP9 SWAP2 SWAP5 SWAP8 POP SWAP3 SWAP6 POP JUMP JUMPDEST PUSH1 0x0 PUSH1 0x20 DUP3 DUP5 SUB SLT ISZERO PUSH3 0x749 JUMPI PUSH3 0x748 PUSH3 0x4F0 JUMP JUMPDEST JUMPDEST PUSH1 0x0 PUSH3 0x759 DUP5 DUP3 DUP6 ADD PUSH3 0x666 JUMP JUMPDEST SWAP2 POP POP SWAP3 SWAP2 POP POP JUMP JUMPDEST PUSH3 0x76D DUP2 PUSH3 0x4F5 JUMP JUMPDEST DUP3 MSTORE POP POP JUMP JUMPDEST PUSH1 0x0 PUSH1 0xE0 DUP3 ADD SWAP1 POP PUSH3 0x78A PUSH1 0x0 DUP4 ADD DUP11 PUSH3 0x61E JUMP JUMPDEST PUSH3 0x799 PUSH1 0x20 DUP4 ADD DUP10 PUSH3 0x61E JUMP JUMPDEST PUSH3 0x7A8 PUSH1 0x40 DUP4 ADD DUP9 PUSH3 0x762 JUMP JUMPDEST PUSH3 0x7B7 PUSH1 0x60 DUP4 ADD DUP8 PUSH3 0x762 JUMP JUMPDEST PUSH3 0x7C6 PUSH1 0x80 DUP4 ADD DUP7 PUSH3 0x762 JUMP JUMPDEST PUSH3 0x7D5 PUSH1 0xA0 DUP4 ADD DUP6 PUSH3 0x762 JUMP JUMPDEST PUSH3 0x7E4 PUSH1 0xC0 DUP4 ADD DUP5 PUSH3 0x762 JUMP JUMPDEST SWAP9 SWAP8 POP POP POP POP POP POP POP POP JUMP JUMPDEST PUSH1 0x0 DUP3 DUP3 MSTORE PUSH1 0x20 DUP3 ADD SWAP1 POP SWAP3 SWAP2 POP POP JUMP JUMPDEST PUSH32 0x4F776E61626C653A206E6577206F776E657220697320746865207A65726F2061 PUSH1 0x0 DUP3 ADD MSTORE PUSH32 0x6464726573730000000000000000000000000000000000000000000000000000 PUSH1 0x20 DUP3 ADD MSTORE POP JUMP JUMPDEST PUSH1 0x0 PUSH3 0x85F PUSH1 0x26 DUP4 PUSH3 0x7F0 JUMP JUMPDEST SWAP2 POP PUSH3 0x86C DUP3 PUSH3 0x801 JUMP JUMPDEST PUSH1 0x40 DUP3 ADD SWAP1 POP SWAP2 SWAP1 POP JUMP JUMPDEST PUSH1 0x0 PUSH1 0x20 DUP3 ADD SWAP1 POP DUP2 DUP2 SUB PUSH1 0x0 DUP4 ADD MSTORE PUSH3 0x892 DUP2 PUSH3 0x850 JUMP JUMPDEST SWAP1 POP SWAP2 SWAP1 POP JUMP JUMPDEST PUSH32 0x4F776E61626C653A2063616C6C6572206973206E6F7420746865206F776E6572 PUSH1 0x0 DUP3 ADD MSTORE POP JUMP JUMPDEST PUSH1 0x0 PUSH3 0x8D1 PUSH1 0x20 DUP4 PUSH3 0x7F0 JUMP JUMPDEST SWAP2 POP PUSH3 0x8DE DUP3 PUSH3 0x899 JUMP JUMPDEST PUSH1 0x20 DUP3 ADD SWAP1 POP SWAP2 SWAP1 POP JUMP JUMPDEST PUSH1 0x0 PUSH1 0x20 DUP3 ADD SWAP1 POP DUP2 DUP2 SUB PUSH1 0x0 DUP4 ADD MSTORE PUSH3 0x904 DUP2 PUSH3 0x8C2 JUMP JUMPDEST SWAP1 POP SWAP2 SWAP1 POP JUMP INVALID PUSH1 0x80 PUSH1 0x40 MSTORE CALLVALUE DUP1 ISZERO PUSH3 0x11 JUMPI PUSH1 0x0 DUP1 REVERT JUMPDEST POP PUSH1 0x40 MLOAD PUSH3 0xB86 CODESIZE SUB DUP1 PUSH3 0xB86 DUP4 CODECOPY DUP2 DUP2 ADD PUSH1 0x40 MSTORE DUP2 ADD SWAP1 PUSH3 0x37 SWAP2 SWAP1 PUSH3 0x354 JUMP JUMPDEST PUSH3 0x57 PUSH3 0x4B PUSH3 0x1E3 PUSH1 0x20 SHL PUSH1 0x20 SHR JUMP JUMPDEST PUSH3 0x1EB PUSH1 0x20 SHL PUSH1 0x20 SHR JUMP JUMPDEST DUP7 PUSH1 0x3 PUSH1 0x0 PUSH2 0x100 EXP DUP2 SLOAD DUP2 PUSH20 0xFFFFFFFFFFFFFFFFFFFFFFFFFFFFFFFFFFFFFFFF MUL NOT AND SWAP1 DUP4 PUSH20 0xFFFFFFFFFFFFFFFFFFFFFFFFFFFFFFFFFFFFFFFF AND MUL OR SWAP1 SSTORE POP DUP6 PUSH1 0x4 PUSH1 0x0 PUSH2 0x100 EXP DUP2 SLOAD DUP2 PUSH20 0xFFFFFFFFFFFFFFFFFFFFFFFFFFFFFFFFFFFFFFFF MUL NOT AND SWAP1 DUP4 PUSH20 0xFFFFFFFFFFFFFFFFFFFFFFFFFFFFFFFFFFFFFFFF AND MUL OR SWAP1 SSTORE POP DUP5 PUSH1 0x5 DUP2 SWAP1 SSTORE POP DUP4 PUSH1 0x8 DUP2 SWAP1 SSTORE POP DUP3 PUSH1 0x7 DUP2 SWAP1 SSTORE POP DUP2 PUSH1 0x8 DUP2 SWAP1 SSTORE POP DUP1 PUSH1 0x9 DUP2 SWAP1 SSTORE POP PUSH1 0x0 PUSH1 0x1 PUSH1 0x0 SWAP1 SLOAD SWAP1 PUSH2 0x100 EXP SWAP1 DIV PUSH20 0xFFFFFFFFFFFFFFFFFFFFFFFFFFFFFFFFFFFFFFFF AND SWAP1 POP DUP1 PUSH20 0xFFFFFFFFFFFFFFFFFFFFFFFFFFFFFFFFFFFFFFFF AND PUSH4 0x8DA5CB5B PUSH1 0x40 MLOAD DUP2 PUSH4 0xFFFFFFFF AND PUSH1 0xE0 SHL DUP2 MSTORE PUSH1 0x4 ADD PUSH1 0x20 PUSH1 0x40 MLOAD DUP1 DUP4 SUB DUP2 DUP7 GAS STATICCALL ISZERO DUP1 ISZERO PUSH3 0x16F JUMPI RETURNDATASIZE PUSH1 0x0 DUP1 RETURNDATACOPY RETURNDATASIZE PUSH1 0x0 REVERT JUMPDEST POP POP POP POP PUSH1 0x40 MLOAD RETURNDATASIZE PUSH1 0x1F NOT PUSH1 0x1F DUP3 ADD AND DUP3 ADD DUP1 PUSH1 0x40 MSTORE POP DUP2 ADD SWAP1 PUSH3 0x195 SWAP2 SWAP1 PUSH3 0x407 JUMP JUMPDEST PUSH1 0x2 PUSH1 0x0 PUSH2 0x100 EXP DUP2 SLOAD DUP2 PUSH20 0xFFFFFFFFFFFFFFFFFFFFFFFFFFFFFFFFFFFFFFFF MUL NOT AND SWAP1 DUP4 PUSH20 0xFFFFFFFFFFFFFFFFFFFFFFFFFFFFFFFFFFFFFFFF AND MUL OR SWAP1 SSTORE POP POP POP POP POP POP POP POP POP PUSH3 0x439 JUMP JUMPDEST PUSH1 0x0 CALLER SWAP1 POP SWAP1 JUMP JUMPDEST PUSH1 0x0 DUP1 PUSH1 0x0 SWAP1 SLOAD SWAP1 PUSH2 0x100 EXP SWAP1 DIV PUSH20 0xFFFFFFFFFFFFFFFFFFFFFFFFFFFFFFFFFFFFFFFF AND SWAP1 POP DUP2 PUSH1 0x0 DUP1 PUSH2 0x100 EXP DUP2 SLOAD DUP2 PUSH20 0xFFFFFFFFFFFFFFFFFFFFFFFFFFFFFFFFFFFFFFFF MUL NOT AND SWAP1 DUP4 PUSH20 0xFFFFFFFFFFFFFFFFFFFFFFFFFFFFFFFFFFFFFFFF AND MUL OR SWAP1 SSTORE POP DUP2 PUSH20 0xFFFFFFFFFFFFFFFFFFFFFFFFFFFFFFFFFFFFFFFF AND DUP2 PUSH20 0xFFFFFFFFFFFFFFFFFFFFFFFFFFFFFFFFFFFFFFFF AND PUSH32 0x8BE0079C531659141344CD1FD0A4F28419497F9722A3DAAFE3B4186F6B6457E0 PUSH1 0x40 MLOAD PUSH1 0x40 MLOAD DUP1 SWAP2 SUB SWAP1 LOG3 POP POP JUMP JUMPDEST PUSH1 0x0 DUP1 REVERT JUMPDEST PUSH1 0x0 PUSH20 0xFFFFFFFFFFFFFFFFFFFFFFFFFFFFFFFFFFFFFFFF DUP3 AND SWAP1 POP SWAP2 SWAP1 POP JUMP JUMPDEST PUSH1 0x0 PUSH3 0x2E1 DUP3 PUSH3 0x2B4 JUMP JUMPDEST SWAP1 POP SWAP2 SWAP1 POP JUMP JUMPDEST PUSH3 0x2F3 DUP2 PUSH3 0x2D4 JUMP JUMPDEST DUP2 EQ PUSH3 0x2FF JUMPI PUSH1 0x0 DUP1 REVERT JUMPDEST POP JUMP JUMPDEST PUSH1 0x0 DUP2 MLOAD SWAP1 POP PUSH3 0x313 DUP2 PUSH3 0x2E8 JUMP JUMPDEST SWAP3 SWAP2 POP POP JUMP JUMPDEST PUSH1 0x0 DUP2 SWAP1 POP SWAP2 SWAP1 POP JUMP JUMPDEST PUSH3 0x32E DUP2 PUSH3 0x319 JUMP JUMPDEST DUP2 EQ PUSH3 0x33A JUMPI PUSH1 0x0 DUP1 REVERT JUMPDEST POP JUMP JUMPDEST PUSH1 0x0 DUP2 MLOAD SWAP1 POP PUSH3 0x34E DUP2 PUSH3 0x323 JUMP JUMPDEST SWAP3 SWAP2 POP POP JUMP JUMPDEST PUSH1 0x0 DUP1 PUSH1 0x0 DUP1 PUSH1 0x0 DUP1 PUSH1 0x0 PUSH1 0xE0 DUP9 DUP11 SUB SLT ISZERO PUSH3 0x376 JUMPI PUSH3 0x375 PUSH3 0x2AF JUMP JUMPDEST JUMPDEST PUSH1 0x0 PUSH3 0x386 DUP11 DUP3 DUP12 ADD PUSH3 0x302 JUMP JUMPDEST SWAP8 POP POP PUSH1 0x20 PUSH3 0x399 DUP11 DUP3 DUP12 ADD PUSH3 0x302 JUMP JUMPDEST SWAP7 POP POP PUSH1 0x40 PUSH3 0x3AC DUP11 DUP3 DUP12 ADD PUSH3 0x33D JUMP JUMPDEST SWAP6 POP POP PUSH1 0x60 PUSH3 0x3BF DUP11 DUP3 DUP12 ADD PUSH3 0x33D JUMP JUMPDEST SWAP5 POP POP PUSH1 0x80 PUSH3 0x3D2 DUP11 DUP3 DUP12 ADD PUSH3 0x33D JUMP JUMPDEST SWAP4 POP POP PUSH1 0xA0 PUSH3 0x3E5 DUP11 DUP3 DUP12 ADD PUSH3 0x33D JUMP JUMPDEST SWAP3 POP POP PUSH1 0xC0 PUSH3 0x3F8 DUP11 DUP3 DUP12 ADD PUSH3 0x33D JUMP JUMPDEST SWAP2 POP POP SWAP3 SWAP6 SWAP9 SWAP2 SWAP5 SWAP8 POP SWAP3 SWAP6 POP JUMP JUMPDEST PUSH1 0x0 PUSH1 0x20 DUP3 DUP5 SUB SLT ISZERO PUSH3 0x420 JUMPI PUSH3 0x41F PUSH3 0x2AF JUMP JUMPDEST JUMPDEST PUSH1 0x0 PUSH3 0x430 DUP5 DUP3 DUP6 ADD PUSH3 0x302 JUMP JUMPDEST SWAP2 POP POP SWAP3 SWAP2 POP POP JUMP JUMPDEST PUSH2 0x73D DUP1 PUSH3 0x449 PUSH1 0x0 CODECOPY PUSH1 0x0 RETURN INVALID PUSH1 0x80 PUSH1 0x40 MSTORE CALLVALUE DUP1 ISZERO PUSH2 0x10 JUMPI PUSH1 0x0 DUP1 REVERT JUMPDEST POP PUSH1 0x4 CALLDATASIZE LT PUSH2 0xCF JUMPI PUSH1 0x0 CALLDATALOAD PUSH1 0xE0 SHR DUP1 PUSH4 0xA068BD8F GT PUSH2 0x8C JUMPI DUP1 PUSH4 0xB258598E GT PUSH2 0x66 JUMPI DUP1 PUSH4 0xB258598E EQ PUSH2 0x1CE JUMPI DUP1 PUSH4 0xC45A0155 EQ PUSH2 0x1EC JUMPI DUP1 PUSH4 0xD21220A7 EQ PUSH2 0x20A JUMPI DUP1 PUSH4 0xF2FDE38B EQ PUSH2 0x228 JUMPI PUSH2 0xCF JUMP JUMPDEST DUP1 PUSH4 0xA068BD8F EQ PUSH2 0x174 JUMPI DUP1 PUSH4 0xAB11B192 EQ PUSH2 0x192 JUMPI DUP1 PUSH4 0xB0E21E8A EQ PUSH2 0x1B0 JUMPI PUSH2 0xCF JUMP JUMPDEST DUP1 PUSH4 0xDFE1681 EQ PUSH2 0xD4 JUMPI DUP1 PUSH4 0x1A686502 EQ PUSH2 0xF2 JUMPI DUP1 PUSH4 0x4273601C EQ PUSH2 0x110 JUMPI DUP1 PUSH4 0x610C06E6 EQ PUSH2 0x12E JUMPI DUP1 PUSH4 0x715018A6 EQ PUSH2 0x14C JUMPI DUP1 PUSH4 0x8DA5CB5B EQ PUSH2 0x156 JUMPI JUMPDEST PUSH1 0x0 DUP1 REVERT JUMPDEST PUSH2 0xDC PUSH2 0x244 JUMP JUMPDEST PUSH1 0x40 MLOAD PUSH2 0xE9 SWAP2 SWAP1 PUSH2 0x54B JUMP JUMPDEST PUSH1 0x40 MLOAD DUP1 SWAP2 SUB SWAP1 RETURN JUMPDEST PUSH2 0xFA PUSH2 0x26A JUMP JUMPDEST PUSH1 0x40 MLOAD PUSH2 0x107 SWAP2 SWAP1 PUSH2 0x57F JUMP JUMPDEST PUSH1 0x40 MLOAD DUP1 SWAP2 SUB SWAP1 RETURN JUMPDEST PUSH2 0x118 PUSH2 0x270 JUMP JUMPDEST PUSH1 0x40 MLOAD PUSH2 0x125 SWAP2 SWAP1 PUSH2 0x54B JUMP JUMPDEST PUSH1 0x40 MLOAD DUP1 SWAP2 SUB SWAP1 RETURN JUMPDEST PUSH2 0x136 PUSH2 0x296 JUMP JUMPDEST PUSH1 0x40 MLOAD PUSH2 0x143 SWAP2 SWAP1 PUSH2 0x57F JUMP JUMPDEST PUSH1 0x40 MLOAD DUP1 SWAP2 SUB SWAP1 RETURN JUMPDEST PUSH2 0x154 PUSH2 0x29C JUMP JUMPDEST STOP JUMPDEST PUSH2 0x15E PUSH2 0x2B0 JUMP JUMPDEST PUSH1 0x40 MLOAD PUSH2 0x16B SWAP2 SWAP1 PUSH2 0x54B JUMP JUMPDEST PUSH1 0x40 MLOAD DUP1 SWAP2 SUB SWAP1 RETURN JUMPDEST PUSH2 0x17C PUSH2 0x2D9 JUMP JUMPDEST PUSH1 0x40 MLOAD PUSH2 0x189 SWAP2 SWAP1 PUSH2 0x57F JUMP JUMPDEST PUSH1 0x40 MLOAD DUP1 SWAP2 SUB SWAP1 RETURN JUMPDEST PUSH2 0x19A PUSH2 0x2DF JUMP JUMPDEST PUSH1 0x40 MLOAD PUSH2 0x1A7 SWAP2 SWAP1 PUSH2 0x57F JUMP JUMPDEST PUSH1 0x40 MLOAD DUP1 SWAP2 SUB SWAP1 RETURN JUMPDEST PUSH2 0x1B8 PUSH2 0x2E5 JUMP JUMPDEST PUSH1 0x40 MLOAD PUSH2 0x1C5 SWAP2 SWAP1 PUSH2 0x57F JUMP JUMPDEST PUSH1 0x40 MLOAD DUP1 SWAP2 SUB SWAP1 RETURN JUMPDEST PUSH2 0x1D6 PUSH2 0x2EB JUMP JUMPDEST PUSH1 0x40 MLOAD PUSH2 0x1E3 SWAP2 SWAP1 PUSH2 0x57F JUMP JUMPDEST PUSH1 0x40 MLOAD DUP1 SWAP2 SUB SWAP1 RETURN JUMPDEST PUSH2 0x1F4 PUSH2 0x2F1 JUMP JUMPDEST PUSH1 0x40 MLOAD PUSH2 0x201 SWAP2 SWAP1 PUSH2 0x54B JUMP JUMPDEST PUSH1 0x40 MLOAD DUP1 SWAP2 SUB SWAP1 RETURN JUMPDEST PUSH2 0x212 PUSH2 0x317 JUMP JUMPDEST PUSH1 0x40 MLOAD PUSH2 0x21F SWAP2 SWAP1 PUSH2 0x54B JUMP JUMPDEST PUSH1 0x40 MLOAD DUP1 SWAP2 SUB SWAP1 RETURN JUMPDEST PUSH2 0x242 PUSH1 0x4 DUP1 CALLDATASIZE SUB DUP2 ADD SWAP1 PUSH2 0x23D SWAP2 SWAP1 PUSH2 0x5CB JUMP JUMPDEST PUSH2 0x33D JUMP JUMPDEST STOP JUMPDEST PUSH1 0x3 PUSH1 0x0 SWAP1 SLOAD SWAP1 PUSH2 0x100 EXP SWAP1 DIV PUSH20 0xFFFFFFFFFFFFFFFFFFFFFFFFFFFFFFFFFFFFFFFF AND DUP2 JUMP JUMPDEST PUSH1 0xA SLOAD DUP2 JUMP JUMPDEST PUSH1 0x2 PUSH1 0x0 SWAP1 SLOAD SWAP1 PUSH2 0x100 EXP SWAP1 DIV PUSH20 0xFFFFFFFFFFFFFFFFFFFFFFFFFFFFFFFFFFFFFFFF AND DUP2 JUMP JUMPDEST PUSH1 0x6 SLOAD DUP2 JUMP JUMPDEST PUSH2 0x2A4 PUSH2 0x3C0 JUMP JUMPDEST PUSH2 0x2AE PUSH1 0x0 PUSH2 0x43E JUMP JUMPDEST JUMP JUMPDEST PUSH1 0x0 DUP1 PUSH1 0x0 SWAP1 SLOAD SWAP1 PUSH2 0x100 EXP SWAP1 DIV PUSH20 0xFFFFFFFFFFFFFFFFFFFFFFFFFFFFFFFFFFFFFFFF AND SWAP1 POP SWAP1 JUMP JUMPDEST PUSH1 0x8 SLOAD DUP2 JUMP JUMPDEST PUSH1 0x7 SLOAD DUP2 JUMP JUMPDEST PUSH1 0x9 SLOAD DUP2 JUMP JUMPDEST PUSH1 0x5 SLOAD DUP2 JUMP JUMPDEST PUSH1 0x1 PUSH1 0x0 SWAP1 SLOAD SWAP1 PUSH2 0x100 EXP SWAP1 DIV PUSH20 0xFFFFFFFFFFFFFFFFFFFFFFFFFFFFFFFFFFFFFFFF AND DUP2 JUMP JUMPDEST PUSH1 0x4 PUSH1 0x0 SWAP1 SLOAD SWAP1 PUSH2 0x100 EXP SWAP1 DIV PUSH20 0xFFFFFFFFFFFFFFFFFFFFFFFFFFFFFFFFFFFFFFFF AND DUP2 JUMP JUMPDEST PUSH2 0x345 PUSH2 0x3C0 JUMP JUMPDEST PUSH1 0x0 PUSH20 0xFFFFFFFFFFFFFFFFFFFFFFFFFFFFFFFFFFFFFFFF AND DUP2 PUSH20 0xFFFFFFFFFFFFFFFFFFFFFFFFFFFFFFFFFFFFFFFF AND SUB PUSH2 0x3B4 JUMPI PUSH1 0x40 MLOAD PUSH32 0x8C379A000000000000000000000000000000000000000000000000000000000 DUP2 MSTORE PUSH1 0x4 ADD PUSH2 0x3AB SWAP1 PUSH2 0x67B JUMP JUMPDEST PUSH1 0x40 MLOAD DUP1 SWAP2 SUB SWAP1 REVERT JUMPDEST PUSH2 0x3BD DUP2 PUSH2 0x43E JUMP JUMPDEST POP JUMP JUMPDEST PUSH2 0x3C8 PUSH2 0x502 JUMP JUMPDEST PUSH20 0xFFFFFFFFFFFFFFFFFFFFFFFFFFFFFFFFFFFFFFFF AND PUSH2 0x3E6 PUSH2 0x2B0 JUMP JUMPDEST PUSH20 0xFFFFFFFFFFFFFFFFFFFFFFFFFFFFFFFFFFFFFFFF AND EQ PUSH2 0x43C JUMPI PUSH1 0x40 MLOAD PUSH32 0x8C379A000000000000000000000000000000000000000000000000000000000 DUP2 MSTORE PUSH1 0x4 ADD PUSH2 0x433 SWAP1 PUSH2 0x6E7 JUMP JUMPDEST PUSH1 0x40 MLOAD DUP1 SWAP2 SUB SWAP1 REVERT JUMPDEST JUMP JUMPDEST PUSH1 0x0 DUP1 PUSH1 0x0 SWAP1 SLOAD SWAP1 PUSH2 0x100 EXP SWAP1 DIV PUSH20 0xFFFFFFFFFFFFFFFFFFFFFFFFFFFFFFFFFFFFFFFF AND SWAP1 POP DUP2 PUSH1 0x0 DUP1 PUSH2 0x100 EXP DUP2 SLOAD DUP2 PUSH20 0xFFFFFFFFFFFFFFFFFFFFFFFFFFFFFFFFFFFFFFFF MUL NOT AND SWAP1 DUP4 PUSH20 0xFFFFFFFFFFFFFFFFFFFFFFFFFFFFFFFFFFFFFFFF AND MUL OR SWAP1 SSTORE POP DUP2 PUSH20 0xFFFFFFFFFFFFFFFFFFFFFFFFFFFFFFFFFFFFFFFF AND DUP2 PUSH20 0xFFFFFFFFFFFFFFFFFFFFFFFFFFFFFFFFFFFFFFFF AND PUSH32 0x8BE0079C531659141344CD1FD0A4F28419497F9722A3DAAFE3B4186F6B6457E0 PUSH1 0x40 MLOAD PUSH1 0x40 MLOAD DUP1 SWAP2 SUB SWAP1 LOG3 POP POP JUMP JUMPDEST PUSH1 0x0 CALLER SWAP1 POP SWAP1 JUMP JUMPDEST PUSH1 0x0 PUSH20 0xFFFFFFFFFFFFFFFFFFFFFFFFFFFFFFFFFFFFFFFF DUP3 AND SWAP1 POP SWAP2 SWAP1 POP JUMP JUMPDEST PUSH1 0x0 PUSH2 0x535 DUP3 PUSH2 0x50A JUMP JUMPDEST SWAP1 POP SWAP2 SWAP1 POP JUMP JUMPDEST PUSH2 0x545 DUP2 PUSH2 0x52A JUMP JUMPDEST DUP3 MSTORE POP POP JUMP JUMPDEST PUSH1 0x0 PUSH1 0x20 DUP3 ADD SWAP1 POP PUSH2 0x560 PUSH1 0x0 DUP4 ADD DUP5 PUSH2 0x53C JUMP JUMPDEST SWAP3 SWAP2 POP POP JUMP JUMPDEST PUSH1 0x0 DUP2 SWAP1 POP SWAP2 SWAP1 POP JUMP JUMPDEST PUSH2 0x579 DUP2 PUSH2 0x566 JUMP JUMPDEST DUP3 MSTORE POP POP JUMP JUMPDEST PUSH1 0x0 PUSH1 0x20 DUP3 ADD SWAP1 POP PUSH2 0x594 PUSH1 0x0 DUP4 ADD DUP5 PUSH2 0x570 JUMP JUMPDEST SWAP3 SWAP2 POP POP JUMP JUMPDEST PUSH1 0x0 DUP1 REVERT JUMPDEST PUSH2 0x5A8 DUP2 PUSH2 0x52A JUMP JUMPDEST DUP2 EQ PUSH2 0x5B3 JUMPI PUSH1 0x0 DUP1 REVERT JUMPDEST POP JUMP JUMPDEST PUSH1 0x0 DUP2 CALLDATALOAD SWAP1 POP PUSH2 0x5C5 DUP2 PUSH2 0x59F JUMP JUMPDEST SWAP3 SWAP2 POP POP JUMP JUMPDEST PUSH1 0x0 PUSH1 0x20 DUP3 DUP5 SUB SLT ISZERO PUSH2 0x5E1 JUMPI PUSH2 0x5E0 PUSH2 0x59A JUMP JUMPDEST JUMPDEST PUSH1 0x0 PUSH2 0x5EF DUP5 DUP3 DUP6 ADD PUSH2 0x5B6 JUMP JUMPDEST SWAP2 POP POP SWAP3 SWAP2 POP POP JUMP JUMPDEST PUSH1 0x0 DUP3 DUP3 MSTORE PUSH1 0x20 DUP3 ADD SWAP1 POP SWAP3 SWAP2 POP POP JUMP JUMPDEST PUSH32 0x4F776E61626C653A206E6577206F776E657220697320746865207A65726F2061 PUSH1 0x0 DUP3 ADD MSTORE PUSH32 0x6464726573730000000000000000000000000000000000000000000000000000 PUSH1 0x20 DUP3 ADD MSTORE POP JUMP JUMPDEST PUSH1 0x0 PUSH2 0x665 PUSH1 0x26 DUP4 PUSH2 0x5F8 JUMP JUMPDEST SWAP2 POP PUSH2 0x670 DUP3 PUSH2 0x609 JUMP JUMPDEST PUSH1 0x40 DUP3 ADD SWAP1 POP SWAP2 SWAP1 POP JUMP JUMPDEST PUSH1 0x0 PUSH1 0x20 DUP3 ADD SWAP1 POP DUP2 DUP2 SUB PUSH1 0x0 DUP4 ADD MSTORE PUSH2 0x694 DUP2 PUSH2 0x658 JUMP JUMPDEST SWAP1 POP SWAP2 SWAP1 POP JUMP JUMPDEST PUSH32 0x4F776E61626C653A2063616C6C6572206973206E6F7420746865206F776E6572 PUSH1 0x0 DUP3 ADD MSTORE POP JUMP JUMPDEST PUSH1 0x0 PUSH2 0x6D1 PUSH1 0x20 DUP4 PUSH2 0x5F8 JUMP JUMPDEST SWAP2 POP PUSH2 0x6DC DUP3 PUSH2 0x69B JUMP JUMPDEST PUSH1 0x20 DUP3 ADD SWAP1 POP SWAP2 SWAP1 POP JUMP JUMPDEST PUSH1 0x0 PUSH1 0x20 DUP3 ADD SWAP1 POP DUP2 DUP2 SUB PUSH1 0x0 DUP4 ADD MSTORE PUSH2 0x700 DUP2 PUSH2 0x6C4 JUMP JUMPDEST SWAP1 POP SWAP2 SWAP1 POP JUMP INVALID LOG2 PUSH5 0x6970667358 0x22 SLT KECCAK256 0xE7 PREVRANDAO OR 0xC0 GT 0xCF 0xCB DUP15 RETURNDATASIZE 0xE CALL 0x28 MSTORE8 0xC2 0x4A 0xEB PUSH13 0x5DFA91ADB6BF8133FE4498D2C0 GASPRICE SWAP12 PUSH5 0x736F6C6343 STOP ADDMOD SLT STOP CALLER LOG2 PUSH5 0x6970667358 0x22 SLT KECCAK256 0xE7 PUSH28 0xB431C89949CDA9AD695266B63B4770328793B3DB47A29552483A085 0x4D LOG4 PUSH5 0x736F6C6343 STOP ADDMOD SLT STOP CALLER "
		},
		"gasEstimates": {
			"creation": {
				"codeDepositCost": "1063800",
				"executionCost": "infinite",
				"totalCost": "infinite"
			},
			"external": {
				"createLiquidityPool(address,address,uint256,uint256,uint256,uint256,uint256)": "infinite",
				"liquidityPools(uint256)": "infinite",
				"owner()": "2544",
				"renounceOwnership()": "30376",
				"transferOwnership(address)": "30810"
			}
		},
		"methodIdentifiers": {
			"createLiquidityPool(address,address,uint256,uint256,uint256,uint256,uint256)": "eeef6e62",
			"liquidityPools(uint256)": "79d747be",
			"owner()": "8da5cb5b",
			"renounceOwnership()": "715018a6",
			"transferOwnership(address)": "f2fde38b"
		}
	},
	"abi": [
		{
			"anonymous": false,
			"inputs": [
				{
					"indexed": true,
					"internalType": "address",
					"name": "creator",
					"type": "address"
				},
				{
					"indexed": true,
					"internalType": "address",
					"name": "liquidityPool",
					"type": "address"
				}
			],
			"name": "LiquidityPoolCreated",
			"type": "event"
		},
		{
			"anonymous": false,
			"inputs": [
				{
					"indexed": true,
					"internalType": "address",
					"name": "previousOwner",
					"type": "address"
				},
				{
					"indexed": true,
					"internalType": "address",
					"name": "newOwner",
					"type": "address"
				}
			],
			"name": "OwnershipTransferred",
			"type": "event"
		},
		{
			"inputs": [
				{
					"internalType": "address",
					"name": "_token0",
					"type": "address"
				},
				{
					"internalType": "address",
					"name": "_token1",
					"type": "address"
				},
				{
					"internalType": "uint256",
					"name": "_token0MaxAmount",
					"type": "uint256"
				},
				{
					"internalType": "uint256",
					"name": "_token1MaxAmount",
					"type": "uint256"
				},
				{
					"internalType": "uint256",
					"name": "_token1MinPrice",
					"type": "uint256"
				},
				{
					"internalType": "uint256",
					"name": "_token1MaxPrice",
					"type": "uint256"
				},
				{
					"internalType": "uint256",
					"name": "_protocolFee",
					"type": "uint256"
				}
			],
			"name": "createLiquidityPool",
			"outputs": [],
			"stateMutability": "nonpayable",
			"type": "function"
		},
		{
			"inputs": [
				{
					"internalType": "uint256",
					"name": "",
					"type": "uint256"
				}
			],
			"name": "liquidityPools",
			"outputs": [
				{
					"internalType": "contract LiquidityPool",
					"name": "",
					"type": "address"
				}
			],
			"stateMutability": "view",
			"type": "function"
		},
		{
			"inputs": [],
			"name": "owner",
			"outputs": [
				{
					"internalType": "address",
					"name": "",
					"type": "address"
				}
			],
			"stateMutability": "view",
			"type": "function"
		},
		{
			"inputs": [],
			"name": "renounceOwnership",
			"outputs": [],
			"stateMutability": "nonpayable",
			"type": "function"
		},
		{
			"inputs": [
				{
					"internalType": "address",
					"name": "newOwner",
					"type": "address"
				}
			],
			"name": "transferOwnership",
			"outputs": [],
			"stateMutability": "nonpayable",
			"type": "function"
		}
	]
}