{
	"data": {
		"bytecode": {
			"linkReferences": {},
			"object": "60806040523480156200001157600080fd5b5060405162004c3338038062004c33833981810160405281019062000037919062000932565b6040518060400160405280600881526020017f4c5020546f6b656e0000000000000000000000000000000000000000000000008152506040518060400160405280600281526020017f4c50000000000000000000000000000000000000000000000000000000000000815250620186a06000600181905550600060028190555080600381905550508160079081620000d0919062000c81565b508060089081620000e2919062000c81565b50505062000105620000f96200040160201b60201c565b6200040960201b60201c565b88600a60006101000a81548173ffffffffffffffffffffffffffffffffffffffff021916908373ffffffffffffffffffffffffffffffffffffffff16021790555087600b60006101000a81548173ffffffffffffffffffffffffffffffffffffffff021916908373ffffffffffffffffffffffffffffffffffffffff1602179055508573ffffffffffffffffffffffffffffffffffffffff168773ffffffffffffffffffffffffffffffffffffffff1603620001f8576040517f08c379a0000000000000000000000000000000000000000000000000000000008152600401620001ef9062000dc9565b60405180910390fd5b86600c60006101000a81548173ffffffffffffffffffffffffffffffffffffffff021916908373ffffffffffffffffffffffffffffffffffffffff16021790555085600d60006101000a81548173ffffffffffffffffffffffffffffffffffffffff021916908373ffffffffffffffffffffffffffffffffffffffff16021790555084600e8190555083600f8190555082821015620002ce576040517f08c379a0000000000000000000000000000000000000000000000000000000008152600401620002c59062000e61565b60405180910390fd5b826013819055508160148190555080601581905550620002f6838387620004cf60201b60201c565b60108190555062000313878460105488886200056660201b60201c565b601181905550601154600f546200032b919062000eb2565b601054600e546200033d919062000eb2565b62000349919062000eed565b6012819055506040518060800160405280600e548152602001600f548152602001601354815260200142815250600080808152602001908152602001600020600082015181600001556020820151816001015560408201518160020155606082015181600301559050507fcf2aa50876cdfbb541206f89af0ee78d44a2abf8d328e37fa4917f982149848a600e54600f54604051620003ea92919062000f49565b60405180910390a15050505050505050506200122d565b600033905090565b6000600960009054906101000a900473ffffffffffffffffffffffffffffffffffffffff16905081600960006101000a81548173ffffffffffffffffffffffffffffffffffffffff021916908373ffffffffffffffffffffffffffffffffffffffff1602179055508173ffffffffffffffffffffffffffffffffffffffff168173ffffffffffffffffffffffffffffffffffffffff167f8be0079c531659141344cd1fd0a4f28419497f9722a3daafe3b4186f6b6457e060405160405180910390a35050565b600080620004fe670de0b6b3a764000086620004ec919062000eed565b856200064e60201b620016e31760201c565b9050600062000518826200066660201b620016f91760201c565b9050600084826200052a919062000eed565b9050600082633b9aca0062000540919062000f76565b90506200055982826200064e60201b620016e31760201c565b9450505050509392505050565b6000808673ffffffffffffffffffffffffffffffffffffffff1663313ce5676040518163ffffffff1660e01b8152600401602060405180830381865afa158015620005b5573d6000803e3d6000fd5b505050506040513d601f19601f82011682018060405250810190620005db919062000fef565b9050600081600a620005ee919062001175565b90506000848262000600919062000eed565b87876200060e919062000eb2565b896200061b919062000eed565b62000627919062000f76565b90506200064081836200064e60201b620016e31760201c565b935050505095945050505050565b600081836200065e9190620011f5565b905092915050565b60008082036200067a576000905062000784565b600060016200068f846200078960201b60201c565b901c6001901b90506001818481620006ac57620006ab620011c6565b5b048201901c90506001818481620006c857620006c7620011c6565b5b048201901c90506001818481620006e457620006e3620011c6565b5b048201901c905060018184816200070057620006ff620011c6565b5b048201901c905060018184816200071c576200071b620011c6565b5b048201901c90506001818481620007385762000737620011c6565b5b048201901c90506001818481620007545762000753620011c6565b5b048201901c90506200078081828581620007735762000772620011c6565b5b046200087260201b60201c565b9150505b919050565b600080600090506000608084901c1115620007ac57608083901c92506080810190505b6000604084901c1115620007c857604083901c92506040810190505b6000602084901c1115620007e457602083901c92506020810190505b6000601084901c11156200080057601083901c92506010810190505b6000600884901c11156200081c57600883901c92506008810190505b6000600484901c11156200083857600483901c92506004810190505b6000600284901c11156200085457600283901c92506002810190505b6000600184901c111562000869576001810190505b80915050919050565b600081831062000883578162000885565b825b905092915050565b600080fd5b600073ffffffffffffffffffffffffffffffffffffffff82169050919050565b6000620008bf8262000892565b9050919050565b620008d181620008b2565b8114620008dd57600080fd5b50565b600081519050620008f181620008c6565b92915050565b6000819050919050565b6200090c81620008f7565b81146200091857600080fd5b50565b6000815190506200092c8162000901565b92915050565b60008060008060008060008060006101208a8c0312156200095857620009576200088d565b5b6000620009688c828d01620008e0565b99505060206200097b8c828d01620008e0565b98505060406200098e8c828d01620008e0565b9750506060620009a18c828d01620008e0565b9650506080620009b48c828d016200091b565b95505060a0620009c78c828d016200091b565b94505060c0620009da8c828d016200091b565b93505060e0620009ed8c828d016200091b565b92505061010062000a018c828d016200091b565b9150509295985092959850929598565b600081519050919050565b7f4e487b7100000000000000000000000000000000000000000000000000000000600052604160045260246000fd5b7f4e487b7100000000000000000000000000000000000000000000000000000000600052602260045260246000fd5b6000600282049050600182168062000a9357607f821691505b60208210810362000aa95762000aa862000a4b565b5b50919050565b60008190508160005260206000209050919050565b60006020601f8301049050919050565b600082821b905092915050565b60006008830262000b137fffffffffffffffffffffffffffffffffffffffffffffffffffffffffffffffff8262000ad4565b62000b1f868362000ad4565b95508019841693508086168417925050509392505050565b6000819050919050565b600062000b6262000b5c62000b5684620008f7565b62000b37565b620008f7565b9050919050565b6000819050919050565b62000b7e8362000b41565b62000b9662000b8d8262000b69565b84845462000ae1565b825550505050565b600090565b62000bad62000b9e565b62000bba81848462000b73565b505050565b5b8181101562000be25762000bd660008262000ba3565b60018101905062000bc0565b5050565b601f82111562000c315762000bfb8162000aaf565b62000c068462000ac4565b8101602085101562000c16578190505b62000c2e62000c258562000ac4565b83018262000bbf565b50505b505050565b600082821c905092915050565b600062000c566000198460080262000c36565b1980831691505092915050565b600062000c71838362000c43565b9150826002028217905092915050565b62000c8c8262000a11565b67ffffffffffffffff81111562000ca85762000ca762000a1c565b5b62000cb4825462000a7a565b62000cc182828562000be6565b600060209050601f83116001811462000cf9576000841562000ce4578287015190505b62000cf0858262000c63565b86555062000d60565b601f19841662000d098662000aaf565b60005b8281101562000d335784890151825560018201915060208501945060208101905062000d0c565b8683101562000d53578489015162000d4f601f89168262000c43565b8355505b6001600288020188555050505b505050505050565b600082825260208201905092915050565b7f426f746820746f6b656e732063616e6e6f74206265207468652073616d650000600082015250565b600062000db1601e8362000d68565b915062000dbe8262000d79565b602082019050919050565b6000602082019050818103600083015262000de48162000da2565b9050919050565b7f4d6178696d756d207072696365206d757374206265206772656174657220746860008201527f616e206f7220657175616c20746f207468652062617365207072696365000000602082015250565b600062000e49603d8362000d68565b915062000e568262000deb565b604082019050919050565b6000602082019050818103600083015262000e7c8162000e3a565b9050919050565b7f4e487b7100000000000000000000000000000000000000000000000000000000600052601160045260246000fd5b600062000ebf82620008f7565b915062000ecc83620008f7565b925082820190508082111562000ee75762000ee662000e83565b5b92915050565b600062000efa82620008f7565b915062000f0783620008f7565b925082820262000f1781620008f7565b9150828204841483151762000f315762000f3062000e83565b5b5092915050565b62000f4381620008f7565b82525050565b600060408201905062000f60600083018562000f38565b62000f6f602083018462000f38565b9392505050565b600062000f8382620008f7565b915062000f9083620008f7565b925082820390508181111562000fab5762000faa62000e83565b5b92915050565b600060ff82169050919050565b62000fc98162000fb1565b811462000fd557600080fd5b50565b60008151905062000fe98162000fbe565b92915050565b6000602082840312156200100857620010076200088d565b5b6000620010188482850162000fd8565b91505092915050565b60008160011c9050919050565b6000808291508390505b6001851115620010805780860481111562001058576200105762000e83565b5b6001851615620010685780820291505b8081029050620010788562001021565b945062001038565b94509492505050565b6000826200109b57600190506200116e565b81620010ab57600090506200116e565b8160018114620010c45760028114620010cf5762001105565b60019150506200116e565b60ff841115620010e457620010e362000e83565b5b8360020a915084821115620010fe57620010fd62000e83565b5b506200116e565b5060208310610133831016604e8410600b84101617156200113f5782820a90508381111562001139576200113862000e83565b5b6200116e565b6200114e84848460016200102e565b9250905081840481111562001168576200116762000e83565b5b81810290505b9392505050565b60006200118282620008f7565b91506200118f8362000fb1565b9250620011be7fffffffffffffffffffffffffffffffffffffffffffffffffffffffffffffffff848462001089565b905092915050565b7f4e487b7100000000000000000000000000000000000000000000000000000000600052601260045260246000fd5b60006200120282620008f7565b91506200120f83620008f7565b925082620012225762001221620011c6565b5b828204905092915050565b6139f6806200123d6000396000f3fe608060405234801561001057600080fd5b50600436106102115760003560e01c806370a0823111610125578063a9059cbb116100ad578063d21220a71161007c578063d21220a714610610578063dd62ed3e1461062e578063ec1893b41461065e578063ef3501b91461067c578063f2fde38b1461069a57610211565b8063a9059cbb14610586578063aff56c14146105b6578063b0e21e8a146105d4578063c45a0155146105f257610211565b80638da5cb5b116100f45780638da5cb5b146104ce57806395d89b41146104ec5780639dc29fac1461050a5780639f8e55d614610526578063a457c2d71461055657610211565b806370a0823114610458578063715018a6146104885780637c07a38014610492578063870e415e146104b057610211565b80632bec60fe116101a85780633d1c387b116101775780633d1c387b146103c457806340c10f19146103e25780634273601c146103fe578063433065d01461041c5780635a656c241461043a57610211565b80632bec60fe1461033c578063313ce56714610358578063364abc3d14610376578063395093511461039457610211565b806313724b70116101e457806313724b70146102b257806318160ddd146102d05780631cf2128c146102ee57806323b872dd1461030c57610211565b806304786ab41461021657806306fdde0314610246578063095ea7b3146102645780630dfe168114610294575b600080fd5b610230600480360381019061022b91906128ca565b6106b6565b60405161023d9190612906565b60405180910390f35b61024e610848565b60405161025b91906129b1565b60405180910390f35b61027e60048036038101906102799190612a31565b6108da565b60405161028b9190612a8c565b60405180910390f35b61029c6108fd565b6040516102a99190612ab6565b60405180910390f35b6102ba610923565b6040516102c79190612906565b60405180910390f35b6102d8610929565b6040516102e59190612906565b60405180910390f35b6102f6610933565b6040516103039190612906565b60405180910390f35b61032660048036038101906103219190612ad1565b610939565b6040516103339190612a8c565b60405180910390f35b61035660048036038101906103519190612b50565b610968565b005b610360610c4d565b60405161036d9190612bbf565b60405180910390f35b61037e610c56565b60405161038b9190612906565b60405180910390f35b6103ae60048036038101906103a99190612a31565b610c5c565b6040516103bb9190612a8c565b60405180910390f35b6103cc610c93565b6040516103d99190612ced565b60405180910390f35b6103fc60048036038101906103f79190612a31565b610db0565b005b610406610e33565b6040516104139190612ab6565b60405180910390f35b610424610e59565b6040516104319190612906565b60405180910390f35b610442610fc7565b60405161044f9190612906565b60405180910390f35b610472600480360381019061046d9190612d0f565b610fcd565b60405161047f9190612906565b60405180910390f35b610490611016565b005b61049a61102a565b6040516104a79190612906565b60405180910390f35b6104b8611030565b6040516104c59190612906565b60405180910390f35b6104d6611036565b6040516104e39190612ab6565b60405180910390f35b6104f4611060565b60405161050191906129b1565b60405180910390f35b610524600480360381019061051f9190612a31565b6110f2565b005b610540600480360381019061053b91906128ca565b611175565b60405161054d9190612906565b60405180910390f35b610570600480360381019061056b9190612a31565b611307565b60405161057d9190612a8c565b60405180910390f35b6105a0600480360381019061059b9190612a31565b61137e565b6040516105ad9190612a8c565b60405180910390f35b6105be6113a1565b6040516105cb9190612906565b60405180910390f35b6105dc6113a7565b6040516105e99190612906565b60405180910390f35b6105fa6113ad565b6040516106079190612ab6565b60405180910390f35b6106186113d3565b6040516106259190612ab6565b60405180910390f35b61064860048036038101906106439190612d3c565b6113f9565b6040516106559190612906565b60405180910390f35b610666611480565b6040516106739190612de0565b60405180910390f35b61068461165a565b6040516106919190612906565b60405180910390f35b6106b460048036038101906106af9190612d0f565b611660565b005b600080600c60009054906101000a900473ffffffffffffffffffffffffffffffffffffffff1673ffffffffffffffffffffffffffffffffffffffff166370a08231306040518263ffffffff1660e01b81526004016107149190612ab6565b602060405180830381865afa158015610731573d6000803e3d6000fd5b505050506040513d601f19601f820116820180604052508101906107559190612e10565b90506000600d60009054906101000a900473ffffffffffffffffffffffffffffffffffffffff1673ffffffffffffffffffffffffffffffffffffffff166370a08231306040518263ffffffff1660e01b81526004016107b49190612ab6565b602060405180830381865afa1580156107d1573d6000803e3d6000fd5b505050506040513d601f19601f820116820180604052508101906107f59190612e10565b9050600084826108059190612e6c565b90506000601054610825601254601154856108209190612e6c565b6116e3565b61082f9190612ea0565b9050808461083d9190612ea0565b945050505050919050565b60606007805461085790612f03565b80601f016020809104026020016040519081016040528092919081815260200182805461088390612f03565b80156108d05780601f106108a5576101008083540402835291602001916108d0565b820191906000526020600020905b8154815290600101906020018083116108b357829003601f168201915b5050505050905090565b6000806108e56117f2565b90506108f28185856117fa565b600191505092915050565b600c60009054906101000a900473ffffffffffffffffffffffffffffffffffffffff1681565b600f5481565b6000600654905090565b60115481565b6000806109446117f2565b90506109518582856119c3565b61095c858585611a4f565b60019150509392505050565b801561097d576109788383611cc8565b610988565b6109878383611ece565b5b610ad9600c60009054906101000a900473ffffffffffffffffffffffffffffffffffffffff1673ffffffffffffffffffffffffffffffffffffffff166370a08231306040518263ffffffff1660e01b81526004016109e69190612ab6565b602060405180830381865afa158015610a03573d6000803e3d6000fd5b505050506040513d601f19601f82011682018060405250810190610a279190612e10565b600d60009054906101000a900473ffffffffffffffffffffffffffffffffffffffff1673ffffffffffffffffffffffffffffffffffffffff166370a08231306040518263ffffffff1660e01b8152600401610a829190612ab6565b602060405180830381865afa158015610a9f573d6000803e3d6000fd5b505050506040513d601f19601f82011682018060405250810190610ac39190612e10565b610ad4670de0b6b3a7640000611175565b6121c0565b7fcf2aa50876cdfbb541206f89af0ee78d44a2abf8d328e37fa4917f982149848a600c60009054906101000a900473ffffffffffffffffffffffffffffffffffffffff1673ffffffffffffffffffffffffffffffffffffffff166370a08231306040518263ffffffff1660e01b8152600401610b559190612ab6565b602060405180830381865afa158015610b72573d6000803e3d6000fd5b505050506040513d601f19601f82011682018060405250810190610b969190612e10565b600d60009054906101000a900473ffffffffffffffffffffffffffffffffffffffff1673ffffffffffffffffffffffffffffffffffffffff166370a08231306040518263ffffffff1660e01b8152600401610bf19190612ab6565b602060405180830381865afa158015610c0e573d6000803e3d6000fd5b505050506040513d601f19601f82011682018060405250810190610c329190612e10565b604051610c40929190612f34565b60405180910390a1505050565b60006012905090565b60145481565b600080610c676117f2565b9050610c88818585610c7985896113f9565b610c839190612e6c565b6117fa565b600191505092915050565b6060600060018054600254610ca89190612ea0565b610cb29190612e6c565b67ffffffffffffffff811115610ccb57610cca612f5d565b5b604051908082528060200260200182016040528015610d0457816020015b610cf1612813565b815260200190600190039081610ce95790505b509050600060015490505b6001600254610d1e9190612e6c565b811015610da8576000808281526020019081526020016000206040518060800160405290816000820154815260200160018201548152602001600282015481526020016003820154815250508260015483610d799190612ea0565b81518110610d8a57610d89612f8c565b5b60200260200101819052508080610da090612fbb565b915050610d0f565b508091505090565b610db8611036565b73ffffffffffffffffffffffffffffffffffffffff163373ffffffffffffffffffffffffffffffffffffffff1614610e25576040517f08c379a0000000000000000000000000000000000000000000000000000000008152600401610e1c9061304f565b60405180910390fd5b610e2f82826122a5565b5050565b600b60009054906101000a900473ffffffffffffffffffffffffffffffffffffffff1681565b600080600c60009054906101000a900473ffffffffffffffffffffffffffffffffffffffff1673ffffffffffffffffffffffffffffffffffffffff166370a08231306040518263ffffffff1660e01b8152600401610eb79190612ab6565b602060405180830381865afa158015610ed4573d6000803e3d6000fd5b505050506040513d601f19601f82011682018060405250810190610ef89190612e10565b90506000600d60009054906101000a900473ffffffffffffffffffffffffffffffffffffffff1673ffffffffffffffffffffffffffffffffffffffff166370a08231306040518263ffffffff1660e01b8152600401610f579190612ab6565b602060405180830381865afa158015610f74573d6000803e3d6000fd5b505050506040513d601f19601f82011682018060405250810190610f989190612e10565b905060115481610fa89190612e6c565b60105483610fb69190612e6c565b610fc0919061306f565b9250505090565b60125481565b6000600460008373ffffffffffffffffffffffffffffffffffffffff1673ffffffffffffffffffffffffffffffffffffffff168152602001908152602001600020549050919050565b61101e6123fc565b611028600061247a565b565b600e5481565b60035481565b6000600960009054906101000a900473ffffffffffffffffffffffffffffffffffffffff16905090565b60606008805461106f90612f03565b80601f016020809104026020016040519081016040528092919081815260200182805461109b90612f03565b80156110e85780601f106110bd576101008083540402835291602001916110e8565b820191906000526020600020905b8154815290600101906020018083116110cb57829003601f168201915b5050505050905090565b6110fa611036565b73ffffffffffffffffffffffffffffffffffffffff163373ffffffffffffffffffffffffffffffffffffffff1614611167576040517f08c379a000000000000000000000000000000000000000000000000000000000815260040161115e906130fd565b60405180910390fd5b6111718282612540565b5050565b600080600c60009054906101000a900473ffffffffffffffffffffffffffffffffffffffff1673ffffffffffffffffffffffffffffffffffffffff166370a08231306040518263ffffffff1660e01b81526004016111d39190612ab6565b602060405180830381865afa1580156111f0573d6000803e3d6000fd5b505050506040513d601f19601f820116820180604052508101906112149190612e10565b90506000600d60009054906101000a900473ffffffffffffffffffffffffffffffffffffffff1673ffffffffffffffffffffffffffffffffffffffff166370a08231306040518263ffffffff1660e01b81526004016112739190612ab6565b602060405180830381865afa158015611290573d6000803e3d6000fd5b505050506040513d601f19601f820116820180604052508101906112b49190612e10565b9050600084836112c49190612e6c565b905060006011546112e4601254601054856112df9190612e6c565b6116e3565b6112ee9190612ea0565b905080836112fc9190612ea0565b945050505050919050565b6000806113126117f2565b9050600061132082866113f9565b905083811015611365576040517f08c379a000000000000000000000000000000000000000000000000000000000815260040161135c9061318f565b60405180910390fd5b61137282868684036117fa565b60019250505092915050565b6000806113896117f2565b9050611396818585611a4f565b600191505092915050565b60105481565b60155481565b600a60009054906101000a900473ffffffffffffffffffffffffffffffffffffffff1681565b600d60009054906101000a900473ffffffffffffffffffffffffffffffffffffffff1681565b6000600560008473ffffffffffffffffffffffffffffffffffffffff1673ffffffffffffffffffffffffffffffffffffffff16815260200190815260200160002060008373ffffffffffffffffffffffffffffffffffffffff1673ffffffffffffffffffffffffffffffffffffffff16815260200190815260200160002054905092915050565b61148861283b565b60006040518060800160405280600c60009054906101000a900473ffffffffffffffffffffffffffffffffffffffff1673ffffffffffffffffffffffffffffffffffffffff168152602001600d60009054906101000a900473ffffffffffffffffffffffffffffffffffffffff1673ffffffffffffffffffffffffffffffffffffffff168152602001600c60009054906101000a900473ffffffffffffffffffffffffffffffffffffffff1673ffffffffffffffffffffffffffffffffffffffff166370a08231306040518263ffffffff1660e01b815260040161156c9190612ab6565b602060405180830381865afa158015611589573d6000803e3d6000fd5b505050506040513d601f19601f820116820180604052508101906115ad9190612e10565b8152602001600d60009054906101000a900473ffffffffffffffffffffffffffffffffffffffff1673ffffffffffffffffffffffffffffffffffffffff166370a08231306040518263ffffffff1660e01b815260040161160d9190612ab6565b602060405180830381865afa15801561162a573d6000803e3d6000fd5b505050506040513d601f19601f8201168201806040525081019061164e9190612e10565b81525090508091505090565b60135481565b6116686123fc565b600073ffffffffffffffffffffffffffffffffffffffff168173ffffffffffffffffffffffffffffffffffffffff16036116d7576040517f08c379a00000000000000000000000000000000000000000000000000000000081526004016116ce90613221565b60405180910390fd5b6116e08161247a565b50565b600081836116f19190613270565b905092915050565b600080820361170b57600090506117ed565b600060016117188461270f565b901c6001901b9050600181848161173257611731613241565b5b048201901c9050600181848161174b5761174a613241565b5b048201901c9050600181848161176457611763613241565b5b048201901c9050600181848161177d5761177c613241565b5b048201901c9050600181848161179657611795613241565b5b048201901c905060018184816117af576117ae613241565b5b048201901c905060018184816117c8576117c7613241565b5b048201901c90506117e9818285816117e3576117e2613241565b5b046127f0565b9150505b919050565b600033905090565b600073ffffffffffffffffffffffffffffffffffffffff168373ffffffffffffffffffffffffffffffffffffffff1603611869576040517f08c379a000000000000000000000000000000000000000000000000000000000815260040161186090613313565b60405180910390fd5b600073ffffffffffffffffffffffffffffffffffffffff168273ffffffffffffffffffffffffffffffffffffffff16036118d8576040517f08c379a00000000000000000000000000000000000000000000000000000000081526004016118cf906133a5565b60405180910390fd5b80600560008573ffffffffffffffffffffffffffffffffffffffff1673ffffffffffffffffffffffffffffffffffffffff16815260200190815260200160002060008473ffffffffffffffffffffffffffffffffffffffff1673ffffffffffffffffffffffffffffffffffffffff168152602001908152602001600020819055508173ffffffffffffffffffffffffffffffffffffffff168373ffffffffffffffffffffffffffffffffffffffff167f8c5be1e5ebec7d5bd14f71427d1e84f3dd0314c0f7b2291e5b200ac8c7c3b925836040516119b69190612906565b60405180910390a3505050565b60006119cf84846113f9565b90507fffffffffffffffffffffffffffffffffffffffffffffffffffffffffffffffff8114611a495781811015611a3b576040517f08c379a0000000000000000000000000000000000000000000000000000000008152600401611a3290613411565b60405180910390fd5b611a4884848484036117fa565b5b50505050565b600073ffffffffffffffffffffffffffffffffffffffff168373ffffffffffffffffffffffffffffffffffffffff1603611abe576040517f08c379a0000000000000000000000000000000000000000000000000000000008152600401611ab5906134a3565b60405180910390fd5b600073ffffffffffffffffffffffffffffffffffffffff168273ffffffffffffffffffffffffffffffffffffffff1603611b2d576040517f08c379a0000000000000000000000000000000000000000000000000000000008152600401611b2490613535565b60405180910390fd5b611b38838383612809565b6000600460008573ffffffffffffffffffffffffffffffffffffffff1673ffffffffffffffffffffffffffffffffffffffff16815260200190815260200160002054905081811015611bbf576040517f08c379a0000000000000000000000000000000000000000000000000000000008152600401611bb6906135c7565b60405180910390fd5b818103600460008673ffffffffffffffffffffffffffffffffffffffff1673ffffffffffffffffffffffffffffffffffffffff1681526020019081526020016000208190555081600460008573ffffffffffffffffffffffffffffffffffffffff1673ffffffffffffffffffffffffffffffffffffffff168152602001908152602001600020600082825401925050819055508273ffffffffffffffffffffffffffffffffffffffff168473ffffffffffffffffffffffffffffffffffffffff167fddf252ad1be2c89b69c2b068fc378daa952ba7f163c4a11628f55a4df523b3ef84604051611caf9190612906565b60405180910390a3611cc284848461280e565b50505050565b6000611cd3836106b6565b905081811015611d18576040517f08c379a0000000000000000000000000000000000000000000000000000000008152600401611d0f90613633565b60405180910390fd5b600d60009054906101000a900473ffffffffffffffffffffffffffffffffffffffff1673ffffffffffffffffffffffffffffffffffffffff166323b872dd3330866040518463ffffffff1660e01b8152600401611d7793929190613653565b6020604051808303816000875af1158015611d96573d6000803e3d6000fd5b505050506040513d601f19601f82011682018060405250810190611dba919061369f565b50600c60009054906101000a900473ffffffffffffffffffffffffffffffffffffffff1673ffffffffffffffffffffffffffffffffffffffff1663a9059cbb33836040518363ffffffff1660e01b8152600401611e189291906136cc565b6020604051808303816000875af1158015611e37573d6000803e3d6000fd5b505050506040513d601f19601f82011682018060405250810190611e5b919061369f565b503073ffffffffffffffffffffffffffffffffffffffff163373ffffffffffffffffffffffffffffffffffffffff167fd78ad95fa46c994b6551d0da85fc275fe613ce37657fb8d5e3d130840159d822600086866000604051611ec1949392919061373a565b60405180910390a3505050565b6000611ed983611175565b905081811015611f1e576040517f08c379a0000000000000000000000000000000000000000000000000000000008152600401611f1590613633565b60405180910390fd5b600c60009054906101000a900473ffffffffffffffffffffffffffffffffffffffff1673ffffffffffffffffffffffffffffffffffffffff166323b872dd3330866040518463ffffffff1660e01b8152600401611f7d93929190613653565b6020604051808303816000875af1158015611f9c573d6000803e3d6000fd5b505050506040513d601f19601f82011682018060405250810190611fc0919061369f565b506000611fdd82601554611fd4919061306f565b620f42406116e3565b9050600d60009054906101000a900473ffffffffffffffffffffffffffffffffffffffff1673ffffffffffffffffffffffffffffffffffffffff1663a9059cbb600b60009054906101000a900473ffffffffffffffffffffffffffffffffffffffff16836040518363ffffffff1660e01b815260040161205e9291906136cc565b6020604051808303816000875af115801561207d573d6000803e3d6000fd5b505050506040513d601f19601f820116820180604052508101906120a1919061369f565b50600d60009054906101000a900473ffffffffffffffffffffffffffffffffffffffff1673ffffffffffffffffffffffffffffffffffffffff1663a9059cbb3383856120ed9190612ea0565b6040518363ffffffff1660e01b815260040161210a9291906136cc565b6020604051808303816000875af1158015612129573d6000803e3d6000fd5b505050506040513d601f19601f8201168201806040525081019061214d919061369f565b503073ffffffffffffffffffffffffffffffffffffffff163373ffffffffffffffffffffffffffffffffffffffff167fd78ad95fa46c994b6551d0da85fc275fe613ce37657fb8d5e3d130840159d82286600080886040516121b2949392919061377f565b60405180910390a350505050565b6003546001546002546121d39190612ea0565b0361222857600080600154815260200190815260200160002060008082016000905560018201600090556002820160009055600382016000905550506001600081548092919061222290612fbb565b91905055505b6002600081548092919061223b90612fbb565b9190505550604051806080016040528084815260200183815260200182815260200142815250600080600254815260200190815260200160002060008201518160000155602082015181600101556040820151816002015560608201518160030155905050505050565b600073ffffffffffffffffffffffffffffffffffffffff168273ffffffffffffffffffffffffffffffffffffffff1603612314576040517f08c379a000000000000000000000000000000000000000000000000000000000815260040161230b90613810565b60405180910390fd5b61232060008383612809565b80600660008282546123329190612e6c565b9250508190555080600460008473ffffffffffffffffffffffffffffffffffffffff1673ffffffffffffffffffffffffffffffffffffffff168152602001908152602001600020600082825401925050819055508173ffffffffffffffffffffffffffffffffffffffff16600073ffffffffffffffffffffffffffffffffffffffff167fddf252ad1be2c89b69c2b068fc378daa952ba7f163c4a11628f55a4df523b3ef836040516123e49190612906565b60405180910390a36123f86000838361280e565b5050565b6124046117f2565b73ffffffffffffffffffffffffffffffffffffffff16612422611036565b73ffffffffffffffffffffffffffffffffffffffff1614612478576040517f08c379a000000000000000000000000000000000000000000000000000000000815260040161246f9061387c565b60405180910390fd5b565b6000600960009054906101000a900473ffffffffffffffffffffffffffffffffffffffff16905081600960006101000a81548173ffffffffffffffffffffffffffffffffffffffff021916908373ffffffffffffffffffffffffffffffffffffffff1602179055508173ffffffffffffffffffffffffffffffffffffffff168173ffffffffffffffffffffffffffffffffffffffff167f8be0079c531659141344cd1fd0a4f28419497f9722a3daafe3b4186f6b6457e060405160405180910390a35050565b600073ffffffffffffffffffffffffffffffffffffffff168273ffffffffffffffffffffffffffffffffffffffff16036125af576040517f08c379a00000000000000000000000000000000000000000000000000000000081526004016125a69061390e565b60405180910390fd5b6125bb82600083612809565b6000600460008473ffffffffffffffffffffffffffffffffffffffff1673ffffffffffffffffffffffffffffffffffffffff16815260200190815260200160002054905081811015612642576040517f08c379a0000000000000000000000000000000000000000000000000000000008152600401612639906139a0565b60405180910390fd5b818103600460008573ffffffffffffffffffffffffffffffffffffffff1673ffffffffffffffffffffffffffffffffffffffff1681526020019081526020016000208190555081600660008282540392505081905550600073ffffffffffffffffffffffffffffffffffffffff168373ffffffffffffffffffffffffffffffffffffffff167fddf252ad1be2c89b69c2b068fc378daa952ba7f163c4a11628f55a4df523b3ef846040516126f69190612906565b60405180910390a361270a8360008461280e565b505050565b600080600090506000608084901c111561273157608083901c92506080810190505b6000604084901c111561274c57604083901c92506040810190505b6000602084901c111561276757602083901c92506020810190505b6000601084901c111561278257601083901c92506010810190505b6000600884901c111561279d57600883901c92506008810190505b6000600484901c11156127b857600483901c92506004810190505b6000600284901c11156127d357600283901c92506002810190505b6000600184901c11156127e7576001810190505b80915050919050565b60008183106127ff5781612801565b825b905092915050565b505050565b505050565b6040518060800160405280600081526020016000815260200160008152602001600081525090565b6040518060800160405280600073ffffffffffffffffffffffffffffffffffffffff168152602001600073ffffffffffffffffffffffffffffffffffffffff16815260200160008152602001600081525090565b600080fd5b6000819050919050565b6128a781612894565b81146128b257600080fd5b50565b6000813590506128c48161289e565b92915050565b6000602082840312156128e0576128df61288f565b5b60006128ee848285016128b5565b91505092915050565b61290081612894565b82525050565b600060208201905061291b60008301846128f7565b92915050565b600081519050919050565b600082825260208201905092915050565b60005b8381101561295b578082015181840152602081019050612940565b60008484015250505050565b6000601f19601f8301169050919050565b600061298382612921565b61298d818561292c565b935061299d81856020860161293d565b6129a681612967565b840191505092915050565b600060208201905081810360008301526129cb8184612978565b905092915050565b600073ffffffffffffffffffffffffffffffffffffffff82169050919050565b60006129fe826129d3565b9050919050565b612a0e816129f3565b8114612a1957600080fd5b50565b600081359050612a2b81612a05565b92915050565b60008060408385031215612a4857612a4761288f565b5b6000612a5685828601612a1c565b9250506020612a67858286016128b5565b9150509250929050565b60008115159050919050565b612a8681612a71565b82525050565b6000602082019050612aa16000830184612a7d565b92915050565b612ab0816129f3565b82525050565b6000602082019050612acb6000830184612aa7565b92915050565b600080600060608486031215612aea57612ae961288f565b5b6000612af886828701612a1c565b9350506020612b0986828701612a1c565b9250506040612b1a868287016128b5565b9150509250925092565b612b2d81612a71565b8114612b3857600080fd5b50565b600081359050612b4a81612b24565b92915050565b600080600060608486031215612b6957612b6861288f565b5b6000612b77868287016128b5565b9350506020612b88868287016128b5565b9250506040612b9986828701612b3b565b9150509250925092565b600060ff82169050919050565b612bb981612ba3565b82525050565b6000602082019050612bd46000830184612bb0565b92915050565b600081519050919050565b600082825260208201905092915050565b6000819050602082019050919050565b612c0f81612894565b82525050565b608082016000820151612c2b6000850182612c06565b506020820151612c3e6020850182612c06565b506040820151612c516040850182612c06565b506060820151612c646060850182612c06565b50505050565b6000612c768383612c15565b60808301905092915050565b6000602082019050919050565b6000612c9a82612bda565b612ca48185612be5565b9350612caf83612bf6565b8060005b83811015612ce0578151612cc78882612c6a565b9750612cd283612c82565b925050600181019050612cb3565b5085935050505092915050565b60006020820190508181036000830152612d078184612c8f565b905092915050565b600060208284031215612d2557612d2461288f565b5b6000612d3384828501612a1c565b91505092915050565b60008060408385031215612d5357612d5261288f565b5b6000612d6185828601612a1c565b9250506020612d7285828601612a1c565b9150509250929050565b612d85816129f3565b82525050565b608082016000820151612da16000850182612d7c565b506020820151612db46020850182612d7c565b506040820151612dc76040850182612c06565b506060820151612dda6060850182612c06565b50505050565b6000608082019050612df56000830184612d8b565b92915050565b600081519050612e0a8161289e565b92915050565b600060208284031215612e2657612e2561288f565b5b6000612e3484828501612dfb565b91505092915050565b7f4e487b7100000000000000000000000000000000000000000000000000000000600052601160045260246000fd5b6000612e7782612894565b9150612e8283612894565b9250828201905080821115612e9a57612e99612e3d565b5b92915050565b6000612eab82612894565b9150612eb683612894565b9250828203905081811115612ece57612ecd612e3d565b5b92915050565b7f4e487b7100000000000000000000000000000000000000000000000000000000600052602260045260246000fd5b60006002820490506001821680612f1b57607f821691505b602082108103612f2e57612f2d612ed4565b5b50919050565b6000604082019050612f4960008301856128f7565b612f5660208301846128f7565b9392505050565b7f4e487b7100000000000000000000000000000000000000000000000000000000600052604160045260246000fd5b7f4e487b7100000000000000000000000000000000000000000000000000000000600052603260045260246000fd5b6000612fc682612894565b91507fffffffffffffffffffffffffffffffffffffffffffffffffffffffffffffffff8203612ff857612ff7612e3d565b5b600182019050919050565b7f4f6e6c7920746865206f776e65722063616e206d696e7420746f6b656e730000600082015250565b6000613039601e8361292c565b915061304482613003565b602082019050919050565b600060208201905081810360008301526130688161302c565b9050919050565b600061307a82612894565b915061308583612894565b925082820261309381612894565b915082820484148315176130aa576130a9612e3d565b5b5092915050565b7f4f6e6c7920746865206f776e65722063616e206275726e20746f6b656e730000600082015250565b60006130e7601e8361292c565b91506130f2826130b1565b602082019050919050565b60006020820190508181036000830152613116816130da565b9050919050565b7f45524332303a2064656372656173656420616c6c6f77616e63652062656c6f7760008201527f207a65726f000000000000000000000000000000000000000000000000000000602082015250565b600061317960258361292c565b91506131848261311d565b604082019050919050565b600060208201905081810360008301526131a88161316c565b9050919050565b7f4f776e61626c653a206e6577206f776e657220697320746865207a65726f206160008201527f6464726573730000000000000000000000000000000000000000000000000000602082015250565b600061320b60268361292c565b9150613216826131af565b604082019050919050565b6000602082019050818103600083015261323a816131fe565b9050919050565b7f4e487b7100000000000000000000000000000000000000000000000000000000600052601260045260246000fd5b600061327b82612894565b915061328683612894565b92508261329657613295613241565b5b828204905092915050565b7f45524332303a20617070726f76652066726f6d20746865207a65726f2061646460008201527f7265737300000000000000000000000000000000000000000000000000000000602082015250565b60006132fd60248361292c565b9150613308826132a1565b604082019050919050565b6000602082019050818103600083015261332c816132f0565b9050919050565b7f45524332303a20617070726f766520746f20746865207a65726f20616464726560008201527f7373000000000000000000000000000000000000000000000000000000000000602082015250565b600061338f60228361292c565b915061339a82613333565b604082019050919050565b600060208201905081810360008301526133be81613382565b9050919050565b7f45524332303a20696e73756666696369656e7420616c6c6f77616e6365000000600082015250565b60006133fb601d8361292c565b9150613406826133c5565b602082019050919050565b6000602082019050818103600083015261342a816133ee565b9050919050565b7f45524332303a207472616e736665722066726f6d20746865207a65726f20616460008201527f6472657373000000000000000000000000000000000000000000000000000000602082015250565b600061348d60258361292c565b915061349882613431565b604082019050919050565b600060208201905081810360008301526134bc81613480565b9050919050565b7f45524332303a207472616e7366657220746f20746865207a65726f206164647260008201527f6573730000000000000000000000000000000000000000000000000000000000602082015250565b600061351f60238361292c565b915061352a826134c3565b604082019050919050565b6000602082019050818103600083015261354e81613512565b9050919050565b7f45524332303a207472616e7366657220616d6f756e742065786365656473206260008201527f616c616e63650000000000000000000000000000000000000000000000000000602082015250565b60006135b160268361292c565b91506135bc82613555565b604082019050919050565b600060208201905081810360008301526135e0816135a4565b9050919050565b7f496e73756666696369656e74206f757470757420616d6f756e74000000000000600082015250565b600061361d601a8361292c565b9150613628826135e7565b602082019050919050565b6000602082019050818103600083015261364c81613610565b9050919050565b60006060820190506136686000830186612aa7565b6136756020830185612aa7565b61368260408301846128f7565b949350505050565b60008151905061369981612b24565b92915050565b6000602082840312156136b5576136b461288f565b5b60006136c38482850161368a565b91505092915050565b60006040820190506136e16000830185612aa7565b6136ee60208301846128f7565b9392505050565b6000819050919050565b6000819050919050565b600061372461371f61371a846136f5565b6136ff565b612894565b9050919050565b61373481613709565b82525050565b600060808201905061374f600083018761372b565b61375c60208301866128f7565b61376960408301856128f7565b613776606083018461372b565b95945050505050565b600060808201905061379460008301876128f7565b6137a1602083018661372b565b6137ae604083018561372b565b6137bb60608301846128f7565b95945050505050565b7f45524332303a206d696e7420746f20746865207a65726f206164647265737300600082015250565b60006137fa601f8361292c565b9150613805826137c4565b602082019050919050565b60006020820190508181036000830152613829816137ed565b9050919050565b7f4f776e61626c653a2063616c6c6572206973206e6f7420746865206f776e6572600082015250565b600061386660208361292c565b915061387182613830565b602082019050919050565b6000602082019050818103600083015261389581613859565b9050919050565b7f45524332303a206275726e2066726f6d20746865207a65726f2061646472657360008201527f7300000000000000000000000000000000000000000000000000000000000000602082015250565b60006138f860218361292c565b91506139038261389c565b604082019050919050565b60006020820190508181036000830152613927816138eb565b9050919050565b7f45524332303a206275726e20616d6f756e7420657863656564732062616c616e60008201527f6365000000000000000000000000000000000000000000000000000000000000602082015250565b600061398a60228361292c565b91506139958261392e565b604082019050919050565b600060208201905081810360008301526139b98161397d565b905091905056fea264697066735822122071244b5e4745fadb4381a5c42d4159bb683015a284cc63dd73a67019f6c686e664736f6c63430008120033",
			"opcodes": "PUSH1 0x80 PUSH1 0x40 MSTORE CALLVALUE DUP1 ISZERO PUSH3 0x11 JUMPI PUSH1 0x0 DUP1 REVERT JUMPDEST POP PUSH1 0x40 MLOAD PUSH3 0x4C33 CODESIZE SUB DUP1 PUSH3 0x4C33 DUP4 CODECOPY DUP2 DUP2 ADD PUSH1 0x40 MSTORE DUP2 ADD SWAP1 PUSH3 0x37 SWAP2 SWAP1 PUSH3 0x932 JUMP JUMPDEST PUSH1 0x40 MLOAD DUP1 PUSH1 0x40 ADD PUSH1 0x40 MSTORE DUP1 PUSH1 0x8 DUP2 MSTORE PUSH1 0x20 ADD PUSH32 0x4C5020546F6B656E000000000000000000000000000000000000000000000000 DUP2 MSTORE POP PUSH1 0x40 MLOAD DUP1 PUSH1 0x40 ADD PUSH1 0x40 MSTORE DUP1 PUSH1 0x2 DUP2 MSTORE PUSH1 0x20 ADD PUSH32 0x4C50000000000000000000000000000000000000000000000000000000000000 DUP2 MSTORE POP PUSH3 0x186A0 PUSH1 0x0 PUSH1 0x1 DUP2 SWAP1 SSTORE POP PUSH1 0x0 PUSH1 0x2 DUP2 SWAP1 SSTORE POP DUP1 PUSH1 0x3 DUP2 SWAP1 SSTORE POP POP DUP2 PUSH1 0x7 SWAP1 DUP2 PUSH3 0xD0 SWAP2 SWAP1 PUSH3 0xC81 JUMP JUMPDEST POP DUP1 PUSH1 0x8 SWAP1 DUP2 PUSH3 0xE2 SWAP2 SWAP1 PUSH3 0xC81 JUMP JUMPDEST POP POP POP PUSH3 0x105 PUSH3 0xF9 PUSH3 0x401 PUSH1 0x20 SHL PUSH1 0x20 SHR JUMP JUMPDEST PUSH3 0x409 PUSH1 0x20 SHL PUSH1 0x20 SHR JUMP JUMPDEST DUP9 PUSH1 0xA PUSH1 0x0 PUSH2 0x100 EXP DUP2 SLOAD DUP2 PUSH20 0xFFFFFFFFFFFFFFFFFFFFFFFFFFFFFFFFFFFFFFFF MUL NOT AND SWAP1 DUP4 PUSH20 0xFFFFFFFFFFFFFFFFFFFFFFFFFFFFFFFFFFFFFFFF AND MUL OR SWAP1 SSTORE POP DUP8 PUSH1 0xB PUSH1 0x0 PUSH2 0x100 EXP DUP2 SLOAD DUP2 PUSH20 0xFFFFFFFFFFFFFFFFFFFFFFFFFFFFFFFFFFFFFFFF MUL NOT AND SWAP1 DUP4 PUSH20 0xFFFFFFFFFFFFFFFFFFFFFFFFFFFFFFFFFFFFFFFF AND MUL OR SWAP1 SSTORE POP DUP6 PUSH20 0xFFFFFFFFFFFFFFFFFFFFFFFFFFFFFFFFFFFFFFFF AND DUP8 PUSH20 0xFFFFFFFFFFFFFFFFFFFFFFFFFFFFFFFFFFFFFFFF AND SUB PUSH3 0x1F8 JUMPI PUSH1 0x40 MLOAD PUSH32 0x8C379A000000000000000000000000000000000000000000000000000000000 DUP2 MSTORE PUSH1 0x4 ADD PUSH3 0x1EF SWAP1 PUSH3 0xDC9 JUMP JUMPDEST PUSH1 0x40 MLOAD DUP1 SWAP2 SUB SWAP1 REVERT JUMPDEST DUP7 PUSH1 0xC PUSH1 0x0 PUSH2 0x100 EXP DUP2 SLOAD DUP2 PUSH20 0xFFFFFFFFFFFFFFFFFFFFFFFFFFFFFFFFFFFFFFFF MUL NOT AND SWAP1 DUP4 PUSH20 0xFFFFFFFFFFFFFFFFFFFFFFFFFFFFFFFFFFFFFFFF AND MUL OR SWAP1 SSTORE POP DUP6 PUSH1 0xD PUSH1 0x0 PUSH2 0x100 EXP DUP2 SLOAD DUP2 PUSH20 0xFFFFFFFFFFFFFFFFFFFFFFFFFFFFFFFFFFFFFFFF MUL NOT AND SWAP1 DUP4 PUSH20 0xFFFFFFFFFFFFFFFFFFFFFFFFFFFFFFFFFFFFFFFF AND MUL OR SWAP1 SSTORE POP DUP5 PUSH1 0xE DUP2 SWAP1 SSTORE POP DUP4 PUSH1 0xF DUP2 SWAP1 SSTORE POP DUP3 DUP3 LT ISZERO PUSH3 0x2CE JUMPI PUSH1 0x40 MLOAD PUSH32 0x8C379A000000000000000000000000000000000000000000000000000000000 DUP2 MSTORE PUSH1 0x4 ADD PUSH3 0x2C5 SWAP1 PUSH3 0xE61 JUMP JUMPDEST PUSH1 0x40 MLOAD DUP1 SWAP2 SUB SWAP1 REVERT JUMPDEST DUP3 PUSH1 0x13 DUP2 SWAP1 SSTORE POP DUP2 PUSH1 0x14 DUP2 SWAP1 SSTORE POP DUP1 PUSH1 0x15 DUP2 SWAP1 SSTORE POP PUSH3 0x2F6 DUP4 DUP4 DUP8 PUSH3 0x4CF PUSH1 0x20 SHL PUSH1 0x20 SHR JUMP JUMPDEST PUSH1 0x10 DUP2 SWAP1 SSTORE POP PUSH3 0x313 DUP8 DUP5 PUSH1 0x10 SLOAD DUP9 DUP9 PUSH3 0x566 PUSH1 0x20 SHL PUSH1 0x20 SHR JUMP JUMPDEST PUSH1 0x11 DUP2 SWAP1 SSTORE POP PUSH1 0x11 SLOAD PUSH1 0xF SLOAD PUSH3 0x32B SWAP2 SWAP1 PUSH3 0xEB2 JUMP JUMPDEST PUSH1 0x10 SLOAD PUSH1 0xE SLOAD PUSH3 0x33D SWAP2 SWAP1 PUSH3 0xEB2 JUMP JUMPDEST PUSH3 0x349 SWAP2 SWAP1 PUSH3 0xEED JUMP JUMPDEST PUSH1 0x12 DUP2 SWAP1 SSTORE POP PUSH1 0x40 MLOAD DUP1 PUSH1 0x80 ADD PUSH1 0x40 MSTORE DUP1 PUSH1 0xE SLOAD DUP2 MSTORE PUSH1 0x20 ADD PUSH1 0xF SLOAD DUP2 MSTORE PUSH1 0x20 ADD PUSH1 0x13 SLOAD DUP2 MSTORE PUSH1 0x20 ADD TIMESTAMP DUP2 MSTORE POP PUSH1 0x0 DUP1 DUP1 DUP2 MSTORE PUSH1 0x20 ADD SWAP1 DUP2 MSTORE PUSH1 0x20 ADD PUSH1 0x0 KECCAK256 PUSH1 0x0 DUP3 ADD MLOAD DUP2 PUSH1 0x0 ADD SSTORE PUSH1 0x20 DUP3 ADD MLOAD DUP2 PUSH1 0x1 ADD SSTORE PUSH1 0x40 DUP3 ADD MLOAD DUP2 PUSH1 0x2 ADD SSTORE PUSH1 0x60 DUP3 ADD MLOAD DUP2 PUSH1 0x3 ADD SSTORE SWAP1 POP POP PUSH32 0xCF2AA50876CDFBB541206F89AF0EE78D44A2ABF8D328E37FA4917F982149848A PUSH1 0xE SLOAD PUSH1 0xF SLOAD PUSH1 0x40 MLOAD PUSH3 0x3EA SWAP3 SWAP2 SWAP1 PUSH3 0xF49 JUMP JUMPDEST PUSH1 0x40 MLOAD DUP1 SWAP2 SUB SWAP1 LOG1 POP POP POP POP POP POP POP POP POP PUSH3 0x122D JUMP JUMPDEST PUSH1 0x0 CALLER SWAP1 POP SWAP1 JUMP JUMPDEST PUSH1 0x0 PUSH1 0x9 PUSH1 0x0 SWAP1 SLOAD SWAP1 PUSH2 0x100 EXP SWAP1 DIV PUSH20 0xFFFFFFFFFFFFFFFFFFFFFFFFFFFFFFFFFFFFFFFF AND SWAP1 POP DUP2 PUSH1 0x9 PUSH1 0x0 PUSH2 0x100 EXP DUP2 SLOAD DUP2 PUSH20 0xFFFFFFFFFFFFFFFFFFFFFFFFFFFFFFFFFFFFFFFF MUL NOT AND SWAP1 DUP4 PUSH20 0xFFFFFFFFFFFFFFFFFFFFFFFFFFFFFFFFFFFFFFFF AND MUL OR SWAP1 SSTORE POP DUP2 PUSH20 0xFFFFFFFFFFFFFFFFFFFFFFFFFFFFFFFFFFFFFFFF AND DUP2 PUSH20 0xFFFFFFFFFFFFFFFFFFFFFFFFFFFFFFFFFFFFFFFF AND PUSH32 0x8BE0079C531659141344CD1FD0A4F28419497F9722A3DAAFE3B4186F6B6457E0 PUSH1 0x40 MLOAD PUSH1 0x40 MLOAD DUP1 SWAP2 SUB SWAP1 LOG3 POP POP JUMP JUMPDEST PUSH1 0x0 DUP1 PUSH3 0x4FE PUSH8 0xDE0B6B3A7640000 DUP7 PUSH3 0x4EC SWAP2 SWAP1 PUSH3 0xEED JUMP JUMPDEST DUP6 PUSH3 0x64E PUSH1 0x20 SHL PUSH3 0x16E3 OR PUSH1 0x20 SHR JUMP JUMPDEST SWAP1 POP PUSH1 0x0 PUSH3 0x518 DUP3 PUSH3 0x666 PUSH1 0x20 SHL PUSH3 0x16F9 OR PUSH1 0x20 SHR JUMP JUMPDEST SWAP1 POP PUSH1 0x0 DUP5 DUP3 PUSH3 0x52A SWAP2 SWAP1 PUSH3 0xEED JUMP JUMPDEST SWAP1 POP PUSH1 0x0 DUP3 PUSH4 0x3B9ACA00 PUSH3 0x540 SWAP2 SWAP1 PUSH3 0xF76 JUMP JUMPDEST SWAP1 POP PUSH3 0x559 DUP3 DUP3 PUSH3 0x64E PUSH1 0x20 SHL PUSH3 0x16E3 OR PUSH1 0x20 SHR JUMP JUMPDEST SWAP5 POP POP POP POP POP SWAP4 SWAP3 POP POP POP JUMP JUMPDEST PUSH1 0x0 DUP1 DUP7 PUSH20 0xFFFFFFFFFFFFFFFFFFFFFFFFFFFFFFFFFFFFFFFF AND PUSH4 0x313CE567 PUSH1 0x40 MLOAD DUP2 PUSH4 0xFFFFFFFF AND PUSH1 0xE0 SHL DUP2 MSTORE PUSH1 0x4 ADD PUSH1 0x20 PUSH1 0x40 MLOAD DUP1 DUP4 SUB DUP2 DUP7 GAS STATICCALL ISZERO DUP1 ISZERO PUSH3 0x5B5 JUMPI RETURNDATASIZE PUSH1 0x0 DUP1 RETURNDATACOPY RETURNDATASIZE PUSH1 0x0 REVERT JUMPDEST POP POP POP POP PUSH1 0x40 MLOAD RETURNDATASIZE PUSH1 0x1F NOT PUSH1 0x1F DUP3 ADD AND DUP3 ADD DUP1 PUSH1 0x40 MSTORE POP DUP2 ADD SWAP1 PUSH3 0x5DB SWAP2 SWAP1 PUSH3 0xFEF JUMP JUMPDEST SWAP1 POP PUSH1 0x0 DUP2 PUSH1 0xA PUSH3 0x5EE SWAP2 SWAP1 PUSH3 0x1175 JUMP JUMPDEST SWAP1 POP PUSH1 0x0 DUP5 DUP3 PUSH3 0x600 SWAP2 SWAP1 PUSH3 0xEED JUMP JUMPDEST DUP8 DUP8 PUSH3 0x60E SWAP2 SWAP1 PUSH3 0xEB2 JUMP JUMPDEST DUP10 PUSH3 0x61B SWAP2 SWAP1 PUSH3 0xEED JUMP JUMPDEST PUSH3 0x627 SWAP2 SWAP1 PUSH3 0xF76 JUMP JUMPDEST SWAP1 POP PUSH3 0x640 DUP2 DUP4 PUSH3 0x64E PUSH1 0x20 SHL PUSH3 0x16E3 OR PUSH1 0x20 SHR JUMP JUMPDEST SWAP4 POP POP POP POP SWAP6 SWAP5 POP POP POP POP POP JUMP JUMPDEST PUSH1 0x0 DUP2 DUP4 PUSH3 0x65E SWAP2 SWAP1 PUSH3 0x11F5 JUMP JUMPDEST SWAP1 POP SWAP3 SWAP2 POP POP JUMP JUMPDEST PUSH1 0x0 DUP1 DUP3 SUB PUSH3 0x67A JUMPI PUSH1 0x0 SWAP1 POP PUSH3 0x784 JUMP JUMPDEST PUSH1 0x0 PUSH1 0x1 PUSH3 0x68F DUP5 PUSH3 0x789 PUSH1 0x20 SHL PUSH1 0x20 SHR JUMP JUMPDEST SWAP1 SHR PUSH1 0x1 SWAP1 SHL SWAP1 POP PUSH1 0x1 DUP2 DUP5 DUP2 PUSH3 0x6AC JUMPI PUSH3 0x6AB PUSH3 0x11C6 JUMP JUMPDEST JUMPDEST DIV DUP3 ADD SWAP1 SHR SWAP1 POP PUSH1 0x1 DUP2 DUP5 DUP2 PUSH3 0x6C8 JUMPI PUSH3 0x6C7 PUSH3 0x11C6 JUMP JUMPDEST JUMPDEST DIV DUP3 ADD SWAP1 SHR SWAP1 POP PUSH1 0x1 DUP2 DUP5 DUP2 PUSH3 0x6E4 JUMPI PUSH3 0x6E3 PUSH3 0x11C6 JUMP JUMPDEST JUMPDEST DIV DUP3 ADD SWAP1 SHR SWAP1 POP PUSH1 0x1 DUP2 DUP5 DUP2 PUSH3 0x700 JUMPI PUSH3 0x6FF PUSH3 0x11C6 JUMP JUMPDEST JUMPDEST DIV DUP3 ADD SWAP1 SHR SWAP1 POP PUSH1 0x1 DUP2 DUP5 DUP2 PUSH3 0x71C JUMPI PUSH3 0x71B PUSH3 0x11C6 JUMP JUMPDEST JUMPDEST DIV DUP3 ADD SWAP1 SHR SWAP1 POP PUSH1 0x1 DUP2 DUP5 DUP2 PUSH3 0x738 JUMPI PUSH3 0x737 PUSH3 0x11C6 JUMP JUMPDEST JUMPDEST DIV DUP3 ADD SWAP1 SHR SWAP1 POP PUSH1 0x1 DUP2 DUP5 DUP2 PUSH3 0x754 JUMPI PUSH3 0x753 PUSH3 0x11C6 JUMP JUMPDEST JUMPDEST DIV DUP3 ADD SWAP1 SHR SWAP1 POP PUSH3 0x780 DUP2 DUP3 DUP6 DUP2 PUSH3 0x773 JUMPI PUSH3 0x772 PUSH3 0x11C6 JUMP JUMPDEST JUMPDEST DIV PUSH3 0x872 PUSH1 0x20 SHL PUSH1 0x20 SHR JUMP JUMPDEST SWAP2 POP POP JUMPDEST SWAP2 SWAP1 POP JUMP JUMPDEST PUSH1 0x0 DUP1 PUSH1 0x0 SWAP1 POP PUSH1 0x0 PUSH1 0x80 DUP5 SWAP1 SHR GT ISZERO PUSH3 0x7AC JUMPI PUSH1 0x80 DUP4 SWAP1 SHR SWAP3 POP PUSH1 0x80 DUP2 ADD SWAP1 POP JUMPDEST PUSH1 0x0 PUSH1 0x40 DUP5 SWAP1 SHR GT ISZERO PUSH3 0x7C8 JUMPI PUSH1 0x40 DUP4 SWAP1 SHR SWAP3 POP PUSH1 0x40 DUP2 ADD SWAP1 POP JUMPDEST PUSH1 0x0 PUSH1 0x20 DUP5 SWAP1 SHR GT ISZERO PUSH3 0x7E4 JUMPI PUSH1 0x20 DUP4 SWAP1 SHR SWAP3 POP PUSH1 0x20 DUP2 ADD SWAP1 POP JUMPDEST PUSH1 0x0 PUSH1 0x10 DUP5 SWAP1 SHR GT ISZERO PUSH3 0x800 JUMPI PUSH1 0x10 DUP4 SWAP1 SHR SWAP3 POP PUSH1 0x10 DUP2 ADD SWAP1 POP JUMPDEST PUSH1 0x0 PUSH1 0x8 DUP5 SWAP1 SHR GT ISZERO PUSH3 0x81C JUMPI PUSH1 0x8 DUP4 SWAP1 SHR SWAP3 POP PUSH1 0x8 DUP2 ADD SWAP1 POP JUMPDEST PUSH1 0x0 PUSH1 0x4 DUP5 SWAP1 SHR GT ISZERO PUSH3 0x838 JUMPI PUSH1 0x4 DUP4 SWAP1 SHR SWAP3 POP PUSH1 0x4 DUP2 ADD SWAP1 POP JUMPDEST PUSH1 0x0 PUSH1 0x2 DUP5 SWAP1 SHR GT ISZERO PUSH3 0x854 JUMPI PUSH1 0x2 DUP4 SWAP1 SHR SWAP3 POP PUSH1 0x2 DUP2 ADD SWAP1 POP JUMPDEST PUSH1 0x0 PUSH1 0x1 DUP5 SWAP1 SHR GT ISZERO PUSH3 0x869 JUMPI PUSH1 0x1 DUP2 ADD SWAP1 POP JUMPDEST DUP1 SWAP2 POP POP SWAP2 SWAP1 POP JUMP JUMPDEST PUSH1 0x0 DUP2 DUP4 LT PUSH3 0x883 JUMPI DUP2 PUSH3 0x885 JUMP JUMPDEST DUP3 JUMPDEST SWAP1 POP SWAP3 SWAP2 POP POP JUMP JUMPDEST PUSH1 0x0 DUP1 REVERT JUMPDEST PUSH1 0x0 PUSH20 0xFFFFFFFFFFFFFFFFFFFFFFFFFFFFFFFFFFFFFFFF DUP3 AND SWAP1 POP SWAP2 SWAP1 POP JUMP JUMPDEST PUSH1 0x0 PUSH3 0x8BF DUP3 PUSH3 0x892 JUMP JUMPDEST SWAP1 POP SWAP2 SWAP1 POP JUMP JUMPDEST PUSH3 0x8D1 DUP2 PUSH3 0x8B2 JUMP JUMPDEST DUP2 EQ PUSH3 0x8DD JUMPI PUSH1 0x0 DUP1 REVERT JUMPDEST POP JUMP JUMPDEST PUSH1 0x0 DUP2 MLOAD SWAP1 POP PUSH3 0x8F1 DUP2 PUSH3 0x8C6 JUMP JUMPDEST SWAP3 SWAP2 POP POP JUMP JUMPDEST PUSH1 0x0 DUP2 SWAP1 POP SWAP2 SWAP1 POP JUMP JUMPDEST PUSH3 0x90C DUP2 PUSH3 0x8F7 JUMP JUMPDEST DUP2 EQ PUSH3 0x918 JUMPI PUSH1 0x0 DUP1 REVERT JUMPDEST POP JUMP JUMPDEST PUSH1 0x0 DUP2 MLOAD SWAP1 POP PUSH3 0x92C DUP2 PUSH3 0x901 JUMP JUMPDEST SWAP3 SWAP2 POP POP JUMP JUMPDEST PUSH1 0x0 DUP1 PUSH1 0x0 DUP1 PUSH1 0x0 DUP1 PUSH1 0x0 DUP1 PUSH1 0x0 PUSH2 0x120 DUP11 DUP13 SUB SLT ISZERO PUSH3 0x958 JUMPI PUSH3 0x957 PUSH3 0x88D JUMP JUMPDEST JUMPDEST PUSH1 0x0 PUSH3 0x968 DUP13 DUP3 DUP14 ADD PUSH3 0x8E0 JUMP JUMPDEST SWAP10 POP POP PUSH1 0x20 PUSH3 0x97B DUP13 DUP3 DUP14 ADD PUSH3 0x8E0 JUMP JUMPDEST SWAP9 POP POP PUSH1 0x40 PUSH3 0x98E DUP13 DUP3 DUP14 ADD PUSH3 0x8E0 JUMP JUMPDEST SWAP8 POP POP PUSH1 0x60 PUSH3 0x9A1 DUP13 DUP3 DUP14 ADD PUSH3 0x8E0 JUMP JUMPDEST SWAP7 POP POP PUSH1 0x80 PUSH3 0x9B4 DUP13 DUP3 DUP14 ADD PUSH3 0x91B JUMP JUMPDEST SWAP6 POP POP PUSH1 0xA0 PUSH3 0x9C7 DUP13 DUP3 DUP14 ADD PUSH3 0x91B JUMP JUMPDEST SWAP5 POP POP PUSH1 0xC0 PUSH3 0x9DA DUP13 DUP3 DUP14 ADD PUSH3 0x91B JUMP JUMPDEST SWAP4 POP POP PUSH1 0xE0 PUSH3 0x9ED DUP13 DUP3 DUP14 ADD PUSH3 0x91B JUMP JUMPDEST SWAP3 POP POP PUSH2 0x100 PUSH3 0xA01 DUP13 DUP3 DUP14 ADD PUSH3 0x91B JUMP JUMPDEST SWAP2 POP POP SWAP3 SWAP6 SWAP9 POP SWAP3 SWAP6 SWAP9 POP SWAP3 SWAP6 SWAP9 JUMP JUMPDEST PUSH1 0x0 DUP2 MLOAD SWAP1 POP SWAP2 SWAP1 POP JUMP JUMPDEST PUSH32 0x4E487B7100000000000000000000000000000000000000000000000000000000 PUSH1 0x0 MSTORE PUSH1 0x41 PUSH1 0x4 MSTORE PUSH1 0x24 PUSH1 0x0 REVERT JUMPDEST PUSH32 0x4E487B7100000000000000000000000000000000000000000000000000000000 PUSH1 0x0 MSTORE PUSH1 0x22 PUSH1 0x4 MSTORE PUSH1 0x24 PUSH1 0x0 REVERT JUMPDEST PUSH1 0x0 PUSH1 0x2 DUP3 DIV SWAP1 POP PUSH1 0x1 DUP3 AND DUP1 PUSH3 0xA93 JUMPI PUSH1 0x7F DUP3 AND SWAP2 POP JUMPDEST PUSH1 0x20 DUP3 LT DUP2 SUB PUSH3 0xAA9 JUMPI PUSH3 0xAA8 PUSH3 0xA4B JUMP JUMPDEST JUMPDEST POP SWAP2 SWAP1 POP JUMP JUMPDEST PUSH1 0x0 DUP2 SWAP1 POP DUP2 PUSH1 0x0 MSTORE PUSH1 0x20 PUSH1 0x0 KECCAK256 SWAP1 POP SWAP2 SWAP1 POP JUMP JUMPDEST PUSH1 0x0 PUSH1 0x20 PUSH1 0x1F DUP4 ADD DIV SWAP1 POP SWAP2 SWAP1 POP JUMP JUMPDEST PUSH1 0x0 DUP3 DUP3 SHL SWAP1 POP SWAP3 SWAP2 POP POP JUMP JUMPDEST PUSH1 0x0 PUSH1 0x8 DUP4 MUL PUSH3 0xB13 PUSH32 0xFFFFFFFFFFFFFFFFFFFFFFFFFFFFFFFFFFFFFFFFFFFFFFFFFFFFFFFFFFFFFFFF DUP3 PUSH3 0xAD4 JUMP JUMPDEST PUSH3 0xB1F DUP7 DUP4 PUSH3 0xAD4 JUMP JUMPDEST SWAP6 POP DUP1 NOT DUP5 AND SWAP4 POP DUP1 DUP7 AND DUP5 OR SWAP3 POP POP POP SWAP4 SWAP3 POP POP POP JUMP JUMPDEST PUSH1 0x0 DUP2 SWAP1 POP SWAP2 SWAP1 POP JUMP JUMPDEST PUSH1 0x0 PUSH3 0xB62 PUSH3 0xB5C PUSH3 0xB56 DUP5 PUSH3 0x8F7 JUMP JUMPDEST PUSH3 0xB37 JUMP JUMPDEST PUSH3 0x8F7 JUMP JUMPDEST SWAP1 POP SWAP2 SWAP1 POP JUMP JUMPDEST PUSH1 0x0 DUP2 SWAP1 POP SWAP2 SWAP1 POP JUMP JUMPDEST PUSH3 0xB7E DUP4 PUSH3 0xB41 JUMP JUMPDEST PUSH3 0xB96 PUSH3 0xB8D DUP3 PUSH3 0xB69 JUMP JUMPDEST DUP5 DUP5 SLOAD PUSH3 0xAE1 JUMP JUMPDEST DUP3 SSTORE POP POP POP POP JUMP JUMPDEST PUSH1 0x0 SWAP1 JUMP JUMPDEST PUSH3 0xBAD PUSH3 0xB9E JUMP JUMPDEST PUSH3 0xBBA DUP2 DUP5 DUP5 PUSH3 0xB73 JUMP JUMPDEST POP POP POP JUMP JUMPDEST JUMPDEST DUP2 DUP2 LT ISZERO PUSH3 0xBE2 JUMPI PUSH3 0xBD6 PUSH1 0x0 DUP3 PUSH3 0xBA3 JUMP JUMPDEST PUSH1 0x1 DUP2 ADD SWAP1 POP PUSH3 0xBC0 JUMP JUMPDEST POP POP JUMP JUMPDEST PUSH1 0x1F DUP3 GT ISZERO PUSH3 0xC31 JUMPI PUSH3 0xBFB DUP2 PUSH3 0xAAF JUMP JUMPDEST PUSH3 0xC06 DUP5 PUSH3 0xAC4 JUMP JUMPDEST DUP2 ADD PUSH1 0x20 DUP6 LT ISZERO PUSH3 0xC16 JUMPI DUP2 SWAP1 POP JUMPDEST PUSH3 0xC2E PUSH3 0xC25 DUP6 PUSH3 0xAC4 JUMP JUMPDEST DUP4 ADD DUP3 PUSH3 0xBBF JUMP JUMPDEST POP POP JUMPDEST POP POP POP JUMP JUMPDEST PUSH1 0x0 DUP3 DUP3 SHR SWAP1 POP SWAP3 SWAP2 POP POP JUMP JUMPDEST PUSH1 0x0 PUSH3 0xC56 PUSH1 0x0 NOT DUP5 PUSH1 0x8 MUL PUSH3 0xC36 JUMP JUMPDEST NOT DUP1 DUP4 AND SWAP2 POP POP SWAP3 SWAP2 POP POP JUMP JUMPDEST PUSH1 0x0 PUSH3 0xC71 DUP4 DUP4 PUSH3 0xC43 JUMP JUMPDEST SWAP2 POP DUP3 PUSH1 0x2 MUL DUP3 OR SWAP1 POP SWAP3 SWAP2 POP POP JUMP JUMPDEST PUSH3 0xC8C DUP3 PUSH3 0xA11 JUMP JUMPDEST PUSH8 0xFFFFFFFFFFFFFFFF DUP2 GT ISZERO PUSH3 0xCA8 JUMPI PUSH3 0xCA7 PUSH3 0xA1C JUMP JUMPDEST JUMPDEST PUSH3 0xCB4 DUP3 SLOAD PUSH3 0xA7A JUMP JUMPDEST PUSH3 0xCC1 DUP3 DUP3 DUP6 PUSH3 0xBE6 JUMP JUMPDEST PUSH1 0x0 PUSH1 0x20 SWAP1 POP PUSH1 0x1F DUP4 GT PUSH1 0x1 DUP2 EQ PUSH3 0xCF9 JUMPI PUSH1 0x0 DUP5 ISZERO PUSH3 0xCE4 JUMPI DUP3 DUP8 ADD MLOAD SWAP1 POP JUMPDEST PUSH3 0xCF0 DUP6 DUP3 PUSH3 0xC63 JUMP JUMPDEST DUP7 SSTORE POP PUSH3 0xD60 JUMP JUMPDEST PUSH1 0x1F NOT DUP5 AND PUSH3 0xD09 DUP7 PUSH3 0xAAF JUMP JUMPDEST PUSH1 0x0 JUMPDEST DUP3 DUP2 LT ISZERO PUSH3 0xD33 JUMPI DUP5 DUP10 ADD MLOAD DUP3 SSTORE PUSH1 0x1 DUP3 ADD SWAP2 POP PUSH1 0x20 DUP6 ADD SWAP5 POP PUSH1 0x20 DUP2 ADD SWAP1 POP PUSH3 0xD0C JUMP JUMPDEST DUP7 DUP4 LT ISZERO PUSH3 0xD53 JUMPI DUP5 DUP10 ADD MLOAD PUSH3 0xD4F PUSH1 0x1F DUP10 AND DUP3 PUSH3 0xC43 JUMP JUMPDEST DUP4 SSTORE POP JUMPDEST PUSH1 0x1 PUSH1 0x2 DUP9 MUL ADD DUP9 SSTORE POP POP POP JUMPDEST POP POP POP POP POP POP JUMP JUMPDEST PUSH1 0x0 DUP3 DUP3 MSTORE PUSH1 0x20 DUP3 ADD SWAP1 POP SWAP3 SWAP2 POP POP JUMP JUMPDEST PUSH32 0x426F746820746F6B656E732063616E6E6F74206265207468652073616D650000 PUSH1 0x0 DUP3 ADD MSTORE POP JUMP JUMPDEST PUSH1 0x0 PUSH3 0xDB1 PUSH1 0x1E DUP4 PUSH3 0xD68 JUMP JUMPDEST SWAP2 POP PUSH3 0xDBE DUP3 PUSH3 0xD79 JUMP JUMPDEST PUSH1 0x20 DUP3 ADD SWAP1 POP SWAP2 SWAP1 POP JUMP JUMPDEST PUSH1 0x0 PUSH1 0x20 DUP3 ADD SWAP1 POP DUP2 DUP2 SUB PUSH1 0x0 DUP4 ADD MSTORE PUSH3 0xDE4 DUP2 PUSH3 0xDA2 JUMP JUMPDEST SWAP1 POP SWAP2 SWAP1 POP JUMP JUMPDEST PUSH32 0x4D6178696D756D207072696365206D7573742062652067726561746572207468 PUSH1 0x0 DUP3 ADD MSTORE PUSH32 0x616E206F7220657175616C20746F207468652062617365207072696365000000 PUSH1 0x20 DUP3 ADD MSTORE POP JUMP JUMPDEST PUSH1 0x0 PUSH3 0xE49 PUSH1 0x3D DUP4 PUSH3 0xD68 JUMP JUMPDEST SWAP2 POP PUSH3 0xE56 DUP3 PUSH3 0xDEB JUMP JUMPDEST PUSH1 0x40 DUP3 ADD SWAP1 POP SWAP2 SWAP1 POP JUMP JUMPDEST PUSH1 0x0 PUSH1 0x20 DUP3 ADD SWAP1 POP DUP2 DUP2 SUB PUSH1 0x0 DUP4 ADD MSTORE PUSH3 0xE7C DUP2 PUSH3 0xE3A JUMP JUMPDEST SWAP1 POP SWAP2 SWAP1 POP JUMP JUMPDEST PUSH32 0x4E487B7100000000000000000000000000000000000000000000000000000000 PUSH1 0x0 MSTORE PUSH1 0x11 PUSH1 0x4 MSTORE PUSH1 0x24 PUSH1 0x0 REVERT JUMPDEST PUSH1 0x0 PUSH3 0xEBF DUP3 PUSH3 0x8F7 JUMP JUMPDEST SWAP2 POP PUSH3 0xECC DUP4 PUSH3 0x8F7 JUMP JUMPDEST SWAP3 POP DUP3 DUP3 ADD SWAP1 POP DUP1 DUP3 GT ISZERO PUSH3 0xEE7 JUMPI PUSH3 0xEE6 PUSH3 0xE83 JUMP JUMPDEST JUMPDEST SWAP3 SWAP2 POP POP JUMP JUMPDEST PUSH1 0x0 PUSH3 0xEFA DUP3 PUSH3 0x8F7 JUMP JUMPDEST SWAP2 POP PUSH3 0xF07 DUP4 PUSH3 0x8F7 JUMP JUMPDEST SWAP3 POP DUP3 DUP3 MUL PUSH3 0xF17 DUP2 PUSH3 0x8F7 JUMP JUMPDEST SWAP2 POP DUP3 DUP3 DIV DUP5 EQ DUP4 ISZERO OR PUSH3 0xF31 JUMPI PUSH3 0xF30 PUSH3 0xE83 JUMP JUMPDEST JUMPDEST POP SWAP3 SWAP2 POP POP JUMP JUMPDEST PUSH3 0xF43 DUP2 PUSH3 0x8F7 JUMP JUMPDEST DUP3 MSTORE POP POP JUMP JUMPDEST PUSH1 0x0 PUSH1 0x40 DUP3 ADD SWAP1 POP PUSH3 0xF60 PUSH1 0x0 DUP4 ADD DUP6 PUSH3 0xF38 JUMP JUMPDEST PUSH3 0xF6F PUSH1 0x20 DUP4 ADD DUP5 PUSH3 0xF38 JUMP JUMPDEST SWAP4 SWAP3 POP POP POP JUMP JUMPDEST PUSH1 0x0 PUSH3 0xF83 DUP3 PUSH3 0x8F7 JUMP JUMPDEST SWAP2 POP PUSH3 0xF90 DUP4 PUSH3 0x8F7 JUMP JUMPDEST SWAP3 POP DUP3 DUP3 SUB SWAP1 POP DUP2 DUP2 GT ISZERO PUSH3 0xFAB JUMPI PUSH3 0xFAA PUSH3 0xE83 JUMP JUMPDEST JUMPDEST SWAP3 SWAP2 POP POP JUMP JUMPDEST PUSH1 0x0 PUSH1 0xFF DUP3 AND SWAP1 POP SWAP2 SWAP1 POP JUMP JUMPDEST PUSH3 0xFC9 DUP2 PUSH3 0xFB1 JUMP JUMPDEST DUP2 EQ PUSH3 0xFD5 JUMPI PUSH1 0x0 DUP1 REVERT JUMPDEST POP JUMP JUMPDEST PUSH1 0x0 DUP2 MLOAD SWAP1 POP PUSH3 0xFE9 DUP2 PUSH3 0xFBE JUMP JUMPDEST SWAP3 SWAP2 POP POP JUMP JUMPDEST PUSH1 0x0 PUSH1 0x20 DUP3 DUP5 SUB SLT ISZERO PUSH3 0x1008 JUMPI PUSH3 0x1007 PUSH3 0x88D JUMP JUMPDEST JUMPDEST PUSH1 0x0 PUSH3 0x1018 DUP5 DUP3 DUP6 ADD PUSH3 0xFD8 JUMP JUMPDEST SWAP2 POP POP SWAP3 SWAP2 POP POP JUMP JUMPDEST PUSH1 0x0 DUP2 PUSH1 0x1 SHR SWAP1 POP SWAP2 SWAP1 POP JUMP JUMPDEST PUSH1 0x0 DUP1 DUP3 SWAP2 POP DUP4 SWAP1 POP JUMPDEST PUSH1 0x1 DUP6 GT ISZERO PUSH3 0x1080 JUMPI DUP1 DUP7 DIV DUP2 GT ISZERO PUSH3 0x1058 JUMPI PUSH3 0x1057 PUSH3 0xE83 JUMP JUMPDEST JUMPDEST PUSH1 0x1 DUP6 AND ISZERO PUSH3 0x1068 JUMPI DUP1 DUP3 MUL SWAP2 POP JUMPDEST DUP1 DUP2 MUL SWAP1 POP PUSH3 0x1078 DUP6 PUSH3 0x1021 JUMP JUMPDEST SWAP5 POP PUSH3 0x1038 JUMP JUMPDEST SWAP5 POP SWAP5 SWAP3 POP POP POP JUMP JUMPDEST PUSH1 0x0 DUP3 PUSH3 0x109B JUMPI PUSH1 0x1 SWAP1 POP PUSH3 0x116E JUMP JUMPDEST DUP2 PUSH3 0x10AB JUMPI PUSH1 0x0 SWAP1 POP PUSH3 0x116E JUMP JUMPDEST DUP2 PUSH1 0x1 DUP2 EQ PUSH3 0x10C4 JUMPI PUSH1 0x2 DUP2 EQ PUSH3 0x10CF JUMPI PUSH3 0x1105 JUMP JUMPDEST PUSH1 0x1 SWAP2 POP POP PUSH3 0x116E JUMP JUMPDEST PUSH1 0xFF DUP5 GT ISZERO PUSH3 0x10E4 JUMPI PUSH3 0x10E3 PUSH3 0xE83 JUMP JUMPDEST JUMPDEST DUP4 PUSH1 0x2 EXP SWAP2 POP DUP5 DUP3 GT ISZERO PUSH3 0x10FE JUMPI PUSH3 0x10FD PUSH3 0xE83 JUMP JUMPDEST JUMPDEST POP PUSH3 0x116E JUMP JUMPDEST POP PUSH1 0x20 DUP4 LT PUSH2 0x133 DUP4 LT AND PUSH1 0x4E DUP5 LT PUSH1 0xB DUP5 LT AND OR ISZERO PUSH3 0x113F JUMPI DUP3 DUP3 EXP SWAP1 POP DUP4 DUP2 GT ISZERO PUSH3 0x1139 JUMPI PUSH3 0x1138 PUSH3 0xE83 JUMP JUMPDEST JUMPDEST PUSH3 0x116E JUMP JUMPDEST PUSH3 0x114E DUP5 DUP5 DUP5 PUSH1 0x1 PUSH3 0x102E JUMP JUMPDEST SWAP3 POP SWAP1 POP DUP2 DUP5 DIV DUP2 GT ISZERO PUSH3 0x1168 JUMPI PUSH3 0x1167 PUSH3 0xE83 JUMP JUMPDEST JUMPDEST DUP2 DUP2 MUL SWAP1 POP JUMPDEST SWAP4 SWAP3 POP POP POP JUMP JUMPDEST PUSH1 0x0 PUSH3 0x1182 DUP3 PUSH3 0x8F7 JUMP JUMPDEST SWAP2 POP PUSH3 0x118F DUP4 PUSH3 0xFB1 JUMP JUMPDEST SWAP3 POP PUSH3 0x11BE PUSH32 0xFFFFFFFFFFFFFFFFFFFFFFFFFFFFFFFFFFFFFFFFFFFFFFFFFFFFFFFFFFFFFFFF DUP5 DUP5 PUSH3 0x1089 JUMP JUMPDEST SWAP1 POP SWAP3 SWAP2 POP POP JUMP JUMPDEST PUSH32 0x4E487B7100000000000000000000000000000000000000000000000000000000 PUSH1 0x0 MSTORE PUSH1 0x12 PUSH1 0x4 MSTORE PUSH1 0x24 PUSH1 0x0 REVERT JUMPDEST PUSH1 0x0 PUSH3 0x1202 DUP3 PUSH3 0x8F7 JUMP JUMPDEST SWAP2 POP PUSH3 0x120F DUP4 PUSH3 0x8F7 JUMP JUMPDEST SWAP3 POP DUP3 PUSH3 0x1222 JUMPI PUSH3 0x1221 PUSH3 0x11C6 JUMP JUMPDEST JUMPDEST DUP3 DUP3 DIV SWAP1 POP SWAP3 SWAP2 POP POP JUMP JUMPDEST PUSH2 0x39F6 DUP1 PUSH3 0x123D PUSH1 0x0 CODECOPY PUSH1 0x0 RETURN INVALID PUSH1 0x80 PUSH1 0x40 MSTORE CALLVALUE DUP1 ISZERO PUSH2 0x10 JUMPI PUSH1 0x0 DUP1 REVERT JUMPDEST POP PUSH1 0x4 CALLDATASIZE LT PUSH2 0x211 JUMPI PUSH1 0x0 CALLDATALOAD PUSH1 0xE0 SHR DUP1 PUSH4 0x70A08231 GT PUSH2 0x125 JUMPI DUP1 PUSH4 0xA9059CBB GT PUSH2 0xAD JUMPI DUP1 PUSH4 0xD21220A7 GT PUSH2 0x7C JUMPI DUP1 PUSH4 0xD21220A7 EQ PUSH2 0x610 JUMPI DUP1 PUSH4 0xDD62ED3E EQ PUSH2 0x62E JUMPI DUP1 PUSH4 0xEC1893B4 EQ PUSH2 0x65E JUMPI DUP1 PUSH4 0xEF3501B9 EQ PUSH2 0x67C JUMPI DUP1 PUSH4 0xF2FDE38B EQ PUSH2 0x69A JUMPI PUSH2 0x211 JUMP JUMPDEST DUP1 PUSH4 0xA9059CBB EQ PUSH2 0x586 JUMPI DUP1 PUSH4 0xAFF56C14 EQ PUSH2 0x5B6 JUMPI DUP1 PUSH4 0xB0E21E8A EQ PUSH2 0x5D4 JUMPI DUP1 PUSH4 0xC45A0155 EQ PUSH2 0x5F2 JUMPI PUSH2 0x211 JUMP JUMPDEST DUP1 PUSH4 0x8DA5CB5B GT PUSH2 0xF4 JUMPI DUP1 PUSH4 0x8DA5CB5B EQ PUSH2 0x4CE JUMPI DUP1 PUSH4 0x95D89B41 EQ PUSH2 0x4EC JUMPI DUP1 PUSH4 0x9DC29FAC EQ PUSH2 0x50A JUMPI DUP1 PUSH4 0x9F8E55D6 EQ PUSH2 0x526 JUMPI DUP1 PUSH4 0xA457C2D7 EQ PUSH2 0x556 JUMPI PUSH2 0x211 JUMP JUMPDEST DUP1 PUSH4 0x70A08231 EQ PUSH2 0x458 JUMPI DUP1 PUSH4 0x715018A6 EQ PUSH2 0x488 JUMPI DUP1 PUSH4 0x7C07A380 EQ PUSH2 0x492 JUMPI DUP1 PUSH4 0x870E415E EQ PUSH2 0x4B0 JUMPI PUSH2 0x211 JUMP JUMPDEST DUP1 PUSH4 0x2BEC60FE GT PUSH2 0x1A8 JUMPI DUP1 PUSH4 0x3D1C387B GT PUSH2 0x177 JUMPI DUP1 PUSH4 0x3D1C387B EQ PUSH2 0x3C4 JUMPI DUP1 PUSH4 0x40C10F19 EQ PUSH2 0x3E2 JUMPI DUP1 PUSH4 0x4273601C EQ PUSH2 0x3FE JUMPI DUP1 PUSH4 0x433065D0 EQ PUSH2 0x41C JUMPI DUP1 PUSH4 0x5A656C24 EQ PUSH2 0x43A JUMPI PUSH2 0x211 JUMP JUMPDEST DUP1 PUSH4 0x2BEC60FE EQ PUSH2 0x33C JUMPI DUP1 PUSH4 0x313CE567 EQ PUSH2 0x358 JUMPI DUP1 PUSH4 0x364ABC3D EQ PUSH2 0x376 JUMPI DUP1 PUSH4 0x39509351 EQ PUSH2 0x394 JUMPI PUSH2 0x211 JUMP JUMPDEST DUP1 PUSH4 0x13724B70 GT PUSH2 0x1E4 JUMPI DUP1 PUSH4 0x13724B70 EQ PUSH2 0x2B2 JUMPI DUP1 PUSH4 0x18160DDD EQ PUSH2 0x2D0 JUMPI DUP1 PUSH4 0x1CF2128C EQ PUSH2 0x2EE JUMPI DUP1 PUSH4 0x23B872DD EQ PUSH2 0x30C JUMPI PUSH2 0x211 JUMP JUMPDEST DUP1 PUSH4 0x4786AB4 EQ PUSH2 0x216 JUMPI DUP1 PUSH4 0x6FDDE03 EQ PUSH2 0x246 JUMPI DUP1 PUSH4 0x95EA7B3 EQ PUSH2 0x264 JUMPI DUP1 PUSH4 0xDFE1681 EQ PUSH2 0x294 JUMPI JUMPDEST PUSH1 0x0 DUP1 REVERT JUMPDEST PUSH2 0x230 PUSH1 0x4 DUP1 CALLDATASIZE SUB DUP2 ADD SWAP1 PUSH2 0x22B SWAP2 SWAP1 PUSH2 0x28CA JUMP JUMPDEST PUSH2 0x6B6 JUMP JUMPDEST PUSH1 0x40 MLOAD PUSH2 0x23D SWAP2 SWAP1 PUSH2 0x2906 JUMP JUMPDEST PUSH1 0x40 MLOAD DUP1 SWAP2 SUB SWAP1 RETURN JUMPDEST PUSH2 0x24E PUSH2 0x848 JUMP JUMPDEST PUSH1 0x40 MLOAD PUSH2 0x25B SWAP2 SWAP1 PUSH2 0x29B1 JUMP JUMPDEST PUSH1 0x40 MLOAD DUP1 SWAP2 SUB SWAP1 RETURN JUMPDEST PUSH2 0x27E PUSH1 0x4 DUP1 CALLDATASIZE SUB DUP2 ADD SWAP1 PUSH2 0x279 SWAP2 SWAP1 PUSH2 0x2A31 JUMP JUMPDEST PUSH2 0x8DA JUMP JUMPDEST PUSH1 0x40 MLOAD PUSH2 0x28B SWAP2 SWAP1 PUSH2 0x2A8C JUMP JUMPDEST PUSH1 0x40 MLOAD DUP1 SWAP2 SUB SWAP1 RETURN JUMPDEST PUSH2 0x29C PUSH2 0x8FD JUMP JUMPDEST PUSH1 0x40 MLOAD PUSH2 0x2A9 SWAP2 SWAP1 PUSH2 0x2AB6 JUMP JUMPDEST PUSH1 0x40 MLOAD DUP1 SWAP2 SUB SWAP1 RETURN JUMPDEST PUSH2 0x2BA PUSH2 0x923 JUMP JUMPDEST PUSH1 0x40 MLOAD PUSH2 0x2C7 SWAP2 SWAP1 PUSH2 0x2906 JUMP JUMPDEST PUSH1 0x40 MLOAD DUP1 SWAP2 SUB SWAP1 RETURN JUMPDEST PUSH2 0x2D8 PUSH2 0x929 JUMP JUMPDEST PUSH1 0x40 MLOAD PUSH2 0x2E5 SWAP2 SWAP1 PUSH2 0x2906 JUMP JUMPDEST PUSH1 0x40 MLOAD DUP1 SWAP2 SUB SWAP1 RETURN JUMPDEST PUSH2 0x2F6 PUSH2 0x933 JUMP JUMPDEST PUSH1 0x40 MLOAD PUSH2 0x303 SWAP2 SWAP1 PUSH2 0x2906 JUMP JUMPDEST PUSH1 0x40 MLOAD DUP1 SWAP2 SUB SWAP1 RETURN JUMPDEST PUSH2 0x326 PUSH1 0x4 DUP1 CALLDATASIZE SUB DUP2 ADD SWAP1 PUSH2 0x321 SWAP2 SWAP1 PUSH2 0x2AD1 JUMP JUMPDEST PUSH2 0x939 JUMP JUMPDEST PUSH1 0x40 MLOAD PUSH2 0x333 SWAP2 SWAP1 PUSH2 0x2A8C JUMP JUMPDEST PUSH1 0x40 MLOAD DUP1 SWAP2 SUB SWAP1 RETURN JUMPDEST PUSH2 0x356 PUSH1 0x4 DUP1 CALLDATASIZE SUB DUP2 ADD SWAP1 PUSH2 0x351 SWAP2 SWAP1 PUSH2 0x2B50 JUMP JUMPDEST PUSH2 0x968 JUMP JUMPDEST STOP JUMPDEST PUSH2 0x360 PUSH2 0xC4D JUMP JUMPDEST PUSH1 0x40 MLOAD PUSH2 0x36D SWAP2 SWAP1 PUSH2 0x2BBF JUMP JUMPDEST PUSH1 0x40 MLOAD DUP1 SWAP2 SUB SWAP1 RETURN JUMPDEST PUSH2 0x37E PUSH2 0xC56 JUMP JUMPDEST PUSH1 0x40 MLOAD PUSH2 0x38B SWAP2 SWAP1 PUSH2 0x2906 JUMP JUMPDEST PUSH1 0x40 MLOAD DUP1 SWAP2 SUB SWAP1 RETURN JUMPDEST PUSH2 0x3AE PUSH1 0x4 DUP1 CALLDATASIZE SUB DUP2 ADD SWAP1 PUSH2 0x3A9 SWAP2 SWAP1 PUSH2 0x2A31 JUMP JUMPDEST PUSH2 0xC5C JUMP JUMPDEST PUSH1 0x40 MLOAD PUSH2 0x3BB SWAP2 SWAP1 PUSH2 0x2A8C JUMP JUMPDEST PUSH1 0x40 MLOAD DUP1 SWAP2 SUB SWAP1 RETURN JUMPDEST PUSH2 0x3CC PUSH2 0xC93 JUMP JUMPDEST PUSH1 0x40 MLOAD PUSH2 0x3D9 SWAP2 SWAP1 PUSH2 0x2CED JUMP JUMPDEST PUSH1 0x40 MLOAD DUP1 SWAP2 SUB SWAP1 RETURN JUMPDEST PUSH2 0x3FC PUSH1 0x4 DUP1 CALLDATASIZE SUB DUP2 ADD SWAP1 PUSH2 0x3F7 SWAP2 SWAP1 PUSH2 0x2A31 JUMP JUMPDEST PUSH2 0xDB0 JUMP JUMPDEST STOP JUMPDEST PUSH2 0x406 PUSH2 0xE33 JUMP JUMPDEST PUSH1 0x40 MLOAD PUSH2 0x413 SWAP2 SWAP1 PUSH2 0x2AB6 JUMP JUMPDEST PUSH1 0x40 MLOAD DUP1 SWAP2 SUB SWAP1 RETURN JUMPDEST PUSH2 0x424 PUSH2 0xE59 JUMP JUMPDEST PUSH1 0x40 MLOAD PUSH2 0x431 SWAP2 SWAP1 PUSH2 0x2906 JUMP JUMPDEST PUSH1 0x40 MLOAD DUP1 SWAP2 SUB SWAP1 RETURN JUMPDEST PUSH2 0x442 PUSH2 0xFC7 JUMP JUMPDEST PUSH1 0x40 MLOAD PUSH2 0x44F SWAP2 SWAP1 PUSH2 0x2906 JUMP JUMPDEST PUSH1 0x40 MLOAD DUP1 SWAP2 SUB SWAP1 RETURN JUMPDEST PUSH2 0x472 PUSH1 0x4 DUP1 CALLDATASIZE SUB DUP2 ADD SWAP1 PUSH2 0x46D SWAP2 SWAP1 PUSH2 0x2D0F JUMP JUMPDEST PUSH2 0xFCD JUMP JUMPDEST PUSH1 0x40 MLOAD PUSH2 0x47F SWAP2 SWAP1 PUSH2 0x2906 JUMP JUMPDEST PUSH1 0x40 MLOAD DUP1 SWAP2 SUB SWAP1 RETURN JUMPDEST PUSH2 0x490 PUSH2 0x1016 JUMP JUMPDEST STOP JUMPDEST PUSH2 0x49A PUSH2 0x102A JUMP JUMPDEST PUSH1 0x40 MLOAD PUSH2 0x4A7 SWAP2 SWAP1 PUSH2 0x2906 JUMP JUMPDEST PUSH1 0x40 MLOAD DUP1 SWAP2 SUB SWAP1 RETURN JUMPDEST PUSH2 0x4B8 PUSH2 0x1030 JUMP JUMPDEST PUSH1 0x40 MLOAD PUSH2 0x4C5 SWAP2 SWAP1 PUSH2 0x2906 JUMP JUMPDEST PUSH1 0x40 MLOAD DUP1 SWAP2 SUB SWAP1 RETURN JUMPDEST PUSH2 0x4D6 PUSH2 0x1036 JUMP JUMPDEST PUSH1 0x40 MLOAD PUSH2 0x4E3 SWAP2 SWAP1 PUSH2 0x2AB6 JUMP JUMPDEST PUSH1 0x40 MLOAD DUP1 SWAP2 SUB SWAP1 RETURN JUMPDEST PUSH2 0x4F4 PUSH2 0x1060 JUMP JUMPDEST PUSH1 0x40 MLOAD PUSH2 0x501 SWAP2 SWAP1 PUSH2 0x29B1 JUMP JUMPDEST PUSH1 0x40 MLOAD DUP1 SWAP2 SUB SWAP1 RETURN JUMPDEST PUSH2 0x524 PUSH1 0x4 DUP1 CALLDATASIZE SUB DUP2 ADD SWAP1 PUSH2 0x51F SWAP2 SWAP1 PUSH2 0x2A31 JUMP JUMPDEST PUSH2 0x10F2 JUMP JUMPDEST STOP JUMPDEST PUSH2 0x540 PUSH1 0x4 DUP1 CALLDATASIZE SUB DUP2 ADD SWAP1 PUSH2 0x53B SWAP2 SWAP1 PUSH2 0x28CA JUMP JUMPDEST PUSH2 0x1175 JUMP JUMPDEST PUSH1 0x40 MLOAD PUSH2 0x54D SWAP2 SWAP1 PUSH2 0x2906 JUMP JUMPDEST PUSH1 0x40 MLOAD DUP1 SWAP2 SUB SWAP1 RETURN JUMPDEST PUSH2 0x570 PUSH1 0x4 DUP1 CALLDATASIZE SUB DUP2 ADD SWAP1 PUSH2 0x56B SWAP2 SWAP1 PUSH2 0x2A31 JUMP JUMPDEST PUSH2 0x1307 JUMP JUMPDEST PUSH1 0x40 MLOAD PUSH2 0x57D SWAP2 SWAP1 PUSH2 0x2A8C JUMP JUMPDEST PUSH1 0x40 MLOAD DUP1 SWAP2 SUB SWAP1 RETURN JUMPDEST PUSH2 0x5A0 PUSH1 0x4 DUP1 CALLDATASIZE SUB DUP2 ADD SWAP1 PUSH2 0x59B SWAP2 SWAP1 PUSH2 0x2A31 JUMP JUMPDEST PUSH2 0x137E JUMP JUMPDEST PUSH1 0x40 MLOAD PUSH2 0x5AD SWAP2 SWAP1 PUSH2 0x2A8C JUMP JUMPDEST PUSH1 0x40 MLOAD DUP1 SWAP2 SUB SWAP1 RETURN JUMPDEST PUSH2 0x5BE PUSH2 0x13A1 JUMP JUMPDEST PUSH1 0x40 MLOAD PUSH2 0x5CB SWAP2 SWAP1 PUSH2 0x2906 JUMP JUMPDEST PUSH1 0x40 MLOAD DUP1 SWAP2 SUB SWAP1 RETURN JUMPDEST PUSH2 0x5DC PUSH2 0x13A7 JUMP JUMPDEST PUSH1 0x40 MLOAD PUSH2 0x5E9 SWAP2 SWAP1 PUSH2 0x2906 JUMP JUMPDEST PUSH1 0x40 MLOAD DUP1 SWAP2 SUB SWAP1 RETURN JUMPDEST PUSH2 0x5FA PUSH2 0x13AD JUMP JUMPDEST PUSH1 0x40 MLOAD PUSH2 0x607 SWAP2 SWAP1 PUSH2 0x2AB6 JUMP JUMPDEST PUSH1 0x40 MLOAD DUP1 SWAP2 SUB SWAP1 RETURN JUMPDEST PUSH2 0x618 PUSH2 0x13D3 JUMP JUMPDEST PUSH1 0x40 MLOAD PUSH2 0x625 SWAP2 SWAP1 PUSH2 0x2AB6 JUMP JUMPDEST PUSH1 0x40 MLOAD DUP1 SWAP2 SUB SWAP1 RETURN JUMPDEST PUSH2 0x648 PUSH1 0x4 DUP1 CALLDATASIZE SUB DUP2 ADD SWAP1 PUSH2 0x643 SWAP2 SWAP1 PUSH2 0x2D3C JUMP JUMPDEST PUSH2 0x13F9 JUMP JUMPDEST PUSH1 0x40 MLOAD PUSH2 0x655 SWAP2 SWAP1 PUSH2 0x2906 JUMP JUMPDEST PUSH1 0x40 MLOAD DUP1 SWAP2 SUB SWAP1 RETURN JUMPDEST PUSH2 0x666 PUSH2 0x1480 JUMP JUMPDEST PUSH1 0x40 MLOAD PUSH2 0x673 SWAP2 SWAP1 PUSH2 0x2DE0 JUMP JUMPDEST PUSH1 0x40 MLOAD DUP1 SWAP2 SUB SWAP1 RETURN JUMPDEST PUSH2 0x684 PUSH2 0x165A JUMP JUMPDEST PUSH1 0x40 MLOAD PUSH2 0x691 SWAP2 SWAP1 PUSH2 0x2906 JUMP JUMPDEST PUSH1 0x40 MLOAD DUP1 SWAP2 SUB SWAP1 RETURN JUMPDEST PUSH2 0x6B4 PUSH1 0x4 DUP1 CALLDATASIZE SUB DUP2 ADD SWAP1 PUSH2 0x6AF SWAP2 SWAP1 PUSH2 0x2D0F JUMP JUMPDEST PUSH2 0x1660 JUMP JUMPDEST STOP JUMPDEST PUSH1 0x0 DUP1 PUSH1 0xC PUSH1 0x0 SWAP1 SLOAD SWAP1 PUSH2 0x100 EXP SWAP1 DIV PUSH20 0xFFFFFFFFFFFFFFFFFFFFFFFFFFFFFFFFFFFFFFFF AND PUSH20 0xFFFFFFFFFFFFFFFFFFFFFFFFFFFFFFFFFFFFFFFF AND PUSH4 0x70A08231 ADDRESS PUSH1 0x40 MLOAD DUP3 PUSH4 0xFFFFFFFF AND PUSH1 0xE0 SHL DUP2 MSTORE PUSH1 0x4 ADD PUSH2 0x714 SWAP2 SWAP1 PUSH2 0x2AB6 JUMP JUMPDEST PUSH1 0x20 PUSH1 0x40 MLOAD DUP1 DUP4 SUB DUP2 DUP7 GAS STATICCALL ISZERO DUP1 ISZERO PUSH2 0x731 JUMPI RETURNDATASIZE PUSH1 0x0 DUP1 RETURNDATACOPY RETURNDATASIZE PUSH1 0x0 REVERT JUMPDEST POP POP POP POP PUSH1 0x40 MLOAD RETURNDATASIZE PUSH1 0x1F NOT PUSH1 0x1F DUP3 ADD AND DUP3 ADD DUP1 PUSH1 0x40 MSTORE POP DUP2 ADD SWAP1 PUSH2 0x755 SWAP2 SWAP1 PUSH2 0x2E10 JUMP JUMPDEST SWAP1 POP PUSH1 0x0 PUSH1 0xD PUSH1 0x0 SWAP1 SLOAD SWAP1 PUSH2 0x100 EXP SWAP1 DIV PUSH20 0xFFFFFFFFFFFFFFFFFFFFFFFFFFFFFFFFFFFFFFFF AND PUSH20 0xFFFFFFFFFFFFFFFFFFFFFFFFFFFFFFFFFFFFFFFF AND PUSH4 0x70A08231 ADDRESS PUSH1 0x40 MLOAD DUP3 PUSH4 0xFFFFFFFF AND PUSH1 0xE0 SHL DUP2 MSTORE PUSH1 0x4 ADD PUSH2 0x7B4 SWAP2 SWAP1 PUSH2 0x2AB6 JUMP JUMPDEST PUSH1 0x20 PUSH1 0x40 MLOAD DUP1 DUP4 SUB DUP2 DUP7 GAS STATICCALL ISZERO DUP1 ISZERO PUSH2 0x7D1 JUMPI RETURNDATASIZE PUSH1 0x0 DUP1 RETURNDATACOPY RETURNDATASIZE PUSH1 0x0 REVERT JUMPDEST POP POP POP POP PUSH1 0x40 MLOAD RETURNDATASIZE PUSH1 0x1F NOT PUSH1 0x1F DUP3 ADD AND DUP3 ADD DUP1 PUSH1 0x40 MSTORE POP DUP2 ADD SWAP1 PUSH2 0x7F5 SWAP2 SWAP1 PUSH2 0x2E10 JUMP JUMPDEST SWAP1 POP PUSH1 0x0 DUP5 DUP3 PUSH2 0x805 SWAP2 SWAP1 PUSH2 0x2E6C JUMP JUMPDEST SWAP1 POP PUSH1 0x0 PUSH1 0x10 SLOAD PUSH2 0x825 PUSH1 0x12 SLOAD PUSH1 0x11 SLOAD DUP6 PUSH2 0x820 SWAP2 SWAP1 PUSH2 0x2E6C JUMP JUMPDEST PUSH2 0x16E3 JUMP JUMPDEST PUSH2 0x82F SWAP2 SWAP1 PUSH2 0x2EA0 JUMP JUMPDEST SWAP1 POP DUP1 DUP5 PUSH2 0x83D SWAP2 SWAP1 PUSH2 0x2EA0 JUMP JUMPDEST SWAP5 POP POP POP POP POP SWAP2 SWAP1 POP JUMP JUMPDEST PUSH1 0x60 PUSH1 0x7 DUP1 SLOAD PUSH2 0x857 SWAP1 PUSH2 0x2F03 JUMP JUMPDEST DUP1 PUSH1 0x1F ADD PUSH1 0x20 DUP1 SWAP2 DIV MUL PUSH1 0x20 ADD PUSH1 0x40 MLOAD SWAP1 DUP2 ADD PUSH1 0x40 MSTORE DUP1 SWAP3 SWAP2 SWAP1 DUP2 DUP2 MSTORE PUSH1 0x20 ADD DUP3 DUP1 SLOAD PUSH2 0x883 SWAP1 PUSH2 0x2F03 JUMP JUMPDEST DUP1 ISZERO PUSH2 0x8D0 JUMPI DUP1 PUSH1 0x1F LT PUSH2 0x8A5 JUMPI PUSH2 0x100 DUP1 DUP4 SLOAD DIV MUL DUP4 MSTORE SWAP2 PUSH1 0x20 ADD SWAP2 PUSH2 0x8D0 JUMP JUMPDEST DUP3 ADD SWAP2 SWAP1 PUSH1 0x0 MSTORE PUSH1 0x20 PUSH1 0x0 KECCAK256 SWAP1 JUMPDEST DUP2 SLOAD DUP2 MSTORE SWAP1 PUSH1 0x1 ADD SWAP1 PUSH1 0x20 ADD DUP1 DUP4 GT PUSH2 0x8B3 JUMPI DUP3 SWAP1 SUB PUSH1 0x1F AND DUP3 ADD SWAP2 JUMPDEST POP POP POP POP POP SWAP1 POP SWAP1 JUMP JUMPDEST PUSH1 0x0 DUP1 PUSH2 0x8E5 PUSH2 0x17F2 JUMP JUMPDEST SWAP1 POP PUSH2 0x8F2 DUP2 DUP6 DUP6 PUSH2 0x17FA JUMP JUMPDEST PUSH1 0x1 SWAP2 POP POP SWAP3 SWAP2 POP POP JUMP JUMPDEST PUSH1 0xC PUSH1 0x0 SWAP1 SLOAD SWAP1 PUSH2 0x100 EXP SWAP1 DIV PUSH20 0xFFFFFFFFFFFFFFFFFFFFFFFFFFFFFFFFFFFFFFFF AND DUP2 JUMP JUMPDEST PUSH1 0xF SLOAD DUP2 JUMP JUMPDEST PUSH1 0x0 PUSH1 0x6 SLOAD SWAP1 POP SWAP1 JUMP JUMPDEST PUSH1 0x11 SLOAD DUP2 JUMP JUMPDEST PUSH1 0x0 DUP1 PUSH2 0x944 PUSH2 0x17F2 JUMP JUMPDEST SWAP1 POP PUSH2 0x951 DUP6 DUP3 DUP6 PUSH2 0x19C3 JUMP JUMPDEST PUSH2 0x95C DUP6 DUP6 DUP6 PUSH2 0x1A4F JUMP JUMPDEST PUSH1 0x1 SWAP2 POP POP SWAP4 SWAP3 POP POP POP JUMP JUMPDEST DUP1 ISZERO PUSH2 0x97D JUMPI PUSH2 0x978 DUP4 DUP4 PUSH2 0x1CC8 JUMP JUMPDEST PUSH2 0x988 JUMP JUMPDEST PUSH2 0x987 DUP4 DUP4 PUSH2 0x1ECE JUMP JUMPDEST JUMPDEST PUSH2 0xAD9 PUSH1 0xC PUSH1 0x0 SWAP1 SLOAD SWAP1 PUSH2 0x100 EXP SWAP1 DIV PUSH20 0xFFFFFFFFFFFFFFFFFFFFFFFFFFFFFFFFFFFFFFFF AND PUSH20 0xFFFFFFFFFFFFFFFFFFFFFFFFFFFFFFFFFFFFFFFF AND PUSH4 0x70A08231 ADDRESS PUSH1 0x40 MLOAD DUP3 PUSH4 0xFFFFFFFF AND PUSH1 0xE0 SHL DUP2 MSTORE PUSH1 0x4 ADD PUSH2 0x9E6 SWAP2 SWAP1 PUSH2 0x2AB6 JUMP JUMPDEST PUSH1 0x20 PUSH1 0x40 MLOAD DUP1 DUP4 SUB DUP2 DUP7 GAS STATICCALL ISZERO DUP1 ISZERO PUSH2 0xA03 JUMPI RETURNDATASIZE PUSH1 0x0 DUP1 RETURNDATACOPY RETURNDATASIZE PUSH1 0x0 REVERT JUMPDEST POP POP POP POP PUSH1 0x40 MLOAD RETURNDATASIZE PUSH1 0x1F NOT PUSH1 0x1F DUP3 ADD AND DUP3 ADD DUP1 PUSH1 0x40 MSTORE POP DUP2 ADD SWAP1 PUSH2 0xA27 SWAP2 SWAP1 PUSH2 0x2E10 JUMP JUMPDEST PUSH1 0xD PUSH1 0x0 SWAP1 SLOAD SWAP1 PUSH2 0x100 EXP SWAP1 DIV PUSH20 0xFFFFFFFFFFFFFFFFFFFFFFFFFFFFFFFFFFFFFFFF AND PUSH20 0xFFFFFFFFFFFFFFFFFFFFFFFFFFFFFFFFFFFFFFFF AND PUSH4 0x70A08231 ADDRESS PUSH1 0x40 MLOAD DUP3 PUSH4 0xFFFFFFFF AND PUSH1 0xE0 SHL DUP2 MSTORE PUSH1 0x4 ADD PUSH2 0xA82 SWAP2 SWAP1 PUSH2 0x2AB6 JUMP JUMPDEST PUSH1 0x20 PUSH1 0x40 MLOAD DUP1 DUP4 SUB DUP2 DUP7 GAS STATICCALL ISZERO DUP1 ISZERO PUSH2 0xA9F JUMPI RETURNDATASIZE PUSH1 0x0 DUP1 RETURNDATACOPY RETURNDATASIZE PUSH1 0x0 REVERT JUMPDEST POP POP POP POP PUSH1 0x40 MLOAD RETURNDATASIZE PUSH1 0x1F NOT PUSH1 0x1F DUP3 ADD AND DUP3 ADD DUP1 PUSH1 0x40 MSTORE POP DUP2 ADD SWAP1 PUSH2 0xAC3 SWAP2 SWAP1 PUSH2 0x2E10 JUMP JUMPDEST PUSH2 0xAD4 PUSH8 0xDE0B6B3A7640000 PUSH2 0x1175 JUMP JUMPDEST PUSH2 0x21C0 JUMP JUMPDEST PUSH32 0xCF2AA50876CDFBB541206F89AF0EE78D44A2ABF8D328E37FA4917F982149848A PUSH1 0xC PUSH1 0x0 SWAP1 SLOAD SWAP1 PUSH2 0x100 EXP SWAP1 DIV PUSH20 0xFFFFFFFFFFFFFFFFFFFFFFFFFFFFFFFFFFFFFFFF AND PUSH20 0xFFFFFFFFFFFFFFFFFFFFFFFFFFFFFFFFFFFFFFFF AND PUSH4 0x70A08231 ADDRESS PUSH1 0x40 MLOAD DUP3 PUSH4 0xFFFFFFFF AND PUSH1 0xE0 SHL DUP2 MSTORE PUSH1 0x4 ADD PUSH2 0xB55 SWAP2 SWAP1 PUSH2 0x2AB6 JUMP JUMPDEST PUSH1 0x20 PUSH1 0x40 MLOAD DUP1 DUP4 SUB DUP2 DUP7 GAS STATICCALL ISZERO DUP1 ISZERO PUSH2 0xB72 JUMPI RETURNDATASIZE PUSH1 0x0 DUP1 RETURNDATACOPY RETURNDATASIZE PUSH1 0x0 REVERT JUMPDEST POP POP POP POP PUSH1 0x40 MLOAD RETURNDATASIZE PUSH1 0x1F NOT PUSH1 0x1F DUP3 ADD AND DUP3 ADD DUP1 PUSH1 0x40 MSTORE POP DUP2 ADD SWAP1 PUSH2 0xB96 SWAP2 SWAP1 PUSH2 0x2E10 JUMP JUMPDEST PUSH1 0xD PUSH1 0x0 SWAP1 SLOAD SWAP1 PUSH2 0x100 EXP SWAP1 DIV PUSH20 0xFFFFFFFFFFFFFFFFFFFFFFFFFFFFFFFFFFFFFFFF AND PUSH20 0xFFFFFFFFFFFFFFFFFFFFFFFFFFFFFFFFFFFFFFFF AND PUSH4 0x70A08231 ADDRESS PUSH1 0x40 MLOAD DUP3 PUSH4 0xFFFFFFFF AND PUSH1 0xE0 SHL DUP2 MSTORE PUSH1 0x4 ADD PUSH2 0xBF1 SWAP2 SWAP1 PUSH2 0x2AB6 JUMP JUMPDEST PUSH1 0x20 PUSH1 0x40 MLOAD DUP1 DUP4 SUB DUP2 DUP7 GAS STATICCALL ISZERO DUP1 ISZERO PUSH2 0xC0E JUMPI RETURNDATASIZE PUSH1 0x0 DUP1 RETURNDATACOPY RETURNDATASIZE PUSH1 0x0 REVERT JUMPDEST POP POP POP POP PUSH1 0x40 MLOAD RETURNDATASIZE PUSH1 0x1F NOT PUSH1 0x1F DUP3 ADD AND DUP3 ADD DUP1 PUSH1 0x40 MSTORE POP DUP2 ADD SWAP1 PUSH2 0xC32 SWAP2 SWAP1 PUSH2 0x2E10 JUMP JUMPDEST PUSH1 0x40 MLOAD PUSH2 0xC40 SWAP3 SWAP2 SWAP1 PUSH2 0x2F34 JUMP JUMPDEST PUSH1 0x40 MLOAD DUP1 SWAP2 SUB SWAP1 LOG1 POP POP POP JUMP JUMPDEST PUSH1 0x0 PUSH1 0x12 SWAP1 POP SWAP1 JUMP JUMPDEST PUSH1 0x14 SLOAD DUP2 JUMP JUMPDEST PUSH1 0x0 DUP1 PUSH2 0xC67 PUSH2 0x17F2 JUMP JUMPDEST SWAP1 POP PUSH2 0xC88 DUP2 DUP6 DUP6 PUSH2 0xC79 DUP6 DUP10 PUSH2 0x13F9 JUMP JUMPDEST PUSH2 0xC83 SWAP2 SWAP1 PUSH2 0x2E6C JUMP JUMPDEST PUSH2 0x17FA JUMP JUMPDEST PUSH1 0x1 SWAP2 POP POP SWAP3 SWAP2 POP POP JUMP JUMPDEST PUSH1 0x60 PUSH1 0x0 PUSH1 0x1 DUP1 SLOAD PUSH1 0x2 SLOAD PUSH2 0xCA8 SWAP2 SWAP1 PUSH2 0x2EA0 JUMP JUMPDEST PUSH2 0xCB2 SWAP2 SWAP1 PUSH2 0x2E6C JUMP JUMPDEST PUSH8 0xFFFFFFFFFFFFFFFF DUP2 GT ISZERO PUSH2 0xCCB JUMPI PUSH2 0xCCA PUSH2 0x2F5D JUMP JUMPDEST JUMPDEST PUSH1 0x40 MLOAD SWAP1 DUP1 DUP3 MSTORE DUP1 PUSH1 0x20 MUL PUSH1 0x20 ADD DUP3 ADD PUSH1 0x40 MSTORE DUP1 ISZERO PUSH2 0xD04 JUMPI DUP2 PUSH1 0x20 ADD JUMPDEST PUSH2 0xCF1 PUSH2 0x2813 JUMP JUMPDEST DUP2 MSTORE PUSH1 0x20 ADD SWAP1 PUSH1 0x1 SWAP1 SUB SWAP1 DUP2 PUSH2 0xCE9 JUMPI SWAP1 POP JUMPDEST POP SWAP1 POP PUSH1 0x0 PUSH1 0x1 SLOAD SWAP1 POP JUMPDEST PUSH1 0x1 PUSH1 0x2 SLOAD PUSH2 0xD1E SWAP2 SWAP1 PUSH2 0x2E6C JUMP JUMPDEST DUP2 LT ISZERO PUSH2 0xDA8 JUMPI PUSH1 0x0 DUP1 DUP3 DUP2 MSTORE PUSH1 0x20 ADD SWAP1 DUP2 MSTORE PUSH1 0x20 ADD PUSH1 0x0 KECCAK256 PUSH1 0x40 MLOAD DUP1 PUSH1 0x80 ADD PUSH1 0x40 MSTORE SWAP1 DUP2 PUSH1 0x0 DUP3 ADD SLOAD DUP2 MSTORE PUSH1 0x20 ADD PUSH1 0x1 DUP3 ADD SLOAD DUP2 MSTORE PUSH1 0x20 ADD PUSH1 0x2 DUP3 ADD SLOAD DUP2 MSTORE PUSH1 0x20 ADD PUSH1 0x3 DUP3 ADD SLOAD DUP2 MSTORE POP POP DUP3 PUSH1 0x1 SLOAD DUP4 PUSH2 0xD79 SWAP2 SWAP1 PUSH2 0x2EA0 JUMP JUMPDEST DUP2 MLOAD DUP2 LT PUSH2 0xD8A JUMPI PUSH2 0xD89 PUSH2 0x2F8C JUMP JUMPDEST JUMPDEST PUSH1 0x20 MUL PUSH1 0x20 ADD ADD DUP2 SWAP1 MSTORE POP DUP1 DUP1 PUSH2 0xDA0 SWAP1 PUSH2 0x2FBB JUMP JUMPDEST SWAP2 POP POP PUSH2 0xD0F JUMP JUMPDEST POP DUP1 SWAP2 POP POP SWAP1 JUMP JUMPDEST PUSH2 0xDB8 PUSH2 0x1036 JUMP JUMPDEST PUSH20 0xFFFFFFFFFFFFFFFFFFFFFFFFFFFFFFFFFFFFFFFF AND CALLER PUSH20 0xFFFFFFFFFFFFFFFFFFFFFFFFFFFFFFFFFFFFFFFF AND EQ PUSH2 0xE25 JUMPI PUSH1 0x40 MLOAD PUSH32 0x8C379A000000000000000000000000000000000000000000000000000000000 DUP2 MSTORE PUSH1 0x4 ADD PUSH2 0xE1C SWAP1 PUSH2 0x304F JUMP JUMPDEST PUSH1 0x40 MLOAD DUP1 SWAP2 SUB SWAP1 REVERT JUMPDEST PUSH2 0xE2F DUP3 DUP3 PUSH2 0x22A5 JUMP JUMPDEST POP POP JUMP JUMPDEST PUSH1 0xB PUSH1 0x0 SWAP1 SLOAD SWAP1 PUSH2 0x100 EXP SWAP1 DIV PUSH20 0xFFFFFFFFFFFFFFFFFFFFFFFFFFFFFFFFFFFFFFFF AND DUP2 JUMP JUMPDEST PUSH1 0x0 DUP1 PUSH1 0xC PUSH1 0x0 SWAP1 SLOAD SWAP1 PUSH2 0x100 EXP SWAP1 DIV PUSH20 0xFFFFFFFFFFFFFFFFFFFFFFFFFFFFFFFFFFFFFFFF AND PUSH20 0xFFFFFFFFFFFFFFFFFFFFFFFFFFFFFFFFFFFFFFFF AND PUSH4 0x70A08231 ADDRESS PUSH1 0x40 MLOAD DUP3 PUSH4 0xFFFFFFFF AND PUSH1 0xE0 SHL DUP2 MSTORE PUSH1 0x4 ADD PUSH2 0xEB7 SWAP2 SWAP1 PUSH2 0x2AB6 JUMP JUMPDEST PUSH1 0x20 PUSH1 0x40 MLOAD DUP1 DUP4 SUB DUP2 DUP7 GAS STATICCALL ISZERO DUP1 ISZERO PUSH2 0xED4 JUMPI RETURNDATASIZE PUSH1 0x0 DUP1 RETURNDATACOPY RETURNDATASIZE PUSH1 0x0 REVERT JUMPDEST POP POP POP POP PUSH1 0x40 MLOAD RETURNDATASIZE PUSH1 0x1F NOT PUSH1 0x1F DUP3 ADD AND DUP3 ADD DUP1 PUSH1 0x40 MSTORE POP DUP2 ADD SWAP1 PUSH2 0xEF8 SWAP2 SWAP1 PUSH2 0x2E10 JUMP JUMPDEST SWAP1 POP PUSH1 0x0 PUSH1 0xD PUSH1 0x0 SWAP1 SLOAD SWAP1 PUSH2 0x100 EXP SWAP1 DIV PUSH20 0xFFFFFFFFFFFFFFFFFFFFFFFFFFFFFFFFFFFFFFFF AND PUSH20 0xFFFFFFFFFFFFFFFFFFFFFFFFFFFFFFFFFFFFFFFF AND PUSH4 0x70A08231 ADDRESS PUSH1 0x40 MLOAD DUP3 PUSH4 0xFFFFFFFF AND PUSH1 0xE0 SHL DUP2 MSTORE PUSH1 0x4 ADD PUSH2 0xF57 SWAP2 SWAP1 PUSH2 0x2AB6 JUMP JUMPDEST PUSH1 0x20 PUSH1 0x40 MLOAD DUP1 DUP4 SUB DUP2 DUP7 GAS STATICCALL ISZERO DUP1 ISZERO PUSH2 0xF74 JUMPI RETURNDATASIZE PUSH1 0x0 DUP1 RETURNDATACOPY RETURNDATASIZE PUSH1 0x0 REVERT JUMPDEST POP POP POP POP PUSH1 0x40 MLOAD RETURNDATASIZE PUSH1 0x1F NOT PUSH1 0x1F DUP3 ADD AND DUP3 ADD DUP1 PUSH1 0x40 MSTORE POP DUP2 ADD SWAP1 PUSH2 0xF98 SWAP2 SWAP1 PUSH2 0x2E10 JUMP JUMPDEST SWAP1 POP PUSH1 0x11 SLOAD DUP2 PUSH2 0xFA8 SWAP2 SWAP1 PUSH2 0x2E6C JUMP JUMPDEST PUSH1 0x10 SLOAD DUP4 PUSH2 0xFB6 SWAP2 SWAP1 PUSH2 0x2E6C JUMP JUMPDEST PUSH2 0xFC0 SWAP2 SWAP1 PUSH2 0x306F JUMP JUMPDEST SWAP3 POP POP POP SWAP1 JUMP JUMPDEST PUSH1 0x12 SLOAD DUP2 JUMP JUMPDEST PUSH1 0x0 PUSH1 0x4 PUSH1 0x0 DUP4 PUSH20 0xFFFFFFFFFFFFFFFFFFFFFFFFFFFFFFFFFFFFFFFF AND PUSH20 0xFFFFFFFFFFFFFFFFFFFFFFFFFFFFFFFFFFFFFFFF AND DUP2 MSTORE PUSH1 0x20 ADD SWAP1 DUP2 MSTORE PUSH1 0x20 ADD PUSH1 0x0 KECCAK256 SLOAD SWAP1 POP SWAP2 SWAP1 POP JUMP JUMPDEST PUSH2 0x101E PUSH2 0x23FC JUMP JUMPDEST PUSH2 0x1028 PUSH1 0x0 PUSH2 0x247A JUMP JUMPDEST JUMP JUMPDEST PUSH1 0xE SLOAD DUP2 JUMP JUMPDEST PUSH1 0x3 SLOAD DUP2 JUMP JUMPDEST PUSH1 0x0 PUSH1 0x9 PUSH1 0x0 SWAP1 SLOAD SWAP1 PUSH2 0x100 EXP SWAP1 DIV PUSH20 0xFFFFFFFFFFFFFFFFFFFFFFFFFFFFFFFFFFFFFFFF AND SWAP1 POP SWAP1 JUMP JUMPDEST PUSH1 0x60 PUSH1 0x8 DUP1 SLOAD PUSH2 0x106F SWAP1 PUSH2 0x2F03 JUMP JUMPDEST DUP1 PUSH1 0x1F ADD PUSH1 0x20 DUP1 SWAP2 DIV MUL PUSH1 0x20 ADD PUSH1 0x40 MLOAD SWAP1 DUP2 ADD PUSH1 0x40 MSTORE DUP1 SWAP3 SWAP2 SWAP1 DUP2 DUP2 MSTORE PUSH1 0x20 ADD DUP3 DUP1 SLOAD PUSH2 0x109B SWAP1 PUSH2 0x2F03 JUMP JUMPDEST DUP1 ISZERO PUSH2 0x10E8 JUMPI DUP1 PUSH1 0x1F LT PUSH2 0x10BD JUMPI PUSH2 0x100 DUP1 DUP4 SLOAD DIV MUL DUP4 MSTORE SWAP2 PUSH1 0x20 ADD SWAP2 PUSH2 0x10E8 JUMP JUMPDEST DUP3 ADD SWAP2 SWAP1 PUSH1 0x0 MSTORE PUSH1 0x20 PUSH1 0x0 KECCAK256 SWAP1 JUMPDEST DUP2 SLOAD DUP2 MSTORE SWAP1 PUSH1 0x1 ADD SWAP1 PUSH1 0x20 ADD DUP1 DUP4 GT PUSH2 0x10CB JUMPI DUP3 SWAP1 SUB PUSH1 0x1F AND DUP3 ADD SWAP2 JUMPDEST POP POP POP POP POP SWAP1 POP SWAP1 JUMP JUMPDEST PUSH2 0x10FA PUSH2 0x1036 JUMP JUMPDEST PUSH20 0xFFFFFFFFFFFFFFFFFFFFFFFFFFFFFFFFFFFFFFFF AND CALLER PUSH20 0xFFFFFFFFFFFFFFFFFFFFFFFFFFFFFFFFFFFFFFFF AND EQ PUSH2 0x1167 JUMPI PUSH1 0x40 MLOAD PUSH32 0x8C379A000000000000000000000000000000000000000000000000000000000 DUP2 MSTORE PUSH1 0x4 ADD PUSH2 0x115E SWAP1 PUSH2 0x30FD JUMP JUMPDEST PUSH1 0x40 MLOAD DUP1 SWAP2 SUB SWAP1 REVERT JUMPDEST PUSH2 0x1171 DUP3 DUP3 PUSH2 0x2540 JUMP JUMPDEST POP POP JUMP JUMPDEST PUSH1 0x0 DUP1 PUSH1 0xC PUSH1 0x0 SWAP1 SLOAD SWAP1 PUSH2 0x100 EXP SWAP1 DIV PUSH20 0xFFFFFFFFFFFFFFFFFFFFFFFFFFFFFFFFFFFFFFFF AND PUSH20 0xFFFFFFFFFFFFFFFFFFFFFFFFFFFFFFFFFFFFFFFF AND PUSH4 0x70A08231 ADDRESS PUSH1 0x40 MLOAD DUP3 PUSH4 0xFFFFFFFF AND PUSH1 0xE0 SHL DUP2 MSTORE PUSH1 0x4 ADD PUSH2 0x11D3 SWAP2 SWAP1 PUSH2 0x2AB6 JUMP JUMPDEST PUSH1 0x20 PUSH1 0x40 MLOAD DUP1 DUP4 SUB DUP2 DUP7 GAS STATICCALL ISZERO DUP1 ISZERO PUSH2 0x11F0 JUMPI RETURNDATASIZE PUSH1 0x0 DUP1 RETURNDATACOPY RETURNDATASIZE PUSH1 0x0 REVERT JUMPDEST POP POP POP POP PUSH1 0x40 MLOAD RETURNDATASIZE PUSH1 0x1F NOT PUSH1 0x1F DUP3 ADD AND DUP3 ADD DUP1 PUSH1 0x40 MSTORE POP DUP2 ADD SWAP1 PUSH2 0x1214 SWAP2 SWAP1 PUSH2 0x2E10 JUMP JUMPDEST SWAP1 POP PUSH1 0x0 PUSH1 0xD PUSH1 0x0 SWAP1 SLOAD SWAP1 PUSH2 0x100 EXP SWAP1 DIV PUSH20 0xFFFFFFFFFFFFFFFFFFFFFFFFFFFFFFFFFFFFFFFF AND PUSH20 0xFFFFFFFFFFFFFFFFFFFFFFFFFFFFFFFFFFFFFFFF AND PUSH4 0x70A08231 ADDRESS PUSH1 0x40 MLOAD DUP3 PUSH4 0xFFFFFFFF AND PUSH1 0xE0 SHL DUP2 MSTORE PUSH1 0x4 ADD PUSH2 0x1273 SWAP2 SWAP1 PUSH2 0x2AB6 JUMP JUMPDEST PUSH1 0x20 PUSH1 0x40 MLOAD DUP1 DUP4 SUB DUP2 DUP7 GAS STATICCALL ISZERO DUP1 ISZERO PUSH2 0x1290 JUMPI RETURNDATASIZE PUSH1 0x0 DUP1 RETURNDATACOPY RETURNDATASIZE PUSH1 0x0 REVERT JUMPDEST POP POP POP POP PUSH1 0x40 MLOAD RETURNDATASIZE PUSH1 0x1F NOT PUSH1 0x1F DUP3 ADD AND DUP3 ADD DUP1 PUSH1 0x40 MSTORE POP DUP2 ADD SWAP1 PUSH2 0x12B4 SWAP2 SWAP1 PUSH2 0x2E10 JUMP JUMPDEST SWAP1 POP PUSH1 0x0 DUP5 DUP4 PUSH2 0x12C4 SWAP2 SWAP1 PUSH2 0x2E6C JUMP JUMPDEST SWAP1 POP PUSH1 0x0 PUSH1 0x11 SLOAD PUSH2 0x12E4 PUSH1 0x12 SLOAD PUSH1 0x10 SLOAD DUP6 PUSH2 0x12DF SWAP2 SWAP1 PUSH2 0x2E6C JUMP JUMPDEST PUSH2 0x16E3 JUMP JUMPDEST PUSH2 0x12EE SWAP2 SWAP1 PUSH2 0x2EA0 JUMP JUMPDEST SWAP1 POP DUP1 DUP4 PUSH2 0x12FC SWAP2 SWAP1 PUSH2 0x2EA0 JUMP JUMPDEST SWAP5 POP POP POP POP POP SWAP2 SWAP1 POP JUMP JUMPDEST PUSH1 0x0 DUP1 PUSH2 0x1312 PUSH2 0x17F2 JUMP JUMPDEST SWAP1 POP PUSH1 0x0 PUSH2 0x1320 DUP3 DUP7 PUSH2 0x13F9 JUMP JUMPDEST SWAP1 POP DUP4 DUP2 LT ISZERO PUSH2 0x1365 JUMPI PUSH1 0x40 MLOAD PUSH32 0x8C379A000000000000000000000000000000000000000000000000000000000 DUP2 MSTORE PUSH1 0x4 ADD PUSH2 0x135C SWAP1 PUSH2 0x318F JUMP JUMPDEST PUSH1 0x40 MLOAD DUP1 SWAP2 SUB SWAP1 REVERT JUMPDEST PUSH2 0x1372 DUP3 DUP7 DUP7 DUP5 SUB PUSH2 0x17FA JUMP JUMPDEST PUSH1 0x1 SWAP3 POP POP POP SWAP3 SWAP2 POP POP JUMP JUMPDEST PUSH1 0x0 DUP1 PUSH2 0x1389 PUSH2 0x17F2 JUMP JUMPDEST SWAP1 POP PUSH2 0x1396 DUP2 DUP6 DUP6 PUSH2 0x1A4F JUMP JUMPDEST PUSH1 0x1 SWAP2 POP POP SWAP3 SWAP2 POP POP JUMP JUMPDEST PUSH1 0x10 SLOAD DUP2 JUMP JUMPDEST PUSH1 0x15 SLOAD DUP2 JUMP JUMPDEST PUSH1 0xA PUSH1 0x0 SWAP1 SLOAD SWAP1 PUSH2 0x100 EXP SWAP1 DIV PUSH20 0xFFFFFFFFFFFFFFFFFFFFFFFFFFFFFFFFFFFFFFFF AND DUP2 JUMP JUMPDEST PUSH1 0xD PUSH1 0x0 SWAP1 SLOAD SWAP1 PUSH2 0x100 EXP SWAP1 DIV PUSH20 0xFFFFFFFFFFFFFFFFFFFFFFFFFFFFFFFFFFFFFFFF AND DUP2 JUMP JUMPDEST PUSH1 0x0 PUSH1 0x5 PUSH1 0x0 DUP5 PUSH20 0xFFFFFFFFFFFFFFFFFFFFFFFFFFFFFFFFFFFFFFFF AND PUSH20 0xFFFFFFFFFFFFFFFFFFFFFFFFFFFFFFFFFFFFFFFF AND DUP2 MSTORE PUSH1 0x20 ADD SWAP1 DUP2 MSTORE PUSH1 0x20 ADD PUSH1 0x0 KECCAK256 PUSH1 0x0 DUP4 PUSH20 0xFFFFFFFFFFFFFFFFFFFFFFFFFFFFFFFFFFFFFFFF AND PUSH20 0xFFFFFFFFFFFFFFFFFFFFFFFFFFFFFFFFFFFFFFFF AND DUP2 MSTORE PUSH1 0x20 ADD SWAP1 DUP2 MSTORE PUSH1 0x20 ADD PUSH1 0x0 KECCAK256 SLOAD SWAP1 POP SWAP3 SWAP2 POP POP JUMP JUMPDEST PUSH2 0x1488 PUSH2 0x283B JUMP JUMPDEST PUSH1 0x0 PUSH1 0x40 MLOAD DUP1 PUSH1 0x80 ADD PUSH1 0x40 MSTORE DUP1 PUSH1 0xC PUSH1 0x0 SWAP1 SLOAD SWAP1 PUSH2 0x100 EXP SWAP1 DIV PUSH20 0xFFFFFFFFFFFFFFFFFFFFFFFFFFFFFFFFFFFFFFFF AND PUSH20 0xFFFFFFFFFFFFFFFFFFFFFFFFFFFFFFFFFFFFFFFF AND DUP2 MSTORE PUSH1 0x20 ADD PUSH1 0xD PUSH1 0x0 SWAP1 SLOAD SWAP1 PUSH2 0x100 EXP SWAP1 DIV PUSH20 0xFFFFFFFFFFFFFFFFFFFFFFFFFFFFFFFFFFFFFFFF AND PUSH20 0xFFFFFFFFFFFFFFFFFFFFFFFFFFFFFFFFFFFFFFFF AND DUP2 MSTORE PUSH1 0x20 ADD PUSH1 0xC PUSH1 0x0 SWAP1 SLOAD SWAP1 PUSH2 0x100 EXP SWAP1 DIV PUSH20 0xFFFFFFFFFFFFFFFFFFFFFFFFFFFFFFFFFFFFFFFF AND PUSH20 0xFFFFFFFFFFFFFFFFFFFFFFFFFFFFFFFFFFFFFFFF AND PUSH4 0x70A08231 ADDRESS PUSH1 0x40 MLOAD DUP3 PUSH4 0xFFFFFFFF AND PUSH1 0xE0 SHL DUP2 MSTORE PUSH1 0x4 ADD PUSH2 0x156C SWAP2 SWAP1 PUSH2 0x2AB6 JUMP JUMPDEST PUSH1 0x20 PUSH1 0x40 MLOAD DUP1 DUP4 SUB DUP2 DUP7 GAS STATICCALL ISZERO DUP1 ISZERO PUSH2 0x1589 JUMPI RETURNDATASIZE PUSH1 0x0 DUP1 RETURNDATACOPY RETURNDATASIZE PUSH1 0x0 REVERT JUMPDEST POP POP POP POP PUSH1 0x40 MLOAD RETURNDATASIZE PUSH1 0x1F NOT PUSH1 0x1F DUP3 ADD AND DUP3 ADD DUP1 PUSH1 0x40 MSTORE POP DUP2 ADD SWAP1 PUSH2 0x15AD SWAP2 SWAP1 PUSH2 0x2E10 JUMP JUMPDEST DUP2 MSTORE PUSH1 0x20 ADD PUSH1 0xD PUSH1 0x0 SWAP1 SLOAD SWAP1 PUSH2 0x100 EXP SWAP1 DIV PUSH20 0xFFFFFFFFFFFFFFFFFFFFFFFFFFFFFFFFFFFFFFFF AND PUSH20 0xFFFFFFFFFFFFFFFFFFFFFFFFFFFFFFFFFFFFFFFF AND PUSH4 0x70A08231 ADDRESS PUSH1 0x40 MLOAD DUP3 PUSH4 0xFFFFFFFF AND PUSH1 0xE0 SHL DUP2 MSTORE PUSH1 0x4 ADD PUSH2 0x160D SWAP2 SWAP1 PUSH2 0x2AB6 JUMP JUMPDEST PUSH1 0x20 PUSH1 0x40 MLOAD DUP1 DUP4 SUB DUP2 DUP7 GAS STATICCALL ISZERO DUP1 ISZERO PUSH2 0x162A JUMPI RETURNDATASIZE PUSH1 0x0 DUP1 RETURNDATACOPY RETURNDATASIZE PUSH1 0x0 REVERT JUMPDEST POP POP POP POP PUSH1 0x40 MLOAD RETURNDATASIZE PUSH1 0x1F NOT PUSH1 0x1F DUP3 ADD AND DUP3 ADD DUP1 PUSH1 0x40 MSTORE POP DUP2 ADD SWAP1 PUSH2 0x164E SWAP2 SWAP1 PUSH2 0x2E10 JUMP JUMPDEST DUP2 MSTORE POP SWAP1 POP DUP1 SWAP2 POP POP SWAP1 JUMP JUMPDEST PUSH1 0x13 SLOAD DUP2 JUMP JUMPDEST PUSH2 0x1668 PUSH2 0x23FC JUMP JUMPDEST PUSH1 0x0 PUSH20 0xFFFFFFFFFFFFFFFFFFFFFFFFFFFFFFFFFFFFFFFF AND DUP2 PUSH20 0xFFFFFFFFFFFFFFFFFFFFFFFFFFFFFFFFFFFFFFFF AND SUB PUSH2 0x16D7 JUMPI PUSH1 0x40 MLOAD PUSH32 0x8C379A000000000000000000000000000000000000000000000000000000000 DUP2 MSTORE PUSH1 0x4 ADD PUSH2 0x16CE SWAP1 PUSH2 0x3221 JUMP JUMPDEST PUSH1 0x40 MLOAD DUP1 SWAP2 SUB SWAP1 REVERT JUMPDEST PUSH2 0x16E0 DUP2 PUSH2 0x247A JUMP JUMPDEST POP JUMP JUMPDEST PUSH1 0x0 DUP2 DUP4 PUSH2 0x16F1 SWAP2 SWAP1 PUSH2 0x3270 JUMP JUMPDEST SWAP1 POP SWAP3 SWAP2 POP POP JUMP JUMPDEST PUSH1 0x0 DUP1 DUP3 SUB PUSH2 0x170B JUMPI PUSH1 0x0 SWAP1 POP PUSH2 0x17ED JUMP JUMPDEST PUSH1 0x0 PUSH1 0x1 PUSH2 0x1718 DUP5 PUSH2 0x270F JUMP JUMPDEST SWAP1 SHR PUSH1 0x1 SWAP1 SHL SWAP1 POP PUSH1 0x1 DUP2 DUP5 DUP2 PUSH2 0x1732 JUMPI PUSH2 0x1731 PUSH2 0x3241 JUMP JUMPDEST JUMPDEST DIV DUP3 ADD SWAP1 SHR SWAP1 POP PUSH1 0x1 DUP2 DUP5 DUP2 PUSH2 0x174B JUMPI PUSH2 0x174A PUSH2 0x3241 JUMP JUMPDEST JUMPDEST DIV DUP3 ADD SWAP1 SHR SWAP1 POP PUSH1 0x1 DUP2 DUP5 DUP2 PUSH2 0x1764 JUMPI PUSH2 0x1763 PUSH2 0x3241 JUMP JUMPDEST JUMPDEST DIV DUP3 ADD SWAP1 SHR SWAP1 POP PUSH1 0x1 DUP2 DUP5 DUP2 PUSH2 0x177D JUMPI PUSH2 0x177C PUSH2 0x3241 JUMP JUMPDEST JUMPDEST DIV DUP3 ADD SWAP1 SHR SWAP1 POP PUSH1 0x1 DUP2 DUP5 DUP2 PUSH2 0x1796 JUMPI PUSH2 0x1795 PUSH2 0x3241 JUMP JUMPDEST JUMPDEST DIV DUP3 ADD SWAP1 SHR SWAP1 POP PUSH1 0x1 DUP2 DUP5 DUP2 PUSH2 0x17AF JUMPI PUSH2 0x17AE PUSH2 0x3241 JUMP JUMPDEST JUMPDEST DIV DUP3 ADD SWAP1 SHR SWAP1 POP PUSH1 0x1 DUP2 DUP5 DUP2 PUSH2 0x17C8 JUMPI PUSH2 0x17C7 PUSH2 0x3241 JUMP JUMPDEST JUMPDEST DIV DUP3 ADD SWAP1 SHR SWAP1 POP PUSH2 0x17E9 DUP2 DUP3 DUP6 DUP2 PUSH2 0x17E3 JUMPI PUSH2 0x17E2 PUSH2 0x3241 JUMP JUMPDEST JUMPDEST DIV PUSH2 0x27F0 JUMP JUMPDEST SWAP2 POP POP JUMPDEST SWAP2 SWAP1 POP JUMP JUMPDEST PUSH1 0x0 CALLER SWAP1 POP SWAP1 JUMP JUMPDEST PUSH1 0x0 PUSH20 0xFFFFFFFFFFFFFFFFFFFFFFFFFFFFFFFFFFFFFFFF AND DUP4 PUSH20 0xFFFFFFFFFFFFFFFFFFFFFFFFFFFFFFFFFFFFFFFF AND SUB PUSH2 0x1869 JUMPI PUSH1 0x40 MLOAD PUSH32 0x8C379A000000000000000000000000000000000000000000000000000000000 DUP2 MSTORE PUSH1 0x4 ADD PUSH2 0x1860 SWAP1 PUSH2 0x3313 JUMP JUMPDEST PUSH1 0x40 MLOAD DUP1 SWAP2 SUB SWAP1 REVERT JUMPDEST PUSH1 0x0 PUSH20 0xFFFFFFFFFFFFFFFFFFFFFFFFFFFFFFFFFFFFFFFF AND DUP3 PUSH20 0xFFFFFFFFFFFFFFFFFFFFFFFFFFFFFFFFFFFFFFFF AND SUB PUSH2 0x18D8 JUMPI PUSH1 0x40 MLOAD PUSH32 0x8C379A000000000000000000000000000000000000000000000000000000000 DUP2 MSTORE PUSH1 0x4 ADD PUSH2 0x18CF SWAP1 PUSH2 0x33A5 JUMP JUMPDEST PUSH1 0x40 MLOAD DUP1 SWAP2 SUB SWAP1 REVERT JUMPDEST DUP1 PUSH1 0x5 PUSH1 0x0 DUP6 PUSH20 0xFFFFFFFFFFFFFFFFFFFFFFFFFFFFFFFFFFFFFFFF AND PUSH20 0xFFFFFFFFFFFFFFFFFFFFFFFFFFFFFFFFFFFFFFFF AND DUP2 MSTORE PUSH1 0x20 ADD SWAP1 DUP2 MSTORE PUSH1 0x20 ADD PUSH1 0x0 KECCAK256 PUSH1 0x0 DUP5 PUSH20 0xFFFFFFFFFFFFFFFFFFFFFFFFFFFFFFFFFFFFFFFF AND PUSH20 0xFFFFFFFFFFFFFFFFFFFFFFFFFFFFFFFFFFFFFFFF AND DUP2 MSTORE PUSH1 0x20 ADD SWAP1 DUP2 MSTORE PUSH1 0x20 ADD PUSH1 0x0 KECCAK256 DUP2 SWAP1 SSTORE POP DUP2 PUSH20 0xFFFFFFFFFFFFFFFFFFFFFFFFFFFFFFFFFFFFFFFF AND DUP4 PUSH20 0xFFFFFFFFFFFFFFFFFFFFFFFFFFFFFFFFFFFFFFFF AND PUSH32 0x8C5BE1E5EBEC7D5BD14F71427D1E84F3DD0314C0F7B2291E5B200AC8C7C3B925 DUP4 PUSH1 0x40 MLOAD PUSH2 0x19B6 SWAP2 SWAP1 PUSH2 0x2906 JUMP JUMPDEST PUSH1 0x40 MLOAD DUP1 SWAP2 SUB SWAP1 LOG3 POP POP POP JUMP JUMPDEST PUSH1 0x0 PUSH2 0x19CF DUP5 DUP5 PUSH2 0x13F9 JUMP JUMPDEST SWAP1 POP PUSH32 0xFFFFFFFFFFFFFFFFFFFFFFFFFFFFFFFFFFFFFFFFFFFFFFFFFFFFFFFFFFFFFFFF DUP2 EQ PUSH2 0x1A49 JUMPI DUP2 DUP2 LT ISZERO PUSH2 0x1A3B JUMPI PUSH1 0x40 MLOAD PUSH32 0x8C379A000000000000000000000000000000000000000000000000000000000 DUP2 MSTORE PUSH1 0x4 ADD PUSH2 0x1A32 SWAP1 PUSH2 0x3411 JUMP JUMPDEST PUSH1 0x40 MLOAD DUP1 SWAP2 SUB SWAP1 REVERT JUMPDEST PUSH2 0x1A48 DUP5 DUP5 DUP5 DUP5 SUB PUSH2 0x17FA JUMP JUMPDEST JUMPDEST POP POP POP POP JUMP JUMPDEST PUSH1 0x0 PUSH20 0xFFFFFFFFFFFFFFFFFFFFFFFFFFFFFFFFFFFFFFFF AND DUP4 PUSH20 0xFFFFFFFFFFFFFFFFFFFFFFFFFFFFFFFFFFFFFFFF AND SUB PUSH2 0x1ABE JUMPI PUSH1 0x40 MLOAD PUSH32 0x8C379A000000000000000000000000000000000000000000000000000000000 DUP2 MSTORE PUSH1 0x4 ADD PUSH2 0x1AB5 SWAP1 PUSH2 0x34A3 JUMP JUMPDEST PUSH1 0x40 MLOAD DUP1 SWAP2 SUB SWAP1 REVERT JUMPDEST PUSH1 0x0 PUSH20 0xFFFFFFFFFFFFFFFFFFFFFFFFFFFFFFFFFFFFFFFF AND DUP3 PUSH20 0xFFFFFFFFFFFFFFFFFFFFFFFFFFFFFFFFFFFFFFFF AND SUB PUSH2 0x1B2D JUMPI PUSH1 0x40 MLOAD PUSH32 0x8C379A000000000000000000000000000000000000000000000000000000000 DUP2 MSTORE PUSH1 0x4 ADD PUSH2 0x1B24 SWAP1 PUSH2 0x3535 JUMP JUMPDEST PUSH1 0x40 MLOAD DUP1 SWAP2 SUB SWAP1 REVERT JUMPDEST PUSH2 0x1B38 DUP4 DUP4 DUP4 PUSH2 0x2809 JUMP JUMPDEST PUSH1 0x0 PUSH1 0x4 PUSH1 0x0 DUP6 PUSH20 0xFFFFFFFFFFFFFFFFFFFFFFFFFFFFFFFFFFFFFFFF AND PUSH20 0xFFFFFFFFFFFFFFFFFFFFFFFFFFFFFFFFFFFFFFFF AND DUP2 MSTORE PUSH1 0x20 ADD SWAP1 DUP2 MSTORE PUSH1 0x20 ADD PUSH1 0x0 KECCAK256 SLOAD SWAP1 POP DUP2 DUP2 LT ISZERO PUSH2 0x1BBF JUMPI PUSH1 0x40 MLOAD PUSH32 0x8C379A000000000000000000000000000000000000000000000000000000000 DUP2 MSTORE PUSH1 0x4 ADD PUSH2 0x1BB6 SWAP1 PUSH2 0x35C7 JUMP JUMPDEST PUSH1 0x40 MLOAD DUP1 SWAP2 SUB SWAP1 REVERT JUMPDEST DUP2 DUP2 SUB PUSH1 0x4 PUSH1 0x0 DUP7 PUSH20 0xFFFFFFFFFFFFFFFFFFFFFFFFFFFFFFFFFFFFFFFF AND PUSH20 0xFFFFFFFFFFFFFFFFFFFFFFFFFFFFFFFFFFFFFFFF AND DUP2 MSTORE PUSH1 0x20 ADD SWAP1 DUP2 MSTORE PUSH1 0x20 ADD PUSH1 0x0 KECCAK256 DUP2 SWAP1 SSTORE POP DUP2 PUSH1 0x4 PUSH1 0x0 DUP6 PUSH20 0xFFFFFFFFFFFFFFFFFFFFFFFFFFFFFFFFFFFFFFFF AND PUSH20 0xFFFFFFFFFFFFFFFFFFFFFFFFFFFFFFFFFFFFFFFF AND DUP2 MSTORE PUSH1 0x20 ADD SWAP1 DUP2 MSTORE PUSH1 0x20 ADD PUSH1 0x0 KECCAK256 PUSH1 0x0 DUP3 DUP3 SLOAD ADD SWAP3 POP POP DUP2 SWAP1 SSTORE POP DUP3 PUSH20 0xFFFFFFFFFFFFFFFFFFFFFFFFFFFFFFFFFFFFFFFF AND DUP5 PUSH20 0xFFFFFFFFFFFFFFFFFFFFFFFFFFFFFFFFFFFFFFFF AND PUSH32 0xDDF252AD1BE2C89B69C2B068FC378DAA952BA7F163C4A11628F55A4DF523B3EF DUP5 PUSH1 0x40 MLOAD PUSH2 0x1CAF SWAP2 SWAP1 PUSH2 0x2906 JUMP JUMPDEST PUSH1 0x40 MLOAD DUP1 SWAP2 SUB SWAP1 LOG3 PUSH2 0x1CC2 DUP5 DUP5 DUP5 PUSH2 0x280E JUMP JUMPDEST POP POP POP POP JUMP JUMPDEST PUSH1 0x0 PUSH2 0x1CD3 DUP4 PUSH2 0x6B6 JUMP JUMPDEST SWAP1 POP DUP2 DUP2 LT ISZERO PUSH2 0x1D18 JUMPI PUSH1 0x40 MLOAD PUSH32 0x8C379A000000000000000000000000000000000000000000000000000000000 DUP2 MSTORE PUSH1 0x4 ADD PUSH2 0x1D0F SWAP1 PUSH2 0x3633 JUMP JUMPDEST PUSH1 0x40 MLOAD DUP1 SWAP2 SUB SWAP1 REVERT JUMPDEST PUSH1 0xD PUSH1 0x0 SWAP1 SLOAD SWAP1 PUSH2 0x100 EXP SWAP1 DIV PUSH20 0xFFFFFFFFFFFFFFFFFFFFFFFFFFFFFFFFFFFFFFFF AND PUSH20 0xFFFFFFFFFFFFFFFFFFFFFFFFFFFFFFFFFFFFFFFF AND PUSH4 0x23B872DD CALLER ADDRESS DUP7 PUSH1 0x40 MLOAD DUP5 PUSH4 0xFFFFFFFF AND PUSH1 0xE0 SHL DUP2 MSTORE PUSH1 0x4 ADD PUSH2 0x1D77 SWAP4 SWAP3 SWAP2 SWAP1 PUSH2 0x3653 JUMP JUMPDEST PUSH1 0x20 PUSH1 0x40 MLOAD DUP1 DUP4 SUB DUP2 PUSH1 0x0 DUP8 GAS CALL ISZERO DUP1 ISZERO PUSH2 0x1D96 JUMPI RETURNDATASIZE PUSH1 0x0 DUP1 RETURNDATACOPY RETURNDATASIZE PUSH1 0x0 REVERT JUMPDEST POP POP POP POP PUSH1 0x40 MLOAD RETURNDATASIZE PUSH1 0x1F NOT PUSH1 0x1F DUP3 ADD AND DUP3 ADD DUP1 PUSH1 0x40 MSTORE POP DUP2 ADD SWAP1 PUSH2 0x1DBA SWAP2 SWAP1 PUSH2 0x369F JUMP JUMPDEST POP PUSH1 0xC PUSH1 0x0 SWAP1 SLOAD SWAP1 PUSH2 0x100 EXP SWAP1 DIV PUSH20 0xFFFFFFFFFFFFFFFFFFFFFFFFFFFFFFFFFFFFFFFF AND PUSH20 0xFFFFFFFFFFFFFFFFFFFFFFFFFFFFFFFFFFFFFFFF AND PUSH4 0xA9059CBB CALLER DUP4 PUSH1 0x40 MLOAD DUP4 PUSH4 0xFFFFFFFF AND PUSH1 0xE0 SHL DUP2 MSTORE PUSH1 0x4 ADD PUSH2 0x1E18 SWAP3 SWAP2 SWAP1 PUSH2 0x36CC JUMP JUMPDEST PUSH1 0x20 PUSH1 0x40 MLOAD DUP1 DUP4 SUB DUP2 PUSH1 0x0 DUP8 GAS CALL ISZERO DUP1 ISZERO PUSH2 0x1E37 JUMPI RETURNDATASIZE PUSH1 0x0 DUP1 RETURNDATACOPY RETURNDATASIZE PUSH1 0x0 REVERT JUMPDEST POP POP POP POP PUSH1 0x40 MLOAD RETURNDATASIZE PUSH1 0x1F NOT PUSH1 0x1F DUP3 ADD AND DUP3 ADD DUP1 PUSH1 0x40 MSTORE POP DUP2 ADD SWAP1 PUSH2 0x1E5B SWAP2 SWAP1 PUSH2 0x369F JUMP JUMPDEST POP ADDRESS PUSH20 0xFFFFFFFFFFFFFFFFFFFFFFFFFFFFFFFFFFFFFFFF AND CALLER PUSH20 0xFFFFFFFFFFFFFFFFFFFFFFFFFFFFFFFFFFFFFFFF AND PUSH32 0xD78AD95FA46C994B6551D0DA85FC275FE613CE37657FB8D5E3D130840159D822 PUSH1 0x0 DUP7 DUP7 PUSH1 0x0 PUSH1 0x40 MLOAD PUSH2 0x1EC1 SWAP5 SWAP4 SWAP3 SWAP2 SWAP1 PUSH2 0x373A JUMP JUMPDEST PUSH1 0x40 MLOAD DUP1 SWAP2 SUB SWAP1 LOG3 POP POP POP JUMP JUMPDEST PUSH1 0x0 PUSH2 0x1ED9 DUP4 PUSH2 0x1175 JUMP JUMPDEST SWAP1 POP DUP2 DUP2 LT ISZERO PUSH2 0x1F1E JUMPI PUSH1 0x40 MLOAD PUSH32 0x8C379A000000000000000000000000000000000000000000000000000000000 DUP2 MSTORE PUSH1 0x4 ADD PUSH2 0x1F15 SWAP1 PUSH2 0x3633 JUMP JUMPDEST PUSH1 0x40 MLOAD DUP1 SWAP2 SUB SWAP1 REVERT JUMPDEST PUSH1 0xC PUSH1 0x0 SWAP1 SLOAD SWAP1 PUSH2 0x100 EXP SWAP1 DIV PUSH20 0xFFFFFFFFFFFFFFFFFFFFFFFFFFFFFFFFFFFFFFFF AND PUSH20 0xFFFFFFFFFFFFFFFFFFFFFFFFFFFFFFFFFFFFFFFF AND PUSH4 0x23B872DD CALLER ADDRESS DUP7 PUSH1 0x40 MLOAD DUP5 PUSH4 0xFFFFFFFF AND PUSH1 0xE0 SHL DUP2 MSTORE PUSH1 0x4 ADD PUSH2 0x1F7D SWAP4 SWAP3 SWAP2 SWAP1 PUSH2 0x3653 JUMP JUMPDEST PUSH1 0x20 PUSH1 0x40 MLOAD DUP1 DUP4 SUB DUP2 PUSH1 0x0 DUP8 GAS CALL ISZERO DUP1 ISZERO PUSH2 0x1F9C JUMPI RETURNDATASIZE PUSH1 0x0 DUP1 RETURNDATACOPY RETURNDATASIZE PUSH1 0x0 REVERT JUMPDEST POP POP POP POP PUSH1 0x40 MLOAD RETURNDATASIZE PUSH1 0x1F NOT PUSH1 0x1F DUP3 ADD AND DUP3 ADD DUP1 PUSH1 0x40 MSTORE POP DUP2 ADD SWAP1 PUSH2 0x1FC0 SWAP2 SWAP1 PUSH2 0x369F JUMP JUMPDEST POP PUSH1 0x0 PUSH2 0x1FDD DUP3 PUSH1 0x15 SLOAD PUSH2 0x1FD4 SWAP2 SWAP1 PUSH2 0x306F JUMP JUMPDEST PUSH3 0xF4240 PUSH2 0x16E3 JUMP JUMPDEST SWAP1 POP PUSH1 0xD PUSH1 0x0 SWAP1 SLOAD SWAP1 PUSH2 0x100 EXP SWAP1 DIV PUSH20 0xFFFFFFFFFFFFFFFFFFFFFFFFFFFFFFFFFFFFFFFF AND PUSH20 0xFFFFFFFFFFFFFFFFFFFFFFFFFFFFFFFFFFFFFFFF AND PUSH4 0xA9059CBB PUSH1 0xB PUSH1 0x0 SWAP1 SLOAD SWAP1 PUSH2 0x100 EXP SWAP1 DIV PUSH20 0xFFFFFFFFFFFFFFFFFFFFFFFFFFFFFFFFFFFFFFFF AND DUP4 PUSH1 0x40 MLOAD DUP4 PUSH4 0xFFFFFFFF AND PUSH1 0xE0 SHL DUP2 MSTORE PUSH1 0x4 ADD PUSH2 0x205E SWAP3 SWAP2 SWAP1 PUSH2 0x36CC JUMP JUMPDEST PUSH1 0x20 PUSH1 0x40 MLOAD DUP1 DUP4 SUB DUP2 PUSH1 0x0 DUP8 GAS CALL ISZERO DUP1 ISZERO PUSH2 0x207D JUMPI RETURNDATASIZE PUSH1 0x0 DUP1 RETURNDATACOPY RETURNDATASIZE PUSH1 0x0 REVERT JUMPDEST POP POP POP POP PUSH1 0x40 MLOAD RETURNDATASIZE PUSH1 0x1F NOT PUSH1 0x1F DUP3 ADD AND DUP3 ADD DUP1 PUSH1 0x40 MSTORE POP DUP2 ADD SWAP1 PUSH2 0x20A1 SWAP2 SWAP1 PUSH2 0x369F JUMP JUMPDEST POP PUSH1 0xD PUSH1 0x0 SWAP1 SLOAD SWAP1 PUSH2 0x100 EXP SWAP1 DIV PUSH20 0xFFFFFFFFFFFFFFFFFFFFFFFFFFFFFFFFFFFFFFFF AND PUSH20 0xFFFFFFFFFFFFFFFFFFFFFFFFFFFFFFFFFFFFFFFF AND PUSH4 0xA9059CBB CALLER DUP4 DUP6 PUSH2 0x20ED SWAP2 SWAP1 PUSH2 0x2EA0 JUMP JUMPDEST PUSH1 0x40 MLOAD DUP4 PUSH4 0xFFFFFFFF AND PUSH1 0xE0 SHL DUP2 MSTORE PUSH1 0x4 ADD PUSH2 0x210A SWAP3 SWAP2 SWAP1 PUSH2 0x36CC JUMP JUMPDEST PUSH1 0x20 PUSH1 0x40 MLOAD DUP1 DUP4 SUB DUP2 PUSH1 0x0 DUP8 GAS CALL ISZERO DUP1 ISZERO PUSH2 0x2129 JUMPI RETURNDATASIZE PUSH1 0x0 DUP1 RETURNDATACOPY RETURNDATASIZE PUSH1 0x0 REVERT JUMPDEST POP POP POP POP PUSH1 0x40 MLOAD RETURNDATASIZE PUSH1 0x1F NOT PUSH1 0x1F DUP3 ADD AND DUP3 ADD DUP1 PUSH1 0x40 MSTORE POP DUP2 ADD SWAP1 PUSH2 0x214D SWAP2 SWAP1 PUSH2 0x369F JUMP JUMPDEST POP ADDRESS PUSH20 0xFFFFFFFFFFFFFFFFFFFFFFFFFFFFFFFFFFFFFFFF AND CALLER PUSH20 0xFFFFFFFFFFFFFFFFFFFFFFFFFFFFFFFFFFFFFFFF AND PUSH32 0xD78AD95FA46C994B6551D0DA85FC275FE613CE37657FB8D5E3D130840159D822 DUP7 PUSH1 0x0 DUP1 DUP9 PUSH1 0x40 MLOAD PUSH2 0x21B2 SWAP5 SWAP4 SWAP3 SWAP2 SWAP1 PUSH2 0x377F JUMP JUMPDEST PUSH1 0x40 MLOAD DUP1 SWAP2 SUB SWAP1 LOG3 POP POP POP POP JUMP JUMPDEST PUSH1 0x3 SLOAD PUSH1 0x1 SLOAD PUSH1 0x2 SLOAD PUSH2 0x21D3 SWAP2 SWAP1 PUSH2 0x2EA0 JUMP JUMPDEST SUB PUSH2 0x2228 JUMPI PUSH1 0x0 DUP1 PUSH1 0x1 SLOAD DUP2 MSTORE PUSH1 0x20 ADD SWAP1 DUP2 MSTORE PUSH1 0x20 ADD PUSH1 0x0 KECCAK256 PUSH1 0x0 DUP1 DUP3 ADD PUSH1 0x0 SWAP1 SSTORE PUSH1 0x1 DUP3 ADD PUSH1 0x0 SWAP1 SSTORE PUSH1 0x2 DUP3 ADD PUSH1 0x0 SWAP1 SSTORE PUSH1 0x3 DUP3 ADD PUSH1 0x0 SWAP1 SSTORE POP POP PUSH1 0x1 PUSH1 0x0 DUP2 SLOAD DUP1 SWAP3 SWAP2 SWAP1 PUSH2 0x2222 SWAP1 PUSH2 0x2FBB JUMP JUMPDEST SWAP2 SWAP1 POP SSTORE POP JUMPDEST PUSH1 0x2 PUSH1 0x0 DUP2 SLOAD DUP1 SWAP3 SWAP2 SWAP1 PUSH2 0x223B SWAP1 PUSH2 0x2FBB JUMP JUMPDEST SWAP2 SWAP1 POP SSTORE POP PUSH1 0x40 MLOAD DUP1 PUSH1 0x80 ADD PUSH1 0x40 MSTORE DUP1 DUP5 DUP2 MSTORE PUSH1 0x20 ADD DUP4 DUP2 MSTORE PUSH1 0x20 ADD DUP3 DUP2 MSTORE PUSH1 0x20 ADD TIMESTAMP DUP2 MSTORE POP PUSH1 0x0 DUP1 PUSH1 0x2 SLOAD DUP2 MSTORE PUSH1 0x20 ADD SWAP1 DUP2 MSTORE PUSH1 0x20 ADD PUSH1 0x0 KECCAK256 PUSH1 0x0 DUP3 ADD MLOAD DUP2 PUSH1 0x0 ADD SSTORE PUSH1 0x20 DUP3 ADD MLOAD DUP2 PUSH1 0x1 ADD SSTORE PUSH1 0x40 DUP3 ADD MLOAD DUP2 PUSH1 0x2 ADD SSTORE PUSH1 0x60 DUP3 ADD MLOAD DUP2 PUSH1 0x3 ADD SSTORE SWAP1 POP POP POP POP POP JUMP JUMPDEST PUSH1 0x0 PUSH20 0xFFFFFFFFFFFFFFFFFFFFFFFFFFFFFFFFFFFFFFFF AND DUP3 PUSH20 0xFFFFFFFFFFFFFFFFFFFFFFFFFFFFFFFFFFFFFFFF AND SUB PUSH2 0x2314 JUMPI PUSH1 0x40 MLOAD PUSH32 0x8C379A000000000000000000000000000000000000000000000000000000000 DUP2 MSTORE PUSH1 0x4 ADD PUSH2 0x230B SWAP1 PUSH2 0x3810 JUMP JUMPDEST PUSH1 0x40 MLOAD DUP1 SWAP2 SUB SWAP1 REVERT JUMPDEST PUSH2 0x2320 PUSH1 0x0 DUP4 DUP4 PUSH2 0x2809 JUMP JUMPDEST DUP1 PUSH1 0x6 PUSH1 0x0 DUP3 DUP3 SLOAD PUSH2 0x2332 SWAP2 SWAP1 PUSH2 0x2E6C JUMP JUMPDEST SWAP3 POP POP DUP2 SWAP1 SSTORE POP DUP1 PUSH1 0x4 PUSH1 0x0 DUP5 PUSH20 0xFFFFFFFFFFFFFFFFFFFFFFFFFFFFFFFFFFFFFFFF AND PUSH20 0xFFFFFFFFFFFFFFFFFFFFFFFFFFFFFFFFFFFFFFFF AND DUP2 MSTORE PUSH1 0x20 ADD SWAP1 DUP2 MSTORE PUSH1 0x20 ADD PUSH1 0x0 KECCAK256 PUSH1 0x0 DUP3 DUP3 SLOAD ADD SWAP3 POP POP DUP2 SWAP1 SSTORE POP DUP2 PUSH20 0xFFFFFFFFFFFFFFFFFFFFFFFFFFFFFFFFFFFFFFFF AND PUSH1 0x0 PUSH20 0xFFFFFFFFFFFFFFFFFFFFFFFFFFFFFFFFFFFFFFFF AND PUSH32 0xDDF252AD1BE2C89B69C2B068FC378DAA952BA7F163C4A11628F55A4DF523B3EF DUP4 PUSH1 0x40 MLOAD PUSH2 0x23E4 SWAP2 SWAP1 PUSH2 0x2906 JUMP JUMPDEST PUSH1 0x40 MLOAD DUP1 SWAP2 SUB SWAP1 LOG3 PUSH2 0x23F8 PUSH1 0x0 DUP4 DUP4 PUSH2 0x280E JUMP JUMPDEST POP POP JUMP JUMPDEST PUSH2 0x2404 PUSH2 0x17F2 JUMP JUMPDEST PUSH20 0xFFFFFFFFFFFFFFFFFFFFFFFFFFFFFFFFFFFFFFFF AND PUSH2 0x2422 PUSH2 0x1036 JUMP JUMPDEST PUSH20 0xFFFFFFFFFFFFFFFFFFFFFFFFFFFFFFFFFFFFFFFF AND EQ PUSH2 0x2478 JUMPI PUSH1 0x40 MLOAD PUSH32 0x8C379A000000000000000000000000000000000000000000000000000000000 DUP2 MSTORE PUSH1 0x4 ADD PUSH2 0x246F SWAP1 PUSH2 0x387C JUMP JUMPDEST PUSH1 0x40 MLOAD DUP1 SWAP2 SUB SWAP1 REVERT JUMPDEST JUMP JUMPDEST PUSH1 0x0 PUSH1 0x9 PUSH1 0x0 SWAP1 SLOAD SWAP1 PUSH2 0x100 EXP SWAP1 DIV PUSH20 0xFFFFFFFFFFFFFFFFFFFFFFFFFFFFFFFFFFFFFFFF AND SWAP1 POP DUP2 PUSH1 0x9 PUSH1 0x0 PUSH2 0x100 EXP DUP2 SLOAD DUP2 PUSH20 0xFFFFFFFFFFFFFFFFFFFFFFFFFFFFFFFFFFFFFFFF MUL NOT AND SWAP1 DUP4 PUSH20 0xFFFFFFFFFFFFFFFFFFFFFFFFFFFFFFFFFFFFFFFF AND MUL OR SWAP1 SSTORE POP DUP2 PUSH20 0xFFFFFFFFFFFFFFFFFFFFFFFFFFFFFFFFFFFFFFFF AND DUP2 PUSH20 0xFFFFFFFFFFFFFFFFFFFFFFFFFFFFFFFFFFFFFFFF AND PUSH32 0x8BE0079C531659141344CD1FD0A4F28419497F9722A3DAAFE3B4186F6B6457E0 PUSH1 0x40 MLOAD PUSH1 0x40 MLOAD DUP1 SWAP2 SUB SWAP1 LOG3 POP POP JUMP JUMPDEST PUSH1 0x0 PUSH20 0xFFFFFFFFFFFFFFFFFFFFFFFFFFFFFFFFFFFFFFFF AND DUP3 PUSH20 0xFFFFFFFFFFFFFFFFFFFFFFFFFFFFFFFFFFFFFFFF AND SUB PUSH2 0x25AF JUMPI PUSH1 0x40 MLOAD PUSH32 0x8C379A000000000000000000000000000000000000000000000000000000000 DUP2 MSTORE PUSH1 0x4 ADD PUSH2 0x25A6 SWAP1 PUSH2 0x390E JUMP JUMPDEST PUSH1 0x40 MLOAD DUP1 SWAP2 SUB SWAP1 REVERT JUMPDEST PUSH2 0x25BB DUP3 PUSH1 0x0 DUP4 PUSH2 0x2809 JUMP JUMPDEST PUSH1 0x0 PUSH1 0x4 PUSH1 0x0 DUP5 PUSH20 0xFFFFFFFFFFFFFFFFFFFFFFFFFFFFFFFFFFFFFFFF AND PUSH20 0xFFFFFFFFFFFFFFFFFFFFFFFFFFFFFFFFFFFFFFFF AND DUP2 MSTORE PUSH1 0x20 ADD SWAP1 DUP2 MSTORE PUSH1 0x20 ADD PUSH1 0x0 KECCAK256 SLOAD SWAP1 POP DUP2 DUP2 LT ISZERO PUSH2 0x2642 JUMPI PUSH1 0x40 MLOAD PUSH32 0x8C379A000000000000000000000000000000000000000000000000000000000 DUP2 MSTORE PUSH1 0x4 ADD PUSH2 0x2639 SWAP1 PUSH2 0x39A0 JUMP JUMPDEST PUSH1 0x40 MLOAD DUP1 SWAP2 SUB SWAP1 REVERT JUMPDEST DUP2 DUP2 SUB PUSH1 0x4 PUSH1 0x0 DUP6 PUSH20 0xFFFFFFFFFFFFFFFFFFFFFFFFFFFFFFFFFFFFFFFF AND PUSH20 0xFFFFFFFFFFFFFFFFFFFFFFFFFFFFFFFFFFFFFFFF AND DUP2 MSTORE PUSH1 0x20 ADD SWAP1 DUP2 MSTORE PUSH1 0x20 ADD PUSH1 0x0 KECCAK256 DUP2 SWAP1 SSTORE POP DUP2 PUSH1 0x6 PUSH1 0x0 DUP3 DUP3 SLOAD SUB SWAP3 POP POP DUP2 SWAP1 SSTORE POP PUSH1 0x0 PUSH20 0xFFFFFFFFFFFFFFFFFFFFFFFFFFFFFFFFFFFFFFFF AND DUP4 PUSH20 0xFFFFFFFFFFFFFFFFFFFFFFFFFFFFFFFFFFFFFFFF AND PUSH32 0xDDF252AD1BE2C89B69C2B068FC378DAA952BA7F163C4A11628F55A4DF523B3EF DUP5 PUSH1 0x40 MLOAD PUSH2 0x26F6 SWAP2 SWAP1 PUSH2 0x2906 JUMP JUMPDEST PUSH1 0x40 MLOAD DUP1 SWAP2 SUB SWAP1 LOG3 PUSH2 0x270A DUP4 PUSH1 0x0 DUP5 PUSH2 0x280E JUMP JUMPDEST POP POP POP JUMP JUMPDEST PUSH1 0x0 DUP1 PUSH1 0x0 SWAP1 POP PUSH1 0x0 PUSH1 0x80 DUP5 SWAP1 SHR GT ISZERO PUSH2 0x2731 JUMPI PUSH1 0x80 DUP4 SWAP1 SHR SWAP3 POP PUSH1 0x80 DUP2 ADD SWAP1 POP JUMPDEST PUSH1 0x0 PUSH1 0x40 DUP5 SWAP1 SHR GT ISZERO PUSH2 0x274C JUMPI PUSH1 0x40 DUP4 SWAP1 SHR SWAP3 POP PUSH1 0x40 DUP2 ADD SWAP1 POP JUMPDEST PUSH1 0x0 PUSH1 0x20 DUP5 SWAP1 SHR GT ISZERO PUSH2 0x2767 JUMPI PUSH1 0x20 DUP4 SWAP1 SHR SWAP3 POP PUSH1 0x20 DUP2 ADD SWAP1 POP JUMPDEST PUSH1 0x0 PUSH1 0x10 DUP5 SWAP1 SHR GT ISZERO PUSH2 0x2782 JUMPI PUSH1 0x10 DUP4 SWAP1 SHR SWAP3 POP PUSH1 0x10 DUP2 ADD SWAP1 POP JUMPDEST PUSH1 0x0 PUSH1 0x8 DUP5 SWAP1 SHR GT ISZERO PUSH2 0x279D JUMPI PUSH1 0x8 DUP4 SWAP1 SHR SWAP3 POP PUSH1 0x8 DUP2 ADD SWAP1 POP JUMPDEST PUSH1 0x0 PUSH1 0x4 DUP5 SWAP1 SHR GT ISZERO PUSH2 0x27B8 JUMPI PUSH1 0x4 DUP4 SWAP1 SHR SWAP3 POP PUSH1 0x4 DUP2 ADD SWAP1 POP JUMPDEST PUSH1 0x0 PUSH1 0x2 DUP5 SWAP1 SHR GT ISZERO PUSH2 0x27D3 JUMPI PUSH1 0x2 DUP4 SWAP1 SHR SWAP3 POP PUSH1 0x2 DUP2 ADD SWAP1 POP JUMPDEST PUSH1 0x0 PUSH1 0x1 DUP5 SWAP1 SHR GT ISZERO PUSH2 0x27E7 JUMPI PUSH1 0x1 DUP2 ADD SWAP1 POP JUMPDEST DUP1 SWAP2 POP POP SWAP2 SWAP1 POP JUMP JUMPDEST PUSH1 0x0 DUP2 DUP4 LT PUSH2 0x27FF JUMPI DUP2 PUSH2 0x2801 JUMP JUMPDEST DUP3 JUMPDEST SWAP1 POP SWAP3 SWAP2 POP POP JUMP JUMPDEST POP POP POP JUMP JUMPDEST POP POP POP JUMP JUMPDEST PUSH1 0x40 MLOAD DUP1 PUSH1 0x80 ADD PUSH1 0x40 MSTORE DUP1 PUSH1 0x0 DUP2 MSTORE PUSH1 0x20 ADD PUSH1 0x0 DUP2 MSTORE PUSH1 0x20 ADD PUSH1 0x0 DUP2 MSTORE PUSH1 0x20 ADD PUSH1 0x0 DUP2 MSTORE POP SWAP1 JUMP JUMPDEST PUSH1 0x40 MLOAD DUP1 PUSH1 0x80 ADD PUSH1 0x40 MSTORE DUP1 PUSH1 0x0 PUSH20 0xFFFFFFFFFFFFFFFFFFFFFFFFFFFFFFFFFFFFFFFF AND DUP2 MSTORE PUSH1 0x20 ADD PUSH1 0x0 PUSH20 0xFFFFFFFFFFFFFFFFFFFFFFFFFFFFFFFFFFFFFFFF AND DUP2 MSTORE PUSH1 0x20 ADD PUSH1 0x0 DUP2 MSTORE PUSH1 0x20 ADD PUSH1 0x0 DUP2 MSTORE POP SWAP1 JUMP JUMPDEST PUSH1 0x0 DUP1 REVERT JUMPDEST PUSH1 0x0 DUP2 SWAP1 POP SWAP2 SWAP1 POP JUMP JUMPDEST PUSH2 0x28A7 DUP2 PUSH2 0x2894 JUMP JUMPDEST DUP2 EQ PUSH2 0x28B2 JUMPI PUSH1 0x0 DUP1 REVERT JUMPDEST POP JUMP JUMPDEST PUSH1 0x0 DUP2 CALLDATALOAD SWAP1 POP PUSH2 0x28C4 DUP2 PUSH2 0x289E JUMP JUMPDEST SWAP3 SWAP2 POP POP JUMP JUMPDEST PUSH1 0x0 PUSH1 0x20 DUP3 DUP5 SUB SLT ISZERO PUSH2 0x28E0 JUMPI PUSH2 0x28DF PUSH2 0x288F JUMP JUMPDEST JUMPDEST PUSH1 0x0 PUSH2 0x28EE DUP5 DUP3 DUP6 ADD PUSH2 0x28B5 JUMP JUMPDEST SWAP2 POP POP SWAP3 SWAP2 POP POP JUMP JUMPDEST PUSH2 0x2900 DUP2 PUSH2 0x2894 JUMP JUMPDEST DUP3 MSTORE POP POP JUMP JUMPDEST PUSH1 0x0 PUSH1 0x20 DUP3 ADD SWAP1 POP PUSH2 0x291B PUSH1 0x0 DUP4 ADD DUP5 PUSH2 0x28F7 JUMP JUMPDEST SWAP3 SWAP2 POP POP JUMP JUMPDEST PUSH1 0x0 DUP2 MLOAD SWAP1 POP SWAP2 SWAP1 POP JUMP JUMPDEST PUSH1 0x0 DUP3 DUP3 MSTORE PUSH1 0x20 DUP3 ADD SWAP1 POP SWAP3 SWAP2 POP POP JUMP JUMPDEST PUSH1 0x0 JUMPDEST DUP4 DUP2 LT ISZERO PUSH2 0x295B JUMPI DUP1 DUP3 ADD MLOAD DUP2 DUP5 ADD MSTORE PUSH1 0x20 DUP2 ADD SWAP1 POP PUSH2 0x2940 JUMP JUMPDEST PUSH1 0x0 DUP5 DUP5 ADD MSTORE POP POP POP POP JUMP JUMPDEST PUSH1 0x0 PUSH1 0x1F NOT PUSH1 0x1F DUP4 ADD AND SWAP1 POP SWAP2 SWAP1 POP JUMP JUMPDEST PUSH1 0x0 PUSH2 0x2983 DUP3 PUSH2 0x2921 JUMP JUMPDEST PUSH2 0x298D DUP2 DUP6 PUSH2 0x292C JUMP JUMPDEST SWAP4 POP PUSH2 0x299D DUP2 DUP6 PUSH1 0x20 DUP7 ADD PUSH2 0x293D JUMP JUMPDEST PUSH2 0x29A6 DUP2 PUSH2 0x2967 JUMP JUMPDEST DUP5 ADD SWAP2 POP POP SWAP3 SWAP2 POP POP JUMP JUMPDEST PUSH1 0x0 PUSH1 0x20 DUP3 ADD SWAP1 POP DUP2 DUP2 SUB PUSH1 0x0 DUP4 ADD MSTORE PUSH2 0x29CB DUP2 DUP5 PUSH2 0x2978 JUMP JUMPDEST SWAP1 POP SWAP3 SWAP2 POP POP JUMP JUMPDEST PUSH1 0x0 PUSH20 0xFFFFFFFFFFFFFFFFFFFFFFFFFFFFFFFFFFFFFFFF DUP3 AND SWAP1 POP SWAP2 SWAP1 POP JUMP JUMPDEST PUSH1 0x0 PUSH2 0x29FE DUP3 PUSH2 0x29D3 JUMP JUMPDEST SWAP1 POP SWAP2 SWAP1 POP JUMP JUMPDEST PUSH2 0x2A0E DUP2 PUSH2 0x29F3 JUMP JUMPDEST DUP2 EQ PUSH2 0x2A19 JUMPI PUSH1 0x0 DUP1 REVERT JUMPDEST POP JUMP JUMPDEST PUSH1 0x0 DUP2 CALLDATALOAD SWAP1 POP PUSH2 0x2A2B DUP2 PUSH2 0x2A05 JUMP JUMPDEST SWAP3 SWAP2 POP POP JUMP JUMPDEST PUSH1 0x0 DUP1 PUSH1 0x40 DUP4 DUP6 SUB SLT ISZERO PUSH2 0x2A48 JUMPI PUSH2 0x2A47 PUSH2 0x288F JUMP JUMPDEST JUMPDEST PUSH1 0x0 PUSH2 0x2A56 DUP6 DUP3 DUP7 ADD PUSH2 0x2A1C JUMP JUMPDEST SWAP3 POP POP PUSH1 0x20 PUSH2 0x2A67 DUP6 DUP3 DUP7 ADD PUSH2 0x28B5 JUMP JUMPDEST SWAP2 POP POP SWAP3 POP SWAP3 SWAP1 POP JUMP JUMPDEST PUSH1 0x0 DUP2 ISZERO ISZERO SWAP1 POP SWAP2 SWAP1 POP JUMP JUMPDEST PUSH2 0x2A86 DUP2 PUSH2 0x2A71 JUMP JUMPDEST DUP3 MSTORE POP POP JUMP JUMPDEST PUSH1 0x0 PUSH1 0x20 DUP3 ADD SWAP1 POP PUSH2 0x2AA1 PUSH1 0x0 DUP4 ADD DUP5 PUSH2 0x2A7D JUMP JUMPDEST SWAP3 SWAP2 POP POP JUMP JUMPDEST PUSH2 0x2AB0 DUP2 PUSH2 0x29F3 JUMP JUMPDEST DUP3 MSTORE POP POP JUMP JUMPDEST PUSH1 0x0 PUSH1 0x20 DUP3 ADD SWAP1 POP PUSH2 0x2ACB PUSH1 0x0 DUP4 ADD DUP5 PUSH2 0x2AA7 JUMP JUMPDEST SWAP3 SWAP2 POP POP JUMP JUMPDEST PUSH1 0x0 DUP1 PUSH1 0x0 PUSH1 0x60 DUP5 DUP7 SUB SLT ISZERO PUSH2 0x2AEA JUMPI PUSH2 0x2AE9 PUSH2 0x288F JUMP JUMPDEST JUMPDEST PUSH1 0x0 PUSH2 0x2AF8 DUP7 DUP3 DUP8 ADD PUSH2 0x2A1C JUMP JUMPDEST SWAP4 POP POP PUSH1 0x20 PUSH2 0x2B09 DUP7 DUP3 DUP8 ADD PUSH2 0x2A1C JUMP JUMPDEST SWAP3 POP POP PUSH1 0x40 PUSH2 0x2B1A DUP7 DUP3 DUP8 ADD PUSH2 0x28B5 JUMP JUMPDEST SWAP2 POP POP SWAP3 POP SWAP3 POP SWAP3 JUMP JUMPDEST PUSH2 0x2B2D DUP2 PUSH2 0x2A71 JUMP JUMPDEST DUP2 EQ PUSH2 0x2B38 JUMPI PUSH1 0x0 DUP1 REVERT JUMPDEST POP JUMP JUMPDEST PUSH1 0x0 DUP2 CALLDATALOAD SWAP1 POP PUSH2 0x2B4A DUP2 PUSH2 0x2B24 JUMP JUMPDEST SWAP3 SWAP2 POP POP JUMP JUMPDEST PUSH1 0x0 DUP1 PUSH1 0x0 PUSH1 0x60 DUP5 DUP7 SUB SLT ISZERO PUSH2 0x2B69 JUMPI PUSH2 0x2B68 PUSH2 0x288F JUMP JUMPDEST JUMPDEST PUSH1 0x0 PUSH2 0x2B77 DUP7 DUP3 DUP8 ADD PUSH2 0x28B5 JUMP JUMPDEST SWAP4 POP POP PUSH1 0x20 PUSH2 0x2B88 DUP7 DUP3 DUP8 ADD PUSH2 0x28B5 JUMP JUMPDEST SWAP3 POP POP PUSH1 0x40 PUSH2 0x2B99 DUP7 DUP3 DUP8 ADD PUSH2 0x2B3B JUMP JUMPDEST SWAP2 POP POP SWAP3 POP SWAP3 POP SWAP3 JUMP JUMPDEST PUSH1 0x0 PUSH1 0xFF DUP3 AND SWAP1 POP SWAP2 SWAP1 POP JUMP JUMPDEST PUSH2 0x2BB9 DUP2 PUSH2 0x2BA3 JUMP JUMPDEST DUP3 MSTORE POP POP JUMP JUMPDEST PUSH1 0x0 PUSH1 0x20 DUP3 ADD SWAP1 POP PUSH2 0x2BD4 PUSH1 0x0 DUP4 ADD DUP5 PUSH2 0x2BB0 JUMP JUMPDEST SWAP3 SWAP2 POP POP JUMP JUMPDEST PUSH1 0x0 DUP2 MLOAD SWAP1 POP SWAP2 SWAP1 POP JUMP JUMPDEST PUSH1 0x0 DUP3 DUP3 MSTORE PUSH1 0x20 DUP3 ADD SWAP1 POP SWAP3 SWAP2 POP POP JUMP JUMPDEST PUSH1 0x0 DUP2 SWAP1 POP PUSH1 0x20 DUP3 ADD SWAP1 POP SWAP2 SWAP1 POP JUMP JUMPDEST PUSH2 0x2C0F DUP2 PUSH2 0x2894 JUMP JUMPDEST DUP3 MSTORE POP POP JUMP JUMPDEST PUSH1 0x80 DUP3 ADD PUSH1 0x0 DUP3 ADD MLOAD PUSH2 0x2C2B PUSH1 0x0 DUP6 ADD DUP3 PUSH2 0x2C06 JUMP JUMPDEST POP PUSH1 0x20 DUP3 ADD MLOAD PUSH2 0x2C3E PUSH1 0x20 DUP6 ADD DUP3 PUSH2 0x2C06 JUMP JUMPDEST POP PUSH1 0x40 DUP3 ADD MLOAD PUSH2 0x2C51 PUSH1 0x40 DUP6 ADD DUP3 PUSH2 0x2C06 JUMP JUMPDEST POP PUSH1 0x60 DUP3 ADD MLOAD PUSH2 0x2C64 PUSH1 0x60 DUP6 ADD DUP3 PUSH2 0x2C06 JUMP JUMPDEST POP POP POP POP JUMP JUMPDEST PUSH1 0x0 PUSH2 0x2C76 DUP4 DUP4 PUSH2 0x2C15 JUMP JUMPDEST PUSH1 0x80 DUP4 ADD SWAP1 POP SWAP3 SWAP2 POP POP JUMP JUMPDEST PUSH1 0x0 PUSH1 0x20 DUP3 ADD SWAP1 POP SWAP2 SWAP1 POP JUMP JUMPDEST PUSH1 0x0 PUSH2 0x2C9A DUP3 PUSH2 0x2BDA JUMP JUMPDEST PUSH2 0x2CA4 DUP2 DUP6 PUSH2 0x2BE5 JUMP JUMPDEST SWAP4 POP PUSH2 0x2CAF DUP4 PUSH2 0x2BF6 JUMP JUMPDEST DUP1 PUSH1 0x0 JUMPDEST DUP4 DUP2 LT ISZERO PUSH2 0x2CE0 JUMPI DUP2 MLOAD PUSH2 0x2CC7 DUP9 DUP3 PUSH2 0x2C6A JUMP JUMPDEST SWAP8 POP PUSH2 0x2CD2 DUP4 PUSH2 0x2C82 JUMP JUMPDEST SWAP3 POP POP PUSH1 0x1 DUP2 ADD SWAP1 POP PUSH2 0x2CB3 JUMP JUMPDEST POP DUP6 SWAP4 POP POP POP POP SWAP3 SWAP2 POP POP JUMP JUMPDEST PUSH1 0x0 PUSH1 0x20 DUP3 ADD SWAP1 POP DUP2 DUP2 SUB PUSH1 0x0 DUP4 ADD MSTORE PUSH2 0x2D07 DUP2 DUP5 PUSH2 0x2C8F JUMP JUMPDEST SWAP1 POP SWAP3 SWAP2 POP POP JUMP JUMPDEST PUSH1 0x0 PUSH1 0x20 DUP3 DUP5 SUB SLT ISZERO PUSH2 0x2D25 JUMPI PUSH2 0x2D24 PUSH2 0x288F JUMP JUMPDEST JUMPDEST PUSH1 0x0 PUSH2 0x2D33 DUP5 DUP3 DUP6 ADD PUSH2 0x2A1C JUMP JUMPDEST SWAP2 POP POP SWAP3 SWAP2 POP POP JUMP JUMPDEST PUSH1 0x0 DUP1 PUSH1 0x40 DUP4 DUP6 SUB SLT ISZERO PUSH2 0x2D53 JUMPI PUSH2 0x2D52 PUSH2 0x288F JUMP JUMPDEST JUMPDEST PUSH1 0x0 PUSH2 0x2D61 DUP6 DUP3 DUP7 ADD PUSH2 0x2A1C JUMP JUMPDEST SWAP3 POP POP PUSH1 0x20 PUSH2 0x2D72 DUP6 DUP3 DUP7 ADD PUSH2 0x2A1C JUMP JUMPDEST SWAP2 POP POP SWAP3 POP SWAP3 SWAP1 POP JUMP JUMPDEST PUSH2 0x2D85 DUP2 PUSH2 0x29F3 JUMP JUMPDEST DUP3 MSTORE POP POP JUMP JUMPDEST PUSH1 0x80 DUP3 ADD PUSH1 0x0 DUP3 ADD MLOAD PUSH2 0x2DA1 PUSH1 0x0 DUP6 ADD DUP3 PUSH2 0x2D7C JUMP JUMPDEST POP PUSH1 0x20 DUP3 ADD MLOAD PUSH2 0x2DB4 PUSH1 0x20 DUP6 ADD DUP3 PUSH2 0x2D7C JUMP JUMPDEST POP PUSH1 0x40 DUP3 ADD MLOAD PUSH2 0x2DC7 PUSH1 0x40 DUP6 ADD DUP3 PUSH2 0x2C06 JUMP JUMPDEST POP PUSH1 0x60 DUP3 ADD MLOAD PUSH2 0x2DDA PUSH1 0x60 DUP6 ADD DUP3 PUSH2 0x2C06 JUMP JUMPDEST POP POP POP POP JUMP JUMPDEST PUSH1 0x0 PUSH1 0x80 DUP3 ADD SWAP1 POP PUSH2 0x2DF5 PUSH1 0x0 DUP4 ADD DUP5 PUSH2 0x2D8B JUMP JUMPDEST SWAP3 SWAP2 POP POP JUMP JUMPDEST PUSH1 0x0 DUP2 MLOAD SWAP1 POP PUSH2 0x2E0A DUP2 PUSH2 0x289E JUMP JUMPDEST SWAP3 SWAP2 POP POP JUMP JUMPDEST PUSH1 0x0 PUSH1 0x20 DUP3 DUP5 SUB SLT ISZERO PUSH2 0x2E26 JUMPI PUSH2 0x2E25 PUSH2 0x288F JUMP JUMPDEST JUMPDEST PUSH1 0x0 PUSH2 0x2E34 DUP5 DUP3 DUP6 ADD PUSH2 0x2DFB JUMP JUMPDEST SWAP2 POP POP SWAP3 SWAP2 POP POP JUMP JUMPDEST PUSH32 0x4E487B7100000000000000000000000000000000000000000000000000000000 PUSH1 0x0 MSTORE PUSH1 0x11 PUSH1 0x4 MSTORE PUSH1 0x24 PUSH1 0x0 REVERT JUMPDEST PUSH1 0x0 PUSH2 0x2E77 DUP3 PUSH2 0x2894 JUMP JUMPDEST SWAP2 POP PUSH2 0x2E82 DUP4 PUSH2 0x2894 JUMP JUMPDEST SWAP3 POP DUP3 DUP3 ADD SWAP1 POP DUP1 DUP3 GT ISZERO PUSH2 0x2E9A JUMPI PUSH2 0x2E99 PUSH2 0x2E3D JUMP JUMPDEST JUMPDEST SWAP3 SWAP2 POP POP JUMP JUMPDEST PUSH1 0x0 PUSH2 0x2EAB DUP3 PUSH2 0x2894 JUMP JUMPDEST SWAP2 POP PUSH2 0x2EB6 DUP4 PUSH2 0x2894 JUMP JUMPDEST SWAP3 POP DUP3 DUP3 SUB SWAP1 POP DUP2 DUP2 GT ISZERO PUSH2 0x2ECE JUMPI PUSH2 0x2ECD PUSH2 0x2E3D JUMP JUMPDEST JUMPDEST SWAP3 SWAP2 POP POP JUMP JUMPDEST PUSH32 0x4E487B7100000000000000000000000000000000000000000000000000000000 PUSH1 0x0 MSTORE PUSH1 0x22 PUSH1 0x4 MSTORE PUSH1 0x24 PUSH1 0x0 REVERT JUMPDEST PUSH1 0x0 PUSH1 0x2 DUP3 DIV SWAP1 POP PUSH1 0x1 DUP3 AND DUP1 PUSH2 0x2F1B JUMPI PUSH1 0x7F DUP3 AND SWAP2 POP JUMPDEST PUSH1 0x20 DUP3 LT DUP2 SUB PUSH2 0x2F2E JUMPI PUSH2 0x2F2D PUSH2 0x2ED4 JUMP JUMPDEST JUMPDEST POP SWAP2 SWAP1 POP JUMP JUMPDEST PUSH1 0x0 PUSH1 0x40 DUP3 ADD SWAP1 POP PUSH2 0x2F49 PUSH1 0x0 DUP4 ADD DUP6 PUSH2 0x28F7 JUMP JUMPDEST PUSH2 0x2F56 PUSH1 0x20 DUP4 ADD DUP5 PUSH2 0x28F7 JUMP JUMPDEST SWAP4 SWAP3 POP POP POP JUMP JUMPDEST PUSH32 0x4E487B7100000000000000000000000000000000000000000000000000000000 PUSH1 0x0 MSTORE PUSH1 0x41 PUSH1 0x4 MSTORE PUSH1 0x24 PUSH1 0x0 REVERT JUMPDEST PUSH32 0x4E487B7100000000000000000000000000000000000000000000000000000000 PUSH1 0x0 MSTORE PUSH1 0x32 PUSH1 0x4 MSTORE PUSH1 0x24 PUSH1 0x0 REVERT JUMPDEST PUSH1 0x0 PUSH2 0x2FC6 DUP3 PUSH2 0x2894 JUMP JUMPDEST SWAP2 POP PUSH32 0xFFFFFFFFFFFFFFFFFFFFFFFFFFFFFFFFFFFFFFFFFFFFFFFFFFFFFFFFFFFFFFFF DUP3 SUB PUSH2 0x2FF8 JUMPI PUSH2 0x2FF7 PUSH2 0x2E3D JUMP JUMPDEST JUMPDEST PUSH1 0x1 DUP3 ADD SWAP1 POP SWAP2 SWAP1 POP JUMP JUMPDEST PUSH32 0x4F6E6C7920746865206F776E65722063616E206D696E7420746F6B656E730000 PUSH1 0x0 DUP3 ADD MSTORE POP JUMP JUMPDEST PUSH1 0x0 PUSH2 0x3039 PUSH1 0x1E DUP4 PUSH2 0x292C JUMP JUMPDEST SWAP2 POP PUSH2 0x3044 DUP3 PUSH2 0x3003 JUMP JUMPDEST PUSH1 0x20 DUP3 ADD SWAP1 POP SWAP2 SWAP1 POP JUMP JUMPDEST PUSH1 0x0 PUSH1 0x20 DUP3 ADD SWAP1 POP DUP2 DUP2 SUB PUSH1 0x0 DUP4 ADD MSTORE PUSH2 0x3068 DUP2 PUSH2 0x302C JUMP JUMPDEST SWAP1 POP SWAP2 SWAP1 POP JUMP JUMPDEST PUSH1 0x0 PUSH2 0x307A DUP3 PUSH2 0x2894 JUMP JUMPDEST SWAP2 POP PUSH2 0x3085 DUP4 PUSH2 0x2894 JUMP JUMPDEST SWAP3 POP DUP3 DUP3 MUL PUSH2 0x3093 DUP2 PUSH2 0x2894 JUMP JUMPDEST SWAP2 POP DUP3 DUP3 DIV DUP5 EQ DUP4 ISZERO OR PUSH2 0x30AA JUMPI PUSH2 0x30A9 PUSH2 0x2E3D JUMP JUMPDEST JUMPDEST POP SWAP3 SWAP2 POP POP JUMP JUMPDEST PUSH32 0x4F6E6C7920746865206F776E65722063616E206275726E20746F6B656E730000 PUSH1 0x0 DUP3 ADD MSTORE POP JUMP JUMPDEST PUSH1 0x0 PUSH2 0x30E7 PUSH1 0x1E DUP4 PUSH2 0x292C JUMP JUMPDEST SWAP2 POP PUSH2 0x30F2 DUP3 PUSH2 0x30B1 JUMP JUMPDEST PUSH1 0x20 DUP3 ADD SWAP1 POP SWAP2 SWAP1 POP JUMP JUMPDEST PUSH1 0x0 PUSH1 0x20 DUP3 ADD SWAP1 POP DUP2 DUP2 SUB PUSH1 0x0 DUP4 ADD MSTORE PUSH2 0x3116 DUP2 PUSH2 0x30DA JUMP JUMPDEST SWAP1 POP SWAP2 SWAP1 POP JUMP JUMPDEST PUSH32 0x45524332303A2064656372656173656420616C6C6F77616E63652062656C6F77 PUSH1 0x0 DUP3 ADD MSTORE PUSH32 0x207A65726F000000000000000000000000000000000000000000000000000000 PUSH1 0x20 DUP3 ADD MSTORE POP JUMP JUMPDEST PUSH1 0x0 PUSH2 0x3179 PUSH1 0x25 DUP4 PUSH2 0x292C JUMP JUMPDEST SWAP2 POP PUSH2 0x3184 DUP3 PUSH2 0x311D JUMP JUMPDEST PUSH1 0x40 DUP3 ADD SWAP1 POP SWAP2 SWAP1 POP JUMP JUMPDEST PUSH1 0x0 PUSH1 0x20 DUP3 ADD SWAP1 POP DUP2 DUP2 SUB PUSH1 0x0 DUP4 ADD MSTORE PUSH2 0x31A8 DUP2 PUSH2 0x316C JUMP JUMPDEST SWAP1 POP SWAP2 SWAP1 POP JUMP JUMPDEST PUSH32 0x4F776E61626C653A206E6577206F776E657220697320746865207A65726F2061 PUSH1 0x0 DUP3 ADD MSTORE PUSH32 0x6464726573730000000000000000000000000000000000000000000000000000 PUSH1 0x20 DUP3 ADD MSTORE POP JUMP JUMPDEST PUSH1 0x0 PUSH2 0x320B PUSH1 0x26 DUP4 PUSH2 0x292C JUMP JUMPDEST SWAP2 POP PUSH2 0x3216 DUP3 PUSH2 0x31AF JUMP JUMPDEST PUSH1 0x40 DUP3 ADD SWAP1 POP SWAP2 SWAP1 POP JUMP JUMPDEST PUSH1 0x0 PUSH1 0x20 DUP3 ADD SWAP1 POP DUP2 DUP2 SUB PUSH1 0x0 DUP4 ADD MSTORE PUSH2 0x323A DUP2 PUSH2 0x31FE JUMP JUMPDEST SWAP1 POP SWAP2 SWAP1 POP JUMP JUMPDEST PUSH32 0x4E487B7100000000000000000000000000000000000000000000000000000000 PUSH1 0x0 MSTORE PUSH1 0x12 PUSH1 0x4 MSTORE PUSH1 0x24 PUSH1 0x0 REVERT JUMPDEST PUSH1 0x0 PUSH2 0x327B DUP3 PUSH2 0x2894 JUMP JUMPDEST SWAP2 POP PUSH2 0x3286 DUP4 PUSH2 0x2894 JUMP JUMPDEST SWAP3 POP DUP3 PUSH2 0x3296 JUMPI PUSH2 0x3295 PUSH2 0x3241 JUMP JUMPDEST JUMPDEST DUP3 DUP3 DIV SWAP1 POP SWAP3 SWAP2 POP POP JUMP JUMPDEST PUSH32 0x45524332303A20617070726F76652066726F6D20746865207A65726F20616464 PUSH1 0x0 DUP3 ADD MSTORE PUSH32 0x7265737300000000000000000000000000000000000000000000000000000000 PUSH1 0x20 DUP3 ADD MSTORE POP JUMP JUMPDEST PUSH1 0x0 PUSH2 0x32FD PUSH1 0x24 DUP4 PUSH2 0x292C JUMP JUMPDEST SWAP2 POP PUSH2 0x3308 DUP3 PUSH2 0x32A1 JUMP JUMPDEST PUSH1 0x40 DUP3 ADD SWAP1 POP SWAP2 SWAP1 POP JUMP JUMPDEST PUSH1 0x0 PUSH1 0x20 DUP3 ADD SWAP1 POP DUP2 DUP2 SUB PUSH1 0x0 DUP4 ADD MSTORE PUSH2 0x332C DUP2 PUSH2 0x32F0 JUMP JUMPDEST SWAP1 POP SWAP2 SWAP1 POP JUMP JUMPDEST PUSH32 0x45524332303A20617070726F766520746F20746865207A65726F206164647265 PUSH1 0x0 DUP3 ADD MSTORE PUSH32 0x7373000000000000000000000000000000000000000000000000000000000000 PUSH1 0x20 DUP3 ADD MSTORE POP JUMP JUMPDEST PUSH1 0x0 PUSH2 0x338F PUSH1 0x22 DUP4 PUSH2 0x292C JUMP JUMPDEST SWAP2 POP PUSH2 0x339A DUP3 PUSH2 0x3333 JUMP JUMPDEST PUSH1 0x40 DUP3 ADD SWAP1 POP SWAP2 SWAP1 POP JUMP JUMPDEST PUSH1 0x0 PUSH1 0x20 DUP3 ADD SWAP1 POP DUP2 DUP2 SUB PUSH1 0x0 DUP4 ADD MSTORE PUSH2 0x33BE DUP2 PUSH2 0x3382 JUMP JUMPDEST SWAP1 POP SWAP2 SWAP1 POP JUMP JUMPDEST PUSH32 0x45524332303A20696E73756666696369656E7420616C6C6F77616E6365000000 PUSH1 0x0 DUP3 ADD MSTORE POP JUMP JUMPDEST PUSH1 0x0 PUSH2 0x33FB PUSH1 0x1D DUP4 PUSH2 0x292C JUMP JUMPDEST SWAP2 POP PUSH2 0x3406 DUP3 PUSH2 0x33C5 JUMP JUMPDEST PUSH1 0x20 DUP3 ADD SWAP1 POP SWAP2 SWAP1 POP JUMP JUMPDEST PUSH1 0x0 PUSH1 0x20 DUP3 ADD SWAP1 POP DUP2 DUP2 SUB PUSH1 0x0 DUP4 ADD MSTORE PUSH2 0x342A DUP2 PUSH2 0x33EE JUMP JUMPDEST SWAP1 POP SWAP2 SWAP1 POP JUMP JUMPDEST PUSH32 0x45524332303A207472616E736665722066726F6D20746865207A65726F206164 PUSH1 0x0 DUP3 ADD MSTORE PUSH32 0x6472657373000000000000000000000000000000000000000000000000000000 PUSH1 0x20 DUP3 ADD MSTORE POP JUMP JUMPDEST PUSH1 0x0 PUSH2 0x348D PUSH1 0x25 DUP4 PUSH2 0x292C JUMP JUMPDEST SWAP2 POP PUSH2 0x3498 DUP3 PUSH2 0x3431 JUMP JUMPDEST PUSH1 0x40 DUP3 ADD SWAP1 POP SWAP2 SWAP1 POP JUMP JUMPDEST PUSH1 0x0 PUSH1 0x20 DUP3 ADD SWAP1 POP DUP2 DUP2 SUB PUSH1 0x0 DUP4 ADD MSTORE PUSH2 0x34BC DUP2 PUSH2 0x3480 JUMP JUMPDEST SWAP1 POP SWAP2 SWAP1 POP JUMP JUMPDEST PUSH32 0x45524332303A207472616E7366657220746F20746865207A65726F2061646472 PUSH1 0x0 DUP3 ADD MSTORE PUSH32 0x6573730000000000000000000000000000000000000000000000000000000000 PUSH1 0x20 DUP3 ADD MSTORE POP JUMP JUMPDEST PUSH1 0x0 PUSH2 0x351F PUSH1 0x23 DUP4 PUSH2 0x292C JUMP JUMPDEST SWAP2 POP PUSH2 0x352A DUP3 PUSH2 0x34C3 JUMP JUMPDEST PUSH1 0x40 DUP3 ADD SWAP1 POP SWAP2 SWAP1 POP JUMP JUMPDEST PUSH1 0x0 PUSH1 0x20 DUP3 ADD SWAP1 POP DUP2 DUP2 SUB PUSH1 0x0 DUP4 ADD MSTORE PUSH2 0x354E DUP2 PUSH2 0x3512 JUMP JUMPDEST SWAP1 POP SWAP2 SWAP1 POP JUMP JUMPDEST PUSH32 0x45524332303A207472616E7366657220616D6F756E7420657863656564732062 PUSH1 0x0 DUP3 ADD MSTORE PUSH32 0x616C616E63650000000000000000000000000000000000000000000000000000 PUSH1 0x20 DUP3 ADD MSTORE POP JUMP JUMPDEST PUSH1 0x0 PUSH2 0x35B1 PUSH1 0x26 DUP4 PUSH2 0x292C JUMP JUMPDEST SWAP2 POP PUSH2 0x35BC DUP3 PUSH2 0x3555 JUMP JUMPDEST PUSH1 0x40 DUP3 ADD SWAP1 POP SWAP2 SWAP1 POP JUMP JUMPDEST PUSH1 0x0 PUSH1 0x20 DUP3 ADD SWAP1 POP DUP2 DUP2 SUB PUSH1 0x0 DUP4 ADD MSTORE PUSH2 0x35E0 DUP2 PUSH2 0x35A4 JUMP JUMPDEST SWAP1 POP SWAP2 SWAP1 POP JUMP JUMPDEST PUSH32 0x496E73756666696369656E74206F757470757420616D6F756E74000000000000 PUSH1 0x0 DUP3 ADD MSTORE POP JUMP JUMPDEST PUSH1 0x0 PUSH2 0x361D PUSH1 0x1A DUP4 PUSH2 0x292C JUMP JUMPDEST SWAP2 POP PUSH2 0x3628 DUP3 PUSH2 0x35E7 JUMP JUMPDEST PUSH1 0x20 DUP3 ADD SWAP1 POP SWAP2 SWAP1 POP JUMP JUMPDEST PUSH1 0x0 PUSH1 0x20 DUP3 ADD SWAP1 POP DUP2 DUP2 SUB PUSH1 0x0 DUP4 ADD MSTORE PUSH2 0x364C DUP2 PUSH2 0x3610 JUMP JUMPDEST SWAP1 POP SWAP2 SWAP1 POP JUMP JUMPDEST PUSH1 0x0 PUSH1 0x60 DUP3 ADD SWAP1 POP PUSH2 0x3668 PUSH1 0x0 DUP4 ADD DUP7 PUSH2 0x2AA7 JUMP JUMPDEST PUSH2 0x3675 PUSH1 0x20 DUP4 ADD DUP6 PUSH2 0x2AA7 JUMP JUMPDEST PUSH2 0x3682 PUSH1 0x40 DUP4 ADD DUP5 PUSH2 0x28F7 JUMP JUMPDEST SWAP5 SWAP4 POP POP POP POP JUMP JUMPDEST PUSH1 0x0 DUP2 MLOAD SWAP1 POP PUSH2 0x3699 DUP2 PUSH2 0x2B24 JUMP JUMPDEST SWAP3 SWAP2 POP POP JUMP JUMPDEST PUSH1 0x0 PUSH1 0x20 DUP3 DUP5 SUB SLT ISZERO PUSH2 0x36B5 JUMPI PUSH2 0x36B4 PUSH2 0x288F JUMP JUMPDEST JUMPDEST PUSH1 0x0 PUSH2 0x36C3 DUP5 DUP3 DUP6 ADD PUSH2 0x368A JUMP JUMPDEST SWAP2 POP POP SWAP3 SWAP2 POP POP JUMP JUMPDEST PUSH1 0x0 PUSH1 0x40 DUP3 ADD SWAP1 POP PUSH2 0x36E1 PUSH1 0x0 DUP4 ADD DUP6 PUSH2 0x2AA7 JUMP JUMPDEST PUSH2 0x36EE PUSH1 0x20 DUP4 ADD DUP5 PUSH2 0x28F7 JUMP JUMPDEST SWAP4 SWAP3 POP POP POP JUMP JUMPDEST PUSH1 0x0 DUP2 SWAP1 POP SWAP2 SWAP1 POP JUMP JUMPDEST PUSH1 0x0 DUP2 SWAP1 POP SWAP2 SWAP1 POP JUMP JUMPDEST PUSH1 0x0 PUSH2 0x3724 PUSH2 0x371F PUSH2 0x371A DUP5 PUSH2 0x36F5 JUMP JUMPDEST PUSH2 0x36FF JUMP JUMPDEST PUSH2 0x2894 JUMP JUMPDEST SWAP1 POP SWAP2 SWAP1 POP JUMP JUMPDEST PUSH2 0x3734 DUP2 PUSH2 0x3709 JUMP JUMPDEST DUP3 MSTORE POP POP JUMP JUMPDEST PUSH1 0x0 PUSH1 0x80 DUP3 ADD SWAP1 POP PUSH2 0x374F PUSH1 0x0 DUP4 ADD DUP8 PUSH2 0x372B JUMP JUMPDEST PUSH2 0x375C PUSH1 0x20 DUP4 ADD DUP7 PUSH2 0x28F7 JUMP JUMPDEST PUSH2 0x3769 PUSH1 0x40 DUP4 ADD DUP6 PUSH2 0x28F7 JUMP JUMPDEST PUSH2 0x3776 PUSH1 0x60 DUP4 ADD DUP5 PUSH2 0x372B JUMP JUMPDEST SWAP6 SWAP5 POP POP POP POP POP JUMP JUMPDEST PUSH1 0x0 PUSH1 0x80 DUP3 ADD SWAP1 POP PUSH2 0x3794 PUSH1 0x0 DUP4 ADD DUP8 PUSH2 0x28F7 JUMP JUMPDEST PUSH2 0x37A1 PUSH1 0x20 DUP4 ADD DUP7 PUSH2 0x372B JUMP JUMPDEST PUSH2 0x37AE PUSH1 0x40 DUP4 ADD DUP6 PUSH2 0x372B JUMP JUMPDEST PUSH2 0x37BB PUSH1 0x60 DUP4 ADD DUP5 PUSH2 0x28F7 JUMP JUMPDEST SWAP6 SWAP5 POP POP POP POP POP JUMP JUMPDEST PUSH32 0x45524332303A206D696E7420746F20746865207A65726F206164647265737300 PUSH1 0x0 DUP3 ADD MSTORE POP JUMP JUMPDEST PUSH1 0x0 PUSH2 0x37FA PUSH1 0x1F DUP4 PUSH2 0x292C JUMP JUMPDEST SWAP2 POP PUSH2 0x3805 DUP3 PUSH2 0x37C4 JUMP JUMPDEST PUSH1 0x20 DUP3 ADD SWAP1 POP SWAP2 SWAP1 POP JUMP JUMPDEST PUSH1 0x0 PUSH1 0x20 DUP3 ADD SWAP1 POP DUP2 DUP2 SUB PUSH1 0x0 DUP4 ADD MSTORE PUSH2 0x3829 DUP2 PUSH2 0x37ED JUMP JUMPDEST SWAP1 POP SWAP2 SWAP1 POP JUMP JUMPDEST PUSH32 0x4F776E61626C653A2063616C6C6572206973206E6F7420746865206F776E6572 PUSH1 0x0 DUP3 ADD MSTORE POP JUMP JUMPDEST PUSH1 0x0 PUSH2 0x3866 PUSH1 0x20 DUP4 PUSH2 0x292C JUMP JUMPDEST SWAP2 POP PUSH2 0x3871 DUP3 PUSH2 0x3830 JUMP JUMPDEST PUSH1 0x20 DUP3 ADD SWAP1 POP SWAP2 SWAP1 POP JUMP JUMPDEST PUSH1 0x0 PUSH1 0x20 DUP3 ADD SWAP1 POP DUP2 DUP2 SUB PUSH1 0x0 DUP4 ADD MSTORE PUSH2 0x3895 DUP2 PUSH2 0x3859 JUMP JUMPDEST SWAP1 POP SWAP2 SWAP1 POP JUMP JUMPDEST PUSH32 0x45524332303A206275726E2066726F6D20746865207A65726F20616464726573 PUSH1 0x0 DUP3 ADD MSTORE PUSH32 0x7300000000000000000000000000000000000000000000000000000000000000 PUSH1 0x20 DUP3 ADD MSTORE POP JUMP JUMPDEST PUSH1 0x0 PUSH2 0x38F8 PUSH1 0x21 DUP4 PUSH2 0x292C JUMP JUMPDEST SWAP2 POP PUSH2 0x3903 DUP3 PUSH2 0x389C JUMP JUMPDEST PUSH1 0x40 DUP3 ADD SWAP1 POP SWAP2 SWAP1 POP JUMP JUMPDEST PUSH1 0x0 PUSH1 0x20 DUP3 ADD SWAP1 POP DUP2 DUP2 SUB PUSH1 0x0 DUP4 ADD MSTORE PUSH2 0x3927 DUP2 PUSH2 0x38EB JUMP JUMPDEST SWAP1 POP SWAP2 SWAP1 POP JUMP JUMPDEST PUSH32 0x45524332303A206275726E20616D6F756E7420657863656564732062616C616E PUSH1 0x0 DUP3 ADD MSTORE PUSH32 0x6365000000000000000000000000000000000000000000000000000000000000 PUSH1 0x20 DUP3 ADD MSTORE POP JUMP JUMPDEST PUSH1 0x0 PUSH2 0x398A PUSH1 0x22 DUP4 PUSH2 0x292C JUMP JUMPDEST SWAP2 POP PUSH2 0x3995 DUP3 PUSH2 0x392E JUMP JUMPDEST PUSH1 0x40 DUP3 ADD SWAP1 POP SWAP2 SWAP1 POP JUMP JUMPDEST PUSH1 0x0 PUSH1 0x20 DUP3 ADD SWAP1 POP DUP2 DUP2 SUB PUSH1 0x0 DUP4 ADD MSTORE PUSH2 0x39B9 DUP2 PUSH2 0x397D JUMP JUMPDEST SWAP1 POP SWAP2 SWAP1 POP JUMP INVALID LOG2 PUSH5 0x6970667358 0x22 SLT KECCAK256 PUSH18 0x244B5E4745FADB4381A5C42D4159BB683015 LOG2 DUP5 0xCC PUSH4 0xDD73A670 NOT 0xF6 0xC6 DUP7 0xE6 PUSH5 0x736F6C6343 STOP ADDMOD SLT STOP CALLER "
		},
		"gasEstimates": {
			"creation": {
				"codeDepositCost": "2967600",
				"executionCost": "infinite",
				"totalCost": "infinite"
			},
			"external": {
				"allowance(address,address)": "infinite",
				"approve(address,uint256)": "infinite",
				"balanceOf(address)": "2887",
				"burn(address,uint256)": "infinite",
				"decimals()": "411",
				"decreaseAllowance(address,uint256)": "infinite",
				"factory()": "2625",
				"factoryOwner()": "2603",
				"getProps()": "infinite",
				"getTicks()": "infinite",
				"increaseAllowance(address,uint256)": "infinite",
				"kConstant()": "2562",
				"maxTicks()": "2541",
				"mint(address,uint256)": "infinite",
				"name()": "infinite",
				"owner()": "2567",
				"protocolFee()": "2518",
				"renounceOwnership()": "30466",
				"swap(uint256,uint256,bool)": "infinite",
				"symbol()": "infinite",
				"testKConstant()": "infinite",
				"token0()": "2627",
				"token0BasePrice()": "2539",
				"token0Constant()": "2496",
				"token0DepositAmount()": "2519",
				"token0MaxPrice()": "2519",
				"token0Output(uint256)": "infinite",
				"token1()": "2558",
				"token1Constant()": "2519",
				"token1DepositAmount()": "2475",
				"token1Output(uint256)": "infinite",
				"totalSupply()": "2505",
				"transfer(address,uint256)": "infinite",
				"transferFrom(address,address,uint256)": "infinite",
				"transferOwnership(address)": "30876"
			},
			"internal": {
				"_buy(uint256,uint256)": "infinite",
				"_sell(uint256,uint256)": "infinite",
				"calcToken0Constant(uint256,uint256,uint256)": "infinite",
				"calcToken1Constant(address,uint256,uint256,uint256,uint256)": "infinite"
			}
		},
		"methodIdentifiers": {
			"allowance(address,address)": "dd62ed3e",
			"approve(address,uint256)": "095ea7b3",
			"balanceOf(address)": "70a08231",
			"burn(address,uint256)": "9dc29fac",
			"decimals()": "313ce567",
			"decreaseAllowance(address,uint256)": "a457c2d7",
			"factory()": "c45a0155",
			"factoryOwner()": "4273601c",
			"getProps()": "ec1893b4",
			"getTicks()": "3d1c387b",
			"increaseAllowance(address,uint256)": "39509351",
			"kConstant()": "5a656c24",
			"maxTicks()": "870e415e",
			"mint(address,uint256)": "40c10f19",
			"name()": "06fdde03",
			"owner()": "8da5cb5b",
			"protocolFee()": "b0e21e8a",
			"renounceOwnership()": "715018a6",
			"swap(uint256,uint256,bool)": "2bec60fe",
			"symbol()": "95d89b41",
			"testKConstant()": "433065d0",
			"token0()": "0dfe1681",
			"token0BasePrice()": "ef3501b9",
			"token0Constant()": "aff56c14",
			"token0DepositAmount()": "7c07a380",
			"token0MaxPrice()": "364abc3d",
			"token0Output(uint256)": "04786ab4",
			"token1()": "d21220a7",
			"token1Constant()": "1cf2128c",
			"token1DepositAmount()": "13724b70",
			"token1Output(uint256)": "9f8e55d6",
			"totalSupply()": "18160ddd",
			"transfer(address,uint256)": "a9059cbb",
			"transferFrom(address,address,uint256)": "23b872dd",
			"transferOwnership(address)": "f2fde38b"
		}
	},
	"abi": [
		{
			"inputs": [
				{
					"internalType": "address",
					"name": "_factory",
					"type": "address"
				},
				{
					"internalType": "address",
					"name": "_factoryOwner",
					"type": "address"
				},
				{
					"internalType": "address",
					"name": "_token0",
					"type": "address"
				},
				{
					"internalType": "address",
					"name": "_token1",
					"type": "address"
				},
				{
					"internalType": "uint256",
					"name": "_token0DepositAmount",
					"type": "uint256"
				},
				{
					"internalType": "uint256",
					"name": "_token1DepositAmount",
					"type": "uint256"
				},
				{
					"internalType": "uint256",
					"name": "_token0BasePrice",
					"type": "uint256"
				},
				{
					"internalType": "uint256",
					"name": "_token0MaxPrice",
					"type": "uint256"
				},
				{
					"internalType": "uint256",
					"name": "_protocolFee",
					"type": "uint256"
				}
			],
			"stateMutability": "nonpayable",
			"type": "constructor"
		},
		{
			"anonymous": false,
			"inputs": [
				{
					"indexed": true,
					"internalType": "address",
					"name": "owner",
					"type": "address"
				},
				{
					"indexed": true,
					"internalType": "address",
					"name": "spender",
					"type": "address"
				},
				{
					"indexed": false,
					"internalType": "uint256",
					"name": "value",
					"type": "uint256"
				}
			],
			"name": "Approval",
			"type": "event"
		},
		{
			"anonymous": false,
			"inputs": [
				{
					"indexed": true,
					"internalType": "address",
					"name": "previousOwner",
					"type": "address"
				},
				{
					"indexed": true,
					"internalType": "address",
					"name": "newOwner",
					"type": "address"
				}
			],
			"name": "OwnershipTransferred",
			"type": "event"
		},
		{
			"anonymous": false,
			"inputs": [
				{
					"indexed": true,
					"internalType": "address",
					"name": "sender",
					"type": "address"
				},
				{
					"indexed": false,
					"internalType": "uint256",
					"name": "amount0In",
					"type": "uint256"
				},
				{
					"indexed": false,
					"internalType": "uint256",
					"name": "amount1In",
					"type": "uint256"
				},
				{
					"indexed": false,
					"internalType": "uint256",
					"name": "amount0Out",
					"type": "uint256"
				},
				{
					"indexed": false,
					"internalType": "uint256",
					"name": "amount1Out",
					"type": "uint256"
				},
				{
					"indexed": true,
					"internalType": "address",
					"name": "to",
					"type": "address"
				}
			],
			"name": "Swap",
			"type": "event"
		},
		{
			"anonymous": false,
			"inputs": [
				{
					"indexed": false,
					"internalType": "uint256",
					"name": "reserve0",
					"type": "uint256"
				},
				{
					"indexed": false,
					"internalType": "uint256",
					"name": "reserve1",
					"type": "uint256"
				}
			],
			"name": "Sync",
			"type": "event"
		},
		{
			"anonymous": false,
			"inputs": [
				{
					"indexed": true,
					"internalType": "address",
					"name": "from",
					"type": "address"
				},
				{
					"indexed": true,
					"internalType": "address",
					"name": "to",
					"type": "address"
				},
				{
					"indexed": false,
					"internalType": "uint256",
					"name": "value",
					"type": "uint256"
				}
			],
			"name": "Transfer",
			"type": "event"
		},
		{
			"inputs": [
				{
					"internalType": "address",
					"name": "owner",
					"type": "address"
				},
				{
					"internalType": "address",
					"name": "spender",
					"type": "address"
				}
			],
			"name": "allowance",
			"outputs": [
				{
					"internalType": "uint256",
					"name": "",
					"type": "uint256"
				}
			],
			"stateMutability": "view",
			"type": "function"
		},
		{
			"inputs": [
				{
					"internalType": "address",
					"name": "spender",
					"type": "address"
				},
				{
					"internalType": "uint256",
					"name": "amount",
					"type": "uint256"
				}
			],
			"name": "approve",
			"outputs": [
				{
					"internalType": "bool",
					"name": "",
					"type": "bool"
				}
			],
			"stateMutability": "nonpayable",
			"type": "function"
		},
		{
			"inputs": [
				{
					"internalType": "address",
					"name": "account",
					"type": "address"
				}
			],
			"name": "balanceOf",
			"outputs": [
				{
					"internalType": "uint256",
					"name": "",
					"type": "uint256"
				}
			],
			"stateMutability": "view",
			"type": "function"
		},
		{
			"inputs": [
				{
					"internalType": "address",
					"name": "account",
					"type": "address"
				},
				{
					"internalType": "uint256",
					"name": "amount",
					"type": "uint256"
				}
			],
			"name": "burn",
			"outputs": [],
			"stateMutability": "nonpayable",
			"type": "function"
		},
		{
			"inputs": [],
			"name": "decimals",
			"outputs": [
				{
					"internalType": "uint8",
					"name": "",
					"type": "uint8"
				}
			],
			"stateMutability": "view",
			"type": "function"
		},
		{
			"inputs": [
				{
					"internalType": "address",
					"name": "spender",
					"type": "address"
				},
				{
					"internalType": "uint256",
					"name": "subtractedValue",
					"type": "uint256"
				}
			],
			"name": "decreaseAllowance",
			"outputs": [
				{
					"internalType": "bool",
					"name": "",
					"type": "bool"
				}
			],
			"stateMutability": "nonpayable",
			"type": "function"
		},
		{
			"inputs": [],
			"name": "factory",
			"outputs": [
				{
					"internalType": "address",
					"name": "",
					"type": "address"
				}
			],
			"stateMutability": "view",
			"type": "function"
		},
		{
			"inputs": [],
			"name": "factoryOwner",
			"outputs": [
				{
					"internalType": "address",
					"name": "",
					"type": "address"
				}
			],
			"stateMutability": "view",
			"type": "function"
		},
		{
			"inputs": [],
			"name": "getProps",
			"outputs": [
				{
					"components": [
						{
							"internalType": "address",
							"name": "token0",
							"type": "address"
						},
						{
							"internalType": "address",
							"name": "token1",
							"type": "address"
						},
						{
							"internalType": "uint256",
							"name": "token0Locked",
							"type": "uint256"
						},
						{
							"internalType": "uint256",
							"name": "token1Locked",
							"type": "uint256"
						}
					],
					"internalType": "struct LiquidityPool.Props",
					"name": "",
					"type": "tuple"
				}
			],
			"stateMutability": "view",
			"type": "function"
		},
		{
			"inputs": [],
			"name": "getTicks",
			"outputs": [
				{
					"components": [
						{
							"internalType": "uint256",
							"name": "token0",
							"type": "uint256"
						},
						{
							"internalType": "uint256",
							"name": "token1",
							"type": "uint256"
						},
						{
							"internalType": "uint256",
							"name": "token0Price",
							"type": "uint256"
						},
						{
							"internalType": "uint256",
							"name": "timestamp",
							"type": "uint256"
						}
					],
					"internalType": "struct LPTick.Tick[]",
					"name": "",
					"type": "tuple[]"
				}
			],
			"stateMutability": "view",
			"type": "function"
		},
		{
			"inputs": [
				{
					"internalType": "address",
					"name": "spender",
					"type": "address"
				},
				{
					"internalType": "uint256",
					"name": "addedValue",
					"type": "uint256"
				}
			],
			"name": "increaseAllowance",
			"outputs": [
				{
					"internalType": "bool",
					"name": "",
					"type": "bool"
				}
			],
			"stateMutability": "nonpayable",
			"type": "function"
		},
		{
			"inputs": [],
			"name": "kConstant",
			"outputs": [
				{
					"internalType": "uint256",
					"name": "",
					"type": "uint256"
				}
			],
			"stateMutability": "view",
			"type": "function"
		},
		{
			"inputs": [],
			"name": "maxTicks",
			"outputs": [
				{
					"internalType": "uint256",
					"name": "",
					"type": "uint256"
				}
			],
			"stateMutability": "view",
			"type": "function"
		},
		{
			"inputs": [
				{
					"internalType": "address",
					"name": "account",
					"type": "address"
				},
				{
					"internalType": "uint256",
					"name": "amount",
					"type": "uint256"
				}
			],
			"name": "mint",
			"outputs": [],
			"stateMutability": "nonpayable",
			"type": "function"
		},
		{
			"inputs": [],
			"name": "name",
			"outputs": [
				{
					"internalType": "string",
					"name": "",
					"type": "string"
				}
			],
			"stateMutability": "view",
			"type": "function"
		},
		{
			"inputs": [],
			"name": "owner",
			"outputs": [
				{
					"internalType": "address",
					"name": "",
					"type": "address"
				}
			],
			"stateMutability": "view",
			"type": "function"
		},
		{
			"inputs": [],
			"name": "protocolFee",
			"outputs": [
				{
					"internalType": "uint256",
					"name": "",
					"type": "uint256"
				}
			],
			"stateMutability": "view",
			"type": "function"
		},
		{
			"inputs": [],
			"name": "renounceOwnership",
			"outputs": [],
			"stateMutability": "nonpayable",
			"type": "function"
		},
		{
			"inputs": [
				{
					"internalType": "uint256",
					"name": "_amountTokenIn",
					"type": "uint256"
				},
				{
					"internalType": "uint256",
					"name": "_minAmountTokenOut",
					"type": "uint256"
				},
				{
					"internalType": "bool",
					"name": "_isBuy",
					"type": "bool"
				}
			],
			"name": "swap",
			"outputs": [],
			"stateMutability": "nonpayable",
			"type": "function"
		},
		{
			"inputs": [],
			"name": "symbol",
			"outputs": [
				{
					"internalType": "string",
					"name": "",
					"type": "string"
				}
			],
			"stateMutability": "view",
			"type": "function"
		},
		{
			"inputs": [],
			"name": "testKConstant",
			"outputs": [
				{
					"internalType": "uint256",
					"name": "",
					"type": "uint256"
				}
			],
			"stateMutability": "view",
			"type": "function"
		},
		{
			"inputs": [],
			"name": "token0",
			"outputs": [
				{
					"internalType": "address",
					"name": "",
					"type": "address"
				}
			],
			"stateMutability": "view",
			"type": "function"
		},
		{
			"inputs": [],
			"name": "token0BasePrice",
			"outputs": [
				{
					"internalType": "uint256",
					"name": "",
					"type": "uint256"
				}
			],
			"stateMutability": "view",
			"type": "function"
		},
		{
			"inputs": [],
			"name": "token0Constant",
			"outputs": [
				{
					"internalType": "uint256",
					"name": "",
					"type": "uint256"
				}
			],
			"stateMutability": "view",
			"type": "function"
		},
		{
			"inputs": [],
			"name": "token0DepositAmount",
			"outputs": [
				{
					"internalType": "uint256",
					"name": "",
					"type": "uint256"
				}
			],
			"stateMutability": "view",
			"type": "function"
		},
		{
			"inputs": [],
			"name": "token0MaxPrice",
			"outputs": [
				{
					"internalType": "uint256",
					"name": "",
					"type": "uint256"
				}
			],
			"stateMutability": "view",
			"type": "function"
		},
		{
			"inputs": [
				{
					"internalType": "uint256",
					"name": "_token1Input",
					"type": "uint256"
				}
			],
			"name": "token0Output",
			"outputs": [
				{
					"internalType": "uint256",
					"name": "",
					"type": "uint256"
				}
			],
			"stateMutability": "view",
			"type": "function"
		},
		{
			"inputs": [],
			"name": "token1",
			"outputs": [
				{
					"internalType": "address",
					"name": "",
					"type": "address"
				}
			],
			"stateMutability": "view",
			"type": "function"
		},
		{
			"inputs": [],
			"name": "token1Constant",
			"outputs": [
				{
					"internalType": "uint256",
					"name": "",
					"type": "uint256"
				}
			],
			"stateMutability": "view",
			"type": "function"
		},
		{
			"inputs": [],
			"name": "token1DepositAmount",
			"outputs": [
				{
					"internalType": "uint256",
					"name": "",
					"type": "uint256"
				}
			],
			"stateMutability": "view",
			"type": "function"
		},
		{
			"inputs": [
				{
					"internalType": "uint256",
					"name": "_token0Input",
					"type": "uint256"
				}
			],
			"name": "token1Output",
			"outputs": [
				{
					"internalType": "uint256",
					"name": "",
					"type": "uint256"
				}
			],
			"stateMutability": "view",
			"type": "function"
		},
		{
			"inputs": [],
			"name": "totalSupply",
			"outputs": [
				{
					"internalType": "uint256",
					"name": "",
					"type": "uint256"
				}
			],
			"stateMutability": "view",
			"type": "function"
		},
		{
			"inputs": [
				{
					"internalType": "address",
					"name": "to",
					"type": "address"
				},
				{
					"internalType": "uint256",
					"name": "amount",
					"type": "uint256"
				}
			],
			"name": "transfer",
			"outputs": [
				{
					"internalType": "bool",
					"name": "",
					"type": "bool"
				}
			],
			"stateMutability": "nonpayable",
			"type": "function"
		},
		{
			"inputs": [
				{
					"internalType": "address",
					"name": "from",
					"type": "address"
				},
				{
					"internalType": "address",
					"name": "to",
					"type": "address"
				},
				{
					"internalType": "uint256",
					"name": "amount",
					"type": "uint256"
				}
			],
			"name": "transferFrom",
			"outputs": [
				{
					"internalType": "bool",
					"name": "",
					"type": "bool"
				}
			],
			"stateMutability": "nonpayable",
			"type": "function"
		},
		{
			"inputs": [
				{
					"internalType": "address",
					"name": "newOwner",
					"type": "address"
				}
			],
			"name": "transferOwnership",
			"outputs": [],
			"stateMutability": "nonpayable",
			"type": "function"
		}
	]
}