{
	"data": {
		"bytecode": {
			"linkReferences": {},
			"object": "608060405234801562000010575f80fd5b5060405162002e0938038062002e09833981016040819052620000339162000714565b6040805180820182526008808252672628102a37b5b2b760c11b602080840191909152835180850190945260028085526104c560f41b918501919091525f600181905590819055600a60038190556007829055918190556009819055808255600b819055600c55600d55309181816011620000af83826200083c565b506012620000be82826200083c565b5050601380546001600160a01b0319166001600160a01b03959095169490941790935550620000f89150620000f290503390565b620003a9565b601580546001600160a01b03808c166001600160a01b031992831617909255601680548b84169216919091179055868116908816036200017f5760405162461bcd60e51b815260206004820152601e60248201527f426f746820746f6b656e732063616e6e6f74206265207468652073616d65000060448201526064015b60405180910390fd5b601780546001600160a01b03808a166001600160a01b03199283161790925560188054928916929091169190911790556019859055601a84905582821015620002315760405162461bcd60e51b815260206004820152603d60248201527f4d6178696d756d207072696365206d757374206265206772656174657220746860448201527f616e206f7220657175616c20746f207468652062617365207072696365000000606482015260840162000176565b601e839055601f82905560208190556200024d838387620003fa565b601b819055620002639088908590888862000465565b601c819055601a5462000277919062000918565b601b5460195462000289919062000918565b6200029591906200092e565b601d5560408051608081018252601954808252601a546020808401828152601e5485870190815242606087019081525f808052845295517fad3228b676f7d3cd4284a5443f17f1962b36e491b30a40b2405849e597ba5fb55590517fad3228b676f7d3cd4284a5443f17f1962b36e491b30a40b2405849e597ba5fb655517fad3228b676f7d3cd4284a5443f17f1962b36e491b30a40b2405849e597ba5fb75592517fad3228b676f7d3cd4284a5443f17f1962b36e491b30a40b2405849e597ba5fb8558351918252918101919091527fcf2aa50876cdfbb541206f89af0ee78d44a2abf8d328e37fa4917f982149848a910160405180910390a15050606460215550505f6023555062000abd9350505050565b601480546001600160a01b038381166001600160a01b0319831681179093556040519116919082907f8be0079c531659141344cd1fd0a4f28419497f9722a3daafe3b4186f6b6457e0905f90a35050565b5f806200041b6200041486670de0b6b3a76400006200092e565b8562000528565b90505f62000429826200053e565b90505f6200043885836200092e565b90505f6200044b83633b9aca0062000948565b905062000459828262000528565b98975050505050505050565b5f80866001600160a01b031663313ce5676040518163ffffffff1660e01b8152600401602060405180830381865afa158015620004a4573d5f803e3d5ffd5b505050506040513d601f19601f82011682018060405250810190620004ca91906200095e565b90505f620004da82600a62000a79565b90505f620004e985836200092e565b620004f5888862000918565b62000501908a6200092e565b6200050d919062000948565b90506200051b818362000528565b9998505050505050505050565b5f62000535828462000a9d565b90505b92915050565b5f815f036200054e57505f919050565b5f60016200055c8462000646565b901c6001901b9050600181848162000578576200057862000a89565b048201901c9050600181848162000593576200059362000a89565b048201901c90506001818481620005ae57620005ae62000a89565b048201901c90506001818481620005c957620005c962000a89565b048201901c90506001818481620005e457620005e462000a89565b048201901c90506001818481620005ff57620005ff62000a89565b048201901c905060018184816200061a576200061a62000a89565b048201901c90506200063f8182858162000638576200063862000a89565b04620006e1565b9392505050565b5f80608083901c156200065b57608092831c92015b604083901c156200066e57604092831c92015b602083901c156200068157602092831c92015b601083901c156200069457601092831c92015b600883901c15620006a757600892831c92015b600483901c15620006ba57600492831c92015b600283901c15620006cd57600292831c92015b600183901c15620005385760010192915050565b5f818310620006f1578162000535565b5090919050565b80516001600160a01b03811681146200070f575f80fd5b919050565b5f805f805f805f805f6101208a8c0312156200072e575f80fd5b620007398a620006f8565b98506200074960208b01620006f8565b97506200075960408b01620006f8565b96506200076960608b01620006f8565b955060808a0151945060a08a0151935060c08a0151925060e08a015191506101008a015190509295985092959850929598565b634e487b7160e01b5f52604160045260245ffd5b600181811c90821680620007c557607f821691505b602082108103620007e457634e487b7160e01b5f52602260045260245ffd5b50919050565b601f82111562000837575f81815260208120601f850160051c81016020861015620008125750805b601f850160051c820191505b8181101562000833578281556001016200081e565b5050505b505050565b81516001600160401b038111156200085857620008586200079c565b6200087081620008698454620007b0565b84620007ea565b602080601f831160018114620008a6575f84156200088e5750858301515b5f19600386901b1c1916600185901b17855562000833565b5f85815260208120601f198616915b82811015620008d657888601518255948401946001909101908401620008b5565b5085821015620008f457878501515f19600388901b60f8161c191681555b5050505050600190811b01905550565b634e487b7160e01b5f52601160045260245ffd5b8082018082111562000538576200053862000904565b808202811582820484141762000538576200053862000904565b8181038181111562000538576200053862000904565b5f602082840312156200096f575f80fd5b815160ff811681146200063f575f80fd5b600181815b80851115620009c057815f1904821115620009a457620009a462000904565b80851615620009b257918102915b93841c939080029062000985565b509250929050565b5f82620009d85750600162000538565b81620009e657505f62000538565b8160018114620009ff576002811462000a0a5762000a2a565b600191505062000538565b60ff84111562000a1e5762000a1e62000904565b50506001821b62000538565b5060208310610133831016604e8410600b841016171562000a4f575081810a62000538565b62000a5b838362000980565b805f190482111562000a715762000a7162000904565b029392505050565b5f6200053560ff841683620009c8565b634e487b7160e01b5f52601260045260245ffd5b5f8262000ab857634e487b7160e01b5f52601260045260245ffd5b500490565b61233e8062000acb5f395ff3fe608060405234801561000f575f80fd5b506004361061024a575f3560e01c806379ee54f711610140578063aff56c14116100bf578063ccbaf73611610084578063ccbaf736146104ce578063d21220a714610500578063dd62ed3e14610513578063ec1893b414610526578063ef3501b91461056f578063f2fde38b14610578575f80fd5b8063aff56c141461048d578063b0e21e8a14610496578063b6b55f251461049f578063c392f766146104b2578063c45a0155146104bb575f80fd5b806394f649dd1161010557806394f649dd1461042c57806395d89b411461044c5780639f8e55d614610454578063a457c2d714610467578063a9059cbb1461047a575f80fd5b806379ee54f7146103e05780637b0a3a8d146104005780637c07a38014610409578063870e415e146104125780638da5cb5b1461041b575f80fd5b8063364abc3d116101cc578063433065d011610191578063433065d01461038c578063441a3e70146103945780635a656c24146103a757806370a08231146103b0578063715018a6146103d8575f80fd5b8063364abc3d1461032857806339509351146103315780633a2b643a146103445780633d1c387b146103645780634273601c14610379575f80fd5b806318160ddd1161021257806318160ddd146102e05780631cf2128c146102e857806323b872dd146102f15780632bec60fe14610304578063313ce56714610319575f80fd5b806304786ab41461024e57806306fdde0314610274578063095ea7b3146102895780630dfe1681146102ac57806313724b70146102d7575b5f80fd5b61026161025c366004611e73565b61058b565b6040519081526020015b60405180910390f35b61027c6105ec565b60405161026b9190611e8a565b61029c610297366004611ef0565b61067c565b604051901515815260200161026b565b6017546102bf906001600160a01b031681565b6040516001600160a01b03909116815260200161026b565b610261601a5481565b601054610261565b610261601c5481565b61029c6102ff366004611f18565b610695565b610317610312366004611f5e565b6106ec565b005b6040516012815260200161026b565b610261601f5481565b61029c61033f366004611ef0565b61077c565b610357610352366004611f94565b61079d565b60405161026b9190611fad565b61036c6108af565b60405161026b9190612003565b6016546102bf906001600160a01b031681565b6102616109d8565b6103176103a2366004612059565b610a1b565b610261601d5481565b6102616103be366004611f94565b6001600160a01b03165f908152600e602052604090205490565b610317610ad5565b6103f36103ee366004611f94565b610ae8565b60405161026b9190612079565b610261600d5481565b61026160195481565b61026160035481565b6014546001600160a01b03166102bf565b61043f61043a366004611f94565b610bf3565b60405161026b91906120c2565b61027c610cfe565b610261610462366004611e73565b610d0d565b61029c610475366004611ef0565b610d5f565b61029c610488366004611ef0565b610dd9565b610261601b5481565b61026160205481565b6103176104ad366004611e73565b610e11565b61026160215481565b6015546102bf906001600160a01b031681565b6104e16104dc366004611e73565b611017565b604080516001600160a01b03909316835260208301919091520161026b565b6018546102bf906001600160a01b031681565b61026161052136600461210b565b61104d565b61052e611077565b60405161026b919081516001600160a01b03908116825260208084015190911690820152604080830151908201526060918201519181019190915260800190565b610261601e5481565b610317610586366004611f94565b6110de565b5f80610595611157565b90505f6105a06111c7565b90505f6105ad8583612150565b90505f601b546105cc601d54601c54856105c79190612150565b61124a565b6105d69190612163565b90506105e28185612163565b9695505050505050565b6060601180546105fb90612176565b80601f016020809104026020016040519081016040528092919081815260200182805461062790612176565b80156106725780601f1061064957610100808354040283529160200191610672565b820191905f5260205f20905b81548152906001019060200180831161065557829003601f168201915b5050505050905090565b5f3361068981858561125c565b60019150505b92915050565b6013545f906001600160a01b031633146106ca5760405162461bcd60e51b81526004016106c1906121a8565b60405180910390fd5b336106d685828561137f565b6106e18585856113f7565b506001949350505050565b8015610701576106fc83836115a0565b61070b565b61070b8383611707565b5f610714611157565b90505f61071f611915565b905061073c8282610737670de0b6b3a7640000610d0d565b611945565b60408051838152602081018390527fcf2aa50876cdfbb541206f89af0ee78d44a2abf8d328e37fa4917f982149848a910160405180910390a15050505050565b5f3361068981858561078e838361104d565b6107989190612150565b61125c565b60605f600b54600c546107b09190612163565b6107bb906001612150565b67ffffffffffffffff8111156107d3576107d3612205565b60405190808252806020026020018201604052801561081757816020015b604080518082019091525f80825260208201528152602001906001900390816107f15790505b50600b549091505b600c5461082d906001612150565b8110156108a8576001600160a01b0384165f9081526006602090815260408083208484528252918290208251808401909352805483526001015490820152600b54839061087a9084612163565b8151811061088a5761088a612219565b602002602001018190525080806108a09061222d565b91505061081f565b5092915050565b60605f6001546002546108c29190612163565b6108cd906001612150565b67ffffffffffffffff8111156108e5576108e5612205565b60405190808252806020026020018201604052801561093d57816020015b61092a60405180608001604052805f81526020015f81526020015f81526020015f81525090565b8152602001906001900390816109035790505b506001549091505b600254610953906001612150565b8110156109d2575f8181526020818152604091829020825160808101845281548152600180830154938201939093526002820154938101939093526003015460608301525483906109a49084612163565b815181106109b4576109b4612219565b602002602001018190525080806109ca9061222d565b915050610945565b50919050565b5f806109e2611157565b90505f6109ed6111c7565b9050601c54816109fd9190612150565b601b54610a0a9084612150565b610a149190612245565b9250505090565b5f610a258361058b565b905081811015610a475760405162461bcd60e51b81526004016106c19061225c565b610a52333085610695565b5060175460405163a9059cbb60e01b8152336004820152602481018390526001600160a01b039091169063a9059cbb906044016020604051808303815f875af1158015610aa1573d5f803e3d5ffd5b505050506040513d601f19601f82011682018060405250810190610ac59190612293565b50610ad033846119f8565b505050565b610add611aa6565b610ae65f611b00565b565b60605f600754600854610afb9190612163565b610b06906001612150565b67ffffffffffffffff811115610b1e57610b1e612205565b604051908082528060200260200182016040528015610b6257816020015b604080518082019091525f8082526020820152815260200190600190039081610b3c5790505b506007549091505b600854610b78906001612150565b8110156108a8576001600160a01b0384165f90815260046020908152604080832084845282529182902082518084019093528054835260010154908201526007548390610bc59084612163565b81518110610bd557610bd5612219565b60200260200101819052508080610beb9061222d565b915050610b6a565b60605f600954600a54610c069190612163565b610c11906001612150565b67ffffffffffffffff811115610c2957610c29612205565b604051908082528060200260200182016040528015610c6d57816020015b604080518082019091525f8082526020820152815260200190600190039081610c475790505b506009549091505b600a54610c83906001612150565b8110156108a8576001600160a01b0384165f90815260056020908152604080832084845282529182902082518084019093528054835260010154908201526009548390610cd09084612163565b81518110610ce057610ce0612219565b60200260200101819052508080610cf69061222d565b915050610c75565b6060601280546105fb90612176565b5f80610d17611157565b90505f610d226111c7565b90505f610d2f8584612150565b90505f601c54610d49601d54601b54856105c79190612150565b610d539190612163565b90506105e28184612163565b5f3381610d6c828661104d565b905083811015610dcc5760405162461bcd60e51b815260206004820152602560248201527f45524332303a2064656372656173656420616c6c6f77616e63652062656c6f77604482015264207a65726f60d81b60648201526084016106c1565b6106e1828686840361125c565b6013545f906001600160a01b03163314610e055760405162461bcd60e51b81526004016106c1906121a8565b336106898185856113f7565b5f610e22620c3500620f424061124a565b610e2c9083612245565b90505f610e398284612163565b6018546040516323b872dd60e01b81529192506001600160a01b0316906323b872dd90610e6e903390309087906004016122ae565b6020604051808303815f875af1158015610e8a573d5f803e3d5ffd5b505050506040513d601f19601f82011682018060405250810190610eae9190612293565b506018546016546040516323b872dd60e01b81526001600160a01b03928316926323b872dd92610ee89233929091169086906004016122ae565b6020604051808303815f875af1158015610f04573d5f803e3d5ffd5b505050506040513d601f19601f82011682018060405250810190610f289190612293565b50610f333384611b51565b610f3b611c11565b6023545f03610f96575f80805260226020527fb84cf808d0d5b1ad44962c9bfddd3cfce67763c49ab557cfd0e9f6804faade9980546001600160a01b031916331790556023805491610f8c8361222d565b9190505550505050565b5f5b602354811015610fd9575f81815260226020526040902054336001600160a01b0390911603610fc75750505050565b80610fd18161222d565b915050610f98565b50602380545f90815260226020526040812080546001600160a01b03191633179055815491906110088361222d565b9190505550610ad03384611c53565b60248181548110611026575f80fd5b5f918252602090912060029091020180546001909101546001600160a01b03909116915082565b6001600160a01b039182165f908152600f6020908152604080832093909416825291909152205490565b604080516080810182525f808252602082018190529181018290526060810191909152604080516080810182526017546001600160a01b0390811682526018541660208201525f9181016110c9611157565b81526020016110d6611915565b905292915050565b6110e6611aa6565b6001600160a01b03811661114b5760405162461bcd60e51b815260206004820152602660248201527f4f776e61626c653a206e6577206f776e657220697320746865207a65726f206160448201526564647265737360d01b60648201526084016106c1565b61115481611b00565b50565b6017546040516370a0823160e01b81523060048201525f916001600160a01b0316906370a08231906024015b602060405180830381865afa15801561119e573d5f803e3d5ffd5b505050506040513d601f19601f820116820180604052508101906111c291906122d2565b905090565b305f908152600e60205260408120546018546040516370a0823160e01b81523060048201526001600160a01b03909116906370a0823190602401602060405180830381865afa15801561121c573d5f803e3d5ffd5b505050506040513d601f19601f8201168201806040525081019061124091906122d2565b6111c29190612150565b5f61125582846122e9565b9392505050565b6001600160a01b0383166112be5760405162461bcd60e51b8152602060048201526024808201527f45524332303a20617070726f76652066726f6d20746865207a65726f206164646044820152637265737360e01b60648201526084016106c1565b6001600160a01b03821661131f5760405162461bcd60e51b815260206004820152602260248201527f45524332303a20617070726f766520746f20746865207a65726f206164647265604482015261737360f01b60648201526084016106c1565b6001600160a01b038381165f818152600f602090815260408083209487168084529482529182902085905590518481527f8c5be1e5ebec7d5bd14f71427d1e84f3dd0314c0f7b2291e5b200ac8c7c3b925910160405180910390a3505050565b5f61138a848461104d565b90505f1981146113f157818110156113e45760405162461bcd60e51b815260206004820152601d60248201527f45524332303a20696e73756666696369656e7420616c6c6f77616e636500000060448201526064016106c1565b6113f1848484840361125c565b50505050565b6001600160a01b03831661145b5760405162461bcd60e51b815260206004820152602560248201527f45524332303a207472616e736665722066726f6d20746865207a65726f206164604482015264647265737360d81b60648201526084016106c1565b6001600160a01b0382166114bd5760405162461bcd60e51b815260206004820152602360248201527f45524332303a207472616e7366657220746f20746865207a65726f206164647260448201526265737360e81b60648201526084016106c1565b6001600160a01b0383165f908152600e6020526040902054818110156115345760405162461bcd60e51b815260206004820152602660248201527f45524332303a207472616e7366657220616d6f756e7420657863656564732062604482015265616c616e636560d01b60648201526084016106c1565b6001600160a01b038085165f818152600e602052604080822086860390559286168082529083902080548601905591517fddf252ad1be2c89b69c2b068fc378daa952ba7f163c4a11628f55a4df523b3ef906115939086815260200190565b60405180910390a36113f1565b5f6115aa8361058b565b9050818110156115cc5760405162461bcd60e51b81526004016106c19061225c565b6018546040516323b872dd60e01b81526001600160a01b03909116906323b872dd90611600903390309088906004016122ae565b6020604051808303815f875af115801561161c573d5f803e3d5ffd5b505050506040513d601f19601f820116820180604052508101906116409190612293565b5060175460405163a9059cbb60e01b8152336004820152602481018390526001600160a01b039091169063a9059cbb906044016020604051808303815f875af115801561168f573d5f803e3d5ffd5b505050506040513d601f19601f820116820180604052508101906116b39190612293565b50604080515f8082526020820186905281830185905260608201529051309133917fd78ad95fa46c994b6551d0da85fc275fe613ce37657fb8d5e3d130840159d8229181900360800190a3610ad083611d01565b5f61171183610d0d565b9050818110156117335760405162461bcd60e51b81526004016106c19061225c565b6017546040516323b872dd60e01b81526001600160a01b03909116906323b872dd90611767903390309088906004016122ae565b6020604051808303815f875af1158015611783573d5f803e3d5ffd5b505050506040513d601f19601f820116820180604052508101906117a79190612293565b505f6117c3826020546117ba9190612245565b620f424061124a565b60185460165460405163a9059cbb60e01b81526001600160a01b03918216600482015260248101849052929350169063a9059cbb906044016020604051808303815f875af1158015611817573d5f803e3d5ffd5b505050506040513d601f19601f8201168201806040525081019061183b9190612293565b506018546001600160a01b031663a9059cbb336118588486612163565b6040516001600160e01b031960e085901b1681526001600160a01b03909216600483015260248201526044016020604051808303815f875af11580156118a0573d5f803e3d5ffd5b505050506040513d601f19601f820116820180604052508101906118c49190612293565b50604080518581525f6020820181905281830152606081018590529051309133917fd78ad95fa46c994b6551d0da85fc275fe613ce37657fb8d5e3d130840159d8229181900360800190a350505050565b6018546040516370a0823160e01b81523060048201525f916001600160a01b0316906370a0823190602401611183565b6003546001546002546119589190612163565b0361199757600180545f90815260208190526040812081815580830182905560028101829055600301819055815491906119918361222d565b91905055505b60028054905f6119a68361222d565b90915550506040805160808101825293845260208085019384528482019283524260608601908152600280545f9081529283905292909120945185559251600185015590519083015551600390910155565b600d54600b54600c54611a0b9190612163565b03611a4f576001600160a01b0382165f908152600660209081526040808320600b8054855292528220828155600101829055805491611a498361222d565b91905055505b600c8054905f611a5e8361222d565b90915550506040805180820182529182524260208084019182526001600160a01b039094165f90815260068552828120600c5482529094529220905181559051600190910155565b6014546001600160a01b03163314610ae65760405162461bcd60e51b815260206004820181905260248201527f4f776e61626c653a2063616c6c6572206973206e6f7420746865206f776e657260448201526064016106c1565b601480546001600160a01b038381166001600160a01b0319831681179093556040519116919082907f8be0079c531659141344cd1fd0a4f28419497f9722a3daafe3b4186f6b6457e0905f90a35050565b6001600160a01b038216611ba75760405162461bcd60e51b815260206004820152601f60248201527f45524332303a206d696e7420746f20746865207a65726f20616464726573730060448201526064016106c1565b8060105f828254611bb89190612150565b90915550506001600160a01b0382165f818152600e60209081526040808320805486019055518481527fddf252ad1be2c89b69c2b068fc378daa952ba7f163c4a11628f55a4df523b3ef910160405180910390a35b5050565b5f611c1a611157565b90505f611c256111c7565b9050601c5481611c359190612150565b601b54611c429084612150565b611c4c9190612245565b601d555050565b600d54600954600a54611c669190612163565b03611caa576001600160a01b0382165f90815260056020908152604080832060098054855292528220828155600101829055805491611ca48361222d565b91905055505b600a8054905f611cb98361222d565b90915550506040805180820182529182524260208084019182526001600160a01b039094165f90815260058552828120600a5482529094529220905181559051600190910155565b6023545f03611d0d5750565b5f5b602354811015611c0d575f818152602260209081526040808320546001600160a01b03168352600e909152812054602154909190611d6b90611d518487612245565b611d5b9190612245565b69152d02c7e14af680000061124a565b5f84815260226020526040902054909150611d8f906001600160a01b031682611b51565b5f83815260226020526040902054611db0906001600160a01b031682611dc5565b50508080611dbd9061222d565b915050611d0f565b600d54600754600854611dd89190612163565b03611e1c576001600160a01b0382165f90815260046020908152604080832060078054855292528220828155600101829055805491611e168361222d565b91905055505b60088054905f611e2b8361222d565b90915550506040805180820182529182524260208084019182526001600160a01b039094165f9081526004855282812060085482529094529220905181559051600190910155565b5f60208284031215611e83575f80fd5b5035919050565b5f6020808352835180828501525f5b81811015611eb557858101830151858201604001528201611e99565b505f604082860101526040601f19601f8301168501019250505092915050565b80356001600160a01b0381168114611eeb575f80fd5b919050565b5f8060408385031215611f01575f80fd5b611f0a83611ed5565b946020939093013593505050565b5f805f60608486031215611f2a575f80fd5b611f3384611ed5565b9250611f4160208501611ed5565b9150604084013590509250925092565b8015158114611154575f80fd5b5f805f60608486031215611f70575f80fd5b83359250602084013591506040840135611f8981611f51565b809150509250925092565b5f60208284031215611fa4575f80fd5b61125582611ed5565b602080825282518282018190525f919060409081850190868401855b82811015611ff657611fe684835180518252602090810151910152565b9284019290850190600101611fc9565b5091979650505050505050565b602080825282518282018190525f919060409081850190868401855b82811015611ff65781518051855286810151878601528581015186860152606090810151908501526080909301929085019060010161201f565b5f806040838503121561206a575f80fd5b50508035926020909101359150565b602080825282518282018190525f919060409081850190868401855b82811015611ff6576120b284835180518252602090810151910152565b9284019290850190600101612095565b602080825282518282018190525f919060409081850190868401855b82811015611ff6576120fb84835180518252602090810151910152565b92840192908501906001016120de565b5f806040838503121561211c575f80fd5b61212583611ed5565b915061213360208401611ed5565b90509250929050565b634e487b7160e01b5f52601160045260245ffd5b8082018082111561068f5761068f61213c565b8181038181111561068f5761068f61213c565b600181811c9082168061218a57607f821691505b6020821081036109d257634e487b7160e01b5f52602260045260245ffd5b60208082526037908201527f546869732066756e6374696f6e2063616e206f6e6c792062652063616c6c656460408201527f20627920746865206c697175696469747920706f6f6c2e000000000000000000606082015260800190565b634e487b7160e01b5f52604160045260245ffd5b634e487b7160e01b5f52603260045260245ffd5b5f6001820161223e5761223e61213c565b5060010190565b808202811582820484141761068f5761068f61213c565b6020808252601a908201527f496e73756666696369656e74206f757470757420616d6f756e74000000000000604082015260600190565b5f602082840312156122a3575f80fd5b815161125581611f51565b6001600160a01b039384168152919092166020820152604081019190915260600190565b5f602082840312156122e2575f80fd5b5051919050565b5f8261230357634e487b7160e01b5f52601260045260245ffd5b50049056fea2646970667358221220b1fac70e137ed19b3d8c8f007284fbb8cf0a7a87f8f5a8bcf4324fa64b1cc06d64736f6c63430008150033",
			"opcodes": "PUSH1 0x80 PUSH1 0x40 MSTORE CALLVALUE DUP1 ISZERO PUSH3 0x10 JUMPI PUSH0 DUP1 REVERT JUMPDEST POP PUSH1 0x40 MLOAD PUSH3 0x2E09 CODESIZE SUB DUP1 PUSH3 0x2E09 DUP4 CODECOPY DUP2 ADD PUSH1 0x40 DUP2 SWAP1 MSTORE PUSH3 0x33 SWAP2 PUSH3 0x714 JUMP JUMPDEST PUSH1 0x40 DUP1 MLOAD DUP1 DUP3 ADD DUP3 MSTORE PUSH1 0x8 DUP1 DUP3 MSTORE PUSH8 0x2628102A37B5B2B7 PUSH1 0xC1 SHL PUSH1 0x20 DUP1 DUP5 ADD SWAP2 SWAP1 SWAP2 MSTORE DUP4 MLOAD DUP1 DUP6 ADD SWAP1 SWAP5 MSTORE PUSH1 0x2 DUP1 DUP6 MSTORE PUSH2 0x4C5 PUSH1 0xF4 SHL SWAP2 DUP6 ADD SWAP2 SWAP1 SWAP2 MSTORE PUSH0 PUSH1 0x1 DUP2 SWAP1 SSTORE SWAP1 DUP2 SWAP1 SSTORE PUSH1 0xA PUSH1 0x3 DUP2 SWAP1 SSTORE PUSH1 0x7 DUP3 SWAP1 SSTORE SWAP2 DUP2 SWAP1 SSTORE PUSH1 0x9 DUP2 SWAP1 SSTORE DUP1 DUP3 SSTORE PUSH1 0xB DUP2 SWAP1 SSTORE PUSH1 0xC SSTORE PUSH1 0xD SSTORE ADDRESS SWAP2 DUP2 DUP2 PUSH1 0x11 PUSH3 0xAF DUP4 DUP3 PUSH3 0x83C JUMP JUMPDEST POP PUSH1 0x12 PUSH3 0xBE DUP3 DUP3 PUSH3 0x83C JUMP JUMPDEST POP POP PUSH1 0x13 DUP1 SLOAD PUSH1 0x1 PUSH1 0x1 PUSH1 0xA0 SHL SUB NOT AND PUSH1 0x1 PUSH1 0x1 PUSH1 0xA0 SHL SUB SWAP6 SWAP1 SWAP6 AND SWAP5 SWAP1 SWAP5 OR SWAP1 SWAP4 SSTORE POP PUSH3 0xF8 SWAP2 POP PUSH3 0xF2 SWAP1 POP CALLER SWAP1 JUMP JUMPDEST PUSH3 0x3A9 JUMP JUMPDEST PUSH1 0x15 DUP1 SLOAD PUSH1 0x1 PUSH1 0x1 PUSH1 0xA0 SHL SUB DUP1 DUP13 AND PUSH1 0x1 PUSH1 0x1 PUSH1 0xA0 SHL SUB NOT SWAP3 DUP4 AND OR SWAP1 SWAP3 SSTORE PUSH1 0x16 DUP1 SLOAD DUP12 DUP5 AND SWAP3 AND SWAP2 SWAP1 SWAP2 OR SWAP1 SSTORE DUP7 DUP2 AND SWAP1 DUP9 AND SUB PUSH3 0x17F JUMPI PUSH1 0x40 MLOAD PUSH3 0x461BCD PUSH1 0xE5 SHL DUP2 MSTORE PUSH1 0x20 PUSH1 0x4 DUP3 ADD MSTORE PUSH1 0x1E PUSH1 0x24 DUP3 ADD MSTORE PUSH32 0x426F746820746F6B656E732063616E6E6F74206265207468652073616D650000 PUSH1 0x44 DUP3 ADD MSTORE PUSH1 0x64 ADD JUMPDEST PUSH1 0x40 MLOAD DUP1 SWAP2 SUB SWAP1 REVERT JUMPDEST PUSH1 0x17 DUP1 SLOAD PUSH1 0x1 PUSH1 0x1 PUSH1 0xA0 SHL SUB DUP1 DUP11 AND PUSH1 0x1 PUSH1 0x1 PUSH1 0xA0 SHL SUB NOT SWAP3 DUP4 AND OR SWAP1 SWAP3 SSTORE PUSH1 0x18 DUP1 SLOAD SWAP3 DUP10 AND SWAP3 SWAP1 SWAP2 AND SWAP2 SWAP1 SWAP2 OR SWAP1 SSTORE PUSH1 0x19 DUP6 SWAP1 SSTORE PUSH1 0x1A DUP5 SWAP1 SSTORE DUP3 DUP3 LT ISZERO PUSH3 0x231 JUMPI PUSH1 0x40 MLOAD PUSH3 0x461BCD PUSH1 0xE5 SHL DUP2 MSTORE PUSH1 0x20 PUSH1 0x4 DUP3 ADD MSTORE PUSH1 0x3D PUSH1 0x24 DUP3 ADD MSTORE PUSH32 0x4D6178696D756D207072696365206D7573742062652067726561746572207468 PUSH1 0x44 DUP3 ADD MSTORE PUSH32 0x616E206F7220657175616C20746F207468652062617365207072696365000000 PUSH1 0x64 DUP3 ADD MSTORE PUSH1 0x84 ADD PUSH3 0x176 JUMP JUMPDEST PUSH1 0x1E DUP4 SWAP1 SSTORE PUSH1 0x1F DUP3 SWAP1 SSTORE PUSH1 0x20 DUP2 SWAP1 SSTORE PUSH3 0x24D DUP4 DUP4 DUP8 PUSH3 0x3FA JUMP JUMPDEST PUSH1 0x1B DUP2 SWAP1 SSTORE PUSH3 0x263 SWAP1 DUP9 SWAP1 DUP6 SWAP1 DUP9 DUP9 PUSH3 0x465 JUMP JUMPDEST PUSH1 0x1C DUP2 SWAP1 SSTORE PUSH1 0x1A SLOAD PUSH3 0x277 SWAP2 SWAP1 PUSH3 0x918 JUMP JUMPDEST PUSH1 0x1B SLOAD PUSH1 0x19 SLOAD PUSH3 0x289 SWAP2 SWAP1 PUSH3 0x918 JUMP JUMPDEST PUSH3 0x295 SWAP2 SWAP1 PUSH3 0x92E JUMP JUMPDEST PUSH1 0x1D SSTORE PUSH1 0x40 DUP1 MLOAD PUSH1 0x80 DUP2 ADD DUP3 MSTORE PUSH1 0x19 SLOAD DUP1 DUP3 MSTORE PUSH1 0x1A SLOAD PUSH1 0x20 DUP1 DUP5 ADD DUP3 DUP2 MSTORE PUSH1 0x1E SLOAD DUP6 DUP8 ADD SWAP1 DUP2 MSTORE TIMESTAMP PUSH1 0x60 DUP8 ADD SWAP1 DUP2 MSTORE PUSH0 DUP1 DUP1 MSTORE DUP5 MSTORE SWAP6 MLOAD PUSH32 0xAD3228B676F7D3CD4284A5443F17F1962B36E491B30A40B2405849E597BA5FB5 SSTORE SWAP1 MLOAD PUSH32 0xAD3228B676F7D3CD4284A5443F17F1962B36E491B30A40B2405849E597BA5FB6 SSTORE MLOAD PUSH32 0xAD3228B676F7D3CD4284A5443F17F1962B36E491B30A40B2405849E597BA5FB7 SSTORE SWAP3 MLOAD PUSH32 0xAD3228B676F7D3CD4284A5443F17F1962B36E491B30A40B2405849E597BA5FB8 SSTORE DUP4 MLOAD SWAP2 DUP3 MSTORE SWAP2 DUP2 ADD SWAP2 SWAP1 SWAP2 MSTORE PUSH32 0xCF2AA50876CDFBB541206F89AF0EE78D44A2ABF8D328E37FA4917F982149848A SWAP2 ADD PUSH1 0x40 MLOAD DUP1 SWAP2 SUB SWAP1 LOG1 POP POP PUSH1 0x64 PUSH1 0x21 SSTORE POP POP PUSH0 PUSH1 0x23 SSTORE POP PUSH3 0xABD SWAP4 POP POP POP POP JUMP JUMPDEST PUSH1 0x14 DUP1 SLOAD PUSH1 0x1 PUSH1 0x1 PUSH1 0xA0 SHL SUB DUP4 DUP2 AND PUSH1 0x1 PUSH1 0x1 PUSH1 0xA0 SHL SUB NOT DUP4 AND DUP2 OR SWAP1 SWAP4 SSTORE PUSH1 0x40 MLOAD SWAP2 AND SWAP2 SWAP1 DUP3 SWAP1 PUSH32 0x8BE0079C531659141344CD1FD0A4F28419497F9722A3DAAFE3B4186F6B6457E0 SWAP1 PUSH0 SWAP1 LOG3 POP POP JUMP JUMPDEST PUSH0 DUP1 PUSH3 0x41B PUSH3 0x414 DUP7 PUSH8 0xDE0B6B3A7640000 PUSH3 0x92E JUMP JUMPDEST DUP6 PUSH3 0x528 JUMP JUMPDEST SWAP1 POP PUSH0 PUSH3 0x429 DUP3 PUSH3 0x53E JUMP JUMPDEST SWAP1 POP PUSH0 PUSH3 0x438 DUP6 DUP4 PUSH3 0x92E JUMP JUMPDEST SWAP1 POP PUSH0 PUSH3 0x44B DUP4 PUSH4 0x3B9ACA00 PUSH3 0x948 JUMP JUMPDEST SWAP1 POP PUSH3 0x459 DUP3 DUP3 PUSH3 0x528 JUMP JUMPDEST SWAP9 SWAP8 POP POP POP POP POP POP POP POP JUMP JUMPDEST PUSH0 DUP1 DUP7 PUSH1 0x1 PUSH1 0x1 PUSH1 0xA0 SHL SUB AND PUSH4 0x313CE567 PUSH1 0x40 MLOAD DUP2 PUSH4 0xFFFFFFFF AND PUSH1 0xE0 SHL DUP2 MSTORE PUSH1 0x4 ADD PUSH1 0x20 PUSH1 0x40 MLOAD DUP1 DUP4 SUB DUP2 DUP7 GAS STATICCALL ISZERO DUP1 ISZERO PUSH3 0x4A4 JUMPI RETURNDATASIZE PUSH0 DUP1 RETURNDATACOPY RETURNDATASIZE PUSH0 REVERT JUMPDEST POP POP POP POP PUSH1 0x40 MLOAD RETURNDATASIZE PUSH1 0x1F NOT PUSH1 0x1F DUP3 ADD AND DUP3 ADD DUP1 PUSH1 0x40 MSTORE POP DUP2 ADD SWAP1 PUSH3 0x4CA SWAP2 SWAP1 PUSH3 0x95E JUMP JUMPDEST SWAP1 POP PUSH0 PUSH3 0x4DA DUP3 PUSH1 0xA PUSH3 0xA79 JUMP JUMPDEST SWAP1 POP PUSH0 PUSH3 0x4E9 DUP6 DUP4 PUSH3 0x92E JUMP JUMPDEST PUSH3 0x4F5 DUP9 DUP9 PUSH3 0x918 JUMP JUMPDEST PUSH3 0x501 SWAP1 DUP11 PUSH3 0x92E JUMP JUMPDEST PUSH3 0x50D SWAP2 SWAP1 PUSH3 0x948 JUMP JUMPDEST SWAP1 POP PUSH3 0x51B DUP2 DUP4 PUSH3 0x528 JUMP JUMPDEST SWAP10 SWAP9 POP POP POP POP POP POP POP POP POP JUMP JUMPDEST PUSH0 PUSH3 0x535 DUP3 DUP5 PUSH3 0xA9D JUMP JUMPDEST SWAP1 POP JUMPDEST SWAP3 SWAP2 POP POP JUMP JUMPDEST PUSH0 DUP2 PUSH0 SUB PUSH3 0x54E JUMPI POP PUSH0 SWAP2 SWAP1 POP JUMP JUMPDEST PUSH0 PUSH1 0x1 PUSH3 0x55C DUP5 PUSH3 0x646 JUMP JUMPDEST SWAP1 SHR PUSH1 0x1 SWAP1 SHL SWAP1 POP PUSH1 0x1 DUP2 DUP5 DUP2 PUSH3 0x578 JUMPI PUSH3 0x578 PUSH3 0xA89 JUMP JUMPDEST DIV DUP3 ADD SWAP1 SHR SWAP1 POP PUSH1 0x1 DUP2 DUP5 DUP2 PUSH3 0x593 JUMPI PUSH3 0x593 PUSH3 0xA89 JUMP JUMPDEST DIV DUP3 ADD SWAP1 SHR SWAP1 POP PUSH1 0x1 DUP2 DUP5 DUP2 PUSH3 0x5AE JUMPI PUSH3 0x5AE PUSH3 0xA89 JUMP JUMPDEST DIV DUP3 ADD SWAP1 SHR SWAP1 POP PUSH1 0x1 DUP2 DUP5 DUP2 PUSH3 0x5C9 JUMPI PUSH3 0x5C9 PUSH3 0xA89 JUMP JUMPDEST DIV DUP3 ADD SWAP1 SHR SWAP1 POP PUSH1 0x1 DUP2 DUP5 DUP2 PUSH3 0x5E4 JUMPI PUSH3 0x5E4 PUSH3 0xA89 JUMP JUMPDEST DIV DUP3 ADD SWAP1 SHR SWAP1 POP PUSH1 0x1 DUP2 DUP5 DUP2 PUSH3 0x5FF JUMPI PUSH3 0x5FF PUSH3 0xA89 JUMP JUMPDEST DIV DUP3 ADD SWAP1 SHR SWAP1 POP PUSH1 0x1 DUP2 DUP5 DUP2 PUSH3 0x61A JUMPI PUSH3 0x61A PUSH3 0xA89 JUMP JUMPDEST DIV DUP3 ADD SWAP1 SHR SWAP1 POP PUSH3 0x63F DUP2 DUP3 DUP6 DUP2 PUSH3 0x638 JUMPI PUSH3 0x638 PUSH3 0xA89 JUMP JUMPDEST DIV PUSH3 0x6E1 JUMP JUMPDEST SWAP4 SWAP3 POP POP POP JUMP JUMPDEST PUSH0 DUP1 PUSH1 0x80 DUP4 SWAP1 SHR ISZERO PUSH3 0x65B JUMPI PUSH1 0x80 SWAP3 DUP4 SHR SWAP3 ADD JUMPDEST PUSH1 0x40 DUP4 SWAP1 SHR ISZERO PUSH3 0x66E JUMPI PUSH1 0x40 SWAP3 DUP4 SHR SWAP3 ADD JUMPDEST PUSH1 0x20 DUP4 SWAP1 SHR ISZERO PUSH3 0x681 JUMPI PUSH1 0x20 SWAP3 DUP4 SHR SWAP3 ADD JUMPDEST PUSH1 0x10 DUP4 SWAP1 SHR ISZERO PUSH3 0x694 JUMPI PUSH1 0x10 SWAP3 DUP4 SHR SWAP3 ADD JUMPDEST PUSH1 0x8 DUP4 SWAP1 SHR ISZERO PUSH3 0x6A7 JUMPI PUSH1 0x8 SWAP3 DUP4 SHR SWAP3 ADD JUMPDEST PUSH1 0x4 DUP4 SWAP1 SHR ISZERO PUSH3 0x6BA JUMPI PUSH1 0x4 SWAP3 DUP4 SHR SWAP3 ADD JUMPDEST PUSH1 0x2 DUP4 SWAP1 SHR ISZERO PUSH3 0x6CD JUMPI PUSH1 0x2 SWAP3 DUP4 SHR SWAP3 ADD JUMPDEST PUSH1 0x1 DUP4 SWAP1 SHR ISZERO PUSH3 0x538 JUMPI PUSH1 0x1 ADD SWAP3 SWAP2 POP POP JUMP JUMPDEST PUSH0 DUP2 DUP4 LT PUSH3 0x6F1 JUMPI DUP2 PUSH3 0x535 JUMP JUMPDEST POP SWAP1 SWAP2 SWAP1 POP JUMP JUMPDEST DUP1 MLOAD PUSH1 0x1 PUSH1 0x1 PUSH1 0xA0 SHL SUB DUP2 AND DUP2 EQ PUSH3 0x70F JUMPI PUSH0 DUP1 REVERT JUMPDEST SWAP2 SWAP1 POP JUMP JUMPDEST PUSH0 DUP1 PUSH0 DUP1 PUSH0 DUP1 PUSH0 DUP1 PUSH0 PUSH2 0x120 DUP11 DUP13 SUB SLT ISZERO PUSH3 0x72E JUMPI PUSH0 DUP1 REVERT JUMPDEST PUSH3 0x739 DUP11 PUSH3 0x6F8 JUMP JUMPDEST SWAP9 POP PUSH3 0x749 PUSH1 0x20 DUP12 ADD PUSH3 0x6F8 JUMP JUMPDEST SWAP8 POP PUSH3 0x759 PUSH1 0x40 DUP12 ADD PUSH3 0x6F8 JUMP JUMPDEST SWAP7 POP PUSH3 0x769 PUSH1 0x60 DUP12 ADD PUSH3 0x6F8 JUMP JUMPDEST SWAP6 POP PUSH1 0x80 DUP11 ADD MLOAD SWAP5 POP PUSH1 0xA0 DUP11 ADD MLOAD SWAP4 POP PUSH1 0xC0 DUP11 ADD MLOAD SWAP3 POP PUSH1 0xE0 DUP11 ADD MLOAD SWAP2 POP PUSH2 0x100 DUP11 ADD MLOAD SWAP1 POP SWAP3 SWAP6 SWAP9 POP SWAP3 SWAP6 SWAP9 POP SWAP3 SWAP6 SWAP9 JUMP JUMPDEST PUSH4 0x4E487B71 PUSH1 0xE0 SHL PUSH0 MSTORE PUSH1 0x41 PUSH1 0x4 MSTORE PUSH1 0x24 PUSH0 REVERT JUMPDEST PUSH1 0x1 DUP2 DUP2 SHR SWAP1 DUP3 AND DUP1 PUSH3 0x7C5 JUMPI PUSH1 0x7F DUP3 AND SWAP2 POP JUMPDEST PUSH1 0x20 DUP3 LT DUP2 SUB PUSH3 0x7E4 JUMPI PUSH4 0x4E487B71 PUSH1 0xE0 SHL PUSH0 MSTORE PUSH1 0x22 PUSH1 0x4 MSTORE PUSH1 0x24 PUSH0 REVERT JUMPDEST POP SWAP2 SWAP1 POP JUMP JUMPDEST PUSH1 0x1F DUP3 GT ISZERO PUSH3 0x837 JUMPI PUSH0 DUP2 DUP2 MSTORE PUSH1 0x20 DUP2 KECCAK256 PUSH1 0x1F DUP6 ADD PUSH1 0x5 SHR DUP2 ADD PUSH1 0x20 DUP7 LT ISZERO PUSH3 0x812 JUMPI POP DUP1 JUMPDEST PUSH1 0x1F DUP6 ADD PUSH1 0x5 SHR DUP3 ADD SWAP2 POP JUMPDEST DUP2 DUP2 LT ISZERO PUSH3 0x833 JUMPI DUP3 DUP2 SSTORE PUSH1 0x1 ADD PUSH3 0x81E JUMP JUMPDEST POP POP POP JUMPDEST POP POP POP JUMP JUMPDEST DUP2 MLOAD PUSH1 0x1 PUSH1 0x1 PUSH1 0x40 SHL SUB DUP2 GT ISZERO PUSH3 0x858 JUMPI PUSH3 0x858 PUSH3 0x79C JUMP JUMPDEST PUSH3 0x870 DUP2 PUSH3 0x869 DUP5 SLOAD PUSH3 0x7B0 JUMP JUMPDEST DUP5 PUSH3 0x7EA JUMP JUMPDEST PUSH1 0x20 DUP1 PUSH1 0x1F DUP4 GT PUSH1 0x1 DUP2 EQ PUSH3 0x8A6 JUMPI PUSH0 DUP5 ISZERO PUSH3 0x88E JUMPI POP DUP6 DUP4 ADD MLOAD JUMPDEST PUSH0 NOT PUSH1 0x3 DUP7 SWAP1 SHL SHR NOT AND PUSH1 0x1 DUP6 SWAP1 SHL OR DUP6 SSTORE PUSH3 0x833 JUMP JUMPDEST PUSH0 DUP6 DUP2 MSTORE PUSH1 0x20 DUP2 KECCAK256 PUSH1 0x1F NOT DUP7 AND SWAP2 JUMPDEST DUP3 DUP2 LT ISZERO PUSH3 0x8D6 JUMPI DUP9 DUP7 ADD MLOAD DUP3 SSTORE SWAP5 DUP5 ADD SWAP5 PUSH1 0x1 SWAP1 SWAP2 ADD SWAP1 DUP5 ADD PUSH3 0x8B5 JUMP JUMPDEST POP DUP6 DUP3 LT ISZERO PUSH3 0x8F4 JUMPI DUP8 DUP6 ADD MLOAD PUSH0 NOT PUSH1 0x3 DUP9 SWAP1 SHL PUSH1 0xF8 AND SHR NOT AND DUP2 SSTORE JUMPDEST POP POP POP POP POP PUSH1 0x1 SWAP1 DUP2 SHL ADD SWAP1 SSTORE POP JUMP JUMPDEST PUSH4 0x4E487B71 PUSH1 0xE0 SHL PUSH0 MSTORE PUSH1 0x11 PUSH1 0x4 MSTORE PUSH1 0x24 PUSH0 REVERT JUMPDEST DUP1 DUP3 ADD DUP1 DUP3 GT ISZERO PUSH3 0x538 JUMPI PUSH3 0x538 PUSH3 0x904 JUMP JUMPDEST DUP1 DUP3 MUL DUP2 ISZERO DUP3 DUP3 DIV DUP5 EQ OR PUSH3 0x538 JUMPI PUSH3 0x538 PUSH3 0x904 JUMP JUMPDEST DUP2 DUP2 SUB DUP2 DUP2 GT ISZERO PUSH3 0x538 JUMPI PUSH3 0x538 PUSH3 0x904 JUMP JUMPDEST PUSH0 PUSH1 0x20 DUP3 DUP5 SUB SLT ISZERO PUSH3 0x96F JUMPI PUSH0 DUP1 REVERT JUMPDEST DUP2 MLOAD PUSH1 0xFF DUP2 AND DUP2 EQ PUSH3 0x63F JUMPI PUSH0 DUP1 REVERT JUMPDEST PUSH1 0x1 DUP2 DUP2 JUMPDEST DUP1 DUP6 GT ISZERO PUSH3 0x9C0 JUMPI DUP2 PUSH0 NOT DIV DUP3 GT ISZERO PUSH3 0x9A4 JUMPI PUSH3 0x9A4 PUSH3 0x904 JUMP JUMPDEST DUP1 DUP6 AND ISZERO PUSH3 0x9B2 JUMPI SWAP2 DUP2 MUL SWAP2 JUMPDEST SWAP4 DUP5 SHR SWAP4 SWAP1 DUP1 MUL SWAP1 PUSH3 0x985 JUMP JUMPDEST POP SWAP3 POP SWAP3 SWAP1 POP JUMP JUMPDEST PUSH0 DUP3 PUSH3 0x9D8 JUMPI POP PUSH1 0x1 PUSH3 0x538 JUMP JUMPDEST DUP2 PUSH3 0x9E6 JUMPI POP PUSH0 PUSH3 0x538 JUMP JUMPDEST DUP2 PUSH1 0x1 DUP2 EQ PUSH3 0x9FF JUMPI PUSH1 0x2 DUP2 EQ PUSH3 0xA0A JUMPI PUSH3 0xA2A JUMP JUMPDEST PUSH1 0x1 SWAP2 POP POP PUSH3 0x538 JUMP JUMPDEST PUSH1 0xFF DUP5 GT ISZERO PUSH3 0xA1E JUMPI PUSH3 0xA1E PUSH3 0x904 JUMP JUMPDEST POP POP PUSH1 0x1 DUP3 SHL PUSH3 0x538 JUMP JUMPDEST POP PUSH1 0x20 DUP4 LT PUSH2 0x133 DUP4 LT AND PUSH1 0x4E DUP5 LT PUSH1 0xB DUP5 LT AND OR ISZERO PUSH3 0xA4F JUMPI POP DUP2 DUP2 EXP PUSH3 0x538 JUMP JUMPDEST PUSH3 0xA5B DUP4 DUP4 PUSH3 0x980 JUMP JUMPDEST DUP1 PUSH0 NOT DIV DUP3 GT ISZERO PUSH3 0xA71 JUMPI PUSH3 0xA71 PUSH3 0x904 JUMP JUMPDEST MUL SWAP4 SWAP3 POP POP POP JUMP JUMPDEST PUSH0 PUSH3 0x535 PUSH1 0xFF DUP5 AND DUP4 PUSH3 0x9C8 JUMP JUMPDEST PUSH4 0x4E487B71 PUSH1 0xE0 SHL PUSH0 MSTORE PUSH1 0x12 PUSH1 0x4 MSTORE PUSH1 0x24 PUSH0 REVERT JUMPDEST PUSH0 DUP3 PUSH3 0xAB8 JUMPI PUSH4 0x4E487B71 PUSH1 0xE0 SHL PUSH0 MSTORE PUSH1 0x12 PUSH1 0x4 MSTORE PUSH1 0x24 PUSH0 REVERT JUMPDEST POP DIV SWAP1 JUMP JUMPDEST PUSH2 0x233E DUP1 PUSH3 0xACB PUSH0 CODECOPY PUSH0 RETURN INVALID PUSH1 0x80 PUSH1 0x40 MSTORE CALLVALUE DUP1 ISZERO PUSH2 0xF JUMPI PUSH0 DUP1 REVERT JUMPDEST POP PUSH1 0x4 CALLDATASIZE LT PUSH2 0x24A JUMPI PUSH0 CALLDATALOAD PUSH1 0xE0 SHR DUP1 PUSH4 0x79EE54F7 GT PUSH2 0x140 JUMPI DUP1 PUSH4 0xAFF56C14 GT PUSH2 0xBF JUMPI DUP1 PUSH4 0xCCBAF736 GT PUSH2 0x84 JUMPI DUP1 PUSH4 0xCCBAF736 EQ PUSH2 0x4CE JUMPI DUP1 PUSH4 0xD21220A7 EQ PUSH2 0x500 JUMPI DUP1 PUSH4 0xDD62ED3E EQ PUSH2 0x513 JUMPI DUP1 PUSH4 0xEC1893B4 EQ PUSH2 0x526 JUMPI DUP1 PUSH4 0xEF3501B9 EQ PUSH2 0x56F JUMPI DUP1 PUSH4 0xF2FDE38B EQ PUSH2 0x578 JUMPI PUSH0 DUP1 REVERT JUMPDEST DUP1 PUSH4 0xAFF56C14 EQ PUSH2 0x48D JUMPI DUP1 PUSH4 0xB0E21E8A EQ PUSH2 0x496 JUMPI DUP1 PUSH4 0xB6B55F25 EQ PUSH2 0x49F JUMPI DUP1 PUSH4 0xC392F766 EQ PUSH2 0x4B2 JUMPI DUP1 PUSH4 0xC45A0155 EQ PUSH2 0x4BB JUMPI PUSH0 DUP1 REVERT JUMPDEST DUP1 PUSH4 0x94F649DD GT PUSH2 0x105 JUMPI DUP1 PUSH4 0x94F649DD EQ PUSH2 0x42C JUMPI DUP1 PUSH4 0x95D89B41 EQ PUSH2 0x44C JUMPI DUP1 PUSH4 0x9F8E55D6 EQ PUSH2 0x454 JUMPI DUP1 PUSH4 0xA457C2D7 EQ PUSH2 0x467 JUMPI DUP1 PUSH4 0xA9059CBB EQ PUSH2 0x47A JUMPI PUSH0 DUP1 REVERT JUMPDEST DUP1 PUSH4 0x79EE54F7 EQ PUSH2 0x3E0 JUMPI DUP1 PUSH4 0x7B0A3A8D EQ PUSH2 0x400 JUMPI DUP1 PUSH4 0x7C07A380 EQ PUSH2 0x409 JUMPI DUP1 PUSH4 0x870E415E EQ PUSH2 0x412 JUMPI DUP1 PUSH4 0x8DA5CB5B EQ PUSH2 0x41B JUMPI PUSH0 DUP1 REVERT JUMPDEST DUP1 PUSH4 0x364ABC3D GT PUSH2 0x1CC JUMPI DUP1 PUSH4 0x433065D0 GT PUSH2 0x191 JUMPI DUP1 PUSH4 0x433065D0 EQ PUSH2 0x38C JUMPI DUP1 PUSH4 0x441A3E70 EQ PUSH2 0x394 JUMPI DUP1 PUSH4 0x5A656C24 EQ PUSH2 0x3A7 JUMPI DUP1 PUSH4 0x70A08231 EQ PUSH2 0x3B0 JUMPI DUP1 PUSH4 0x715018A6 EQ PUSH2 0x3D8 JUMPI PUSH0 DUP1 REVERT JUMPDEST DUP1 PUSH4 0x364ABC3D EQ PUSH2 0x328 JUMPI DUP1 PUSH4 0x39509351 EQ PUSH2 0x331 JUMPI DUP1 PUSH4 0x3A2B643A EQ PUSH2 0x344 JUMPI DUP1 PUSH4 0x3D1C387B EQ PUSH2 0x364 JUMPI DUP1 PUSH4 0x4273601C EQ PUSH2 0x379 JUMPI PUSH0 DUP1 REVERT JUMPDEST DUP1 PUSH4 0x18160DDD GT PUSH2 0x212 JUMPI DUP1 PUSH4 0x18160DDD EQ PUSH2 0x2E0 JUMPI DUP1 PUSH4 0x1CF2128C EQ PUSH2 0x2E8 JUMPI DUP1 PUSH4 0x23B872DD EQ PUSH2 0x2F1 JUMPI DUP1 PUSH4 0x2BEC60FE EQ PUSH2 0x304 JUMPI DUP1 PUSH4 0x313CE567 EQ PUSH2 0x319 JUMPI PUSH0 DUP1 REVERT JUMPDEST DUP1 PUSH4 0x4786AB4 EQ PUSH2 0x24E JUMPI DUP1 PUSH4 0x6FDDE03 EQ PUSH2 0x274 JUMPI DUP1 PUSH4 0x95EA7B3 EQ PUSH2 0x289 JUMPI DUP1 PUSH4 0xDFE1681 EQ PUSH2 0x2AC JUMPI DUP1 PUSH4 0x13724B70 EQ PUSH2 0x2D7 JUMPI JUMPDEST PUSH0 DUP1 REVERT JUMPDEST PUSH2 0x261 PUSH2 0x25C CALLDATASIZE PUSH1 0x4 PUSH2 0x1E73 JUMP JUMPDEST PUSH2 0x58B JUMP JUMPDEST PUSH1 0x40 MLOAD SWAP1 DUP2 MSTORE PUSH1 0x20 ADD JUMPDEST PUSH1 0x40 MLOAD DUP1 SWAP2 SUB SWAP1 RETURN JUMPDEST PUSH2 0x27C PUSH2 0x5EC JUMP JUMPDEST PUSH1 0x40 MLOAD PUSH2 0x26B SWAP2 SWAP1 PUSH2 0x1E8A JUMP JUMPDEST PUSH2 0x29C PUSH2 0x297 CALLDATASIZE PUSH1 0x4 PUSH2 0x1EF0 JUMP JUMPDEST PUSH2 0x67C JUMP JUMPDEST PUSH1 0x40 MLOAD SWAP1 ISZERO ISZERO DUP2 MSTORE PUSH1 0x20 ADD PUSH2 0x26B JUMP JUMPDEST PUSH1 0x17 SLOAD PUSH2 0x2BF SWAP1 PUSH1 0x1 PUSH1 0x1 PUSH1 0xA0 SHL SUB AND DUP2 JUMP JUMPDEST PUSH1 0x40 MLOAD PUSH1 0x1 PUSH1 0x1 PUSH1 0xA0 SHL SUB SWAP1 SWAP2 AND DUP2 MSTORE PUSH1 0x20 ADD PUSH2 0x26B JUMP JUMPDEST PUSH2 0x261 PUSH1 0x1A SLOAD DUP2 JUMP JUMPDEST PUSH1 0x10 SLOAD PUSH2 0x261 JUMP JUMPDEST PUSH2 0x261 PUSH1 0x1C SLOAD DUP2 JUMP JUMPDEST PUSH2 0x29C PUSH2 0x2FF CALLDATASIZE PUSH1 0x4 PUSH2 0x1F18 JUMP JUMPDEST PUSH2 0x695 JUMP JUMPDEST PUSH2 0x317 PUSH2 0x312 CALLDATASIZE PUSH1 0x4 PUSH2 0x1F5E JUMP JUMPDEST PUSH2 0x6EC JUMP JUMPDEST STOP JUMPDEST PUSH1 0x40 MLOAD PUSH1 0x12 DUP2 MSTORE PUSH1 0x20 ADD PUSH2 0x26B JUMP JUMPDEST PUSH2 0x261 PUSH1 0x1F SLOAD DUP2 JUMP JUMPDEST PUSH2 0x29C PUSH2 0x33F CALLDATASIZE PUSH1 0x4 PUSH2 0x1EF0 JUMP JUMPDEST PUSH2 0x77C JUMP JUMPDEST PUSH2 0x357 PUSH2 0x352 CALLDATASIZE PUSH1 0x4 PUSH2 0x1F94 JUMP JUMPDEST PUSH2 0x79D JUMP JUMPDEST PUSH1 0x40 MLOAD PUSH2 0x26B SWAP2 SWAP1 PUSH2 0x1FAD JUMP JUMPDEST PUSH2 0x36C PUSH2 0x8AF JUMP JUMPDEST PUSH1 0x40 MLOAD PUSH2 0x26B SWAP2 SWAP1 PUSH2 0x2003 JUMP JUMPDEST PUSH1 0x16 SLOAD PUSH2 0x2BF SWAP1 PUSH1 0x1 PUSH1 0x1 PUSH1 0xA0 SHL SUB AND DUP2 JUMP JUMPDEST PUSH2 0x261 PUSH2 0x9D8 JUMP JUMPDEST PUSH2 0x317 PUSH2 0x3A2 CALLDATASIZE PUSH1 0x4 PUSH2 0x2059 JUMP JUMPDEST PUSH2 0xA1B JUMP JUMPDEST PUSH2 0x261 PUSH1 0x1D SLOAD DUP2 JUMP JUMPDEST PUSH2 0x261 PUSH2 0x3BE CALLDATASIZE PUSH1 0x4 PUSH2 0x1F94 JUMP JUMPDEST PUSH1 0x1 PUSH1 0x1 PUSH1 0xA0 SHL SUB AND PUSH0 SWAP1 DUP2 MSTORE PUSH1 0xE PUSH1 0x20 MSTORE PUSH1 0x40 SWAP1 KECCAK256 SLOAD SWAP1 JUMP JUMPDEST PUSH2 0x317 PUSH2 0xAD5 JUMP JUMPDEST PUSH2 0x3F3 PUSH2 0x3EE CALLDATASIZE PUSH1 0x4 PUSH2 0x1F94 JUMP JUMPDEST PUSH2 0xAE8 JUMP JUMPDEST PUSH1 0x40 MLOAD PUSH2 0x26B SWAP2 SWAP1 PUSH2 0x2079 JUMP JUMPDEST PUSH2 0x261 PUSH1 0xD SLOAD DUP2 JUMP JUMPDEST PUSH2 0x261 PUSH1 0x19 SLOAD DUP2 JUMP JUMPDEST PUSH2 0x261 PUSH1 0x3 SLOAD DUP2 JUMP JUMPDEST PUSH1 0x14 SLOAD PUSH1 0x1 PUSH1 0x1 PUSH1 0xA0 SHL SUB AND PUSH2 0x2BF JUMP JUMPDEST PUSH2 0x43F PUSH2 0x43A CALLDATASIZE PUSH1 0x4 PUSH2 0x1F94 JUMP JUMPDEST PUSH2 0xBF3 JUMP JUMPDEST PUSH1 0x40 MLOAD PUSH2 0x26B SWAP2 SWAP1 PUSH2 0x20C2 JUMP JUMPDEST PUSH2 0x27C PUSH2 0xCFE JUMP JUMPDEST PUSH2 0x261 PUSH2 0x462 CALLDATASIZE PUSH1 0x4 PUSH2 0x1E73 JUMP JUMPDEST PUSH2 0xD0D JUMP JUMPDEST PUSH2 0x29C PUSH2 0x475 CALLDATASIZE PUSH1 0x4 PUSH2 0x1EF0 JUMP JUMPDEST PUSH2 0xD5F JUMP JUMPDEST PUSH2 0x29C PUSH2 0x488 CALLDATASIZE PUSH1 0x4 PUSH2 0x1EF0 JUMP JUMPDEST PUSH2 0xDD9 JUMP JUMPDEST PUSH2 0x261 PUSH1 0x1B SLOAD DUP2 JUMP JUMPDEST PUSH2 0x261 PUSH1 0x20 SLOAD DUP2 JUMP JUMPDEST PUSH2 0x317 PUSH2 0x4AD CALLDATASIZE PUSH1 0x4 PUSH2 0x1E73 JUMP JUMPDEST PUSH2 0xE11 JUMP JUMPDEST PUSH2 0x261 PUSH1 0x21 SLOAD DUP2 JUMP JUMPDEST PUSH1 0x15 SLOAD PUSH2 0x2BF SWAP1 PUSH1 0x1 PUSH1 0x1 PUSH1 0xA0 SHL SUB AND DUP2 JUMP JUMPDEST PUSH2 0x4E1 PUSH2 0x4DC CALLDATASIZE PUSH1 0x4 PUSH2 0x1E73 JUMP JUMPDEST PUSH2 0x1017 JUMP JUMPDEST PUSH1 0x40 DUP1 MLOAD PUSH1 0x1 PUSH1 0x1 PUSH1 0xA0 SHL SUB SWAP1 SWAP4 AND DUP4 MSTORE PUSH1 0x20 DUP4 ADD SWAP2 SWAP1 SWAP2 MSTORE ADD PUSH2 0x26B JUMP JUMPDEST PUSH1 0x18 SLOAD PUSH2 0x2BF SWAP1 PUSH1 0x1 PUSH1 0x1 PUSH1 0xA0 SHL SUB AND DUP2 JUMP JUMPDEST PUSH2 0x261 PUSH2 0x521 CALLDATASIZE PUSH1 0x4 PUSH2 0x210B JUMP JUMPDEST PUSH2 0x104D JUMP JUMPDEST PUSH2 0x52E PUSH2 0x1077 JUMP JUMPDEST PUSH1 0x40 MLOAD PUSH2 0x26B SWAP2 SWAP1 DUP2 MLOAD PUSH1 0x1 PUSH1 0x1 PUSH1 0xA0 SHL SUB SWAP1 DUP2 AND DUP3 MSTORE PUSH1 0x20 DUP1 DUP5 ADD MLOAD SWAP1 SWAP2 AND SWAP1 DUP3 ADD MSTORE PUSH1 0x40 DUP1 DUP4 ADD MLOAD SWAP1 DUP3 ADD MSTORE PUSH1 0x60 SWAP2 DUP3 ADD MLOAD SWAP2 DUP2 ADD SWAP2 SWAP1 SWAP2 MSTORE PUSH1 0x80 ADD SWAP1 JUMP JUMPDEST PUSH2 0x261 PUSH1 0x1E SLOAD DUP2 JUMP JUMPDEST PUSH2 0x317 PUSH2 0x586 CALLDATASIZE PUSH1 0x4 PUSH2 0x1F94 JUMP JUMPDEST PUSH2 0x10DE JUMP JUMPDEST PUSH0 DUP1 PUSH2 0x595 PUSH2 0x1157 JUMP JUMPDEST SWAP1 POP PUSH0 PUSH2 0x5A0 PUSH2 0x11C7 JUMP JUMPDEST SWAP1 POP PUSH0 PUSH2 0x5AD DUP6 DUP4 PUSH2 0x2150 JUMP JUMPDEST SWAP1 POP PUSH0 PUSH1 0x1B SLOAD PUSH2 0x5CC PUSH1 0x1D SLOAD PUSH1 0x1C SLOAD DUP6 PUSH2 0x5C7 SWAP2 SWAP1 PUSH2 0x2150 JUMP JUMPDEST PUSH2 0x124A JUMP JUMPDEST PUSH2 0x5D6 SWAP2 SWAP1 PUSH2 0x2163 JUMP JUMPDEST SWAP1 POP PUSH2 0x5E2 DUP2 DUP6 PUSH2 0x2163 JUMP JUMPDEST SWAP7 SWAP6 POP POP POP POP POP POP JUMP JUMPDEST PUSH1 0x60 PUSH1 0x11 DUP1 SLOAD PUSH2 0x5FB SWAP1 PUSH2 0x2176 JUMP JUMPDEST DUP1 PUSH1 0x1F ADD PUSH1 0x20 DUP1 SWAP2 DIV MUL PUSH1 0x20 ADD PUSH1 0x40 MLOAD SWAP1 DUP2 ADD PUSH1 0x40 MSTORE DUP1 SWAP3 SWAP2 SWAP1 DUP2 DUP2 MSTORE PUSH1 0x20 ADD DUP3 DUP1 SLOAD PUSH2 0x627 SWAP1 PUSH2 0x2176 JUMP JUMPDEST DUP1 ISZERO PUSH2 0x672 JUMPI DUP1 PUSH1 0x1F LT PUSH2 0x649 JUMPI PUSH2 0x100 DUP1 DUP4 SLOAD DIV MUL DUP4 MSTORE SWAP2 PUSH1 0x20 ADD SWAP2 PUSH2 0x672 JUMP JUMPDEST DUP3 ADD SWAP2 SWAP1 PUSH0 MSTORE PUSH1 0x20 PUSH0 KECCAK256 SWAP1 JUMPDEST DUP2 SLOAD DUP2 MSTORE SWAP1 PUSH1 0x1 ADD SWAP1 PUSH1 0x20 ADD DUP1 DUP4 GT PUSH2 0x655 JUMPI DUP3 SWAP1 SUB PUSH1 0x1F AND DUP3 ADD SWAP2 JUMPDEST POP POP POP POP POP SWAP1 POP SWAP1 JUMP JUMPDEST PUSH0 CALLER PUSH2 0x689 DUP2 DUP6 DUP6 PUSH2 0x125C JUMP JUMPDEST PUSH1 0x1 SWAP2 POP POP JUMPDEST SWAP3 SWAP2 POP POP JUMP JUMPDEST PUSH1 0x13 SLOAD PUSH0 SWAP1 PUSH1 0x1 PUSH1 0x1 PUSH1 0xA0 SHL SUB AND CALLER EQ PUSH2 0x6CA JUMPI PUSH1 0x40 MLOAD PUSH3 0x461BCD PUSH1 0xE5 SHL DUP2 MSTORE PUSH1 0x4 ADD PUSH2 0x6C1 SWAP1 PUSH2 0x21A8 JUMP JUMPDEST PUSH1 0x40 MLOAD DUP1 SWAP2 SUB SWAP1 REVERT JUMPDEST CALLER PUSH2 0x6D6 DUP6 DUP3 DUP6 PUSH2 0x137F JUMP JUMPDEST PUSH2 0x6E1 DUP6 DUP6 DUP6 PUSH2 0x13F7 JUMP JUMPDEST POP PUSH1 0x1 SWAP5 SWAP4 POP POP POP POP JUMP JUMPDEST DUP1 ISZERO PUSH2 0x701 JUMPI PUSH2 0x6FC DUP4 DUP4 PUSH2 0x15A0 JUMP JUMPDEST PUSH2 0x70B JUMP JUMPDEST PUSH2 0x70B DUP4 DUP4 PUSH2 0x1707 JUMP JUMPDEST PUSH0 PUSH2 0x714 PUSH2 0x1157 JUMP JUMPDEST SWAP1 POP PUSH0 PUSH2 0x71F PUSH2 0x1915 JUMP JUMPDEST SWAP1 POP PUSH2 0x73C DUP3 DUP3 PUSH2 0x737 PUSH8 0xDE0B6B3A7640000 PUSH2 0xD0D JUMP JUMPDEST PUSH2 0x1945 JUMP JUMPDEST PUSH1 0x40 DUP1 MLOAD DUP4 DUP2 MSTORE PUSH1 0x20 DUP2 ADD DUP4 SWAP1 MSTORE PUSH32 0xCF2AA50876CDFBB541206F89AF0EE78D44A2ABF8D328E37FA4917F982149848A SWAP2 ADD PUSH1 0x40 MLOAD DUP1 SWAP2 SUB SWAP1 LOG1 POP POP POP POP POP JUMP JUMPDEST PUSH0 CALLER PUSH2 0x689 DUP2 DUP6 DUP6 PUSH2 0x78E DUP4 DUP4 PUSH2 0x104D JUMP JUMPDEST PUSH2 0x798 SWAP2 SWAP1 PUSH2 0x2150 JUMP JUMPDEST PUSH2 0x125C JUMP JUMPDEST PUSH1 0x60 PUSH0 PUSH1 0xB SLOAD PUSH1 0xC SLOAD PUSH2 0x7B0 SWAP2 SWAP1 PUSH2 0x2163 JUMP JUMPDEST PUSH2 0x7BB SWAP1 PUSH1 0x1 PUSH2 0x2150 JUMP JUMPDEST PUSH8 0xFFFFFFFFFFFFFFFF DUP2 GT ISZERO PUSH2 0x7D3 JUMPI PUSH2 0x7D3 PUSH2 0x2205 JUMP JUMPDEST PUSH1 0x40 MLOAD SWAP1 DUP1 DUP3 MSTORE DUP1 PUSH1 0x20 MUL PUSH1 0x20 ADD DUP3 ADD PUSH1 0x40 MSTORE DUP1 ISZERO PUSH2 0x817 JUMPI DUP2 PUSH1 0x20 ADD JUMPDEST PUSH1 0x40 DUP1 MLOAD DUP1 DUP3 ADD SWAP1 SWAP2 MSTORE PUSH0 DUP1 DUP3 MSTORE PUSH1 0x20 DUP3 ADD MSTORE DUP2 MSTORE PUSH1 0x20 ADD SWAP1 PUSH1 0x1 SWAP1 SUB SWAP1 DUP2 PUSH2 0x7F1 JUMPI SWAP1 POP JUMPDEST POP PUSH1 0xB SLOAD SWAP1 SWAP2 POP JUMPDEST PUSH1 0xC SLOAD PUSH2 0x82D SWAP1 PUSH1 0x1 PUSH2 0x2150 JUMP JUMPDEST DUP2 LT ISZERO PUSH2 0x8A8 JUMPI PUSH1 0x1 PUSH1 0x1 PUSH1 0xA0 SHL SUB DUP5 AND PUSH0 SWAP1 DUP2 MSTORE PUSH1 0x6 PUSH1 0x20 SWAP1 DUP2 MSTORE PUSH1 0x40 DUP1 DUP4 KECCAK256 DUP5 DUP5 MSTORE DUP3 MSTORE SWAP2 DUP3 SWAP1 KECCAK256 DUP3 MLOAD DUP1 DUP5 ADD SWAP1 SWAP4 MSTORE DUP1 SLOAD DUP4 MSTORE PUSH1 0x1 ADD SLOAD SWAP1 DUP3 ADD MSTORE PUSH1 0xB SLOAD DUP4 SWAP1 PUSH2 0x87A SWAP1 DUP5 PUSH2 0x2163 JUMP JUMPDEST DUP2 MLOAD DUP2 LT PUSH2 0x88A JUMPI PUSH2 0x88A PUSH2 0x2219 JUMP JUMPDEST PUSH1 0x20 MUL PUSH1 0x20 ADD ADD DUP2 SWAP1 MSTORE POP DUP1 DUP1 PUSH2 0x8A0 SWAP1 PUSH2 0x222D JUMP JUMPDEST SWAP2 POP POP PUSH2 0x81F JUMP JUMPDEST POP SWAP3 SWAP2 POP POP JUMP JUMPDEST PUSH1 0x60 PUSH0 PUSH1 0x1 SLOAD PUSH1 0x2 SLOAD PUSH2 0x8C2 SWAP2 SWAP1 PUSH2 0x2163 JUMP JUMPDEST PUSH2 0x8CD SWAP1 PUSH1 0x1 PUSH2 0x2150 JUMP JUMPDEST PUSH8 0xFFFFFFFFFFFFFFFF DUP2 GT ISZERO PUSH2 0x8E5 JUMPI PUSH2 0x8E5 PUSH2 0x2205 JUMP JUMPDEST PUSH1 0x40 MLOAD SWAP1 DUP1 DUP3 MSTORE DUP1 PUSH1 0x20 MUL PUSH1 0x20 ADD DUP3 ADD PUSH1 0x40 MSTORE DUP1 ISZERO PUSH2 0x93D JUMPI DUP2 PUSH1 0x20 ADD JUMPDEST PUSH2 0x92A PUSH1 0x40 MLOAD DUP1 PUSH1 0x80 ADD PUSH1 0x40 MSTORE DUP1 PUSH0 DUP2 MSTORE PUSH1 0x20 ADD PUSH0 DUP2 MSTORE PUSH1 0x20 ADD PUSH0 DUP2 MSTORE PUSH1 0x20 ADD PUSH0 DUP2 MSTORE POP SWAP1 JUMP JUMPDEST DUP2 MSTORE PUSH1 0x20 ADD SWAP1 PUSH1 0x1 SWAP1 SUB SWAP1 DUP2 PUSH2 0x903 JUMPI SWAP1 POP JUMPDEST POP PUSH1 0x1 SLOAD SWAP1 SWAP2 POP JUMPDEST PUSH1 0x2 SLOAD PUSH2 0x953 SWAP1 PUSH1 0x1 PUSH2 0x2150 JUMP JUMPDEST DUP2 LT ISZERO PUSH2 0x9D2 JUMPI PUSH0 DUP2 DUP2 MSTORE PUSH1 0x20 DUP2 DUP2 MSTORE PUSH1 0x40 SWAP2 DUP3 SWAP1 KECCAK256 DUP3 MLOAD PUSH1 0x80 DUP2 ADD DUP5 MSTORE DUP2 SLOAD DUP2 MSTORE PUSH1 0x1 DUP1 DUP4 ADD SLOAD SWAP4 DUP3 ADD SWAP4 SWAP1 SWAP4 MSTORE PUSH1 0x2 DUP3 ADD SLOAD SWAP4 DUP2 ADD SWAP4 SWAP1 SWAP4 MSTORE PUSH1 0x3 ADD SLOAD PUSH1 0x60 DUP4 ADD MSTORE SLOAD DUP4 SWAP1 PUSH2 0x9A4 SWAP1 DUP5 PUSH2 0x2163 JUMP JUMPDEST DUP2 MLOAD DUP2 LT PUSH2 0x9B4 JUMPI PUSH2 0x9B4 PUSH2 0x2219 JUMP JUMPDEST PUSH1 0x20 MUL PUSH1 0x20 ADD ADD DUP2 SWAP1 MSTORE POP DUP1 DUP1 PUSH2 0x9CA SWAP1 PUSH2 0x222D JUMP JUMPDEST SWAP2 POP POP PUSH2 0x945 JUMP JUMPDEST POP SWAP2 SWAP1 POP JUMP JUMPDEST PUSH0 DUP1 PUSH2 0x9E2 PUSH2 0x1157 JUMP JUMPDEST SWAP1 POP PUSH0 PUSH2 0x9ED PUSH2 0x11C7 JUMP JUMPDEST SWAP1 POP PUSH1 0x1C SLOAD DUP2 PUSH2 0x9FD SWAP2 SWAP1 PUSH2 0x2150 JUMP JUMPDEST PUSH1 0x1B SLOAD PUSH2 0xA0A SWAP1 DUP5 PUSH2 0x2150 JUMP JUMPDEST PUSH2 0xA14 SWAP2 SWAP1 PUSH2 0x2245 JUMP JUMPDEST SWAP3 POP POP POP SWAP1 JUMP JUMPDEST PUSH0 PUSH2 0xA25 DUP4 PUSH2 0x58B JUMP JUMPDEST SWAP1 POP DUP2 DUP2 LT ISZERO PUSH2 0xA47 JUMPI PUSH1 0x40 MLOAD PUSH3 0x461BCD PUSH1 0xE5 SHL DUP2 MSTORE PUSH1 0x4 ADD PUSH2 0x6C1 SWAP1 PUSH2 0x225C JUMP JUMPDEST PUSH2 0xA52 CALLER ADDRESS DUP6 PUSH2 0x695 JUMP JUMPDEST POP PUSH1 0x17 SLOAD PUSH1 0x40 MLOAD PUSH4 0xA9059CBB PUSH1 0xE0 SHL DUP2 MSTORE CALLER PUSH1 0x4 DUP3 ADD MSTORE PUSH1 0x24 DUP2 ADD DUP4 SWAP1 MSTORE PUSH1 0x1 PUSH1 0x1 PUSH1 0xA0 SHL SUB SWAP1 SWAP2 AND SWAP1 PUSH4 0xA9059CBB SWAP1 PUSH1 0x44 ADD PUSH1 0x20 PUSH1 0x40 MLOAD DUP1 DUP4 SUB DUP2 PUSH0 DUP8 GAS CALL ISZERO DUP1 ISZERO PUSH2 0xAA1 JUMPI RETURNDATASIZE PUSH0 DUP1 RETURNDATACOPY RETURNDATASIZE PUSH0 REVERT JUMPDEST POP POP POP POP PUSH1 0x40 MLOAD RETURNDATASIZE PUSH1 0x1F NOT PUSH1 0x1F DUP3 ADD AND DUP3 ADD DUP1 PUSH1 0x40 MSTORE POP DUP2 ADD SWAP1 PUSH2 0xAC5 SWAP2 SWAP1 PUSH2 0x2293 JUMP JUMPDEST POP PUSH2 0xAD0 CALLER DUP5 PUSH2 0x19F8 JUMP JUMPDEST POP POP POP JUMP JUMPDEST PUSH2 0xADD PUSH2 0x1AA6 JUMP JUMPDEST PUSH2 0xAE6 PUSH0 PUSH2 0x1B00 JUMP JUMPDEST JUMP JUMPDEST PUSH1 0x60 PUSH0 PUSH1 0x7 SLOAD PUSH1 0x8 SLOAD PUSH2 0xAFB SWAP2 SWAP1 PUSH2 0x2163 JUMP JUMPDEST PUSH2 0xB06 SWAP1 PUSH1 0x1 PUSH2 0x2150 JUMP JUMPDEST PUSH8 0xFFFFFFFFFFFFFFFF DUP2 GT ISZERO PUSH2 0xB1E JUMPI PUSH2 0xB1E PUSH2 0x2205 JUMP JUMPDEST PUSH1 0x40 MLOAD SWAP1 DUP1 DUP3 MSTORE DUP1 PUSH1 0x20 MUL PUSH1 0x20 ADD DUP3 ADD PUSH1 0x40 MSTORE DUP1 ISZERO PUSH2 0xB62 JUMPI DUP2 PUSH1 0x20 ADD JUMPDEST PUSH1 0x40 DUP1 MLOAD DUP1 DUP3 ADD SWAP1 SWAP2 MSTORE PUSH0 DUP1 DUP3 MSTORE PUSH1 0x20 DUP3 ADD MSTORE DUP2 MSTORE PUSH1 0x20 ADD SWAP1 PUSH1 0x1 SWAP1 SUB SWAP1 DUP2 PUSH2 0xB3C JUMPI SWAP1 POP JUMPDEST POP PUSH1 0x7 SLOAD SWAP1 SWAP2 POP JUMPDEST PUSH1 0x8 SLOAD PUSH2 0xB78 SWAP1 PUSH1 0x1 PUSH2 0x2150 JUMP JUMPDEST DUP2 LT ISZERO PUSH2 0x8A8 JUMPI PUSH1 0x1 PUSH1 0x1 PUSH1 0xA0 SHL SUB DUP5 AND PUSH0 SWAP1 DUP2 MSTORE PUSH1 0x4 PUSH1 0x20 SWAP1 DUP2 MSTORE PUSH1 0x40 DUP1 DUP4 KECCAK256 DUP5 DUP5 MSTORE DUP3 MSTORE SWAP2 DUP3 SWAP1 KECCAK256 DUP3 MLOAD DUP1 DUP5 ADD SWAP1 SWAP4 MSTORE DUP1 SLOAD DUP4 MSTORE PUSH1 0x1 ADD SLOAD SWAP1 DUP3 ADD MSTORE PUSH1 0x7 SLOAD DUP4 SWAP1 PUSH2 0xBC5 SWAP1 DUP5 PUSH2 0x2163 JUMP JUMPDEST DUP2 MLOAD DUP2 LT PUSH2 0xBD5 JUMPI PUSH2 0xBD5 PUSH2 0x2219 JUMP JUMPDEST PUSH1 0x20 MUL PUSH1 0x20 ADD ADD DUP2 SWAP1 MSTORE POP DUP1 DUP1 PUSH2 0xBEB SWAP1 PUSH2 0x222D JUMP JUMPDEST SWAP2 POP POP PUSH2 0xB6A JUMP JUMPDEST PUSH1 0x60 PUSH0 PUSH1 0x9 SLOAD PUSH1 0xA SLOAD PUSH2 0xC06 SWAP2 SWAP1 PUSH2 0x2163 JUMP JUMPDEST PUSH2 0xC11 SWAP1 PUSH1 0x1 PUSH2 0x2150 JUMP JUMPDEST PUSH8 0xFFFFFFFFFFFFFFFF DUP2 GT ISZERO PUSH2 0xC29 JUMPI PUSH2 0xC29 PUSH2 0x2205 JUMP JUMPDEST PUSH1 0x40 MLOAD SWAP1 DUP1 DUP3 MSTORE DUP1 PUSH1 0x20 MUL PUSH1 0x20 ADD DUP3 ADD PUSH1 0x40 MSTORE DUP1 ISZERO PUSH2 0xC6D JUMPI DUP2 PUSH1 0x20 ADD JUMPDEST PUSH1 0x40 DUP1 MLOAD DUP1 DUP3 ADD SWAP1 SWAP2 MSTORE PUSH0 DUP1 DUP3 MSTORE PUSH1 0x20 DUP3 ADD MSTORE DUP2 MSTORE PUSH1 0x20 ADD SWAP1 PUSH1 0x1 SWAP1 SUB SWAP1 DUP2 PUSH2 0xC47 JUMPI SWAP1 POP JUMPDEST POP PUSH1 0x9 SLOAD SWAP1 SWAP2 POP JUMPDEST PUSH1 0xA SLOAD PUSH2 0xC83 SWAP1 PUSH1 0x1 PUSH2 0x2150 JUMP JUMPDEST DUP2 LT ISZERO PUSH2 0x8A8 JUMPI PUSH1 0x1 PUSH1 0x1 PUSH1 0xA0 SHL SUB DUP5 AND PUSH0 SWAP1 DUP2 MSTORE PUSH1 0x5 PUSH1 0x20 SWAP1 DUP2 MSTORE PUSH1 0x40 DUP1 DUP4 KECCAK256 DUP5 DUP5 MSTORE DUP3 MSTORE SWAP2 DUP3 SWAP1 KECCAK256 DUP3 MLOAD DUP1 DUP5 ADD SWAP1 SWAP4 MSTORE DUP1 SLOAD DUP4 MSTORE PUSH1 0x1 ADD SLOAD SWAP1 DUP3 ADD MSTORE PUSH1 0x9 SLOAD DUP4 SWAP1 PUSH2 0xCD0 SWAP1 DUP5 PUSH2 0x2163 JUMP JUMPDEST DUP2 MLOAD DUP2 LT PUSH2 0xCE0 JUMPI PUSH2 0xCE0 PUSH2 0x2219 JUMP JUMPDEST PUSH1 0x20 MUL PUSH1 0x20 ADD ADD DUP2 SWAP1 MSTORE POP DUP1 DUP1 PUSH2 0xCF6 SWAP1 PUSH2 0x222D JUMP JUMPDEST SWAP2 POP POP PUSH2 0xC75 JUMP JUMPDEST PUSH1 0x60 PUSH1 0x12 DUP1 SLOAD PUSH2 0x5FB SWAP1 PUSH2 0x2176 JUMP JUMPDEST PUSH0 DUP1 PUSH2 0xD17 PUSH2 0x1157 JUMP JUMPDEST SWAP1 POP PUSH0 PUSH2 0xD22 PUSH2 0x11C7 JUMP JUMPDEST SWAP1 POP PUSH0 PUSH2 0xD2F DUP6 DUP5 PUSH2 0x2150 JUMP JUMPDEST SWAP1 POP PUSH0 PUSH1 0x1C SLOAD PUSH2 0xD49 PUSH1 0x1D SLOAD PUSH1 0x1B SLOAD DUP6 PUSH2 0x5C7 SWAP2 SWAP1 PUSH2 0x2150 JUMP JUMPDEST PUSH2 0xD53 SWAP2 SWAP1 PUSH2 0x2163 JUMP JUMPDEST SWAP1 POP PUSH2 0x5E2 DUP2 DUP5 PUSH2 0x2163 JUMP JUMPDEST PUSH0 CALLER DUP2 PUSH2 0xD6C DUP3 DUP7 PUSH2 0x104D JUMP JUMPDEST SWAP1 POP DUP4 DUP2 LT ISZERO PUSH2 0xDCC JUMPI PUSH1 0x40 MLOAD PUSH3 0x461BCD PUSH1 0xE5 SHL DUP2 MSTORE PUSH1 0x20 PUSH1 0x4 DUP3 ADD MSTORE PUSH1 0x25 PUSH1 0x24 DUP3 ADD MSTORE PUSH32 0x45524332303A2064656372656173656420616C6C6F77616E63652062656C6F77 PUSH1 0x44 DUP3 ADD MSTORE PUSH5 0x207A65726F PUSH1 0xD8 SHL PUSH1 0x64 DUP3 ADD MSTORE PUSH1 0x84 ADD PUSH2 0x6C1 JUMP JUMPDEST PUSH2 0x6E1 DUP3 DUP7 DUP7 DUP5 SUB PUSH2 0x125C JUMP JUMPDEST PUSH1 0x13 SLOAD PUSH0 SWAP1 PUSH1 0x1 PUSH1 0x1 PUSH1 0xA0 SHL SUB AND CALLER EQ PUSH2 0xE05 JUMPI PUSH1 0x40 MLOAD PUSH3 0x461BCD PUSH1 0xE5 SHL DUP2 MSTORE PUSH1 0x4 ADD PUSH2 0x6C1 SWAP1 PUSH2 0x21A8 JUMP JUMPDEST CALLER PUSH2 0x689 DUP2 DUP6 DUP6 PUSH2 0x13F7 JUMP JUMPDEST PUSH0 PUSH2 0xE22 PUSH3 0xC3500 PUSH3 0xF4240 PUSH2 0x124A JUMP JUMPDEST PUSH2 0xE2C SWAP1 DUP4 PUSH2 0x2245 JUMP JUMPDEST SWAP1 POP PUSH0 PUSH2 0xE39 DUP3 DUP5 PUSH2 0x2163 JUMP JUMPDEST PUSH1 0x18 SLOAD PUSH1 0x40 MLOAD PUSH4 0x23B872DD PUSH1 0xE0 SHL DUP2 MSTORE SWAP2 SWAP3 POP PUSH1 0x1 PUSH1 0x1 PUSH1 0xA0 SHL SUB AND SWAP1 PUSH4 0x23B872DD SWAP1 PUSH2 0xE6E SWAP1 CALLER SWAP1 ADDRESS SWAP1 DUP8 SWAP1 PUSH1 0x4 ADD PUSH2 0x22AE JUMP JUMPDEST PUSH1 0x20 PUSH1 0x40 MLOAD DUP1 DUP4 SUB DUP2 PUSH0 DUP8 GAS CALL ISZERO DUP1 ISZERO PUSH2 0xE8A JUMPI RETURNDATASIZE PUSH0 DUP1 RETURNDATACOPY RETURNDATASIZE PUSH0 REVERT JUMPDEST POP POP POP POP PUSH1 0x40 MLOAD RETURNDATASIZE PUSH1 0x1F NOT PUSH1 0x1F DUP3 ADD AND DUP3 ADD DUP1 PUSH1 0x40 MSTORE POP DUP2 ADD SWAP1 PUSH2 0xEAE SWAP2 SWAP1 PUSH2 0x2293 JUMP JUMPDEST POP PUSH1 0x18 SLOAD PUSH1 0x16 SLOAD PUSH1 0x40 MLOAD PUSH4 0x23B872DD PUSH1 0xE0 SHL DUP2 MSTORE PUSH1 0x1 PUSH1 0x1 PUSH1 0xA0 SHL SUB SWAP3 DUP4 AND SWAP3 PUSH4 0x23B872DD SWAP3 PUSH2 0xEE8 SWAP3 CALLER SWAP3 SWAP1 SWAP2 AND SWAP1 DUP7 SWAP1 PUSH1 0x4 ADD PUSH2 0x22AE JUMP JUMPDEST PUSH1 0x20 PUSH1 0x40 MLOAD DUP1 DUP4 SUB DUP2 PUSH0 DUP8 GAS CALL ISZERO DUP1 ISZERO PUSH2 0xF04 JUMPI RETURNDATASIZE PUSH0 DUP1 RETURNDATACOPY RETURNDATASIZE PUSH0 REVERT JUMPDEST POP POP POP POP PUSH1 0x40 MLOAD RETURNDATASIZE PUSH1 0x1F NOT PUSH1 0x1F DUP3 ADD AND DUP3 ADD DUP1 PUSH1 0x40 MSTORE POP DUP2 ADD SWAP1 PUSH2 0xF28 SWAP2 SWAP1 PUSH2 0x2293 JUMP JUMPDEST POP PUSH2 0xF33 CALLER DUP5 PUSH2 0x1B51 JUMP JUMPDEST PUSH2 0xF3B PUSH2 0x1C11 JUMP JUMPDEST PUSH1 0x23 SLOAD PUSH0 SUB PUSH2 0xF96 JUMPI PUSH0 DUP1 DUP1 MSTORE PUSH1 0x22 PUSH1 0x20 MSTORE PUSH32 0xB84CF808D0D5B1AD44962C9BFDDD3CFCE67763C49AB557CFD0E9F6804FAADE99 DUP1 SLOAD PUSH1 0x1 PUSH1 0x1 PUSH1 0xA0 SHL SUB NOT AND CALLER OR SWAP1 SSTORE PUSH1 0x23 DUP1 SLOAD SWAP2 PUSH2 0xF8C DUP4 PUSH2 0x222D JUMP JUMPDEST SWAP2 SWAP1 POP SSTORE POP POP POP POP JUMP JUMPDEST PUSH0 JUMPDEST PUSH1 0x23 SLOAD DUP2 LT ISZERO PUSH2 0xFD9 JUMPI PUSH0 DUP2 DUP2 MSTORE PUSH1 0x22 PUSH1 0x20 MSTORE PUSH1 0x40 SWAP1 KECCAK256 SLOAD CALLER PUSH1 0x1 PUSH1 0x1 PUSH1 0xA0 SHL SUB SWAP1 SWAP2 AND SUB PUSH2 0xFC7 JUMPI POP POP POP POP JUMP JUMPDEST DUP1 PUSH2 0xFD1 DUP2 PUSH2 0x222D JUMP JUMPDEST SWAP2 POP POP PUSH2 0xF98 JUMP JUMPDEST POP PUSH1 0x23 DUP1 SLOAD PUSH0 SWAP1 DUP2 MSTORE PUSH1 0x22 PUSH1 0x20 MSTORE PUSH1 0x40 DUP2 KECCAK256 DUP1 SLOAD PUSH1 0x1 PUSH1 0x1 PUSH1 0xA0 SHL SUB NOT AND CALLER OR SWAP1 SSTORE DUP2 SLOAD SWAP2 SWAP1 PUSH2 0x1008 DUP4 PUSH2 0x222D JUMP JUMPDEST SWAP2 SWAP1 POP SSTORE POP PUSH2 0xAD0 CALLER DUP5 PUSH2 0x1C53 JUMP JUMPDEST PUSH1 0x24 DUP2 DUP2 SLOAD DUP2 LT PUSH2 0x1026 JUMPI PUSH0 DUP1 REVERT JUMPDEST PUSH0 SWAP2 DUP3 MSTORE PUSH1 0x20 SWAP1 SWAP2 KECCAK256 PUSH1 0x2 SWAP1 SWAP2 MUL ADD DUP1 SLOAD PUSH1 0x1 SWAP1 SWAP2 ADD SLOAD PUSH1 0x1 PUSH1 0x1 PUSH1 0xA0 SHL SUB SWAP1 SWAP2 AND SWAP2 POP DUP3 JUMP JUMPDEST PUSH1 0x1 PUSH1 0x1 PUSH1 0xA0 SHL SUB SWAP2 DUP3 AND PUSH0 SWAP1 DUP2 MSTORE PUSH1 0xF PUSH1 0x20 SWAP1 DUP2 MSTORE PUSH1 0x40 DUP1 DUP4 KECCAK256 SWAP4 SWAP1 SWAP5 AND DUP3 MSTORE SWAP2 SWAP1 SWAP2 MSTORE KECCAK256 SLOAD SWAP1 JUMP JUMPDEST PUSH1 0x40 DUP1 MLOAD PUSH1 0x80 DUP2 ADD DUP3 MSTORE PUSH0 DUP1 DUP3 MSTORE PUSH1 0x20 DUP3 ADD DUP2 SWAP1 MSTORE SWAP2 DUP2 ADD DUP3 SWAP1 MSTORE PUSH1 0x60 DUP2 ADD SWAP2 SWAP1 SWAP2 MSTORE PUSH1 0x40 DUP1 MLOAD PUSH1 0x80 DUP2 ADD DUP3 MSTORE PUSH1 0x17 SLOAD PUSH1 0x1 PUSH1 0x1 PUSH1 0xA0 SHL SUB SWAP1 DUP2 AND DUP3 MSTORE PUSH1 0x18 SLOAD AND PUSH1 0x20 DUP3 ADD MSTORE PUSH0 SWAP2 DUP2 ADD PUSH2 0x10C9 PUSH2 0x1157 JUMP JUMPDEST DUP2 MSTORE PUSH1 0x20 ADD PUSH2 0x10D6 PUSH2 0x1915 JUMP JUMPDEST SWAP1 MSTORE SWAP3 SWAP2 POP POP JUMP JUMPDEST PUSH2 0x10E6 PUSH2 0x1AA6 JUMP JUMPDEST PUSH1 0x1 PUSH1 0x1 PUSH1 0xA0 SHL SUB DUP2 AND PUSH2 0x114B JUMPI PUSH1 0x40 MLOAD PUSH3 0x461BCD PUSH1 0xE5 SHL DUP2 MSTORE PUSH1 0x20 PUSH1 0x4 DUP3 ADD MSTORE PUSH1 0x26 PUSH1 0x24 DUP3 ADD MSTORE PUSH32 0x4F776E61626C653A206E6577206F776E657220697320746865207A65726F2061 PUSH1 0x44 DUP3 ADD MSTORE PUSH6 0x646472657373 PUSH1 0xD0 SHL PUSH1 0x64 DUP3 ADD MSTORE PUSH1 0x84 ADD PUSH2 0x6C1 JUMP JUMPDEST PUSH2 0x1154 DUP2 PUSH2 0x1B00 JUMP JUMPDEST POP JUMP JUMPDEST PUSH1 0x17 SLOAD PUSH1 0x40 MLOAD PUSH4 0x70A08231 PUSH1 0xE0 SHL DUP2 MSTORE ADDRESS PUSH1 0x4 DUP3 ADD MSTORE PUSH0 SWAP2 PUSH1 0x1 PUSH1 0x1 PUSH1 0xA0 SHL SUB AND SWAP1 PUSH4 0x70A08231 SWAP1 PUSH1 0x24 ADD JUMPDEST PUSH1 0x20 PUSH1 0x40 MLOAD DUP1 DUP4 SUB DUP2 DUP7 GAS STATICCALL ISZERO DUP1 ISZERO PUSH2 0x119E JUMPI RETURNDATASIZE PUSH0 DUP1 RETURNDATACOPY RETURNDATASIZE PUSH0 REVERT JUMPDEST POP POP POP POP PUSH1 0x40 MLOAD RETURNDATASIZE PUSH1 0x1F NOT PUSH1 0x1F DUP3 ADD AND DUP3 ADD DUP1 PUSH1 0x40 MSTORE POP DUP2 ADD SWAP1 PUSH2 0x11C2 SWAP2 SWAP1 PUSH2 0x22D2 JUMP JUMPDEST SWAP1 POP SWAP1 JUMP JUMPDEST ADDRESS PUSH0 SWAP1 DUP2 MSTORE PUSH1 0xE PUSH1 0x20 MSTORE PUSH1 0x40 DUP2 KECCAK256 SLOAD PUSH1 0x18 SLOAD PUSH1 0x40 MLOAD PUSH4 0x70A08231 PUSH1 0xE0 SHL DUP2 MSTORE ADDRESS PUSH1 0x4 DUP3 ADD MSTORE PUSH1 0x1 PUSH1 0x1 PUSH1 0xA0 SHL SUB SWAP1 SWAP2 AND SWAP1 PUSH4 0x70A08231 SWAP1 PUSH1 0x24 ADD PUSH1 0x20 PUSH1 0x40 MLOAD DUP1 DUP4 SUB DUP2 DUP7 GAS STATICCALL ISZERO DUP1 ISZERO PUSH2 0x121C JUMPI RETURNDATASIZE PUSH0 DUP1 RETURNDATACOPY RETURNDATASIZE PUSH0 REVERT JUMPDEST POP POP POP POP PUSH1 0x40 MLOAD RETURNDATASIZE PUSH1 0x1F NOT PUSH1 0x1F DUP3 ADD AND DUP3 ADD DUP1 PUSH1 0x40 MSTORE POP DUP2 ADD SWAP1 PUSH2 0x1240 SWAP2 SWAP1 PUSH2 0x22D2 JUMP JUMPDEST PUSH2 0x11C2 SWAP2 SWAP1 PUSH2 0x2150 JUMP JUMPDEST PUSH0 PUSH2 0x1255 DUP3 DUP5 PUSH2 0x22E9 JUMP JUMPDEST SWAP4 SWAP3 POP POP POP JUMP JUMPDEST PUSH1 0x1 PUSH1 0x1 PUSH1 0xA0 SHL SUB DUP4 AND PUSH2 0x12BE JUMPI PUSH1 0x40 MLOAD PUSH3 0x461BCD PUSH1 0xE5 SHL DUP2 MSTORE PUSH1 0x20 PUSH1 0x4 DUP3 ADD MSTORE PUSH1 0x24 DUP1 DUP3 ADD MSTORE PUSH32 0x45524332303A20617070726F76652066726F6D20746865207A65726F20616464 PUSH1 0x44 DUP3 ADD MSTORE PUSH4 0x72657373 PUSH1 0xE0 SHL PUSH1 0x64 DUP3 ADD MSTORE PUSH1 0x84 ADD PUSH2 0x6C1 JUMP JUMPDEST PUSH1 0x1 PUSH1 0x1 PUSH1 0xA0 SHL SUB DUP3 AND PUSH2 0x131F JUMPI PUSH1 0x40 MLOAD PUSH3 0x461BCD PUSH1 0xE5 SHL DUP2 MSTORE PUSH1 0x20 PUSH1 0x4 DUP3 ADD MSTORE PUSH1 0x22 PUSH1 0x24 DUP3 ADD MSTORE PUSH32 0x45524332303A20617070726F766520746F20746865207A65726F206164647265 PUSH1 0x44 DUP3 ADD MSTORE PUSH2 0x7373 PUSH1 0xF0 SHL PUSH1 0x64 DUP3 ADD MSTORE PUSH1 0x84 ADD PUSH2 0x6C1 JUMP JUMPDEST PUSH1 0x1 PUSH1 0x1 PUSH1 0xA0 SHL SUB DUP4 DUP2 AND PUSH0 DUP2 DUP2 MSTORE PUSH1 0xF PUSH1 0x20 SWAP1 DUP2 MSTORE PUSH1 0x40 DUP1 DUP4 KECCAK256 SWAP5 DUP8 AND DUP1 DUP5 MSTORE SWAP5 DUP3 MSTORE SWAP2 DUP3 SWAP1 KECCAK256 DUP6 SWAP1 SSTORE SWAP1 MLOAD DUP5 DUP2 MSTORE PUSH32 0x8C5BE1E5EBEC7D5BD14F71427D1E84F3DD0314C0F7B2291E5B200AC8C7C3B925 SWAP2 ADD PUSH1 0x40 MLOAD DUP1 SWAP2 SUB SWAP1 LOG3 POP POP POP JUMP JUMPDEST PUSH0 PUSH2 0x138A DUP5 DUP5 PUSH2 0x104D JUMP JUMPDEST SWAP1 POP PUSH0 NOT DUP2 EQ PUSH2 0x13F1 JUMPI DUP2 DUP2 LT ISZERO PUSH2 0x13E4 JUMPI PUSH1 0x40 MLOAD PUSH3 0x461BCD PUSH1 0xE5 SHL DUP2 MSTORE PUSH1 0x20 PUSH1 0x4 DUP3 ADD MSTORE PUSH1 0x1D PUSH1 0x24 DUP3 ADD MSTORE PUSH32 0x45524332303A20696E73756666696369656E7420616C6C6F77616E6365000000 PUSH1 0x44 DUP3 ADD MSTORE PUSH1 0x64 ADD PUSH2 0x6C1 JUMP JUMPDEST PUSH2 0x13F1 DUP5 DUP5 DUP5 DUP5 SUB PUSH2 0x125C JUMP JUMPDEST POP POP POP POP JUMP JUMPDEST PUSH1 0x1 PUSH1 0x1 PUSH1 0xA0 SHL SUB DUP4 AND PUSH2 0x145B JUMPI PUSH1 0x40 MLOAD PUSH3 0x461BCD PUSH1 0xE5 SHL DUP2 MSTORE PUSH1 0x20 PUSH1 0x4 DUP3 ADD MSTORE PUSH1 0x25 PUSH1 0x24 DUP3 ADD MSTORE PUSH32 0x45524332303A207472616E736665722066726F6D20746865207A65726F206164 PUSH1 0x44 DUP3 ADD MSTORE PUSH5 0x6472657373 PUSH1 0xD8 SHL PUSH1 0x64 DUP3 ADD MSTORE PUSH1 0x84 ADD PUSH2 0x6C1 JUMP JUMPDEST PUSH1 0x1 PUSH1 0x1 PUSH1 0xA0 SHL SUB DUP3 AND PUSH2 0x14BD JUMPI PUSH1 0x40 MLOAD PUSH3 0x461BCD PUSH1 0xE5 SHL DUP2 MSTORE PUSH1 0x20 PUSH1 0x4 DUP3 ADD MSTORE PUSH1 0x23 PUSH1 0x24 DUP3 ADD MSTORE PUSH32 0x45524332303A207472616E7366657220746F20746865207A65726F2061646472 PUSH1 0x44 DUP3 ADD MSTORE PUSH3 0x657373 PUSH1 0xE8 SHL PUSH1 0x64 DUP3 ADD MSTORE PUSH1 0x84 ADD PUSH2 0x6C1 JUMP JUMPDEST PUSH1 0x1 PUSH1 0x1 PUSH1 0xA0 SHL SUB DUP4 AND PUSH0 SWAP1 DUP2 MSTORE PUSH1 0xE PUSH1 0x20 MSTORE PUSH1 0x40 SWAP1 KECCAK256 SLOAD DUP2 DUP2 LT ISZERO PUSH2 0x1534 JUMPI PUSH1 0x40 MLOAD PUSH3 0x461BCD PUSH1 0xE5 SHL DUP2 MSTORE PUSH1 0x20 PUSH1 0x4 DUP3 ADD MSTORE PUSH1 0x26 PUSH1 0x24 DUP3 ADD MSTORE PUSH32 0x45524332303A207472616E7366657220616D6F756E7420657863656564732062 PUSH1 0x44 DUP3 ADD MSTORE PUSH6 0x616C616E6365 PUSH1 0xD0 SHL PUSH1 0x64 DUP3 ADD MSTORE PUSH1 0x84 ADD PUSH2 0x6C1 JUMP JUMPDEST PUSH1 0x1 PUSH1 0x1 PUSH1 0xA0 SHL SUB DUP1 DUP6 AND PUSH0 DUP2 DUP2 MSTORE PUSH1 0xE PUSH1 0x20 MSTORE PUSH1 0x40 DUP1 DUP3 KECCAK256 DUP7 DUP7 SUB SWAP1 SSTORE SWAP3 DUP7 AND DUP1 DUP3 MSTORE SWAP1 DUP4 SWAP1 KECCAK256 DUP1 SLOAD DUP7 ADD SWAP1 SSTORE SWAP2 MLOAD PUSH32 0xDDF252AD1BE2C89B69C2B068FC378DAA952BA7F163C4A11628F55A4DF523B3EF SWAP1 PUSH2 0x1593 SWAP1 DUP7 DUP2 MSTORE PUSH1 0x20 ADD SWAP1 JUMP JUMPDEST PUSH1 0x40 MLOAD DUP1 SWAP2 SUB SWAP1 LOG3 PUSH2 0x13F1 JUMP JUMPDEST PUSH0 PUSH2 0x15AA DUP4 PUSH2 0x58B JUMP JUMPDEST SWAP1 POP DUP2 DUP2 LT ISZERO PUSH2 0x15CC JUMPI PUSH1 0x40 MLOAD PUSH3 0x461BCD PUSH1 0xE5 SHL DUP2 MSTORE PUSH1 0x4 ADD PUSH2 0x6C1 SWAP1 PUSH2 0x225C JUMP JUMPDEST PUSH1 0x18 SLOAD PUSH1 0x40 MLOAD PUSH4 0x23B872DD PUSH1 0xE0 SHL DUP2 MSTORE PUSH1 0x1 PUSH1 0x1 PUSH1 0xA0 SHL SUB SWAP1 SWAP2 AND SWAP1 PUSH4 0x23B872DD SWAP1 PUSH2 0x1600 SWAP1 CALLER SWAP1 ADDRESS SWAP1 DUP9 SWAP1 PUSH1 0x4 ADD PUSH2 0x22AE JUMP JUMPDEST PUSH1 0x20 PUSH1 0x40 MLOAD DUP1 DUP4 SUB DUP2 PUSH0 DUP8 GAS CALL ISZERO DUP1 ISZERO PUSH2 0x161C JUMPI RETURNDATASIZE PUSH0 DUP1 RETURNDATACOPY RETURNDATASIZE PUSH0 REVERT JUMPDEST POP POP POP POP PUSH1 0x40 MLOAD RETURNDATASIZE PUSH1 0x1F NOT PUSH1 0x1F DUP3 ADD AND DUP3 ADD DUP1 PUSH1 0x40 MSTORE POP DUP2 ADD SWAP1 PUSH2 0x1640 SWAP2 SWAP1 PUSH2 0x2293 JUMP JUMPDEST POP PUSH1 0x17 SLOAD PUSH1 0x40 MLOAD PUSH4 0xA9059CBB PUSH1 0xE0 SHL DUP2 MSTORE CALLER PUSH1 0x4 DUP3 ADD MSTORE PUSH1 0x24 DUP2 ADD DUP4 SWAP1 MSTORE PUSH1 0x1 PUSH1 0x1 PUSH1 0xA0 SHL SUB SWAP1 SWAP2 AND SWAP1 PUSH4 0xA9059CBB SWAP1 PUSH1 0x44 ADD PUSH1 0x20 PUSH1 0x40 MLOAD DUP1 DUP4 SUB DUP2 PUSH0 DUP8 GAS CALL ISZERO DUP1 ISZERO PUSH2 0x168F JUMPI RETURNDATASIZE PUSH0 DUP1 RETURNDATACOPY RETURNDATASIZE PUSH0 REVERT JUMPDEST POP POP POP POP PUSH1 0x40 MLOAD RETURNDATASIZE PUSH1 0x1F NOT PUSH1 0x1F DUP3 ADD AND DUP3 ADD DUP1 PUSH1 0x40 MSTORE POP DUP2 ADD SWAP1 PUSH2 0x16B3 SWAP2 SWAP1 PUSH2 0x2293 JUMP JUMPDEST POP PUSH1 0x40 DUP1 MLOAD PUSH0 DUP1 DUP3 MSTORE PUSH1 0x20 DUP3 ADD DUP7 SWAP1 MSTORE DUP2 DUP4 ADD DUP6 SWAP1 MSTORE PUSH1 0x60 DUP3 ADD MSTORE SWAP1 MLOAD ADDRESS SWAP2 CALLER SWAP2 PUSH32 0xD78AD95FA46C994B6551D0DA85FC275FE613CE37657FB8D5E3D130840159D822 SWAP2 DUP2 SWAP1 SUB PUSH1 0x80 ADD SWAP1 LOG3 PUSH2 0xAD0 DUP4 PUSH2 0x1D01 JUMP JUMPDEST PUSH0 PUSH2 0x1711 DUP4 PUSH2 0xD0D JUMP JUMPDEST SWAP1 POP DUP2 DUP2 LT ISZERO PUSH2 0x1733 JUMPI PUSH1 0x40 MLOAD PUSH3 0x461BCD PUSH1 0xE5 SHL DUP2 MSTORE PUSH1 0x4 ADD PUSH2 0x6C1 SWAP1 PUSH2 0x225C JUMP JUMPDEST PUSH1 0x17 SLOAD PUSH1 0x40 MLOAD PUSH4 0x23B872DD PUSH1 0xE0 SHL DUP2 MSTORE PUSH1 0x1 PUSH1 0x1 PUSH1 0xA0 SHL SUB SWAP1 SWAP2 AND SWAP1 PUSH4 0x23B872DD SWAP1 PUSH2 0x1767 SWAP1 CALLER SWAP1 ADDRESS SWAP1 DUP9 SWAP1 PUSH1 0x4 ADD PUSH2 0x22AE JUMP JUMPDEST PUSH1 0x20 PUSH1 0x40 MLOAD DUP1 DUP4 SUB DUP2 PUSH0 DUP8 GAS CALL ISZERO DUP1 ISZERO PUSH2 0x1783 JUMPI RETURNDATASIZE PUSH0 DUP1 RETURNDATACOPY RETURNDATASIZE PUSH0 REVERT JUMPDEST POP POP POP POP PUSH1 0x40 MLOAD RETURNDATASIZE PUSH1 0x1F NOT PUSH1 0x1F DUP3 ADD AND DUP3 ADD DUP1 PUSH1 0x40 MSTORE POP DUP2 ADD SWAP1 PUSH2 0x17A7 SWAP2 SWAP1 PUSH2 0x2293 JUMP JUMPDEST POP PUSH0 PUSH2 0x17C3 DUP3 PUSH1 0x20 SLOAD PUSH2 0x17BA SWAP2 SWAP1 PUSH2 0x2245 JUMP JUMPDEST PUSH3 0xF4240 PUSH2 0x124A JUMP JUMPDEST PUSH1 0x18 SLOAD PUSH1 0x16 SLOAD PUSH1 0x40 MLOAD PUSH4 0xA9059CBB PUSH1 0xE0 SHL DUP2 MSTORE PUSH1 0x1 PUSH1 0x1 PUSH1 0xA0 SHL SUB SWAP2 DUP3 AND PUSH1 0x4 DUP3 ADD MSTORE PUSH1 0x24 DUP2 ADD DUP5 SWAP1 MSTORE SWAP3 SWAP4 POP AND SWAP1 PUSH4 0xA9059CBB SWAP1 PUSH1 0x44 ADD PUSH1 0x20 PUSH1 0x40 MLOAD DUP1 DUP4 SUB DUP2 PUSH0 DUP8 GAS CALL ISZERO DUP1 ISZERO PUSH2 0x1817 JUMPI RETURNDATASIZE PUSH0 DUP1 RETURNDATACOPY RETURNDATASIZE PUSH0 REVERT JUMPDEST POP POP POP POP PUSH1 0x40 MLOAD RETURNDATASIZE PUSH1 0x1F NOT PUSH1 0x1F DUP3 ADD AND DUP3 ADD DUP1 PUSH1 0x40 MSTORE POP DUP2 ADD SWAP1 PUSH2 0x183B SWAP2 SWAP1 PUSH2 0x2293 JUMP JUMPDEST POP PUSH1 0x18 SLOAD PUSH1 0x1 PUSH1 0x1 PUSH1 0xA0 SHL SUB AND PUSH4 0xA9059CBB CALLER PUSH2 0x1858 DUP5 DUP7 PUSH2 0x2163 JUMP JUMPDEST PUSH1 0x40 MLOAD PUSH1 0x1 PUSH1 0x1 PUSH1 0xE0 SHL SUB NOT PUSH1 0xE0 DUP6 SWAP1 SHL AND DUP2 MSTORE PUSH1 0x1 PUSH1 0x1 PUSH1 0xA0 SHL SUB SWAP1 SWAP3 AND PUSH1 0x4 DUP4 ADD MSTORE PUSH1 0x24 DUP3 ADD MSTORE PUSH1 0x44 ADD PUSH1 0x20 PUSH1 0x40 MLOAD DUP1 DUP4 SUB DUP2 PUSH0 DUP8 GAS CALL ISZERO DUP1 ISZERO PUSH2 0x18A0 JUMPI RETURNDATASIZE PUSH0 DUP1 RETURNDATACOPY RETURNDATASIZE PUSH0 REVERT JUMPDEST POP POP POP POP PUSH1 0x40 MLOAD RETURNDATASIZE PUSH1 0x1F NOT PUSH1 0x1F DUP3 ADD AND DUP3 ADD DUP1 PUSH1 0x40 MSTORE POP DUP2 ADD SWAP1 PUSH2 0x18C4 SWAP2 SWAP1 PUSH2 0x2293 JUMP JUMPDEST POP PUSH1 0x40 DUP1 MLOAD DUP6 DUP2 MSTORE PUSH0 PUSH1 0x20 DUP3 ADD DUP2 SWAP1 MSTORE DUP2 DUP4 ADD MSTORE PUSH1 0x60 DUP2 ADD DUP6 SWAP1 MSTORE SWAP1 MLOAD ADDRESS SWAP2 CALLER SWAP2 PUSH32 0xD78AD95FA46C994B6551D0DA85FC275FE613CE37657FB8D5E3D130840159D822 SWAP2 DUP2 SWAP1 SUB PUSH1 0x80 ADD SWAP1 LOG3 POP POP POP POP JUMP JUMPDEST PUSH1 0x18 SLOAD PUSH1 0x40 MLOAD PUSH4 0x70A08231 PUSH1 0xE0 SHL DUP2 MSTORE ADDRESS PUSH1 0x4 DUP3 ADD MSTORE PUSH0 SWAP2 PUSH1 0x1 PUSH1 0x1 PUSH1 0xA0 SHL SUB AND SWAP1 PUSH4 0x70A08231 SWAP1 PUSH1 0x24 ADD PUSH2 0x1183 JUMP JUMPDEST PUSH1 0x3 SLOAD PUSH1 0x1 SLOAD PUSH1 0x2 SLOAD PUSH2 0x1958 SWAP2 SWAP1 PUSH2 0x2163 JUMP JUMPDEST SUB PUSH2 0x1997 JUMPI PUSH1 0x1 DUP1 SLOAD PUSH0 SWAP1 DUP2 MSTORE PUSH1 0x20 DUP2 SWAP1 MSTORE PUSH1 0x40 DUP2 KECCAK256 DUP2 DUP2 SSTORE DUP1 DUP4 ADD DUP3 SWAP1 SSTORE PUSH1 0x2 DUP2 ADD DUP3 SWAP1 SSTORE PUSH1 0x3 ADD DUP2 SWAP1 SSTORE DUP2 SLOAD SWAP2 SWAP1 PUSH2 0x1991 DUP4 PUSH2 0x222D JUMP JUMPDEST SWAP2 SWAP1 POP SSTORE POP JUMPDEST PUSH1 0x2 DUP1 SLOAD SWAP1 PUSH0 PUSH2 0x19A6 DUP4 PUSH2 0x222D JUMP JUMPDEST SWAP1 SWAP2 SSTORE POP POP PUSH1 0x40 DUP1 MLOAD PUSH1 0x80 DUP2 ADD DUP3 MSTORE SWAP4 DUP5 MSTORE PUSH1 0x20 DUP1 DUP6 ADD SWAP4 DUP5 MSTORE DUP5 DUP3 ADD SWAP3 DUP4 MSTORE TIMESTAMP PUSH1 0x60 DUP7 ADD SWAP1 DUP2 MSTORE PUSH1 0x2 DUP1 SLOAD PUSH0 SWAP1 DUP2 MSTORE SWAP3 DUP4 SWAP1 MSTORE SWAP3 SWAP1 SWAP2 KECCAK256 SWAP5 MLOAD DUP6 SSTORE SWAP3 MLOAD PUSH1 0x1 DUP6 ADD SSTORE SWAP1 MLOAD SWAP1 DUP4 ADD SSTORE MLOAD PUSH1 0x3 SWAP1 SWAP2 ADD SSTORE JUMP JUMPDEST PUSH1 0xD SLOAD PUSH1 0xB SLOAD PUSH1 0xC SLOAD PUSH2 0x1A0B SWAP2 SWAP1 PUSH2 0x2163 JUMP JUMPDEST SUB PUSH2 0x1A4F JUMPI PUSH1 0x1 PUSH1 0x1 PUSH1 0xA0 SHL SUB DUP3 AND PUSH0 SWAP1 DUP2 MSTORE PUSH1 0x6 PUSH1 0x20 SWAP1 DUP2 MSTORE PUSH1 0x40 DUP1 DUP4 KECCAK256 PUSH1 0xB DUP1 SLOAD DUP6 MSTORE SWAP3 MSTORE DUP3 KECCAK256 DUP3 DUP2 SSTORE PUSH1 0x1 ADD DUP3 SWAP1 SSTORE DUP1 SLOAD SWAP2 PUSH2 0x1A49 DUP4 PUSH2 0x222D JUMP JUMPDEST SWAP2 SWAP1 POP SSTORE POP JUMPDEST PUSH1 0xC DUP1 SLOAD SWAP1 PUSH0 PUSH2 0x1A5E DUP4 PUSH2 0x222D JUMP JUMPDEST SWAP1 SWAP2 SSTORE POP POP PUSH1 0x40 DUP1 MLOAD DUP1 DUP3 ADD DUP3 MSTORE SWAP2 DUP3 MSTORE TIMESTAMP PUSH1 0x20 DUP1 DUP5 ADD SWAP2 DUP3 MSTORE PUSH1 0x1 PUSH1 0x1 PUSH1 0xA0 SHL SUB SWAP1 SWAP5 AND PUSH0 SWAP1 DUP2 MSTORE PUSH1 0x6 DUP6 MSTORE DUP3 DUP2 KECCAK256 PUSH1 0xC SLOAD DUP3 MSTORE SWAP1 SWAP5 MSTORE SWAP3 KECCAK256 SWAP1 MLOAD DUP2 SSTORE SWAP1 MLOAD PUSH1 0x1 SWAP1 SWAP2 ADD SSTORE JUMP JUMPDEST PUSH1 0x14 SLOAD PUSH1 0x1 PUSH1 0x1 PUSH1 0xA0 SHL SUB AND CALLER EQ PUSH2 0xAE6 JUMPI PUSH1 0x40 MLOAD PUSH3 0x461BCD PUSH1 0xE5 SHL DUP2 MSTORE PUSH1 0x20 PUSH1 0x4 DUP3 ADD DUP2 SWAP1 MSTORE PUSH1 0x24 DUP3 ADD MSTORE PUSH32 0x4F776E61626C653A2063616C6C6572206973206E6F7420746865206F776E6572 PUSH1 0x44 DUP3 ADD MSTORE PUSH1 0x64 ADD PUSH2 0x6C1 JUMP JUMPDEST PUSH1 0x14 DUP1 SLOAD PUSH1 0x1 PUSH1 0x1 PUSH1 0xA0 SHL SUB DUP4 DUP2 AND PUSH1 0x1 PUSH1 0x1 PUSH1 0xA0 SHL SUB NOT DUP4 AND DUP2 OR SWAP1 SWAP4 SSTORE PUSH1 0x40 MLOAD SWAP2 AND SWAP2 SWAP1 DUP3 SWAP1 PUSH32 0x8BE0079C531659141344CD1FD0A4F28419497F9722A3DAAFE3B4186F6B6457E0 SWAP1 PUSH0 SWAP1 LOG3 POP POP JUMP JUMPDEST PUSH1 0x1 PUSH1 0x1 PUSH1 0xA0 SHL SUB DUP3 AND PUSH2 0x1BA7 JUMPI PUSH1 0x40 MLOAD PUSH3 0x461BCD PUSH1 0xE5 SHL DUP2 MSTORE PUSH1 0x20 PUSH1 0x4 DUP3 ADD MSTORE PUSH1 0x1F PUSH1 0x24 DUP3 ADD MSTORE PUSH32 0x45524332303A206D696E7420746F20746865207A65726F206164647265737300 PUSH1 0x44 DUP3 ADD MSTORE PUSH1 0x64 ADD PUSH2 0x6C1 JUMP JUMPDEST DUP1 PUSH1 0x10 PUSH0 DUP3 DUP3 SLOAD PUSH2 0x1BB8 SWAP2 SWAP1 PUSH2 0x2150 JUMP JUMPDEST SWAP1 SWAP2 SSTORE POP POP PUSH1 0x1 PUSH1 0x1 PUSH1 0xA0 SHL SUB DUP3 AND PUSH0 DUP2 DUP2 MSTORE PUSH1 0xE PUSH1 0x20 SWAP1 DUP2 MSTORE PUSH1 0x40 DUP1 DUP4 KECCAK256 DUP1 SLOAD DUP7 ADD SWAP1 SSTORE MLOAD DUP5 DUP2 MSTORE PUSH32 0xDDF252AD1BE2C89B69C2B068FC378DAA952BA7F163C4A11628F55A4DF523B3EF SWAP2 ADD PUSH1 0x40 MLOAD DUP1 SWAP2 SUB SWAP1 LOG3 JUMPDEST POP POP JUMP JUMPDEST PUSH0 PUSH2 0x1C1A PUSH2 0x1157 JUMP JUMPDEST SWAP1 POP PUSH0 PUSH2 0x1C25 PUSH2 0x11C7 JUMP JUMPDEST SWAP1 POP PUSH1 0x1C SLOAD DUP2 PUSH2 0x1C35 SWAP2 SWAP1 PUSH2 0x2150 JUMP JUMPDEST PUSH1 0x1B SLOAD PUSH2 0x1C42 SWAP1 DUP5 PUSH2 0x2150 JUMP JUMPDEST PUSH2 0x1C4C SWAP2 SWAP1 PUSH2 0x2245 JUMP JUMPDEST PUSH1 0x1D SSTORE POP POP JUMP JUMPDEST PUSH1 0xD SLOAD PUSH1 0x9 SLOAD PUSH1 0xA SLOAD PUSH2 0x1C66 SWAP2 SWAP1 PUSH2 0x2163 JUMP JUMPDEST SUB PUSH2 0x1CAA JUMPI PUSH1 0x1 PUSH1 0x1 PUSH1 0xA0 SHL SUB DUP3 AND PUSH0 SWAP1 DUP2 MSTORE PUSH1 0x5 PUSH1 0x20 SWAP1 DUP2 MSTORE PUSH1 0x40 DUP1 DUP4 KECCAK256 PUSH1 0x9 DUP1 SLOAD DUP6 MSTORE SWAP3 MSTORE DUP3 KECCAK256 DUP3 DUP2 SSTORE PUSH1 0x1 ADD DUP3 SWAP1 SSTORE DUP1 SLOAD SWAP2 PUSH2 0x1CA4 DUP4 PUSH2 0x222D JUMP JUMPDEST SWAP2 SWAP1 POP SSTORE POP JUMPDEST PUSH1 0xA DUP1 SLOAD SWAP1 PUSH0 PUSH2 0x1CB9 DUP4 PUSH2 0x222D JUMP JUMPDEST SWAP1 SWAP2 SSTORE POP POP PUSH1 0x40 DUP1 MLOAD DUP1 DUP3 ADD DUP3 MSTORE SWAP2 DUP3 MSTORE TIMESTAMP PUSH1 0x20 DUP1 DUP5 ADD SWAP2 DUP3 MSTORE PUSH1 0x1 PUSH1 0x1 PUSH1 0xA0 SHL SUB SWAP1 SWAP5 AND PUSH0 SWAP1 DUP2 MSTORE PUSH1 0x5 DUP6 MSTORE DUP3 DUP2 KECCAK256 PUSH1 0xA SLOAD DUP3 MSTORE SWAP1 SWAP5 MSTORE SWAP3 KECCAK256 SWAP1 MLOAD DUP2 SSTORE SWAP1 MLOAD PUSH1 0x1 SWAP1 SWAP2 ADD SSTORE JUMP JUMPDEST PUSH1 0x23 SLOAD PUSH0 SUB PUSH2 0x1D0D JUMPI POP JUMP JUMPDEST PUSH0 JUMPDEST PUSH1 0x23 SLOAD DUP2 LT ISZERO PUSH2 0x1C0D JUMPI PUSH0 DUP2 DUP2 MSTORE PUSH1 0x22 PUSH1 0x20 SWAP1 DUP2 MSTORE PUSH1 0x40 DUP1 DUP4 KECCAK256 SLOAD PUSH1 0x1 PUSH1 0x1 PUSH1 0xA0 SHL SUB AND DUP4 MSTORE PUSH1 0xE SWAP1 SWAP2 MSTORE DUP2 KECCAK256 SLOAD PUSH1 0x21 SLOAD SWAP1 SWAP2 SWAP1 PUSH2 0x1D6B SWAP1 PUSH2 0x1D51 DUP5 DUP8 PUSH2 0x2245 JUMP JUMPDEST PUSH2 0x1D5B SWAP2 SWAP1 PUSH2 0x2245 JUMP JUMPDEST PUSH10 0x152D02C7E14AF6800000 PUSH2 0x124A JUMP JUMPDEST PUSH0 DUP5 DUP2 MSTORE PUSH1 0x22 PUSH1 0x20 MSTORE PUSH1 0x40 SWAP1 KECCAK256 SLOAD SWAP1 SWAP2 POP PUSH2 0x1D8F SWAP1 PUSH1 0x1 PUSH1 0x1 PUSH1 0xA0 SHL SUB AND DUP3 PUSH2 0x1B51 JUMP JUMPDEST PUSH0 DUP4 DUP2 MSTORE PUSH1 0x22 PUSH1 0x20 MSTORE PUSH1 0x40 SWAP1 KECCAK256 SLOAD PUSH2 0x1DB0 SWAP1 PUSH1 0x1 PUSH1 0x1 PUSH1 0xA0 SHL SUB AND DUP3 PUSH2 0x1DC5 JUMP JUMPDEST POP POP DUP1 DUP1 PUSH2 0x1DBD SWAP1 PUSH2 0x222D JUMP JUMPDEST SWAP2 POP POP PUSH2 0x1D0F JUMP JUMPDEST PUSH1 0xD SLOAD PUSH1 0x7 SLOAD PUSH1 0x8 SLOAD PUSH2 0x1DD8 SWAP2 SWAP1 PUSH2 0x2163 JUMP JUMPDEST SUB PUSH2 0x1E1C JUMPI PUSH1 0x1 PUSH1 0x1 PUSH1 0xA0 SHL SUB DUP3 AND PUSH0 SWAP1 DUP2 MSTORE PUSH1 0x4 PUSH1 0x20 SWAP1 DUP2 MSTORE PUSH1 0x40 DUP1 DUP4 KECCAK256 PUSH1 0x7 DUP1 SLOAD DUP6 MSTORE SWAP3 MSTORE DUP3 KECCAK256 DUP3 DUP2 SSTORE PUSH1 0x1 ADD DUP3 SWAP1 SSTORE DUP1 SLOAD SWAP2 PUSH2 0x1E16 DUP4 PUSH2 0x222D JUMP JUMPDEST SWAP2 SWAP1 POP SSTORE POP JUMPDEST PUSH1 0x8 DUP1 SLOAD SWAP1 PUSH0 PUSH2 0x1E2B DUP4 PUSH2 0x222D JUMP JUMPDEST SWAP1 SWAP2 SSTORE POP POP PUSH1 0x40 DUP1 MLOAD DUP1 DUP3 ADD DUP3 MSTORE SWAP2 DUP3 MSTORE TIMESTAMP PUSH1 0x20 DUP1 DUP5 ADD SWAP2 DUP3 MSTORE PUSH1 0x1 PUSH1 0x1 PUSH1 0xA0 SHL SUB SWAP1 SWAP5 AND PUSH0 SWAP1 DUP2 MSTORE PUSH1 0x4 DUP6 MSTORE DUP3 DUP2 KECCAK256 PUSH1 0x8 SLOAD DUP3 MSTORE SWAP1 SWAP5 MSTORE SWAP3 KECCAK256 SWAP1 MLOAD DUP2 SSTORE SWAP1 MLOAD PUSH1 0x1 SWAP1 SWAP2 ADD SSTORE JUMP JUMPDEST PUSH0 PUSH1 0x20 DUP3 DUP5 SUB SLT ISZERO PUSH2 0x1E83 JUMPI PUSH0 DUP1 REVERT JUMPDEST POP CALLDATALOAD SWAP2 SWAP1 POP JUMP JUMPDEST PUSH0 PUSH1 0x20 DUP1 DUP4 MSTORE DUP4 MLOAD DUP1 DUP3 DUP6 ADD MSTORE PUSH0 JUMPDEST DUP2 DUP2 LT ISZERO PUSH2 0x1EB5 JUMPI DUP6 DUP2 ADD DUP4 ADD MLOAD DUP6 DUP3 ADD PUSH1 0x40 ADD MSTORE DUP3 ADD PUSH2 0x1E99 JUMP JUMPDEST POP PUSH0 PUSH1 0x40 DUP3 DUP7 ADD ADD MSTORE PUSH1 0x40 PUSH1 0x1F NOT PUSH1 0x1F DUP4 ADD AND DUP6 ADD ADD SWAP3 POP POP POP SWAP3 SWAP2 POP POP JUMP JUMPDEST DUP1 CALLDATALOAD PUSH1 0x1 PUSH1 0x1 PUSH1 0xA0 SHL SUB DUP2 AND DUP2 EQ PUSH2 0x1EEB JUMPI PUSH0 DUP1 REVERT JUMPDEST SWAP2 SWAP1 POP JUMP JUMPDEST PUSH0 DUP1 PUSH1 0x40 DUP4 DUP6 SUB SLT ISZERO PUSH2 0x1F01 JUMPI PUSH0 DUP1 REVERT JUMPDEST PUSH2 0x1F0A DUP4 PUSH2 0x1ED5 JUMP JUMPDEST SWAP5 PUSH1 0x20 SWAP4 SWAP1 SWAP4 ADD CALLDATALOAD SWAP4 POP POP POP JUMP JUMPDEST PUSH0 DUP1 PUSH0 PUSH1 0x60 DUP5 DUP7 SUB SLT ISZERO PUSH2 0x1F2A JUMPI PUSH0 DUP1 REVERT JUMPDEST PUSH2 0x1F33 DUP5 PUSH2 0x1ED5 JUMP JUMPDEST SWAP3 POP PUSH2 0x1F41 PUSH1 0x20 DUP6 ADD PUSH2 0x1ED5 JUMP JUMPDEST SWAP2 POP PUSH1 0x40 DUP5 ADD CALLDATALOAD SWAP1 POP SWAP3 POP SWAP3 POP SWAP3 JUMP JUMPDEST DUP1 ISZERO ISZERO DUP2 EQ PUSH2 0x1154 JUMPI PUSH0 DUP1 REVERT JUMPDEST PUSH0 DUP1 PUSH0 PUSH1 0x60 DUP5 DUP7 SUB SLT ISZERO PUSH2 0x1F70 JUMPI PUSH0 DUP1 REVERT JUMPDEST DUP4 CALLDATALOAD SWAP3 POP PUSH1 0x20 DUP5 ADD CALLDATALOAD SWAP2 POP PUSH1 0x40 DUP5 ADD CALLDATALOAD PUSH2 0x1F89 DUP2 PUSH2 0x1F51 JUMP JUMPDEST DUP1 SWAP2 POP POP SWAP3 POP SWAP3 POP SWAP3 JUMP JUMPDEST PUSH0 PUSH1 0x20 DUP3 DUP5 SUB SLT ISZERO PUSH2 0x1FA4 JUMPI PUSH0 DUP1 REVERT JUMPDEST PUSH2 0x1255 DUP3 PUSH2 0x1ED5 JUMP JUMPDEST PUSH1 0x20 DUP1 DUP3 MSTORE DUP3 MLOAD DUP3 DUP3 ADD DUP2 SWAP1 MSTORE PUSH0 SWAP2 SWAP1 PUSH1 0x40 SWAP1 DUP2 DUP6 ADD SWAP1 DUP7 DUP5 ADD DUP6 JUMPDEST DUP3 DUP2 LT ISZERO PUSH2 0x1FF6 JUMPI PUSH2 0x1FE6 DUP5 DUP4 MLOAD DUP1 MLOAD DUP3 MSTORE PUSH1 0x20 SWAP1 DUP2 ADD MLOAD SWAP2 ADD MSTORE JUMP JUMPDEST SWAP3 DUP5 ADD SWAP3 SWAP1 DUP6 ADD SWAP1 PUSH1 0x1 ADD PUSH2 0x1FC9 JUMP JUMPDEST POP SWAP2 SWAP8 SWAP7 POP POP POP POP POP POP POP JUMP JUMPDEST PUSH1 0x20 DUP1 DUP3 MSTORE DUP3 MLOAD DUP3 DUP3 ADD DUP2 SWAP1 MSTORE PUSH0 SWAP2 SWAP1 PUSH1 0x40 SWAP1 DUP2 DUP6 ADD SWAP1 DUP7 DUP5 ADD DUP6 JUMPDEST DUP3 DUP2 LT ISZERO PUSH2 0x1FF6 JUMPI DUP2 MLOAD DUP1 MLOAD DUP6 MSTORE DUP7 DUP2 ADD MLOAD DUP8 DUP7 ADD MSTORE DUP6 DUP2 ADD MLOAD DUP7 DUP7 ADD MSTORE PUSH1 0x60 SWAP1 DUP2 ADD MLOAD SWAP1 DUP6 ADD MSTORE PUSH1 0x80 SWAP1 SWAP4 ADD SWAP3 SWAP1 DUP6 ADD SWAP1 PUSH1 0x1 ADD PUSH2 0x201F JUMP JUMPDEST PUSH0 DUP1 PUSH1 0x40 DUP4 DUP6 SUB SLT ISZERO PUSH2 0x206A JUMPI PUSH0 DUP1 REVERT JUMPDEST POP POP DUP1 CALLDATALOAD SWAP3 PUSH1 0x20 SWAP1 SWAP2 ADD CALLDATALOAD SWAP2 POP JUMP JUMPDEST PUSH1 0x20 DUP1 DUP3 MSTORE DUP3 MLOAD DUP3 DUP3 ADD DUP2 SWAP1 MSTORE PUSH0 SWAP2 SWAP1 PUSH1 0x40 SWAP1 DUP2 DUP6 ADD SWAP1 DUP7 DUP5 ADD DUP6 JUMPDEST DUP3 DUP2 LT ISZERO PUSH2 0x1FF6 JUMPI PUSH2 0x20B2 DUP5 DUP4 MLOAD DUP1 MLOAD DUP3 MSTORE PUSH1 0x20 SWAP1 DUP2 ADD MLOAD SWAP2 ADD MSTORE JUMP JUMPDEST SWAP3 DUP5 ADD SWAP3 SWAP1 DUP6 ADD SWAP1 PUSH1 0x1 ADD PUSH2 0x2095 JUMP JUMPDEST PUSH1 0x20 DUP1 DUP3 MSTORE DUP3 MLOAD DUP3 DUP3 ADD DUP2 SWAP1 MSTORE PUSH0 SWAP2 SWAP1 PUSH1 0x40 SWAP1 DUP2 DUP6 ADD SWAP1 DUP7 DUP5 ADD DUP6 JUMPDEST DUP3 DUP2 LT ISZERO PUSH2 0x1FF6 JUMPI PUSH2 0x20FB DUP5 DUP4 MLOAD DUP1 MLOAD DUP3 MSTORE PUSH1 0x20 SWAP1 DUP2 ADD MLOAD SWAP2 ADD MSTORE JUMP JUMPDEST SWAP3 DUP5 ADD SWAP3 SWAP1 DUP6 ADD SWAP1 PUSH1 0x1 ADD PUSH2 0x20DE JUMP JUMPDEST PUSH0 DUP1 PUSH1 0x40 DUP4 DUP6 SUB SLT ISZERO PUSH2 0x211C JUMPI PUSH0 DUP1 REVERT JUMPDEST PUSH2 0x2125 DUP4 PUSH2 0x1ED5 JUMP JUMPDEST SWAP2 POP PUSH2 0x2133 PUSH1 0x20 DUP5 ADD PUSH2 0x1ED5 JUMP JUMPDEST SWAP1 POP SWAP3 POP SWAP3 SWAP1 POP JUMP JUMPDEST PUSH4 0x4E487B71 PUSH1 0xE0 SHL PUSH0 MSTORE PUSH1 0x11 PUSH1 0x4 MSTORE PUSH1 0x24 PUSH0 REVERT JUMPDEST DUP1 DUP3 ADD DUP1 DUP3 GT ISZERO PUSH2 0x68F JUMPI PUSH2 0x68F PUSH2 0x213C JUMP JUMPDEST DUP2 DUP2 SUB DUP2 DUP2 GT ISZERO PUSH2 0x68F JUMPI PUSH2 0x68F PUSH2 0x213C JUMP JUMPDEST PUSH1 0x1 DUP2 DUP2 SHR SWAP1 DUP3 AND DUP1 PUSH2 0x218A JUMPI PUSH1 0x7F DUP3 AND SWAP2 POP JUMPDEST PUSH1 0x20 DUP3 LT DUP2 SUB PUSH2 0x9D2 JUMPI PUSH4 0x4E487B71 PUSH1 0xE0 SHL PUSH0 MSTORE PUSH1 0x22 PUSH1 0x4 MSTORE PUSH1 0x24 PUSH0 REVERT JUMPDEST PUSH1 0x20 DUP1 DUP3 MSTORE PUSH1 0x37 SWAP1 DUP3 ADD MSTORE PUSH32 0x546869732066756E6374696F6E2063616E206F6E6C792062652063616C6C6564 PUSH1 0x40 DUP3 ADD MSTORE PUSH32 0x20627920746865206C697175696469747920706F6F6C2E000000000000000000 PUSH1 0x60 DUP3 ADD MSTORE PUSH1 0x80 ADD SWAP1 JUMP JUMPDEST PUSH4 0x4E487B71 PUSH1 0xE0 SHL PUSH0 MSTORE PUSH1 0x41 PUSH1 0x4 MSTORE PUSH1 0x24 PUSH0 REVERT JUMPDEST PUSH4 0x4E487B71 PUSH1 0xE0 SHL PUSH0 MSTORE PUSH1 0x32 PUSH1 0x4 MSTORE PUSH1 0x24 PUSH0 REVERT JUMPDEST PUSH0 PUSH1 0x1 DUP3 ADD PUSH2 0x223E JUMPI PUSH2 0x223E PUSH2 0x213C JUMP JUMPDEST POP PUSH1 0x1 ADD SWAP1 JUMP JUMPDEST DUP1 DUP3 MUL DUP2 ISZERO DUP3 DUP3 DIV DUP5 EQ OR PUSH2 0x68F JUMPI PUSH2 0x68F PUSH2 0x213C JUMP JUMPDEST PUSH1 0x20 DUP1 DUP3 MSTORE PUSH1 0x1A SWAP1 DUP3 ADD MSTORE PUSH32 0x496E73756666696369656E74206F757470757420616D6F756E74000000000000 PUSH1 0x40 DUP3 ADD MSTORE PUSH1 0x60 ADD SWAP1 JUMP JUMPDEST PUSH0 PUSH1 0x20 DUP3 DUP5 SUB SLT ISZERO PUSH2 0x22A3 JUMPI PUSH0 DUP1 REVERT JUMPDEST DUP2 MLOAD PUSH2 0x1255 DUP2 PUSH2 0x1F51 JUMP JUMPDEST PUSH1 0x1 PUSH1 0x1 PUSH1 0xA0 SHL SUB SWAP4 DUP5 AND DUP2 MSTORE SWAP2 SWAP1 SWAP3 AND PUSH1 0x20 DUP3 ADD MSTORE PUSH1 0x40 DUP2 ADD SWAP2 SWAP1 SWAP2 MSTORE PUSH1 0x60 ADD SWAP1 JUMP JUMPDEST PUSH0 PUSH1 0x20 DUP3 DUP5 SUB SLT ISZERO PUSH2 0x22E2 JUMPI PUSH0 DUP1 REVERT JUMPDEST POP MLOAD SWAP2 SWAP1 POP JUMP JUMPDEST PUSH0 DUP3 PUSH2 0x2303 JUMPI PUSH4 0x4E487B71 PUSH1 0xE0 SHL PUSH0 MSTORE PUSH1 0x12 PUSH1 0x4 MSTORE PUSH1 0x24 PUSH0 REVERT JUMPDEST POP DIV SWAP1 JUMP INVALID LOG2 PUSH5 0x6970667358 0x22 SLT KECCAK256 0xB1 STATICCALL 0xC7 0xE SGT PUSH31 0xD19B3D8C8F007284FBB8CF0A7A87F8F5A8BCF4324FA64B1CC06D64736F6C63 NUMBER STOP ADDMOD ISZERO STOP CALLER "
		},
		"gasEstimates": {
			"creation": {
				"codeDepositCost": "1804400",
				"executionCost": "infinite",
				"totalCost": "infinite"
			},
			"external": {
				"allowance(address,address)": "infinite",
				"approve(address,uint256)": "24692",
				"balanceOf(address)": "2634",
				"decimals()": "310",
				"decreaseAllowance(address,uint256)": "27056",
				"deposit(uint256)": "infinite",
				"depositorInfos(uint256)": "6814",
				"factory()": "2469",
				"factoryOwner()": "2470",
				"getDeposits(address)": "infinite",
				"getProps()": "infinite",
				"getRewards(address)": "infinite",
				"getTicks()": "infinite",
				"getWithdrawals(address)": "infinite",
				"increaseAllowance(address,uint256)": "infinite",
				"interest()": "2394",
				"kConstant()": "2372",
				"maxRecords()": "2351",
				"maxTicks()": "2395",
				"name()": "infinite",
				"owner()": "2464",
				"protocolFee()": "2350",
				"renounceOwnership()": "infinite",
				"swap(uint256,uint256,bool)": "infinite",
				"symbol()": "infinite",
				"testKConstant()": "infinite",
				"token0()": "2449",
				"token0BasePrice()": "2415",
				"token0Constant()": "2328",
				"token0DepositAmount()": "2373",
				"token0MaxPrice()": "2329",
				"token0Output(uint256)": "infinite",
				"token1()": "2402",
				"token1Constant()": "2351",
				"token1DepositAmount()": "2418",
				"token1Output(uint256)": "infinite",
				"totalSupply()": "2326",
				"transfer(address,uint256)": "53330",
				"transferFrom(address,address,uint256)": "infinite",
				"transferOwnership(address)": "28487",
				"withdraw(uint256,uint256)": "infinite"
			},
			"internal": {
				"_addInterest(uint256)": "infinite",
				"_allToken1Balance()": "infinite",
				"_buy(uint256,uint256)": "infinite",
				"_sell(uint256,uint256)": "infinite",
				"_token0Balance()": "infinite",
				"_token1Balance()": "infinite",
				"_updateKConstant()": "infinite",
				"calcToken0Constant(uint256,uint256,uint256)": "infinite",
				"calcToken1Constant(address,uint256,uint256,uint256,uint256)": "infinite"
			}
		},
		"methodIdentifiers": {
			"allowance(address,address)": "dd62ed3e",
			"approve(address,uint256)": "095ea7b3",
			"balanceOf(address)": "70a08231",
			"decimals()": "313ce567",
			"decreaseAllowance(address,uint256)": "a457c2d7",
			"deposit(uint256)": "b6b55f25",
			"depositorInfos(uint256)": "ccbaf736",
			"factory()": "c45a0155",
			"factoryOwner()": "4273601c",
			"getDeposits(address)": "94f649dd",
			"getProps()": "ec1893b4",
			"getRewards(address)": "79ee54f7",
			"getTicks()": "3d1c387b",
			"getWithdrawals(address)": "3a2b643a",
			"increaseAllowance(address,uint256)": "39509351",
			"interest()": "c392f766",
			"kConstant()": "5a656c24",
			"maxRecords()": "7b0a3a8d",
			"maxTicks()": "870e415e",
			"name()": "06fdde03",
			"owner()": "8da5cb5b",
			"protocolFee()": "b0e21e8a",
			"renounceOwnership()": "715018a6",
			"swap(uint256,uint256,bool)": "2bec60fe",
			"symbol()": "95d89b41",
			"testKConstant()": "433065d0",
			"token0()": "0dfe1681",
			"token0BasePrice()": "ef3501b9",
			"token0Constant()": "aff56c14",
			"token0DepositAmount()": "7c07a380",
			"token0MaxPrice()": "364abc3d",
			"token0Output(uint256)": "04786ab4",
			"token1()": "d21220a7",
			"token1Constant()": "1cf2128c",
			"token1DepositAmount()": "13724b70",
			"token1Output(uint256)": "9f8e55d6",
			"totalSupply()": "18160ddd",
			"transfer(address,uint256)": "a9059cbb",
			"transferFrom(address,address,uint256)": "23b872dd",
			"transferOwnership(address)": "f2fde38b",
			"withdraw(uint256,uint256)": "441a3e70"
		}
	},
	"abi": [
		{
			"inputs": [
				{
					"internalType": "address",
					"name": "_factory",
					"type": "address"
				},
				{
					"internalType": "address",
					"name": "_factoryOwner",
					"type": "address"
				},
				{
					"internalType": "address",
					"name": "_token0",
					"type": "address"
				},
				{
					"internalType": "address",
					"name": "_token1",
					"type": "address"
				},
				{
					"internalType": "uint256",
					"name": "_token0DepositAmount",
					"type": "uint256"
				},
				{
					"internalType": "uint256",
					"name": "_token1DepositAmount",
					"type": "uint256"
				},
				{
					"internalType": "uint256",
					"name": "_token0BasePrice",
					"type": "uint256"
				},
				{
					"internalType": "uint256",
					"name": "_token0MaxPrice",
					"type": "uint256"
				},
				{
					"internalType": "uint256",
					"name": "_protocolFee",
					"type": "uint256"
				}
			],
			"stateMutability": "nonpayable",
			"type": "constructor"
		},
		{
			"anonymous": false,
			"inputs": [
				{
					"indexed": true,
					"internalType": "address",
					"name": "owner",
					"type": "address"
				},
				{
					"indexed": true,
					"internalType": "address",
					"name": "spender",
					"type": "address"
				},
				{
					"indexed": false,
					"internalType": "uint256",
					"name": "value",
					"type": "uint256"
				}
			],
			"name": "Approval",
			"type": "event"
		},
		{
			"anonymous": false,
			"inputs": [
				{
					"indexed": true,
					"internalType": "address",
					"name": "previousOwner",
					"type": "address"
				},
				{
					"indexed": true,
					"internalType": "address",
					"name": "newOwner",
					"type": "address"
				}
			],
			"name": "OwnershipTransferred",
			"type": "event"
		},
		{
			"anonymous": false,
			"inputs": [
				{
					"indexed": true,
					"internalType": "address",
					"name": "sender",
					"type": "address"
				},
				{
					"indexed": false,
					"internalType": "uint256",
					"name": "amount0In",
					"type": "uint256"
				},
				{
					"indexed": false,
					"internalType": "uint256",
					"name": "amount1In",
					"type": "uint256"
				},
				{
					"indexed": false,
					"internalType": "uint256",
					"name": "amount0Out",
					"type": "uint256"
				},
				{
					"indexed": false,
					"internalType": "uint256",
					"name": "amount1Out",
					"type": "uint256"
				},
				{
					"indexed": true,
					"internalType": "address",
					"name": "to",
					"type": "address"
				}
			],
			"name": "Swap",
			"type": "event"
		},
		{
			"anonymous": false,
			"inputs": [
				{
					"indexed": false,
					"internalType": "uint256",
					"name": "reserve0",
					"type": "uint256"
				},
				{
					"indexed": false,
					"internalType": "uint256",
					"name": "reserve1",
					"type": "uint256"
				}
			],
			"name": "Sync",
			"type": "event"
		},
		{
			"anonymous": false,
			"inputs": [
				{
					"indexed": true,
					"internalType": "address",
					"name": "from",
					"type": "address"
				},
				{
					"indexed": true,
					"internalType": "address",
					"name": "to",
					"type": "address"
				},
				{
					"indexed": false,
					"internalType": "uint256",
					"name": "value",
					"type": "uint256"
				}
			],
			"name": "Transfer",
			"type": "event"
		},
		{
			"inputs": [
				{
					"internalType": "address",
					"name": "owner",
					"type": "address"
				},
				{
					"internalType": "address",
					"name": "spender",
					"type": "address"
				}
			],
			"name": "allowance",
			"outputs": [
				{
					"internalType": "uint256",
					"name": "",
					"type": "uint256"
				}
			],
			"stateMutability": "view",
			"type": "function"
		},
		{
			"inputs": [
				{
					"internalType": "address",
					"name": "spender",
					"type": "address"
				},
				{
					"internalType": "uint256",
					"name": "amount",
					"type": "uint256"
				}
			],
			"name": "approve",
			"outputs": [
				{
					"internalType": "bool",
					"name": "",
					"type": "bool"
				}
			],
			"stateMutability": "nonpayable",
			"type": "function"
		},
		{
			"inputs": [
				{
					"internalType": "address",
					"name": "account",
					"type": "address"
				}
			],
			"name": "balanceOf",
			"outputs": [
				{
					"internalType": "uint256",
					"name": "",
					"type": "uint256"
				}
			],
			"stateMutability": "view",
			"type": "function"
		},
		{
			"inputs": [],
			"name": "decimals",
			"outputs": [
				{
					"internalType": "uint8",
					"name": "",
					"type": "uint8"
				}
			],
			"stateMutability": "view",
			"type": "function"
		},
		{
			"inputs": [
				{
					"internalType": "address",
					"name": "spender",
					"type": "address"
				},
				{
					"internalType": "uint256",
					"name": "subtractedValue",
					"type": "uint256"
				}
			],
			"name": "decreaseAllowance",
			"outputs": [
				{
					"internalType": "bool",
					"name": "",
					"type": "bool"
				}
			],
			"stateMutability": "nonpayable",
			"type": "function"
		},
		{
			"inputs": [
				{
					"internalType": "uint256",
					"name": "_amountToken1In",
					"type": "uint256"
				}
			],
			"name": "deposit",
			"outputs": [],
			"stateMutability": "nonpayable",
			"type": "function"
		},
		{
			"inputs": [
				{
					"internalType": "uint256",
					"name": "",
					"type": "uint256"
				}
			],
			"name": "depositorInfos",
			"outputs": [
				{
					"internalType": "address",
					"name": "depositor",
					"type": "address"
				},
				{
					"internalType": "uint256",
					"name": "amount",
					"type": "uint256"
				}
			],
			"stateMutability": "view",
			"type": "function"
		},
		{
			"inputs": [],
			"name": "factory",
			"outputs": [
				{
					"internalType": "address",
					"name": "",
					"type": "address"
				}
			],
			"stateMutability": "view",
			"type": "function"
		},
		{
			"inputs": [],
			"name": "factoryOwner",
			"outputs": [
				{
					"internalType": "address",
					"name": "",
					"type": "address"
				}
			],
			"stateMutability": "view",
			"type": "function"
		},
		{
			"inputs": [
				{
					"internalType": "address",
					"name": "_address",
					"type": "address"
				}
			],
			"name": "getDeposits",
			"outputs": [
				{
					"components": [
						{
							"internalType": "uint256",
							"name": "amount",
							"type": "uint256"
						},
						{
							"internalType": "uint256",
							"name": "timestamp",
							"type": "uint256"
						}
					],
					"internalType": "struct LPTokenLog.DepositLog[]",
					"name": "",
					"type": "tuple[]"
				}
			],
			"stateMutability": "view",
			"type": "function"
		},
		{
			"inputs": [],
			"name": "getProps",
			"outputs": [
				{
					"components": [
						{
							"internalType": "address",
							"name": "token0",
							"type": "address"
						},
						{
							"internalType": "address",
							"name": "token1",
							"type": "address"
						},
						{
							"internalType": "uint256",
							"name": "token0Holding",
							"type": "uint256"
						},
						{
							"internalType": "uint256",
							"name": "token1Holding",
							"type": "uint256"
						}
					],
					"internalType": "struct LiquidityPool.Props",
					"name": "",
					"type": "tuple"
				}
			],
			"stateMutability": "view",
			"type": "function"
		},
		{
			"inputs": [
				{
					"internalType": "address",
					"name": "_address",
					"type": "address"
				}
			],
			"name": "getRewards",
			"outputs": [
				{
					"components": [
						{
							"internalType": "uint256",
							"name": "amount",
							"type": "uint256"
						},
						{
							"internalType": "uint256",
							"name": "timestamp",
							"type": "uint256"
						}
					],
					"internalType": "struct LPTokenLog.RewardLog[]",
					"name": "",
					"type": "tuple[]"
				}
			],
			"stateMutability": "view",
			"type": "function"
		},
		{
			"inputs": [],
			"name": "getTicks",
			"outputs": [
				{
					"components": [
						{
							"internalType": "uint256",
							"name": "token0",
							"type": "uint256"
						},
						{
							"internalType": "uint256",
							"name": "token1",
							"type": "uint256"
						},
						{
							"internalType": "uint256",
							"name": "token0Price",
							"type": "uint256"
						},
						{
							"internalType": "uint256",
							"name": "timestamp",
							"type": "uint256"
						}
					],
					"internalType": "struct LPTick.Tick[]",
					"name": "",
					"type": "tuple[]"
				}
			],
			"stateMutability": "view",
			"type": "function"
		},
		{
			"inputs": [
				{
					"internalType": "address",
					"name": "_address",
					"type": "address"
				}
			],
			"name": "getWithdrawals",
			"outputs": [
				{
					"components": [
						{
							"internalType": "uint256",
							"name": "amount",
							"type": "uint256"
						},
						{
							"internalType": "uint256",
							"name": "timestamp",
							"type": "uint256"
						}
					],
					"internalType": "struct LPTokenLog.WithdrawLog[]",
					"name": "",
					"type": "tuple[]"
				}
			],
			"stateMutability": "view",
			"type": "function"
		},
		{
			"inputs": [
				{
					"internalType": "address",
					"name": "spender",
					"type": "address"
				},
				{
					"internalType": "uint256",
					"name": "addedValue",
					"type": "uint256"
				}
			],
			"name": "increaseAllowance",
			"outputs": [
				{
					"internalType": "bool",
					"name": "",
					"type": "bool"
				}
			],
			"stateMutability": "nonpayable",
			"type": "function"
		},
		{
			"inputs": [],
			"name": "interest",
			"outputs": [
				{
					"internalType": "uint256",
					"name": "",
					"type": "uint256"
				}
			],
			"stateMutability": "view",
			"type": "function"
		},
		{
			"inputs": [],
			"name": "kConstant",
			"outputs": [
				{
					"internalType": "uint256",
					"name": "",
					"type": "uint256"
				}
			],
			"stateMutability": "view",
			"type": "function"
		},
		{
			"inputs": [],
			"name": "maxRecords",
			"outputs": [
				{
					"internalType": "uint256",
					"name": "",
					"type": "uint256"
				}
			],
			"stateMutability": "view",
			"type": "function"
		},
		{
			"inputs": [],
			"name": "maxTicks",
			"outputs": [
				{
					"internalType": "uint256",
					"name": "",
					"type": "uint256"
				}
			],
			"stateMutability": "view",
			"type": "function"
		},
		{
			"inputs": [],
			"name": "name",
			"outputs": [
				{
					"internalType": "string",
					"name": "",
					"type": "string"
				}
			],
			"stateMutability": "view",
			"type": "function"
		},
		{
			"inputs": [],
			"name": "owner",
			"outputs": [
				{
					"internalType": "address",
					"name": "",
					"type": "address"
				}
			],
			"stateMutability": "view",
			"type": "function"
		},
		{
			"inputs": [],
			"name": "protocolFee",
			"outputs": [
				{
					"internalType": "uint256",
					"name": "",
					"type": "uint256"
				}
			],
			"stateMutability": "view",
			"type": "function"
		},
		{
			"inputs": [],
			"name": "renounceOwnership",
			"outputs": [],
			"stateMutability": "nonpayable",
			"type": "function"
		},
		{
			"inputs": [
				{
					"internalType": "uint256",
					"name": "_amountTokenIn",
					"type": "uint256"
				},
				{
					"internalType": "uint256",
					"name": "_minAmountTokenOut",
					"type": "uint256"
				},
				{
					"internalType": "bool",
					"name": "_isBuy",
					"type": "bool"
				}
			],
			"name": "swap",
			"outputs": [],
			"stateMutability": "nonpayable",
			"type": "function"
		},
		{
			"inputs": [],
			"name": "symbol",
			"outputs": [
				{
					"internalType": "string",
					"name": "",
					"type": "string"
				}
			],
			"stateMutability": "view",
			"type": "function"
		},
		{
			"inputs": [],
			"name": "testKConstant",
			"outputs": [
				{
					"internalType": "uint256",
					"name": "",
					"type": "uint256"
				}
			],
			"stateMutability": "view",
			"type": "function"
		},
		{
			"inputs": [],
			"name": "token0",
			"outputs": [
				{
					"internalType": "address",
					"name": "",
					"type": "address"
				}
			],
			"stateMutability": "view",
			"type": "function"
		},
		{
			"inputs": [],
			"name": "token0BasePrice",
			"outputs": [
				{
					"internalType": "uint256",
					"name": "",
					"type": "uint256"
				}
			],
			"stateMutability": "view",
			"type": "function"
		},
		{
			"inputs": [],
			"name": "token0Constant",
			"outputs": [
				{
					"internalType": "uint256",
					"name": "",
					"type": "uint256"
				}
			],
			"stateMutability": "view",
			"type": "function"
		},
		{
			"inputs": [],
			"name": "token0DepositAmount",
			"outputs": [
				{
					"internalType": "uint256",
					"name": "",
					"type": "uint256"
				}
			],
			"stateMutability": "view",
			"type": "function"
		},
		{
			"inputs": [],
			"name": "token0MaxPrice",
			"outputs": [
				{
					"internalType": "uint256",
					"name": "",
					"type": "uint256"
				}
			],
			"stateMutability": "view",
			"type": "function"
		},
		{
			"inputs": [
				{
					"internalType": "uint256",
					"name": "_token1Input",
					"type": "uint256"
				}
			],
			"name": "token0Output",
			"outputs": [
				{
					"internalType": "uint256",
					"name": "",
					"type": "uint256"
				}
			],
			"stateMutability": "view",
			"type": "function"
		},
		{
			"inputs": [],
			"name": "token1",
			"outputs": [
				{
					"internalType": "address",
					"name": "",
					"type": "address"
				}
			],
			"stateMutability": "view",
			"type": "function"
		},
		{
			"inputs": [],
			"name": "token1Constant",
			"outputs": [
				{
					"internalType": "uint256",
					"name": "",
					"type": "uint256"
				}
			],
			"stateMutability": "view",
			"type": "function"
		},
		{
			"inputs": [],
			"name": "token1DepositAmount",
			"outputs": [
				{
					"internalType": "uint256",
					"name": "",
					"type": "uint256"
				}
			],
			"stateMutability": "view",
			"type": "function"
		},
		{
			"inputs": [
				{
					"internalType": "uint256",
					"name": "_token0Input",
					"type": "uint256"
				}
			],
			"name": "token1Output",
			"outputs": [
				{
					"internalType": "uint256",
					"name": "",
					"type": "uint256"
				}
			],
			"stateMutability": "view",
			"type": "function"
		},
		{
			"inputs": [],
			"name": "totalSupply",
			"outputs": [
				{
					"internalType": "uint256",
					"name": "",
					"type": "uint256"
				}
			],
			"stateMutability": "view",
			"type": "function"
		},
		{
			"inputs": [
				{
					"internalType": "address",
					"name": "to",
					"type": "address"
				},
				{
					"internalType": "uint256",
					"name": "value",
					"type": "uint256"
				}
			],
			"name": "transfer",
			"outputs": [
				{
					"internalType": "bool",
					"name": "",
					"type": "bool"
				}
			],
			"stateMutability": "nonpayable",
			"type": "function"
		},
		{
			"inputs": [
				{
					"internalType": "address",
					"name": "from",
					"type": "address"
				},
				{
					"internalType": "address",
					"name": "to",
					"type": "address"
				},
				{
					"internalType": "uint256",
					"name": "value",
					"type": "uint256"
				}
			],
			"name": "transferFrom",
			"outputs": [
				{
					"internalType": "bool",
					"name": "",
					"type": "bool"
				}
			],
			"stateMutability": "nonpayable",
			"type": "function"
		},
		{
			"inputs": [
				{
					"internalType": "address",
					"name": "newOwner",
					"type": "address"
				}
			],
			"name": "transferOwnership",
			"outputs": [],
			"stateMutability": "nonpayable",
			"type": "function"
		},
		{
			"inputs": [
				{
					"internalType": "uint256",
					"name": "_amountLPTokenIn",
					"type": "uint256"
				},
				{
					"internalType": "uint256",
					"name": "_minAmountToken0Out",
					"type": "uint256"
				}
			],
			"name": "withdraw",
			"outputs": [],
			"stateMutability": "nonpayable",
			"type": "function"
		}
	]
}