{
	"data": {
		"bytecode": {
			"linkReferences": {},
			"object": "60806040523480156200001157600080fd5b506040516200574238038062005742833981810160405281019062000037919062000a9f565b8181600a806000600181905550600060028190555080600381905550506000600781905550600060088190555060006009819055506000600a819055506000600b819055506000600c8190555080600d819055505081601190816200009d919062000e2b565b508060129081620000af919062000e2b565b505050620000d2620000c6620003e060201b60201c565b620003e860201b60201c565b8a601460006101000a81548173ffffffffffffffffffffffffffffffffffffffff021916908373ffffffffffffffffffffffffffffffffffffffff16021790555089601560006101000a81548173ffffffffffffffffffffffffffffffffffffffff021916908373ffffffffffffffffffffffffffffffffffffffff1602179055508773ffffffffffffffffffffffffffffffffffffffff168973ffffffffffffffffffffffffffffffffffffffff1603620001c5576040517f08c379a0000000000000000000000000000000000000000000000000000000008152600401620001bc9062000f73565b60405180910390fd5b88601660006101000a81548173ffffffffffffffffffffffffffffffffffffffff021916908373ffffffffffffffffffffffffffffffffffffffff16021790555087601760006101000a81548173ffffffffffffffffffffffffffffffffffffffff021916908373ffffffffffffffffffffffffffffffffffffffff1602179055508660188190555085601981905550848410156200029b576040517f08c379a000000000000000000000000000000000000000000000000000000000815260040162000292906200100b565b60405180910390fd5b84601d8190555083601e8190555082601f81905550620002c3858589620004ae60201b60201c565b601a81905550620002e08986601a548a8a6200054560201b60201c565b601b81905550601b54601954620002f891906200105c565b601a546018546200030a91906200105c565b62000316919062001097565b601c81905550604051806080016040528060185481526020016019548152602001601d54815260200142815250600080808152602001908152602001600020600082015181600001556020820151816001015560408201518160020155606082015181600301559050507fcf2aa50876cdfbb541206f89af0ee78d44a2abf8d328e37fa4917f982149848a601854601954604051620003b7929190620010f3565b60405180910390a1606460208190555060006022819055505050505050505050505050620013d7565b600033905090565b6000601360009054906101000a900473ffffffffffffffffffffffffffffffffffffffff16905081601360006101000a81548173ffffffffffffffffffffffffffffffffffffffff021916908373ffffffffffffffffffffffffffffffffffffffff1602179055508173ffffffffffffffffffffffffffffffffffffffff168173ffffffffffffffffffffffffffffffffffffffff167f8be0079c531659141344cd1fd0a4f28419497f9722a3daafe3b4186f6b6457e060405160405180910390a35050565b600080620004dd670de0b6b3a764000086620004cb919062001097565b856200062d60201b6200198c1760201c565b90506000620004f7826200064560201b620019a21760201c565b90506000848262000509919062001097565b9050600082633b9aca006200051f919062001120565b90506200053882826200062d60201b6200198c1760201c565b9450505050509392505050565b6000808673ffffffffffffffffffffffffffffffffffffffff1663313ce5676040518163ffffffff1660e01b8152600401602060405180830381865afa15801562000594573d6000803e3d6000fd5b505050506040513d601f19601f82011682018060405250810190620005ba919062001199565b9050600081600a620005cd91906200131f565b905060008482620005df919062001097565b8787620005ed91906200105c565b89620005fa919062001097565b62000606919062001120565b90506200061f81836200062d60201b6200198c1760201c565b935050505095945050505050565b600081836200063d91906200139f565b905092915050565b600080820362000659576000905062000763565b600060016200066e846200076860201b60201c565b901c6001901b905060018184816200068b576200068a62001370565b5b048201901c90506001818481620006a757620006a662001370565b5b048201901c90506001818481620006c357620006c262001370565b5b048201901c90506001818481620006df57620006de62001370565b5b048201901c90506001818481620006fb57620006fa62001370565b5b048201901c9050600181848162000717576200071662001370565b5b048201901c9050600181848162000733576200073262001370565b5b048201901c90506200075f8182858162000752576200075162001370565b5b046200085160201b60201c565b9150505b919050565b600080600090506000608084901c11156200078b57608083901c92506080810190505b6000604084901c1115620007a757604083901c92506040810190505b6000602084901c1115620007c357602083901c92506020810190505b6000601084901c1115620007df57601083901c92506010810190505b6000600884901c1115620007fb57600883901c92506008810190505b6000600484901c11156200081757600483901c92506004810190505b6000600284901c11156200083357600283901c92506002810190505b6000600184901c111562000848576001810190505b80915050919050565b600081831062000862578162000864565b825b905092915050565b6000604051905090565b600080fd5b600080fd5b600073ffffffffffffffffffffffffffffffffffffffff82169050919050565b6000620008ad8262000880565b9050919050565b620008bf81620008a0565b8114620008cb57600080fd5b50565b600081519050620008df81620008b4565b92915050565b6000819050919050565b620008fa81620008e5565b81146200090657600080fd5b50565b6000815190506200091a81620008ef565b92915050565b600080fd5b600080fd5b6000601f19601f8301169050919050565b7f4e487b7100000000000000000000000000000000000000000000000000000000600052604160045260246000fd5b62000975826200092a565b810181811067ffffffffffffffff821117156200099757620009966200093b565b5b80604052505050565b6000620009ac6200086c565b9050620009ba82826200096a565b919050565b600067ffffffffffffffff821115620009dd57620009dc6200093b565b5b620009e8826200092a565b9050602081019050919050565b60005b8381101562000a15578082015181840152602081019050620009f8565b60008484015250505050565b600062000a3862000a3284620009bf565b620009a0565b90508281526020810184848401111562000a575762000a5662000925565b5b62000a64848285620009f5565b509392505050565b600082601f83011262000a845762000a8362000920565b5b815162000a9684826020860162000a21565b91505092915050565b60008060008060008060008060008060006101608c8e03121562000ac85762000ac762000876565b5b600062000ad88e828f01620008ce565b9b5050602062000aeb8e828f01620008ce565b9a5050604062000afe8e828f01620008ce565b995050606062000b118e828f01620008ce565b985050608062000b248e828f0162000909565b97505060a062000b378e828f0162000909565b96505060c062000b4a8e828f0162000909565b95505060e062000b5d8e828f0162000909565b94505061010062000b718e828f0162000909565b9350506101208c015167ffffffffffffffff81111562000b965762000b956200087b565b5b62000ba48e828f0162000a6c565b9250506101408c015167ffffffffffffffff81111562000bc95762000bc86200087b565b5b62000bd78e828f0162000a6c565b9150509295989b509295989b9093969950565b600081519050919050565b7f4e487b7100000000000000000000000000000000000000000000000000000000600052602260045260246000fd5b6000600282049050600182168062000c3d57607f821691505b60208210810362000c535762000c5262000bf5565b5b50919050565b60008190508160005260206000209050919050565b60006020601f8301049050919050565b600082821b905092915050565b60006008830262000cbd7fffffffffffffffffffffffffffffffffffffffffffffffffffffffffffffffff8262000c7e565b62000cc9868362000c7e565b95508019841693508086168417925050509392505050565b6000819050919050565b600062000d0c62000d0662000d0084620008e5565b62000ce1565b620008e5565b9050919050565b6000819050919050565b62000d288362000ceb565b62000d4062000d378262000d13565b84845462000c8b565b825550505050565b600090565b62000d5762000d48565b62000d6481848462000d1d565b505050565b5b8181101562000d8c5762000d8060008262000d4d565b60018101905062000d6a565b5050565b601f82111562000ddb5762000da58162000c59565b62000db08462000c6e565b8101602085101562000dc0578190505b62000dd862000dcf8562000c6e565b83018262000d69565b50505b505050565b600082821c905092915050565b600062000e006000198460080262000de0565b1980831691505092915050565b600062000e1b838362000ded565b9150826002028217905092915050565b62000e368262000bea565b67ffffffffffffffff81111562000e525762000e516200093b565b5b62000e5e825462000c24565b62000e6b82828562000d90565b600060209050601f83116001811462000ea3576000841562000e8e578287015190505b62000e9a858262000e0d565b86555062000f0a565b601f19841662000eb38662000c59565b60005b8281101562000edd5784890151825560018201915060208501945060208101905062000eb6565b8683101562000efd578489015162000ef9601f89168262000ded565b8355505b6001600288020188555050505b505050505050565b600082825260208201905092915050565b7f426f746820746f6b656e732063616e6e6f74206265207468652073616d650000600082015250565b600062000f5b601e8362000f12565b915062000f688262000f23565b602082019050919050565b6000602082019050818103600083015262000f8e8162000f4c565b9050919050565b7f4d6178696d756d207072696365206d757374206265206772656174657220746860008201527f616e206f7220657175616c20746f207468652062617365207072696365000000602082015250565b600062000ff3603d8362000f12565b9150620010008262000f95565b604082019050919050565b60006020820190508181036000830152620010268162000fe4565b9050919050565b7f4e487b7100000000000000000000000000000000000000000000000000000000600052601160045260246000fd5b60006200106982620008e5565b91506200107683620008e5565b92508282019050808211156200109157620010906200102d565b5b92915050565b6000620010a482620008e5565b9150620010b183620008e5565b9250828202620010c181620008e5565b91508282048414831517620010db57620010da6200102d565b5b5092915050565b620010ed81620008e5565b82525050565b60006040820190506200110a6000830185620010e2565b620011196020830184620010e2565b9392505050565b60006200112d82620008e5565b91506200113a83620008e5565b92508282039050818111156200115557620011546200102d565b5b92915050565b600060ff82169050919050565b62001173816200115b565b81146200117f57600080fd5b50565b600081519050620011938162001168565b92915050565b600060208284031215620011b257620011b162000876565b5b6000620011c28482850162001182565b91505092915050565b60008160011c9050919050565b6000808291508390505b60018511156200122a578086048111156200120257620012016200102d565b5b6001851615620012125780820291505b80810290506200122285620011cb565b9450620011e2565b94509492505050565b60008262001245576001905062001318565b8162001255576000905062001318565b81600181146200126e57600281146200127957620012af565b600191505062001318565b60ff8411156200128e576200128d6200102d565b5b8360020a915084821115620012a857620012a76200102d565b5b5062001318565b5060208310610133831016604e8410600b8410161715620012e95782820a905083811115620012e357620012e26200102d565b5b62001318565b620012f88484846001620011d8565b925090508184048111156200131257620013116200102d565b5b81810290505b9392505050565b60006200132c82620008e5565b915062001339836200115b565b9250620013687fffffffffffffffffffffffffffffffffffffffffffffffffffffffffffffffff848462001233565b905092915050565b7f4e487b7100000000000000000000000000000000000000000000000000000000600052601260045260246000fd5b6000620013ac82620008e5565b9150620013b983620008e5565b925082620013cc57620013cb62001370565b5b828204905092915050565b61435b80620013e76000396000f3fe608060405234801561001057600080fd5b50600436106102695760003560e01c8063715018a611610151578063aff56c14116100c3578063ccbaf73611610087578063ccbaf7361461075c578063d21220a71461078d578063dd62ed3e146107ab578063ec1893b4146107db578063ef3501b9146107f9578063f2fde38b1461081757610269565b8063aff56c14146106c6578063b0e21e8a146106e4578063bc4d6e7a14610702578063c392f76614610720578063c45a01551461073e57610269565b80638da5cb5b116101155780638da5cb5b146105ca57806394f649dd146105e857806395d89b41146106185780639f8e55d614610636578063a457c2d714610666578063a9059cbb1461069657610269565b8063715018a61461053657806379ee54f7146105405780637b0a3a8d146105705780637c07a3801461058e578063870e415e146105ac57610269565b8063313ce567116101ea5780634273601c116101ae5780634273601c14610474578063430d1aee14610492578063433065d0146104ae5780634a0c0c74146104cc5780635a656c24146104e857806370a082311461050657610269565b8063313ce567146103ba578063364abc3d146103d857806339509351146103f65780633a2b643a146104265780633d1c387b1461045657610269565b806318160ddd1161023157806318160ddd146103285780631af0bcf0146103465780631cf2128c1461035057806323b872dd1461036e5780632bec60fe1461039e57610269565b806304786ab41461026e57806306fdde031461029e578063095ea7b3146102bc5780630dfe1681146102ec57806313724b701461030a575b600080fd5b610288600480360381019061028391906130eb565b610833565b6040516102959190613127565b60405180910390f35b6102a661089d565b6040516102b391906131d2565b60405180910390f35b6102d660048036038101906102d19190613252565b61092f565b6040516102e391906132ad565b60405180910390f35b6102f4610952565b60405161030191906132d7565b60405180910390f35b610312610978565b60405161031f9190613127565b60405180910390f35b61033061097e565b60405161033d9190613127565b60405180910390f35b61034e610988565b005b610358610afd565b6040516103659190613127565b60405180910390f35b610388600480360381019061038391906132f2565b610b03565b60405161039591906132ad565b60405180910390f35b6103b860048036038101906103b39190613371565b610b32565b005b6103c2610bc5565b6040516103cf91906133e0565b60405180910390f35b6103e0610bce565b6040516103ed9190613127565b60405180910390f35b610410600480360381019061040b9190613252565b610bd4565b60405161041d91906132ad565b60405180910390f35b610440600480360381019061043b91906133fb565b610c0b565b60405161044d9190613515565b60405180910390f35b61045e610d55565b60405161046b919061363b565b60405180910390f35b61047c610e72565b60405161048991906132d7565b60405180910390f35b6104ac60048036038101906104a791906130eb565b610e98565b005b6104b6611050565b6040516104c39190613127565b60405180910390f35b6104e660048036038101906104e1919061365d565b611096565b005b6104f06111a2565b6040516104fd9190613127565b60405180910390f35b610520600480360381019061051b91906133fb565b6111a8565b60405161052d9190613127565b60405180910390f35b61053e6111f1565b005b61055a600480360381019061055591906133fb565b611205565b604051610567919061377b565b60405180910390f35b61057861134f565b6040516105859190613127565b60405180910390f35b610596611355565b6040516105a39190613127565b60405180910390f35b6105b461135b565b6040516105c19190613127565b60405180910390f35b6105d2611361565b6040516105df91906132d7565b60405180910390f35b61060260048036038101906105fd91906133fb565b61138b565b60405161060f919061387b565b60405180910390f35b6106206114d5565b60405161062d91906131d2565b60405180910390f35b610650600480360381019061064b91906130eb565b611567565b60405161065d9190613127565b60405180910390f35b610680600480360381019061067b9190613252565b6115d1565b60405161068d91906132ad565b60405180910390f35b6106b060048036038101906106ab9190613252565b611648565b6040516106bd91906132ad565b60405180910390f35b6106ce61166b565b6040516106db9190613127565b60405180910390f35b6106ec611671565b6040516106f99190613127565b60405180910390f35b61070a611677565b60405161071791906132ad565b60405180910390f35b610728611724565b6040516107359190613127565b60405180910390f35b61074661172a565b60405161075391906132d7565b60405180910390f35b610776600480360381019061077191906130eb565b611750565b60405161078492919061389d565b60405180910390f35b6107956117a4565b6040516107a291906132d7565b60405180910390f35b6107c560048036038101906107c091906138c6565b6117ca565b6040516107d29190613127565b60405180910390f35b6107e3611851565b6040516107f0919061396a565b60405180910390f35b610801611903565b60405161080e9190613127565b60405180910390f35b610831600480360381019061082c91906133fb565b611909565b005b60008061083e611a9b565b9050600061084a611b3e565b90506000848261085a91906139b4565b90506000601a5461087a601c54601b548561087591906139b4565b61198c565b61088491906139e8565b9050808461089291906139e8565b945050505050919050565b6060601180546108ac90613a4b565b80601f01602080910402602001604051908101604052809291908181526020018280546108d890613a4b565b80156109255780601f106108fa57610100808354040283529160200191610925565b820191906000526020600020905b81548152906001019060200180831161090857829003601f168201915b5050505050905090565b60008061093a611bf4565b9050610947818585611bfc565b600191505092915050565b601660009054906101000a900473ffffffffffffffffffffffffffffffffffffffff1681565b60195481565b6000601054905090565b600060225403610a0157336021600080815260200190815260200160002060006101000a81548173ffffffffffffffffffffffffffffffffffffffff021916908373ffffffffffffffffffffffffffffffffffffffff160217905550602260008154809291906109f790613a7c565b9190505550610afb565b60005b602254811015610a8d573373ffffffffffffffffffffffffffffffffffffffff166021600083815260200190815260200160002060009054906101000a900473ffffffffffffffffffffffffffffffffffffffff1673ffffffffffffffffffffffffffffffffffffffff1603610a7a5750610afb565b8080610a8590613a7c565b915050610a04565b503360216000602254815260200190815260200160002060006101000a81548173ffffffffffffffffffffffffffffffffffffffff021916908373ffffffffffffffffffffffffffffffffffffffff16021790555060226000815480929190610af590613a7c565b91905055505b565b601b5481565b600080610b0e611bf4565b9050610b1b858285611dc5565b610b26858585611e51565b60019150509392505050565b8015610b4757610b4283836120ca565b610b52565b610b5183836122d9565b5b6000610b5c611a9b565b90506000610b686125cb565b9050610b858282610b80670de0b6b3a7640000611567565b61266e565b7fcf2aa50876cdfbb541206f89af0ee78d44a2abf8d328e37fa4917f982149848a8282604051610bb6929190613ac4565b60405180910390a15050505050565b60006012905090565b601e5481565b600080610bdf611bf4565b9050610c00818585610bf185896117ca565b610bfb91906139b4565b611bfc565b600191505092915050565b606060006001600b54600c54610c2191906139e8565b610c2b91906139b4565b67ffffffffffffffff811115610c4457610c43613aed565b5b604051908082528060200260200182016040528015610c7d57816020015b610c6a612fe6565b815260200190600190039081610c625790505b5090506000600b5490505b6001600c54610c9791906139b4565b811015610d4b57600660008573ffffffffffffffffffffffffffffffffffffffff1673ffffffffffffffffffffffffffffffffffffffff16815260200190815260200160002060008281526020019081526020016000206040518060400160405290816000820154815260200160018201548152505082600b5483610d1c91906139e8565b81518110610d2d57610d2c613b1c565b5b60200260200101819052508080610d4390613a7c565b915050610c88565b5080915050919050565b6060600060018054600254610d6a91906139e8565b610d7491906139b4565b67ffffffffffffffff811115610d8d57610d8c613aed565b5b604051908082528060200260200182016040528015610dc657816020015b610db3613000565b815260200190600190039081610dab5790505b509050600060015490505b6001600254610de091906139b4565b811015610e6a576000808281526020019081526020016000206040518060800160405290816000820154815260200160018201548152602001600282015481526020016003820154815250508260015483610e3b91906139e8565b81518110610e4c57610e4b613b1c565b5b60200260200101819052508080610e6290613a7c565b915050610dd1565b508091505090565b601560009054906101000a900473ffffffffffffffffffffffffffffffffffffffff1681565b6000610eaa620c3500620f424061198c565b82610eb59190613b4b565b905060008183610ec591906139e8565b9050601760009054906101000a900473ffffffffffffffffffffffffffffffffffffffff1673ffffffffffffffffffffffffffffffffffffffff166323b872dd3330856040518463ffffffff1660e01b8152600401610f2693929190613b8d565b6020604051808303816000875af1158015610f45573d6000803e3d6000fd5b505050506040513d601f19601f82011682018060405250810190610f699190613bd9565b50601760009054906101000a900473ffffffffffffffffffffffffffffffffffffffff1673ffffffffffffffffffffffffffffffffffffffff166323b872dd33601560009054906101000a900473ffffffffffffffffffffffffffffffffffffffff16846040518463ffffffff1660e01b8152600401610feb93929190613b8d565b6020604051808303816000875af115801561100a573d6000803e3d6000fd5b505050506040513d601f19601f8201168201806040525081019061102e9190613bd9565b506110393384612753565b6110416128aa565b61104b33846128f2565b505050565b60008061105b611a9b565b90506000611067611b3e565b9050601b548161107791906139b4565b601a548361108591906139b4565b61108f9190613b4b565b9250505090565b60006110a183610833565b9050818110156110e6576040517f08c379a00000000000000000000000000000000000000000000000000000000081526004016110dd90613c52565b60405180910390fd5b6110f1333085610b03565b50601660009054906101000a900473ffffffffffffffffffffffffffffffffffffffff1673ffffffffffffffffffffffffffffffffffffffff1663a9059cbb33836040518363ffffffff1660e01b815260040161114f92919061389d565b6020604051808303816000875af115801561116e573d6000803e3d6000fd5b505050506040513d601f19601f820116820180604052508101906111929190613bd9565b5061119d3384612a22565b505050565b601c5481565b6000600e60008373ffffffffffffffffffffffffffffffffffffffff1673ffffffffffffffffffffffffffffffffffffffff168152602001908152602001600020549050919050565b6111f9612b52565b6112036000612bd0565b565b60606000600160075460085461121b91906139e8565b61122591906139b4565b67ffffffffffffffff81111561123e5761123d613aed565b5b60405190808252806020026020018201604052801561127757816020015b611264613028565b81526020019060019003908161125c5790505b509050600060075490505b600160085461129191906139b4565b81101561134557600460008573ffffffffffffffffffffffffffffffffffffffff1673ffffffffffffffffffffffffffffffffffffffff168152602001908152602001600020600082815260200190815260200160002060405180604001604052908160008201548152602001600182015481525050826007548361131691906139e8565b8151811061132757611326613b1c565b5b6020026020010181905250808061133d90613a7c565b915050611282565b5080915050919050565b600d5481565b60185481565b60035481565b6000601360009054906101000a900473ffffffffffffffffffffffffffffffffffffffff16905090565b606060006001600954600a546113a191906139e8565b6113ab91906139b4565b67ffffffffffffffff8111156113c4576113c3613aed565b5b6040519080825280602002602001820160405280156113fd57816020015b6113ea613042565b8152602001906001900390816113e25790505b509050600060095490505b6001600a5461141791906139b4565b8110156114cb57600560008573ffffffffffffffffffffffffffffffffffffffff1673ffffffffffffffffffffffffffffffffffffffff168152602001908152602001600020600082815260200190815260200160002060405180604001604052908160008201548152602001600182015481525050826009548361149c91906139e8565b815181106114ad576114ac613b1c565b5b602002602001018190525080806114c390613a7c565b915050611408565b5080915050919050565b6060601280546114e490613a4b565b80601f016020809104026020016040519081016040528092919081815260200182805461151090613a4b565b801561155d5780601f106115325761010080835404028352916020019161155d565b820191906000526020600020905b81548152906001019060200180831161154057829003601f168201915b5050505050905090565b600080611572611a9b565b9050600061157e611b3e565b90506000848361158e91906139b4565b90506000601b546115ae601c54601a54856115a991906139b4565b61198c565b6115b891906139e8565b905080836115c691906139e8565b945050505050919050565b6000806115dc611bf4565b905060006115ea82866117ca565b90508381101561162f576040517f08c379a000000000000000000000000000000000000000000000000000000000815260040161162690613ce4565b60405180910390fd5b61163c8286868403611bfc565b60019250505092915050565b600080611653611bf4565b9050611660818585611e51565b600191505092915050565b601a5481565b601f5481565b6000806022540361168b5760009050611721565b60005b60225481101561171b573373ffffffffffffffffffffffffffffffffffffffff166021600083815260200190815260200160002060009054906101000a900473ffffffffffffffffffffffffffffffffffffffff1673ffffffffffffffffffffffffffffffffffffffff1603611708576001915050611721565b808061171390613a7c565b91505061168e565b50600090505b90565b60205481565b601460009054906101000a900473ffffffffffffffffffffffffffffffffffffffff1681565b6023818154811061176057600080fd5b90600052602060002090600202016000915090508060000160009054906101000a900473ffffffffffffffffffffffffffffffffffffffff16908060010154905082565b601760009054906101000a900473ffffffffffffffffffffffffffffffffffffffff1681565b6000600f60008473ffffffffffffffffffffffffffffffffffffffff1673ffffffffffffffffffffffffffffffffffffffff16815260200190815260200160002060008373ffffffffffffffffffffffffffffffffffffffff1673ffffffffffffffffffffffffffffffffffffffff16815260200190815260200160002054905092915050565b61185961305c565b60006040518060800160405280601660009054906101000a900473ffffffffffffffffffffffffffffffffffffffff1673ffffffffffffffffffffffffffffffffffffffff168152602001601760009054906101000a900473ffffffffffffffffffffffffffffffffffffffff1673ffffffffffffffffffffffffffffffffffffffff1681526020016118ea611a9b565b81526020016118f76125cb565b81525090508091505090565b601d5481565b611911612b52565b600073ffffffffffffffffffffffffffffffffffffffff168173ffffffffffffffffffffffffffffffffffffffff1603611980576040517f08c379a000000000000000000000000000000000000000000000000000000000815260040161197790613d76565b60405180910390fd5b61198981612bd0565b50565b6000818361199a9190613dc5565b905092915050565b60008082036119b45760009050611a96565b600060016119c184612c96565b901c6001901b905060018184816119db576119da613d96565b5b048201901c905060018184816119f4576119f3613d96565b5b048201901c90506001818481611a0d57611a0c613d96565b5b048201901c90506001818481611a2657611a25613d96565b5b048201901c90506001818481611a3f57611a3e613d96565b5b048201901c90506001818481611a5857611a57613d96565b5b048201901c90506001818481611a7157611a70613d96565b5b048201901c9050611a9281828581611a8c57611a8b613d96565b5b04612d77565b9150505b919050565b6000601660009054906101000a900473ffffffffffffffffffffffffffffffffffffffff1673ffffffffffffffffffffffffffffffffffffffff166370a08231306040518263ffffffff1660e01b8152600401611af891906132d7565b602060405180830381865afa158015611b15573d6000803e3d6000fd5b505050506040513d601f19601f82011682018060405250810190611b399190613e0b565b905090565b6000611b49306111a8565b601760009054906101000a900473ffffffffffffffffffffffffffffffffffffffff1673ffffffffffffffffffffffffffffffffffffffff166370a08231306040518263ffffffff1660e01b8152600401611ba491906132d7565b602060405180830381865afa158015611bc1573d6000803e3d6000fd5b505050506040513d601f19601f82011682018060405250810190611be59190613e0b565b611bef91906139b4565b905090565b600033905090565b600073ffffffffffffffffffffffffffffffffffffffff168373ffffffffffffffffffffffffffffffffffffffff1603611c6b576040517f08c379a0000000000000000000000000000000000000000000000000000000008152600401611c6290613eaa565b60405180910390fd5b600073ffffffffffffffffffffffffffffffffffffffff168273ffffffffffffffffffffffffffffffffffffffff1603611cda576040517f08c379a0000000000000000000000000000000000000000000000000000000008152600401611cd190613f3c565b60405180910390fd5b80600f60008573ffffffffffffffffffffffffffffffffffffffff1673ffffffffffffffffffffffffffffffffffffffff16815260200190815260200160002060008473ffffffffffffffffffffffffffffffffffffffff1673ffffffffffffffffffffffffffffffffffffffff168152602001908152602001600020819055508173ffffffffffffffffffffffffffffffffffffffff168373ffffffffffffffffffffffffffffffffffffffff167f8c5be1e5ebec7d5bd14f71427d1e84f3dd0314c0f7b2291e5b200ac8c7c3b92583604051611db89190613127565b60405180910390a3505050565b6000611dd184846117ca565b90507fffffffffffffffffffffffffffffffffffffffffffffffffffffffffffffffff8114611e4b5781811015611e3d576040517f08c379a0000000000000000000000000000000000000000000000000000000008152600401611e3490613fa8565b60405180910390fd5b611e4a8484848403611bfc565b5b50505050565b600073ffffffffffffffffffffffffffffffffffffffff168373ffffffffffffffffffffffffffffffffffffffff1603611ec0576040517f08c379a0000000000000000000000000000000000000000000000000000000008152600401611eb79061403a565b60405180910390fd5b600073ffffffffffffffffffffffffffffffffffffffff168273ffffffffffffffffffffffffffffffffffffffff1603611f2f576040517f08c379a0000000000000000000000000000000000000000000000000000000008152600401611f26906140cc565b60405180910390fd5b611f3a838383612d90565b6000600e60008573ffffffffffffffffffffffffffffffffffffffff1673ffffffffffffffffffffffffffffffffffffffff16815260200190815260200160002054905081811015611fc1576040517f08c379a0000000000000000000000000000000000000000000000000000000008152600401611fb89061415e565b60405180910390fd5b818103600e60008673ffffffffffffffffffffffffffffffffffffffff1673ffffffffffffffffffffffffffffffffffffffff1681526020019081526020016000208190555081600e60008573ffffffffffffffffffffffffffffffffffffffff1673ffffffffffffffffffffffffffffffffffffffff168152602001908152602001600020600082825401925050819055508273ffffffffffffffffffffffffffffffffffffffff168473ffffffffffffffffffffffffffffffffffffffff167fddf252ad1be2c89b69c2b068fc378daa952ba7f163c4a11628f55a4df523b3ef846040516120b19190613127565b60405180910390a36120c4848484612d95565b50505050565b60006120d583610833565b90508181101561211a576040517f08c379a000000000000000000000000000000000000000000000000000000000815260040161211190613c52565b60405180910390fd5b601760009054906101000a900473ffffffffffffffffffffffffffffffffffffffff1673ffffffffffffffffffffffffffffffffffffffff166323b872dd3330866040518463ffffffff1660e01b815260040161217993929190613b8d565b6020604051808303816000875af1158015612198573d6000803e3d6000fd5b505050506040513d601f19601f820116820180604052508101906121bc9190613bd9565b50601660009054906101000a900473ffffffffffffffffffffffffffffffffffffffff1673ffffffffffffffffffffffffffffffffffffffff1663a9059cbb33836040518363ffffffff1660e01b815260040161221a92919061389d565b6020604051808303816000875af1158015612239573d6000803e3d6000fd5b505050506040513d601f19601f8201168201806040525081019061225d9190613bd9565b503073ffffffffffffffffffffffffffffffffffffffff163373ffffffffffffffffffffffffffffffffffffffff167fd78ad95fa46c994b6551d0da85fc275fe613ce37657fb8d5e3d130840159d8226000868660006040516122c394939291906141c3565b60405180910390a36122d483612d9a565b505050565b60006122e483611567565b905081811015612329576040517f08c379a000000000000000000000000000000000000000000000000000000000815260040161232090613c52565b60405180910390fd5b601660009054906101000a900473ffffffffffffffffffffffffffffffffffffffff1673ffffffffffffffffffffffffffffffffffffffff166323b872dd3330866040518463ffffffff1660e01b815260040161238893929190613b8d565b6020604051808303816000875af11580156123a7573d6000803e3d6000fd5b505050506040513d601f19601f820116820180604052508101906123cb9190613bd9565b5060006123e882601f546123df9190613b4b565b620f424061198c565b9050601760009054906101000a900473ffffffffffffffffffffffffffffffffffffffff1673ffffffffffffffffffffffffffffffffffffffff1663a9059cbb601560009054906101000a900473ffffffffffffffffffffffffffffffffffffffff16836040518363ffffffff1660e01b815260040161246992919061389d565b6020604051808303816000875af1158015612488573d6000803e3d6000fd5b505050506040513d601f19601f820116820180604052508101906124ac9190613bd9565b50601760009054906101000a900473ffffffffffffffffffffffffffffffffffffffff1673ffffffffffffffffffffffffffffffffffffffff1663a9059cbb3383856124f891906139e8565b6040518363ffffffff1660e01b815260040161251592919061389d565b6020604051808303816000875af1158015612534573d6000803e3d6000fd5b505050506040513d601f19601f820116820180604052508101906125589190613bd9565b503073ffffffffffffffffffffffffffffffffffffffff163373ffffffffffffffffffffffffffffffffffffffff167fd78ad95fa46c994b6551d0da85fc275fe613ce37657fb8d5e3d130840159d82286600080886040516125bd9493929190614208565b60405180910390a350505050565b6000601760009054906101000a900473ffffffffffffffffffffffffffffffffffffffff1673ffffffffffffffffffffffffffffffffffffffff166370a08231306040518263ffffffff1660e01b815260040161262891906132d7565b602060405180830381865afa158015612645573d6000803e3d6000fd5b505050506040513d601f19601f820116820180604052508101906126699190613e0b565b905090565b60035460015460025461268191906139e8565b036126d65760008060015481526020019081526020016000206000808201600090556001820160009055600282016000905560038201600090555050600160008154809291906126d090613a7c565b91905055505b600260008154809291906126e990613a7c565b9190505550604051806080016040528084815260200183815260200182815260200142815250600080600254815260200190815260200160002060008201518160000155602082015181600101556040820151816002015560608201518160030155905050505050565b600073ffffffffffffffffffffffffffffffffffffffff168273ffffffffffffffffffffffffffffffffffffffff16036127c2576040517f08c379a00000000000000000000000000000000000000000000000000000000081526004016127b990614299565b60405180910390fd5b6127ce60008383612d90565b80601060008282546127e091906139b4565b9250508190555080600e60008473ffffffffffffffffffffffffffffffffffffffff1673ffffffffffffffffffffffffffffffffffffffff168152602001908152602001600020600082825401925050819055508173ffffffffffffffffffffffffffffffffffffffff16600073ffffffffffffffffffffffffffffffffffffffff167fddf252ad1be2c89b69c2b068fc378daa952ba7f163c4a11628f55a4df523b3ef836040516128929190613127565b60405180910390a36128a660008383612d95565b5050565b60006128b4611a9b565b905060006128c0611b3e565b9050601b54816128d091906139b4565b601a54836128de91906139b4565b6128e89190613b4b565b601c819055505050565b600d54600954600a5461290591906139e8565b0361298857600560008373ffffffffffffffffffffffffffffffffffffffff1673ffffffffffffffffffffffffffffffffffffffff16815260200190815260200160002060006009548152602001908152602001600020600080820160009055600182016000905550506009600081548092919061298290613a7c565b91905055505b600a600081548092919061299b90613a7c565b9190505550604051806040016040528082815260200142815250600560008473ffffffffffffffffffffffffffffffffffffffff1673ffffffffffffffffffffffffffffffffffffffff1681526020019081526020016000206000600a54815260200190815260200160002060008201518160000155602082015181600101559050505050565b600d54600b54600c54612a3591906139e8565b03612ab857600660008373ffffffffffffffffffffffffffffffffffffffff1673ffffffffffffffffffffffffffffffffffffffff1681526020019081526020016000206000600b54815260200190815260200160002060008082016000905560018201600090555050600b6000815480929190612ab290613a7c565b91905055505b600c6000815480929190612acb90613a7c565b9190505550604051806040016040528082815260200142815250600660008473ffffffffffffffffffffffffffffffffffffffff1673ffffffffffffffffffffffffffffffffffffffff1681526020019081526020016000206000600c54815260200190815260200160002060008201518160000155602082015181600101559050505050565b612b5a611bf4565b73ffffffffffffffffffffffffffffffffffffffff16612b78611361565b73ffffffffffffffffffffffffffffffffffffffff1614612bce576040517f08c379a0000000000000000000000000000000000000000000000000000000008152600401612bc590614305565b60405180910390fd5b565b6000601360009054906101000a900473ffffffffffffffffffffffffffffffffffffffff16905081601360006101000a81548173ffffffffffffffffffffffffffffffffffffffff021916908373ffffffffffffffffffffffffffffffffffffffff1602179055508173ffffffffffffffffffffffffffffffffffffffff168173ffffffffffffffffffffffffffffffffffffffff167f8be0079c531659141344cd1fd0a4f28419497f9722a3daafe3b4186f6b6457e060405160405180910390a35050565b600080600090506000608084901c1115612cb857608083901c92506080810190505b6000604084901c1115612cd357604083901c92506040810190505b6000602084901c1115612cee57602083901c92506020810190505b6000601084901c1115612d0957601083901c92506010810190505b6000600884901c1115612d2457600883901c92506008810190505b6000600484901c1115612d3f57600483901c92506004810190505b6000600284901c1115612d5a57600283901c92506002810190505b6000600184901c1115612d6e576001810190505b80915050919050565b6000818310612d865781612d88565b825b905092915050565b505050565b505050565b60006022540315612eb35760005b602254811015612eb1576000612df06021600084815260200190815260200160002060009054906101000a900473ffffffffffffffffffffffffffffffffffffffff166111a8565b90506000612e206020548386612e069190613b4b565b612e109190613b4b565b69152d02c7e14af680000061198c565b9050612e5f6021600085815260200190815260200160002060009054906101000a900473ffffffffffffffffffffffffffffffffffffffff1682612753565b612e9c6021600085815260200190815260200160002060009054906101000a900473ffffffffffffffffffffffffffffffffffffffff1682612eb6565b50508080612ea990613a7c565b915050612da8565b505b50565b600d54600754600854612ec991906139e8565b03612f4c57600460008373ffffffffffffffffffffffffffffffffffffffff1673ffffffffffffffffffffffffffffffffffffffff168152602001908152602001600020600060075481526020019081526020016000206000808201600090556001820160009055505060076000815480929190612f4690613a7c565b91905055505b60086000815480929190612f5f90613a7c565b9190505550604051806040016040528082815260200142815250600460008473ffffffffffffffffffffffffffffffffffffffff1673ffffffffffffffffffffffffffffffffffffffff1681526020019081526020016000206000600854815260200190815260200160002060008201518160000155602082015181600101559050505050565b604051806040016040528060008152602001600081525090565b6040518060800160405280600081526020016000815260200160008152602001600081525090565b604051806040016040528060008152602001600081525090565b604051806040016040528060008152602001600081525090565b6040518060800160405280600073ffffffffffffffffffffffffffffffffffffffff168152602001600073ffffffffffffffffffffffffffffffffffffffff16815260200160008152602001600081525090565b600080fd5b6000819050919050565b6130c8816130b5565b81146130d357600080fd5b50565b6000813590506130e5816130bf565b92915050565b600060208284031215613101576131006130b0565b5b600061310f848285016130d6565b91505092915050565b613121816130b5565b82525050565b600060208201905061313c6000830184613118565b92915050565b600081519050919050565b600082825260208201905092915050565b60005b8381101561317c578082015181840152602081019050613161565b60008484015250505050565b6000601f19601f8301169050919050565b60006131a482613142565b6131ae818561314d565b93506131be81856020860161315e565b6131c781613188565b840191505092915050565b600060208201905081810360008301526131ec8184613199565b905092915050565b600073ffffffffffffffffffffffffffffffffffffffff82169050919050565b600061321f826131f4565b9050919050565b61322f81613214565b811461323a57600080fd5b50565b60008135905061324c81613226565b92915050565b60008060408385031215613269576132686130b0565b5b60006132778582860161323d565b9250506020613288858286016130d6565b9150509250929050565b60008115159050919050565b6132a781613292565b82525050565b60006020820190506132c2600083018461329e565b92915050565b6132d181613214565b82525050565b60006020820190506132ec60008301846132c8565b92915050565b60008060006060848603121561330b5761330a6130b0565b5b60006133198682870161323d565b935050602061332a8682870161323d565b925050604061333b868287016130d6565b9150509250925092565b61334e81613292565b811461335957600080fd5b50565b60008135905061336b81613345565b92915050565b60008060006060848603121561338a576133896130b0565b5b6000613398868287016130d6565b93505060206133a9868287016130d6565b92505060406133ba8682870161335c565b9150509250925092565b600060ff82169050919050565b6133da816133c4565b82525050565b60006020820190506133f560008301846133d1565b92915050565b600060208284031215613411576134106130b0565b5b600061341f8482850161323d565b91505092915050565b600081519050919050565b600082825260208201905092915050565b6000819050602082019050919050565b61345d816130b5565b82525050565b6040820160008201516134796000850182613454565b50602082015161348c6020850182613454565b50505050565b600061349e8383613463565b60408301905092915050565b6000602082019050919050565b60006134c282613428565b6134cc8185613433565b93506134d783613444565b8060005b838110156135085781516134ef8882613492565b97506134fa836134aa565b9250506001810190506134db565b5085935050505092915050565b6000602082019050818103600083015261352f81846134b7565b905092915050565b600081519050919050565b600082825260208201905092915050565b6000819050602082019050919050565b6080820160008201516135796000850182613454565b50602082015161358c6020850182613454565b50604082015161359f6040850182613454565b5060608201516135b26060850182613454565b50505050565b60006135c48383613563565b60808301905092915050565b6000602082019050919050565b60006135e882613537565b6135f28185613542565b93506135fd83613553565b8060005b8381101561362e57815161361588826135b8565b9750613620836135d0565b925050600181019050613601565b5085935050505092915050565b6000602082019050818103600083015261365581846135dd565b905092915050565b60008060408385031215613674576136736130b0565b5b6000613682858286016130d6565b9250506020613693858286016130d6565b9150509250929050565b600081519050919050565b600082825260208201905092915050565b6000819050602082019050919050565b6040820160008201516136df6000850182613454565b5060208201516136f26020850182613454565b50505050565b600061370483836136c9565b60408301905092915050565b6000602082019050919050565b60006137288261369d565b61373281856136a8565b935061373d836136b9565b8060005b8381101561376e57815161375588826136f8565b975061376083613710565b925050600181019050613741565b5085935050505092915050565b60006020820190508181036000830152613795818461371d565b905092915050565b600081519050919050565b600082825260208201905092915050565b6000819050602082019050919050565b6040820160008201516137df6000850182613454565b5060208201516137f26020850182613454565b50505050565b600061380483836137c9565b60408301905092915050565b6000602082019050919050565b60006138288261379d565b61383281856137a8565b935061383d836137b9565b8060005b8381101561386e57815161385588826137f8565b975061386083613810565b925050600181019050613841565b5085935050505092915050565b60006020820190508181036000830152613895818461381d565b905092915050565b60006040820190506138b260008301856132c8565b6138bf6020830184613118565b9392505050565b600080604083850312156138dd576138dc6130b0565b5b60006138eb8582860161323d565b92505060206138fc8582860161323d565b9150509250929050565b61390f81613214565b82525050565b60808201600082015161392b6000850182613906565b50602082015161393e6020850182613906565b5060408201516139516040850182613454565b5060608201516139646060850182613454565b50505050565b600060808201905061397f6000830184613915565b92915050565b7f4e487b7100000000000000000000000000000000000000000000000000000000600052601160045260246000fd5b60006139bf826130b5565b91506139ca836130b5565b92508282019050808211156139e2576139e1613985565b5b92915050565b60006139f3826130b5565b91506139fe836130b5565b9250828203905081811115613a1657613a15613985565b5b92915050565b7f4e487b7100000000000000000000000000000000000000000000000000000000600052602260045260246000fd5b60006002820490506001821680613a6357607f821691505b602082108103613a7657613a75613a1c565b5b50919050565b6000613a87826130b5565b91507fffffffffffffffffffffffffffffffffffffffffffffffffffffffffffffffff8203613ab957613ab8613985565b5b600182019050919050565b6000604082019050613ad96000830185613118565b613ae66020830184613118565b9392505050565b7f4e487b7100000000000000000000000000000000000000000000000000000000600052604160045260246000fd5b7f4e487b7100000000000000000000000000000000000000000000000000000000600052603260045260246000fd5b6000613b56826130b5565b9150613b61836130b5565b9250828202613b6f816130b5565b91508282048414831517613b8657613b85613985565b5b5092915050565b6000606082019050613ba260008301866132c8565b613baf60208301856132c8565b613bbc6040830184613118565b949350505050565b600081519050613bd381613345565b92915050565b600060208284031215613bef57613bee6130b0565b5b6000613bfd84828501613bc4565b91505092915050565b7f496e73756666696369656e74206f757470757420616d6f756e74000000000000600082015250565b6000613c3c601a8361314d565b9150613c4782613c06565b602082019050919050565b60006020820190508181036000830152613c6b81613c2f565b9050919050565b7f45524332303a2064656372656173656420616c6c6f77616e63652062656c6f7760008201527f207a65726f000000000000000000000000000000000000000000000000000000602082015250565b6000613cce60258361314d565b9150613cd982613c72565b604082019050919050565b60006020820190508181036000830152613cfd81613cc1565b9050919050565b7f4f776e61626c653a206e6577206f776e657220697320746865207a65726f206160008201527f6464726573730000000000000000000000000000000000000000000000000000602082015250565b6000613d6060268361314d565b9150613d6b82613d04565b604082019050919050565b60006020820190508181036000830152613d8f81613d53565b9050919050565b7f4e487b7100000000000000000000000000000000000000000000000000000000600052601260045260246000fd5b6000613dd0826130b5565b9150613ddb836130b5565b925082613deb57613dea613d96565b5b828204905092915050565b600081519050613e05816130bf565b92915050565b600060208284031215613e2157613e206130b0565b5b6000613e2f84828501613df6565b91505092915050565b7f45524332303a20617070726f76652066726f6d20746865207a65726f2061646460008201527f7265737300000000000000000000000000000000000000000000000000000000602082015250565b6000613e9460248361314d565b9150613e9f82613e38565b604082019050919050565b60006020820190508181036000830152613ec381613e87565b9050919050565b7f45524332303a20617070726f766520746f20746865207a65726f20616464726560008201527f7373000000000000000000000000000000000000000000000000000000000000602082015250565b6000613f2660228361314d565b9150613f3182613eca565b604082019050919050565b60006020820190508181036000830152613f5581613f19565b9050919050565b7f45524332303a20696e73756666696369656e7420616c6c6f77616e6365000000600082015250565b6000613f92601d8361314d565b9150613f9d82613f5c565b602082019050919050565b60006020820190508181036000830152613fc181613f85565b9050919050565b7f45524332303a207472616e736665722066726f6d20746865207a65726f20616460008201527f6472657373000000000000000000000000000000000000000000000000000000602082015250565b600061402460258361314d565b915061402f82613fc8565b604082019050919050565b6000602082019050818103600083015261405381614017565b9050919050565b7f45524332303a207472616e7366657220746f20746865207a65726f206164647260008201527f6573730000000000000000000000000000000000000000000000000000000000602082015250565b60006140b660238361314d565b91506140c18261405a565b604082019050919050565b600060208201905081810360008301526140e5816140a9565b9050919050565b7f45524332303a207472616e7366657220616d6f756e742065786365656473206260008201527f616c616e63650000000000000000000000000000000000000000000000000000602082015250565b600061414860268361314d565b9150614153826140ec565b604082019050919050565b600060208201905081810360008301526141778161413b565b9050919050565b6000819050919050565b6000819050919050565b60006141ad6141a86141a38461417e565b614188565b6130b5565b9050919050565b6141bd81614192565b82525050565b60006080820190506141d860008301876141b4565b6141e56020830186613118565b6141f26040830185613118565b6141ff60608301846141b4565b95945050505050565b600060808201905061421d6000830187613118565b61422a60208301866141b4565b61423760408301856141b4565b6142446060830184613118565b95945050505050565b7f45524332303a206d696e7420746f20746865207a65726f206164647265737300600082015250565b6000614283601f8361314d565b915061428e8261424d565b602082019050919050565b600060208201905081810360008301526142b281614276565b9050919050565b7f4f776e61626c653a2063616c6c6572206973206e6f7420746865206f776e6572600082015250565b60006142ef60208361314d565b91506142fa826142b9565b602082019050919050565b6000602082019050818103600083015261431e816142e2565b905091905056fea26469706673582212203eceb3344b399b5570f5d6f8a765b3e61804248af60aae896674338637696e5e64736f6c63430008120033",
			"opcodes": "PUSH1 0x80 PUSH1 0x40 MSTORE CALLVALUE DUP1 ISZERO PUSH3 0x11 JUMPI PUSH1 0x0 DUP1 REVERT JUMPDEST POP PUSH1 0x40 MLOAD PUSH3 0x5742 CODESIZE SUB DUP1 PUSH3 0x5742 DUP4 CODECOPY DUP2 DUP2 ADD PUSH1 0x40 MSTORE DUP2 ADD SWAP1 PUSH3 0x37 SWAP2 SWAP1 PUSH3 0xA9F JUMP JUMPDEST DUP2 DUP2 PUSH1 0xA DUP1 PUSH1 0x0 PUSH1 0x1 DUP2 SWAP1 SSTORE POP PUSH1 0x0 PUSH1 0x2 DUP2 SWAP1 SSTORE POP DUP1 PUSH1 0x3 DUP2 SWAP1 SSTORE POP POP PUSH1 0x0 PUSH1 0x7 DUP2 SWAP1 SSTORE POP PUSH1 0x0 PUSH1 0x8 DUP2 SWAP1 SSTORE POP PUSH1 0x0 PUSH1 0x9 DUP2 SWAP1 SSTORE POP PUSH1 0x0 PUSH1 0xA DUP2 SWAP1 SSTORE POP PUSH1 0x0 PUSH1 0xB DUP2 SWAP1 SSTORE POP PUSH1 0x0 PUSH1 0xC DUP2 SWAP1 SSTORE POP DUP1 PUSH1 0xD DUP2 SWAP1 SSTORE POP POP DUP2 PUSH1 0x11 SWAP1 DUP2 PUSH3 0x9D SWAP2 SWAP1 PUSH3 0xE2B JUMP JUMPDEST POP DUP1 PUSH1 0x12 SWAP1 DUP2 PUSH3 0xAF SWAP2 SWAP1 PUSH3 0xE2B JUMP JUMPDEST POP POP POP PUSH3 0xD2 PUSH3 0xC6 PUSH3 0x3E0 PUSH1 0x20 SHL PUSH1 0x20 SHR JUMP JUMPDEST PUSH3 0x3E8 PUSH1 0x20 SHL PUSH1 0x20 SHR JUMP JUMPDEST DUP11 PUSH1 0x14 PUSH1 0x0 PUSH2 0x100 EXP DUP2 SLOAD DUP2 PUSH20 0xFFFFFFFFFFFFFFFFFFFFFFFFFFFFFFFFFFFFFFFF MUL NOT AND SWAP1 DUP4 PUSH20 0xFFFFFFFFFFFFFFFFFFFFFFFFFFFFFFFFFFFFFFFF AND MUL OR SWAP1 SSTORE POP DUP10 PUSH1 0x15 PUSH1 0x0 PUSH2 0x100 EXP DUP2 SLOAD DUP2 PUSH20 0xFFFFFFFFFFFFFFFFFFFFFFFFFFFFFFFFFFFFFFFF MUL NOT AND SWAP1 DUP4 PUSH20 0xFFFFFFFFFFFFFFFFFFFFFFFFFFFFFFFFFFFFFFFF AND MUL OR SWAP1 SSTORE POP DUP8 PUSH20 0xFFFFFFFFFFFFFFFFFFFFFFFFFFFFFFFFFFFFFFFF AND DUP10 PUSH20 0xFFFFFFFFFFFFFFFFFFFFFFFFFFFFFFFFFFFFFFFF AND SUB PUSH3 0x1C5 JUMPI PUSH1 0x40 MLOAD PUSH32 0x8C379A000000000000000000000000000000000000000000000000000000000 DUP2 MSTORE PUSH1 0x4 ADD PUSH3 0x1BC SWAP1 PUSH3 0xF73 JUMP JUMPDEST PUSH1 0x40 MLOAD DUP1 SWAP2 SUB SWAP1 REVERT JUMPDEST DUP9 PUSH1 0x16 PUSH1 0x0 PUSH2 0x100 EXP DUP2 SLOAD DUP2 PUSH20 0xFFFFFFFFFFFFFFFFFFFFFFFFFFFFFFFFFFFFFFFF MUL NOT AND SWAP1 DUP4 PUSH20 0xFFFFFFFFFFFFFFFFFFFFFFFFFFFFFFFFFFFFFFFF AND MUL OR SWAP1 SSTORE POP DUP8 PUSH1 0x17 PUSH1 0x0 PUSH2 0x100 EXP DUP2 SLOAD DUP2 PUSH20 0xFFFFFFFFFFFFFFFFFFFFFFFFFFFFFFFFFFFFFFFF MUL NOT AND SWAP1 DUP4 PUSH20 0xFFFFFFFFFFFFFFFFFFFFFFFFFFFFFFFFFFFFFFFF AND MUL OR SWAP1 SSTORE POP DUP7 PUSH1 0x18 DUP2 SWAP1 SSTORE POP DUP6 PUSH1 0x19 DUP2 SWAP1 SSTORE POP DUP5 DUP5 LT ISZERO PUSH3 0x29B JUMPI PUSH1 0x40 MLOAD PUSH32 0x8C379A000000000000000000000000000000000000000000000000000000000 DUP2 MSTORE PUSH1 0x4 ADD PUSH3 0x292 SWAP1 PUSH3 0x100B JUMP JUMPDEST PUSH1 0x40 MLOAD DUP1 SWAP2 SUB SWAP1 REVERT JUMPDEST DUP5 PUSH1 0x1D DUP2 SWAP1 SSTORE POP DUP4 PUSH1 0x1E DUP2 SWAP1 SSTORE POP DUP3 PUSH1 0x1F DUP2 SWAP1 SSTORE POP PUSH3 0x2C3 DUP6 DUP6 DUP10 PUSH3 0x4AE PUSH1 0x20 SHL PUSH1 0x20 SHR JUMP JUMPDEST PUSH1 0x1A DUP2 SWAP1 SSTORE POP PUSH3 0x2E0 DUP10 DUP7 PUSH1 0x1A SLOAD DUP11 DUP11 PUSH3 0x545 PUSH1 0x20 SHL PUSH1 0x20 SHR JUMP JUMPDEST PUSH1 0x1B DUP2 SWAP1 SSTORE POP PUSH1 0x1B SLOAD PUSH1 0x19 SLOAD PUSH3 0x2F8 SWAP2 SWAP1 PUSH3 0x105C JUMP JUMPDEST PUSH1 0x1A SLOAD PUSH1 0x18 SLOAD PUSH3 0x30A SWAP2 SWAP1 PUSH3 0x105C JUMP JUMPDEST PUSH3 0x316 SWAP2 SWAP1 PUSH3 0x1097 JUMP JUMPDEST PUSH1 0x1C DUP2 SWAP1 SSTORE POP PUSH1 0x40 MLOAD DUP1 PUSH1 0x80 ADD PUSH1 0x40 MSTORE DUP1 PUSH1 0x18 SLOAD DUP2 MSTORE PUSH1 0x20 ADD PUSH1 0x19 SLOAD DUP2 MSTORE PUSH1 0x20 ADD PUSH1 0x1D SLOAD DUP2 MSTORE PUSH1 0x20 ADD TIMESTAMP DUP2 MSTORE POP PUSH1 0x0 DUP1 DUP1 DUP2 MSTORE PUSH1 0x20 ADD SWAP1 DUP2 MSTORE PUSH1 0x20 ADD PUSH1 0x0 KECCAK256 PUSH1 0x0 DUP3 ADD MLOAD DUP2 PUSH1 0x0 ADD SSTORE PUSH1 0x20 DUP3 ADD MLOAD DUP2 PUSH1 0x1 ADD SSTORE PUSH1 0x40 DUP3 ADD MLOAD DUP2 PUSH1 0x2 ADD SSTORE PUSH1 0x60 DUP3 ADD MLOAD DUP2 PUSH1 0x3 ADD SSTORE SWAP1 POP POP PUSH32 0xCF2AA50876CDFBB541206F89AF0EE78D44A2ABF8D328E37FA4917F982149848A PUSH1 0x18 SLOAD PUSH1 0x19 SLOAD PUSH1 0x40 MLOAD PUSH3 0x3B7 SWAP3 SWAP2 SWAP1 PUSH3 0x10F3 JUMP JUMPDEST PUSH1 0x40 MLOAD DUP1 SWAP2 SUB SWAP1 LOG1 PUSH1 0x64 PUSH1 0x20 DUP2 SWAP1 SSTORE POP PUSH1 0x0 PUSH1 0x22 DUP2 SWAP1 SSTORE POP POP POP POP POP POP POP POP POP POP POP POP PUSH3 0x13D7 JUMP JUMPDEST PUSH1 0x0 CALLER SWAP1 POP SWAP1 JUMP JUMPDEST PUSH1 0x0 PUSH1 0x13 PUSH1 0x0 SWAP1 SLOAD SWAP1 PUSH2 0x100 EXP SWAP1 DIV PUSH20 0xFFFFFFFFFFFFFFFFFFFFFFFFFFFFFFFFFFFFFFFF AND SWAP1 POP DUP2 PUSH1 0x13 PUSH1 0x0 PUSH2 0x100 EXP DUP2 SLOAD DUP2 PUSH20 0xFFFFFFFFFFFFFFFFFFFFFFFFFFFFFFFFFFFFFFFF MUL NOT AND SWAP1 DUP4 PUSH20 0xFFFFFFFFFFFFFFFFFFFFFFFFFFFFFFFFFFFFFFFF AND MUL OR SWAP1 SSTORE POP DUP2 PUSH20 0xFFFFFFFFFFFFFFFFFFFFFFFFFFFFFFFFFFFFFFFF AND DUP2 PUSH20 0xFFFFFFFFFFFFFFFFFFFFFFFFFFFFFFFFFFFFFFFF AND PUSH32 0x8BE0079C531659141344CD1FD0A4F28419497F9722A3DAAFE3B4186F6B6457E0 PUSH1 0x40 MLOAD PUSH1 0x40 MLOAD DUP1 SWAP2 SUB SWAP1 LOG3 POP POP JUMP JUMPDEST PUSH1 0x0 DUP1 PUSH3 0x4DD PUSH8 0xDE0B6B3A7640000 DUP7 PUSH3 0x4CB SWAP2 SWAP1 PUSH3 0x1097 JUMP JUMPDEST DUP6 PUSH3 0x62D PUSH1 0x20 SHL PUSH3 0x198C OR PUSH1 0x20 SHR JUMP JUMPDEST SWAP1 POP PUSH1 0x0 PUSH3 0x4F7 DUP3 PUSH3 0x645 PUSH1 0x20 SHL PUSH3 0x19A2 OR PUSH1 0x20 SHR JUMP JUMPDEST SWAP1 POP PUSH1 0x0 DUP5 DUP3 PUSH3 0x509 SWAP2 SWAP1 PUSH3 0x1097 JUMP JUMPDEST SWAP1 POP PUSH1 0x0 DUP3 PUSH4 0x3B9ACA00 PUSH3 0x51F SWAP2 SWAP1 PUSH3 0x1120 JUMP JUMPDEST SWAP1 POP PUSH3 0x538 DUP3 DUP3 PUSH3 0x62D PUSH1 0x20 SHL PUSH3 0x198C OR PUSH1 0x20 SHR JUMP JUMPDEST SWAP5 POP POP POP POP POP SWAP4 SWAP3 POP POP POP JUMP JUMPDEST PUSH1 0x0 DUP1 DUP7 PUSH20 0xFFFFFFFFFFFFFFFFFFFFFFFFFFFFFFFFFFFFFFFF AND PUSH4 0x313CE567 PUSH1 0x40 MLOAD DUP2 PUSH4 0xFFFFFFFF AND PUSH1 0xE0 SHL DUP2 MSTORE PUSH1 0x4 ADD PUSH1 0x20 PUSH1 0x40 MLOAD DUP1 DUP4 SUB DUP2 DUP7 GAS STATICCALL ISZERO DUP1 ISZERO PUSH3 0x594 JUMPI RETURNDATASIZE PUSH1 0x0 DUP1 RETURNDATACOPY RETURNDATASIZE PUSH1 0x0 REVERT JUMPDEST POP POP POP POP PUSH1 0x40 MLOAD RETURNDATASIZE PUSH1 0x1F NOT PUSH1 0x1F DUP3 ADD AND DUP3 ADD DUP1 PUSH1 0x40 MSTORE POP DUP2 ADD SWAP1 PUSH3 0x5BA SWAP2 SWAP1 PUSH3 0x1199 JUMP JUMPDEST SWAP1 POP PUSH1 0x0 DUP2 PUSH1 0xA PUSH3 0x5CD SWAP2 SWAP1 PUSH3 0x131F JUMP JUMPDEST SWAP1 POP PUSH1 0x0 DUP5 DUP3 PUSH3 0x5DF SWAP2 SWAP1 PUSH3 0x1097 JUMP JUMPDEST DUP8 DUP8 PUSH3 0x5ED SWAP2 SWAP1 PUSH3 0x105C JUMP JUMPDEST DUP10 PUSH3 0x5FA SWAP2 SWAP1 PUSH3 0x1097 JUMP JUMPDEST PUSH3 0x606 SWAP2 SWAP1 PUSH3 0x1120 JUMP JUMPDEST SWAP1 POP PUSH3 0x61F DUP2 DUP4 PUSH3 0x62D PUSH1 0x20 SHL PUSH3 0x198C OR PUSH1 0x20 SHR JUMP JUMPDEST SWAP4 POP POP POP POP SWAP6 SWAP5 POP POP POP POP POP JUMP JUMPDEST PUSH1 0x0 DUP2 DUP4 PUSH3 0x63D SWAP2 SWAP1 PUSH3 0x139F JUMP JUMPDEST SWAP1 POP SWAP3 SWAP2 POP POP JUMP JUMPDEST PUSH1 0x0 DUP1 DUP3 SUB PUSH3 0x659 JUMPI PUSH1 0x0 SWAP1 POP PUSH3 0x763 JUMP JUMPDEST PUSH1 0x0 PUSH1 0x1 PUSH3 0x66E DUP5 PUSH3 0x768 PUSH1 0x20 SHL PUSH1 0x20 SHR JUMP JUMPDEST SWAP1 SHR PUSH1 0x1 SWAP1 SHL SWAP1 POP PUSH1 0x1 DUP2 DUP5 DUP2 PUSH3 0x68B JUMPI PUSH3 0x68A PUSH3 0x1370 JUMP JUMPDEST JUMPDEST DIV DUP3 ADD SWAP1 SHR SWAP1 POP PUSH1 0x1 DUP2 DUP5 DUP2 PUSH3 0x6A7 JUMPI PUSH3 0x6A6 PUSH3 0x1370 JUMP JUMPDEST JUMPDEST DIV DUP3 ADD SWAP1 SHR SWAP1 POP PUSH1 0x1 DUP2 DUP5 DUP2 PUSH3 0x6C3 JUMPI PUSH3 0x6C2 PUSH3 0x1370 JUMP JUMPDEST JUMPDEST DIV DUP3 ADD SWAP1 SHR SWAP1 POP PUSH1 0x1 DUP2 DUP5 DUP2 PUSH3 0x6DF JUMPI PUSH3 0x6DE PUSH3 0x1370 JUMP JUMPDEST JUMPDEST DIV DUP3 ADD SWAP1 SHR SWAP1 POP PUSH1 0x1 DUP2 DUP5 DUP2 PUSH3 0x6FB JUMPI PUSH3 0x6FA PUSH3 0x1370 JUMP JUMPDEST JUMPDEST DIV DUP3 ADD SWAP1 SHR SWAP1 POP PUSH1 0x1 DUP2 DUP5 DUP2 PUSH3 0x717 JUMPI PUSH3 0x716 PUSH3 0x1370 JUMP JUMPDEST JUMPDEST DIV DUP3 ADD SWAP1 SHR SWAP1 POP PUSH1 0x1 DUP2 DUP5 DUP2 PUSH3 0x733 JUMPI PUSH3 0x732 PUSH3 0x1370 JUMP JUMPDEST JUMPDEST DIV DUP3 ADD SWAP1 SHR SWAP1 POP PUSH3 0x75F DUP2 DUP3 DUP6 DUP2 PUSH3 0x752 JUMPI PUSH3 0x751 PUSH3 0x1370 JUMP JUMPDEST JUMPDEST DIV PUSH3 0x851 PUSH1 0x20 SHL PUSH1 0x20 SHR JUMP JUMPDEST SWAP2 POP POP JUMPDEST SWAP2 SWAP1 POP JUMP JUMPDEST PUSH1 0x0 DUP1 PUSH1 0x0 SWAP1 POP PUSH1 0x0 PUSH1 0x80 DUP5 SWAP1 SHR GT ISZERO PUSH3 0x78B JUMPI PUSH1 0x80 DUP4 SWAP1 SHR SWAP3 POP PUSH1 0x80 DUP2 ADD SWAP1 POP JUMPDEST PUSH1 0x0 PUSH1 0x40 DUP5 SWAP1 SHR GT ISZERO PUSH3 0x7A7 JUMPI PUSH1 0x40 DUP4 SWAP1 SHR SWAP3 POP PUSH1 0x40 DUP2 ADD SWAP1 POP JUMPDEST PUSH1 0x0 PUSH1 0x20 DUP5 SWAP1 SHR GT ISZERO PUSH3 0x7C3 JUMPI PUSH1 0x20 DUP4 SWAP1 SHR SWAP3 POP PUSH1 0x20 DUP2 ADD SWAP1 POP JUMPDEST PUSH1 0x0 PUSH1 0x10 DUP5 SWAP1 SHR GT ISZERO PUSH3 0x7DF JUMPI PUSH1 0x10 DUP4 SWAP1 SHR SWAP3 POP PUSH1 0x10 DUP2 ADD SWAP1 POP JUMPDEST PUSH1 0x0 PUSH1 0x8 DUP5 SWAP1 SHR GT ISZERO PUSH3 0x7FB JUMPI PUSH1 0x8 DUP4 SWAP1 SHR SWAP3 POP PUSH1 0x8 DUP2 ADD SWAP1 POP JUMPDEST PUSH1 0x0 PUSH1 0x4 DUP5 SWAP1 SHR GT ISZERO PUSH3 0x817 JUMPI PUSH1 0x4 DUP4 SWAP1 SHR SWAP3 POP PUSH1 0x4 DUP2 ADD SWAP1 POP JUMPDEST PUSH1 0x0 PUSH1 0x2 DUP5 SWAP1 SHR GT ISZERO PUSH3 0x833 JUMPI PUSH1 0x2 DUP4 SWAP1 SHR SWAP3 POP PUSH1 0x2 DUP2 ADD SWAP1 POP JUMPDEST PUSH1 0x0 PUSH1 0x1 DUP5 SWAP1 SHR GT ISZERO PUSH3 0x848 JUMPI PUSH1 0x1 DUP2 ADD SWAP1 POP JUMPDEST DUP1 SWAP2 POP POP SWAP2 SWAP1 POP JUMP JUMPDEST PUSH1 0x0 DUP2 DUP4 LT PUSH3 0x862 JUMPI DUP2 PUSH3 0x864 JUMP JUMPDEST DUP3 JUMPDEST SWAP1 POP SWAP3 SWAP2 POP POP JUMP JUMPDEST PUSH1 0x0 PUSH1 0x40 MLOAD SWAP1 POP SWAP1 JUMP JUMPDEST PUSH1 0x0 DUP1 REVERT JUMPDEST PUSH1 0x0 DUP1 REVERT JUMPDEST PUSH1 0x0 PUSH20 0xFFFFFFFFFFFFFFFFFFFFFFFFFFFFFFFFFFFFFFFF DUP3 AND SWAP1 POP SWAP2 SWAP1 POP JUMP JUMPDEST PUSH1 0x0 PUSH3 0x8AD DUP3 PUSH3 0x880 JUMP JUMPDEST SWAP1 POP SWAP2 SWAP1 POP JUMP JUMPDEST PUSH3 0x8BF DUP2 PUSH3 0x8A0 JUMP JUMPDEST DUP2 EQ PUSH3 0x8CB JUMPI PUSH1 0x0 DUP1 REVERT JUMPDEST POP JUMP JUMPDEST PUSH1 0x0 DUP2 MLOAD SWAP1 POP PUSH3 0x8DF DUP2 PUSH3 0x8B4 JUMP JUMPDEST SWAP3 SWAP2 POP POP JUMP JUMPDEST PUSH1 0x0 DUP2 SWAP1 POP SWAP2 SWAP1 POP JUMP JUMPDEST PUSH3 0x8FA DUP2 PUSH3 0x8E5 JUMP JUMPDEST DUP2 EQ PUSH3 0x906 JUMPI PUSH1 0x0 DUP1 REVERT JUMPDEST POP JUMP JUMPDEST PUSH1 0x0 DUP2 MLOAD SWAP1 POP PUSH3 0x91A DUP2 PUSH3 0x8EF JUMP JUMPDEST SWAP3 SWAP2 POP POP JUMP JUMPDEST PUSH1 0x0 DUP1 REVERT JUMPDEST PUSH1 0x0 DUP1 REVERT JUMPDEST PUSH1 0x0 PUSH1 0x1F NOT PUSH1 0x1F DUP4 ADD AND SWAP1 POP SWAP2 SWAP1 POP JUMP JUMPDEST PUSH32 0x4E487B7100000000000000000000000000000000000000000000000000000000 PUSH1 0x0 MSTORE PUSH1 0x41 PUSH1 0x4 MSTORE PUSH1 0x24 PUSH1 0x0 REVERT JUMPDEST PUSH3 0x975 DUP3 PUSH3 0x92A JUMP JUMPDEST DUP2 ADD DUP2 DUP2 LT PUSH8 0xFFFFFFFFFFFFFFFF DUP3 GT OR ISZERO PUSH3 0x997 JUMPI PUSH3 0x996 PUSH3 0x93B JUMP JUMPDEST JUMPDEST DUP1 PUSH1 0x40 MSTORE POP POP POP JUMP JUMPDEST PUSH1 0x0 PUSH3 0x9AC PUSH3 0x86C JUMP JUMPDEST SWAP1 POP PUSH3 0x9BA DUP3 DUP3 PUSH3 0x96A JUMP JUMPDEST SWAP2 SWAP1 POP JUMP JUMPDEST PUSH1 0x0 PUSH8 0xFFFFFFFFFFFFFFFF DUP3 GT ISZERO PUSH3 0x9DD JUMPI PUSH3 0x9DC PUSH3 0x93B JUMP JUMPDEST JUMPDEST PUSH3 0x9E8 DUP3 PUSH3 0x92A JUMP JUMPDEST SWAP1 POP PUSH1 0x20 DUP2 ADD SWAP1 POP SWAP2 SWAP1 POP JUMP JUMPDEST PUSH1 0x0 JUMPDEST DUP4 DUP2 LT ISZERO PUSH3 0xA15 JUMPI DUP1 DUP3 ADD MLOAD DUP2 DUP5 ADD MSTORE PUSH1 0x20 DUP2 ADD SWAP1 POP PUSH3 0x9F8 JUMP JUMPDEST PUSH1 0x0 DUP5 DUP5 ADD MSTORE POP POP POP POP JUMP JUMPDEST PUSH1 0x0 PUSH3 0xA38 PUSH3 0xA32 DUP5 PUSH3 0x9BF JUMP JUMPDEST PUSH3 0x9A0 JUMP JUMPDEST SWAP1 POP DUP3 DUP2 MSTORE PUSH1 0x20 DUP2 ADD DUP5 DUP5 DUP5 ADD GT ISZERO PUSH3 0xA57 JUMPI PUSH3 0xA56 PUSH3 0x925 JUMP JUMPDEST JUMPDEST PUSH3 0xA64 DUP5 DUP3 DUP6 PUSH3 0x9F5 JUMP JUMPDEST POP SWAP4 SWAP3 POP POP POP JUMP JUMPDEST PUSH1 0x0 DUP3 PUSH1 0x1F DUP4 ADD SLT PUSH3 0xA84 JUMPI PUSH3 0xA83 PUSH3 0x920 JUMP JUMPDEST JUMPDEST DUP2 MLOAD PUSH3 0xA96 DUP5 DUP3 PUSH1 0x20 DUP7 ADD PUSH3 0xA21 JUMP JUMPDEST SWAP2 POP POP SWAP3 SWAP2 POP POP JUMP JUMPDEST PUSH1 0x0 DUP1 PUSH1 0x0 DUP1 PUSH1 0x0 DUP1 PUSH1 0x0 DUP1 PUSH1 0x0 DUP1 PUSH1 0x0 PUSH2 0x160 DUP13 DUP15 SUB SLT ISZERO PUSH3 0xAC8 JUMPI PUSH3 0xAC7 PUSH3 0x876 JUMP JUMPDEST JUMPDEST PUSH1 0x0 PUSH3 0xAD8 DUP15 DUP3 DUP16 ADD PUSH3 0x8CE JUMP JUMPDEST SWAP12 POP POP PUSH1 0x20 PUSH3 0xAEB DUP15 DUP3 DUP16 ADD PUSH3 0x8CE JUMP JUMPDEST SWAP11 POP POP PUSH1 0x40 PUSH3 0xAFE DUP15 DUP3 DUP16 ADD PUSH3 0x8CE JUMP JUMPDEST SWAP10 POP POP PUSH1 0x60 PUSH3 0xB11 DUP15 DUP3 DUP16 ADD PUSH3 0x8CE JUMP JUMPDEST SWAP9 POP POP PUSH1 0x80 PUSH3 0xB24 DUP15 DUP3 DUP16 ADD PUSH3 0x909 JUMP JUMPDEST SWAP8 POP POP PUSH1 0xA0 PUSH3 0xB37 DUP15 DUP3 DUP16 ADD PUSH3 0x909 JUMP JUMPDEST SWAP7 POP POP PUSH1 0xC0 PUSH3 0xB4A DUP15 DUP3 DUP16 ADD PUSH3 0x909 JUMP JUMPDEST SWAP6 POP POP PUSH1 0xE0 PUSH3 0xB5D DUP15 DUP3 DUP16 ADD PUSH3 0x909 JUMP JUMPDEST SWAP5 POP POP PUSH2 0x100 PUSH3 0xB71 DUP15 DUP3 DUP16 ADD PUSH3 0x909 JUMP JUMPDEST SWAP4 POP POP PUSH2 0x120 DUP13 ADD MLOAD PUSH8 0xFFFFFFFFFFFFFFFF DUP2 GT ISZERO PUSH3 0xB96 JUMPI PUSH3 0xB95 PUSH3 0x87B JUMP JUMPDEST JUMPDEST PUSH3 0xBA4 DUP15 DUP3 DUP16 ADD PUSH3 0xA6C JUMP JUMPDEST SWAP3 POP POP PUSH2 0x140 DUP13 ADD MLOAD PUSH8 0xFFFFFFFFFFFFFFFF DUP2 GT ISZERO PUSH3 0xBC9 JUMPI PUSH3 0xBC8 PUSH3 0x87B JUMP JUMPDEST JUMPDEST PUSH3 0xBD7 DUP15 DUP3 DUP16 ADD PUSH3 0xA6C JUMP JUMPDEST SWAP2 POP POP SWAP3 SWAP6 SWAP9 SWAP12 POP SWAP3 SWAP6 SWAP9 SWAP12 SWAP1 SWAP4 SWAP7 SWAP10 POP JUMP JUMPDEST PUSH1 0x0 DUP2 MLOAD SWAP1 POP SWAP2 SWAP1 POP JUMP JUMPDEST PUSH32 0x4E487B7100000000000000000000000000000000000000000000000000000000 PUSH1 0x0 MSTORE PUSH1 0x22 PUSH1 0x4 MSTORE PUSH1 0x24 PUSH1 0x0 REVERT JUMPDEST PUSH1 0x0 PUSH1 0x2 DUP3 DIV SWAP1 POP PUSH1 0x1 DUP3 AND DUP1 PUSH3 0xC3D JUMPI PUSH1 0x7F DUP3 AND SWAP2 POP JUMPDEST PUSH1 0x20 DUP3 LT DUP2 SUB PUSH3 0xC53 JUMPI PUSH3 0xC52 PUSH3 0xBF5 JUMP JUMPDEST JUMPDEST POP SWAP2 SWAP1 POP JUMP JUMPDEST PUSH1 0x0 DUP2 SWAP1 POP DUP2 PUSH1 0x0 MSTORE PUSH1 0x20 PUSH1 0x0 KECCAK256 SWAP1 POP SWAP2 SWAP1 POP JUMP JUMPDEST PUSH1 0x0 PUSH1 0x20 PUSH1 0x1F DUP4 ADD DIV SWAP1 POP SWAP2 SWAP1 POP JUMP JUMPDEST PUSH1 0x0 DUP3 DUP3 SHL SWAP1 POP SWAP3 SWAP2 POP POP JUMP JUMPDEST PUSH1 0x0 PUSH1 0x8 DUP4 MUL PUSH3 0xCBD PUSH32 0xFFFFFFFFFFFFFFFFFFFFFFFFFFFFFFFFFFFFFFFFFFFFFFFFFFFFFFFFFFFFFFFF DUP3 PUSH3 0xC7E JUMP JUMPDEST PUSH3 0xCC9 DUP7 DUP4 PUSH3 0xC7E JUMP JUMPDEST SWAP6 POP DUP1 NOT DUP5 AND SWAP4 POP DUP1 DUP7 AND DUP5 OR SWAP3 POP POP POP SWAP4 SWAP3 POP POP POP JUMP JUMPDEST PUSH1 0x0 DUP2 SWAP1 POP SWAP2 SWAP1 POP JUMP JUMPDEST PUSH1 0x0 PUSH3 0xD0C PUSH3 0xD06 PUSH3 0xD00 DUP5 PUSH3 0x8E5 JUMP JUMPDEST PUSH3 0xCE1 JUMP JUMPDEST PUSH3 0x8E5 JUMP JUMPDEST SWAP1 POP SWAP2 SWAP1 POP JUMP JUMPDEST PUSH1 0x0 DUP2 SWAP1 POP SWAP2 SWAP1 POP JUMP JUMPDEST PUSH3 0xD28 DUP4 PUSH3 0xCEB JUMP JUMPDEST PUSH3 0xD40 PUSH3 0xD37 DUP3 PUSH3 0xD13 JUMP JUMPDEST DUP5 DUP5 SLOAD PUSH3 0xC8B JUMP JUMPDEST DUP3 SSTORE POP POP POP POP JUMP JUMPDEST PUSH1 0x0 SWAP1 JUMP JUMPDEST PUSH3 0xD57 PUSH3 0xD48 JUMP JUMPDEST PUSH3 0xD64 DUP2 DUP5 DUP5 PUSH3 0xD1D JUMP JUMPDEST POP POP POP JUMP JUMPDEST JUMPDEST DUP2 DUP2 LT ISZERO PUSH3 0xD8C JUMPI PUSH3 0xD80 PUSH1 0x0 DUP3 PUSH3 0xD4D JUMP JUMPDEST PUSH1 0x1 DUP2 ADD SWAP1 POP PUSH3 0xD6A JUMP JUMPDEST POP POP JUMP JUMPDEST PUSH1 0x1F DUP3 GT ISZERO PUSH3 0xDDB JUMPI PUSH3 0xDA5 DUP2 PUSH3 0xC59 JUMP JUMPDEST PUSH3 0xDB0 DUP5 PUSH3 0xC6E JUMP JUMPDEST DUP2 ADD PUSH1 0x20 DUP6 LT ISZERO PUSH3 0xDC0 JUMPI DUP2 SWAP1 POP JUMPDEST PUSH3 0xDD8 PUSH3 0xDCF DUP6 PUSH3 0xC6E JUMP JUMPDEST DUP4 ADD DUP3 PUSH3 0xD69 JUMP JUMPDEST POP POP JUMPDEST POP POP POP JUMP JUMPDEST PUSH1 0x0 DUP3 DUP3 SHR SWAP1 POP SWAP3 SWAP2 POP POP JUMP JUMPDEST PUSH1 0x0 PUSH3 0xE00 PUSH1 0x0 NOT DUP5 PUSH1 0x8 MUL PUSH3 0xDE0 JUMP JUMPDEST NOT DUP1 DUP4 AND SWAP2 POP POP SWAP3 SWAP2 POP POP JUMP JUMPDEST PUSH1 0x0 PUSH3 0xE1B DUP4 DUP4 PUSH3 0xDED JUMP JUMPDEST SWAP2 POP DUP3 PUSH1 0x2 MUL DUP3 OR SWAP1 POP SWAP3 SWAP2 POP POP JUMP JUMPDEST PUSH3 0xE36 DUP3 PUSH3 0xBEA JUMP JUMPDEST PUSH8 0xFFFFFFFFFFFFFFFF DUP2 GT ISZERO PUSH3 0xE52 JUMPI PUSH3 0xE51 PUSH3 0x93B JUMP JUMPDEST JUMPDEST PUSH3 0xE5E DUP3 SLOAD PUSH3 0xC24 JUMP JUMPDEST PUSH3 0xE6B DUP3 DUP3 DUP6 PUSH3 0xD90 JUMP JUMPDEST PUSH1 0x0 PUSH1 0x20 SWAP1 POP PUSH1 0x1F DUP4 GT PUSH1 0x1 DUP2 EQ PUSH3 0xEA3 JUMPI PUSH1 0x0 DUP5 ISZERO PUSH3 0xE8E JUMPI DUP3 DUP8 ADD MLOAD SWAP1 POP JUMPDEST PUSH3 0xE9A DUP6 DUP3 PUSH3 0xE0D JUMP JUMPDEST DUP7 SSTORE POP PUSH3 0xF0A JUMP JUMPDEST PUSH1 0x1F NOT DUP5 AND PUSH3 0xEB3 DUP7 PUSH3 0xC59 JUMP JUMPDEST PUSH1 0x0 JUMPDEST DUP3 DUP2 LT ISZERO PUSH3 0xEDD JUMPI DUP5 DUP10 ADD MLOAD DUP3 SSTORE PUSH1 0x1 DUP3 ADD SWAP2 POP PUSH1 0x20 DUP6 ADD SWAP5 POP PUSH1 0x20 DUP2 ADD SWAP1 POP PUSH3 0xEB6 JUMP JUMPDEST DUP7 DUP4 LT ISZERO PUSH3 0xEFD JUMPI DUP5 DUP10 ADD MLOAD PUSH3 0xEF9 PUSH1 0x1F DUP10 AND DUP3 PUSH3 0xDED JUMP JUMPDEST DUP4 SSTORE POP JUMPDEST PUSH1 0x1 PUSH1 0x2 DUP9 MUL ADD DUP9 SSTORE POP POP POP JUMPDEST POP POP POP POP POP POP JUMP JUMPDEST PUSH1 0x0 DUP3 DUP3 MSTORE PUSH1 0x20 DUP3 ADD SWAP1 POP SWAP3 SWAP2 POP POP JUMP JUMPDEST PUSH32 0x426F746820746F6B656E732063616E6E6F74206265207468652073616D650000 PUSH1 0x0 DUP3 ADD MSTORE POP JUMP JUMPDEST PUSH1 0x0 PUSH3 0xF5B PUSH1 0x1E DUP4 PUSH3 0xF12 JUMP JUMPDEST SWAP2 POP PUSH3 0xF68 DUP3 PUSH3 0xF23 JUMP JUMPDEST PUSH1 0x20 DUP3 ADD SWAP1 POP SWAP2 SWAP1 POP JUMP JUMPDEST PUSH1 0x0 PUSH1 0x20 DUP3 ADD SWAP1 POP DUP2 DUP2 SUB PUSH1 0x0 DUP4 ADD MSTORE PUSH3 0xF8E DUP2 PUSH3 0xF4C JUMP JUMPDEST SWAP1 POP SWAP2 SWAP1 POP JUMP JUMPDEST PUSH32 0x4D6178696D756D207072696365206D7573742062652067726561746572207468 PUSH1 0x0 DUP3 ADD MSTORE PUSH32 0x616E206F7220657175616C20746F207468652062617365207072696365000000 PUSH1 0x20 DUP3 ADD MSTORE POP JUMP JUMPDEST PUSH1 0x0 PUSH3 0xFF3 PUSH1 0x3D DUP4 PUSH3 0xF12 JUMP JUMPDEST SWAP2 POP PUSH3 0x1000 DUP3 PUSH3 0xF95 JUMP JUMPDEST PUSH1 0x40 DUP3 ADD SWAP1 POP SWAP2 SWAP1 POP JUMP JUMPDEST PUSH1 0x0 PUSH1 0x20 DUP3 ADD SWAP1 POP DUP2 DUP2 SUB PUSH1 0x0 DUP4 ADD MSTORE PUSH3 0x1026 DUP2 PUSH3 0xFE4 JUMP JUMPDEST SWAP1 POP SWAP2 SWAP1 POP JUMP JUMPDEST PUSH32 0x4E487B7100000000000000000000000000000000000000000000000000000000 PUSH1 0x0 MSTORE PUSH1 0x11 PUSH1 0x4 MSTORE PUSH1 0x24 PUSH1 0x0 REVERT JUMPDEST PUSH1 0x0 PUSH3 0x1069 DUP3 PUSH3 0x8E5 JUMP JUMPDEST SWAP2 POP PUSH3 0x1076 DUP4 PUSH3 0x8E5 JUMP JUMPDEST SWAP3 POP DUP3 DUP3 ADD SWAP1 POP DUP1 DUP3 GT ISZERO PUSH3 0x1091 JUMPI PUSH3 0x1090 PUSH3 0x102D JUMP JUMPDEST JUMPDEST SWAP3 SWAP2 POP POP JUMP JUMPDEST PUSH1 0x0 PUSH3 0x10A4 DUP3 PUSH3 0x8E5 JUMP JUMPDEST SWAP2 POP PUSH3 0x10B1 DUP4 PUSH3 0x8E5 JUMP JUMPDEST SWAP3 POP DUP3 DUP3 MUL PUSH3 0x10C1 DUP2 PUSH3 0x8E5 JUMP JUMPDEST SWAP2 POP DUP3 DUP3 DIV DUP5 EQ DUP4 ISZERO OR PUSH3 0x10DB JUMPI PUSH3 0x10DA PUSH3 0x102D JUMP JUMPDEST JUMPDEST POP SWAP3 SWAP2 POP POP JUMP JUMPDEST PUSH3 0x10ED DUP2 PUSH3 0x8E5 JUMP JUMPDEST DUP3 MSTORE POP POP JUMP JUMPDEST PUSH1 0x0 PUSH1 0x40 DUP3 ADD SWAP1 POP PUSH3 0x110A PUSH1 0x0 DUP4 ADD DUP6 PUSH3 0x10E2 JUMP JUMPDEST PUSH3 0x1119 PUSH1 0x20 DUP4 ADD DUP5 PUSH3 0x10E2 JUMP JUMPDEST SWAP4 SWAP3 POP POP POP JUMP JUMPDEST PUSH1 0x0 PUSH3 0x112D DUP3 PUSH3 0x8E5 JUMP JUMPDEST SWAP2 POP PUSH3 0x113A DUP4 PUSH3 0x8E5 JUMP JUMPDEST SWAP3 POP DUP3 DUP3 SUB SWAP1 POP DUP2 DUP2 GT ISZERO PUSH3 0x1155 JUMPI PUSH3 0x1154 PUSH3 0x102D JUMP JUMPDEST JUMPDEST SWAP3 SWAP2 POP POP JUMP JUMPDEST PUSH1 0x0 PUSH1 0xFF DUP3 AND SWAP1 POP SWAP2 SWAP1 POP JUMP JUMPDEST PUSH3 0x1173 DUP2 PUSH3 0x115B JUMP JUMPDEST DUP2 EQ PUSH3 0x117F JUMPI PUSH1 0x0 DUP1 REVERT JUMPDEST POP JUMP JUMPDEST PUSH1 0x0 DUP2 MLOAD SWAP1 POP PUSH3 0x1193 DUP2 PUSH3 0x1168 JUMP JUMPDEST SWAP3 SWAP2 POP POP JUMP JUMPDEST PUSH1 0x0 PUSH1 0x20 DUP3 DUP5 SUB SLT ISZERO PUSH3 0x11B2 JUMPI PUSH3 0x11B1 PUSH3 0x876 JUMP JUMPDEST JUMPDEST PUSH1 0x0 PUSH3 0x11C2 DUP5 DUP3 DUP6 ADD PUSH3 0x1182 JUMP JUMPDEST SWAP2 POP POP SWAP3 SWAP2 POP POP JUMP JUMPDEST PUSH1 0x0 DUP2 PUSH1 0x1 SHR SWAP1 POP SWAP2 SWAP1 POP JUMP JUMPDEST PUSH1 0x0 DUP1 DUP3 SWAP2 POP DUP4 SWAP1 POP JUMPDEST PUSH1 0x1 DUP6 GT ISZERO PUSH3 0x122A JUMPI DUP1 DUP7 DIV DUP2 GT ISZERO PUSH3 0x1202 JUMPI PUSH3 0x1201 PUSH3 0x102D JUMP JUMPDEST JUMPDEST PUSH1 0x1 DUP6 AND ISZERO PUSH3 0x1212 JUMPI DUP1 DUP3 MUL SWAP2 POP JUMPDEST DUP1 DUP2 MUL SWAP1 POP PUSH3 0x1222 DUP6 PUSH3 0x11CB JUMP JUMPDEST SWAP5 POP PUSH3 0x11E2 JUMP JUMPDEST SWAP5 POP SWAP5 SWAP3 POP POP POP JUMP JUMPDEST PUSH1 0x0 DUP3 PUSH3 0x1245 JUMPI PUSH1 0x1 SWAP1 POP PUSH3 0x1318 JUMP JUMPDEST DUP2 PUSH3 0x1255 JUMPI PUSH1 0x0 SWAP1 POP PUSH3 0x1318 JUMP JUMPDEST DUP2 PUSH1 0x1 DUP2 EQ PUSH3 0x126E JUMPI PUSH1 0x2 DUP2 EQ PUSH3 0x1279 JUMPI PUSH3 0x12AF JUMP JUMPDEST PUSH1 0x1 SWAP2 POP POP PUSH3 0x1318 JUMP JUMPDEST PUSH1 0xFF DUP5 GT ISZERO PUSH3 0x128E JUMPI PUSH3 0x128D PUSH3 0x102D JUMP JUMPDEST JUMPDEST DUP4 PUSH1 0x2 EXP SWAP2 POP DUP5 DUP3 GT ISZERO PUSH3 0x12A8 JUMPI PUSH3 0x12A7 PUSH3 0x102D JUMP JUMPDEST JUMPDEST POP PUSH3 0x1318 JUMP JUMPDEST POP PUSH1 0x20 DUP4 LT PUSH2 0x133 DUP4 LT AND PUSH1 0x4E DUP5 LT PUSH1 0xB DUP5 LT AND OR ISZERO PUSH3 0x12E9 JUMPI DUP3 DUP3 EXP SWAP1 POP DUP4 DUP2 GT ISZERO PUSH3 0x12E3 JUMPI PUSH3 0x12E2 PUSH3 0x102D JUMP JUMPDEST JUMPDEST PUSH3 0x1318 JUMP JUMPDEST PUSH3 0x12F8 DUP5 DUP5 DUP5 PUSH1 0x1 PUSH3 0x11D8 JUMP JUMPDEST SWAP3 POP SWAP1 POP DUP2 DUP5 DIV DUP2 GT ISZERO PUSH3 0x1312 JUMPI PUSH3 0x1311 PUSH3 0x102D JUMP JUMPDEST JUMPDEST DUP2 DUP2 MUL SWAP1 POP JUMPDEST SWAP4 SWAP3 POP POP POP JUMP JUMPDEST PUSH1 0x0 PUSH3 0x132C DUP3 PUSH3 0x8E5 JUMP JUMPDEST SWAP2 POP PUSH3 0x1339 DUP4 PUSH3 0x115B JUMP JUMPDEST SWAP3 POP PUSH3 0x1368 PUSH32 0xFFFFFFFFFFFFFFFFFFFFFFFFFFFFFFFFFFFFFFFFFFFFFFFFFFFFFFFFFFFFFFFF DUP5 DUP5 PUSH3 0x1233 JUMP JUMPDEST SWAP1 POP SWAP3 SWAP2 POP POP JUMP JUMPDEST PUSH32 0x4E487B7100000000000000000000000000000000000000000000000000000000 PUSH1 0x0 MSTORE PUSH1 0x12 PUSH1 0x4 MSTORE PUSH1 0x24 PUSH1 0x0 REVERT JUMPDEST PUSH1 0x0 PUSH3 0x13AC DUP3 PUSH3 0x8E5 JUMP JUMPDEST SWAP2 POP PUSH3 0x13B9 DUP4 PUSH3 0x8E5 JUMP JUMPDEST SWAP3 POP DUP3 PUSH3 0x13CC JUMPI PUSH3 0x13CB PUSH3 0x1370 JUMP JUMPDEST JUMPDEST DUP3 DUP3 DIV SWAP1 POP SWAP3 SWAP2 POP POP JUMP JUMPDEST PUSH2 0x435B DUP1 PUSH3 0x13E7 PUSH1 0x0 CODECOPY PUSH1 0x0 RETURN INVALID PUSH1 0x80 PUSH1 0x40 MSTORE CALLVALUE DUP1 ISZERO PUSH2 0x10 JUMPI PUSH1 0x0 DUP1 REVERT JUMPDEST POP PUSH1 0x4 CALLDATASIZE LT PUSH2 0x269 JUMPI PUSH1 0x0 CALLDATALOAD PUSH1 0xE0 SHR DUP1 PUSH4 0x715018A6 GT PUSH2 0x151 JUMPI DUP1 PUSH4 0xAFF56C14 GT PUSH2 0xC3 JUMPI DUP1 PUSH4 0xCCBAF736 GT PUSH2 0x87 JUMPI DUP1 PUSH4 0xCCBAF736 EQ PUSH2 0x75C JUMPI DUP1 PUSH4 0xD21220A7 EQ PUSH2 0x78D JUMPI DUP1 PUSH4 0xDD62ED3E EQ PUSH2 0x7AB JUMPI DUP1 PUSH4 0xEC1893B4 EQ PUSH2 0x7DB JUMPI DUP1 PUSH4 0xEF3501B9 EQ PUSH2 0x7F9 JUMPI DUP1 PUSH4 0xF2FDE38B EQ PUSH2 0x817 JUMPI PUSH2 0x269 JUMP JUMPDEST DUP1 PUSH4 0xAFF56C14 EQ PUSH2 0x6C6 JUMPI DUP1 PUSH4 0xB0E21E8A EQ PUSH2 0x6E4 JUMPI DUP1 PUSH4 0xBC4D6E7A EQ PUSH2 0x702 JUMPI DUP1 PUSH4 0xC392F766 EQ PUSH2 0x720 JUMPI DUP1 PUSH4 0xC45A0155 EQ PUSH2 0x73E JUMPI PUSH2 0x269 JUMP JUMPDEST DUP1 PUSH4 0x8DA5CB5B GT PUSH2 0x115 JUMPI DUP1 PUSH4 0x8DA5CB5B EQ PUSH2 0x5CA JUMPI DUP1 PUSH4 0x94F649DD EQ PUSH2 0x5E8 JUMPI DUP1 PUSH4 0x95D89B41 EQ PUSH2 0x618 JUMPI DUP1 PUSH4 0x9F8E55D6 EQ PUSH2 0x636 JUMPI DUP1 PUSH4 0xA457C2D7 EQ PUSH2 0x666 JUMPI DUP1 PUSH4 0xA9059CBB EQ PUSH2 0x696 JUMPI PUSH2 0x269 JUMP JUMPDEST DUP1 PUSH4 0x715018A6 EQ PUSH2 0x536 JUMPI DUP1 PUSH4 0x79EE54F7 EQ PUSH2 0x540 JUMPI DUP1 PUSH4 0x7B0A3A8D EQ PUSH2 0x570 JUMPI DUP1 PUSH4 0x7C07A380 EQ PUSH2 0x58E JUMPI DUP1 PUSH4 0x870E415E EQ PUSH2 0x5AC JUMPI PUSH2 0x269 JUMP JUMPDEST DUP1 PUSH4 0x313CE567 GT PUSH2 0x1EA JUMPI DUP1 PUSH4 0x4273601C GT PUSH2 0x1AE JUMPI DUP1 PUSH4 0x4273601C EQ PUSH2 0x474 JUMPI DUP1 PUSH4 0x430D1AEE EQ PUSH2 0x492 JUMPI DUP1 PUSH4 0x433065D0 EQ PUSH2 0x4AE JUMPI DUP1 PUSH4 0x4A0C0C74 EQ PUSH2 0x4CC JUMPI DUP1 PUSH4 0x5A656C24 EQ PUSH2 0x4E8 JUMPI DUP1 PUSH4 0x70A08231 EQ PUSH2 0x506 JUMPI PUSH2 0x269 JUMP JUMPDEST DUP1 PUSH4 0x313CE567 EQ PUSH2 0x3BA JUMPI DUP1 PUSH4 0x364ABC3D EQ PUSH2 0x3D8 JUMPI DUP1 PUSH4 0x39509351 EQ PUSH2 0x3F6 JUMPI DUP1 PUSH4 0x3A2B643A EQ PUSH2 0x426 JUMPI DUP1 PUSH4 0x3D1C387B EQ PUSH2 0x456 JUMPI PUSH2 0x269 JUMP JUMPDEST DUP1 PUSH4 0x18160DDD GT PUSH2 0x231 JUMPI DUP1 PUSH4 0x18160DDD EQ PUSH2 0x328 JUMPI DUP1 PUSH4 0x1AF0BCF0 EQ PUSH2 0x346 JUMPI DUP1 PUSH4 0x1CF2128C EQ PUSH2 0x350 JUMPI DUP1 PUSH4 0x23B872DD EQ PUSH2 0x36E JUMPI DUP1 PUSH4 0x2BEC60FE EQ PUSH2 0x39E JUMPI PUSH2 0x269 JUMP JUMPDEST DUP1 PUSH4 0x4786AB4 EQ PUSH2 0x26E JUMPI DUP1 PUSH4 0x6FDDE03 EQ PUSH2 0x29E JUMPI DUP1 PUSH4 0x95EA7B3 EQ PUSH2 0x2BC JUMPI DUP1 PUSH4 0xDFE1681 EQ PUSH2 0x2EC JUMPI DUP1 PUSH4 0x13724B70 EQ PUSH2 0x30A JUMPI JUMPDEST PUSH1 0x0 DUP1 REVERT JUMPDEST PUSH2 0x288 PUSH1 0x4 DUP1 CALLDATASIZE SUB DUP2 ADD SWAP1 PUSH2 0x283 SWAP2 SWAP1 PUSH2 0x30EB JUMP JUMPDEST PUSH2 0x833 JUMP JUMPDEST PUSH1 0x40 MLOAD PUSH2 0x295 SWAP2 SWAP1 PUSH2 0x3127 JUMP JUMPDEST PUSH1 0x40 MLOAD DUP1 SWAP2 SUB SWAP1 RETURN JUMPDEST PUSH2 0x2A6 PUSH2 0x89D JUMP JUMPDEST PUSH1 0x40 MLOAD PUSH2 0x2B3 SWAP2 SWAP1 PUSH2 0x31D2 JUMP JUMPDEST PUSH1 0x40 MLOAD DUP1 SWAP2 SUB SWAP1 RETURN JUMPDEST PUSH2 0x2D6 PUSH1 0x4 DUP1 CALLDATASIZE SUB DUP2 ADD SWAP1 PUSH2 0x2D1 SWAP2 SWAP1 PUSH2 0x3252 JUMP JUMPDEST PUSH2 0x92F JUMP JUMPDEST PUSH1 0x40 MLOAD PUSH2 0x2E3 SWAP2 SWAP1 PUSH2 0x32AD JUMP JUMPDEST PUSH1 0x40 MLOAD DUP1 SWAP2 SUB SWAP1 RETURN JUMPDEST PUSH2 0x2F4 PUSH2 0x952 JUMP JUMPDEST PUSH1 0x40 MLOAD PUSH2 0x301 SWAP2 SWAP1 PUSH2 0x32D7 JUMP JUMPDEST PUSH1 0x40 MLOAD DUP1 SWAP2 SUB SWAP1 RETURN JUMPDEST PUSH2 0x312 PUSH2 0x978 JUMP JUMPDEST PUSH1 0x40 MLOAD PUSH2 0x31F SWAP2 SWAP1 PUSH2 0x3127 JUMP JUMPDEST PUSH1 0x40 MLOAD DUP1 SWAP2 SUB SWAP1 RETURN JUMPDEST PUSH2 0x330 PUSH2 0x97E JUMP JUMPDEST PUSH1 0x40 MLOAD PUSH2 0x33D SWAP2 SWAP1 PUSH2 0x3127 JUMP JUMPDEST PUSH1 0x40 MLOAD DUP1 SWAP2 SUB SWAP1 RETURN JUMPDEST PUSH2 0x34E PUSH2 0x988 JUMP JUMPDEST STOP JUMPDEST PUSH2 0x358 PUSH2 0xAFD JUMP JUMPDEST PUSH1 0x40 MLOAD PUSH2 0x365 SWAP2 SWAP1 PUSH2 0x3127 JUMP JUMPDEST PUSH1 0x40 MLOAD DUP1 SWAP2 SUB SWAP1 RETURN JUMPDEST PUSH2 0x388 PUSH1 0x4 DUP1 CALLDATASIZE SUB DUP2 ADD SWAP1 PUSH2 0x383 SWAP2 SWAP1 PUSH2 0x32F2 JUMP JUMPDEST PUSH2 0xB03 JUMP JUMPDEST PUSH1 0x40 MLOAD PUSH2 0x395 SWAP2 SWAP1 PUSH2 0x32AD JUMP JUMPDEST PUSH1 0x40 MLOAD DUP1 SWAP2 SUB SWAP1 RETURN JUMPDEST PUSH2 0x3B8 PUSH1 0x4 DUP1 CALLDATASIZE SUB DUP2 ADD SWAP1 PUSH2 0x3B3 SWAP2 SWAP1 PUSH2 0x3371 JUMP JUMPDEST PUSH2 0xB32 JUMP JUMPDEST STOP JUMPDEST PUSH2 0x3C2 PUSH2 0xBC5 JUMP JUMPDEST PUSH1 0x40 MLOAD PUSH2 0x3CF SWAP2 SWAP1 PUSH2 0x33E0 JUMP JUMPDEST PUSH1 0x40 MLOAD DUP1 SWAP2 SUB SWAP1 RETURN JUMPDEST PUSH2 0x3E0 PUSH2 0xBCE JUMP JUMPDEST PUSH1 0x40 MLOAD PUSH2 0x3ED SWAP2 SWAP1 PUSH2 0x3127 JUMP JUMPDEST PUSH1 0x40 MLOAD DUP1 SWAP2 SUB SWAP1 RETURN JUMPDEST PUSH2 0x410 PUSH1 0x4 DUP1 CALLDATASIZE SUB DUP2 ADD SWAP1 PUSH2 0x40B SWAP2 SWAP1 PUSH2 0x3252 JUMP JUMPDEST PUSH2 0xBD4 JUMP JUMPDEST PUSH1 0x40 MLOAD PUSH2 0x41D SWAP2 SWAP1 PUSH2 0x32AD JUMP JUMPDEST PUSH1 0x40 MLOAD DUP1 SWAP2 SUB SWAP1 RETURN JUMPDEST PUSH2 0x440 PUSH1 0x4 DUP1 CALLDATASIZE SUB DUP2 ADD SWAP1 PUSH2 0x43B SWAP2 SWAP1 PUSH2 0x33FB JUMP JUMPDEST PUSH2 0xC0B JUMP JUMPDEST PUSH1 0x40 MLOAD PUSH2 0x44D SWAP2 SWAP1 PUSH2 0x3515 JUMP JUMPDEST PUSH1 0x40 MLOAD DUP1 SWAP2 SUB SWAP1 RETURN JUMPDEST PUSH2 0x45E PUSH2 0xD55 JUMP JUMPDEST PUSH1 0x40 MLOAD PUSH2 0x46B SWAP2 SWAP1 PUSH2 0x363B JUMP JUMPDEST PUSH1 0x40 MLOAD DUP1 SWAP2 SUB SWAP1 RETURN JUMPDEST PUSH2 0x47C PUSH2 0xE72 JUMP JUMPDEST PUSH1 0x40 MLOAD PUSH2 0x489 SWAP2 SWAP1 PUSH2 0x32D7 JUMP JUMPDEST PUSH1 0x40 MLOAD DUP1 SWAP2 SUB SWAP1 RETURN JUMPDEST PUSH2 0x4AC PUSH1 0x4 DUP1 CALLDATASIZE SUB DUP2 ADD SWAP1 PUSH2 0x4A7 SWAP2 SWAP1 PUSH2 0x30EB JUMP JUMPDEST PUSH2 0xE98 JUMP JUMPDEST STOP JUMPDEST PUSH2 0x4B6 PUSH2 0x1050 JUMP JUMPDEST PUSH1 0x40 MLOAD PUSH2 0x4C3 SWAP2 SWAP1 PUSH2 0x3127 JUMP JUMPDEST PUSH1 0x40 MLOAD DUP1 SWAP2 SUB SWAP1 RETURN JUMPDEST PUSH2 0x4E6 PUSH1 0x4 DUP1 CALLDATASIZE SUB DUP2 ADD SWAP1 PUSH2 0x4E1 SWAP2 SWAP1 PUSH2 0x365D JUMP JUMPDEST PUSH2 0x1096 JUMP JUMPDEST STOP JUMPDEST PUSH2 0x4F0 PUSH2 0x11A2 JUMP JUMPDEST PUSH1 0x40 MLOAD PUSH2 0x4FD SWAP2 SWAP1 PUSH2 0x3127 JUMP JUMPDEST PUSH1 0x40 MLOAD DUP1 SWAP2 SUB SWAP1 RETURN JUMPDEST PUSH2 0x520 PUSH1 0x4 DUP1 CALLDATASIZE SUB DUP2 ADD SWAP1 PUSH2 0x51B SWAP2 SWAP1 PUSH2 0x33FB JUMP JUMPDEST PUSH2 0x11A8 JUMP JUMPDEST PUSH1 0x40 MLOAD PUSH2 0x52D SWAP2 SWAP1 PUSH2 0x3127 JUMP JUMPDEST PUSH1 0x40 MLOAD DUP1 SWAP2 SUB SWAP1 RETURN JUMPDEST PUSH2 0x53E PUSH2 0x11F1 JUMP JUMPDEST STOP JUMPDEST PUSH2 0x55A PUSH1 0x4 DUP1 CALLDATASIZE SUB DUP2 ADD SWAP1 PUSH2 0x555 SWAP2 SWAP1 PUSH2 0x33FB JUMP JUMPDEST PUSH2 0x1205 JUMP JUMPDEST PUSH1 0x40 MLOAD PUSH2 0x567 SWAP2 SWAP1 PUSH2 0x377B JUMP JUMPDEST PUSH1 0x40 MLOAD DUP1 SWAP2 SUB SWAP1 RETURN JUMPDEST PUSH2 0x578 PUSH2 0x134F JUMP JUMPDEST PUSH1 0x40 MLOAD PUSH2 0x585 SWAP2 SWAP1 PUSH2 0x3127 JUMP JUMPDEST PUSH1 0x40 MLOAD DUP1 SWAP2 SUB SWAP1 RETURN JUMPDEST PUSH2 0x596 PUSH2 0x1355 JUMP JUMPDEST PUSH1 0x40 MLOAD PUSH2 0x5A3 SWAP2 SWAP1 PUSH2 0x3127 JUMP JUMPDEST PUSH1 0x40 MLOAD DUP1 SWAP2 SUB SWAP1 RETURN JUMPDEST PUSH2 0x5B4 PUSH2 0x135B JUMP JUMPDEST PUSH1 0x40 MLOAD PUSH2 0x5C1 SWAP2 SWAP1 PUSH2 0x3127 JUMP JUMPDEST PUSH1 0x40 MLOAD DUP1 SWAP2 SUB SWAP1 RETURN JUMPDEST PUSH2 0x5D2 PUSH2 0x1361 JUMP JUMPDEST PUSH1 0x40 MLOAD PUSH2 0x5DF SWAP2 SWAP1 PUSH2 0x32D7 JUMP JUMPDEST PUSH1 0x40 MLOAD DUP1 SWAP2 SUB SWAP1 RETURN JUMPDEST PUSH2 0x602 PUSH1 0x4 DUP1 CALLDATASIZE SUB DUP2 ADD SWAP1 PUSH2 0x5FD SWAP2 SWAP1 PUSH2 0x33FB JUMP JUMPDEST PUSH2 0x138B JUMP JUMPDEST PUSH1 0x40 MLOAD PUSH2 0x60F SWAP2 SWAP1 PUSH2 0x387B JUMP JUMPDEST PUSH1 0x40 MLOAD DUP1 SWAP2 SUB SWAP1 RETURN JUMPDEST PUSH2 0x620 PUSH2 0x14D5 JUMP JUMPDEST PUSH1 0x40 MLOAD PUSH2 0x62D SWAP2 SWAP1 PUSH2 0x31D2 JUMP JUMPDEST PUSH1 0x40 MLOAD DUP1 SWAP2 SUB SWAP1 RETURN JUMPDEST PUSH2 0x650 PUSH1 0x4 DUP1 CALLDATASIZE SUB DUP2 ADD SWAP1 PUSH2 0x64B SWAP2 SWAP1 PUSH2 0x30EB JUMP JUMPDEST PUSH2 0x1567 JUMP JUMPDEST PUSH1 0x40 MLOAD PUSH2 0x65D SWAP2 SWAP1 PUSH2 0x3127 JUMP JUMPDEST PUSH1 0x40 MLOAD DUP1 SWAP2 SUB SWAP1 RETURN JUMPDEST PUSH2 0x680 PUSH1 0x4 DUP1 CALLDATASIZE SUB DUP2 ADD SWAP1 PUSH2 0x67B SWAP2 SWAP1 PUSH2 0x3252 JUMP JUMPDEST PUSH2 0x15D1 JUMP JUMPDEST PUSH1 0x40 MLOAD PUSH2 0x68D SWAP2 SWAP1 PUSH2 0x32AD JUMP JUMPDEST PUSH1 0x40 MLOAD DUP1 SWAP2 SUB SWAP1 RETURN JUMPDEST PUSH2 0x6B0 PUSH1 0x4 DUP1 CALLDATASIZE SUB DUP2 ADD SWAP1 PUSH2 0x6AB SWAP2 SWAP1 PUSH2 0x3252 JUMP JUMPDEST PUSH2 0x1648 JUMP JUMPDEST PUSH1 0x40 MLOAD PUSH2 0x6BD SWAP2 SWAP1 PUSH2 0x32AD JUMP JUMPDEST PUSH1 0x40 MLOAD DUP1 SWAP2 SUB SWAP1 RETURN JUMPDEST PUSH2 0x6CE PUSH2 0x166B JUMP JUMPDEST PUSH1 0x40 MLOAD PUSH2 0x6DB SWAP2 SWAP1 PUSH2 0x3127 JUMP JUMPDEST PUSH1 0x40 MLOAD DUP1 SWAP2 SUB SWAP1 RETURN JUMPDEST PUSH2 0x6EC PUSH2 0x1671 JUMP JUMPDEST PUSH1 0x40 MLOAD PUSH2 0x6F9 SWAP2 SWAP1 PUSH2 0x3127 JUMP JUMPDEST PUSH1 0x40 MLOAD DUP1 SWAP2 SUB SWAP1 RETURN JUMPDEST PUSH2 0x70A PUSH2 0x1677 JUMP JUMPDEST PUSH1 0x40 MLOAD PUSH2 0x717 SWAP2 SWAP1 PUSH2 0x32AD JUMP JUMPDEST PUSH1 0x40 MLOAD DUP1 SWAP2 SUB SWAP1 RETURN JUMPDEST PUSH2 0x728 PUSH2 0x1724 JUMP JUMPDEST PUSH1 0x40 MLOAD PUSH2 0x735 SWAP2 SWAP1 PUSH2 0x3127 JUMP JUMPDEST PUSH1 0x40 MLOAD DUP1 SWAP2 SUB SWAP1 RETURN JUMPDEST PUSH2 0x746 PUSH2 0x172A JUMP JUMPDEST PUSH1 0x40 MLOAD PUSH2 0x753 SWAP2 SWAP1 PUSH2 0x32D7 JUMP JUMPDEST PUSH1 0x40 MLOAD DUP1 SWAP2 SUB SWAP1 RETURN JUMPDEST PUSH2 0x776 PUSH1 0x4 DUP1 CALLDATASIZE SUB DUP2 ADD SWAP1 PUSH2 0x771 SWAP2 SWAP1 PUSH2 0x30EB JUMP JUMPDEST PUSH2 0x1750 JUMP JUMPDEST PUSH1 0x40 MLOAD PUSH2 0x784 SWAP3 SWAP2 SWAP1 PUSH2 0x389D JUMP JUMPDEST PUSH1 0x40 MLOAD DUP1 SWAP2 SUB SWAP1 RETURN JUMPDEST PUSH2 0x795 PUSH2 0x17A4 JUMP JUMPDEST PUSH1 0x40 MLOAD PUSH2 0x7A2 SWAP2 SWAP1 PUSH2 0x32D7 JUMP JUMPDEST PUSH1 0x40 MLOAD DUP1 SWAP2 SUB SWAP1 RETURN JUMPDEST PUSH2 0x7C5 PUSH1 0x4 DUP1 CALLDATASIZE SUB DUP2 ADD SWAP1 PUSH2 0x7C0 SWAP2 SWAP1 PUSH2 0x38C6 JUMP JUMPDEST PUSH2 0x17CA JUMP JUMPDEST PUSH1 0x40 MLOAD PUSH2 0x7D2 SWAP2 SWAP1 PUSH2 0x3127 JUMP JUMPDEST PUSH1 0x40 MLOAD DUP1 SWAP2 SUB SWAP1 RETURN JUMPDEST PUSH2 0x7E3 PUSH2 0x1851 JUMP JUMPDEST PUSH1 0x40 MLOAD PUSH2 0x7F0 SWAP2 SWAP1 PUSH2 0x396A JUMP JUMPDEST PUSH1 0x40 MLOAD DUP1 SWAP2 SUB SWAP1 RETURN JUMPDEST PUSH2 0x801 PUSH2 0x1903 JUMP JUMPDEST PUSH1 0x40 MLOAD PUSH2 0x80E SWAP2 SWAP1 PUSH2 0x3127 JUMP JUMPDEST PUSH1 0x40 MLOAD DUP1 SWAP2 SUB SWAP1 RETURN JUMPDEST PUSH2 0x831 PUSH1 0x4 DUP1 CALLDATASIZE SUB DUP2 ADD SWAP1 PUSH2 0x82C SWAP2 SWAP1 PUSH2 0x33FB JUMP JUMPDEST PUSH2 0x1909 JUMP JUMPDEST STOP JUMPDEST PUSH1 0x0 DUP1 PUSH2 0x83E PUSH2 0x1A9B JUMP JUMPDEST SWAP1 POP PUSH1 0x0 PUSH2 0x84A PUSH2 0x1B3E JUMP JUMPDEST SWAP1 POP PUSH1 0x0 DUP5 DUP3 PUSH2 0x85A SWAP2 SWAP1 PUSH2 0x39B4 JUMP JUMPDEST SWAP1 POP PUSH1 0x0 PUSH1 0x1A SLOAD PUSH2 0x87A PUSH1 0x1C SLOAD PUSH1 0x1B SLOAD DUP6 PUSH2 0x875 SWAP2 SWAP1 PUSH2 0x39B4 JUMP JUMPDEST PUSH2 0x198C JUMP JUMPDEST PUSH2 0x884 SWAP2 SWAP1 PUSH2 0x39E8 JUMP JUMPDEST SWAP1 POP DUP1 DUP5 PUSH2 0x892 SWAP2 SWAP1 PUSH2 0x39E8 JUMP JUMPDEST SWAP5 POP POP POP POP POP SWAP2 SWAP1 POP JUMP JUMPDEST PUSH1 0x60 PUSH1 0x11 DUP1 SLOAD PUSH2 0x8AC SWAP1 PUSH2 0x3A4B JUMP JUMPDEST DUP1 PUSH1 0x1F ADD PUSH1 0x20 DUP1 SWAP2 DIV MUL PUSH1 0x20 ADD PUSH1 0x40 MLOAD SWAP1 DUP2 ADD PUSH1 0x40 MSTORE DUP1 SWAP3 SWAP2 SWAP1 DUP2 DUP2 MSTORE PUSH1 0x20 ADD DUP3 DUP1 SLOAD PUSH2 0x8D8 SWAP1 PUSH2 0x3A4B JUMP JUMPDEST DUP1 ISZERO PUSH2 0x925 JUMPI DUP1 PUSH1 0x1F LT PUSH2 0x8FA JUMPI PUSH2 0x100 DUP1 DUP4 SLOAD DIV MUL DUP4 MSTORE SWAP2 PUSH1 0x20 ADD SWAP2 PUSH2 0x925 JUMP JUMPDEST DUP3 ADD SWAP2 SWAP1 PUSH1 0x0 MSTORE PUSH1 0x20 PUSH1 0x0 KECCAK256 SWAP1 JUMPDEST DUP2 SLOAD DUP2 MSTORE SWAP1 PUSH1 0x1 ADD SWAP1 PUSH1 0x20 ADD DUP1 DUP4 GT PUSH2 0x908 JUMPI DUP3 SWAP1 SUB PUSH1 0x1F AND DUP3 ADD SWAP2 JUMPDEST POP POP POP POP POP SWAP1 POP SWAP1 JUMP JUMPDEST PUSH1 0x0 DUP1 PUSH2 0x93A PUSH2 0x1BF4 JUMP JUMPDEST SWAP1 POP PUSH2 0x947 DUP2 DUP6 DUP6 PUSH2 0x1BFC JUMP JUMPDEST PUSH1 0x1 SWAP2 POP POP SWAP3 SWAP2 POP POP JUMP JUMPDEST PUSH1 0x16 PUSH1 0x0 SWAP1 SLOAD SWAP1 PUSH2 0x100 EXP SWAP1 DIV PUSH20 0xFFFFFFFFFFFFFFFFFFFFFFFFFFFFFFFFFFFFFFFF AND DUP2 JUMP JUMPDEST PUSH1 0x19 SLOAD DUP2 JUMP JUMPDEST PUSH1 0x0 PUSH1 0x10 SLOAD SWAP1 POP SWAP1 JUMP JUMPDEST PUSH1 0x0 PUSH1 0x22 SLOAD SUB PUSH2 0xA01 JUMPI CALLER PUSH1 0x21 PUSH1 0x0 DUP1 DUP2 MSTORE PUSH1 0x20 ADD SWAP1 DUP2 MSTORE PUSH1 0x20 ADD PUSH1 0x0 KECCAK256 PUSH1 0x0 PUSH2 0x100 EXP DUP2 SLOAD DUP2 PUSH20 0xFFFFFFFFFFFFFFFFFFFFFFFFFFFFFFFFFFFFFFFF MUL NOT AND SWAP1 DUP4 PUSH20 0xFFFFFFFFFFFFFFFFFFFFFFFFFFFFFFFFFFFFFFFF AND MUL OR SWAP1 SSTORE POP PUSH1 0x22 PUSH1 0x0 DUP2 SLOAD DUP1 SWAP3 SWAP2 SWAP1 PUSH2 0x9F7 SWAP1 PUSH2 0x3A7C JUMP JUMPDEST SWAP2 SWAP1 POP SSTORE POP PUSH2 0xAFB JUMP JUMPDEST PUSH1 0x0 JUMPDEST PUSH1 0x22 SLOAD DUP2 LT ISZERO PUSH2 0xA8D JUMPI CALLER PUSH20 0xFFFFFFFFFFFFFFFFFFFFFFFFFFFFFFFFFFFFFFFF AND PUSH1 0x21 PUSH1 0x0 DUP4 DUP2 MSTORE PUSH1 0x20 ADD SWAP1 DUP2 MSTORE PUSH1 0x20 ADD PUSH1 0x0 KECCAK256 PUSH1 0x0 SWAP1 SLOAD SWAP1 PUSH2 0x100 EXP SWAP1 DIV PUSH20 0xFFFFFFFFFFFFFFFFFFFFFFFFFFFFFFFFFFFFFFFF AND PUSH20 0xFFFFFFFFFFFFFFFFFFFFFFFFFFFFFFFFFFFFFFFF AND SUB PUSH2 0xA7A JUMPI POP PUSH2 0xAFB JUMP JUMPDEST DUP1 DUP1 PUSH2 0xA85 SWAP1 PUSH2 0x3A7C JUMP JUMPDEST SWAP2 POP POP PUSH2 0xA04 JUMP JUMPDEST POP CALLER PUSH1 0x21 PUSH1 0x0 PUSH1 0x22 SLOAD DUP2 MSTORE PUSH1 0x20 ADD SWAP1 DUP2 MSTORE PUSH1 0x20 ADD PUSH1 0x0 KECCAK256 PUSH1 0x0 PUSH2 0x100 EXP DUP2 SLOAD DUP2 PUSH20 0xFFFFFFFFFFFFFFFFFFFFFFFFFFFFFFFFFFFFFFFF MUL NOT AND SWAP1 DUP4 PUSH20 0xFFFFFFFFFFFFFFFFFFFFFFFFFFFFFFFFFFFFFFFF AND MUL OR SWAP1 SSTORE POP PUSH1 0x22 PUSH1 0x0 DUP2 SLOAD DUP1 SWAP3 SWAP2 SWAP1 PUSH2 0xAF5 SWAP1 PUSH2 0x3A7C JUMP JUMPDEST SWAP2 SWAP1 POP SSTORE POP JUMPDEST JUMP JUMPDEST PUSH1 0x1B SLOAD DUP2 JUMP JUMPDEST PUSH1 0x0 DUP1 PUSH2 0xB0E PUSH2 0x1BF4 JUMP JUMPDEST SWAP1 POP PUSH2 0xB1B DUP6 DUP3 DUP6 PUSH2 0x1DC5 JUMP JUMPDEST PUSH2 0xB26 DUP6 DUP6 DUP6 PUSH2 0x1E51 JUMP JUMPDEST PUSH1 0x1 SWAP2 POP POP SWAP4 SWAP3 POP POP POP JUMP JUMPDEST DUP1 ISZERO PUSH2 0xB47 JUMPI PUSH2 0xB42 DUP4 DUP4 PUSH2 0x20CA JUMP JUMPDEST PUSH2 0xB52 JUMP JUMPDEST PUSH2 0xB51 DUP4 DUP4 PUSH2 0x22D9 JUMP JUMPDEST JUMPDEST PUSH1 0x0 PUSH2 0xB5C PUSH2 0x1A9B JUMP JUMPDEST SWAP1 POP PUSH1 0x0 PUSH2 0xB68 PUSH2 0x25CB JUMP JUMPDEST SWAP1 POP PUSH2 0xB85 DUP3 DUP3 PUSH2 0xB80 PUSH8 0xDE0B6B3A7640000 PUSH2 0x1567 JUMP JUMPDEST PUSH2 0x266E JUMP JUMPDEST PUSH32 0xCF2AA50876CDFBB541206F89AF0EE78D44A2ABF8D328E37FA4917F982149848A DUP3 DUP3 PUSH1 0x40 MLOAD PUSH2 0xBB6 SWAP3 SWAP2 SWAP1 PUSH2 0x3AC4 JUMP JUMPDEST PUSH1 0x40 MLOAD DUP1 SWAP2 SUB SWAP1 LOG1 POP POP POP POP POP JUMP JUMPDEST PUSH1 0x0 PUSH1 0x12 SWAP1 POP SWAP1 JUMP JUMPDEST PUSH1 0x1E SLOAD DUP2 JUMP JUMPDEST PUSH1 0x0 DUP1 PUSH2 0xBDF PUSH2 0x1BF4 JUMP JUMPDEST SWAP1 POP PUSH2 0xC00 DUP2 DUP6 DUP6 PUSH2 0xBF1 DUP6 DUP10 PUSH2 0x17CA JUMP JUMPDEST PUSH2 0xBFB SWAP2 SWAP1 PUSH2 0x39B4 JUMP JUMPDEST PUSH2 0x1BFC JUMP JUMPDEST PUSH1 0x1 SWAP2 POP POP SWAP3 SWAP2 POP POP JUMP JUMPDEST PUSH1 0x60 PUSH1 0x0 PUSH1 0x1 PUSH1 0xB SLOAD PUSH1 0xC SLOAD PUSH2 0xC21 SWAP2 SWAP1 PUSH2 0x39E8 JUMP JUMPDEST PUSH2 0xC2B SWAP2 SWAP1 PUSH2 0x39B4 JUMP JUMPDEST PUSH8 0xFFFFFFFFFFFFFFFF DUP2 GT ISZERO PUSH2 0xC44 JUMPI PUSH2 0xC43 PUSH2 0x3AED JUMP JUMPDEST JUMPDEST PUSH1 0x40 MLOAD SWAP1 DUP1 DUP3 MSTORE DUP1 PUSH1 0x20 MUL PUSH1 0x20 ADD DUP3 ADD PUSH1 0x40 MSTORE DUP1 ISZERO PUSH2 0xC7D JUMPI DUP2 PUSH1 0x20 ADD JUMPDEST PUSH2 0xC6A PUSH2 0x2FE6 JUMP JUMPDEST DUP2 MSTORE PUSH1 0x20 ADD SWAP1 PUSH1 0x1 SWAP1 SUB SWAP1 DUP2 PUSH2 0xC62 JUMPI SWAP1 POP JUMPDEST POP SWAP1 POP PUSH1 0x0 PUSH1 0xB SLOAD SWAP1 POP JUMPDEST PUSH1 0x1 PUSH1 0xC SLOAD PUSH2 0xC97 SWAP2 SWAP1 PUSH2 0x39B4 JUMP JUMPDEST DUP2 LT ISZERO PUSH2 0xD4B JUMPI PUSH1 0x6 PUSH1 0x0 DUP6 PUSH20 0xFFFFFFFFFFFFFFFFFFFFFFFFFFFFFFFFFFFFFFFF AND PUSH20 0xFFFFFFFFFFFFFFFFFFFFFFFFFFFFFFFFFFFFFFFF AND DUP2 MSTORE PUSH1 0x20 ADD SWAP1 DUP2 MSTORE PUSH1 0x20 ADD PUSH1 0x0 KECCAK256 PUSH1 0x0 DUP3 DUP2 MSTORE PUSH1 0x20 ADD SWAP1 DUP2 MSTORE PUSH1 0x20 ADD PUSH1 0x0 KECCAK256 PUSH1 0x40 MLOAD DUP1 PUSH1 0x40 ADD PUSH1 0x40 MSTORE SWAP1 DUP2 PUSH1 0x0 DUP3 ADD SLOAD DUP2 MSTORE PUSH1 0x20 ADD PUSH1 0x1 DUP3 ADD SLOAD DUP2 MSTORE POP POP DUP3 PUSH1 0xB SLOAD DUP4 PUSH2 0xD1C SWAP2 SWAP1 PUSH2 0x39E8 JUMP JUMPDEST DUP2 MLOAD DUP2 LT PUSH2 0xD2D JUMPI PUSH2 0xD2C PUSH2 0x3B1C JUMP JUMPDEST JUMPDEST PUSH1 0x20 MUL PUSH1 0x20 ADD ADD DUP2 SWAP1 MSTORE POP DUP1 DUP1 PUSH2 0xD43 SWAP1 PUSH2 0x3A7C JUMP JUMPDEST SWAP2 POP POP PUSH2 0xC88 JUMP JUMPDEST POP DUP1 SWAP2 POP POP SWAP2 SWAP1 POP JUMP JUMPDEST PUSH1 0x60 PUSH1 0x0 PUSH1 0x1 DUP1 SLOAD PUSH1 0x2 SLOAD PUSH2 0xD6A SWAP2 SWAP1 PUSH2 0x39E8 JUMP JUMPDEST PUSH2 0xD74 SWAP2 SWAP1 PUSH2 0x39B4 JUMP JUMPDEST PUSH8 0xFFFFFFFFFFFFFFFF DUP2 GT ISZERO PUSH2 0xD8D JUMPI PUSH2 0xD8C PUSH2 0x3AED JUMP JUMPDEST JUMPDEST PUSH1 0x40 MLOAD SWAP1 DUP1 DUP3 MSTORE DUP1 PUSH1 0x20 MUL PUSH1 0x20 ADD DUP3 ADD PUSH1 0x40 MSTORE DUP1 ISZERO PUSH2 0xDC6 JUMPI DUP2 PUSH1 0x20 ADD JUMPDEST PUSH2 0xDB3 PUSH2 0x3000 JUMP JUMPDEST DUP2 MSTORE PUSH1 0x20 ADD SWAP1 PUSH1 0x1 SWAP1 SUB SWAP1 DUP2 PUSH2 0xDAB JUMPI SWAP1 POP JUMPDEST POP SWAP1 POP PUSH1 0x0 PUSH1 0x1 SLOAD SWAP1 POP JUMPDEST PUSH1 0x1 PUSH1 0x2 SLOAD PUSH2 0xDE0 SWAP2 SWAP1 PUSH2 0x39B4 JUMP JUMPDEST DUP2 LT ISZERO PUSH2 0xE6A JUMPI PUSH1 0x0 DUP1 DUP3 DUP2 MSTORE PUSH1 0x20 ADD SWAP1 DUP2 MSTORE PUSH1 0x20 ADD PUSH1 0x0 KECCAK256 PUSH1 0x40 MLOAD DUP1 PUSH1 0x80 ADD PUSH1 0x40 MSTORE SWAP1 DUP2 PUSH1 0x0 DUP3 ADD SLOAD DUP2 MSTORE PUSH1 0x20 ADD PUSH1 0x1 DUP3 ADD SLOAD DUP2 MSTORE PUSH1 0x20 ADD PUSH1 0x2 DUP3 ADD SLOAD DUP2 MSTORE PUSH1 0x20 ADD PUSH1 0x3 DUP3 ADD SLOAD DUP2 MSTORE POP POP DUP3 PUSH1 0x1 SLOAD DUP4 PUSH2 0xE3B SWAP2 SWAP1 PUSH2 0x39E8 JUMP JUMPDEST DUP2 MLOAD DUP2 LT PUSH2 0xE4C JUMPI PUSH2 0xE4B PUSH2 0x3B1C JUMP JUMPDEST JUMPDEST PUSH1 0x20 MUL PUSH1 0x20 ADD ADD DUP2 SWAP1 MSTORE POP DUP1 DUP1 PUSH2 0xE62 SWAP1 PUSH2 0x3A7C JUMP JUMPDEST SWAP2 POP POP PUSH2 0xDD1 JUMP JUMPDEST POP DUP1 SWAP2 POP POP SWAP1 JUMP JUMPDEST PUSH1 0x15 PUSH1 0x0 SWAP1 SLOAD SWAP1 PUSH2 0x100 EXP SWAP1 DIV PUSH20 0xFFFFFFFFFFFFFFFFFFFFFFFFFFFFFFFFFFFFFFFF AND DUP2 JUMP JUMPDEST PUSH1 0x0 PUSH2 0xEAA PUSH3 0xC3500 PUSH3 0xF4240 PUSH2 0x198C JUMP JUMPDEST DUP3 PUSH2 0xEB5 SWAP2 SWAP1 PUSH2 0x3B4B JUMP JUMPDEST SWAP1 POP PUSH1 0x0 DUP2 DUP4 PUSH2 0xEC5 SWAP2 SWAP1 PUSH2 0x39E8 JUMP JUMPDEST SWAP1 POP PUSH1 0x17 PUSH1 0x0 SWAP1 SLOAD SWAP1 PUSH2 0x100 EXP SWAP1 DIV PUSH20 0xFFFFFFFFFFFFFFFFFFFFFFFFFFFFFFFFFFFFFFFF AND PUSH20 0xFFFFFFFFFFFFFFFFFFFFFFFFFFFFFFFFFFFFFFFF AND PUSH4 0x23B872DD CALLER ADDRESS DUP6 PUSH1 0x40 MLOAD DUP5 PUSH4 0xFFFFFFFF AND PUSH1 0xE0 SHL DUP2 MSTORE PUSH1 0x4 ADD PUSH2 0xF26 SWAP4 SWAP3 SWAP2 SWAP1 PUSH2 0x3B8D JUMP JUMPDEST PUSH1 0x20 PUSH1 0x40 MLOAD DUP1 DUP4 SUB DUP2 PUSH1 0x0 DUP8 GAS CALL ISZERO DUP1 ISZERO PUSH2 0xF45 JUMPI RETURNDATASIZE PUSH1 0x0 DUP1 RETURNDATACOPY RETURNDATASIZE PUSH1 0x0 REVERT JUMPDEST POP POP POP POP PUSH1 0x40 MLOAD RETURNDATASIZE PUSH1 0x1F NOT PUSH1 0x1F DUP3 ADD AND DUP3 ADD DUP1 PUSH1 0x40 MSTORE POP DUP2 ADD SWAP1 PUSH2 0xF69 SWAP2 SWAP1 PUSH2 0x3BD9 JUMP JUMPDEST POP PUSH1 0x17 PUSH1 0x0 SWAP1 SLOAD SWAP1 PUSH2 0x100 EXP SWAP1 DIV PUSH20 0xFFFFFFFFFFFFFFFFFFFFFFFFFFFFFFFFFFFFFFFF AND PUSH20 0xFFFFFFFFFFFFFFFFFFFFFFFFFFFFFFFFFFFFFFFF AND PUSH4 0x23B872DD CALLER PUSH1 0x15 PUSH1 0x0 SWAP1 SLOAD SWAP1 PUSH2 0x100 EXP SWAP1 DIV PUSH20 0xFFFFFFFFFFFFFFFFFFFFFFFFFFFFFFFFFFFFFFFF AND DUP5 PUSH1 0x40 MLOAD DUP5 PUSH4 0xFFFFFFFF AND PUSH1 0xE0 SHL DUP2 MSTORE PUSH1 0x4 ADD PUSH2 0xFEB SWAP4 SWAP3 SWAP2 SWAP1 PUSH2 0x3B8D JUMP JUMPDEST PUSH1 0x20 PUSH1 0x40 MLOAD DUP1 DUP4 SUB DUP2 PUSH1 0x0 DUP8 GAS CALL ISZERO DUP1 ISZERO PUSH2 0x100A JUMPI RETURNDATASIZE PUSH1 0x0 DUP1 RETURNDATACOPY RETURNDATASIZE PUSH1 0x0 REVERT JUMPDEST POP POP POP POP PUSH1 0x40 MLOAD RETURNDATASIZE PUSH1 0x1F NOT PUSH1 0x1F DUP3 ADD AND DUP3 ADD DUP1 PUSH1 0x40 MSTORE POP DUP2 ADD SWAP1 PUSH2 0x102E SWAP2 SWAP1 PUSH2 0x3BD9 JUMP JUMPDEST POP PUSH2 0x1039 CALLER DUP5 PUSH2 0x2753 JUMP JUMPDEST PUSH2 0x1041 PUSH2 0x28AA JUMP JUMPDEST PUSH2 0x104B CALLER DUP5 PUSH2 0x28F2 JUMP JUMPDEST POP POP POP JUMP JUMPDEST PUSH1 0x0 DUP1 PUSH2 0x105B PUSH2 0x1A9B JUMP JUMPDEST SWAP1 POP PUSH1 0x0 PUSH2 0x1067 PUSH2 0x1B3E JUMP JUMPDEST SWAP1 POP PUSH1 0x1B SLOAD DUP2 PUSH2 0x1077 SWAP2 SWAP1 PUSH2 0x39B4 JUMP JUMPDEST PUSH1 0x1A SLOAD DUP4 PUSH2 0x1085 SWAP2 SWAP1 PUSH2 0x39B4 JUMP JUMPDEST PUSH2 0x108F SWAP2 SWAP1 PUSH2 0x3B4B JUMP JUMPDEST SWAP3 POP POP POP SWAP1 JUMP JUMPDEST PUSH1 0x0 PUSH2 0x10A1 DUP4 PUSH2 0x833 JUMP JUMPDEST SWAP1 POP DUP2 DUP2 LT ISZERO PUSH2 0x10E6 JUMPI PUSH1 0x40 MLOAD PUSH32 0x8C379A000000000000000000000000000000000000000000000000000000000 DUP2 MSTORE PUSH1 0x4 ADD PUSH2 0x10DD SWAP1 PUSH2 0x3C52 JUMP JUMPDEST PUSH1 0x40 MLOAD DUP1 SWAP2 SUB SWAP1 REVERT JUMPDEST PUSH2 0x10F1 CALLER ADDRESS DUP6 PUSH2 0xB03 JUMP JUMPDEST POP PUSH1 0x16 PUSH1 0x0 SWAP1 SLOAD SWAP1 PUSH2 0x100 EXP SWAP1 DIV PUSH20 0xFFFFFFFFFFFFFFFFFFFFFFFFFFFFFFFFFFFFFFFF AND PUSH20 0xFFFFFFFFFFFFFFFFFFFFFFFFFFFFFFFFFFFFFFFF AND PUSH4 0xA9059CBB CALLER DUP4 PUSH1 0x40 MLOAD DUP4 PUSH4 0xFFFFFFFF AND PUSH1 0xE0 SHL DUP2 MSTORE PUSH1 0x4 ADD PUSH2 0x114F SWAP3 SWAP2 SWAP1 PUSH2 0x389D JUMP JUMPDEST PUSH1 0x20 PUSH1 0x40 MLOAD DUP1 DUP4 SUB DUP2 PUSH1 0x0 DUP8 GAS CALL ISZERO DUP1 ISZERO PUSH2 0x116E JUMPI RETURNDATASIZE PUSH1 0x0 DUP1 RETURNDATACOPY RETURNDATASIZE PUSH1 0x0 REVERT JUMPDEST POP POP POP POP PUSH1 0x40 MLOAD RETURNDATASIZE PUSH1 0x1F NOT PUSH1 0x1F DUP3 ADD AND DUP3 ADD DUP1 PUSH1 0x40 MSTORE POP DUP2 ADD SWAP1 PUSH2 0x1192 SWAP2 SWAP1 PUSH2 0x3BD9 JUMP JUMPDEST POP PUSH2 0x119D CALLER DUP5 PUSH2 0x2A22 JUMP JUMPDEST POP POP POP JUMP JUMPDEST PUSH1 0x1C SLOAD DUP2 JUMP JUMPDEST PUSH1 0x0 PUSH1 0xE PUSH1 0x0 DUP4 PUSH20 0xFFFFFFFFFFFFFFFFFFFFFFFFFFFFFFFFFFFFFFFF AND PUSH20 0xFFFFFFFFFFFFFFFFFFFFFFFFFFFFFFFFFFFFFFFF AND DUP2 MSTORE PUSH1 0x20 ADD SWAP1 DUP2 MSTORE PUSH1 0x20 ADD PUSH1 0x0 KECCAK256 SLOAD SWAP1 POP SWAP2 SWAP1 POP JUMP JUMPDEST PUSH2 0x11F9 PUSH2 0x2B52 JUMP JUMPDEST PUSH2 0x1203 PUSH1 0x0 PUSH2 0x2BD0 JUMP JUMPDEST JUMP JUMPDEST PUSH1 0x60 PUSH1 0x0 PUSH1 0x1 PUSH1 0x7 SLOAD PUSH1 0x8 SLOAD PUSH2 0x121B SWAP2 SWAP1 PUSH2 0x39E8 JUMP JUMPDEST PUSH2 0x1225 SWAP2 SWAP1 PUSH2 0x39B4 JUMP JUMPDEST PUSH8 0xFFFFFFFFFFFFFFFF DUP2 GT ISZERO PUSH2 0x123E JUMPI PUSH2 0x123D PUSH2 0x3AED JUMP JUMPDEST JUMPDEST PUSH1 0x40 MLOAD SWAP1 DUP1 DUP3 MSTORE DUP1 PUSH1 0x20 MUL PUSH1 0x20 ADD DUP3 ADD PUSH1 0x40 MSTORE DUP1 ISZERO PUSH2 0x1277 JUMPI DUP2 PUSH1 0x20 ADD JUMPDEST PUSH2 0x1264 PUSH2 0x3028 JUMP JUMPDEST DUP2 MSTORE PUSH1 0x20 ADD SWAP1 PUSH1 0x1 SWAP1 SUB SWAP1 DUP2 PUSH2 0x125C JUMPI SWAP1 POP JUMPDEST POP SWAP1 POP PUSH1 0x0 PUSH1 0x7 SLOAD SWAP1 POP JUMPDEST PUSH1 0x1 PUSH1 0x8 SLOAD PUSH2 0x1291 SWAP2 SWAP1 PUSH2 0x39B4 JUMP JUMPDEST DUP2 LT ISZERO PUSH2 0x1345 JUMPI PUSH1 0x4 PUSH1 0x0 DUP6 PUSH20 0xFFFFFFFFFFFFFFFFFFFFFFFFFFFFFFFFFFFFFFFF AND PUSH20 0xFFFFFFFFFFFFFFFFFFFFFFFFFFFFFFFFFFFFFFFF AND DUP2 MSTORE PUSH1 0x20 ADD SWAP1 DUP2 MSTORE PUSH1 0x20 ADD PUSH1 0x0 KECCAK256 PUSH1 0x0 DUP3 DUP2 MSTORE PUSH1 0x20 ADD SWAP1 DUP2 MSTORE PUSH1 0x20 ADD PUSH1 0x0 KECCAK256 PUSH1 0x40 MLOAD DUP1 PUSH1 0x40 ADD PUSH1 0x40 MSTORE SWAP1 DUP2 PUSH1 0x0 DUP3 ADD SLOAD DUP2 MSTORE PUSH1 0x20 ADD PUSH1 0x1 DUP3 ADD SLOAD DUP2 MSTORE POP POP DUP3 PUSH1 0x7 SLOAD DUP4 PUSH2 0x1316 SWAP2 SWAP1 PUSH2 0x39E8 JUMP JUMPDEST DUP2 MLOAD DUP2 LT PUSH2 0x1327 JUMPI PUSH2 0x1326 PUSH2 0x3B1C JUMP JUMPDEST JUMPDEST PUSH1 0x20 MUL PUSH1 0x20 ADD ADD DUP2 SWAP1 MSTORE POP DUP1 DUP1 PUSH2 0x133D SWAP1 PUSH2 0x3A7C JUMP JUMPDEST SWAP2 POP POP PUSH2 0x1282 JUMP JUMPDEST POP DUP1 SWAP2 POP POP SWAP2 SWAP1 POP JUMP JUMPDEST PUSH1 0xD SLOAD DUP2 JUMP JUMPDEST PUSH1 0x18 SLOAD DUP2 JUMP JUMPDEST PUSH1 0x3 SLOAD DUP2 JUMP JUMPDEST PUSH1 0x0 PUSH1 0x13 PUSH1 0x0 SWAP1 SLOAD SWAP1 PUSH2 0x100 EXP SWAP1 DIV PUSH20 0xFFFFFFFFFFFFFFFFFFFFFFFFFFFFFFFFFFFFFFFF AND SWAP1 POP SWAP1 JUMP JUMPDEST PUSH1 0x60 PUSH1 0x0 PUSH1 0x1 PUSH1 0x9 SLOAD PUSH1 0xA SLOAD PUSH2 0x13A1 SWAP2 SWAP1 PUSH2 0x39E8 JUMP JUMPDEST PUSH2 0x13AB SWAP2 SWAP1 PUSH2 0x39B4 JUMP JUMPDEST PUSH8 0xFFFFFFFFFFFFFFFF DUP2 GT ISZERO PUSH2 0x13C4 JUMPI PUSH2 0x13C3 PUSH2 0x3AED JUMP JUMPDEST JUMPDEST PUSH1 0x40 MLOAD SWAP1 DUP1 DUP3 MSTORE DUP1 PUSH1 0x20 MUL PUSH1 0x20 ADD DUP3 ADD PUSH1 0x40 MSTORE DUP1 ISZERO PUSH2 0x13FD JUMPI DUP2 PUSH1 0x20 ADD JUMPDEST PUSH2 0x13EA PUSH2 0x3042 JUMP JUMPDEST DUP2 MSTORE PUSH1 0x20 ADD SWAP1 PUSH1 0x1 SWAP1 SUB SWAP1 DUP2 PUSH2 0x13E2 JUMPI SWAP1 POP JUMPDEST POP SWAP1 POP PUSH1 0x0 PUSH1 0x9 SLOAD SWAP1 POP JUMPDEST PUSH1 0x1 PUSH1 0xA SLOAD PUSH2 0x1417 SWAP2 SWAP1 PUSH2 0x39B4 JUMP JUMPDEST DUP2 LT ISZERO PUSH2 0x14CB JUMPI PUSH1 0x5 PUSH1 0x0 DUP6 PUSH20 0xFFFFFFFFFFFFFFFFFFFFFFFFFFFFFFFFFFFFFFFF AND PUSH20 0xFFFFFFFFFFFFFFFFFFFFFFFFFFFFFFFFFFFFFFFF AND DUP2 MSTORE PUSH1 0x20 ADD SWAP1 DUP2 MSTORE PUSH1 0x20 ADD PUSH1 0x0 KECCAK256 PUSH1 0x0 DUP3 DUP2 MSTORE PUSH1 0x20 ADD SWAP1 DUP2 MSTORE PUSH1 0x20 ADD PUSH1 0x0 KECCAK256 PUSH1 0x40 MLOAD DUP1 PUSH1 0x40 ADD PUSH1 0x40 MSTORE SWAP1 DUP2 PUSH1 0x0 DUP3 ADD SLOAD DUP2 MSTORE PUSH1 0x20 ADD PUSH1 0x1 DUP3 ADD SLOAD DUP2 MSTORE POP POP DUP3 PUSH1 0x9 SLOAD DUP4 PUSH2 0x149C SWAP2 SWAP1 PUSH2 0x39E8 JUMP JUMPDEST DUP2 MLOAD DUP2 LT PUSH2 0x14AD JUMPI PUSH2 0x14AC PUSH2 0x3B1C JUMP JUMPDEST JUMPDEST PUSH1 0x20 MUL PUSH1 0x20 ADD ADD DUP2 SWAP1 MSTORE POP DUP1 DUP1 PUSH2 0x14C3 SWAP1 PUSH2 0x3A7C JUMP JUMPDEST SWAP2 POP POP PUSH2 0x1408 JUMP JUMPDEST POP DUP1 SWAP2 POP POP SWAP2 SWAP1 POP JUMP JUMPDEST PUSH1 0x60 PUSH1 0x12 DUP1 SLOAD PUSH2 0x14E4 SWAP1 PUSH2 0x3A4B JUMP JUMPDEST DUP1 PUSH1 0x1F ADD PUSH1 0x20 DUP1 SWAP2 DIV MUL PUSH1 0x20 ADD PUSH1 0x40 MLOAD SWAP1 DUP2 ADD PUSH1 0x40 MSTORE DUP1 SWAP3 SWAP2 SWAP1 DUP2 DUP2 MSTORE PUSH1 0x20 ADD DUP3 DUP1 SLOAD PUSH2 0x1510 SWAP1 PUSH2 0x3A4B JUMP JUMPDEST DUP1 ISZERO PUSH2 0x155D JUMPI DUP1 PUSH1 0x1F LT PUSH2 0x1532 JUMPI PUSH2 0x100 DUP1 DUP4 SLOAD DIV MUL DUP4 MSTORE SWAP2 PUSH1 0x20 ADD SWAP2 PUSH2 0x155D JUMP JUMPDEST DUP3 ADD SWAP2 SWAP1 PUSH1 0x0 MSTORE PUSH1 0x20 PUSH1 0x0 KECCAK256 SWAP1 JUMPDEST DUP2 SLOAD DUP2 MSTORE SWAP1 PUSH1 0x1 ADD SWAP1 PUSH1 0x20 ADD DUP1 DUP4 GT PUSH2 0x1540 JUMPI DUP3 SWAP1 SUB PUSH1 0x1F AND DUP3 ADD SWAP2 JUMPDEST POP POP POP POP POP SWAP1 POP SWAP1 JUMP JUMPDEST PUSH1 0x0 DUP1 PUSH2 0x1572 PUSH2 0x1A9B JUMP JUMPDEST SWAP1 POP PUSH1 0x0 PUSH2 0x157E PUSH2 0x1B3E JUMP JUMPDEST SWAP1 POP PUSH1 0x0 DUP5 DUP4 PUSH2 0x158E SWAP2 SWAP1 PUSH2 0x39B4 JUMP JUMPDEST SWAP1 POP PUSH1 0x0 PUSH1 0x1B SLOAD PUSH2 0x15AE PUSH1 0x1C SLOAD PUSH1 0x1A SLOAD DUP6 PUSH2 0x15A9 SWAP2 SWAP1 PUSH2 0x39B4 JUMP JUMPDEST PUSH2 0x198C JUMP JUMPDEST PUSH2 0x15B8 SWAP2 SWAP1 PUSH2 0x39E8 JUMP JUMPDEST SWAP1 POP DUP1 DUP4 PUSH2 0x15C6 SWAP2 SWAP1 PUSH2 0x39E8 JUMP JUMPDEST SWAP5 POP POP POP POP POP SWAP2 SWAP1 POP JUMP JUMPDEST PUSH1 0x0 DUP1 PUSH2 0x15DC PUSH2 0x1BF4 JUMP JUMPDEST SWAP1 POP PUSH1 0x0 PUSH2 0x15EA DUP3 DUP7 PUSH2 0x17CA JUMP JUMPDEST SWAP1 POP DUP4 DUP2 LT ISZERO PUSH2 0x162F JUMPI PUSH1 0x40 MLOAD PUSH32 0x8C379A000000000000000000000000000000000000000000000000000000000 DUP2 MSTORE PUSH1 0x4 ADD PUSH2 0x1626 SWAP1 PUSH2 0x3CE4 JUMP JUMPDEST PUSH1 0x40 MLOAD DUP1 SWAP2 SUB SWAP1 REVERT JUMPDEST PUSH2 0x163C DUP3 DUP7 DUP7 DUP5 SUB PUSH2 0x1BFC JUMP JUMPDEST PUSH1 0x1 SWAP3 POP POP POP SWAP3 SWAP2 POP POP JUMP JUMPDEST PUSH1 0x0 DUP1 PUSH2 0x1653 PUSH2 0x1BF4 JUMP JUMPDEST SWAP1 POP PUSH2 0x1660 DUP2 DUP6 DUP6 PUSH2 0x1E51 JUMP JUMPDEST PUSH1 0x1 SWAP2 POP POP SWAP3 SWAP2 POP POP JUMP JUMPDEST PUSH1 0x1A SLOAD DUP2 JUMP JUMPDEST PUSH1 0x1F SLOAD DUP2 JUMP JUMPDEST PUSH1 0x0 DUP1 PUSH1 0x22 SLOAD SUB PUSH2 0x168B JUMPI PUSH1 0x0 SWAP1 POP PUSH2 0x1721 JUMP JUMPDEST PUSH1 0x0 JUMPDEST PUSH1 0x22 SLOAD DUP2 LT ISZERO PUSH2 0x171B JUMPI CALLER PUSH20 0xFFFFFFFFFFFFFFFFFFFFFFFFFFFFFFFFFFFFFFFF AND PUSH1 0x21 PUSH1 0x0 DUP4 DUP2 MSTORE PUSH1 0x20 ADD SWAP1 DUP2 MSTORE PUSH1 0x20 ADD PUSH1 0x0 KECCAK256 PUSH1 0x0 SWAP1 SLOAD SWAP1 PUSH2 0x100 EXP SWAP1 DIV PUSH20 0xFFFFFFFFFFFFFFFFFFFFFFFFFFFFFFFFFFFFFFFF AND PUSH20 0xFFFFFFFFFFFFFFFFFFFFFFFFFFFFFFFFFFFFFFFF AND SUB PUSH2 0x1708 JUMPI PUSH1 0x1 SWAP2 POP POP PUSH2 0x1721 JUMP JUMPDEST DUP1 DUP1 PUSH2 0x1713 SWAP1 PUSH2 0x3A7C JUMP JUMPDEST SWAP2 POP POP PUSH2 0x168E JUMP JUMPDEST POP PUSH1 0x0 SWAP1 POP JUMPDEST SWAP1 JUMP JUMPDEST PUSH1 0x20 SLOAD DUP2 JUMP JUMPDEST PUSH1 0x14 PUSH1 0x0 SWAP1 SLOAD SWAP1 PUSH2 0x100 EXP SWAP1 DIV PUSH20 0xFFFFFFFFFFFFFFFFFFFFFFFFFFFFFFFFFFFFFFFF AND DUP2 JUMP JUMPDEST PUSH1 0x23 DUP2 DUP2 SLOAD DUP2 LT PUSH2 0x1760 JUMPI PUSH1 0x0 DUP1 REVERT JUMPDEST SWAP1 PUSH1 0x0 MSTORE PUSH1 0x20 PUSH1 0x0 KECCAK256 SWAP1 PUSH1 0x2 MUL ADD PUSH1 0x0 SWAP2 POP SWAP1 POP DUP1 PUSH1 0x0 ADD PUSH1 0x0 SWAP1 SLOAD SWAP1 PUSH2 0x100 EXP SWAP1 DIV PUSH20 0xFFFFFFFFFFFFFFFFFFFFFFFFFFFFFFFFFFFFFFFF AND SWAP1 DUP1 PUSH1 0x1 ADD SLOAD SWAP1 POP DUP3 JUMP JUMPDEST PUSH1 0x17 PUSH1 0x0 SWAP1 SLOAD SWAP1 PUSH2 0x100 EXP SWAP1 DIV PUSH20 0xFFFFFFFFFFFFFFFFFFFFFFFFFFFFFFFFFFFFFFFF AND DUP2 JUMP JUMPDEST PUSH1 0x0 PUSH1 0xF PUSH1 0x0 DUP5 PUSH20 0xFFFFFFFFFFFFFFFFFFFFFFFFFFFFFFFFFFFFFFFF AND PUSH20 0xFFFFFFFFFFFFFFFFFFFFFFFFFFFFFFFFFFFFFFFF AND DUP2 MSTORE PUSH1 0x20 ADD SWAP1 DUP2 MSTORE PUSH1 0x20 ADD PUSH1 0x0 KECCAK256 PUSH1 0x0 DUP4 PUSH20 0xFFFFFFFFFFFFFFFFFFFFFFFFFFFFFFFFFFFFFFFF AND PUSH20 0xFFFFFFFFFFFFFFFFFFFFFFFFFFFFFFFFFFFFFFFF AND DUP2 MSTORE PUSH1 0x20 ADD SWAP1 DUP2 MSTORE PUSH1 0x20 ADD PUSH1 0x0 KECCAK256 SLOAD SWAP1 POP SWAP3 SWAP2 POP POP JUMP JUMPDEST PUSH2 0x1859 PUSH2 0x305C JUMP JUMPDEST PUSH1 0x0 PUSH1 0x40 MLOAD DUP1 PUSH1 0x80 ADD PUSH1 0x40 MSTORE DUP1 PUSH1 0x16 PUSH1 0x0 SWAP1 SLOAD SWAP1 PUSH2 0x100 EXP SWAP1 DIV PUSH20 0xFFFFFFFFFFFFFFFFFFFFFFFFFFFFFFFFFFFFFFFF AND PUSH20 0xFFFFFFFFFFFFFFFFFFFFFFFFFFFFFFFFFFFFFFFF AND DUP2 MSTORE PUSH1 0x20 ADD PUSH1 0x17 PUSH1 0x0 SWAP1 SLOAD SWAP1 PUSH2 0x100 EXP SWAP1 DIV PUSH20 0xFFFFFFFFFFFFFFFFFFFFFFFFFFFFFFFFFFFFFFFF AND PUSH20 0xFFFFFFFFFFFFFFFFFFFFFFFFFFFFFFFFFFFFFFFF AND DUP2 MSTORE PUSH1 0x20 ADD PUSH2 0x18EA PUSH2 0x1A9B JUMP JUMPDEST DUP2 MSTORE PUSH1 0x20 ADD PUSH2 0x18F7 PUSH2 0x25CB JUMP JUMPDEST DUP2 MSTORE POP SWAP1 POP DUP1 SWAP2 POP POP SWAP1 JUMP JUMPDEST PUSH1 0x1D SLOAD DUP2 JUMP JUMPDEST PUSH2 0x1911 PUSH2 0x2B52 JUMP JUMPDEST PUSH1 0x0 PUSH20 0xFFFFFFFFFFFFFFFFFFFFFFFFFFFFFFFFFFFFFFFF AND DUP2 PUSH20 0xFFFFFFFFFFFFFFFFFFFFFFFFFFFFFFFFFFFFFFFF AND SUB PUSH2 0x1980 JUMPI PUSH1 0x40 MLOAD PUSH32 0x8C379A000000000000000000000000000000000000000000000000000000000 DUP2 MSTORE PUSH1 0x4 ADD PUSH2 0x1977 SWAP1 PUSH2 0x3D76 JUMP JUMPDEST PUSH1 0x40 MLOAD DUP1 SWAP2 SUB SWAP1 REVERT JUMPDEST PUSH2 0x1989 DUP2 PUSH2 0x2BD0 JUMP JUMPDEST POP JUMP JUMPDEST PUSH1 0x0 DUP2 DUP4 PUSH2 0x199A SWAP2 SWAP1 PUSH2 0x3DC5 JUMP JUMPDEST SWAP1 POP SWAP3 SWAP2 POP POP JUMP JUMPDEST PUSH1 0x0 DUP1 DUP3 SUB PUSH2 0x19B4 JUMPI PUSH1 0x0 SWAP1 POP PUSH2 0x1A96 JUMP JUMPDEST PUSH1 0x0 PUSH1 0x1 PUSH2 0x19C1 DUP5 PUSH2 0x2C96 JUMP JUMPDEST SWAP1 SHR PUSH1 0x1 SWAP1 SHL SWAP1 POP PUSH1 0x1 DUP2 DUP5 DUP2 PUSH2 0x19DB JUMPI PUSH2 0x19DA PUSH2 0x3D96 JUMP JUMPDEST JUMPDEST DIV DUP3 ADD SWAP1 SHR SWAP1 POP PUSH1 0x1 DUP2 DUP5 DUP2 PUSH2 0x19F4 JUMPI PUSH2 0x19F3 PUSH2 0x3D96 JUMP JUMPDEST JUMPDEST DIV DUP3 ADD SWAP1 SHR SWAP1 POP PUSH1 0x1 DUP2 DUP5 DUP2 PUSH2 0x1A0D JUMPI PUSH2 0x1A0C PUSH2 0x3D96 JUMP JUMPDEST JUMPDEST DIV DUP3 ADD SWAP1 SHR SWAP1 POP PUSH1 0x1 DUP2 DUP5 DUP2 PUSH2 0x1A26 JUMPI PUSH2 0x1A25 PUSH2 0x3D96 JUMP JUMPDEST JUMPDEST DIV DUP3 ADD SWAP1 SHR SWAP1 POP PUSH1 0x1 DUP2 DUP5 DUP2 PUSH2 0x1A3F JUMPI PUSH2 0x1A3E PUSH2 0x3D96 JUMP JUMPDEST JUMPDEST DIV DUP3 ADD SWAP1 SHR SWAP1 POP PUSH1 0x1 DUP2 DUP5 DUP2 PUSH2 0x1A58 JUMPI PUSH2 0x1A57 PUSH2 0x3D96 JUMP JUMPDEST JUMPDEST DIV DUP3 ADD SWAP1 SHR SWAP1 POP PUSH1 0x1 DUP2 DUP5 DUP2 PUSH2 0x1A71 JUMPI PUSH2 0x1A70 PUSH2 0x3D96 JUMP JUMPDEST JUMPDEST DIV DUP3 ADD SWAP1 SHR SWAP1 POP PUSH2 0x1A92 DUP2 DUP3 DUP6 DUP2 PUSH2 0x1A8C JUMPI PUSH2 0x1A8B PUSH2 0x3D96 JUMP JUMPDEST JUMPDEST DIV PUSH2 0x2D77 JUMP JUMPDEST SWAP2 POP POP JUMPDEST SWAP2 SWAP1 POP JUMP JUMPDEST PUSH1 0x0 PUSH1 0x16 PUSH1 0x0 SWAP1 SLOAD SWAP1 PUSH2 0x100 EXP SWAP1 DIV PUSH20 0xFFFFFFFFFFFFFFFFFFFFFFFFFFFFFFFFFFFFFFFF AND PUSH20 0xFFFFFFFFFFFFFFFFFFFFFFFFFFFFFFFFFFFFFFFF AND PUSH4 0x70A08231 ADDRESS PUSH1 0x40 MLOAD DUP3 PUSH4 0xFFFFFFFF AND PUSH1 0xE0 SHL DUP2 MSTORE PUSH1 0x4 ADD PUSH2 0x1AF8 SWAP2 SWAP1 PUSH2 0x32D7 JUMP JUMPDEST PUSH1 0x20 PUSH1 0x40 MLOAD DUP1 DUP4 SUB DUP2 DUP7 GAS STATICCALL ISZERO DUP1 ISZERO PUSH2 0x1B15 JUMPI RETURNDATASIZE PUSH1 0x0 DUP1 RETURNDATACOPY RETURNDATASIZE PUSH1 0x0 REVERT JUMPDEST POP POP POP POP PUSH1 0x40 MLOAD RETURNDATASIZE PUSH1 0x1F NOT PUSH1 0x1F DUP3 ADD AND DUP3 ADD DUP1 PUSH1 0x40 MSTORE POP DUP2 ADD SWAP1 PUSH2 0x1B39 SWAP2 SWAP1 PUSH2 0x3E0B JUMP JUMPDEST SWAP1 POP SWAP1 JUMP JUMPDEST PUSH1 0x0 PUSH2 0x1B49 ADDRESS PUSH2 0x11A8 JUMP JUMPDEST PUSH1 0x17 PUSH1 0x0 SWAP1 SLOAD SWAP1 PUSH2 0x100 EXP SWAP1 DIV PUSH20 0xFFFFFFFFFFFFFFFFFFFFFFFFFFFFFFFFFFFFFFFF AND PUSH20 0xFFFFFFFFFFFFFFFFFFFFFFFFFFFFFFFFFFFFFFFF AND PUSH4 0x70A08231 ADDRESS PUSH1 0x40 MLOAD DUP3 PUSH4 0xFFFFFFFF AND PUSH1 0xE0 SHL DUP2 MSTORE PUSH1 0x4 ADD PUSH2 0x1BA4 SWAP2 SWAP1 PUSH2 0x32D7 JUMP JUMPDEST PUSH1 0x20 PUSH1 0x40 MLOAD DUP1 DUP4 SUB DUP2 DUP7 GAS STATICCALL ISZERO DUP1 ISZERO PUSH2 0x1BC1 JUMPI RETURNDATASIZE PUSH1 0x0 DUP1 RETURNDATACOPY RETURNDATASIZE PUSH1 0x0 REVERT JUMPDEST POP POP POP POP PUSH1 0x40 MLOAD RETURNDATASIZE PUSH1 0x1F NOT PUSH1 0x1F DUP3 ADD AND DUP3 ADD DUP1 PUSH1 0x40 MSTORE POP DUP2 ADD SWAP1 PUSH2 0x1BE5 SWAP2 SWAP1 PUSH2 0x3E0B JUMP JUMPDEST PUSH2 0x1BEF SWAP2 SWAP1 PUSH2 0x39B4 JUMP JUMPDEST SWAP1 POP SWAP1 JUMP JUMPDEST PUSH1 0x0 CALLER SWAP1 POP SWAP1 JUMP JUMPDEST PUSH1 0x0 PUSH20 0xFFFFFFFFFFFFFFFFFFFFFFFFFFFFFFFFFFFFFFFF AND DUP4 PUSH20 0xFFFFFFFFFFFFFFFFFFFFFFFFFFFFFFFFFFFFFFFF AND SUB PUSH2 0x1C6B JUMPI PUSH1 0x40 MLOAD PUSH32 0x8C379A000000000000000000000000000000000000000000000000000000000 DUP2 MSTORE PUSH1 0x4 ADD PUSH2 0x1C62 SWAP1 PUSH2 0x3EAA JUMP JUMPDEST PUSH1 0x40 MLOAD DUP1 SWAP2 SUB SWAP1 REVERT JUMPDEST PUSH1 0x0 PUSH20 0xFFFFFFFFFFFFFFFFFFFFFFFFFFFFFFFFFFFFFFFF AND DUP3 PUSH20 0xFFFFFFFFFFFFFFFFFFFFFFFFFFFFFFFFFFFFFFFF AND SUB PUSH2 0x1CDA JUMPI PUSH1 0x40 MLOAD PUSH32 0x8C379A000000000000000000000000000000000000000000000000000000000 DUP2 MSTORE PUSH1 0x4 ADD PUSH2 0x1CD1 SWAP1 PUSH2 0x3F3C JUMP JUMPDEST PUSH1 0x40 MLOAD DUP1 SWAP2 SUB SWAP1 REVERT JUMPDEST DUP1 PUSH1 0xF PUSH1 0x0 DUP6 PUSH20 0xFFFFFFFFFFFFFFFFFFFFFFFFFFFFFFFFFFFFFFFF AND PUSH20 0xFFFFFFFFFFFFFFFFFFFFFFFFFFFFFFFFFFFFFFFF AND DUP2 MSTORE PUSH1 0x20 ADD SWAP1 DUP2 MSTORE PUSH1 0x20 ADD PUSH1 0x0 KECCAK256 PUSH1 0x0 DUP5 PUSH20 0xFFFFFFFFFFFFFFFFFFFFFFFFFFFFFFFFFFFFFFFF AND PUSH20 0xFFFFFFFFFFFFFFFFFFFFFFFFFFFFFFFFFFFFFFFF AND DUP2 MSTORE PUSH1 0x20 ADD SWAP1 DUP2 MSTORE PUSH1 0x20 ADD PUSH1 0x0 KECCAK256 DUP2 SWAP1 SSTORE POP DUP2 PUSH20 0xFFFFFFFFFFFFFFFFFFFFFFFFFFFFFFFFFFFFFFFF AND DUP4 PUSH20 0xFFFFFFFFFFFFFFFFFFFFFFFFFFFFFFFFFFFFFFFF AND PUSH32 0x8C5BE1E5EBEC7D5BD14F71427D1E84F3DD0314C0F7B2291E5B200AC8C7C3B925 DUP4 PUSH1 0x40 MLOAD PUSH2 0x1DB8 SWAP2 SWAP1 PUSH2 0x3127 JUMP JUMPDEST PUSH1 0x40 MLOAD DUP1 SWAP2 SUB SWAP1 LOG3 POP POP POP JUMP JUMPDEST PUSH1 0x0 PUSH2 0x1DD1 DUP5 DUP5 PUSH2 0x17CA JUMP JUMPDEST SWAP1 POP PUSH32 0xFFFFFFFFFFFFFFFFFFFFFFFFFFFFFFFFFFFFFFFFFFFFFFFFFFFFFFFFFFFFFFFF DUP2 EQ PUSH2 0x1E4B JUMPI DUP2 DUP2 LT ISZERO PUSH2 0x1E3D JUMPI PUSH1 0x40 MLOAD PUSH32 0x8C379A000000000000000000000000000000000000000000000000000000000 DUP2 MSTORE PUSH1 0x4 ADD PUSH2 0x1E34 SWAP1 PUSH2 0x3FA8 JUMP JUMPDEST PUSH1 0x40 MLOAD DUP1 SWAP2 SUB SWAP1 REVERT JUMPDEST PUSH2 0x1E4A DUP5 DUP5 DUP5 DUP5 SUB PUSH2 0x1BFC JUMP JUMPDEST JUMPDEST POP POP POP POP JUMP JUMPDEST PUSH1 0x0 PUSH20 0xFFFFFFFFFFFFFFFFFFFFFFFFFFFFFFFFFFFFFFFF AND DUP4 PUSH20 0xFFFFFFFFFFFFFFFFFFFFFFFFFFFFFFFFFFFFFFFF AND SUB PUSH2 0x1EC0 JUMPI PUSH1 0x40 MLOAD PUSH32 0x8C379A000000000000000000000000000000000000000000000000000000000 DUP2 MSTORE PUSH1 0x4 ADD PUSH2 0x1EB7 SWAP1 PUSH2 0x403A JUMP JUMPDEST PUSH1 0x40 MLOAD DUP1 SWAP2 SUB SWAP1 REVERT JUMPDEST PUSH1 0x0 PUSH20 0xFFFFFFFFFFFFFFFFFFFFFFFFFFFFFFFFFFFFFFFF AND DUP3 PUSH20 0xFFFFFFFFFFFFFFFFFFFFFFFFFFFFFFFFFFFFFFFF AND SUB PUSH2 0x1F2F JUMPI PUSH1 0x40 MLOAD PUSH32 0x8C379A000000000000000000000000000000000000000000000000000000000 DUP2 MSTORE PUSH1 0x4 ADD PUSH2 0x1F26 SWAP1 PUSH2 0x40CC JUMP JUMPDEST PUSH1 0x40 MLOAD DUP1 SWAP2 SUB SWAP1 REVERT JUMPDEST PUSH2 0x1F3A DUP4 DUP4 DUP4 PUSH2 0x2D90 JUMP JUMPDEST PUSH1 0x0 PUSH1 0xE PUSH1 0x0 DUP6 PUSH20 0xFFFFFFFFFFFFFFFFFFFFFFFFFFFFFFFFFFFFFFFF AND PUSH20 0xFFFFFFFFFFFFFFFFFFFFFFFFFFFFFFFFFFFFFFFF AND DUP2 MSTORE PUSH1 0x20 ADD SWAP1 DUP2 MSTORE PUSH1 0x20 ADD PUSH1 0x0 KECCAK256 SLOAD SWAP1 POP DUP2 DUP2 LT ISZERO PUSH2 0x1FC1 JUMPI PUSH1 0x40 MLOAD PUSH32 0x8C379A000000000000000000000000000000000000000000000000000000000 DUP2 MSTORE PUSH1 0x4 ADD PUSH2 0x1FB8 SWAP1 PUSH2 0x415E JUMP JUMPDEST PUSH1 0x40 MLOAD DUP1 SWAP2 SUB SWAP1 REVERT JUMPDEST DUP2 DUP2 SUB PUSH1 0xE PUSH1 0x0 DUP7 PUSH20 0xFFFFFFFFFFFFFFFFFFFFFFFFFFFFFFFFFFFFFFFF AND PUSH20 0xFFFFFFFFFFFFFFFFFFFFFFFFFFFFFFFFFFFFFFFF AND DUP2 MSTORE PUSH1 0x20 ADD SWAP1 DUP2 MSTORE PUSH1 0x20 ADD PUSH1 0x0 KECCAK256 DUP2 SWAP1 SSTORE POP DUP2 PUSH1 0xE PUSH1 0x0 DUP6 PUSH20 0xFFFFFFFFFFFFFFFFFFFFFFFFFFFFFFFFFFFFFFFF AND PUSH20 0xFFFFFFFFFFFFFFFFFFFFFFFFFFFFFFFFFFFFFFFF AND DUP2 MSTORE PUSH1 0x20 ADD SWAP1 DUP2 MSTORE PUSH1 0x20 ADD PUSH1 0x0 KECCAK256 PUSH1 0x0 DUP3 DUP3 SLOAD ADD SWAP3 POP POP DUP2 SWAP1 SSTORE POP DUP3 PUSH20 0xFFFFFFFFFFFFFFFFFFFFFFFFFFFFFFFFFFFFFFFF AND DUP5 PUSH20 0xFFFFFFFFFFFFFFFFFFFFFFFFFFFFFFFFFFFFFFFF AND PUSH32 0xDDF252AD1BE2C89B69C2B068FC378DAA952BA7F163C4A11628F55A4DF523B3EF DUP5 PUSH1 0x40 MLOAD PUSH2 0x20B1 SWAP2 SWAP1 PUSH2 0x3127 JUMP JUMPDEST PUSH1 0x40 MLOAD DUP1 SWAP2 SUB SWAP1 LOG3 PUSH2 0x20C4 DUP5 DUP5 DUP5 PUSH2 0x2D95 JUMP JUMPDEST POP POP POP POP JUMP JUMPDEST PUSH1 0x0 PUSH2 0x20D5 DUP4 PUSH2 0x833 JUMP JUMPDEST SWAP1 POP DUP2 DUP2 LT ISZERO PUSH2 0x211A JUMPI PUSH1 0x40 MLOAD PUSH32 0x8C379A000000000000000000000000000000000000000000000000000000000 DUP2 MSTORE PUSH1 0x4 ADD PUSH2 0x2111 SWAP1 PUSH2 0x3C52 JUMP JUMPDEST PUSH1 0x40 MLOAD DUP1 SWAP2 SUB SWAP1 REVERT JUMPDEST PUSH1 0x17 PUSH1 0x0 SWAP1 SLOAD SWAP1 PUSH2 0x100 EXP SWAP1 DIV PUSH20 0xFFFFFFFFFFFFFFFFFFFFFFFFFFFFFFFFFFFFFFFF AND PUSH20 0xFFFFFFFFFFFFFFFFFFFFFFFFFFFFFFFFFFFFFFFF AND PUSH4 0x23B872DD CALLER ADDRESS DUP7 PUSH1 0x40 MLOAD DUP5 PUSH4 0xFFFFFFFF AND PUSH1 0xE0 SHL DUP2 MSTORE PUSH1 0x4 ADD PUSH2 0x2179 SWAP4 SWAP3 SWAP2 SWAP1 PUSH2 0x3B8D JUMP JUMPDEST PUSH1 0x20 PUSH1 0x40 MLOAD DUP1 DUP4 SUB DUP2 PUSH1 0x0 DUP8 GAS CALL ISZERO DUP1 ISZERO PUSH2 0x2198 JUMPI RETURNDATASIZE PUSH1 0x0 DUP1 RETURNDATACOPY RETURNDATASIZE PUSH1 0x0 REVERT JUMPDEST POP POP POP POP PUSH1 0x40 MLOAD RETURNDATASIZE PUSH1 0x1F NOT PUSH1 0x1F DUP3 ADD AND DUP3 ADD DUP1 PUSH1 0x40 MSTORE POP DUP2 ADD SWAP1 PUSH2 0x21BC SWAP2 SWAP1 PUSH2 0x3BD9 JUMP JUMPDEST POP PUSH1 0x16 PUSH1 0x0 SWAP1 SLOAD SWAP1 PUSH2 0x100 EXP SWAP1 DIV PUSH20 0xFFFFFFFFFFFFFFFFFFFFFFFFFFFFFFFFFFFFFFFF AND PUSH20 0xFFFFFFFFFFFFFFFFFFFFFFFFFFFFFFFFFFFFFFFF AND PUSH4 0xA9059CBB CALLER DUP4 PUSH1 0x40 MLOAD DUP4 PUSH4 0xFFFFFFFF AND PUSH1 0xE0 SHL DUP2 MSTORE PUSH1 0x4 ADD PUSH2 0x221A SWAP3 SWAP2 SWAP1 PUSH2 0x389D JUMP JUMPDEST PUSH1 0x20 PUSH1 0x40 MLOAD DUP1 DUP4 SUB DUP2 PUSH1 0x0 DUP8 GAS CALL ISZERO DUP1 ISZERO PUSH2 0x2239 JUMPI RETURNDATASIZE PUSH1 0x0 DUP1 RETURNDATACOPY RETURNDATASIZE PUSH1 0x0 REVERT JUMPDEST POP POP POP POP PUSH1 0x40 MLOAD RETURNDATASIZE PUSH1 0x1F NOT PUSH1 0x1F DUP3 ADD AND DUP3 ADD DUP1 PUSH1 0x40 MSTORE POP DUP2 ADD SWAP1 PUSH2 0x225D SWAP2 SWAP1 PUSH2 0x3BD9 JUMP JUMPDEST POP ADDRESS PUSH20 0xFFFFFFFFFFFFFFFFFFFFFFFFFFFFFFFFFFFFFFFF AND CALLER PUSH20 0xFFFFFFFFFFFFFFFFFFFFFFFFFFFFFFFFFFFFFFFF AND PUSH32 0xD78AD95FA46C994B6551D0DA85FC275FE613CE37657FB8D5E3D130840159D822 PUSH1 0x0 DUP7 DUP7 PUSH1 0x0 PUSH1 0x40 MLOAD PUSH2 0x22C3 SWAP5 SWAP4 SWAP3 SWAP2 SWAP1 PUSH2 0x41C3 JUMP JUMPDEST PUSH1 0x40 MLOAD DUP1 SWAP2 SUB SWAP1 LOG3 PUSH2 0x22D4 DUP4 PUSH2 0x2D9A JUMP JUMPDEST POP POP POP JUMP JUMPDEST PUSH1 0x0 PUSH2 0x22E4 DUP4 PUSH2 0x1567 JUMP JUMPDEST SWAP1 POP DUP2 DUP2 LT ISZERO PUSH2 0x2329 JUMPI PUSH1 0x40 MLOAD PUSH32 0x8C379A000000000000000000000000000000000000000000000000000000000 DUP2 MSTORE PUSH1 0x4 ADD PUSH2 0x2320 SWAP1 PUSH2 0x3C52 JUMP JUMPDEST PUSH1 0x40 MLOAD DUP1 SWAP2 SUB SWAP1 REVERT JUMPDEST PUSH1 0x16 PUSH1 0x0 SWAP1 SLOAD SWAP1 PUSH2 0x100 EXP SWAP1 DIV PUSH20 0xFFFFFFFFFFFFFFFFFFFFFFFFFFFFFFFFFFFFFFFF AND PUSH20 0xFFFFFFFFFFFFFFFFFFFFFFFFFFFFFFFFFFFFFFFF AND PUSH4 0x23B872DD CALLER ADDRESS DUP7 PUSH1 0x40 MLOAD DUP5 PUSH4 0xFFFFFFFF AND PUSH1 0xE0 SHL DUP2 MSTORE PUSH1 0x4 ADD PUSH2 0x2388 SWAP4 SWAP3 SWAP2 SWAP1 PUSH2 0x3B8D JUMP JUMPDEST PUSH1 0x20 PUSH1 0x40 MLOAD DUP1 DUP4 SUB DUP2 PUSH1 0x0 DUP8 GAS CALL ISZERO DUP1 ISZERO PUSH2 0x23A7 JUMPI RETURNDATASIZE PUSH1 0x0 DUP1 RETURNDATACOPY RETURNDATASIZE PUSH1 0x0 REVERT JUMPDEST POP POP POP POP PUSH1 0x40 MLOAD RETURNDATASIZE PUSH1 0x1F NOT PUSH1 0x1F DUP3 ADD AND DUP3 ADD DUP1 PUSH1 0x40 MSTORE POP DUP2 ADD SWAP1 PUSH2 0x23CB SWAP2 SWAP1 PUSH2 0x3BD9 JUMP JUMPDEST POP PUSH1 0x0 PUSH2 0x23E8 DUP3 PUSH1 0x1F SLOAD PUSH2 0x23DF SWAP2 SWAP1 PUSH2 0x3B4B JUMP JUMPDEST PUSH3 0xF4240 PUSH2 0x198C JUMP JUMPDEST SWAP1 POP PUSH1 0x17 PUSH1 0x0 SWAP1 SLOAD SWAP1 PUSH2 0x100 EXP SWAP1 DIV PUSH20 0xFFFFFFFFFFFFFFFFFFFFFFFFFFFFFFFFFFFFFFFF AND PUSH20 0xFFFFFFFFFFFFFFFFFFFFFFFFFFFFFFFFFFFFFFFF AND PUSH4 0xA9059CBB PUSH1 0x15 PUSH1 0x0 SWAP1 SLOAD SWAP1 PUSH2 0x100 EXP SWAP1 DIV PUSH20 0xFFFFFFFFFFFFFFFFFFFFFFFFFFFFFFFFFFFFFFFF AND DUP4 PUSH1 0x40 MLOAD DUP4 PUSH4 0xFFFFFFFF AND PUSH1 0xE0 SHL DUP2 MSTORE PUSH1 0x4 ADD PUSH2 0x2469 SWAP3 SWAP2 SWAP1 PUSH2 0x389D JUMP JUMPDEST PUSH1 0x20 PUSH1 0x40 MLOAD DUP1 DUP4 SUB DUP2 PUSH1 0x0 DUP8 GAS CALL ISZERO DUP1 ISZERO PUSH2 0x2488 JUMPI RETURNDATASIZE PUSH1 0x0 DUP1 RETURNDATACOPY RETURNDATASIZE PUSH1 0x0 REVERT JUMPDEST POP POP POP POP PUSH1 0x40 MLOAD RETURNDATASIZE PUSH1 0x1F NOT PUSH1 0x1F DUP3 ADD AND DUP3 ADD DUP1 PUSH1 0x40 MSTORE POP DUP2 ADD SWAP1 PUSH2 0x24AC SWAP2 SWAP1 PUSH2 0x3BD9 JUMP JUMPDEST POP PUSH1 0x17 PUSH1 0x0 SWAP1 SLOAD SWAP1 PUSH2 0x100 EXP SWAP1 DIV PUSH20 0xFFFFFFFFFFFFFFFFFFFFFFFFFFFFFFFFFFFFFFFF AND PUSH20 0xFFFFFFFFFFFFFFFFFFFFFFFFFFFFFFFFFFFFFFFF AND PUSH4 0xA9059CBB CALLER DUP4 DUP6 PUSH2 0x24F8 SWAP2 SWAP1 PUSH2 0x39E8 JUMP JUMPDEST PUSH1 0x40 MLOAD DUP4 PUSH4 0xFFFFFFFF AND PUSH1 0xE0 SHL DUP2 MSTORE PUSH1 0x4 ADD PUSH2 0x2515 SWAP3 SWAP2 SWAP1 PUSH2 0x389D JUMP JUMPDEST PUSH1 0x20 PUSH1 0x40 MLOAD DUP1 DUP4 SUB DUP2 PUSH1 0x0 DUP8 GAS CALL ISZERO DUP1 ISZERO PUSH2 0x2534 JUMPI RETURNDATASIZE PUSH1 0x0 DUP1 RETURNDATACOPY RETURNDATASIZE PUSH1 0x0 REVERT JUMPDEST POP POP POP POP PUSH1 0x40 MLOAD RETURNDATASIZE PUSH1 0x1F NOT PUSH1 0x1F DUP3 ADD AND DUP3 ADD DUP1 PUSH1 0x40 MSTORE POP DUP2 ADD SWAP1 PUSH2 0x2558 SWAP2 SWAP1 PUSH2 0x3BD9 JUMP JUMPDEST POP ADDRESS PUSH20 0xFFFFFFFFFFFFFFFFFFFFFFFFFFFFFFFFFFFFFFFF AND CALLER PUSH20 0xFFFFFFFFFFFFFFFFFFFFFFFFFFFFFFFFFFFFFFFF AND PUSH32 0xD78AD95FA46C994B6551D0DA85FC275FE613CE37657FB8D5E3D130840159D822 DUP7 PUSH1 0x0 DUP1 DUP9 PUSH1 0x40 MLOAD PUSH2 0x25BD SWAP5 SWAP4 SWAP3 SWAP2 SWAP1 PUSH2 0x4208 JUMP JUMPDEST PUSH1 0x40 MLOAD DUP1 SWAP2 SUB SWAP1 LOG3 POP POP POP POP JUMP JUMPDEST PUSH1 0x0 PUSH1 0x17 PUSH1 0x0 SWAP1 SLOAD SWAP1 PUSH2 0x100 EXP SWAP1 DIV PUSH20 0xFFFFFFFFFFFFFFFFFFFFFFFFFFFFFFFFFFFFFFFF AND PUSH20 0xFFFFFFFFFFFFFFFFFFFFFFFFFFFFFFFFFFFFFFFF AND PUSH4 0x70A08231 ADDRESS PUSH1 0x40 MLOAD DUP3 PUSH4 0xFFFFFFFF AND PUSH1 0xE0 SHL DUP2 MSTORE PUSH1 0x4 ADD PUSH2 0x2628 SWAP2 SWAP1 PUSH2 0x32D7 JUMP JUMPDEST PUSH1 0x20 PUSH1 0x40 MLOAD DUP1 DUP4 SUB DUP2 DUP7 GAS STATICCALL ISZERO DUP1 ISZERO PUSH2 0x2645 JUMPI RETURNDATASIZE PUSH1 0x0 DUP1 RETURNDATACOPY RETURNDATASIZE PUSH1 0x0 REVERT JUMPDEST POP POP POP POP PUSH1 0x40 MLOAD RETURNDATASIZE PUSH1 0x1F NOT PUSH1 0x1F DUP3 ADD AND DUP3 ADD DUP1 PUSH1 0x40 MSTORE POP DUP2 ADD SWAP1 PUSH2 0x2669 SWAP2 SWAP1 PUSH2 0x3E0B JUMP JUMPDEST SWAP1 POP SWAP1 JUMP JUMPDEST PUSH1 0x3 SLOAD PUSH1 0x1 SLOAD PUSH1 0x2 SLOAD PUSH2 0x2681 SWAP2 SWAP1 PUSH2 0x39E8 JUMP JUMPDEST SUB PUSH2 0x26D6 JUMPI PUSH1 0x0 DUP1 PUSH1 0x1 SLOAD DUP2 MSTORE PUSH1 0x20 ADD SWAP1 DUP2 MSTORE PUSH1 0x20 ADD PUSH1 0x0 KECCAK256 PUSH1 0x0 DUP1 DUP3 ADD PUSH1 0x0 SWAP1 SSTORE PUSH1 0x1 DUP3 ADD PUSH1 0x0 SWAP1 SSTORE PUSH1 0x2 DUP3 ADD PUSH1 0x0 SWAP1 SSTORE PUSH1 0x3 DUP3 ADD PUSH1 0x0 SWAP1 SSTORE POP POP PUSH1 0x1 PUSH1 0x0 DUP2 SLOAD DUP1 SWAP3 SWAP2 SWAP1 PUSH2 0x26D0 SWAP1 PUSH2 0x3A7C JUMP JUMPDEST SWAP2 SWAP1 POP SSTORE POP JUMPDEST PUSH1 0x2 PUSH1 0x0 DUP2 SLOAD DUP1 SWAP3 SWAP2 SWAP1 PUSH2 0x26E9 SWAP1 PUSH2 0x3A7C JUMP JUMPDEST SWAP2 SWAP1 POP SSTORE POP PUSH1 0x40 MLOAD DUP1 PUSH1 0x80 ADD PUSH1 0x40 MSTORE DUP1 DUP5 DUP2 MSTORE PUSH1 0x20 ADD DUP4 DUP2 MSTORE PUSH1 0x20 ADD DUP3 DUP2 MSTORE PUSH1 0x20 ADD TIMESTAMP DUP2 MSTORE POP PUSH1 0x0 DUP1 PUSH1 0x2 SLOAD DUP2 MSTORE PUSH1 0x20 ADD SWAP1 DUP2 MSTORE PUSH1 0x20 ADD PUSH1 0x0 KECCAK256 PUSH1 0x0 DUP3 ADD MLOAD DUP2 PUSH1 0x0 ADD SSTORE PUSH1 0x20 DUP3 ADD MLOAD DUP2 PUSH1 0x1 ADD SSTORE PUSH1 0x40 DUP3 ADD MLOAD DUP2 PUSH1 0x2 ADD SSTORE PUSH1 0x60 DUP3 ADD MLOAD DUP2 PUSH1 0x3 ADD SSTORE SWAP1 POP POP POP POP POP JUMP JUMPDEST PUSH1 0x0 PUSH20 0xFFFFFFFFFFFFFFFFFFFFFFFFFFFFFFFFFFFFFFFF AND DUP3 PUSH20 0xFFFFFFFFFFFFFFFFFFFFFFFFFFFFFFFFFFFFFFFF AND SUB PUSH2 0x27C2 JUMPI PUSH1 0x40 MLOAD PUSH32 0x8C379A000000000000000000000000000000000000000000000000000000000 DUP2 MSTORE PUSH1 0x4 ADD PUSH2 0x27B9 SWAP1 PUSH2 0x4299 JUMP JUMPDEST PUSH1 0x40 MLOAD DUP1 SWAP2 SUB SWAP1 REVERT JUMPDEST PUSH2 0x27CE PUSH1 0x0 DUP4 DUP4 PUSH2 0x2D90 JUMP JUMPDEST DUP1 PUSH1 0x10 PUSH1 0x0 DUP3 DUP3 SLOAD PUSH2 0x27E0 SWAP2 SWAP1 PUSH2 0x39B4 JUMP JUMPDEST SWAP3 POP POP DUP2 SWAP1 SSTORE POP DUP1 PUSH1 0xE PUSH1 0x0 DUP5 PUSH20 0xFFFFFFFFFFFFFFFFFFFFFFFFFFFFFFFFFFFFFFFF AND PUSH20 0xFFFFFFFFFFFFFFFFFFFFFFFFFFFFFFFFFFFFFFFF AND DUP2 MSTORE PUSH1 0x20 ADD SWAP1 DUP2 MSTORE PUSH1 0x20 ADD PUSH1 0x0 KECCAK256 PUSH1 0x0 DUP3 DUP3 SLOAD ADD SWAP3 POP POP DUP2 SWAP1 SSTORE POP DUP2 PUSH20 0xFFFFFFFFFFFFFFFFFFFFFFFFFFFFFFFFFFFFFFFF AND PUSH1 0x0 PUSH20 0xFFFFFFFFFFFFFFFFFFFFFFFFFFFFFFFFFFFFFFFF AND PUSH32 0xDDF252AD1BE2C89B69C2B068FC378DAA952BA7F163C4A11628F55A4DF523B3EF DUP4 PUSH1 0x40 MLOAD PUSH2 0x2892 SWAP2 SWAP1 PUSH2 0x3127 JUMP JUMPDEST PUSH1 0x40 MLOAD DUP1 SWAP2 SUB SWAP1 LOG3 PUSH2 0x28A6 PUSH1 0x0 DUP4 DUP4 PUSH2 0x2D95 JUMP JUMPDEST POP POP JUMP JUMPDEST PUSH1 0x0 PUSH2 0x28B4 PUSH2 0x1A9B JUMP JUMPDEST SWAP1 POP PUSH1 0x0 PUSH2 0x28C0 PUSH2 0x1B3E JUMP JUMPDEST SWAP1 POP PUSH1 0x1B SLOAD DUP2 PUSH2 0x28D0 SWAP2 SWAP1 PUSH2 0x39B4 JUMP JUMPDEST PUSH1 0x1A SLOAD DUP4 PUSH2 0x28DE SWAP2 SWAP1 PUSH2 0x39B4 JUMP JUMPDEST PUSH2 0x28E8 SWAP2 SWAP1 PUSH2 0x3B4B JUMP JUMPDEST PUSH1 0x1C DUP2 SWAP1 SSTORE POP POP POP JUMP JUMPDEST PUSH1 0xD SLOAD PUSH1 0x9 SLOAD PUSH1 0xA SLOAD PUSH2 0x2905 SWAP2 SWAP1 PUSH2 0x39E8 JUMP JUMPDEST SUB PUSH2 0x2988 JUMPI PUSH1 0x5 PUSH1 0x0 DUP4 PUSH20 0xFFFFFFFFFFFFFFFFFFFFFFFFFFFFFFFFFFFFFFFF AND PUSH20 0xFFFFFFFFFFFFFFFFFFFFFFFFFFFFFFFFFFFFFFFF AND DUP2 MSTORE PUSH1 0x20 ADD SWAP1 DUP2 MSTORE PUSH1 0x20 ADD PUSH1 0x0 KECCAK256 PUSH1 0x0 PUSH1 0x9 SLOAD DUP2 MSTORE PUSH1 0x20 ADD SWAP1 DUP2 MSTORE PUSH1 0x20 ADD PUSH1 0x0 KECCAK256 PUSH1 0x0 DUP1 DUP3 ADD PUSH1 0x0 SWAP1 SSTORE PUSH1 0x1 DUP3 ADD PUSH1 0x0 SWAP1 SSTORE POP POP PUSH1 0x9 PUSH1 0x0 DUP2 SLOAD DUP1 SWAP3 SWAP2 SWAP1 PUSH2 0x2982 SWAP1 PUSH2 0x3A7C JUMP JUMPDEST SWAP2 SWAP1 POP SSTORE POP JUMPDEST PUSH1 0xA PUSH1 0x0 DUP2 SLOAD DUP1 SWAP3 SWAP2 SWAP1 PUSH2 0x299B SWAP1 PUSH2 0x3A7C JUMP JUMPDEST SWAP2 SWAP1 POP SSTORE POP PUSH1 0x40 MLOAD DUP1 PUSH1 0x40 ADD PUSH1 0x40 MSTORE DUP1 DUP3 DUP2 MSTORE PUSH1 0x20 ADD TIMESTAMP DUP2 MSTORE POP PUSH1 0x5 PUSH1 0x0 DUP5 PUSH20 0xFFFFFFFFFFFFFFFFFFFFFFFFFFFFFFFFFFFFFFFF AND PUSH20 0xFFFFFFFFFFFFFFFFFFFFFFFFFFFFFFFFFFFFFFFF AND DUP2 MSTORE PUSH1 0x20 ADD SWAP1 DUP2 MSTORE PUSH1 0x20 ADD PUSH1 0x0 KECCAK256 PUSH1 0x0 PUSH1 0xA SLOAD DUP2 MSTORE PUSH1 0x20 ADD SWAP1 DUP2 MSTORE PUSH1 0x20 ADD PUSH1 0x0 KECCAK256 PUSH1 0x0 DUP3 ADD MLOAD DUP2 PUSH1 0x0 ADD SSTORE PUSH1 0x20 DUP3 ADD MLOAD DUP2 PUSH1 0x1 ADD SSTORE SWAP1 POP POP POP POP JUMP JUMPDEST PUSH1 0xD SLOAD PUSH1 0xB SLOAD PUSH1 0xC SLOAD PUSH2 0x2A35 SWAP2 SWAP1 PUSH2 0x39E8 JUMP JUMPDEST SUB PUSH2 0x2AB8 JUMPI PUSH1 0x6 PUSH1 0x0 DUP4 PUSH20 0xFFFFFFFFFFFFFFFFFFFFFFFFFFFFFFFFFFFFFFFF AND PUSH20 0xFFFFFFFFFFFFFFFFFFFFFFFFFFFFFFFFFFFFFFFF AND DUP2 MSTORE PUSH1 0x20 ADD SWAP1 DUP2 MSTORE PUSH1 0x20 ADD PUSH1 0x0 KECCAK256 PUSH1 0x0 PUSH1 0xB SLOAD DUP2 MSTORE PUSH1 0x20 ADD SWAP1 DUP2 MSTORE PUSH1 0x20 ADD PUSH1 0x0 KECCAK256 PUSH1 0x0 DUP1 DUP3 ADD PUSH1 0x0 SWAP1 SSTORE PUSH1 0x1 DUP3 ADD PUSH1 0x0 SWAP1 SSTORE POP POP PUSH1 0xB PUSH1 0x0 DUP2 SLOAD DUP1 SWAP3 SWAP2 SWAP1 PUSH2 0x2AB2 SWAP1 PUSH2 0x3A7C JUMP JUMPDEST SWAP2 SWAP1 POP SSTORE POP JUMPDEST PUSH1 0xC PUSH1 0x0 DUP2 SLOAD DUP1 SWAP3 SWAP2 SWAP1 PUSH2 0x2ACB SWAP1 PUSH2 0x3A7C JUMP JUMPDEST SWAP2 SWAP1 POP SSTORE POP PUSH1 0x40 MLOAD DUP1 PUSH1 0x40 ADD PUSH1 0x40 MSTORE DUP1 DUP3 DUP2 MSTORE PUSH1 0x20 ADD TIMESTAMP DUP2 MSTORE POP PUSH1 0x6 PUSH1 0x0 DUP5 PUSH20 0xFFFFFFFFFFFFFFFFFFFFFFFFFFFFFFFFFFFFFFFF AND PUSH20 0xFFFFFFFFFFFFFFFFFFFFFFFFFFFFFFFFFFFFFFFF AND DUP2 MSTORE PUSH1 0x20 ADD SWAP1 DUP2 MSTORE PUSH1 0x20 ADD PUSH1 0x0 KECCAK256 PUSH1 0x0 PUSH1 0xC SLOAD DUP2 MSTORE PUSH1 0x20 ADD SWAP1 DUP2 MSTORE PUSH1 0x20 ADD PUSH1 0x0 KECCAK256 PUSH1 0x0 DUP3 ADD MLOAD DUP2 PUSH1 0x0 ADD SSTORE PUSH1 0x20 DUP3 ADD MLOAD DUP2 PUSH1 0x1 ADD SSTORE SWAP1 POP POP POP POP JUMP JUMPDEST PUSH2 0x2B5A PUSH2 0x1BF4 JUMP JUMPDEST PUSH20 0xFFFFFFFFFFFFFFFFFFFFFFFFFFFFFFFFFFFFFFFF AND PUSH2 0x2B78 PUSH2 0x1361 JUMP JUMPDEST PUSH20 0xFFFFFFFFFFFFFFFFFFFFFFFFFFFFFFFFFFFFFFFF AND EQ PUSH2 0x2BCE JUMPI PUSH1 0x40 MLOAD PUSH32 0x8C379A000000000000000000000000000000000000000000000000000000000 DUP2 MSTORE PUSH1 0x4 ADD PUSH2 0x2BC5 SWAP1 PUSH2 0x4305 JUMP JUMPDEST PUSH1 0x40 MLOAD DUP1 SWAP2 SUB SWAP1 REVERT JUMPDEST JUMP JUMPDEST PUSH1 0x0 PUSH1 0x13 PUSH1 0x0 SWAP1 SLOAD SWAP1 PUSH2 0x100 EXP SWAP1 DIV PUSH20 0xFFFFFFFFFFFFFFFFFFFFFFFFFFFFFFFFFFFFFFFF AND SWAP1 POP DUP2 PUSH1 0x13 PUSH1 0x0 PUSH2 0x100 EXP DUP2 SLOAD DUP2 PUSH20 0xFFFFFFFFFFFFFFFFFFFFFFFFFFFFFFFFFFFFFFFF MUL NOT AND SWAP1 DUP4 PUSH20 0xFFFFFFFFFFFFFFFFFFFFFFFFFFFFFFFFFFFFFFFF AND MUL OR SWAP1 SSTORE POP DUP2 PUSH20 0xFFFFFFFFFFFFFFFFFFFFFFFFFFFFFFFFFFFFFFFF AND DUP2 PUSH20 0xFFFFFFFFFFFFFFFFFFFFFFFFFFFFFFFFFFFFFFFF AND PUSH32 0x8BE0079C531659141344CD1FD0A4F28419497F9722A3DAAFE3B4186F6B6457E0 PUSH1 0x40 MLOAD PUSH1 0x40 MLOAD DUP1 SWAP2 SUB SWAP1 LOG3 POP POP JUMP JUMPDEST PUSH1 0x0 DUP1 PUSH1 0x0 SWAP1 POP PUSH1 0x0 PUSH1 0x80 DUP5 SWAP1 SHR GT ISZERO PUSH2 0x2CB8 JUMPI PUSH1 0x80 DUP4 SWAP1 SHR SWAP3 POP PUSH1 0x80 DUP2 ADD SWAP1 POP JUMPDEST PUSH1 0x0 PUSH1 0x40 DUP5 SWAP1 SHR GT ISZERO PUSH2 0x2CD3 JUMPI PUSH1 0x40 DUP4 SWAP1 SHR SWAP3 POP PUSH1 0x40 DUP2 ADD SWAP1 POP JUMPDEST PUSH1 0x0 PUSH1 0x20 DUP5 SWAP1 SHR GT ISZERO PUSH2 0x2CEE JUMPI PUSH1 0x20 DUP4 SWAP1 SHR SWAP3 POP PUSH1 0x20 DUP2 ADD SWAP1 POP JUMPDEST PUSH1 0x0 PUSH1 0x10 DUP5 SWAP1 SHR GT ISZERO PUSH2 0x2D09 JUMPI PUSH1 0x10 DUP4 SWAP1 SHR SWAP3 POP PUSH1 0x10 DUP2 ADD SWAP1 POP JUMPDEST PUSH1 0x0 PUSH1 0x8 DUP5 SWAP1 SHR GT ISZERO PUSH2 0x2D24 JUMPI PUSH1 0x8 DUP4 SWAP1 SHR SWAP3 POP PUSH1 0x8 DUP2 ADD SWAP1 POP JUMPDEST PUSH1 0x0 PUSH1 0x4 DUP5 SWAP1 SHR GT ISZERO PUSH2 0x2D3F JUMPI PUSH1 0x4 DUP4 SWAP1 SHR SWAP3 POP PUSH1 0x4 DUP2 ADD SWAP1 POP JUMPDEST PUSH1 0x0 PUSH1 0x2 DUP5 SWAP1 SHR GT ISZERO PUSH2 0x2D5A JUMPI PUSH1 0x2 DUP4 SWAP1 SHR SWAP3 POP PUSH1 0x2 DUP2 ADD SWAP1 POP JUMPDEST PUSH1 0x0 PUSH1 0x1 DUP5 SWAP1 SHR GT ISZERO PUSH2 0x2D6E JUMPI PUSH1 0x1 DUP2 ADD SWAP1 POP JUMPDEST DUP1 SWAP2 POP POP SWAP2 SWAP1 POP JUMP JUMPDEST PUSH1 0x0 DUP2 DUP4 LT PUSH2 0x2D86 JUMPI DUP2 PUSH2 0x2D88 JUMP JUMPDEST DUP3 JUMPDEST SWAP1 POP SWAP3 SWAP2 POP POP JUMP JUMPDEST POP POP POP JUMP JUMPDEST POP POP POP JUMP JUMPDEST PUSH1 0x0 PUSH1 0x22 SLOAD SUB ISZERO PUSH2 0x2EB3 JUMPI PUSH1 0x0 JUMPDEST PUSH1 0x22 SLOAD DUP2 LT ISZERO PUSH2 0x2EB1 JUMPI PUSH1 0x0 PUSH2 0x2DF0 PUSH1 0x21 PUSH1 0x0 DUP5 DUP2 MSTORE PUSH1 0x20 ADD SWAP1 DUP2 MSTORE PUSH1 0x20 ADD PUSH1 0x0 KECCAK256 PUSH1 0x0 SWAP1 SLOAD SWAP1 PUSH2 0x100 EXP SWAP1 DIV PUSH20 0xFFFFFFFFFFFFFFFFFFFFFFFFFFFFFFFFFFFFFFFF AND PUSH2 0x11A8 JUMP JUMPDEST SWAP1 POP PUSH1 0x0 PUSH2 0x2E20 PUSH1 0x20 SLOAD DUP4 DUP7 PUSH2 0x2E06 SWAP2 SWAP1 PUSH2 0x3B4B JUMP JUMPDEST PUSH2 0x2E10 SWAP2 SWAP1 PUSH2 0x3B4B JUMP JUMPDEST PUSH10 0x152D02C7E14AF6800000 PUSH2 0x198C JUMP JUMPDEST SWAP1 POP PUSH2 0x2E5F PUSH1 0x21 PUSH1 0x0 DUP6 DUP2 MSTORE PUSH1 0x20 ADD SWAP1 DUP2 MSTORE PUSH1 0x20 ADD PUSH1 0x0 KECCAK256 PUSH1 0x0 SWAP1 SLOAD SWAP1 PUSH2 0x100 EXP SWAP1 DIV PUSH20 0xFFFFFFFFFFFFFFFFFFFFFFFFFFFFFFFFFFFFFFFF AND DUP3 PUSH2 0x2753 JUMP JUMPDEST PUSH2 0x2E9C PUSH1 0x21 PUSH1 0x0 DUP6 DUP2 MSTORE PUSH1 0x20 ADD SWAP1 DUP2 MSTORE PUSH1 0x20 ADD PUSH1 0x0 KECCAK256 PUSH1 0x0 SWAP1 SLOAD SWAP1 PUSH2 0x100 EXP SWAP1 DIV PUSH20 0xFFFFFFFFFFFFFFFFFFFFFFFFFFFFFFFFFFFFFFFF AND DUP3 PUSH2 0x2EB6 JUMP JUMPDEST POP POP DUP1 DUP1 PUSH2 0x2EA9 SWAP1 PUSH2 0x3A7C JUMP JUMPDEST SWAP2 POP POP PUSH2 0x2DA8 JUMP JUMPDEST POP JUMPDEST POP JUMP JUMPDEST PUSH1 0xD SLOAD PUSH1 0x7 SLOAD PUSH1 0x8 SLOAD PUSH2 0x2EC9 SWAP2 SWAP1 PUSH2 0x39E8 JUMP JUMPDEST SUB PUSH2 0x2F4C JUMPI PUSH1 0x4 PUSH1 0x0 DUP4 PUSH20 0xFFFFFFFFFFFFFFFFFFFFFFFFFFFFFFFFFFFFFFFF AND PUSH20 0xFFFFFFFFFFFFFFFFFFFFFFFFFFFFFFFFFFFFFFFF AND DUP2 MSTORE PUSH1 0x20 ADD SWAP1 DUP2 MSTORE PUSH1 0x20 ADD PUSH1 0x0 KECCAK256 PUSH1 0x0 PUSH1 0x7 SLOAD DUP2 MSTORE PUSH1 0x20 ADD SWAP1 DUP2 MSTORE PUSH1 0x20 ADD PUSH1 0x0 KECCAK256 PUSH1 0x0 DUP1 DUP3 ADD PUSH1 0x0 SWAP1 SSTORE PUSH1 0x1 DUP3 ADD PUSH1 0x0 SWAP1 SSTORE POP POP PUSH1 0x7 PUSH1 0x0 DUP2 SLOAD DUP1 SWAP3 SWAP2 SWAP1 PUSH2 0x2F46 SWAP1 PUSH2 0x3A7C JUMP JUMPDEST SWAP2 SWAP1 POP SSTORE POP JUMPDEST PUSH1 0x8 PUSH1 0x0 DUP2 SLOAD DUP1 SWAP3 SWAP2 SWAP1 PUSH2 0x2F5F SWAP1 PUSH2 0x3A7C JUMP JUMPDEST SWAP2 SWAP1 POP SSTORE POP PUSH1 0x40 MLOAD DUP1 PUSH1 0x40 ADD PUSH1 0x40 MSTORE DUP1 DUP3 DUP2 MSTORE PUSH1 0x20 ADD TIMESTAMP DUP2 MSTORE POP PUSH1 0x4 PUSH1 0x0 DUP5 PUSH20 0xFFFFFFFFFFFFFFFFFFFFFFFFFFFFFFFFFFFFFFFF AND PUSH20 0xFFFFFFFFFFFFFFFFFFFFFFFFFFFFFFFFFFFFFFFF AND DUP2 MSTORE PUSH1 0x20 ADD SWAP1 DUP2 MSTORE PUSH1 0x20 ADD PUSH1 0x0 KECCAK256 PUSH1 0x0 PUSH1 0x8 SLOAD DUP2 MSTORE PUSH1 0x20 ADD SWAP1 DUP2 MSTORE PUSH1 0x20 ADD PUSH1 0x0 KECCAK256 PUSH1 0x0 DUP3 ADD MLOAD DUP2 PUSH1 0x0 ADD SSTORE PUSH1 0x20 DUP3 ADD MLOAD DUP2 PUSH1 0x1 ADD SSTORE SWAP1 POP POP POP POP JUMP JUMPDEST PUSH1 0x40 MLOAD DUP1 PUSH1 0x40 ADD PUSH1 0x40 MSTORE DUP1 PUSH1 0x0 DUP2 MSTORE PUSH1 0x20 ADD PUSH1 0x0 DUP2 MSTORE POP SWAP1 JUMP JUMPDEST PUSH1 0x40 MLOAD DUP1 PUSH1 0x80 ADD PUSH1 0x40 MSTORE DUP1 PUSH1 0x0 DUP2 MSTORE PUSH1 0x20 ADD PUSH1 0x0 DUP2 MSTORE PUSH1 0x20 ADD PUSH1 0x0 DUP2 MSTORE PUSH1 0x20 ADD PUSH1 0x0 DUP2 MSTORE POP SWAP1 JUMP JUMPDEST PUSH1 0x40 MLOAD DUP1 PUSH1 0x40 ADD PUSH1 0x40 MSTORE DUP1 PUSH1 0x0 DUP2 MSTORE PUSH1 0x20 ADD PUSH1 0x0 DUP2 MSTORE POP SWAP1 JUMP JUMPDEST PUSH1 0x40 MLOAD DUP1 PUSH1 0x40 ADD PUSH1 0x40 MSTORE DUP1 PUSH1 0x0 DUP2 MSTORE PUSH1 0x20 ADD PUSH1 0x0 DUP2 MSTORE POP SWAP1 JUMP JUMPDEST PUSH1 0x40 MLOAD DUP1 PUSH1 0x80 ADD PUSH1 0x40 MSTORE DUP1 PUSH1 0x0 PUSH20 0xFFFFFFFFFFFFFFFFFFFFFFFFFFFFFFFFFFFFFFFF AND DUP2 MSTORE PUSH1 0x20 ADD PUSH1 0x0 PUSH20 0xFFFFFFFFFFFFFFFFFFFFFFFFFFFFFFFFFFFFFFFF AND DUP2 MSTORE PUSH1 0x20 ADD PUSH1 0x0 DUP2 MSTORE PUSH1 0x20 ADD PUSH1 0x0 DUP2 MSTORE POP SWAP1 JUMP JUMPDEST PUSH1 0x0 DUP1 REVERT JUMPDEST PUSH1 0x0 DUP2 SWAP1 POP SWAP2 SWAP1 POP JUMP JUMPDEST PUSH2 0x30C8 DUP2 PUSH2 0x30B5 JUMP JUMPDEST DUP2 EQ PUSH2 0x30D3 JUMPI PUSH1 0x0 DUP1 REVERT JUMPDEST POP JUMP JUMPDEST PUSH1 0x0 DUP2 CALLDATALOAD SWAP1 POP PUSH2 0x30E5 DUP2 PUSH2 0x30BF JUMP JUMPDEST SWAP3 SWAP2 POP POP JUMP JUMPDEST PUSH1 0x0 PUSH1 0x20 DUP3 DUP5 SUB SLT ISZERO PUSH2 0x3101 JUMPI PUSH2 0x3100 PUSH2 0x30B0 JUMP JUMPDEST JUMPDEST PUSH1 0x0 PUSH2 0x310F DUP5 DUP3 DUP6 ADD PUSH2 0x30D6 JUMP JUMPDEST SWAP2 POP POP SWAP3 SWAP2 POP POP JUMP JUMPDEST PUSH2 0x3121 DUP2 PUSH2 0x30B5 JUMP JUMPDEST DUP3 MSTORE POP POP JUMP JUMPDEST PUSH1 0x0 PUSH1 0x20 DUP3 ADD SWAP1 POP PUSH2 0x313C PUSH1 0x0 DUP4 ADD DUP5 PUSH2 0x3118 JUMP JUMPDEST SWAP3 SWAP2 POP POP JUMP JUMPDEST PUSH1 0x0 DUP2 MLOAD SWAP1 POP SWAP2 SWAP1 POP JUMP JUMPDEST PUSH1 0x0 DUP3 DUP3 MSTORE PUSH1 0x20 DUP3 ADD SWAP1 POP SWAP3 SWAP2 POP POP JUMP JUMPDEST PUSH1 0x0 JUMPDEST DUP4 DUP2 LT ISZERO PUSH2 0x317C JUMPI DUP1 DUP3 ADD MLOAD DUP2 DUP5 ADD MSTORE PUSH1 0x20 DUP2 ADD SWAP1 POP PUSH2 0x3161 JUMP JUMPDEST PUSH1 0x0 DUP5 DUP5 ADD MSTORE POP POP POP POP JUMP JUMPDEST PUSH1 0x0 PUSH1 0x1F NOT PUSH1 0x1F DUP4 ADD AND SWAP1 POP SWAP2 SWAP1 POP JUMP JUMPDEST PUSH1 0x0 PUSH2 0x31A4 DUP3 PUSH2 0x3142 JUMP JUMPDEST PUSH2 0x31AE DUP2 DUP6 PUSH2 0x314D JUMP JUMPDEST SWAP4 POP PUSH2 0x31BE DUP2 DUP6 PUSH1 0x20 DUP7 ADD PUSH2 0x315E JUMP JUMPDEST PUSH2 0x31C7 DUP2 PUSH2 0x3188 JUMP JUMPDEST DUP5 ADD SWAP2 POP POP SWAP3 SWAP2 POP POP JUMP JUMPDEST PUSH1 0x0 PUSH1 0x20 DUP3 ADD SWAP1 POP DUP2 DUP2 SUB PUSH1 0x0 DUP4 ADD MSTORE PUSH2 0x31EC DUP2 DUP5 PUSH2 0x3199 JUMP JUMPDEST SWAP1 POP SWAP3 SWAP2 POP POP JUMP JUMPDEST PUSH1 0x0 PUSH20 0xFFFFFFFFFFFFFFFFFFFFFFFFFFFFFFFFFFFFFFFF DUP3 AND SWAP1 POP SWAP2 SWAP1 POP JUMP JUMPDEST PUSH1 0x0 PUSH2 0x321F DUP3 PUSH2 0x31F4 JUMP JUMPDEST SWAP1 POP SWAP2 SWAP1 POP JUMP JUMPDEST PUSH2 0x322F DUP2 PUSH2 0x3214 JUMP JUMPDEST DUP2 EQ PUSH2 0x323A JUMPI PUSH1 0x0 DUP1 REVERT JUMPDEST POP JUMP JUMPDEST PUSH1 0x0 DUP2 CALLDATALOAD SWAP1 POP PUSH2 0x324C DUP2 PUSH2 0x3226 JUMP JUMPDEST SWAP3 SWAP2 POP POP JUMP JUMPDEST PUSH1 0x0 DUP1 PUSH1 0x40 DUP4 DUP6 SUB SLT ISZERO PUSH2 0x3269 JUMPI PUSH2 0x3268 PUSH2 0x30B0 JUMP JUMPDEST JUMPDEST PUSH1 0x0 PUSH2 0x3277 DUP6 DUP3 DUP7 ADD PUSH2 0x323D JUMP JUMPDEST SWAP3 POP POP PUSH1 0x20 PUSH2 0x3288 DUP6 DUP3 DUP7 ADD PUSH2 0x30D6 JUMP JUMPDEST SWAP2 POP POP SWAP3 POP SWAP3 SWAP1 POP JUMP JUMPDEST PUSH1 0x0 DUP2 ISZERO ISZERO SWAP1 POP SWAP2 SWAP1 POP JUMP JUMPDEST PUSH2 0x32A7 DUP2 PUSH2 0x3292 JUMP JUMPDEST DUP3 MSTORE POP POP JUMP JUMPDEST PUSH1 0x0 PUSH1 0x20 DUP3 ADD SWAP1 POP PUSH2 0x32C2 PUSH1 0x0 DUP4 ADD DUP5 PUSH2 0x329E JUMP JUMPDEST SWAP3 SWAP2 POP POP JUMP JUMPDEST PUSH2 0x32D1 DUP2 PUSH2 0x3214 JUMP JUMPDEST DUP3 MSTORE POP POP JUMP JUMPDEST PUSH1 0x0 PUSH1 0x20 DUP3 ADD SWAP1 POP PUSH2 0x32EC PUSH1 0x0 DUP4 ADD DUP5 PUSH2 0x32C8 JUMP JUMPDEST SWAP3 SWAP2 POP POP JUMP JUMPDEST PUSH1 0x0 DUP1 PUSH1 0x0 PUSH1 0x60 DUP5 DUP7 SUB SLT ISZERO PUSH2 0x330B JUMPI PUSH2 0x330A PUSH2 0x30B0 JUMP JUMPDEST JUMPDEST PUSH1 0x0 PUSH2 0x3319 DUP7 DUP3 DUP8 ADD PUSH2 0x323D JUMP JUMPDEST SWAP4 POP POP PUSH1 0x20 PUSH2 0x332A DUP7 DUP3 DUP8 ADD PUSH2 0x323D JUMP JUMPDEST SWAP3 POP POP PUSH1 0x40 PUSH2 0x333B DUP7 DUP3 DUP8 ADD PUSH2 0x30D6 JUMP JUMPDEST SWAP2 POP POP SWAP3 POP SWAP3 POP SWAP3 JUMP JUMPDEST PUSH2 0x334E DUP2 PUSH2 0x3292 JUMP JUMPDEST DUP2 EQ PUSH2 0x3359 JUMPI PUSH1 0x0 DUP1 REVERT JUMPDEST POP JUMP JUMPDEST PUSH1 0x0 DUP2 CALLDATALOAD SWAP1 POP PUSH2 0x336B DUP2 PUSH2 0x3345 JUMP JUMPDEST SWAP3 SWAP2 POP POP JUMP JUMPDEST PUSH1 0x0 DUP1 PUSH1 0x0 PUSH1 0x60 DUP5 DUP7 SUB SLT ISZERO PUSH2 0x338A JUMPI PUSH2 0x3389 PUSH2 0x30B0 JUMP JUMPDEST JUMPDEST PUSH1 0x0 PUSH2 0x3398 DUP7 DUP3 DUP8 ADD PUSH2 0x30D6 JUMP JUMPDEST SWAP4 POP POP PUSH1 0x20 PUSH2 0x33A9 DUP7 DUP3 DUP8 ADD PUSH2 0x30D6 JUMP JUMPDEST SWAP3 POP POP PUSH1 0x40 PUSH2 0x33BA DUP7 DUP3 DUP8 ADD PUSH2 0x335C JUMP JUMPDEST SWAP2 POP POP SWAP3 POP SWAP3 POP SWAP3 JUMP JUMPDEST PUSH1 0x0 PUSH1 0xFF DUP3 AND SWAP1 POP SWAP2 SWAP1 POP JUMP JUMPDEST PUSH2 0x33DA DUP2 PUSH2 0x33C4 JUMP JUMPDEST DUP3 MSTORE POP POP JUMP JUMPDEST PUSH1 0x0 PUSH1 0x20 DUP3 ADD SWAP1 POP PUSH2 0x33F5 PUSH1 0x0 DUP4 ADD DUP5 PUSH2 0x33D1 JUMP JUMPDEST SWAP3 SWAP2 POP POP JUMP JUMPDEST PUSH1 0x0 PUSH1 0x20 DUP3 DUP5 SUB SLT ISZERO PUSH2 0x3411 JUMPI PUSH2 0x3410 PUSH2 0x30B0 JUMP JUMPDEST JUMPDEST PUSH1 0x0 PUSH2 0x341F DUP5 DUP3 DUP6 ADD PUSH2 0x323D JUMP JUMPDEST SWAP2 POP POP SWAP3 SWAP2 POP POP JUMP JUMPDEST PUSH1 0x0 DUP2 MLOAD SWAP1 POP SWAP2 SWAP1 POP JUMP JUMPDEST PUSH1 0x0 DUP3 DUP3 MSTORE PUSH1 0x20 DUP3 ADD SWAP1 POP SWAP3 SWAP2 POP POP JUMP JUMPDEST PUSH1 0x0 DUP2 SWAP1 POP PUSH1 0x20 DUP3 ADD SWAP1 POP SWAP2 SWAP1 POP JUMP JUMPDEST PUSH2 0x345D DUP2 PUSH2 0x30B5 JUMP JUMPDEST DUP3 MSTORE POP POP JUMP JUMPDEST PUSH1 0x40 DUP3 ADD PUSH1 0x0 DUP3 ADD MLOAD PUSH2 0x3479 PUSH1 0x0 DUP6 ADD DUP3 PUSH2 0x3454 JUMP JUMPDEST POP PUSH1 0x20 DUP3 ADD MLOAD PUSH2 0x348C PUSH1 0x20 DUP6 ADD DUP3 PUSH2 0x3454 JUMP JUMPDEST POP POP POP POP JUMP JUMPDEST PUSH1 0x0 PUSH2 0x349E DUP4 DUP4 PUSH2 0x3463 JUMP JUMPDEST PUSH1 0x40 DUP4 ADD SWAP1 POP SWAP3 SWAP2 POP POP JUMP JUMPDEST PUSH1 0x0 PUSH1 0x20 DUP3 ADD SWAP1 POP SWAP2 SWAP1 POP JUMP JUMPDEST PUSH1 0x0 PUSH2 0x34C2 DUP3 PUSH2 0x3428 JUMP JUMPDEST PUSH2 0x34CC DUP2 DUP6 PUSH2 0x3433 JUMP JUMPDEST SWAP4 POP PUSH2 0x34D7 DUP4 PUSH2 0x3444 JUMP JUMPDEST DUP1 PUSH1 0x0 JUMPDEST DUP4 DUP2 LT ISZERO PUSH2 0x3508 JUMPI DUP2 MLOAD PUSH2 0x34EF DUP9 DUP3 PUSH2 0x3492 JUMP JUMPDEST SWAP8 POP PUSH2 0x34FA DUP4 PUSH2 0x34AA JUMP JUMPDEST SWAP3 POP POP PUSH1 0x1 DUP2 ADD SWAP1 POP PUSH2 0x34DB JUMP JUMPDEST POP DUP6 SWAP4 POP POP POP POP SWAP3 SWAP2 POP POP JUMP JUMPDEST PUSH1 0x0 PUSH1 0x20 DUP3 ADD SWAP1 POP DUP2 DUP2 SUB PUSH1 0x0 DUP4 ADD MSTORE PUSH2 0x352F DUP2 DUP5 PUSH2 0x34B7 JUMP JUMPDEST SWAP1 POP SWAP3 SWAP2 POP POP JUMP JUMPDEST PUSH1 0x0 DUP2 MLOAD SWAP1 POP SWAP2 SWAP1 POP JUMP JUMPDEST PUSH1 0x0 DUP3 DUP3 MSTORE PUSH1 0x20 DUP3 ADD SWAP1 POP SWAP3 SWAP2 POP POP JUMP JUMPDEST PUSH1 0x0 DUP2 SWAP1 POP PUSH1 0x20 DUP3 ADD SWAP1 POP SWAP2 SWAP1 POP JUMP JUMPDEST PUSH1 0x80 DUP3 ADD PUSH1 0x0 DUP3 ADD MLOAD PUSH2 0x3579 PUSH1 0x0 DUP6 ADD DUP3 PUSH2 0x3454 JUMP JUMPDEST POP PUSH1 0x20 DUP3 ADD MLOAD PUSH2 0x358C PUSH1 0x20 DUP6 ADD DUP3 PUSH2 0x3454 JUMP JUMPDEST POP PUSH1 0x40 DUP3 ADD MLOAD PUSH2 0x359F PUSH1 0x40 DUP6 ADD DUP3 PUSH2 0x3454 JUMP JUMPDEST POP PUSH1 0x60 DUP3 ADD MLOAD PUSH2 0x35B2 PUSH1 0x60 DUP6 ADD DUP3 PUSH2 0x3454 JUMP JUMPDEST POP POP POP POP JUMP JUMPDEST PUSH1 0x0 PUSH2 0x35C4 DUP4 DUP4 PUSH2 0x3563 JUMP JUMPDEST PUSH1 0x80 DUP4 ADD SWAP1 POP SWAP3 SWAP2 POP POP JUMP JUMPDEST PUSH1 0x0 PUSH1 0x20 DUP3 ADD SWAP1 POP SWAP2 SWAP1 POP JUMP JUMPDEST PUSH1 0x0 PUSH2 0x35E8 DUP3 PUSH2 0x3537 JUMP JUMPDEST PUSH2 0x35F2 DUP2 DUP6 PUSH2 0x3542 JUMP JUMPDEST SWAP4 POP PUSH2 0x35FD DUP4 PUSH2 0x3553 JUMP JUMPDEST DUP1 PUSH1 0x0 JUMPDEST DUP4 DUP2 LT ISZERO PUSH2 0x362E JUMPI DUP2 MLOAD PUSH2 0x3615 DUP9 DUP3 PUSH2 0x35B8 JUMP JUMPDEST SWAP8 POP PUSH2 0x3620 DUP4 PUSH2 0x35D0 JUMP JUMPDEST SWAP3 POP POP PUSH1 0x1 DUP2 ADD SWAP1 POP PUSH2 0x3601 JUMP JUMPDEST POP DUP6 SWAP4 POP POP POP POP SWAP3 SWAP2 POP POP JUMP JUMPDEST PUSH1 0x0 PUSH1 0x20 DUP3 ADD SWAP1 POP DUP2 DUP2 SUB PUSH1 0x0 DUP4 ADD MSTORE PUSH2 0x3655 DUP2 DUP5 PUSH2 0x35DD JUMP JUMPDEST SWAP1 POP SWAP3 SWAP2 POP POP JUMP JUMPDEST PUSH1 0x0 DUP1 PUSH1 0x40 DUP4 DUP6 SUB SLT ISZERO PUSH2 0x3674 JUMPI PUSH2 0x3673 PUSH2 0x30B0 JUMP JUMPDEST JUMPDEST PUSH1 0x0 PUSH2 0x3682 DUP6 DUP3 DUP7 ADD PUSH2 0x30D6 JUMP JUMPDEST SWAP3 POP POP PUSH1 0x20 PUSH2 0x3693 DUP6 DUP3 DUP7 ADD PUSH2 0x30D6 JUMP JUMPDEST SWAP2 POP POP SWAP3 POP SWAP3 SWAP1 POP JUMP JUMPDEST PUSH1 0x0 DUP2 MLOAD SWAP1 POP SWAP2 SWAP1 POP JUMP JUMPDEST PUSH1 0x0 DUP3 DUP3 MSTORE PUSH1 0x20 DUP3 ADD SWAP1 POP SWAP3 SWAP2 POP POP JUMP JUMPDEST PUSH1 0x0 DUP2 SWAP1 POP PUSH1 0x20 DUP3 ADD SWAP1 POP SWAP2 SWAP1 POP JUMP JUMPDEST PUSH1 0x40 DUP3 ADD PUSH1 0x0 DUP3 ADD MLOAD PUSH2 0x36DF PUSH1 0x0 DUP6 ADD DUP3 PUSH2 0x3454 JUMP JUMPDEST POP PUSH1 0x20 DUP3 ADD MLOAD PUSH2 0x36F2 PUSH1 0x20 DUP6 ADD DUP3 PUSH2 0x3454 JUMP JUMPDEST POP POP POP POP JUMP JUMPDEST PUSH1 0x0 PUSH2 0x3704 DUP4 DUP4 PUSH2 0x36C9 JUMP JUMPDEST PUSH1 0x40 DUP4 ADD SWAP1 POP SWAP3 SWAP2 POP POP JUMP JUMPDEST PUSH1 0x0 PUSH1 0x20 DUP3 ADD SWAP1 POP SWAP2 SWAP1 POP JUMP JUMPDEST PUSH1 0x0 PUSH2 0x3728 DUP3 PUSH2 0x369D JUMP JUMPDEST PUSH2 0x3732 DUP2 DUP6 PUSH2 0x36A8 JUMP JUMPDEST SWAP4 POP PUSH2 0x373D DUP4 PUSH2 0x36B9 JUMP JUMPDEST DUP1 PUSH1 0x0 JUMPDEST DUP4 DUP2 LT ISZERO PUSH2 0x376E JUMPI DUP2 MLOAD PUSH2 0x3755 DUP9 DUP3 PUSH2 0x36F8 JUMP JUMPDEST SWAP8 POP PUSH2 0x3760 DUP4 PUSH2 0x3710 JUMP JUMPDEST SWAP3 POP POP PUSH1 0x1 DUP2 ADD SWAP1 POP PUSH2 0x3741 JUMP JUMPDEST POP DUP6 SWAP4 POP POP POP POP SWAP3 SWAP2 POP POP JUMP JUMPDEST PUSH1 0x0 PUSH1 0x20 DUP3 ADD SWAP1 POP DUP2 DUP2 SUB PUSH1 0x0 DUP4 ADD MSTORE PUSH2 0x3795 DUP2 DUP5 PUSH2 0x371D JUMP JUMPDEST SWAP1 POP SWAP3 SWAP2 POP POP JUMP JUMPDEST PUSH1 0x0 DUP2 MLOAD SWAP1 POP SWAP2 SWAP1 POP JUMP JUMPDEST PUSH1 0x0 DUP3 DUP3 MSTORE PUSH1 0x20 DUP3 ADD SWAP1 POP SWAP3 SWAP2 POP POP JUMP JUMPDEST PUSH1 0x0 DUP2 SWAP1 POP PUSH1 0x20 DUP3 ADD SWAP1 POP SWAP2 SWAP1 POP JUMP JUMPDEST PUSH1 0x40 DUP3 ADD PUSH1 0x0 DUP3 ADD MLOAD PUSH2 0x37DF PUSH1 0x0 DUP6 ADD DUP3 PUSH2 0x3454 JUMP JUMPDEST POP PUSH1 0x20 DUP3 ADD MLOAD PUSH2 0x37F2 PUSH1 0x20 DUP6 ADD DUP3 PUSH2 0x3454 JUMP JUMPDEST POP POP POP POP JUMP JUMPDEST PUSH1 0x0 PUSH2 0x3804 DUP4 DUP4 PUSH2 0x37C9 JUMP JUMPDEST PUSH1 0x40 DUP4 ADD SWAP1 POP SWAP3 SWAP2 POP POP JUMP JUMPDEST PUSH1 0x0 PUSH1 0x20 DUP3 ADD SWAP1 POP SWAP2 SWAP1 POP JUMP JUMPDEST PUSH1 0x0 PUSH2 0x3828 DUP3 PUSH2 0x379D JUMP JUMPDEST PUSH2 0x3832 DUP2 DUP6 PUSH2 0x37A8 JUMP JUMPDEST SWAP4 POP PUSH2 0x383D DUP4 PUSH2 0x37B9 JUMP JUMPDEST DUP1 PUSH1 0x0 JUMPDEST DUP4 DUP2 LT ISZERO PUSH2 0x386E JUMPI DUP2 MLOAD PUSH2 0x3855 DUP9 DUP3 PUSH2 0x37F8 JUMP JUMPDEST SWAP8 POP PUSH2 0x3860 DUP4 PUSH2 0x3810 JUMP JUMPDEST SWAP3 POP POP PUSH1 0x1 DUP2 ADD SWAP1 POP PUSH2 0x3841 JUMP JUMPDEST POP DUP6 SWAP4 POP POP POP POP SWAP3 SWAP2 POP POP JUMP JUMPDEST PUSH1 0x0 PUSH1 0x20 DUP3 ADD SWAP1 POP DUP2 DUP2 SUB PUSH1 0x0 DUP4 ADD MSTORE PUSH2 0x3895 DUP2 DUP5 PUSH2 0x381D JUMP JUMPDEST SWAP1 POP SWAP3 SWAP2 POP POP JUMP JUMPDEST PUSH1 0x0 PUSH1 0x40 DUP3 ADD SWAP1 POP PUSH2 0x38B2 PUSH1 0x0 DUP4 ADD DUP6 PUSH2 0x32C8 JUMP JUMPDEST PUSH2 0x38BF PUSH1 0x20 DUP4 ADD DUP5 PUSH2 0x3118 JUMP JUMPDEST SWAP4 SWAP3 POP POP POP JUMP JUMPDEST PUSH1 0x0 DUP1 PUSH1 0x40 DUP4 DUP6 SUB SLT ISZERO PUSH2 0x38DD JUMPI PUSH2 0x38DC PUSH2 0x30B0 JUMP JUMPDEST JUMPDEST PUSH1 0x0 PUSH2 0x38EB DUP6 DUP3 DUP7 ADD PUSH2 0x323D JUMP JUMPDEST SWAP3 POP POP PUSH1 0x20 PUSH2 0x38FC DUP6 DUP3 DUP7 ADD PUSH2 0x323D JUMP JUMPDEST SWAP2 POP POP SWAP3 POP SWAP3 SWAP1 POP JUMP JUMPDEST PUSH2 0x390F DUP2 PUSH2 0x3214 JUMP JUMPDEST DUP3 MSTORE POP POP JUMP JUMPDEST PUSH1 0x80 DUP3 ADD PUSH1 0x0 DUP3 ADD MLOAD PUSH2 0x392B PUSH1 0x0 DUP6 ADD DUP3 PUSH2 0x3906 JUMP JUMPDEST POP PUSH1 0x20 DUP3 ADD MLOAD PUSH2 0x393E PUSH1 0x20 DUP6 ADD DUP3 PUSH2 0x3906 JUMP JUMPDEST POP PUSH1 0x40 DUP3 ADD MLOAD PUSH2 0x3951 PUSH1 0x40 DUP6 ADD DUP3 PUSH2 0x3454 JUMP JUMPDEST POP PUSH1 0x60 DUP3 ADD MLOAD PUSH2 0x3964 PUSH1 0x60 DUP6 ADD DUP3 PUSH2 0x3454 JUMP JUMPDEST POP POP POP POP JUMP JUMPDEST PUSH1 0x0 PUSH1 0x80 DUP3 ADD SWAP1 POP PUSH2 0x397F PUSH1 0x0 DUP4 ADD DUP5 PUSH2 0x3915 JUMP JUMPDEST SWAP3 SWAP2 POP POP JUMP JUMPDEST PUSH32 0x4E487B7100000000000000000000000000000000000000000000000000000000 PUSH1 0x0 MSTORE PUSH1 0x11 PUSH1 0x4 MSTORE PUSH1 0x24 PUSH1 0x0 REVERT JUMPDEST PUSH1 0x0 PUSH2 0x39BF DUP3 PUSH2 0x30B5 JUMP JUMPDEST SWAP2 POP PUSH2 0x39CA DUP4 PUSH2 0x30B5 JUMP JUMPDEST SWAP3 POP DUP3 DUP3 ADD SWAP1 POP DUP1 DUP3 GT ISZERO PUSH2 0x39E2 JUMPI PUSH2 0x39E1 PUSH2 0x3985 JUMP JUMPDEST JUMPDEST SWAP3 SWAP2 POP POP JUMP JUMPDEST PUSH1 0x0 PUSH2 0x39F3 DUP3 PUSH2 0x30B5 JUMP JUMPDEST SWAP2 POP PUSH2 0x39FE DUP4 PUSH2 0x30B5 JUMP JUMPDEST SWAP3 POP DUP3 DUP3 SUB SWAP1 POP DUP2 DUP2 GT ISZERO PUSH2 0x3A16 JUMPI PUSH2 0x3A15 PUSH2 0x3985 JUMP JUMPDEST JUMPDEST SWAP3 SWAP2 POP POP JUMP JUMPDEST PUSH32 0x4E487B7100000000000000000000000000000000000000000000000000000000 PUSH1 0x0 MSTORE PUSH1 0x22 PUSH1 0x4 MSTORE PUSH1 0x24 PUSH1 0x0 REVERT JUMPDEST PUSH1 0x0 PUSH1 0x2 DUP3 DIV SWAP1 POP PUSH1 0x1 DUP3 AND DUP1 PUSH2 0x3A63 JUMPI PUSH1 0x7F DUP3 AND SWAP2 POP JUMPDEST PUSH1 0x20 DUP3 LT DUP2 SUB PUSH2 0x3A76 JUMPI PUSH2 0x3A75 PUSH2 0x3A1C JUMP JUMPDEST JUMPDEST POP SWAP2 SWAP1 POP JUMP JUMPDEST PUSH1 0x0 PUSH2 0x3A87 DUP3 PUSH2 0x30B5 JUMP JUMPDEST SWAP2 POP PUSH32 0xFFFFFFFFFFFFFFFFFFFFFFFFFFFFFFFFFFFFFFFFFFFFFFFFFFFFFFFFFFFFFFFF DUP3 SUB PUSH2 0x3AB9 JUMPI PUSH2 0x3AB8 PUSH2 0x3985 JUMP JUMPDEST JUMPDEST PUSH1 0x1 DUP3 ADD SWAP1 POP SWAP2 SWAP1 POP JUMP JUMPDEST PUSH1 0x0 PUSH1 0x40 DUP3 ADD SWAP1 POP PUSH2 0x3AD9 PUSH1 0x0 DUP4 ADD DUP6 PUSH2 0x3118 JUMP JUMPDEST PUSH2 0x3AE6 PUSH1 0x20 DUP4 ADD DUP5 PUSH2 0x3118 JUMP JUMPDEST SWAP4 SWAP3 POP POP POP JUMP JUMPDEST PUSH32 0x4E487B7100000000000000000000000000000000000000000000000000000000 PUSH1 0x0 MSTORE PUSH1 0x41 PUSH1 0x4 MSTORE PUSH1 0x24 PUSH1 0x0 REVERT JUMPDEST PUSH32 0x4E487B7100000000000000000000000000000000000000000000000000000000 PUSH1 0x0 MSTORE PUSH1 0x32 PUSH1 0x4 MSTORE PUSH1 0x24 PUSH1 0x0 REVERT JUMPDEST PUSH1 0x0 PUSH2 0x3B56 DUP3 PUSH2 0x30B5 JUMP JUMPDEST SWAP2 POP PUSH2 0x3B61 DUP4 PUSH2 0x30B5 JUMP JUMPDEST SWAP3 POP DUP3 DUP3 MUL PUSH2 0x3B6F DUP2 PUSH2 0x30B5 JUMP JUMPDEST SWAP2 POP DUP3 DUP3 DIV DUP5 EQ DUP4 ISZERO OR PUSH2 0x3B86 JUMPI PUSH2 0x3B85 PUSH2 0x3985 JUMP JUMPDEST JUMPDEST POP SWAP3 SWAP2 POP POP JUMP JUMPDEST PUSH1 0x0 PUSH1 0x60 DUP3 ADD SWAP1 POP PUSH2 0x3BA2 PUSH1 0x0 DUP4 ADD DUP7 PUSH2 0x32C8 JUMP JUMPDEST PUSH2 0x3BAF PUSH1 0x20 DUP4 ADD DUP6 PUSH2 0x32C8 JUMP JUMPDEST PUSH2 0x3BBC PUSH1 0x40 DUP4 ADD DUP5 PUSH2 0x3118 JUMP JUMPDEST SWAP5 SWAP4 POP POP POP POP JUMP JUMPDEST PUSH1 0x0 DUP2 MLOAD SWAP1 POP PUSH2 0x3BD3 DUP2 PUSH2 0x3345 JUMP JUMPDEST SWAP3 SWAP2 POP POP JUMP JUMPDEST PUSH1 0x0 PUSH1 0x20 DUP3 DUP5 SUB SLT ISZERO PUSH2 0x3BEF JUMPI PUSH2 0x3BEE PUSH2 0x30B0 JUMP JUMPDEST JUMPDEST PUSH1 0x0 PUSH2 0x3BFD DUP5 DUP3 DUP6 ADD PUSH2 0x3BC4 JUMP JUMPDEST SWAP2 POP POP SWAP3 SWAP2 POP POP JUMP JUMPDEST PUSH32 0x496E73756666696369656E74206F757470757420616D6F756E74000000000000 PUSH1 0x0 DUP3 ADD MSTORE POP JUMP JUMPDEST PUSH1 0x0 PUSH2 0x3C3C PUSH1 0x1A DUP4 PUSH2 0x314D JUMP JUMPDEST SWAP2 POP PUSH2 0x3C47 DUP3 PUSH2 0x3C06 JUMP JUMPDEST PUSH1 0x20 DUP3 ADD SWAP1 POP SWAP2 SWAP1 POP JUMP JUMPDEST PUSH1 0x0 PUSH1 0x20 DUP3 ADD SWAP1 POP DUP2 DUP2 SUB PUSH1 0x0 DUP4 ADD MSTORE PUSH2 0x3C6B DUP2 PUSH2 0x3C2F JUMP JUMPDEST SWAP1 POP SWAP2 SWAP1 POP JUMP JUMPDEST PUSH32 0x45524332303A2064656372656173656420616C6C6F77616E63652062656C6F77 PUSH1 0x0 DUP3 ADD MSTORE PUSH32 0x207A65726F000000000000000000000000000000000000000000000000000000 PUSH1 0x20 DUP3 ADD MSTORE POP JUMP JUMPDEST PUSH1 0x0 PUSH2 0x3CCE PUSH1 0x25 DUP4 PUSH2 0x314D JUMP JUMPDEST SWAP2 POP PUSH2 0x3CD9 DUP3 PUSH2 0x3C72 JUMP JUMPDEST PUSH1 0x40 DUP3 ADD SWAP1 POP SWAP2 SWAP1 POP JUMP JUMPDEST PUSH1 0x0 PUSH1 0x20 DUP3 ADD SWAP1 POP DUP2 DUP2 SUB PUSH1 0x0 DUP4 ADD MSTORE PUSH2 0x3CFD DUP2 PUSH2 0x3CC1 JUMP JUMPDEST SWAP1 POP SWAP2 SWAP1 POP JUMP JUMPDEST PUSH32 0x4F776E61626C653A206E6577206F776E657220697320746865207A65726F2061 PUSH1 0x0 DUP3 ADD MSTORE PUSH32 0x6464726573730000000000000000000000000000000000000000000000000000 PUSH1 0x20 DUP3 ADD MSTORE POP JUMP JUMPDEST PUSH1 0x0 PUSH2 0x3D60 PUSH1 0x26 DUP4 PUSH2 0x314D JUMP JUMPDEST SWAP2 POP PUSH2 0x3D6B DUP3 PUSH2 0x3D04 JUMP JUMPDEST PUSH1 0x40 DUP3 ADD SWAP1 POP SWAP2 SWAP1 POP JUMP JUMPDEST PUSH1 0x0 PUSH1 0x20 DUP3 ADD SWAP1 POP DUP2 DUP2 SUB PUSH1 0x0 DUP4 ADD MSTORE PUSH2 0x3D8F DUP2 PUSH2 0x3D53 JUMP JUMPDEST SWAP1 POP SWAP2 SWAP1 POP JUMP JUMPDEST PUSH32 0x4E487B7100000000000000000000000000000000000000000000000000000000 PUSH1 0x0 MSTORE PUSH1 0x12 PUSH1 0x4 MSTORE PUSH1 0x24 PUSH1 0x0 REVERT JUMPDEST PUSH1 0x0 PUSH2 0x3DD0 DUP3 PUSH2 0x30B5 JUMP JUMPDEST SWAP2 POP PUSH2 0x3DDB DUP4 PUSH2 0x30B5 JUMP JUMPDEST SWAP3 POP DUP3 PUSH2 0x3DEB JUMPI PUSH2 0x3DEA PUSH2 0x3D96 JUMP JUMPDEST JUMPDEST DUP3 DUP3 DIV SWAP1 POP SWAP3 SWAP2 POP POP JUMP JUMPDEST PUSH1 0x0 DUP2 MLOAD SWAP1 POP PUSH2 0x3E05 DUP2 PUSH2 0x30BF JUMP JUMPDEST SWAP3 SWAP2 POP POP JUMP JUMPDEST PUSH1 0x0 PUSH1 0x20 DUP3 DUP5 SUB SLT ISZERO PUSH2 0x3E21 JUMPI PUSH2 0x3E20 PUSH2 0x30B0 JUMP JUMPDEST JUMPDEST PUSH1 0x0 PUSH2 0x3E2F DUP5 DUP3 DUP6 ADD PUSH2 0x3DF6 JUMP JUMPDEST SWAP2 POP POP SWAP3 SWAP2 POP POP JUMP JUMPDEST PUSH32 0x45524332303A20617070726F76652066726F6D20746865207A65726F20616464 PUSH1 0x0 DUP3 ADD MSTORE PUSH32 0x7265737300000000000000000000000000000000000000000000000000000000 PUSH1 0x20 DUP3 ADD MSTORE POP JUMP JUMPDEST PUSH1 0x0 PUSH2 0x3E94 PUSH1 0x24 DUP4 PUSH2 0x314D JUMP JUMPDEST SWAP2 POP PUSH2 0x3E9F DUP3 PUSH2 0x3E38 JUMP JUMPDEST PUSH1 0x40 DUP3 ADD SWAP1 POP SWAP2 SWAP1 POP JUMP JUMPDEST PUSH1 0x0 PUSH1 0x20 DUP3 ADD SWAP1 POP DUP2 DUP2 SUB PUSH1 0x0 DUP4 ADD MSTORE PUSH2 0x3EC3 DUP2 PUSH2 0x3E87 JUMP JUMPDEST SWAP1 POP SWAP2 SWAP1 POP JUMP JUMPDEST PUSH32 0x45524332303A20617070726F766520746F20746865207A65726F206164647265 PUSH1 0x0 DUP3 ADD MSTORE PUSH32 0x7373000000000000000000000000000000000000000000000000000000000000 PUSH1 0x20 DUP3 ADD MSTORE POP JUMP JUMPDEST PUSH1 0x0 PUSH2 0x3F26 PUSH1 0x22 DUP4 PUSH2 0x314D JUMP JUMPDEST SWAP2 POP PUSH2 0x3F31 DUP3 PUSH2 0x3ECA JUMP JUMPDEST PUSH1 0x40 DUP3 ADD SWAP1 POP SWAP2 SWAP1 POP JUMP JUMPDEST PUSH1 0x0 PUSH1 0x20 DUP3 ADD SWAP1 POP DUP2 DUP2 SUB PUSH1 0x0 DUP4 ADD MSTORE PUSH2 0x3F55 DUP2 PUSH2 0x3F19 JUMP JUMPDEST SWAP1 POP SWAP2 SWAP1 POP JUMP JUMPDEST PUSH32 0x45524332303A20696E73756666696369656E7420616C6C6F77616E6365000000 PUSH1 0x0 DUP3 ADD MSTORE POP JUMP JUMPDEST PUSH1 0x0 PUSH2 0x3F92 PUSH1 0x1D DUP4 PUSH2 0x314D JUMP JUMPDEST SWAP2 POP PUSH2 0x3F9D DUP3 PUSH2 0x3F5C JUMP JUMPDEST PUSH1 0x20 DUP3 ADD SWAP1 POP SWAP2 SWAP1 POP JUMP JUMPDEST PUSH1 0x0 PUSH1 0x20 DUP3 ADD SWAP1 POP DUP2 DUP2 SUB PUSH1 0x0 DUP4 ADD MSTORE PUSH2 0x3FC1 DUP2 PUSH2 0x3F85 JUMP JUMPDEST SWAP1 POP SWAP2 SWAP1 POP JUMP JUMPDEST PUSH32 0x45524332303A207472616E736665722066726F6D20746865207A65726F206164 PUSH1 0x0 DUP3 ADD MSTORE PUSH32 0x6472657373000000000000000000000000000000000000000000000000000000 PUSH1 0x20 DUP3 ADD MSTORE POP JUMP JUMPDEST PUSH1 0x0 PUSH2 0x4024 PUSH1 0x25 DUP4 PUSH2 0x314D JUMP JUMPDEST SWAP2 POP PUSH2 0x402F DUP3 PUSH2 0x3FC8 JUMP JUMPDEST PUSH1 0x40 DUP3 ADD SWAP1 POP SWAP2 SWAP1 POP JUMP JUMPDEST PUSH1 0x0 PUSH1 0x20 DUP3 ADD SWAP1 POP DUP2 DUP2 SUB PUSH1 0x0 DUP4 ADD MSTORE PUSH2 0x4053 DUP2 PUSH2 0x4017 JUMP JUMPDEST SWAP1 POP SWAP2 SWAP1 POP JUMP JUMPDEST PUSH32 0x45524332303A207472616E7366657220746F20746865207A65726F2061646472 PUSH1 0x0 DUP3 ADD MSTORE PUSH32 0x6573730000000000000000000000000000000000000000000000000000000000 PUSH1 0x20 DUP3 ADD MSTORE POP JUMP JUMPDEST PUSH1 0x0 PUSH2 0x40B6 PUSH1 0x23 DUP4 PUSH2 0x314D JUMP JUMPDEST SWAP2 POP PUSH2 0x40C1 DUP3 PUSH2 0x405A JUMP JUMPDEST PUSH1 0x40 DUP3 ADD SWAP1 POP SWAP2 SWAP1 POP JUMP JUMPDEST PUSH1 0x0 PUSH1 0x20 DUP3 ADD SWAP1 POP DUP2 DUP2 SUB PUSH1 0x0 DUP4 ADD MSTORE PUSH2 0x40E5 DUP2 PUSH2 0x40A9 JUMP JUMPDEST SWAP1 POP SWAP2 SWAP1 POP JUMP JUMPDEST PUSH32 0x45524332303A207472616E7366657220616D6F756E7420657863656564732062 PUSH1 0x0 DUP3 ADD MSTORE PUSH32 0x616C616E63650000000000000000000000000000000000000000000000000000 PUSH1 0x20 DUP3 ADD MSTORE POP JUMP JUMPDEST PUSH1 0x0 PUSH2 0x4148 PUSH1 0x26 DUP4 PUSH2 0x314D JUMP JUMPDEST SWAP2 POP PUSH2 0x4153 DUP3 PUSH2 0x40EC JUMP JUMPDEST PUSH1 0x40 DUP3 ADD SWAP1 POP SWAP2 SWAP1 POP JUMP JUMPDEST PUSH1 0x0 PUSH1 0x20 DUP3 ADD SWAP1 POP DUP2 DUP2 SUB PUSH1 0x0 DUP4 ADD MSTORE PUSH2 0x4177 DUP2 PUSH2 0x413B JUMP JUMPDEST SWAP1 POP SWAP2 SWAP1 POP JUMP JUMPDEST PUSH1 0x0 DUP2 SWAP1 POP SWAP2 SWAP1 POP JUMP JUMPDEST PUSH1 0x0 DUP2 SWAP1 POP SWAP2 SWAP1 POP JUMP JUMPDEST PUSH1 0x0 PUSH2 0x41AD PUSH2 0x41A8 PUSH2 0x41A3 DUP5 PUSH2 0x417E JUMP JUMPDEST PUSH2 0x4188 JUMP JUMPDEST PUSH2 0x30B5 JUMP JUMPDEST SWAP1 POP SWAP2 SWAP1 POP JUMP JUMPDEST PUSH2 0x41BD DUP2 PUSH2 0x4192 JUMP JUMPDEST DUP3 MSTORE POP POP JUMP JUMPDEST PUSH1 0x0 PUSH1 0x80 DUP3 ADD SWAP1 POP PUSH2 0x41D8 PUSH1 0x0 DUP4 ADD DUP8 PUSH2 0x41B4 JUMP JUMPDEST PUSH2 0x41E5 PUSH1 0x20 DUP4 ADD DUP7 PUSH2 0x3118 JUMP JUMPDEST PUSH2 0x41F2 PUSH1 0x40 DUP4 ADD DUP6 PUSH2 0x3118 JUMP JUMPDEST PUSH2 0x41FF PUSH1 0x60 DUP4 ADD DUP5 PUSH2 0x41B4 JUMP JUMPDEST SWAP6 SWAP5 POP POP POP POP POP JUMP JUMPDEST PUSH1 0x0 PUSH1 0x80 DUP3 ADD SWAP1 POP PUSH2 0x421D PUSH1 0x0 DUP4 ADD DUP8 PUSH2 0x3118 JUMP JUMPDEST PUSH2 0x422A PUSH1 0x20 DUP4 ADD DUP7 PUSH2 0x41B4 JUMP JUMPDEST PUSH2 0x4237 PUSH1 0x40 DUP4 ADD DUP6 PUSH2 0x41B4 JUMP JUMPDEST PUSH2 0x4244 PUSH1 0x60 DUP4 ADD DUP5 PUSH2 0x3118 JUMP JUMPDEST SWAP6 SWAP5 POP POP POP POP POP JUMP JUMPDEST PUSH32 0x45524332303A206D696E7420746F20746865207A65726F206164647265737300 PUSH1 0x0 DUP3 ADD MSTORE POP JUMP JUMPDEST PUSH1 0x0 PUSH2 0x4283 PUSH1 0x1F DUP4 PUSH2 0x314D JUMP JUMPDEST SWAP2 POP PUSH2 0x428E DUP3 PUSH2 0x424D JUMP JUMPDEST PUSH1 0x20 DUP3 ADD SWAP1 POP SWAP2 SWAP1 POP JUMP JUMPDEST PUSH1 0x0 PUSH1 0x20 DUP3 ADD SWAP1 POP DUP2 DUP2 SUB PUSH1 0x0 DUP4 ADD MSTORE PUSH2 0x42B2 DUP2 PUSH2 0x4276 JUMP JUMPDEST SWAP1 POP SWAP2 SWAP1 POP JUMP JUMPDEST PUSH32 0x4F776E61626C653A2063616C6C6572206973206E6F7420746865206F776E6572 PUSH1 0x0 DUP3 ADD MSTORE POP JUMP JUMPDEST PUSH1 0x0 PUSH2 0x42EF PUSH1 0x20 DUP4 PUSH2 0x314D JUMP JUMPDEST SWAP2 POP PUSH2 0x42FA DUP3 PUSH2 0x42B9 JUMP JUMPDEST PUSH1 0x20 DUP3 ADD SWAP1 POP SWAP2 SWAP1 POP JUMP JUMPDEST PUSH1 0x0 PUSH1 0x20 DUP3 ADD SWAP1 POP DUP2 DUP2 SUB PUSH1 0x0 DUP4 ADD MSTORE PUSH2 0x431E DUP2 PUSH2 0x42E2 JUMP JUMPDEST SWAP1 POP SWAP2 SWAP1 POP JUMP INVALID LOG2 PUSH5 0x6970667358 0x22 SLT KECCAK256 RETURNDATACOPY 0xCE 0xB3 CALLVALUE 0x4B CODECOPY SWAP12 SSTORE PUSH17 0xF5D6F8A765B3E61804248AF60AAE896674 CALLER DUP7 CALLDATACOPY PUSH10 0x6E5E64736F6C63430008 SLT STOP CALLER "
		},
		"gasEstimates": {
			"creation": {
				"codeDepositCost": "3448600",
				"executionCost": "infinite",
				"totalCost": "infinite"
			},
			"external": {
				"allowance(address,address)": "infinite",
				"approve(address,uint256)": "infinite",
				"balanceOf(address)": "2996",
				"decimals()": "389",
				"decreaseAllowance(address,uint256)": "infinite",
				"depositTokensForFarmingTokens(uint256)": "infinite",
				"depositorInfos(uint256)": "infinite",
				"factory()": "2647",
				"factoryOwner()": "2559",
				"getDeposits(address)": "infinite",
				"getProps()": "infinite",
				"getRewards(address)": "infinite",
				"getTicks()": "infinite",
				"getWithdrawals(address)": "infinite",
				"hasJoined()": "infinite",
				"increaseAllowance(address,uint256)": "infinite",
				"interest()": "2540",
				"joinFarming()": "55269",
				"kConstant()": "2562",
				"maxRecords()": "2519",
				"maxTicks()": "2563",
				"name()": "infinite",
				"owner()": "2567",
				"protocolFee()": "2496",
				"renounceOwnership()": "30444",
				"swap(uint256,uint256,bool)": "infinite",
				"symbol()": "infinite",
				"testKConstant()": "infinite",
				"token0()": "2627",
				"token0BasePrice()": "2561",
				"token0Constant()": "2474",
				"token0DepositAmount()": "2541",
				"token0MaxPrice()": "2497",
				"token0Output(uint256)": "infinite",
				"token1()": "2580",
				"token1Constant()": "2519",
				"token1DepositAmount()": "2564",
				"token1Output(uint256)": "infinite",
				"totalSupply()": "2483",
				"transfer(address,uint256)": "infinite",
				"transferFrom(address,address,uint256)": "infinite",
				"transferOwnership(address)": "30898",
				"withdrawFarmingTokens(uint256,uint256)": "infinite"
			},
			"internal": {
				"_addInterest(uint256)": "infinite",
				"_allToken1Balance()": "infinite",
				"_buy(uint256,uint256)": "infinite",
				"_sell(uint256,uint256)": "infinite",
				"_token0Balance()": "infinite",
				"_token1Balance()": "infinite",
				"_updateKConstant()": "infinite",
				"calcToken0Constant(uint256,uint256,uint256)": "infinite",
				"calcToken1Constant(address,uint256,uint256,uint256,uint256)": "infinite"
			}
		},
		"methodIdentifiers": {
			"allowance(address,address)": "dd62ed3e",
			"approve(address,uint256)": "095ea7b3",
			"balanceOf(address)": "70a08231",
			"decimals()": "313ce567",
			"decreaseAllowance(address,uint256)": "a457c2d7",
			"depositTokensForFarmingTokens(uint256)": "430d1aee",
			"depositorInfos(uint256)": "ccbaf736",
			"factory()": "c45a0155",
			"factoryOwner()": "4273601c",
			"getDeposits(address)": "94f649dd",
			"getProps()": "ec1893b4",
			"getRewards(address)": "79ee54f7",
			"getTicks()": "3d1c387b",
			"getWithdrawals(address)": "3a2b643a",
			"hasJoined()": "bc4d6e7a",
			"increaseAllowance(address,uint256)": "39509351",
			"interest()": "c392f766",
			"joinFarming()": "1af0bcf0",
			"kConstant()": "5a656c24",
			"maxRecords()": "7b0a3a8d",
			"maxTicks()": "870e415e",
			"name()": "06fdde03",
			"owner()": "8da5cb5b",
			"protocolFee()": "b0e21e8a",
			"renounceOwnership()": "715018a6",
			"swap(uint256,uint256,bool)": "2bec60fe",
			"symbol()": "95d89b41",
			"testKConstant()": "433065d0",
			"token0()": "0dfe1681",
			"token0BasePrice()": "ef3501b9",
			"token0Constant()": "aff56c14",
			"token0DepositAmount()": "7c07a380",
			"token0MaxPrice()": "364abc3d",
			"token0Output(uint256)": "04786ab4",
			"token1()": "d21220a7",
			"token1Constant()": "1cf2128c",
			"token1DepositAmount()": "13724b70",
			"token1Output(uint256)": "9f8e55d6",
			"totalSupply()": "18160ddd",
			"transfer(address,uint256)": "a9059cbb",
			"transferFrom(address,address,uint256)": "23b872dd",
			"transferOwnership(address)": "f2fde38b",
			"withdrawFarmingTokens(uint256,uint256)": "4a0c0c74"
		}
	},
	"abi": [
		{
			"inputs": [
				{
					"internalType": "address",
					"name": "_factory",
					"type": "address"
				},
				{
					"internalType": "address",
					"name": "_factoryOwner",
					"type": "address"
				},
				{
					"internalType": "address",
					"name": "_token0",
					"type": "address"
				},
				{
					"internalType": "address",
					"name": "_token1",
					"type": "address"
				},
				{
					"internalType": "uint256",
					"name": "_token0DepositAmount",
					"type": "uint256"
				},
				{
					"internalType": "uint256",
					"name": "_token1DepositAmount",
					"type": "uint256"
				},
				{
					"internalType": "uint256",
					"name": "_token0BasePrice",
					"type": "uint256"
				},
				{
					"internalType": "uint256",
					"name": "_token0MaxPrice",
					"type": "uint256"
				},
				{
					"internalType": "uint256",
					"name": "_protocolFee",
					"type": "uint256"
				},
				{
					"internalType": "string",
					"name": "_token1Name",
					"type": "string"
				},
				{
					"internalType": "string",
					"name": "_token1Symbol",
					"type": "string"
				}
			],
			"stateMutability": "nonpayable",
			"type": "constructor"
		},
		{
			"anonymous": false,
			"inputs": [
				{
					"indexed": true,
					"internalType": "address",
					"name": "owner",
					"type": "address"
				},
				{
					"indexed": true,
					"internalType": "address",
					"name": "spender",
					"type": "address"
				},
				{
					"indexed": false,
					"internalType": "uint256",
					"name": "value",
					"type": "uint256"
				}
			],
			"name": "Approval",
			"type": "event"
		},
		{
			"anonymous": false,
			"inputs": [
				{
					"indexed": true,
					"internalType": "address",
					"name": "previousOwner",
					"type": "address"
				},
				{
					"indexed": true,
					"internalType": "address",
					"name": "newOwner",
					"type": "address"
				}
			],
			"name": "OwnershipTransferred",
			"type": "event"
		},
		{
			"anonymous": false,
			"inputs": [
				{
					"indexed": true,
					"internalType": "address",
					"name": "sender",
					"type": "address"
				},
				{
					"indexed": false,
					"internalType": "uint256",
					"name": "amount0In",
					"type": "uint256"
				},
				{
					"indexed": false,
					"internalType": "uint256",
					"name": "amount1In",
					"type": "uint256"
				},
				{
					"indexed": false,
					"internalType": "uint256",
					"name": "amount0Out",
					"type": "uint256"
				},
				{
					"indexed": false,
					"internalType": "uint256",
					"name": "amount1Out",
					"type": "uint256"
				},
				{
					"indexed": true,
					"internalType": "address",
					"name": "to",
					"type": "address"
				}
			],
			"name": "Swap",
			"type": "event"
		},
		{
			"anonymous": false,
			"inputs": [
				{
					"indexed": false,
					"internalType": "uint256",
					"name": "reserve0",
					"type": "uint256"
				},
				{
					"indexed": false,
					"internalType": "uint256",
					"name": "reserve1",
					"type": "uint256"
				}
			],
			"name": "Sync",
			"type": "event"
		},
		{
			"anonymous": false,
			"inputs": [
				{
					"indexed": true,
					"internalType": "address",
					"name": "from",
					"type": "address"
				},
				{
					"indexed": true,
					"internalType": "address",
					"name": "to",
					"type": "address"
				},
				{
					"indexed": false,
					"internalType": "uint256",
					"name": "value",
					"type": "uint256"
				}
			],
			"name": "Transfer",
			"type": "event"
		},
		{
			"inputs": [
				{
					"internalType": "address",
					"name": "owner",
					"type": "address"
				},
				{
					"internalType": "address",
					"name": "spender",
					"type": "address"
				}
			],
			"name": "allowance",
			"outputs": [
				{
					"internalType": "uint256",
					"name": "",
					"type": "uint256"
				}
			],
			"stateMutability": "view",
			"type": "function"
		},
		{
			"inputs": [
				{
					"internalType": "address",
					"name": "spender",
					"type": "address"
				},
				{
					"internalType": "uint256",
					"name": "amount",
					"type": "uint256"
				}
			],
			"name": "approve",
			"outputs": [
				{
					"internalType": "bool",
					"name": "",
					"type": "bool"
				}
			],
			"stateMutability": "nonpayable",
			"type": "function"
		},
		{
			"inputs": [
				{
					"internalType": "address",
					"name": "account",
					"type": "address"
				}
			],
			"name": "balanceOf",
			"outputs": [
				{
					"internalType": "uint256",
					"name": "",
					"type": "uint256"
				}
			],
			"stateMutability": "view",
			"type": "function"
		},
		{
			"inputs": [],
			"name": "decimals",
			"outputs": [
				{
					"internalType": "uint8",
					"name": "",
					"type": "uint8"
				}
			],
			"stateMutability": "view",
			"type": "function"
		},
		{
			"inputs": [
				{
					"internalType": "address",
					"name": "spender",
					"type": "address"
				},
				{
					"internalType": "uint256",
					"name": "subtractedValue",
					"type": "uint256"
				}
			],
			"name": "decreaseAllowance",
			"outputs": [
				{
					"internalType": "bool",
					"name": "",
					"type": "bool"
				}
			],
			"stateMutability": "nonpayable",
			"type": "function"
		},
		{
			"inputs": [
				{
					"internalType": "uint256",
					"name": "_amountToken1In",
					"type": "uint256"
				}
			],
			"name": "depositTokensForFarmingTokens",
			"outputs": [],
			"stateMutability": "nonpayable",
			"type": "function"
		},
		{
			"inputs": [
				{
					"internalType": "uint256",
					"name": "",
					"type": "uint256"
				}
			],
			"name": "depositorInfos",
			"outputs": [
				{
					"internalType": "address",
					"name": "depositor",
					"type": "address"
				},
				{
					"internalType": "uint256",
					"name": "amount",
					"type": "uint256"
				}
			],
			"stateMutability": "view",
			"type": "function"
		},
		{
			"inputs": [],
			"name": "factory",
			"outputs": [
				{
					"internalType": "address",
					"name": "",
					"type": "address"
				}
			],
			"stateMutability": "view",
			"type": "function"
		},
		{
			"inputs": [],
			"name": "factoryOwner",
			"outputs": [
				{
					"internalType": "address",
					"name": "",
					"type": "address"
				}
			],
			"stateMutability": "view",
			"type": "function"
		},
		{
			"inputs": [
				{
					"internalType": "address",
					"name": "_address",
					"type": "address"
				}
			],
			"name": "getDeposits",
			"outputs": [
				{
					"components": [
						{
							"internalType": "uint256",
							"name": "amount",
							"type": "uint256"
						},
						{
							"internalType": "uint256",
							"name": "timestamp",
							"type": "uint256"
						}
					],
					"internalType": "struct LPTokenLog.DepositLog[]",
					"name": "",
					"type": "tuple[]"
				}
			],
			"stateMutability": "view",
			"type": "function"
		},
		{
			"inputs": [],
			"name": "getProps",
			"outputs": [
				{
					"components": [
						{
							"internalType": "address",
							"name": "token0",
							"type": "address"
						},
						{
							"internalType": "address",
							"name": "token1",
							"type": "address"
						},
						{
							"internalType": "uint256",
							"name": "token0Holding",
							"type": "uint256"
						},
						{
							"internalType": "uint256",
							"name": "token1Holding",
							"type": "uint256"
						}
					],
					"internalType": "struct LiquidityPool.Props",
					"name": "",
					"type": "tuple"
				}
			],
			"stateMutability": "view",
			"type": "function"
		},
		{
			"inputs": [
				{
					"internalType": "address",
					"name": "_address",
					"type": "address"
				}
			],
			"name": "getRewards",
			"outputs": [
				{
					"components": [
						{
							"internalType": "uint256",
							"name": "amount",
							"type": "uint256"
						},
						{
							"internalType": "uint256",
							"name": "timestamp",
							"type": "uint256"
						}
					],
					"internalType": "struct LPTokenLog.RewardLog[]",
					"name": "",
					"type": "tuple[]"
				}
			],
			"stateMutability": "view",
			"type": "function"
		},
		{
			"inputs": [],
			"name": "getTicks",
			"outputs": [
				{
					"components": [
						{
							"internalType": "uint256",
							"name": "token0",
							"type": "uint256"
						},
						{
							"internalType": "uint256",
							"name": "token1",
							"type": "uint256"
						},
						{
							"internalType": "uint256",
							"name": "token0Price",
							"type": "uint256"
						},
						{
							"internalType": "uint256",
							"name": "timestamp",
							"type": "uint256"
						}
					],
					"internalType": "struct LPTick.Tick[]",
					"name": "",
					"type": "tuple[]"
				}
			],
			"stateMutability": "view",
			"type": "function"
		},
		{
			"inputs": [
				{
					"internalType": "address",
					"name": "_address",
					"type": "address"
				}
			],
			"name": "getWithdrawals",
			"outputs": [
				{
					"components": [
						{
							"internalType": "uint256",
							"name": "amount",
							"type": "uint256"
						},
						{
							"internalType": "uint256",
							"name": "timestamp",
							"type": "uint256"
						}
					],
					"internalType": "struct LPTokenLog.WithdrawLog[]",
					"name": "",
					"type": "tuple[]"
				}
			],
			"stateMutability": "view",
			"type": "function"
		},
		{
			"inputs": [],
			"name": "hasJoined",
			"outputs": [
				{
					"internalType": "bool",
					"name": "",
					"type": "bool"
				}
			],
			"stateMutability": "view",
			"type": "function"
		},
		{
			"inputs": [
				{
					"internalType": "address",
					"name": "spender",
					"type": "address"
				},
				{
					"internalType": "uint256",
					"name": "addedValue",
					"type": "uint256"
				}
			],
			"name": "increaseAllowance",
			"outputs": [
				{
					"internalType": "bool",
					"name": "",
					"type": "bool"
				}
			],
			"stateMutability": "nonpayable",
			"type": "function"
		},
		{
			"inputs": [],
			"name": "interest",
			"outputs": [
				{
					"internalType": "uint256",
					"name": "",
					"type": "uint256"
				}
			],
			"stateMutability": "view",
			"type": "function"
		},
		{
			"inputs": [],
			"name": "joinFarming",
			"outputs": [],
			"stateMutability": "nonpayable",
			"type": "function"
		},
		{
			"inputs": [],
			"name": "kConstant",
			"outputs": [
				{
					"internalType": "uint256",
					"name": "",
					"type": "uint256"
				}
			],
			"stateMutability": "view",
			"type": "function"
		},
		{
			"inputs": [],
			"name": "maxRecords",
			"outputs": [
				{
					"internalType": "uint256",
					"name": "",
					"type": "uint256"
				}
			],
			"stateMutability": "view",
			"type": "function"
		},
		{
			"inputs": [],
			"name": "maxTicks",
			"outputs": [
				{
					"internalType": "uint256",
					"name": "",
					"type": "uint256"
				}
			],
			"stateMutability": "view",
			"type": "function"
		},
		{
			"inputs": [],
			"name": "name",
			"outputs": [
				{
					"internalType": "string",
					"name": "",
					"type": "string"
				}
			],
			"stateMutability": "view",
			"type": "function"
		},
		{
			"inputs": [],
			"name": "owner",
			"outputs": [
				{
					"internalType": "address",
					"name": "",
					"type": "address"
				}
			],
			"stateMutability": "view",
			"type": "function"
		},
		{
			"inputs": [],
			"name": "protocolFee",
			"outputs": [
				{
					"internalType": "uint256",
					"name": "",
					"type": "uint256"
				}
			],
			"stateMutability": "view",
			"type": "function"
		},
		{
			"inputs": [],
			"name": "renounceOwnership",
			"outputs": [],
			"stateMutability": "nonpayable",
			"type": "function"
		},
		{
			"inputs": [
				{
					"internalType": "uint256",
					"name": "_amountTokenIn",
					"type": "uint256"
				},
				{
					"internalType": "uint256",
					"name": "_minAmountTokenOut",
					"type": "uint256"
				},
				{
					"internalType": "bool",
					"name": "_isBuy",
					"type": "bool"
				}
			],
			"name": "swap",
			"outputs": [],
			"stateMutability": "nonpayable",
			"type": "function"
		},
		{
			"inputs": [],
			"name": "symbol",
			"outputs": [
				{
					"internalType": "string",
					"name": "",
					"type": "string"
				}
			],
			"stateMutability": "view",
			"type": "function"
		},
		{
			"inputs": [],
			"name": "testKConstant",
			"outputs": [
				{
					"internalType": "uint256",
					"name": "",
					"type": "uint256"
				}
			],
			"stateMutability": "view",
			"type": "function"
		},
		{
			"inputs": [],
			"name": "token0",
			"outputs": [
				{
					"internalType": "address",
					"name": "",
					"type": "address"
				}
			],
			"stateMutability": "view",
			"type": "function"
		},
		{
			"inputs": [],
			"name": "token0BasePrice",
			"outputs": [
				{
					"internalType": "uint256",
					"name": "",
					"type": "uint256"
				}
			],
			"stateMutability": "view",
			"type": "function"
		},
		{
			"inputs": [],
			"name": "token0Constant",
			"outputs": [
				{
					"internalType": "uint256",
					"name": "",
					"type": "uint256"
				}
			],
			"stateMutability": "view",
			"type": "function"
		},
		{
			"inputs": [],
			"name": "token0DepositAmount",
			"outputs": [
				{
					"internalType": "uint256",
					"name": "",
					"type": "uint256"
				}
			],
			"stateMutability": "view",
			"type": "function"
		},
		{
			"inputs": [],
			"name": "token0MaxPrice",
			"outputs": [
				{
					"internalType": "uint256",
					"name": "",
					"type": "uint256"
				}
			],
			"stateMutability": "view",
			"type": "function"
		},
		{
			"inputs": [
				{
					"internalType": "uint256",
					"name": "_token1Input",
					"type": "uint256"
				}
			],
			"name": "token0Output",
			"outputs": [
				{
					"internalType": "uint256",
					"name": "",
					"type": "uint256"
				}
			],
			"stateMutability": "view",
			"type": "function"
		},
		{
			"inputs": [],
			"name": "token1",
			"outputs": [
				{
					"internalType": "address",
					"name": "",
					"type": "address"
				}
			],
			"stateMutability": "view",
			"type": "function"
		},
		{
			"inputs": [],
			"name": "token1Constant",
			"outputs": [
				{
					"internalType": "uint256",
					"name": "",
					"type": "uint256"
				}
			],
			"stateMutability": "view",
			"type": "function"
		},
		{
			"inputs": [],
			"name": "token1DepositAmount",
			"outputs": [
				{
					"internalType": "uint256",
					"name": "",
					"type": "uint256"
				}
			],
			"stateMutability": "view",
			"type": "function"
		},
		{
			"inputs": [
				{
					"internalType": "uint256",
					"name": "_token0Input",
					"type": "uint256"
				}
			],
			"name": "token1Output",
			"outputs": [
				{
					"internalType": "uint256",
					"name": "",
					"type": "uint256"
				}
			],
			"stateMutability": "view",
			"type": "function"
		},
		{
			"inputs": [],
			"name": "totalSupply",
			"outputs": [
				{
					"internalType": "uint256",
					"name": "",
					"type": "uint256"
				}
			],
			"stateMutability": "view",
			"type": "function"
		},
		{
			"inputs": [
				{
					"internalType": "address",
					"name": "to",
					"type": "address"
				},
				{
					"internalType": "uint256",
					"name": "amount",
					"type": "uint256"
				}
			],
			"name": "transfer",
			"outputs": [
				{
					"internalType": "bool",
					"name": "",
					"type": "bool"
				}
			],
			"stateMutability": "nonpayable",
			"type": "function"
		},
		{
			"inputs": [
				{
					"internalType": "address",
					"name": "from",
					"type": "address"
				},
				{
					"internalType": "address",
					"name": "to",
					"type": "address"
				},
				{
					"internalType": "uint256",
					"name": "amount",
					"type": "uint256"
				}
			],
			"name": "transferFrom",
			"outputs": [
				{
					"internalType": "bool",
					"name": "",
					"type": "bool"
				}
			],
			"stateMutability": "nonpayable",
			"type": "function"
		},
		{
			"inputs": [
				{
					"internalType": "address",
					"name": "newOwner",
					"type": "address"
				}
			],
			"name": "transferOwnership",
			"outputs": [],
			"stateMutability": "nonpayable",
			"type": "function"
		},
		{
			"inputs": [
				{
					"internalType": "uint256",
					"name": "_amountLPTokenIn",
					"type": "uint256"
				},
				{
					"internalType": "uint256",
					"name": "_minAmountToken0Out",
					"type": "uint256"
				}
			],
			"name": "withdrawFarmingTokens",
			"outputs": [],
			"stateMutability": "nonpayable",
			"type": "function"
		}
	]
}