{
	"data": {
		"bytecode": {
			"linkReferences": {},
			"object": "60806040523480156200001157600080fd5b5060405162002a3a38038062002a3a8339818101604052810190620000379190620007e0565b620000576200004b620002b060201b60201c565b620002b860201b60201c565b88600160006101000a81548173ffffffffffffffffffffffffffffffffffffffff021916908373ffffffffffffffffffffffffffffffffffffffff16021790555087600260006101000a81548173ffffffffffffffffffffffffffffffffffffffff021916908373ffffffffffffffffffffffffffffffffffffffff1602179055508573ffffffffffffffffffffffffffffffffffffffff168773ffffffffffffffffffffffffffffffffffffffff16036200014a576040517f08c379a0000000000000000000000000000000000000000000000000000000008152600401620001419062000920565b60405180910390fd5b86600360006101000a81548173ffffffffffffffffffffffffffffffffffffffff021916908373ffffffffffffffffffffffffffffffffffffffff16021790555085600460006101000a81548173ffffffffffffffffffffffffffffffffffffffff021916908373ffffffffffffffffffffffffffffffffffffffff16021790555084600581905550836006819055508282101562000220576040517f08c379a00000000000000000000000000000000000000000000000000000000081526004016200021790620009b8565b60405180910390fd5b82600a8190555081600b8190555080600c81905550620002488383876200037c60201b60201c565b60078190555062000265878460075488886200041460201b60201c565b6008819055506008546006546200027d919062000a09565b6007546005546200028f919062000a09565b6200029b919062000a44565b60098190555050505050505050505062000d46565b600033905090565b60008060009054906101000a900473ffffffffffffffffffffffffffffffffffffffff169050816000806101000a81548173ffffffffffffffffffffffffffffffffffffffff021916908373ffffffffffffffffffffffffffffffffffffffff1602179055508173ffffffffffffffffffffffffffffffffffffffff168173ffffffffffffffffffffffffffffffffffffffff167f8be0079c531659141344cd1fd0a4f28419497f9722a3daafe3b4186f6b6457e060405160405180910390a35050565b600080620003ab678ac7230489e800008662000399919062000a44565b85620004fc60201b62000d1d1760201c565b90506000620003c5826200051460201b62000d331760201c565b905060008482620003d7919062000a44565b90506000826402540be400620003ee919062000a8f565b9050620004078282620004fc60201b62000d1d1760201c565b9450505050509392505050565b6000808673ffffffffffffffffffffffffffffffffffffffff1663313ce5676040518163ffffffff1660e01b8152600401602060405180830381865afa15801562000463573d6000803e3d6000fd5b505050506040513d601f19601f8201168201806040525081019062000489919062000b08565b9050600081600a6200049c919062000c8e565b905060008482620004ae919062000a44565b8787620004bc919062000a09565b89620004c9919062000a44565b620004d5919062000a8f565b9050620004ee8183620004fc60201b62000d1d1760201c565b935050505095945050505050565b600081836200050c919062000d0e565b905092915050565b600080820362000528576000905062000632565b600060016200053d846200063760201b60201c565b901c6001901b905060018184816200055a576200055962000cdf565b5b048201901c9050600181848162000576576200057562000cdf565b5b048201901c9050600181848162000592576200059162000cdf565b5b048201901c90506001818481620005ae57620005ad62000cdf565b5b048201901c90506001818481620005ca57620005c962000cdf565b5b048201901c90506001818481620005e657620005e562000cdf565b5b048201901c9050600181848162000602576200060162000cdf565b5b048201901c90506200062e8182858162000621576200062062000cdf565b5b046200072060201b60201c565b9150505b919050565b600080600090506000608084901c11156200065a57608083901c92506080810190505b6000604084901c11156200067657604083901c92506040810190505b6000602084901c11156200069257602083901c92506020810190505b6000601084901c1115620006ae57601083901c92506010810190505b6000600884901c1115620006ca57600883901c92506008810190505b6000600484901c1115620006e657600483901c92506004810190505b6000600284901c11156200070257600283901c92506002810190505b6000600184901c111562000717576001810190505b80915050919050565b600081831062000731578162000733565b825b905092915050565b600080fd5b600073ffffffffffffffffffffffffffffffffffffffff82169050919050565b60006200076d8262000740565b9050919050565b6200077f8162000760565b81146200078b57600080fd5b50565b6000815190506200079f8162000774565b92915050565b6000819050919050565b620007ba81620007a5565b8114620007c657600080fd5b50565b600081519050620007da81620007af565b92915050565b60008060008060008060008060006101208a8c0312156200080657620008056200073b565b5b6000620008168c828d016200078e565b9950506020620008298c828d016200078e565b98505060406200083c8c828d016200078e565b97505060606200084f8c828d016200078e565b9650506080620008628c828d01620007c9565b95505060a0620008758c828d01620007c9565b94505060c0620008888c828d01620007c9565b93505060e06200089b8c828d01620007c9565b925050610100620008af8c828d01620007c9565b9150509295985092959850929598565b600082825260208201905092915050565b7f426f746820746f6b656e732063616e6e6f74206265207468652073616d650000600082015250565b600062000908601e83620008bf565b91506200091582620008d0565b602082019050919050565b600060208201905081810360008301526200093b81620008f9565b9050919050565b7f4d6178696d756d207072696365206d757374206265206772656174657220746860008201527f616e206f7220657175616c20746f207468652062617365207072696365000000602082015250565b6000620009a0603d83620008bf565b9150620009ad8262000942565b604082019050919050565b60006020820190508181036000830152620009d38162000991565b9050919050565b7f4e487b7100000000000000000000000000000000000000000000000000000000600052601160045260246000fd5b600062000a1682620007a5565b915062000a2383620007a5565b925082820190508082111562000a3e5762000a3d620009da565b5b92915050565b600062000a5182620007a5565b915062000a5e83620007a5565b925082820262000a6e81620007a5565b9150828204841483151762000a885762000a87620009da565b5b5092915050565b600062000a9c82620007a5565b915062000aa983620007a5565b925082820390508181111562000ac45762000ac3620009da565b5b92915050565b600060ff82169050919050565b62000ae28162000aca565b811462000aee57600080fd5b50565b60008151905062000b028162000ad7565b92915050565b60006020828403121562000b215762000b206200073b565b5b600062000b318482850162000af1565b91505092915050565b60008160011c9050919050565b6000808291508390505b600185111562000b995780860481111562000b715762000b70620009da565b5b600185161562000b815780820291505b808102905062000b918562000b3a565b945062000b51565b94509492505050565b60008262000bb4576001905062000c87565b8162000bc4576000905062000c87565b816001811462000bdd576002811462000be85762000c1e565b600191505062000c87565b60ff84111562000bfd5762000bfc620009da565b5b8360020a91508482111562000c175762000c16620009da565b5b5062000c87565b5060208310610133831016604e8410600b841016171562000c585782820a90508381111562000c525762000c51620009da565b5b62000c87565b62000c67848484600162000b47565b9250905081840481111562000c815762000c80620009da565b5b81810290505b9392505050565b600062000c9b82620007a5565b915062000ca88362000aca565b925062000cd77fffffffffffffffffffffffffffffffffffffffffffffffffffffffffffffffff848462000ba2565b905092915050565b7f4e487b7100000000000000000000000000000000000000000000000000000000600052601260045260246000fd5b600062000d1b82620007a5565b915062000d2883620007a5565b92508262000d3b5762000d3a62000cdf565b5b828204905092915050565b611ce48062000d566000396000f3fe608060405234801561001057600080fd5b506004361061012c5760003560e01c80637c07a380116100ad578063c45a015511610071578063c45a015514610301578063d21220a71461031f578063ec1893b41461033d578063ef3501b91461035b578063f2fde38b146103795761012c565b80637c07a380146102595780638da5cb5b146102775780639f8e55d614610295578063aff56c14146102c5578063b0e21e8a146102e35761012c565b8063364abc3d116100f4578063364abc3d146101d75780634273601c146101f5578063433065d0146102135780635a656c2414610231578063715018a61461024f5761012c565b806304786ab4146101315780630dfe16811461016157806313724b701461017f5780631cf2128c1461019d5780632bec60fe146101bb575b600080fd5b61014b600480360381019061014691906115f9565b610395565b6040516101589190611635565b60405180910390f35b610169610527565b6040516101769190611691565b60405180910390f35b61018761054d565b6040516101949190611635565b60405180910390f35b6101a5610553565b6040516101b29190611635565b60405180910390f35b6101d560048036038101906101d091906116e4565b610559565b005b6101df6106ed565b6040516101ec9190611635565b60405180910390f35b6101fd6106f3565b60405161020a9190611691565b60405180910390f35b61021b610719565b6040516102289190611635565b60405180910390f35b610239610887565b6040516102469190611635565b60405180910390f35b61025761088d565b005b6102616108a1565b60405161026e9190611635565b60405180910390f35b61027f6108a7565b60405161028c9190611691565b60405180910390f35b6102af60048036038101906102aa91906115f9565b6108d0565b6040516102bc9190611635565b60405180910390f35b6102cd610a62565b6040516102da9190611635565b60405180910390f35b6102eb610a68565b6040516102f89190611635565b60405180910390f35b610309610a6e565b6040516103169190611691565b60405180910390f35b610327610a94565b6040516103349190611691565b60405180910390f35b610345610aba565b60405161035291906117aa565b60405180910390f35b610363610c94565b6040516103709190611635565b60405180910390f35b610393600480360381019061038e91906117f1565b610c9a565b005b600080600360009054906101000a900473ffffffffffffffffffffffffffffffffffffffff1673ffffffffffffffffffffffffffffffffffffffff166370a08231306040518263ffffffff1660e01b81526004016103f39190611691565b602060405180830381865afa158015610410573d6000803e3d6000fd5b505050506040513d601f19601f820116820180604052508101906104349190611833565b90506000600460009054906101000a900473ffffffffffffffffffffffffffffffffffffffff1673ffffffffffffffffffffffffffffffffffffffff166370a08231306040518263ffffffff1660e01b81526004016104939190611691565b602060405180830381865afa1580156104b0573d6000803e3d6000fd5b505050506040513d601f19601f820116820180604052508101906104d49190611833565b9050600084826104e4919061188f565b90506000600754610504600954600854856104ff919061188f565b610d1d565b61050e91906118c3565b9050808461051c91906118c3565b945050505050919050565b600360009054906101000a900473ffffffffffffffffffffffffffffffffffffffff1681565b60065481565b60085481565b801561056e576105698383610e2c565b610579565b6105788383611032565b5b7fcf2aa50876cdfbb541206f89af0ee78d44a2abf8d328e37fa4917f982149848a600360009054906101000a900473ffffffffffffffffffffffffffffffffffffffff1673ffffffffffffffffffffffffffffffffffffffff166370a08231306040518263ffffffff1660e01b81526004016105f59190611691565b602060405180830381865afa158015610612573d6000803e3d6000fd5b505050506040513d601f19601f820116820180604052508101906106369190611833565b600460009054906101000a900473ffffffffffffffffffffffffffffffffffffffff1673ffffffffffffffffffffffffffffffffffffffff166370a08231306040518263ffffffff1660e01b81526004016106919190611691565b602060405180830381865afa1580156106ae573d6000803e3d6000fd5b505050506040513d601f19601f820116820180604052508101906106d29190611833565b6040516106e09291906118f7565b60405180910390a1505050565b600b5481565b600260009054906101000a900473ffffffffffffffffffffffffffffffffffffffff1681565b600080600360009054906101000a900473ffffffffffffffffffffffffffffffffffffffff1673ffffffffffffffffffffffffffffffffffffffff166370a08231306040518263ffffffff1660e01b81526004016107779190611691565b602060405180830381865afa158015610794573d6000803e3d6000fd5b505050506040513d601f19601f820116820180604052508101906107b89190611833565b90506000600460009054906101000a900473ffffffffffffffffffffffffffffffffffffffff1673ffffffffffffffffffffffffffffffffffffffff166370a08231306040518263ffffffff1660e01b81526004016108179190611691565b602060405180830381865afa158015610834573d6000803e3d6000fd5b505050506040513d601f19601f820116820180604052508101906108589190611833565b9050600854816108689190611920565b60075483610876919061188f565b6108809190611920565b9250505090565b60095481565b610895611326565b61089f60006113a4565b565b60055481565b60008060009054906101000a900473ffffffffffffffffffffffffffffffffffffffff16905090565b600080600360009054906101000a900473ffffffffffffffffffffffffffffffffffffffff1673ffffffffffffffffffffffffffffffffffffffff166370a08231306040518263ffffffff1660e01b815260040161092e9190611691565b602060405180830381865afa15801561094b573d6000803e3d6000fd5b505050506040513d601f19601f8201168201806040525081019061096f9190611833565b90506000600460009054906101000a900473ffffffffffffffffffffffffffffffffffffffff1673ffffffffffffffffffffffffffffffffffffffff166370a08231306040518263ffffffff1660e01b81526004016109ce9190611691565b602060405180830381865afa1580156109eb573d6000803e3d6000fd5b505050506040513d601f19601f82011682018060405250810190610a0f9190611833565b905060008483610a1f919061188f565b90506000600854610a3f60095460075485610a3a919061188f565b610d1d565b610a4991906118c3565b90508083610a5791906118c3565b945050505050919050565b60075481565b600c5481565b600160009054906101000a900473ffffffffffffffffffffffffffffffffffffffff1681565b600460009054906101000a900473ffffffffffffffffffffffffffffffffffffffff1681565b610ac261156a565b60006040518060800160405280600360009054906101000a900473ffffffffffffffffffffffffffffffffffffffff1673ffffffffffffffffffffffffffffffffffffffff168152602001600460009054906101000a900473ffffffffffffffffffffffffffffffffffffffff1673ffffffffffffffffffffffffffffffffffffffff168152602001600360009054906101000a900473ffffffffffffffffffffffffffffffffffffffff1673ffffffffffffffffffffffffffffffffffffffff166370a08231306040518263ffffffff1660e01b8152600401610ba69190611691565b602060405180830381865afa158015610bc3573d6000803e3d6000fd5b505050506040513d601f19601f82011682018060405250810190610be79190611833565b8152602001600460009054906101000a900473ffffffffffffffffffffffffffffffffffffffff1673ffffffffffffffffffffffffffffffffffffffff166370a08231306040518263ffffffff1660e01b8152600401610c479190611691565b602060405180830381865afa158015610c64573d6000803e3d6000fd5b505050506040513d601f19601f82011682018060405250810190610c889190611833565b81525090508091505090565b600a5481565b610ca2611326565b600073ffffffffffffffffffffffffffffffffffffffff168173ffffffffffffffffffffffffffffffffffffffff1603610d11576040517f08c379a0000000000000000000000000000000000000000000000000000000008152600401610d08906119e5565b60405180910390fd5b610d1a816113a4565b50565b60008183610d2b9190611a34565b905092915050565b6000808203610d455760009050610e27565b60006001610d5284611468565b901c6001901b90506001818481610d6c57610d6b611a05565b5b048201901c90506001818481610d8557610d84611a05565b5b048201901c90506001818481610d9e57610d9d611a05565b5b048201901c90506001818481610db757610db6611a05565b5b048201901c90506001818481610dd057610dcf611a05565b5b048201901c90506001818481610de957610de8611a05565b5b048201901c90506001818481610e0257610e01611a05565b5b048201901c9050610e2381828581610e1d57610e1c611a05565b5b04611549565b9150505b919050565b6000610e3783610395565b905081811015610e7c576040517f08c379a0000000000000000000000000000000000000000000000000000000008152600401610e7390611ab1565b60405180910390fd5b600460009054906101000a900473ffffffffffffffffffffffffffffffffffffffff1673ffffffffffffffffffffffffffffffffffffffff166323b872dd3330866040518463ffffffff1660e01b8152600401610edb93929190611ad1565b6020604051808303816000875af1158015610efa573d6000803e3d6000fd5b505050506040513d601f19601f82011682018060405250810190610f1e9190611b1d565b50600360009054906101000a900473ffffffffffffffffffffffffffffffffffffffff1673ffffffffffffffffffffffffffffffffffffffff1663a9059cbb33836040518363ffffffff1660e01b8152600401610f7c929190611b4a565b6020604051808303816000875af1158015610f9b573d6000803e3d6000fd5b505050506040513d601f19601f82011682018060405250810190610fbf9190611b1d565b503073ffffffffffffffffffffffffffffffffffffffff163373ffffffffffffffffffffffffffffffffffffffff167fd78ad95fa46c994b6551d0da85fc275fe613ce37657fb8d5e3d130840159d8226000868660006040516110259493929190611bb8565b60405180910390a3505050565b600061103d836108d0565b905081811015611082576040517f08c379a000000000000000000000000000000000000000000000000000000000815260040161107990611ab1565b60405180910390fd5b600360009054906101000a900473ffffffffffffffffffffffffffffffffffffffff1673ffffffffffffffffffffffffffffffffffffffff1663a9059cbb33836040518363ffffffff1660e01b81526004016110df929190611b4a565b6020604051808303816000875af11580156110fe573d6000803e3d6000fd5b505050506040513d601f19601f820116820180604052508101906111229190611b1d565b50600061113f82600c546111369190611920565b620f4240610d1d565b9050600460009054906101000a900473ffffffffffffffffffffffffffffffffffffffff1673ffffffffffffffffffffffffffffffffffffffff166323b872dd33600260009054906101000a900473ffffffffffffffffffffffffffffffffffffffff16846040518463ffffffff1660e01b81526004016111c293929190611ad1565b6020604051808303816000875af11580156111e1573d6000803e3d6000fd5b505050506040513d601f19601f820116820180604052508101906112059190611b1d565b50600460009054906101000a900473ffffffffffffffffffffffffffffffffffffffff1673ffffffffffffffffffffffffffffffffffffffff166323b872dd3330848661125291906118c3565b6040518463ffffffff1660e01b815260040161127093929190611ad1565b6020604051808303816000875af115801561128f573d6000803e3d6000fd5b505050506040513d601f19601f820116820180604052508101906112b39190611b1d565b503073ffffffffffffffffffffffffffffffffffffffff163373ffffffffffffffffffffffffffffffffffffffff167fd78ad95fa46c994b6551d0da85fc275fe613ce37657fb8d5e3d130840159d82286600080886040516113189493929190611bfd565b60405180910390a350505050565b61132e611562565b73ffffffffffffffffffffffffffffffffffffffff1661134c6108a7565b73ffffffffffffffffffffffffffffffffffffffff16146113a2576040517f08c379a000000000000000000000000000000000000000000000000000000000815260040161139990611c8e565b60405180910390fd5b565b60008060009054906101000a900473ffffffffffffffffffffffffffffffffffffffff169050816000806101000a81548173ffffffffffffffffffffffffffffffffffffffff021916908373ffffffffffffffffffffffffffffffffffffffff1602179055508173ffffffffffffffffffffffffffffffffffffffff168173ffffffffffffffffffffffffffffffffffffffff167f8be0079c531659141344cd1fd0a4f28419497f9722a3daafe3b4186f6b6457e060405160405180910390a35050565b600080600090506000608084901c111561148a57608083901c92506080810190505b6000604084901c11156114a557604083901c92506040810190505b6000602084901c11156114c057602083901c92506020810190505b6000601084901c11156114db57601083901c92506010810190505b6000600884901c11156114f657600883901c92506008810190505b6000600484901c111561151157600483901c92506004810190505b6000600284901c111561152c57600283901c92506002810190505b6000600184901c1115611540576001810190505b80915050919050565b6000818310611558578161155a565b825b905092915050565b600033905090565b6040518060800160405280600073ffffffffffffffffffffffffffffffffffffffff168152602001600073ffffffffffffffffffffffffffffffffffffffff16815260200160008152602001600081525090565b600080fd5b6000819050919050565b6115d6816115c3565b81146115e157600080fd5b50565b6000813590506115f3816115cd565b92915050565b60006020828403121561160f5761160e6115be565b5b600061161d848285016115e4565b91505092915050565b61162f816115c3565b82525050565b600060208201905061164a6000830184611626565b92915050565b600073ffffffffffffffffffffffffffffffffffffffff82169050919050565b600061167b82611650565b9050919050565b61168b81611670565b82525050565b60006020820190506116a66000830184611682565b92915050565b60008115159050919050565b6116c1816116ac565b81146116cc57600080fd5b50565b6000813590506116de816116b8565b92915050565b6000806000606084860312156116fd576116fc6115be565b5b600061170b868287016115e4565b935050602061171c868287016115e4565b925050604061172d868287016116cf565b9150509250925092565b61174081611670565b82525050565b61174f816115c3565b82525050565b60808201600082015161176b6000850182611737565b50602082015161177e6020850182611737565b5060408201516117916040850182611746565b5060608201516117a46060850182611746565b50505050565b60006080820190506117bf6000830184611755565b92915050565b6117ce81611670565b81146117d957600080fd5b50565b6000813590506117eb816117c5565b92915050565b600060208284031215611807576118066115be565b5b6000611815848285016117dc565b91505092915050565b60008151905061182d816115cd565b92915050565b600060208284031215611849576118486115be565b5b60006118578482850161181e565b91505092915050565b7f4e487b7100000000000000000000000000000000000000000000000000000000600052601160045260246000fd5b600061189a826115c3565b91506118a5836115c3565b92508282019050808211156118bd576118bc611860565b5b92915050565b60006118ce826115c3565b91506118d9836115c3565b92508282039050818111156118f1576118f0611860565b5b92915050565b600060408201905061190c6000830185611626565b6119196020830184611626565b9392505050565b600061192b826115c3565b9150611936836115c3565b9250828202611944816115c3565b9150828204841483151761195b5761195a611860565b5b5092915050565b600082825260208201905092915050565b7f4f776e61626c653a206e6577206f776e657220697320746865207a65726f206160008201527f6464726573730000000000000000000000000000000000000000000000000000602082015250565b60006119cf602683611962565b91506119da82611973565b604082019050919050565b600060208201905081810360008301526119fe816119c2565b9050919050565b7f4e487b7100000000000000000000000000000000000000000000000000000000600052601260045260246000fd5b6000611a3f826115c3565b9150611a4a836115c3565b925082611a5a57611a59611a05565b5b828204905092915050565b7f496e73756666696369656e74206f757470757420616d6f756e74000000000000600082015250565b6000611a9b601a83611962565b9150611aa682611a65565b602082019050919050565b60006020820190508181036000830152611aca81611a8e565b9050919050565b6000606082019050611ae66000830186611682565b611af36020830185611682565b611b006040830184611626565b949350505050565b600081519050611b17816116b8565b92915050565b600060208284031215611b3357611b326115be565b5b6000611b4184828501611b08565b91505092915050565b6000604082019050611b5f6000830185611682565b611b6c6020830184611626565b9392505050565b6000819050919050565b6000819050919050565b6000611ba2611b9d611b9884611b73565b611b7d565b6115c3565b9050919050565b611bb281611b87565b82525050565b6000608082019050611bcd6000830187611ba9565b611bda6020830186611626565b611be76040830185611626565b611bf46060830184611ba9565b95945050505050565b6000608082019050611c126000830187611626565b611c1f6020830186611ba9565b611c2c6040830185611ba9565b611c396060830184611626565b95945050505050565b7f4f776e61626c653a2063616c6c6572206973206e6f7420746865206f776e6572600082015250565b6000611c78602083611962565b9150611c8382611c42565b602082019050919050565b60006020820190508181036000830152611ca781611c6b565b905091905056fea264697066735822122087ea0c119a017fd67b4457a9592a6a61f6967ffac84e58cb37311dd27271a01d64736f6c63430008120033",
			"opcodes": "PUSH1 0x80 PUSH1 0x40 MSTORE CALLVALUE DUP1 ISZERO PUSH3 0x11 JUMPI PUSH1 0x0 DUP1 REVERT JUMPDEST POP PUSH1 0x40 MLOAD PUSH3 0x2A3A CODESIZE SUB DUP1 PUSH3 0x2A3A DUP4 CODECOPY DUP2 DUP2 ADD PUSH1 0x40 MSTORE DUP2 ADD SWAP1 PUSH3 0x37 SWAP2 SWAP1 PUSH3 0x7E0 JUMP JUMPDEST PUSH3 0x57 PUSH3 0x4B PUSH3 0x2B0 PUSH1 0x20 SHL PUSH1 0x20 SHR JUMP JUMPDEST PUSH3 0x2B8 PUSH1 0x20 SHL PUSH1 0x20 SHR JUMP JUMPDEST DUP9 PUSH1 0x1 PUSH1 0x0 PUSH2 0x100 EXP DUP2 SLOAD DUP2 PUSH20 0xFFFFFFFFFFFFFFFFFFFFFFFFFFFFFFFFFFFFFFFF MUL NOT AND SWAP1 DUP4 PUSH20 0xFFFFFFFFFFFFFFFFFFFFFFFFFFFFFFFFFFFFFFFF AND MUL OR SWAP1 SSTORE POP DUP8 PUSH1 0x2 PUSH1 0x0 PUSH2 0x100 EXP DUP2 SLOAD DUP2 PUSH20 0xFFFFFFFFFFFFFFFFFFFFFFFFFFFFFFFFFFFFFFFF MUL NOT AND SWAP1 DUP4 PUSH20 0xFFFFFFFFFFFFFFFFFFFFFFFFFFFFFFFFFFFFFFFF AND MUL OR SWAP1 SSTORE POP DUP6 PUSH20 0xFFFFFFFFFFFFFFFFFFFFFFFFFFFFFFFFFFFFFFFF AND DUP8 PUSH20 0xFFFFFFFFFFFFFFFFFFFFFFFFFFFFFFFFFFFFFFFF AND SUB PUSH3 0x14A JUMPI PUSH1 0x40 MLOAD PUSH32 0x8C379A000000000000000000000000000000000000000000000000000000000 DUP2 MSTORE PUSH1 0x4 ADD PUSH3 0x141 SWAP1 PUSH3 0x920 JUMP JUMPDEST PUSH1 0x40 MLOAD DUP1 SWAP2 SUB SWAP1 REVERT JUMPDEST DUP7 PUSH1 0x3 PUSH1 0x0 PUSH2 0x100 EXP DUP2 SLOAD DUP2 PUSH20 0xFFFFFFFFFFFFFFFFFFFFFFFFFFFFFFFFFFFFFFFF MUL NOT AND SWAP1 DUP4 PUSH20 0xFFFFFFFFFFFFFFFFFFFFFFFFFFFFFFFFFFFFFFFF AND MUL OR SWAP1 SSTORE POP DUP6 PUSH1 0x4 PUSH1 0x0 PUSH2 0x100 EXP DUP2 SLOAD DUP2 PUSH20 0xFFFFFFFFFFFFFFFFFFFFFFFFFFFFFFFFFFFFFFFF MUL NOT AND SWAP1 DUP4 PUSH20 0xFFFFFFFFFFFFFFFFFFFFFFFFFFFFFFFFFFFFFFFF AND MUL OR SWAP1 SSTORE POP DUP5 PUSH1 0x5 DUP2 SWAP1 SSTORE POP DUP4 PUSH1 0x6 DUP2 SWAP1 SSTORE POP DUP3 DUP3 LT ISZERO PUSH3 0x220 JUMPI PUSH1 0x40 MLOAD PUSH32 0x8C379A000000000000000000000000000000000000000000000000000000000 DUP2 MSTORE PUSH1 0x4 ADD PUSH3 0x217 SWAP1 PUSH3 0x9B8 JUMP JUMPDEST PUSH1 0x40 MLOAD DUP1 SWAP2 SUB SWAP1 REVERT JUMPDEST DUP3 PUSH1 0xA DUP2 SWAP1 SSTORE POP DUP2 PUSH1 0xB DUP2 SWAP1 SSTORE POP DUP1 PUSH1 0xC DUP2 SWAP1 SSTORE POP PUSH3 0x248 DUP4 DUP4 DUP8 PUSH3 0x37C PUSH1 0x20 SHL PUSH1 0x20 SHR JUMP JUMPDEST PUSH1 0x7 DUP2 SWAP1 SSTORE POP PUSH3 0x265 DUP8 DUP5 PUSH1 0x7 SLOAD DUP9 DUP9 PUSH3 0x414 PUSH1 0x20 SHL PUSH1 0x20 SHR JUMP JUMPDEST PUSH1 0x8 DUP2 SWAP1 SSTORE POP PUSH1 0x8 SLOAD PUSH1 0x6 SLOAD PUSH3 0x27D SWAP2 SWAP1 PUSH3 0xA09 JUMP JUMPDEST PUSH1 0x7 SLOAD PUSH1 0x5 SLOAD PUSH3 0x28F SWAP2 SWAP1 PUSH3 0xA09 JUMP JUMPDEST PUSH3 0x29B SWAP2 SWAP1 PUSH3 0xA44 JUMP JUMPDEST PUSH1 0x9 DUP2 SWAP1 SSTORE POP POP POP POP POP POP POP POP POP POP PUSH3 0xD46 JUMP JUMPDEST PUSH1 0x0 CALLER SWAP1 POP SWAP1 JUMP JUMPDEST PUSH1 0x0 DUP1 PUSH1 0x0 SWAP1 SLOAD SWAP1 PUSH2 0x100 EXP SWAP1 DIV PUSH20 0xFFFFFFFFFFFFFFFFFFFFFFFFFFFFFFFFFFFFFFFF AND SWAP1 POP DUP2 PUSH1 0x0 DUP1 PUSH2 0x100 EXP DUP2 SLOAD DUP2 PUSH20 0xFFFFFFFFFFFFFFFFFFFFFFFFFFFFFFFFFFFFFFFF MUL NOT AND SWAP1 DUP4 PUSH20 0xFFFFFFFFFFFFFFFFFFFFFFFFFFFFFFFFFFFFFFFF AND MUL OR SWAP1 SSTORE POP DUP2 PUSH20 0xFFFFFFFFFFFFFFFFFFFFFFFFFFFFFFFFFFFFFFFF AND DUP2 PUSH20 0xFFFFFFFFFFFFFFFFFFFFFFFFFFFFFFFFFFFFFFFF AND PUSH32 0x8BE0079C531659141344CD1FD0A4F28419497F9722A3DAAFE3B4186F6B6457E0 PUSH1 0x40 MLOAD PUSH1 0x40 MLOAD DUP1 SWAP2 SUB SWAP1 LOG3 POP POP JUMP JUMPDEST PUSH1 0x0 DUP1 PUSH3 0x3AB PUSH8 0x8AC7230489E80000 DUP7 PUSH3 0x399 SWAP2 SWAP1 PUSH3 0xA44 JUMP JUMPDEST DUP6 PUSH3 0x4FC PUSH1 0x20 SHL PUSH3 0xD1D OR PUSH1 0x20 SHR JUMP JUMPDEST SWAP1 POP PUSH1 0x0 PUSH3 0x3C5 DUP3 PUSH3 0x514 PUSH1 0x20 SHL PUSH3 0xD33 OR PUSH1 0x20 SHR JUMP JUMPDEST SWAP1 POP PUSH1 0x0 DUP5 DUP3 PUSH3 0x3D7 SWAP2 SWAP1 PUSH3 0xA44 JUMP JUMPDEST SWAP1 POP PUSH1 0x0 DUP3 PUSH5 0x2540BE400 PUSH3 0x3EE SWAP2 SWAP1 PUSH3 0xA8F JUMP JUMPDEST SWAP1 POP PUSH3 0x407 DUP3 DUP3 PUSH3 0x4FC PUSH1 0x20 SHL PUSH3 0xD1D OR PUSH1 0x20 SHR JUMP JUMPDEST SWAP5 POP POP POP POP POP SWAP4 SWAP3 POP POP POP JUMP JUMPDEST PUSH1 0x0 DUP1 DUP7 PUSH20 0xFFFFFFFFFFFFFFFFFFFFFFFFFFFFFFFFFFFFFFFF AND PUSH4 0x313CE567 PUSH1 0x40 MLOAD DUP2 PUSH4 0xFFFFFFFF AND PUSH1 0xE0 SHL DUP2 MSTORE PUSH1 0x4 ADD PUSH1 0x20 PUSH1 0x40 MLOAD DUP1 DUP4 SUB DUP2 DUP7 GAS STATICCALL ISZERO DUP1 ISZERO PUSH3 0x463 JUMPI RETURNDATASIZE PUSH1 0x0 DUP1 RETURNDATACOPY RETURNDATASIZE PUSH1 0x0 REVERT JUMPDEST POP POP POP POP PUSH1 0x40 MLOAD RETURNDATASIZE PUSH1 0x1F NOT PUSH1 0x1F DUP3 ADD AND DUP3 ADD DUP1 PUSH1 0x40 MSTORE POP DUP2 ADD SWAP1 PUSH3 0x489 SWAP2 SWAP1 PUSH3 0xB08 JUMP JUMPDEST SWAP1 POP PUSH1 0x0 DUP2 PUSH1 0xA PUSH3 0x49C SWAP2 SWAP1 PUSH3 0xC8E JUMP JUMPDEST SWAP1 POP PUSH1 0x0 DUP5 DUP3 PUSH3 0x4AE SWAP2 SWAP1 PUSH3 0xA44 JUMP JUMPDEST DUP8 DUP8 PUSH3 0x4BC SWAP2 SWAP1 PUSH3 0xA09 JUMP JUMPDEST DUP10 PUSH3 0x4C9 SWAP2 SWAP1 PUSH3 0xA44 JUMP JUMPDEST PUSH3 0x4D5 SWAP2 SWAP1 PUSH3 0xA8F JUMP JUMPDEST SWAP1 POP PUSH3 0x4EE DUP2 DUP4 PUSH3 0x4FC PUSH1 0x20 SHL PUSH3 0xD1D OR PUSH1 0x20 SHR JUMP JUMPDEST SWAP4 POP POP POP POP SWAP6 SWAP5 POP POP POP POP POP JUMP JUMPDEST PUSH1 0x0 DUP2 DUP4 PUSH3 0x50C SWAP2 SWAP1 PUSH3 0xD0E JUMP JUMPDEST SWAP1 POP SWAP3 SWAP2 POP POP JUMP JUMPDEST PUSH1 0x0 DUP1 DUP3 SUB PUSH3 0x528 JUMPI PUSH1 0x0 SWAP1 POP PUSH3 0x632 JUMP JUMPDEST PUSH1 0x0 PUSH1 0x1 PUSH3 0x53D DUP5 PUSH3 0x637 PUSH1 0x20 SHL PUSH1 0x20 SHR JUMP JUMPDEST SWAP1 SHR PUSH1 0x1 SWAP1 SHL SWAP1 POP PUSH1 0x1 DUP2 DUP5 DUP2 PUSH3 0x55A JUMPI PUSH3 0x559 PUSH3 0xCDF JUMP JUMPDEST JUMPDEST DIV DUP3 ADD SWAP1 SHR SWAP1 POP PUSH1 0x1 DUP2 DUP5 DUP2 PUSH3 0x576 JUMPI PUSH3 0x575 PUSH3 0xCDF JUMP JUMPDEST JUMPDEST DIV DUP3 ADD SWAP1 SHR SWAP1 POP PUSH1 0x1 DUP2 DUP5 DUP2 PUSH3 0x592 JUMPI PUSH3 0x591 PUSH3 0xCDF JUMP JUMPDEST JUMPDEST DIV DUP3 ADD SWAP1 SHR SWAP1 POP PUSH1 0x1 DUP2 DUP5 DUP2 PUSH3 0x5AE JUMPI PUSH3 0x5AD PUSH3 0xCDF JUMP JUMPDEST JUMPDEST DIV DUP3 ADD SWAP1 SHR SWAP1 POP PUSH1 0x1 DUP2 DUP5 DUP2 PUSH3 0x5CA JUMPI PUSH3 0x5C9 PUSH3 0xCDF JUMP JUMPDEST JUMPDEST DIV DUP3 ADD SWAP1 SHR SWAP1 POP PUSH1 0x1 DUP2 DUP5 DUP2 PUSH3 0x5E6 JUMPI PUSH3 0x5E5 PUSH3 0xCDF JUMP JUMPDEST JUMPDEST DIV DUP3 ADD SWAP1 SHR SWAP1 POP PUSH1 0x1 DUP2 DUP5 DUP2 PUSH3 0x602 JUMPI PUSH3 0x601 PUSH3 0xCDF JUMP JUMPDEST JUMPDEST DIV DUP3 ADD SWAP1 SHR SWAP1 POP PUSH3 0x62E DUP2 DUP3 DUP6 DUP2 PUSH3 0x621 JUMPI PUSH3 0x620 PUSH3 0xCDF JUMP JUMPDEST JUMPDEST DIV PUSH3 0x720 PUSH1 0x20 SHL PUSH1 0x20 SHR JUMP JUMPDEST SWAP2 POP POP JUMPDEST SWAP2 SWAP1 POP JUMP JUMPDEST PUSH1 0x0 DUP1 PUSH1 0x0 SWAP1 POP PUSH1 0x0 PUSH1 0x80 DUP5 SWAP1 SHR GT ISZERO PUSH3 0x65A JUMPI PUSH1 0x80 DUP4 SWAP1 SHR SWAP3 POP PUSH1 0x80 DUP2 ADD SWAP1 POP JUMPDEST PUSH1 0x0 PUSH1 0x40 DUP5 SWAP1 SHR GT ISZERO PUSH3 0x676 JUMPI PUSH1 0x40 DUP4 SWAP1 SHR SWAP3 POP PUSH1 0x40 DUP2 ADD SWAP1 POP JUMPDEST PUSH1 0x0 PUSH1 0x20 DUP5 SWAP1 SHR GT ISZERO PUSH3 0x692 JUMPI PUSH1 0x20 DUP4 SWAP1 SHR SWAP3 POP PUSH1 0x20 DUP2 ADD SWAP1 POP JUMPDEST PUSH1 0x0 PUSH1 0x10 DUP5 SWAP1 SHR GT ISZERO PUSH3 0x6AE JUMPI PUSH1 0x10 DUP4 SWAP1 SHR SWAP3 POP PUSH1 0x10 DUP2 ADD SWAP1 POP JUMPDEST PUSH1 0x0 PUSH1 0x8 DUP5 SWAP1 SHR GT ISZERO PUSH3 0x6CA JUMPI PUSH1 0x8 DUP4 SWAP1 SHR SWAP3 POP PUSH1 0x8 DUP2 ADD SWAP1 POP JUMPDEST PUSH1 0x0 PUSH1 0x4 DUP5 SWAP1 SHR GT ISZERO PUSH3 0x6E6 JUMPI PUSH1 0x4 DUP4 SWAP1 SHR SWAP3 POP PUSH1 0x4 DUP2 ADD SWAP1 POP JUMPDEST PUSH1 0x0 PUSH1 0x2 DUP5 SWAP1 SHR GT ISZERO PUSH3 0x702 JUMPI PUSH1 0x2 DUP4 SWAP1 SHR SWAP3 POP PUSH1 0x2 DUP2 ADD SWAP1 POP JUMPDEST PUSH1 0x0 PUSH1 0x1 DUP5 SWAP1 SHR GT ISZERO PUSH3 0x717 JUMPI PUSH1 0x1 DUP2 ADD SWAP1 POP JUMPDEST DUP1 SWAP2 POP POP SWAP2 SWAP1 POP JUMP JUMPDEST PUSH1 0x0 DUP2 DUP4 LT PUSH3 0x731 JUMPI DUP2 PUSH3 0x733 JUMP JUMPDEST DUP3 JUMPDEST SWAP1 POP SWAP3 SWAP2 POP POP JUMP JUMPDEST PUSH1 0x0 DUP1 REVERT JUMPDEST PUSH1 0x0 PUSH20 0xFFFFFFFFFFFFFFFFFFFFFFFFFFFFFFFFFFFFFFFF DUP3 AND SWAP1 POP SWAP2 SWAP1 POP JUMP JUMPDEST PUSH1 0x0 PUSH3 0x76D DUP3 PUSH3 0x740 JUMP JUMPDEST SWAP1 POP SWAP2 SWAP1 POP JUMP JUMPDEST PUSH3 0x77F DUP2 PUSH3 0x760 JUMP JUMPDEST DUP2 EQ PUSH3 0x78B JUMPI PUSH1 0x0 DUP1 REVERT JUMPDEST POP JUMP JUMPDEST PUSH1 0x0 DUP2 MLOAD SWAP1 POP PUSH3 0x79F DUP2 PUSH3 0x774 JUMP JUMPDEST SWAP3 SWAP2 POP POP JUMP JUMPDEST PUSH1 0x0 DUP2 SWAP1 POP SWAP2 SWAP1 POP JUMP JUMPDEST PUSH3 0x7BA DUP2 PUSH3 0x7A5 JUMP JUMPDEST DUP2 EQ PUSH3 0x7C6 JUMPI PUSH1 0x0 DUP1 REVERT JUMPDEST POP JUMP JUMPDEST PUSH1 0x0 DUP2 MLOAD SWAP1 POP PUSH3 0x7DA DUP2 PUSH3 0x7AF JUMP JUMPDEST SWAP3 SWAP2 POP POP JUMP JUMPDEST PUSH1 0x0 DUP1 PUSH1 0x0 DUP1 PUSH1 0x0 DUP1 PUSH1 0x0 DUP1 PUSH1 0x0 PUSH2 0x120 DUP11 DUP13 SUB SLT ISZERO PUSH3 0x806 JUMPI PUSH3 0x805 PUSH3 0x73B JUMP JUMPDEST JUMPDEST PUSH1 0x0 PUSH3 0x816 DUP13 DUP3 DUP14 ADD PUSH3 0x78E JUMP JUMPDEST SWAP10 POP POP PUSH1 0x20 PUSH3 0x829 DUP13 DUP3 DUP14 ADD PUSH3 0x78E JUMP JUMPDEST SWAP9 POP POP PUSH1 0x40 PUSH3 0x83C DUP13 DUP3 DUP14 ADD PUSH3 0x78E JUMP JUMPDEST SWAP8 POP POP PUSH1 0x60 PUSH3 0x84F DUP13 DUP3 DUP14 ADD PUSH3 0x78E JUMP JUMPDEST SWAP7 POP POP PUSH1 0x80 PUSH3 0x862 DUP13 DUP3 DUP14 ADD PUSH3 0x7C9 JUMP JUMPDEST SWAP6 POP POP PUSH1 0xA0 PUSH3 0x875 DUP13 DUP3 DUP14 ADD PUSH3 0x7C9 JUMP JUMPDEST SWAP5 POP POP PUSH1 0xC0 PUSH3 0x888 DUP13 DUP3 DUP14 ADD PUSH3 0x7C9 JUMP JUMPDEST SWAP4 POP POP PUSH1 0xE0 PUSH3 0x89B DUP13 DUP3 DUP14 ADD PUSH3 0x7C9 JUMP JUMPDEST SWAP3 POP POP PUSH2 0x100 PUSH3 0x8AF DUP13 DUP3 DUP14 ADD PUSH3 0x7C9 JUMP JUMPDEST SWAP2 POP POP SWAP3 SWAP6 SWAP9 POP SWAP3 SWAP6 SWAP9 POP SWAP3 SWAP6 SWAP9 JUMP JUMPDEST PUSH1 0x0 DUP3 DUP3 MSTORE PUSH1 0x20 DUP3 ADD SWAP1 POP SWAP3 SWAP2 POP POP JUMP JUMPDEST PUSH32 0x426F746820746F6B656E732063616E6E6F74206265207468652073616D650000 PUSH1 0x0 DUP3 ADD MSTORE POP JUMP JUMPDEST PUSH1 0x0 PUSH3 0x908 PUSH1 0x1E DUP4 PUSH3 0x8BF JUMP JUMPDEST SWAP2 POP PUSH3 0x915 DUP3 PUSH3 0x8D0 JUMP JUMPDEST PUSH1 0x20 DUP3 ADD SWAP1 POP SWAP2 SWAP1 POP JUMP JUMPDEST PUSH1 0x0 PUSH1 0x20 DUP3 ADD SWAP1 POP DUP2 DUP2 SUB PUSH1 0x0 DUP4 ADD MSTORE PUSH3 0x93B DUP2 PUSH3 0x8F9 JUMP JUMPDEST SWAP1 POP SWAP2 SWAP1 POP JUMP JUMPDEST PUSH32 0x4D6178696D756D207072696365206D7573742062652067726561746572207468 PUSH1 0x0 DUP3 ADD MSTORE PUSH32 0x616E206F7220657175616C20746F207468652062617365207072696365000000 PUSH1 0x20 DUP3 ADD MSTORE POP JUMP JUMPDEST PUSH1 0x0 PUSH3 0x9A0 PUSH1 0x3D DUP4 PUSH3 0x8BF JUMP JUMPDEST SWAP2 POP PUSH3 0x9AD DUP3 PUSH3 0x942 JUMP JUMPDEST PUSH1 0x40 DUP3 ADD SWAP1 POP SWAP2 SWAP1 POP JUMP JUMPDEST PUSH1 0x0 PUSH1 0x20 DUP3 ADD SWAP1 POP DUP2 DUP2 SUB PUSH1 0x0 DUP4 ADD MSTORE PUSH3 0x9D3 DUP2 PUSH3 0x991 JUMP JUMPDEST SWAP1 POP SWAP2 SWAP1 POP JUMP JUMPDEST PUSH32 0x4E487B7100000000000000000000000000000000000000000000000000000000 PUSH1 0x0 MSTORE PUSH1 0x11 PUSH1 0x4 MSTORE PUSH1 0x24 PUSH1 0x0 REVERT JUMPDEST PUSH1 0x0 PUSH3 0xA16 DUP3 PUSH3 0x7A5 JUMP JUMPDEST SWAP2 POP PUSH3 0xA23 DUP4 PUSH3 0x7A5 JUMP JUMPDEST SWAP3 POP DUP3 DUP3 ADD SWAP1 POP DUP1 DUP3 GT ISZERO PUSH3 0xA3E JUMPI PUSH3 0xA3D PUSH3 0x9DA JUMP JUMPDEST JUMPDEST SWAP3 SWAP2 POP POP JUMP JUMPDEST PUSH1 0x0 PUSH3 0xA51 DUP3 PUSH3 0x7A5 JUMP JUMPDEST SWAP2 POP PUSH3 0xA5E DUP4 PUSH3 0x7A5 JUMP JUMPDEST SWAP3 POP DUP3 DUP3 MUL PUSH3 0xA6E DUP2 PUSH3 0x7A5 JUMP JUMPDEST SWAP2 POP DUP3 DUP3 DIV DUP5 EQ DUP4 ISZERO OR PUSH3 0xA88 JUMPI PUSH3 0xA87 PUSH3 0x9DA JUMP JUMPDEST JUMPDEST POP SWAP3 SWAP2 POP POP JUMP JUMPDEST PUSH1 0x0 PUSH3 0xA9C DUP3 PUSH3 0x7A5 JUMP JUMPDEST SWAP2 POP PUSH3 0xAA9 DUP4 PUSH3 0x7A5 JUMP JUMPDEST SWAP3 POP DUP3 DUP3 SUB SWAP1 POP DUP2 DUP2 GT ISZERO PUSH3 0xAC4 JUMPI PUSH3 0xAC3 PUSH3 0x9DA JUMP JUMPDEST JUMPDEST SWAP3 SWAP2 POP POP JUMP JUMPDEST PUSH1 0x0 PUSH1 0xFF DUP3 AND SWAP1 POP SWAP2 SWAP1 POP JUMP JUMPDEST PUSH3 0xAE2 DUP2 PUSH3 0xACA JUMP JUMPDEST DUP2 EQ PUSH3 0xAEE JUMPI PUSH1 0x0 DUP1 REVERT JUMPDEST POP JUMP JUMPDEST PUSH1 0x0 DUP2 MLOAD SWAP1 POP PUSH3 0xB02 DUP2 PUSH3 0xAD7 JUMP JUMPDEST SWAP3 SWAP2 POP POP JUMP JUMPDEST PUSH1 0x0 PUSH1 0x20 DUP3 DUP5 SUB SLT ISZERO PUSH3 0xB21 JUMPI PUSH3 0xB20 PUSH3 0x73B JUMP JUMPDEST JUMPDEST PUSH1 0x0 PUSH3 0xB31 DUP5 DUP3 DUP6 ADD PUSH3 0xAF1 JUMP JUMPDEST SWAP2 POP POP SWAP3 SWAP2 POP POP JUMP JUMPDEST PUSH1 0x0 DUP2 PUSH1 0x1 SHR SWAP1 POP SWAP2 SWAP1 POP JUMP JUMPDEST PUSH1 0x0 DUP1 DUP3 SWAP2 POP DUP4 SWAP1 POP JUMPDEST PUSH1 0x1 DUP6 GT ISZERO PUSH3 0xB99 JUMPI DUP1 DUP7 DIV DUP2 GT ISZERO PUSH3 0xB71 JUMPI PUSH3 0xB70 PUSH3 0x9DA JUMP JUMPDEST JUMPDEST PUSH1 0x1 DUP6 AND ISZERO PUSH3 0xB81 JUMPI DUP1 DUP3 MUL SWAP2 POP JUMPDEST DUP1 DUP2 MUL SWAP1 POP PUSH3 0xB91 DUP6 PUSH3 0xB3A JUMP JUMPDEST SWAP5 POP PUSH3 0xB51 JUMP JUMPDEST SWAP5 POP SWAP5 SWAP3 POP POP POP JUMP JUMPDEST PUSH1 0x0 DUP3 PUSH3 0xBB4 JUMPI PUSH1 0x1 SWAP1 POP PUSH3 0xC87 JUMP JUMPDEST DUP2 PUSH3 0xBC4 JUMPI PUSH1 0x0 SWAP1 POP PUSH3 0xC87 JUMP JUMPDEST DUP2 PUSH1 0x1 DUP2 EQ PUSH3 0xBDD JUMPI PUSH1 0x2 DUP2 EQ PUSH3 0xBE8 JUMPI PUSH3 0xC1E JUMP JUMPDEST PUSH1 0x1 SWAP2 POP POP PUSH3 0xC87 JUMP JUMPDEST PUSH1 0xFF DUP5 GT ISZERO PUSH3 0xBFD JUMPI PUSH3 0xBFC PUSH3 0x9DA JUMP JUMPDEST JUMPDEST DUP4 PUSH1 0x2 EXP SWAP2 POP DUP5 DUP3 GT ISZERO PUSH3 0xC17 JUMPI PUSH3 0xC16 PUSH3 0x9DA JUMP JUMPDEST JUMPDEST POP PUSH3 0xC87 JUMP JUMPDEST POP PUSH1 0x20 DUP4 LT PUSH2 0x133 DUP4 LT AND PUSH1 0x4E DUP5 LT PUSH1 0xB DUP5 LT AND OR ISZERO PUSH3 0xC58 JUMPI DUP3 DUP3 EXP SWAP1 POP DUP4 DUP2 GT ISZERO PUSH3 0xC52 JUMPI PUSH3 0xC51 PUSH3 0x9DA JUMP JUMPDEST JUMPDEST PUSH3 0xC87 JUMP JUMPDEST PUSH3 0xC67 DUP5 DUP5 DUP5 PUSH1 0x1 PUSH3 0xB47 JUMP JUMPDEST SWAP3 POP SWAP1 POP DUP2 DUP5 DIV DUP2 GT ISZERO PUSH3 0xC81 JUMPI PUSH3 0xC80 PUSH3 0x9DA JUMP JUMPDEST JUMPDEST DUP2 DUP2 MUL SWAP1 POP JUMPDEST SWAP4 SWAP3 POP POP POP JUMP JUMPDEST PUSH1 0x0 PUSH3 0xC9B DUP3 PUSH3 0x7A5 JUMP JUMPDEST SWAP2 POP PUSH3 0xCA8 DUP4 PUSH3 0xACA JUMP JUMPDEST SWAP3 POP PUSH3 0xCD7 PUSH32 0xFFFFFFFFFFFFFFFFFFFFFFFFFFFFFFFFFFFFFFFFFFFFFFFFFFFFFFFFFFFFFFFF DUP5 DUP5 PUSH3 0xBA2 JUMP JUMPDEST SWAP1 POP SWAP3 SWAP2 POP POP JUMP JUMPDEST PUSH32 0x4E487B7100000000000000000000000000000000000000000000000000000000 PUSH1 0x0 MSTORE PUSH1 0x12 PUSH1 0x4 MSTORE PUSH1 0x24 PUSH1 0x0 REVERT JUMPDEST PUSH1 0x0 PUSH3 0xD1B DUP3 PUSH3 0x7A5 JUMP JUMPDEST SWAP2 POP PUSH3 0xD28 DUP4 PUSH3 0x7A5 JUMP JUMPDEST SWAP3 POP DUP3 PUSH3 0xD3B JUMPI PUSH3 0xD3A PUSH3 0xCDF JUMP JUMPDEST JUMPDEST DUP3 DUP3 DIV SWAP1 POP SWAP3 SWAP2 POP POP JUMP JUMPDEST PUSH2 0x1CE4 DUP1 PUSH3 0xD56 PUSH1 0x0 CODECOPY PUSH1 0x0 RETURN INVALID PUSH1 0x80 PUSH1 0x40 MSTORE CALLVALUE DUP1 ISZERO PUSH2 0x10 JUMPI PUSH1 0x0 DUP1 REVERT JUMPDEST POP PUSH1 0x4 CALLDATASIZE LT PUSH2 0x12C JUMPI PUSH1 0x0 CALLDATALOAD PUSH1 0xE0 SHR DUP1 PUSH4 0x7C07A380 GT PUSH2 0xAD JUMPI DUP1 PUSH4 0xC45A0155 GT PUSH2 0x71 JUMPI DUP1 PUSH4 0xC45A0155 EQ PUSH2 0x301 JUMPI DUP1 PUSH4 0xD21220A7 EQ PUSH2 0x31F JUMPI DUP1 PUSH4 0xEC1893B4 EQ PUSH2 0x33D JUMPI DUP1 PUSH4 0xEF3501B9 EQ PUSH2 0x35B JUMPI DUP1 PUSH4 0xF2FDE38B EQ PUSH2 0x379 JUMPI PUSH2 0x12C JUMP JUMPDEST DUP1 PUSH4 0x7C07A380 EQ PUSH2 0x259 JUMPI DUP1 PUSH4 0x8DA5CB5B EQ PUSH2 0x277 JUMPI DUP1 PUSH4 0x9F8E55D6 EQ PUSH2 0x295 JUMPI DUP1 PUSH4 0xAFF56C14 EQ PUSH2 0x2C5 JUMPI DUP1 PUSH4 0xB0E21E8A EQ PUSH2 0x2E3 JUMPI PUSH2 0x12C JUMP JUMPDEST DUP1 PUSH4 0x364ABC3D GT PUSH2 0xF4 JUMPI DUP1 PUSH4 0x364ABC3D EQ PUSH2 0x1D7 JUMPI DUP1 PUSH4 0x4273601C EQ PUSH2 0x1F5 JUMPI DUP1 PUSH4 0x433065D0 EQ PUSH2 0x213 JUMPI DUP1 PUSH4 0x5A656C24 EQ PUSH2 0x231 JUMPI DUP1 PUSH4 0x715018A6 EQ PUSH2 0x24F JUMPI PUSH2 0x12C JUMP JUMPDEST DUP1 PUSH4 0x4786AB4 EQ PUSH2 0x131 JUMPI DUP1 PUSH4 0xDFE1681 EQ PUSH2 0x161 JUMPI DUP1 PUSH4 0x13724B70 EQ PUSH2 0x17F JUMPI DUP1 PUSH4 0x1CF2128C EQ PUSH2 0x19D JUMPI DUP1 PUSH4 0x2BEC60FE EQ PUSH2 0x1BB JUMPI JUMPDEST PUSH1 0x0 DUP1 REVERT JUMPDEST PUSH2 0x14B PUSH1 0x4 DUP1 CALLDATASIZE SUB DUP2 ADD SWAP1 PUSH2 0x146 SWAP2 SWAP1 PUSH2 0x15F9 JUMP JUMPDEST PUSH2 0x395 JUMP JUMPDEST PUSH1 0x40 MLOAD PUSH2 0x158 SWAP2 SWAP1 PUSH2 0x1635 JUMP JUMPDEST PUSH1 0x40 MLOAD DUP1 SWAP2 SUB SWAP1 RETURN JUMPDEST PUSH2 0x169 PUSH2 0x527 JUMP JUMPDEST PUSH1 0x40 MLOAD PUSH2 0x176 SWAP2 SWAP1 PUSH2 0x1691 JUMP JUMPDEST PUSH1 0x40 MLOAD DUP1 SWAP2 SUB SWAP1 RETURN JUMPDEST PUSH2 0x187 PUSH2 0x54D JUMP JUMPDEST PUSH1 0x40 MLOAD PUSH2 0x194 SWAP2 SWAP1 PUSH2 0x1635 JUMP JUMPDEST PUSH1 0x40 MLOAD DUP1 SWAP2 SUB SWAP1 RETURN JUMPDEST PUSH2 0x1A5 PUSH2 0x553 JUMP JUMPDEST PUSH1 0x40 MLOAD PUSH2 0x1B2 SWAP2 SWAP1 PUSH2 0x1635 JUMP JUMPDEST PUSH1 0x40 MLOAD DUP1 SWAP2 SUB SWAP1 RETURN JUMPDEST PUSH2 0x1D5 PUSH1 0x4 DUP1 CALLDATASIZE SUB DUP2 ADD SWAP1 PUSH2 0x1D0 SWAP2 SWAP1 PUSH2 0x16E4 JUMP JUMPDEST PUSH2 0x559 JUMP JUMPDEST STOP JUMPDEST PUSH2 0x1DF PUSH2 0x6ED JUMP JUMPDEST PUSH1 0x40 MLOAD PUSH2 0x1EC SWAP2 SWAP1 PUSH2 0x1635 JUMP JUMPDEST PUSH1 0x40 MLOAD DUP1 SWAP2 SUB SWAP1 RETURN JUMPDEST PUSH2 0x1FD PUSH2 0x6F3 JUMP JUMPDEST PUSH1 0x40 MLOAD PUSH2 0x20A SWAP2 SWAP1 PUSH2 0x1691 JUMP JUMPDEST PUSH1 0x40 MLOAD DUP1 SWAP2 SUB SWAP1 RETURN JUMPDEST PUSH2 0x21B PUSH2 0x719 JUMP JUMPDEST PUSH1 0x40 MLOAD PUSH2 0x228 SWAP2 SWAP1 PUSH2 0x1635 JUMP JUMPDEST PUSH1 0x40 MLOAD DUP1 SWAP2 SUB SWAP1 RETURN JUMPDEST PUSH2 0x239 PUSH2 0x887 JUMP JUMPDEST PUSH1 0x40 MLOAD PUSH2 0x246 SWAP2 SWAP1 PUSH2 0x1635 JUMP JUMPDEST PUSH1 0x40 MLOAD DUP1 SWAP2 SUB SWAP1 RETURN JUMPDEST PUSH2 0x257 PUSH2 0x88D JUMP JUMPDEST STOP JUMPDEST PUSH2 0x261 PUSH2 0x8A1 JUMP JUMPDEST PUSH1 0x40 MLOAD PUSH2 0x26E SWAP2 SWAP1 PUSH2 0x1635 JUMP JUMPDEST PUSH1 0x40 MLOAD DUP1 SWAP2 SUB SWAP1 RETURN JUMPDEST PUSH2 0x27F PUSH2 0x8A7 JUMP JUMPDEST PUSH1 0x40 MLOAD PUSH2 0x28C SWAP2 SWAP1 PUSH2 0x1691 JUMP JUMPDEST PUSH1 0x40 MLOAD DUP1 SWAP2 SUB SWAP1 RETURN JUMPDEST PUSH2 0x2AF PUSH1 0x4 DUP1 CALLDATASIZE SUB DUP2 ADD SWAP1 PUSH2 0x2AA SWAP2 SWAP1 PUSH2 0x15F9 JUMP JUMPDEST PUSH2 0x8D0 JUMP JUMPDEST PUSH1 0x40 MLOAD PUSH2 0x2BC SWAP2 SWAP1 PUSH2 0x1635 JUMP JUMPDEST PUSH1 0x40 MLOAD DUP1 SWAP2 SUB SWAP1 RETURN JUMPDEST PUSH2 0x2CD PUSH2 0xA62 JUMP JUMPDEST PUSH1 0x40 MLOAD PUSH2 0x2DA SWAP2 SWAP1 PUSH2 0x1635 JUMP JUMPDEST PUSH1 0x40 MLOAD DUP1 SWAP2 SUB SWAP1 RETURN JUMPDEST PUSH2 0x2EB PUSH2 0xA68 JUMP JUMPDEST PUSH1 0x40 MLOAD PUSH2 0x2F8 SWAP2 SWAP1 PUSH2 0x1635 JUMP JUMPDEST PUSH1 0x40 MLOAD DUP1 SWAP2 SUB SWAP1 RETURN JUMPDEST PUSH2 0x309 PUSH2 0xA6E JUMP JUMPDEST PUSH1 0x40 MLOAD PUSH2 0x316 SWAP2 SWAP1 PUSH2 0x1691 JUMP JUMPDEST PUSH1 0x40 MLOAD DUP1 SWAP2 SUB SWAP1 RETURN JUMPDEST PUSH2 0x327 PUSH2 0xA94 JUMP JUMPDEST PUSH1 0x40 MLOAD PUSH2 0x334 SWAP2 SWAP1 PUSH2 0x1691 JUMP JUMPDEST PUSH1 0x40 MLOAD DUP1 SWAP2 SUB SWAP1 RETURN JUMPDEST PUSH2 0x345 PUSH2 0xABA JUMP JUMPDEST PUSH1 0x40 MLOAD PUSH2 0x352 SWAP2 SWAP1 PUSH2 0x17AA JUMP JUMPDEST PUSH1 0x40 MLOAD DUP1 SWAP2 SUB SWAP1 RETURN JUMPDEST PUSH2 0x363 PUSH2 0xC94 JUMP JUMPDEST PUSH1 0x40 MLOAD PUSH2 0x370 SWAP2 SWAP1 PUSH2 0x1635 JUMP JUMPDEST PUSH1 0x40 MLOAD DUP1 SWAP2 SUB SWAP1 RETURN JUMPDEST PUSH2 0x393 PUSH1 0x4 DUP1 CALLDATASIZE SUB DUP2 ADD SWAP1 PUSH2 0x38E SWAP2 SWAP1 PUSH2 0x17F1 JUMP JUMPDEST PUSH2 0xC9A JUMP JUMPDEST STOP JUMPDEST PUSH1 0x0 DUP1 PUSH1 0x3 PUSH1 0x0 SWAP1 SLOAD SWAP1 PUSH2 0x100 EXP SWAP1 DIV PUSH20 0xFFFFFFFFFFFFFFFFFFFFFFFFFFFFFFFFFFFFFFFF AND PUSH20 0xFFFFFFFFFFFFFFFFFFFFFFFFFFFFFFFFFFFFFFFF AND PUSH4 0x70A08231 ADDRESS PUSH1 0x40 MLOAD DUP3 PUSH4 0xFFFFFFFF AND PUSH1 0xE0 SHL DUP2 MSTORE PUSH1 0x4 ADD PUSH2 0x3F3 SWAP2 SWAP1 PUSH2 0x1691 JUMP JUMPDEST PUSH1 0x20 PUSH1 0x40 MLOAD DUP1 DUP4 SUB DUP2 DUP7 GAS STATICCALL ISZERO DUP1 ISZERO PUSH2 0x410 JUMPI RETURNDATASIZE PUSH1 0x0 DUP1 RETURNDATACOPY RETURNDATASIZE PUSH1 0x0 REVERT JUMPDEST POP POP POP POP PUSH1 0x40 MLOAD RETURNDATASIZE PUSH1 0x1F NOT PUSH1 0x1F DUP3 ADD AND DUP3 ADD DUP1 PUSH1 0x40 MSTORE POP DUP2 ADD SWAP1 PUSH2 0x434 SWAP2 SWAP1 PUSH2 0x1833 JUMP JUMPDEST SWAP1 POP PUSH1 0x0 PUSH1 0x4 PUSH1 0x0 SWAP1 SLOAD SWAP1 PUSH2 0x100 EXP SWAP1 DIV PUSH20 0xFFFFFFFFFFFFFFFFFFFFFFFFFFFFFFFFFFFFFFFF AND PUSH20 0xFFFFFFFFFFFFFFFFFFFFFFFFFFFFFFFFFFFFFFFF AND PUSH4 0x70A08231 ADDRESS PUSH1 0x40 MLOAD DUP3 PUSH4 0xFFFFFFFF AND PUSH1 0xE0 SHL DUP2 MSTORE PUSH1 0x4 ADD PUSH2 0x493 SWAP2 SWAP1 PUSH2 0x1691 JUMP JUMPDEST PUSH1 0x20 PUSH1 0x40 MLOAD DUP1 DUP4 SUB DUP2 DUP7 GAS STATICCALL ISZERO DUP1 ISZERO PUSH2 0x4B0 JUMPI RETURNDATASIZE PUSH1 0x0 DUP1 RETURNDATACOPY RETURNDATASIZE PUSH1 0x0 REVERT JUMPDEST POP POP POP POP PUSH1 0x40 MLOAD RETURNDATASIZE PUSH1 0x1F NOT PUSH1 0x1F DUP3 ADD AND DUP3 ADD DUP1 PUSH1 0x40 MSTORE POP DUP2 ADD SWAP1 PUSH2 0x4D4 SWAP2 SWAP1 PUSH2 0x1833 JUMP JUMPDEST SWAP1 POP PUSH1 0x0 DUP5 DUP3 PUSH2 0x4E4 SWAP2 SWAP1 PUSH2 0x188F JUMP JUMPDEST SWAP1 POP PUSH1 0x0 PUSH1 0x7 SLOAD PUSH2 0x504 PUSH1 0x9 SLOAD PUSH1 0x8 SLOAD DUP6 PUSH2 0x4FF SWAP2 SWAP1 PUSH2 0x188F JUMP JUMPDEST PUSH2 0xD1D JUMP JUMPDEST PUSH2 0x50E SWAP2 SWAP1 PUSH2 0x18C3 JUMP JUMPDEST SWAP1 POP DUP1 DUP5 PUSH2 0x51C SWAP2 SWAP1 PUSH2 0x18C3 JUMP JUMPDEST SWAP5 POP POP POP POP POP SWAP2 SWAP1 POP JUMP JUMPDEST PUSH1 0x3 PUSH1 0x0 SWAP1 SLOAD SWAP1 PUSH2 0x100 EXP SWAP1 DIV PUSH20 0xFFFFFFFFFFFFFFFFFFFFFFFFFFFFFFFFFFFFFFFF AND DUP2 JUMP JUMPDEST PUSH1 0x6 SLOAD DUP2 JUMP JUMPDEST PUSH1 0x8 SLOAD DUP2 JUMP JUMPDEST DUP1 ISZERO PUSH2 0x56E JUMPI PUSH2 0x569 DUP4 DUP4 PUSH2 0xE2C JUMP JUMPDEST PUSH2 0x579 JUMP JUMPDEST PUSH2 0x578 DUP4 DUP4 PUSH2 0x1032 JUMP JUMPDEST JUMPDEST PUSH32 0xCF2AA50876CDFBB541206F89AF0EE78D44A2ABF8D328E37FA4917F982149848A PUSH1 0x3 PUSH1 0x0 SWAP1 SLOAD SWAP1 PUSH2 0x100 EXP SWAP1 DIV PUSH20 0xFFFFFFFFFFFFFFFFFFFFFFFFFFFFFFFFFFFFFFFF AND PUSH20 0xFFFFFFFFFFFFFFFFFFFFFFFFFFFFFFFFFFFFFFFF AND PUSH4 0x70A08231 ADDRESS PUSH1 0x40 MLOAD DUP3 PUSH4 0xFFFFFFFF AND PUSH1 0xE0 SHL DUP2 MSTORE PUSH1 0x4 ADD PUSH2 0x5F5 SWAP2 SWAP1 PUSH2 0x1691 JUMP JUMPDEST PUSH1 0x20 PUSH1 0x40 MLOAD DUP1 DUP4 SUB DUP2 DUP7 GAS STATICCALL ISZERO DUP1 ISZERO PUSH2 0x612 JUMPI RETURNDATASIZE PUSH1 0x0 DUP1 RETURNDATACOPY RETURNDATASIZE PUSH1 0x0 REVERT JUMPDEST POP POP POP POP PUSH1 0x40 MLOAD RETURNDATASIZE PUSH1 0x1F NOT PUSH1 0x1F DUP3 ADD AND DUP3 ADD DUP1 PUSH1 0x40 MSTORE POP DUP2 ADD SWAP1 PUSH2 0x636 SWAP2 SWAP1 PUSH2 0x1833 JUMP JUMPDEST PUSH1 0x4 PUSH1 0x0 SWAP1 SLOAD SWAP1 PUSH2 0x100 EXP SWAP1 DIV PUSH20 0xFFFFFFFFFFFFFFFFFFFFFFFFFFFFFFFFFFFFFFFF AND PUSH20 0xFFFFFFFFFFFFFFFFFFFFFFFFFFFFFFFFFFFFFFFF AND PUSH4 0x70A08231 ADDRESS PUSH1 0x40 MLOAD DUP3 PUSH4 0xFFFFFFFF AND PUSH1 0xE0 SHL DUP2 MSTORE PUSH1 0x4 ADD PUSH2 0x691 SWAP2 SWAP1 PUSH2 0x1691 JUMP JUMPDEST PUSH1 0x20 PUSH1 0x40 MLOAD DUP1 DUP4 SUB DUP2 DUP7 GAS STATICCALL ISZERO DUP1 ISZERO PUSH2 0x6AE JUMPI RETURNDATASIZE PUSH1 0x0 DUP1 RETURNDATACOPY RETURNDATASIZE PUSH1 0x0 REVERT JUMPDEST POP POP POP POP PUSH1 0x40 MLOAD RETURNDATASIZE PUSH1 0x1F NOT PUSH1 0x1F DUP3 ADD AND DUP3 ADD DUP1 PUSH1 0x40 MSTORE POP DUP2 ADD SWAP1 PUSH2 0x6D2 SWAP2 SWAP1 PUSH2 0x1833 JUMP JUMPDEST PUSH1 0x40 MLOAD PUSH2 0x6E0 SWAP3 SWAP2 SWAP1 PUSH2 0x18F7 JUMP JUMPDEST PUSH1 0x40 MLOAD DUP1 SWAP2 SUB SWAP1 LOG1 POP POP POP JUMP JUMPDEST PUSH1 0xB SLOAD DUP2 JUMP JUMPDEST PUSH1 0x2 PUSH1 0x0 SWAP1 SLOAD SWAP1 PUSH2 0x100 EXP SWAP1 DIV PUSH20 0xFFFFFFFFFFFFFFFFFFFFFFFFFFFFFFFFFFFFFFFF AND DUP2 JUMP JUMPDEST PUSH1 0x0 DUP1 PUSH1 0x3 PUSH1 0x0 SWAP1 SLOAD SWAP1 PUSH2 0x100 EXP SWAP1 DIV PUSH20 0xFFFFFFFFFFFFFFFFFFFFFFFFFFFFFFFFFFFFFFFF AND PUSH20 0xFFFFFFFFFFFFFFFFFFFFFFFFFFFFFFFFFFFFFFFF AND PUSH4 0x70A08231 ADDRESS PUSH1 0x40 MLOAD DUP3 PUSH4 0xFFFFFFFF AND PUSH1 0xE0 SHL DUP2 MSTORE PUSH1 0x4 ADD PUSH2 0x777 SWAP2 SWAP1 PUSH2 0x1691 JUMP JUMPDEST PUSH1 0x20 PUSH1 0x40 MLOAD DUP1 DUP4 SUB DUP2 DUP7 GAS STATICCALL ISZERO DUP1 ISZERO PUSH2 0x794 JUMPI RETURNDATASIZE PUSH1 0x0 DUP1 RETURNDATACOPY RETURNDATASIZE PUSH1 0x0 REVERT JUMPDEST POP POP POP POP PUSH1 0x40 MLOAD RETURNDATASIZE PUSH1 0x1F NOT PUSH1 0x1F DUP3 ADD AND DUP3 ADD DUP1 PUSH1 0x40 MSTORE POP DUP2 ADD SWAP1 PUSH2 0x7B8 SWAP2 SWAP1 PUSH2 0x1833 JUMP JUMPDEST SWAP1 POP PUSH1 0x0 PUSH1 0x4 PUSH1 0x0 SWAP1 SLOAD SWAP1 PUSH2 0x100 EXP SWAP1 DIV PUSH20 0xFFFFFFFFFFFFFFFFFFFFFFFFFFFFFFFFFFFFFFFF AND PUSH20 0xFFFFFFFFFFFFFFFFFFFFFFFFFFFFFFFFFFFFFFFF AND PUSH4 0x70A08231 ADDRESS PUSH1 0x40 MLOAD DUP3 PUSH4 0xFFFFFFFF AND PUSH1 0xE0 SHL DUP2 MSTORE PUSH1 0x4 ADD PUSH2 0x817 SWAP2 SWAP1 PUSH2 0x1691 JUMP JUMPDEST PUSH1 0x20 PUSH1 0x40 MLOAD DUP1 DUP4 SUB DUP2 DUP7 GAS STATICCALL ISZERO DUP1 ISZERO PUSH2 0x834 JUMPI RETURNDATASIZE PUSH1 0x0 DUP1 RETURNDATACOPY RETURNDATASIZE PUSH1 0x0 REVERT JUMPDEST POP POP POP POP PUSH1 0x40 MLOAD RETURNDATASIZE PUSH1 0x1F NOT PUSH1 0x1F DUP3 ADD AND DUP3 ADD DUP1 PUSH1 0x40 MSTORE POP DUP2 ADD SWAP1 PUSH2 0x858 SWAP2 SWAP1 PUSH2 0x1833 JUMP JUMPDEST SWAP1 POP PUSH1 0x8 SLOAD DUP2 PUSH2 0x868 SWAP2 SWAP1 PUSH2 0x1920 JUMP JUMPDEST PUSH1 0x7 SLOAD DUP4 PUSH2 0x876 SWAP2 SWAP1 PUSH2 0x188F JUMP JUMPDEST PUSH2 0x880 SWAP2 SWAP1 PUSH2 0x1920 JUMP JUMPDEST SWAP3 POP POP POP SWAP1 JUMP JUMPDEST PUSH1 0x9 SLOAD DUP2 JUMP JUMPDEST PUSH2 0x895 PUSH2 0x1326 JUMP JUMPDEST PUSH2 0x89F PUSH1 0x0 PUSH2 0x13A4 JUMP JUMPDEST JUMP JUMPDEST PUSH1 0x5 SLOAD DUP2 JUMP JUMPDEST PUSH1 0x0 DUP1 PUSH1 0x0 SWAP1 SLOAD SWAP1 PUSH2 0x100 EXP SWAP1 DIV PUSH20 0xFFFFFFFFFFFFFFFFFFFFFFFFFFFFFFFFFFFFFFFF AND SWAP1 POP SWAP1 JUMP JUMPDEST PUSH1 0x0 DUP1 PUSH1 0x3 PUSH1 0x0 SWAP1 SLOAD SWAP1 PUSH2 0x100 EXP SWAP1 DIV PUSH20 0xFFFFFFFFFFFFFFFFFFFFFFFFFFFFFFFFFFFFFFFF AND PUSH20 0xFFFFFFFFFFFFFFFFFFFFFFFFFFFFFFFFFFFFFFFF AND PUSH4 0x70A08231 ADDRESS PUSH1 0x40 MLOAD DUP3 PUSH4 0xFFFFFFFF AND PUSH1 0xE0 SHL DUP2 MSTORE PUSH1 0x4 ADD PUSH2 0x92E SWAP2 SWAP1 PUSH2 0x1691 JUMP JUMPDEST PUSH1 0x20 PUSH1 0x40 MLOAD DUP1 DUP4 SUB DUP2 DUP7 GAS STATICCALL ISZERO DUP1 ISZERO PUSH2 0x94B JUMPI RETURNDATASIZE PUSH1 0x0 DUP1 RETURNDATACOPY RETURNDATASIZE PUSH1 0x0 REVERT JUMPDEST POP POP POP POP PUSH1 0x40 MLOAD RETURNDATASIZE PUSH1 0x1F NOT PUSH1 0x1F DUP3 ADD AND DUP3 ADD DUP1 PUSH1 0x40 MSTORE POP DUP2 ADD SWAP1 PUSH2 0x96F SWAP2 SWAP1 PUSH2 0x1833 JUMP JUMPDEST SWAP1 POP PUSH1 0x0 PUSH1 0x4 PUSH1 0x0 SWAP1 SLOAD SWAP1 PUSH2 0x100 EXP SWAP1 DIV PUSH20 0xFFFFFFFFFFFFFFFFFFFFFFFFFFFFFFFFFFFFFFFF AND PUSH20 0xFFFFFFFFFFFFFFFFFFFFFFFFFFFFFFFFFFFFFFFF AND PUSH4 0x70A08231 ADDRESS PUSH1 0x40 MLOAD DUP3 PUSH4 0xFFFFFFFF AND PUSH1 0xE0 SHL DUP2 MSTORE PUSH1 0x4 ADD PUSH2 0x9CE SWAP2 SWAP1 PUSH2 0x1691 JUMP JUMPDEST PUSH1 0x20 PUSH1 0x40 MLOAD DUP1 DUP4 SUB DUP2 DUP7 GAS STATICCALL ISZERO DUP1 ISZERO PUSH2 0x9EB JUMPI RETURNDATASIZE PUSH1 0x0 DUP1 RETURNDATACOPY RETURNDATASIZE PUSH1 0x0 REVERT JUMPDEST POP POP POP POP PUSH1 0x40 MLOAD RETURNDATASIZE PUSH1 0x1F NOT PUSH1 0x1F DUP3 ADD AND DUP3 ADD DUP1 PUSH1 0x40 MSTORE POP DUP2 ADD SWAP1 PUSH2 0xA0F SWAP2 SWAP1 PUSH2 0x1833 JUMP JUMPDEST SWAP1 POP PUSH1 0x0 DUP5 DUP4 PUSH2 0xA1F SWAP2 SWAP1 PUSH2 0x188F JUMP JUMPDEST SWAP1 POP PUSH1 0x0 PUSH1 0x8 SLOAD PUSH2 0xA3F PUSH1 0x9 SLOAD PUSH1 0x7 SLOAD DUP6 PUSH2 0xA3A SWAP2 SWAP1 PUSH2 0x188F JUMP JUMPDEST PUSH2 0xD1D JUMP JUMPDEST PUSH2 0xA49 SWAP2 SWAP1 PUSH2 0x18C3 JUMP JUMPDEST SWAP1 POP DUP1 DUP4 PUSH2 0xA57 SWAP2 SWAP1 PUSH2 0x18C3 JUMP JUMPDEST SWAP5 POP POP POP POP POP SWAP2 SWAP1 POP JUMP JUMPDEST PUSH1 0x7 SLOAD DUP2 JUMP JUMPDEST PUSH1 0xC SLOAD DUP2 JUMP JUMPDEST PUSH1 0x1 PUSH1 0x0 SWAP1 SLOAD SWAP1 PUSH2 0x100 EXP SWAP1 DIV PUSH20 0xFFFFFFFFFFFFFFFFFFFFFFFFFFFFFFFFFFFFFFFF AND DUP2 JUMP JUMPDEST PUSH1 0x4 PUSH1 0x0 SWAP1 SLOAD SWAP1 PUSH2 0x100 EXP SWAP1 DIV PUSH20 0xFFFFFFFFFFFFFFFFFFFFFFFFFFFFFFFFFFFFFFFF AND DUP2 JUMP JUMPDEST PUSH2 0xAC2 PUSH2 0x156A JUMP JUMPDEST PUSH1 0x0 PUSH1 0x40 MLOAD DUP1 PUSH1 0x80 ADD PUSH1 0x40 MSTORE DUP1 PUSH1 0x3 PUSH1 0x0 SWAP1 SLOAD SWAP1 PUSH2 0x100 EXP SWAP1 DIV PUSH20 0xFFFFFFFFFFFFFFFFFFFFFFFFFFFFFFFFFFFFFFFF AND PUSH20 0xFFFFFFFFFFFFFFFFFFFFFFFFFFFFFFFFFFFFFFFF AND DUP2 MSTORE PUSH1 0x20 ADD PUSH1 0x4 PUSH1 0x0 SWAP1 SLOAD SWAP1 PUSH2 0x100 EXP SWAP1 DIV PUSH20 0xFFFFFFFFFFFFFFFFFFFFFFFFFFFFFFFFFFFFFFFF AND PUSH20 0xFFFFFFFFFFFFFFFFFFFFFFFFFFFFFFFFFFFFFFFF AND DUP2 MSTORE PUSH1 0x20 ADD PUSH1 0x3 PUSH1 0x0 SWAP1 SLOAD SWAP1 PUSH2 0x100 EXP SWAP1 DIV PUSH20 0xFFFFFFFFFFFFFFFFFFFFFFFFFFFFFFFFFFFFFFFF AND PUSH20 0xFFFFFFFFFFFFFFFFFFFFFFFFFFFFFFFFFFFFFFFF AND PUSH4 0x70A08231 ADDRESS PUSH1 0x40 MLOAD DUP3 PUSH4 0xFFFFFFFF AND PUSH1 0xE0 SHL DUP2 MSTORE PUSH1 0x4 ADD PUSH2 0xBA6 SWAP2 SWAP1 PUSH2 0x1691 JUMP JUMPDEST PUSH1 0x20 PUSH1 0x40 MLOAD DUP1 DUP4 SUB DUP2 DUP7 GAS STATICCALL ISZERO DUP1 ISZERO PUSH2 0xBC3 JUMPI RETURNDATASIZE PUSH1 0x0 DUP1 RETURNDATACOPY RETURNDATASIZE PUSH1 0x0 REVERT JUMPDEST POP POP POP POP PUSH1 0x40 MLOAD RETURNDATASIZE PUSH1 0x1F NOT PUSH1 0x1F DUP3 ADD AND DUP3 ADD DUP1 PUSH1 0x40 MSTORE POP DUP2 ADD SWAP1 PUSH2 0xBE7 SWAP2 SWAP1 PUSH2 0x1833 JUMP JUMPDEST DUP2 MSTORE PUSH1 0x20 ADD PUSH1 0x4 PUSH1 0x0 SWAP1 SLOAD SWAP1 PUSH2 0x100 EXP SWAP1 DIV PUSH20 0xFFFFFFFFFFFFFFFFFFFFFFFFFFFFFFFFFFFFFFFF AND PUSH20 0xFFFFFFFFFFFFFFFFFFFFFFFFFFFFFFFFFFFFFFFF AND PUSH4 0x70A08231 ADDRESS PUSH1 0x40 MLOAD DUP3 PUSH4 0xFFFFFFFF AND PUSH1 0xE0 SHL DUP2 MSTORE PUSH1 0x4 ADD PUSH2 0xC47 SWAP2 SWAP1 PUSH2 0x1691 JUMP JUMPDEST PUSH1 0x20 PUSH1 0x40 MLOAD DUP1 DUP4 SUB DUP2 DUP7 GAS STATICCALL ISZERO DUP1 ISZERO PUSH2 0xC64 JUMPI RETURNDATASIZE PUSH1 0x0 DUP1 RETURNDATACOPY RETURNDATASIZE PUSH1 0x0 REVERT JUMPDEST POP POP POP POP PUSH1 0x40 MLOAD RETURNDATASIZE PUSH1 0x1F NOT PUSH1 0x1F DUP3 ADD AND DUP3 ADD DUP1 PUSH1 0x40 MSTORE POP DUP2 ADD SWAP1 PUSH2 0xC88 SWAP2 SWAP1 PUSH2 0x1833 JUMP JUMPDEST DUP2 MSTORE POP SWAP1 POP DUP1 SWAP2 POP POP SWAP1 JUMP JUMPDEST PUSH1 0xA SLOAD DUP2 JUMP JUMPDEST PUSH2 0xCA2 PUSH2 0x1326 JUMP JUMPDEST PUSH1 0x0 PUSH20 0xFFFFFFFFFFFFFFFFFFFFFFFFFFFFFFFFFFFFFFFF AND DUP2 PUSH20 0xFFFFFFFFFFFFFFFFFFFFFFFFFFFFFFFFFFFFFFFF AND SUB PUSH2 0xD11 JUMPI PUSH1 0x40 MLOAD PUSH32 0x8C379A000000000000000000000000000000000000000000000000000000000 DUP2 MSTORE PUSH1 0x4 ADD PUSH2 0xD08 SWAP1 PUSH2 0x19E5 JUMP JUMPDEST PUSH1 0x40 MLOAD DUP1 SWAP2 SUB SWAP1 REVERT JUMPDEST PUSH2 0xD1A DUP2 PUSH2 0x13A4 JUMP JUMPDEST POP JUMP JUMPDEST PUSH1 0x0 DUP2 DUP4 PUSH2 0xD2B SWAP2 SWAP1 PUSH2 0x1A34 JUMP JUMPDEST SWAP1 POP SWAP3 SWAP2 POP POP JUMP JUMPDEST PUSH1 0x0 DUP1 DUP3 SUB PUSH2 0xD45 JUMPI PUSH1 0x0 SWAP1 POP PUSH2 0xE27 JUMP JUMPDEST PUSH1 0x0 PUSH1 0x1 PUSH2 0xD52 DUP5 PUSH2 0x1468 JUMP JUMPDEST SWAP1 SHR PUSH1 0x1 SWAP1 SHL SWAP1 POP PUSH1 0x1 DUP2 DUP5 DUP2 PUSH2 0xD6C JUMPI PUSH2 0xD6B PUSH2 0x1A05 JUMP JUMPDEST JUMPDEST DIV DUP3 ADD SWAP1 SHR SWAP1 POP PUSH1 0x1 DUP2 DUP5 DUP2 PUSH2 0xD85 JUMPI PUSH2 0xD84 PUSH2 0x1A05 JUMP JUMPDEST JUMPDEST DIV DUP3 ADD SWAP1 SHR SWAP1 POP PUSH1 0x1 DUP2 DUP5 DUP2 PUSH2 0xD9E JUMPI PUSH2 0xD9D PUSH2 0x1A05 JUMP JUMPDEST JUMPDEST DIV DUP3 ADD SWAP1 SHR SWAP1 POP PUSH1 0x1 DUP2 DUP5 DUP2 PUSH2 0xDB7 JUMPI PUSH2 0xDB6 PUSH2 0x1A05 JUMP JUMPDEST JUMPDEST DIV DUP3 ADD SWAP1 SHR SWAP1 POP PUSH1 0x1 DUP2 DUP5 DUP2 PUSH2 0xDD0 JUMPI PUSH2 0xDCF PUSH2 0x1A05 JUMP JUMPDEST JUMPDEST DIV DUP3 ADD SWAP1 SHR SWAP1 POP PUSH1 0x1 DUP2 DUP5 DUP2 PUSH2 0xDE9 JUMPI PUSH2 0xDE8 PUSH2 0x1A05 JUMP JUMPDEST JUMPDEST DIV DUP3 ADD SWAP1 SHR SWAP1 POP PUSH1 0x1 DUP2 DUP5 DUP2 PUSH2 0xE02 JUMPI PUSH2 0xE01 PUSH2 0x1A05 JUMP JUMPDEST JUMPDEST DIV DUP3 ADD SWAP1 SHR SWAP1 POP PUSH2 0xE23 DUP2 DUP3 DUP6 DUP2 PUSH2 0xE1D JUMPI PUSH2 0xE1C PUSH2 0x1A05 JUMP JUMPDEST JUMPDEST DIV PUSH2 0x1549 JUMP JUMPDEST SWAP2 POP POP JUMPDEST SWAP2 SWAP1 POP JUMP JUMPDEST PUSH1 0x0 PUSH2 0xE37 DUP4 PUSH2 0x395 JUMP JUMPDEST SWAP1 POP DUP2 DUP2 LT ISZERO PUSH2 0xE7C JUMPI PUSH1 0x40 MLOAD PUSH32 0x8C379A000000000000000000000000000000000000000000000000000000000 DUP2 MSTORE PUSH1 0x4 ADD PUSH2 0xE73 SWAP1 PUSH2 0x1AB1 JUMP JUMPDEST PUSH1 0x40 MLOAD DUP1 SWAP2 SUB SWAP1 REVERT JUMPDEST PUSH1 0x4 PUSH1 0x0 SWAP1 SLOAD SWAP1 PUSH2 0x100 EXP SWAP1 DIV PUSH20 0xFFFFFFFFFFFFFFFFFFFFFFFFFFFFFFFFFFFFFFFF AND PUSH20 0xFFFFFFFFFFFFFFFFFFFFFFFFFFFFFFFFFFFFFFFF AND PUSH4 0x23B872DD CALLER ADDRESS DUP7 PUSH1 0x40 MLOAD DUP5 PUSH4 0xFFFFFFFF AND PUSH1 0xE0 SHL DUP2 MSTORE PUSH1 0x4 ADD PUSH2 0xEDB SWAP4 SWAP3 SWAP2 SWAP1 PUSH2 0x1AD1 JUMP JUMPDEST PUSH1 0x20 PUSH1 0x40 MLOAD DUP1 DUP4 SUB DUP2 PUSH1 0x0 DUP8 GAS CALL ISZERO DUP1 ISZERO PUSH2 0xEFA JUMPI RETURNDATASIZE PUSH1 0x0 DUP1 RETURNDATACOPY RETURNDATASIZE PUSH1 0x0 REVERT JUMPDEST POP POP POP POP PUSH1 0x40 MLOAD RETURNDATASIZE PUSH1 0x1F NOT PUSH1 0x1F DUP3 ADD AND DUP3 ADD DUP1 PUSH1 0x40 MSTORE POP DUP2 ADD SWAP1 PUSH2 0xF1E SWAP2 SWAP1 PUSH2 0x1B1D JUMP JUMPDEST POP PUSH1 0x3 PUSH1 0x0 SWAP1 SLOAD SWAP1 PUSH2 0x100 EXP SWAP1 DIV PUSH20 0xFFFFFFFFFFFFFFFFFFFFFFFFFFFFFFFFFFFFFFFF AND PUSH20 0xFFFFFFFFFFFFFFFFFFFFFFFFFFFFFFFFFFFFFFFF AND PUSH4 0xA9059CBB CALLER DUP4 PUSH1 0x40 MLOAD DUP4 PUSH4 0xFFFFFFFF AND PUSH1 0xE0 SHL DUP2 MSTORE PUSH1 0x4 ADD PUSH2 0xF7C SWAP3 SWAP2 SWAP1 PUSH2 0x1B4A JUMP JUMPDEST PUSH1 0x20 PUSH1 0x40 MLOAD DUP1 DUP4 SUB DUP2 PUSH1 0x0 DUP8 GAS CALL ISZERO DUP1 ISZERO PUSH2 0xF9B JUMPI RETURNDATASIZE PUSH1 0x0 DUP1 RETURNDATACOPY RETURNDATASIZE PUSH1 0x0 REVERT JUMPDEST POP POP POP POP PUSH1 0x40 MLOAD RETURNDATASIZE PUSH1 0x1F NOT PUSH1 0x1F DUP3 ADD AND DUP3 ADD DUP1 PUSH1 0x40 MSTORE POP DUP2 ADD SWAP1 PUSH2 0xFBF SWAP2 SWAP1 PUSH2 0x1B1D JUMP JUMPDEST POP ADDRESS PUSH20 0xFFFFFFFFFFFFFFFFFFFFFFFFFFFFFFFFFFFFFFFF AND CALLER PUSH20 0xFFFFFFFFFFFFFFFFFFFFFFFFFFFFFFFFFFFFFFFF AND PUSH32 0xD78AD95FA46C994B6551D0DA85FC275FE613CE37657FB8D5E3D130840159D822 PUSH1 0x0 DUP7 DUP7 PUSH1 0x0 PUSH1 0x40 MLOAD PUSH2 0x1025 SWAP5 SWAP4 SWAP3 SWAP2 SWAP1 PUSH2 0x1BB8 JUMP JUMPDEST PUSH1 0x40 MLOAD DUP1 SWAP2 SUB SWAP1 LOG3 POP POP POP JUMP JUMPDEST PUSH1 0x0 PUSH2 0x103D DUP4 PUSH2 0x8D0 JUMP JUMPDEST SWAP1 POP DUP2 DUP2 LT ISZERO PUSH2 0x1082 JUMPI PUSH1 0x40 MLOAD PUSH32 0x8C379A000000000000000000000000000000000000000000000000000000000 DUP2 MSTORE PUSH1 0x4 ADD PUSH2 0x1079 SWAP1 PUSH2 0x1AB1 JUMP JUMPDEST PUSH1 0x40 MLOAD DUP1 SWAP2 SUB SWAP1 REVERT JUMPDEST PUSH1 0x3 PUSH1 0x0 SWAP1 SLOAD SWAP1 PUSH2 0x100 EXP SWAP1 DIV PUSH20 0xFFFFFFFFFFFFFFFFFFFFFFFFFFFFFFFFFFFFFFFF AND PUSH20 0xFFFFFFFFFFFFFFFFFFFFFFFFFFFFFFFFFFFFFFFF AND PUSH4 0xA9059CBB CALLER DUP4 PUSH1 0x40 MLOAD DUP4 PUSH4 0xFFFFFFFF AND PUSH1 0xE0 SHL DUP2 MSTORE PUSH1 0x4 ADD PUSH2 0x10DF SWAP3 SWAP2 SWAP1 PUSH2 0x1B4A JUMP JUMPDEST PUSH1 0x20 PUSH1 0x40 MLOAD DUP1 DUP4 SUB DUP2 PUSH1 0x0 DUP8 GAS CALL ISZERO DUP1 ISZERO PUSH2 0x10FE JUMPI RETURNDATASIZE PUSH1 0x0 DUP1 RETURNDATACOPY RETURNDATASIZE PUSH1 0x0 REVERT JUMPDEST POP POP POP POP PUSH1 0x40 MLOAD RETURNDATASIZE PUSH1 0x1F NOT PUSH1 0x1F DUP3 ADD AND DUP3 ADD DUP1 PUSH1 0x40 MSTORE POP DUP2 ADD SWAP1 PUSH2 0x1122 SWAP2 SWAP1 PUSH2 0x1B1D JUMP JUMPDEST POP PUSH1 0x0 PUSH2 0x113F DUP3 PUSH1 0xC SLOAD PUSH2 0x1136 SWAP2 SWAP1 PUSH2 0x1920 JUMP JUMPDEST PUSH3 0xF4240 PUSH2 0xD1D JUMP JUMPDEST SWAP1 POP PUSH1 0x4 PUSH1 0x0 SWAP1 SLOAD SWAP1 PUSH2 0x100 EXP SWAP1 DIV PUSH20 0xFFFFFFFFFFFFFFFFFFFFFFFFFFFFFFFFFFFFFFFF AND PUSH20 0xFFFFFFFFFFFFFFFFFFFFFFFFFFFFFFFFFFFFFFFF AND PUSH4 0x23B872DD CALLER PUSH1 0x2 PUSH1 0x0 SWAP1 SLOAD SWAP1 PUSH2 0x100 EXP SWAP1 DIV PUSH20 0xFFFFFFFFFFFFFFFFFFFFFFFFFFFFFFFFFFFFFFFF AND DUP5 PUSH1 0x40 MLOAD DUP5 PUSH4 0xFFFFFFFF AND PUSH1 0xE0 SHL DUP2 MSTORE PUSH1 0x4 ADD PUSH2 0x11C2 SWAP4 SWAP3 SWAP2 SWAP1 PUSH2 0x1AD1 JUMP JUMPDEST PUSH1 0x20 PUSH1 0x40 MLOAD DUP1 DUP4 SUB DUP2 PUSH1 0x0 DUP8 GAS CALL ISZERO DUP1 ISZERO PUSH2 0x11E1 JUMPI RETURNDATASIZE PUSH1 0x0 DUP1 RETURNDATACOPY RETURNDATASIZE PUSH1 0x0 REVERT JUMPDEST POP POP POP POP PUSH1 0x40 MLOAD RETURNDATASIZE PUSH1 0x1F NOT PUSH1 0x1F DUP3 ADD AND DUP3 ADD DUP1 PUSH1 0x40 MSTORE POP DUP2 ADD SWAP1 PUSH2 0x1205 SWAP2 SWAP1 PUSH2 0x1B1D JUMP JUMPDEST POP PUSH1 0x4 PUSH1 0x0 SWAP1 SLOAD SWAP1 PUSH2 0x100 EXP SWAP1 DIV PUSH20 0xFFFFFFFFFFFFFFFFFFFFFFFFFFFFFFFFFFFFFFFF AND PUSH20 0xFFFFFFFFFFFFFFFFFFFFFFFFFFFFFFFFFFFFFFFF AND PUSH4 0x23B872DD CALLER ADDRESS DUP5 DUP7 PUSH2 0x1252 SWAP2 SWAP1 PUSH2 0x18C3 JUMP JUMPDEST PUSH1 0x40 MLOAD DUP5 PUSH4 0xFFFFFFFF AND PUSH1 0xE0 SHL DUP2 MSTORE PUSH1 0x4 ADD PUSH2 0x1270 SWAP4 SWAP3 SWAP2 SWAP1 PUSH2 0x1AD1 JUMP JUMPDEST PUSH1 0x20 PUSH1 0x40 MLOAD DUP1 DUP4 SUB DUP2 PUSH1 0x0 DUP8 GAS CALL ISZERO DUP1 ISZERO PUSH2 0x128F JUMPI RETURNDATASIZE PUSH1 0x0 DUP1 RETURNDATACOPY RETURNDATASIZE PUSH1 0x0 REVERT JUMPDEST POP POP POP POP PUSH1 0x40 MLOAD RETURNDATASIZE PUSH1 0x1F NOT PUSH1 0x1F DUP3 ADD AND DUP3 ADD DUP1 PUSH1 0x40 MSTORE POP DUP2 ADD SWAP1 PUSH2 0x12B3 SWAP2 SWAP1 PUSH2 0x1B1D JUMP JUMPDEST POP ADDRESS PUSH20 0xFFFFFFFFFFFFFFFFFFFFFFFFFFFFFFFFFFFFFFFF AND CALLER PUSH20 0xFFFFFFFFFFFFFFFFFFFFFFFFFFFFFFFFFFFFFFFF AND PUSH32 0xD78AD95FA46C994B6551D0DA85FC275FE613CE37657FB8D5E3D130840159D822 DUP7 PUSH1 0x0 DUP1 DUP9 PUSH1 0x40 MLOAD PUSH2 0x1318 SWAP5 SWAP4 SWAP3 SWAP2 SWAP1 PUSH2 0x1BFD JUMP JUMPDEST PUSH1 0x40 MLOAD DUP1 SWAP2 SUB SWAP1 LOG3 POP POP POP POP JUMP JUMPDEST PUSH2 0x132E PUSH2 0x1562 JUMP JUMPDEST PUSH20 0xFFFFFFFFFFFFFFFFFFFFFFFFFFFFFFFFFFFFFFFF AND PUSH2 0x134C PUSH2 0x8A7 JUMP JUMPDEST PUSH20 0xFFFFFFFFFFFFFFFFFFFFFFFFFFFFFFFFFFFFFFFF AND EQ PUSH2 0x13A2 JUMPI PUSH1 0x40 MLOAD PUSH32 0x8C379A000000000000000000000000000000000000000000000000000000000 DUP2 MSTORE PUSH1 0x4 ADD PUSH2 0x1399 SWAP1 PUSH2 0x1C8E JUMP JUMPDEST PUSH1 0x40 MLOAD DUP1 SWAP2 SUB SWAP1 REVERT JUMPDEST JUMP JUMPDEST PUSH1 0x0 DUP1 PUSH1 0x0 SWAP1 SLOAD SWAP1 PUSH2 0x100 EXP SWAP1 DIV PUSH20 0xFFFFFFFFFFFFFFFFFFFFFFFFFFFFFFFFFFFFFFFF AND SWAP1 POP DUP2 PUSH1 0x0 DUP1 PUSH2 0x100 EXP DUP2 SLOAD DUP2 PUSH20 0xFFFFFFFFFFFFFFFFFFFFFFFFFFFFFFFFFFFFFFFF MUL NOT AND SWAP1 DUP4 PUSH20 0xFFFFFFFFFFFFFFFFFFFFFFFFFFFFFFFFFFFFFFFF AND MUL OR SWAP1 SSTORE POP DUP2 PUSH20 0xFFFFFFFFFFFFFFFFFFFFFFFFFFFFFFFFFFFFFFFF AND DUP2 PUSH20 0xFFFFFFFFFFFFFFFFFFFFFFFFFFFFFFFFFFFFFFFF AND PUSH32 0x8BE0079C531659141344CD1FD0A4F28419497F9722A3DAAFE3B4186F6B6457E0 PUSH1 0x40 MLOAD PUSH1 0x40 MLOAD DUP1 SWAP2 SUB SWAP1 LOG3 POP POP JUMP JUMPDEST PUSH1 0x0 DUP1 PUSH1 0x0 SWAP1 POP PUSH1 0x0 PUSH1 0x80 DUP5 SWAP1 SHR GT ISZERO PUSH2 0x148A JUMPI PUSH1 0x80 DUP4 SWAP1 SHR SWAP3 POP PUSH1 0x80 DUP2 ADD SWAP1 POP JUMPDEST PUSH1 0x0 PUSH1 0x40 DUP5 SWAP1 SHR GT ISZERO PUSH2 0x14A5 JUMPI PUSH1 0x40 DUP4 SWAP1 SHR SWAP3 POP PUSH1 0x40 DUP2 ADD SWAP1 POP JUMPDEST PUSH1 0x0 PUSH1 0x20 DUP5 SWAP1 SHR GT ISZERO PUSH2 0x14C0 JUMPI PUSH1 0x20 DUP4 SWAP1 SHR SWAP3 POP PUSH1 0x20 DUP2 ADD SWAP1 POP JUMPDEST PUSH1 0x0 PUSH1 0x10 DUP5 SWAP1 SHR GT ISZERO PUSH2 0x14DB JUMPI PUSH1 0x10 DUP4 SWAP1 SHR SWAP3 POP PUSH1 0x10 DUP2 ADD SWAP1 POP JUMPDEST PUSH1 0x0 PUSH1 0x8 DUP5 SWAP1 SHR GT ISZERO PUSH2 0x14F6 JUMPI PUSH1 0x8 DUP4 SWAP1 SHR SWAP3 POP PUSH1 0x8 DUP2 ADD SWAP1 POP JUMPDEST PUSH1 0x0 PUSH1 0x4 DUP5 SWAP1 SHR GT ISZERO PUSH2 0x1511 JUMPI PUSH1 0x4 DUP4 SWAP1 SHR SWAP3 POP PUSH1 0x4 DUP2 ADD SWAP1 POP JUMPDEST PUSH1 0x0 PUSH1 0x2 DUP5 SWAP1 SHR GT ISZERO PUSH2 0x152C JUMPI PUSH1 0x2 DUP4 SWAP1 SHR SWAP3 POP PUSH1 0x2 DUP2 ADD SWAP1 POP JUMPDEST PUSH1 0x0 PUSH1 0x1 DUP5 SWAP1 SHR GT ISZERO PUSH2 0x1540 JUMPI PUSH1 0x1 DUP2 ADD SWAP1 POP JUMPDEST DUP1 SWAP2 POP POP SWAP2 SWAP1 POP JUMP JUMPDEST PUSH1 0x0 DUP2 DUP4 LT PUSH2 0x1558 JUMPI DUP2 PUSH2 0x155A JUMP JUMPDEST DUP3 JUMPDEST SWAP1 POP SWAP3 SWAP2 POP POP JUMP JUMPDEST PUSH1 0x0 CALLER SWAP1 POP SWAP1 JUMP JUMPDEST PUSH1 0x40 MLOAD DUP1 PUSH1 0x80 ADD PUSH1 0x40 MSTORE DUP1 PUSH1 0x0 PUSH20 0xFFFFFFFFFFFFFFFFFFFFFFFFFFFFFFFFFFFFFFFF AND DUP2 MSTORE PUSH1 0x20 ADD PUSH1 0x0 PUSH20 0xFFFFFFFFFFFFFFFFFFFFFFFFFFFFFFFFFFFFFFFF AND DUP2 MSTORE PUSH1 0x20 ADD PUSH1 0x0 DUP2 MSTORE PUSH1 0x20 ADD PUSH1 0x0 DUP2 MSTORE POP SWAP1 JUMP JUMPDEST PUSH1 0x0 DUP1 REVERT JUMPDEST PUSH1 0x0 DUP2 SWAP1 POP SWAP2 SWAP1 POP JUMP JUMPDEST PUSH2 0x15D6 DUP2 PUSH2 0x15C3 JUMP JUMPDEST DUP2 EQ PUSH2 0x15E1 JUMPI PUSH1 0x0 DUP1 REVERT JUMPDEST POP JUMP JUMPDEST PUSH1 0x0 DUP2 CALLDATALOAD SWAP1 POP PUSH2 0x15F3 DUP2 PUSH2 0x15CD JUMP JUMPDEST SWAP3 SWAP2 POP POP JUMP JUMPDEST PUSH1 0x0 PUSH1 0x20 DUP3 DUP5 SUB SLT ISZERO PUSH2 0x160F JUMPI PUSH2 0x160E PUSH2 0x15BE JUMP JUMPDEST JUMPDEST PUSH1 0x0 PUSH2 0x161D DUP5 DUP3 DUP6 ADD PUSH2 0x15E4 JUMP JUMPDEST SWAP2 POP POP SWAP3 SWAP2 POP POP JUMP JUMPDEST PUSH2 0x162F DUP2 PUSH2 0x15C3 JUMP JUMPDEST DUP3 MSTORE POP POP JUMP JUMPDEST PUSH1 0x0 PUSH1 0x20 DUP3 ADD SWAP1 POP PUSH2 0x164A PUSH1 0x0 DUP4 ADD DUP5 PUSH2 0x1626 JUMP JUMPDEST SWAP3 SWAP2 POP POP JUMP JUMPDEST PUSH1 0x0 PUSH20 0xFFFFFFFFFFFFFFFFFFFFFFFFFFFFFFFFFFFFFFFF DUP3 AND SWAP1 POP SWAP2 SWAP1 POP JUMP JUMPDEST PUSH1 0x0 PUSH2 0x167B DUP3 PUSH2 0x1650 JUMP JUMPDEST SWAP1 POP SWAP2 SWAP1 POP JUMP JUMPDEST PUSH2 0x168B DUP2 PUSH2 0x1670 JUMP JUMPDEST DUP3 MSTORE POP POP JUMP JUMPDEST PUSH1 0x0 PUSH1 0x20 DUP3 ADD SWAP1 POP PUSH2 0x16A6 PUSH1 0x0 DUP4 ADD DUP5 PUSH2 0x1682 JUMP JUMPDEST SWAP3 SWAP2 POP POP JUMP JUMPDEST PUSH1 0x0 DUP2 ISZERO ISZERO SWAP1 POP SWAP2 SWAP1 POP JUMP JUMPDEST PUSH2 0x16C1 DUP2 PUSH2 0x16AC JUMP JUMPDEST DUP2 EQ PUSH2 0x16CC JUMPI PUSH1 0x0 DUP1 REVERT JUMPDEST POP JUMP JUMPDEST PUSH1 0x0 DUP2 CALLDATALOAD SWAP1 POP PUSH2 0x16DE DUP2 PUSH2 0x16B8 JUMP JUMPDEST SWAP3 SWAP2 POP POP JUMP JUMPDEST PUSH1 0x0 DUP1 PUSH1 0x0 PUSH1 0x60 DUP5 DUP7 SUB SLT ISZERO PUSH2 0x16FD JUMPI PUSH2 0x16FC PUSH2 0x15BE JUMP JUMPDEST JUMPDEST PUSH1 0x0 PUSH2 0x170B DUP7 DUP3 DUP8 ADD PUSH2 0x15E4 JUMP JUMPDEST SWAP4 POP POP PUSH1 0x20 PUSH2 0x171C DUP7 DUP3 DUP8 ADD PUSH2 0x15E4 JUMP JUMPDEST SWAP3 POP POP PUSH1 0x40 PUSH2 0x172D DUP7 DUP3 DUP8 ADD PUSH2 0x16CF JUMP JUMPDEST SWAP2 POP POP SWAP3 POP SWAP3 POP SWAP3 JUMP JUMPDEST PUSH2 0x1740 DUP2 PUSH2 0x1670 JUMP JUMPDEST DUP3 MSTORE POP POP JUMP JUMPDEST PUSH2 0x174F DUP2 PUSH2 0x15C3 JUMP JUMPDEST DUP3 MSTORE POP POP JUMP JUMPDEST PUSH1 0x80 DUP3 ADD PUSH1 0x0 DUP3 ADD MLOAD PUSH2 0x176B PUSH1 0x0 DUP6 ADD DUP3 PUSH2 0x1737 JUMP JUMPDEST POP PUSH1 0x20 DUP3 ADD MLOAD PUSH2 0x177E PUSH1 0x20 DUP6 ADD DUP3 PUSH2 0x1737 JUMP JUMPDEST POP PUSH1 0x40 DUP3 ADD MLOAD PUSH2 0x1791 PUSH1 0x40 DUP6 ADD DUP3 PUSH2 0x1746 JUMP JUMPDEST POP PUSH1 0x60 DUP3 ADD MLOAD PUSH2 0x17A4 PUSH1 0x60 DUP6 ADD DUP3 PUSH2 0x1746 JUMP JUMPDEST POP POP POP POP JUMP JUMPDEST PUSH1 0x0 PUSH1 0x80 DUP3 ADD SWAP1 POP PUSH2 0x17BF PUSH1 0x0 DUP4 ADD DUP5 PUSH2 0x1755 JUMP JUMPDEST SWAP3 SWAP2 POP POP JUMP JUMPDEST PUSH2 0x17CE DUP2 PUSH2 0x1670 JUMP JUMPDEST DUP2 EQ PUSH2 0x17D9 JUMPI PUSH1 0x0 DUP1 REVERT JUMPDEST POP JUMP JUMPDEST PUSH1 0x0 DUP2 CALLDATALOAD SWAP1 POP PUSH2 0x17EB DUP2 PUSH2 0x17C5 JUMP JUMPDEST SWAP3 SWAP2 POP POP JUMP JUMPDEST PUSH1 0x0 PUSH1 0x20 DUP3 DUP5 SUB SLT ISZERO PUSH2 0x1807 JUMPI PUSH2 0x1806 PUSH2 0x15BE JUMP JUMPDEST JUMPDEST PUSH1 0x0 PUSH2 0x1815 DUP5 DUP3 DUP6 ADD PUSH2 0x17DC JUMP JUMPDEST SWAP2 POP POP SWAP3 SWAP2 POP POP JUMP JUMPDEST PUSH1 0x0 DUP2 MLOAD SWAP1 POP PUSH2 0x182D DUP2 PUSH2 0x15CD JUMP JUMPDEST SWAP3 SWAP2 POP POP JUMP JUMPDEST PUSH1 0x0 PUSH1 0x20 DUP3 DUP5 SUB SLT ISZERO PUSH2 0x1849 JUMPI PUSH2 0x1848 PUSH2 0x15BE JUMP JUMPDEST JUMPDEST PUSH1 0x0 PUSH2 0x1857 DUP5 DUP3 DUP6 ADD PUSH2 0x181E JUMP JUMPDEST SWAP2 POP POP SWAP3 SWAP2 POP POP JUMP JUMPDEST PUSH32 0x4E487B7100000000000000000000000000000000000000000000000000000000 PUSH1 0x0 MSTORE PUSH1 0x11 PUSH1 0x4 MSTORE PUSH1 0x24 PUSH1 0x0 REVERT JUMPDEST PUSH1 0x0 PUSH2 0x189A DUP3 PUSH2 0x15C3 JUMP JUMPDEST SWAP2 POP PUSH2 0x18A5 DUP4 PUSH2 0x15C3 JUMP JUMPDEST SWAP3 POP DUP3 DUP3 ADD SWAP1 POP DUP1 DUP3 GT ISZERO PUSH2 0x18BD JUMPI PUSH2 0x18BC PUSH2 0x1860 JUMP JUMPDEST JUMPDEST SWAP3 SWAP2 POP POP JUMP JUMPDEST PUSH1 0x0 PUSH2 0x18CE DUP3 PUSH2 0x15C3 JUMP JUMPDEST SWAP2 POP PUSH2 0x18D9 DUP4 PUSH2 0x15C3 JUMP JUMPDEST SWAP3 POP DUP3 DUP3 SUB SWAP1 POP DUP2 DUP2 GT ISZERO PUSH2 0x18F1 JUMPI PUSH2 0x18F0 PUSH2 0x1860 JUMP JUMPDEST JUMPDEST SWAP3 SWAP2 POP POP JUMP JUMPDEST PUSH1 0x0 PUSH1 0x40 DUP3 ADD SWAP1 POP PUSH2 0x190C PUSH1 0x0 DUP4 ADD DUP6 PUSH2 0x1626 JUMP JUMPDEST PUSH2 0x1919 PUSH1 0x20 DUP4 ADD DUP5 PUSH2 0x1626 JUMP JUMPDEST SWAP4 SWAP3 POP POP POP JUMP JUMPDEST PUSH1 0x0 PUSH2 0x192B DUP3 PUSH2 0x15C3 JUMP JUMPDEST SWAP2 POP PUSH2 0x1936 DUP4 PUSH2 0x15C3 JUMP JUMPDEST SWAP3 POP DUP3 DUP3 MUL PUSH2 0x1944 DUP2 PUSH2 0x15C3 JUMP JUMPDEST SWAP2 POP DUP3 DUP3 DIV DUP5 EQ DUP4 ISZERO OR PUSH2 0x195B JUMPI PUSH2 0x195A PUSH2 0x1860 JUMP JUMPDEST JUMPDEST POP SWAP3 SWAP2 POP POP JUMP JUMPDEST PUSH1 0x0 DUP3 DUP3 MSTORE PUSH1 0x20 DUP3 ADD SWAP1 POP SWAP3 SWAP2 POP POP JUMP JUMPDEST PUSH32 0x4F776E61626C653A206E6577206F776E657220697320746865207A65726F2061 PUSH1 0x0 DUP3 ADD MSTORE PUSH32 0x6464726573730000000000000000000000000000000000000000000000000000 PUSH1 0x20 DUP3 ADD MSTORE POP JUMP JUMPDEST PUSH1 0x0 PUSH2 0x19CF PUSH1 0x26 DUP4 PUSH2 0x1962 JUMP JUMPDEST SWAP2 POP PUSH2 0x19DA DUP3 PUSH2 0x1973 JUMP JUMPDEST PUSH1 0x40 DUP3 ADD SWAP1 POP SWAP2 SWAP1 POP JUMP JUMPDEST PUSH1 0x0 PUSH1 0x20 DUP3 ADD SWAP1 POP DUP2 DUP2 SUB PUSH1 0x0 DUP4 ADD MSTORE PUSH2 0x19FE DUP2 PUSH2 0x19C2 JUMP JUMPDEST SWAP1 POP SWAP2 SWAP1 POP JUMP JUMPDEST PUSH32 0x4E487B7100000000000000000000000000000000000000000000000000000000 PUSH1 0x0 MSTORE PUSH1 0x12 PUSH1 0x4 MSTORE PUSH1 0x24 PUSH1 0x0 REVERT JUMPDEST PUSH1 0x0 PUSH2 0x1A3F DUP3 PUSH2 0x15C3 JUMP JUMPDEST SWAP2 POP PUSH2 0x1A4A DUP4 PUSH2 0x15C3 JUMP JUMPDEST SWAP3 POP DUP3 PUSH2 0x1A5A JUMPI PUSH2 0x1A59 PUSH2 0x1A05 JUMP JUMPDEST JUMPDEST DUP3 DUP3 DIV SWAP1 POP SWAP3 SWAP2 POP POP JUMP JUMPDEST PUSH32 0x496E73756666696369656E74206F757470757420616D6F756E74000000000000 PUSH1 0x0 DUP3 ADD MSTORE POP JUMP JUMPDEST PUSH1 0x0 PUSH2 0x1A9B PUSH1 0x1A DUP4 PUSH2 0x1962 JUMP JUMPDEST SWAP2 POP PUSH2 0x1AA6 DUP3 PUSH2 0x1A65 JUMP JUMPDEST PUSH1 0x20 DUP3 ADD SWAP1 POP SWAP2 SWAP1 POP JUMP JUMPDEST PUSH1 0x0 PUSH1 0x20 DUP3 ADD SWAP1 POP DUP2 DUP2 SUB PUSH1 0x0 DUP4 ADD MSTORE PUSH2 0x1ACA DUP2 PUSH2 0x1A8E JUMP JUMPDEST SWAP1 POP SWAP2 SWAP1 POP JUMP JUMPDEST PUSH1 0x0 PUSH1 0x60 DUP3 ADD SWAP1 POP PUSH2 0x1AE6 PUSH1 0x0 DUP4 ADD DUP7 PUSH2 0x1682 JUMP JUMPDEST PUSH2 0x1AF3 PUSH1 0x20 DUP4 ADD DUP6 PUSH2 0x1682 JUMP JUMPDEST PUSH2 0x1B00 PUSH1 0x40 DUP4 ADD DUP5 PUSH2 0x1626 JUMP JUMPDEST SWAP5 SWAP4 POP POP POP POP JUMP JUMPDEST PUSH1 0x0 DUP2 MLOAD SWAP1 POP PUSH2 0x1B17 DUP2 PUSH2 0x16B8 JUMP JUMPDEST SWAP3 SWAP2 POP POP JUMP JUMPDEST PUSH1 0x0 PUSH1 0x20 DUP3 DUP5 SUB SLT ISZERO PUSH2 0x1B33 JUMPI PUSH2 0x1B32 PUSH2 0x15BE JUMP JUMPDEST JUMPDEST PUSH1 0x0 PUSH2 0x1B41 DUP5 DUP3 DUP6 ADD PUSH2 0x1B08 JUMP JUMPDEST SWAP2 POP POP SWAP3 SWAP2 POP POP JUMP JUMPDEST PUSH1 0x0 PUSH1 0x40 DUP3 ADD SWAP1 POP PUSH2 0x1B5F PUSH1 0x0 DUP4 ADD DUP6 PUSH2 0x1682 JUMP JUMPDEST PUSH2 0x1B6C PUSH1 0x20 DUP4 ADD DUP5 PUSH2 0x1626 JUMP JUMPDEST SWAP4 SWAP3 POP POP POP JUMP JUMPDEST PUSH1 0x0 DUP2 SWAP1 POP SWAP2 SWAP1 POP JUMP JUMPDEST PUSH1 0x0 DUP2 SWAP1 POP SWAP2 SWAP1 POP JUMP JUMPDEST PUSH1 0x0 PUSH2 0x1BA2 PUSH2 0x1B9D PUSH2 0x1B98 DUP5 PUSH2 0x1B73 JUMP JUMPDEST PUSH2 0x1B7D JUMP JUMPDEST PUSH2 0x15C3 JUMP JUMPDEST SWAP1 POP SWAP2 SWAP1 POP JUMP JUMPDEST PUSH2 0x1BB2 DUP2 PUSH2 0x1B87 JUMP JUMPDEST DUP3 MSTORE POP POP JUMP JUMPDEST PUSH1 0x0 PUSH1 0x80 DUP3 ADD SWAP1 POP PUSH2 0x1BCD PUSH1 0x0 DUP4 ADD DUP8 PUSH2 0x1BA9 JUMP JUMPDEST PUSH2 0x1BDA PUSH1 0x20 DUP4 ADD DUP7 PUSH2 0x1626 JUMP JUMPDEST PUSH2 0x1BE7 PUSH1 0x40 DUP4 ADD DUP6 PUSH2 0x1626 JUMP JUMPDEST PUSH2 0x1BF4 PUSH1 0x60 DUP4 ADD DUP5 PUSH2 0x1BA9 JUMP JUMPDEST SWAP6 SWAP5 POP POP POP POP POP JUMP JUMPDEST PUSH1 0x0 PUSH1 0x80 DUP3 ADD SWAP1 POP PUSH2 0x1C12 PUSH1 0x0 DUP4 ADD DUP8 PUSH2 0x1626 JUMP JUMPDEST PUSH2 0x1C1F PUSH1 0x20 DUP4 ADD DUP7 PUSH2 0x1BA9 JUMP JUMPDEST PUSH2 0x1C2C PUSH1 0x40 DUP4 ADD DUP6 PUSH2 0x1BA9 JUMP JUMPDEST PUSH2 0x1C39 PUSH1 0x60 DUP4 ADD DUP5 PUSH2 0x1626 JUMP JUMPDEST SWAP6 SWAP5 POP POP POP POP POP JUMP JUMPDEST PUSH32 0x4F776E61626C653A2063616C6C6572206973206E6F7420746865206F776E6572 PUSH1 0x0 DUP3 ADD MSTORE POP JUMP JUMPDEST PUSH1 0x0 PUSH2 0x1C78 PUSH1 0x20 DUP4 PUSH2 0x1962 JUMP JUMPDEST SWAP2 POP PUSH2 0x1C83 DUP3 PUSH2 0x1C42 JUMP JUMPDEST PUSH1 0x20 DUP3 ADD SWAP1 POP SWAP2 SWAP1 POP JUMP JUMPDEST PUSH1 0x0 PUSH1 0x20 DUP3 ADD SWAP1 POP DUP2 DUP2 SUB PUSH1 0x0 DUP4 ADD MSTORE PUSH2 0x1CA7 DUP2 PUSH2 0x1C6B JUMP JUMPDEST SWAP1 POP SWAP2 SWAP1 POP JUMP INVALID LOG2 PUSH5 0x6970667358 0x22 SLT KECCAK256 DUP8 0xEA 0xC GT SWAP11 ADD PUSH32 0xD67B4457A9592A6A61F6967FFAC84E58CB37311DD27271A01D64736F6C634300 ADDMOD SLT STOP CALLER "
		},
		"gasEstimates": {
			"creation": {
				"codeDepositCost": "1479200",
				"executionCost": "infinite",
				"totalCost": "infinite"
			},
			"external": {
				"factory()": "2536",
				"factoryOwner()": "2559",
				"getProps()": "infinite",
				"kConstant()": "2518",
				"owner()": "2567",
				"protocolFee()": "2540",
				"renounceOwnership()": "30509",
				"swap(uint256,uint256,bool)": "infinite",
				"testKConstant()": "infinite",
				"token0()": "2560",
				"token0BasePrice()": "2517",
				"token0Constant()": "2518",
				"token0DepositAmount()": "2452",
				"token0MaxPrice()": "2452",
				"token0Output(uint256)": "infinite",
				"token1()": "2558",
				"token1Constant()": "2519",
				"token1DepositAmount()": "2497",
				"token1Output(uint256)": "infinite",
				"transferOwnership(address)": "30854"
			},
			"internal": {
				"_buy(uint256,uint256)": "infinite",
				"_sell(uint256,uint256)": "infinite",
				"calcToken0Constant(uint256,uint256,uint256)": "infinite",
				"calcToken1Constant(address,uint256,uint256,uint256,uint256)": "infinite"
			}
		},
		"methodIdentifiers": {
			"factory()": "c45a0155",
			"factoryOwner()": "4273601c",
			"getProps()": "ec1893b4",
			"kConstant()": "5a656c24",
			"owner()": "8da5cb5b",
			"protocolFee()": "b0e21e8a",
			"renounceOwnership()": "715018a6",
			"swap(uint256,uint256,bool)": "2bec60fe",
			"testKConstant()": "433065d0",
			"token0()": "0dfe1681",
			"token0BasePrice()": "ef3501b9",
			"token0Constant()": "aff56c14",
			"token0DepositAmount()": "7c07a380",
			"token0MaxPrice()": "364abc3d",
			"token0Output(uint256)": "04786ab4",
			"token1()": "d21220a7",
			"token1Constant()": "1cf2128c",
			"token1DepositAmount()": "13724b70",
			"token1Output(uint256)": "9f8e55d6",
			"transferOwnership(address)": "f2fde38b"
		}
	},
	"abi": [
		{
			"inputs": [
				{
					"internalType": "address",
					"name": "_factory",
					"type": "address"
				},
				{
					"internalType": "address",
					"name": "_factoryOwner",
					"type": "address"
				},
				{
					"internalType": "address",
					"name": "_token0",
					"type": "address"
				},
				{
					"internalType": "address",
					"name": "_token1",
					"type": "address"
				},
				{
					"internalType": "uint256",
					"name": "_token0DepositAmount",
					"type": "uint256"
				},
				{
					"internalType": "uint256",
					"name": "_token1DepositAmount",
					"type": "uint256"
				},
				{
					"internalType": "uint256",
					"name": "_token0BasePrice",
					"type": "uint256"
				},
				{
					"internalType": "uint256",
					"name": "_token0MaxPrice",
					"type": "uint256"
				},
				{
					"internalType": "uint256",
					"name": "_protocolFee",
					"type": "uint256"
				}
			],
			"stateMutability": "nonpayable",
			"type": "constructor"
		},
		{
			"anonymous": false,
			"inputs": [
				{
					"indexed": true,
					"internalType": "address",
					"name": "previousOwner",
					"type": "address"
				},
				{
					"indexed": true,
					"internalType": "address",
					"name": "newOwner",
					"type": "address"
				}
			],
			"name": "OwnershipTransferred",
			"type": "event"
		},
		{
			"anonymous": false,
			"inputs": [
				{
					"indexed": true,
					"internalType": "address",
					"name": "sender",
					"type": "address"
				},
				{
					"indexed": false,
					"internalType": "uint256",
					"name": "amount0In",
					"type": "uint256"
				},
				{
					"indexed": false,
					"internalType": "uint256",
					"name": "amount1In",
					"type": "uint256"
				},
				{
					"indexed": false,
					"internalType": "uint256",
					"name": "amount0Out",
					"type": "uint256"
				},
				{
					"indexed": false,
					"internalType": "uint256",
					"name": "amount1Out",
					"type": "uint256"
				},
				{
					"indexed": true,
					"internalType": "address",
					"name": "to",
					"type": "address"
				}
			],
			"name": "Swap",
			"type": "event"
		},
		{
			"anonymous": false,
			"inputs": [
				{
					"indexed": false,
					"internalType": "uint256",
					"name": "reserve0",
					"type": "uint256"
				},
				{
					"indexed": false,
					"internalType": "uint256",
					"name": "reserve1",
					"type": "uint256"
				}
			],
			"name": "Sync",
			"type": "event"
		},
		{
			"inputs": [],
			"name": "factory",
			"outputs": [
				{
					"internalType": "address",
					"name": "",
					"type": "address"
				}
			],
			"stateMutability": "view",
			"type": "function"
		},
		{
			"inputs": [],
			"name": "factoryOwner",
			"outputs": [
				{
					"internalType": "address",
					"name": "",
					"type": "address"
				}
			],
			"stateMutability": "view",
			"type": "function"
		},
		{
			"inputs": [],
			"name": "getProps",
			"outputs": [
				{
					"components": [
						{
							"internalType": "address",
							"name": "token0",
							"type": "address"
						},
						{
							"internalType": "address",
							"name": "token1",
							"type": "address"
						},
						{
							"internalType": "uint256",
							"name": "token0Locked",
							"type": "uint256"
						},
						{
							"internalType": "uint256",
							"name": "token1Locked",
							"type": "uint256"
						}
					],
					"internalType": "struct LiquidityPool.Props",
					"name": "",
					"type": "tuple"
				}
			],
			"stateMutability": "view",
			"type": "function"
		},
		{
			"inputs": [],
			"name": "kConstant",
			"outputs": [
				{
					"internalType": "uint256",
					"name": "",
					"type": "uint256"
				}
			],
			"stateMutability": "view",
			"type": "function"
		},
		{
			"inputs": [],
			"name": "owner",
			"outputs": [
				{
					"internalType": "address",
					"name": "",
					"type": "address"
				}
			],
			"stateMutability": "view",
			"type": "function"
		},
		{
			"inputs": [],
			"name": "protocolFee",
			"outputs": [
				{
					"internalType": "uint256",
					"name": "",
					"type": "uint256"
				}
			],
			"stateMutability": "view",
			"type": "function"
		},
		{
			"inputs": [],
			"name": "renounceOwnership",
			"outputs": [],
			"stateMutability": "nonpayable",
			"type": "function"
		},
		{
			"inputs": [
				{
					"internalType": "uint256",
					"name": "_amountTokenIn",
					"type": "uint256"
				},
				{
					"internalType": "uint256",
					"name": "_minAmountTokenOut",
					"type": "uint256"
				},
				{
					"internalType": "bool",
					"name": "_isBuy",
					"type": "bool"
				}
			],
			"name": "swap",
			"outputs": [],
			"stateMutability": "nonpayable",
			"type": "function"
		},
		{
			"inputs": [],
			"name": "testKConstant",
			"outputs": [
				{
					"internalType": "uint256",
					"name": "",
					"type": "uint256"
				}
			],
			"stateMutability": "view",
			"type": "function"
		},
		{
			"inputs": [],
			"name": "token0",
			"outputs": [
				{
					"internalType": "address",
					"name": "",
					"type": "address"
				}
			],
			"stateMutability": "view",
			"type": "function"
		},
		{
			"inputs": [],
			"name": "token0BasePrice",
			"outputs": [
				{
					"internalType": "uint256",
					"name": "",
					"type": "uint256"
				}
			],
			"stateMutability": "view",
			"type": "function"
		},
		{
			"inputs": [],
			"name": "token0Constant",
			"outputs": [
				{
					"internalType": "uint256",
					"name": "",
					"type": "uint256"
				}
			],
			"stateMutability": "view",
			"type": "function"
		},
		{
			"inputs": [],
			"name": "token0DepositAmount",
			"outputs": [
				{
					"internalType": "uint256",
					"name": "",
					"type": "uint256"
				}
			],
			"stateMutability": "view",
			"type": "function"
		},
		{
			"inputs": [],
			"name": "token0MaxPrice",
			"outputs": [
				{
					"internalType": "uint256",
					"name": "",
					"type": "uint256"
				}
			],
			"stateMutability": "view",
			"type": "function"
		},
		{
			"inputs": [
				{
					"internalType": "uint256",
					"name": "_token1Input",
					"type": "uint256"
				}
			],
			"name": "token0Output",
			"outputs": [
				{
					"internalType": "uint256",
					"name": "",
					"type": "uint256"
				}
			],
			"stateMutability": "view",
			"type": "function"
		},
		{
			"inputs": [],
			"name": "token1",
			"outputs": [
				{
					"internalType": "address",
					"name": "",
					"type": "address"
				}
			],
			"stateMutability": "view",
			"type": "function"
		},
		{
			"inputs": [],
			"name": "token1Constant",
			"outputs": [
				{
					"internalType": "uint256",
					"name": "",
					"type": "uint256"
				}
			],
			"stateMutability": "view",
			"type": "function"
		},
		{
			"inputs": [],
			"name": "token1DepositAmount",
			"outputs": [
				{
					"internalType": "uint256",
					"name": "",
					"type": "uint256"
				}
			],
			"stateMutability": "view",
			"type": "function"
		},
		{
			"inputs": [
				{
					"internalType": "uint256",
					"name": "_token0Input",
					"type": "uint256"
				}
			],
			"name": "token1Output",
			"outputs": [
				{
					"internalType": "uint256",
					"name": "",
					"type": "uint256"
				}
			],
			"stateMutability": "view",
			"type": "function"
		},
		{
			"inputs": [
				{
					"internalType": "address",
					"name": "newOwner",
					"type": "address"
				}
			],
			"name": "transferOwnership",
			"outputs": [],
			"stateMutability": "nonpayable",
			"type": "function"
		}
	]
}