{
	"SmartContracts/contracts/Token.sol": {
		"Token": {
			"abi": [
				{
					"inputs": [],
					"stateMutability": "nonpayable",
					"type": "constructor"
				},
				{
					"anonymous": false,
					"inputs": [
						{
							"indexed": true,
							"internalType": "address",
							"name": "owner",
							"type": "address"
						},
						{
							"indexed": true,
							"internalType": "address",
							"name": "spender",
							"type": "address"
						},
						{
							"indexed": false,
							"internalType": "uint256",
							"name": "value",
							"type": "uint256"
						}
					],
					"name": "Approval",
					"type": "event"
				},
				{
					"anonymous": false,
					"inputs": [
						{
							"indexed": true,
							"internalType": "address",
							"name": "previousOwner",
							"type": "address"
						},
						{
							"indexed": true,
							"internalType": "address",
							"name": "newOwner",
							"type": "address"
						}
					],
					"name": "OwnershipTransferred",
					"type": "event"
				},
				{
					"anonymous": false,
					"inputs": [
						{
							"indexed": true,
							"internalType": "address",
							"name": "from",
							"type": "address"
						},
						{
							"indexed": true,
							"internalType": "address",
							"name": "to",
							"type": "address"
						},
						{
							"indexed": false,
							"internalType": "uint256",
							"name": "value",
							"type": "uint256"
						}
					],
					"name": "Transfer",
					"type": "event"
				},
				{
					"inputs": [
						{
							"internalType": "address",
							"name": "owner",
							"type": "address"
						},
						{
							"internalType": "address",
							"name": "spender",
							"type": "address"
						}
					],
					"name": "allowance",
					"outputs": [
						{
							"internalType": "uint256",
							"name": "",
							"type": "uint256"
						}
					],
					"stateMutability": "view",
					"type": "function"
				},
				{
					"inputs": [
						{
							"internalType": "address",
							"name": "spender",
							"type": "address"
						},
						{
							"internalType": "uint256",
							"name": "amount",
							"type": "uint256"
						}
					],
					"name": "approve",
					"outputs": [
						{
							"internalType": "bool",
							"name": "",
							"type": "bool"
						}
					],
					"stateMutability": "nonpayable",
					"type": "function"
				},
				{
					"inputs": [
						{
							"internalType": "address",
							"name": "account",
							"type": "address"
						}
					],
					"name": "balanceOf",
					"outputs": [
						{
							"internalType": "uint256",
							"name": "",
							"type": "uint256"
						}
					],
					"stateMutability": "view",
					"type": "function"
				},
				{
					"inputs": [
						{
							"internalType": "address",
							"name": "account",
							"type": "address"
						},
						{
							"internalType": "uint256",
							"name": "amount",
							"type": "uint256"
						}
					],
					"name": "burn",
					"outputs": [],
					"stateMutability": "nonpayable",
					"type": "function"
				},
				{
					"inputs": [],
					"name": "decimals",
					"outputs": [
						{
							"internalType": "uint8",
							"name": "",
							"type": "uint8"
						}
					],
					"stateMutability": "view",
					"type": "function"
				},
				{
					"inputs": [
						{
							"internalType": "address",
							"name": "spender",
							"type": "address"
						},
						{
							"internalType": "uint256",
							"name": "subtractedValue",
							"type": "uint256"
						}
					],
					"name": "decreaseAllowance",
					"outputs": [
						{
							"internalType": "bool",
							"name": "",
							"type": "bool"
						}
					],
					"stateMutability": "nonpayable",
					"type": "function"
				},
				{
					"inputs": [
						{
							"internalType": "address",
							"name": "spender",
							"type": "address"
						},
						{
							"internalType": "uint256",
							"name": "addedValue",
							"type": "uint256"
						}
					],
					"name": "increaseAllowance",
					"outputs": [
						{
							"internalType": "bool",
							"name": "",
							"type": "bool"
						}
					],
					"stateMutability": "nonpayable",
					"type": "function"
				},
				{
					"inputs": [
						{
							"internalType": "address",
							"name": "account",
							"type": "address"
						},
						{
							"internalType": "uint256",
							"name": "amount",
							"type": "uint256"
						}
					],
					"name": "mint",
					"outputs": [],
					"stateMutability": "nonpayable",
					"type": "function"
				},
				{
					"inputs": [],
					"name": "name",
					"outputs": [
						{
							"internalType": "string",
							"name": "",
							"type": "string"
						}
					],
					"stateMutability": "view",
					"type": "function"
				},
				{
					"inputs": [],
					"name": "owner",
					"outputs": [
						{
							"internalType": "address",
							"name": "",
							"type": "address"
						}
					],
					"stateMutability": "view",
					"type": "function"
				},
				{
					"inputs": [],
					"name": "renounceOwnership",
					"outputs": [],
					"stateMutability": "nonpayable",
					"type": "function"
				},
				{
					"inputs": [],
					"name": "symbol",
					"outputs": [
						{
							"internalType": "string",
							"name": "",
							"type": "string"
						}
					],
					"stateMutability": "view",
					"type": "function"
				},
				{
					"inputs": [],
					"name": "totalSupply",
					"outputs": [
						{
							"internalType": "uint256",
							"name": "",
							"type": "uint256"
						}
					],
					"stateMutability": "view",
					"type": "function"
				},
				{
					"inputs": [
						{
							"internalType": "address",
							"name": "to",
							"type": "address"
						},
						{
							"internalType": "uint256",
							"name": "amount",
							"type": "uint256"
						}
					],
					"name": "transfer",
					"outputs": [
						{
							"internalType": "bool",
							"name": "",
							"type": "bool"
						}
					],
					"stateMutability": "nonpayable",
					"type": "function"
				},
				{
					"inputs": [
						{
							"internalType": "address",
							"name": "from",
							"type": "address"
						},
						{
							"internalType": "address",
							"name": "to",
							"type": "address"
						},
						{
							"internalType": "uint256",
							"name": "amount",
							"type": "uint256"
						}
					],
					"name": "transferFrom",
					"outputs": [
						{
							"internalType": "bool",
							"name": "",
							"type": "bool"
						}
					],
					"stateMutability": "nonpayable",
					"type": "function"
				},
				{
					"inputs": [
						{
							"internalType": "address",
							"name": "newOwner",
							"type": "address"
						}
					],
					"name": "transferOwnership",
					"outputs": [],
					"stateMutability": "nonpayable",
					"type": "function"
				}
			],
			"devdoc": {
				"events": {
					"Approval(address,address,uint256)": {
						"details": "Emitted when the allowance of a `spender` for an `owner` is set by a call to {approve}. `value` is the new allowance."
					},
					"Transfer(address,address,uint256)": {
						"details": "Emitted when `value` tokens are moved from one account (`from`) to another (`to`). Note that `value` may be zero."
					}
				},
				"kind": "dev",
				"methods": {
					"allowance(address,address)": {
						"details": "See {IERC20-allowance}."
					},
					"approve(address,uint256)": {
						"details": "See {IERC20-approve}. NOTE: If `amount` is the maximum `uint256`, the allowance is not updated on `transferFrom`. This is semantically equivalent to an infinite approval. Requirements: - `spender` cannot be the zero address."
					},
					"balanceOf(address)": {
						"details": "See {IERC20-balanceOf}."
					},
					"decimals()": {
						"details": "Returns the number of decimals used to get its user representation. For example, if `decimals` equals `2`, a balance of `505` tokens should be displayed to a user as `5.05` (`505 / 10 ** 2`). Tokens usually opt for a value of 18, imitating the relationship between Ether and Wei. This is the default value returned by this function, unless it's overridden. NOTE: This information is only used for _display_ purposes: it in no way affects any of the arithmetic of the contract, including {IERC20-balanceOf} and {IERC20-transfer}."
					},
					"decreaseAllowance(address,uint256)": {
						"details": "Atomically decreases the allowance granted to `spender` by the caller. This is an alternative to {approve} that can be used as a mitigation for problems described in {IERC20-approve}. Emits an {Approval} event indicating the updated allowance. Requirements: - `spender` cannot be the zero address. - `spender` must have allowance for the caller of at least `subtractedValue`."
					},
					"increaseAllowance(address,uint256)": {
						"details": "Atomically increases the allowance granted to `spender` by the caller. This is an alternative to {approve} that can be used as a mitigation for problems described in {IERC20-approve}. Emits an {Approval} event indicating the updated allowance. Requirements: - `spender` cannot be the zero address."
					},
					"name()": {
						"details": "Returns the name of the token."
					},
					"owner()": {
						"details": "Returns the address of the current owner."
					},
					"renounceOwnership()": {
						"details": "Leaves the contract without owner. It will not be possible to call `onlyOwner` functions. Can only be called by the current owner. NOTE: Renouncing ownership will leave the contract without an owner, thereby disabling any functionality that is only available to the owner."
					},
					"symbol()": {
						"details": "Returns the symbol of the token, usually a shorter version of the name."
					},
					"totalSupply()": {
						"details": "See {IERC20-totalSupply}."
					},
					"transfer(address,uint256)": {
						"details": "See {IERC20-transfer}. Requirements: - `to` cannot be the zero address. - the caller must have a balance of at least `amount`."
					},
					"transferFrom(address,address,uint256)": {
						"details": "See {IERC20-transferFrom}. Emits an {Approval} event indicating the updated allowance. This is not required by the EIP. See the note at the beginning of {ERC20}. NOTE: Does not update the allowance if the current allowance is the maximum `uint256`. Requirements: - `from` and `to` cannot be the zero address. - `from` must have a balance of at least `amount`. - the caller must have allowance for ``from``'s tokens of at least `amount`."
					},
					"transferOwnership(address)": {
						"details": "Transfers ownership of the contract to a new account (`newOwner`). Can only be called by the current owner."
					}
				},
				"version": 1
			},
			"evm": {
				"assembly": "    /* \"SmartContracts/contracts/Token.sol\":167:606  contract Token is ERC20, Ownable {... */\n  mstore(0x40, 0x80)\n    /* \"SmartContracts/contracts/Token.sol\":206:254  constructor() ERC20(\"StarCi Token\", \"STARCI\") {} */\n  callvalue\n  dup1\n  iszero\n  tag_1\n  jumpi\n  0x00\n  dup1\n  revert\ntag_1:\n  pop\n    /* \"@openzeppelin/contracts/token/ERC20/ERC20.sol\":1980:2093  constructor(string memory name_, string memory symbol_) {... */\n  mload(0x40)\n  dup1\n  0x40\n  add\n  0x40\n  mstore\n  dup1\n  0x0c\n  dup2\n  mstore\n  0x20\n  add\n  shl(0xa1, 0x29ba30b921b4902a37b5b2b7)\n  dup2\n  mstore\n  pop\n  mload(0x40)\n  dup1\n  0x40\n  add\n  0x40\n  mstore\n  dup1\n  0x06\n  dup2\n  mstore\n  0x20\n  add\n  shl(0xd0, 0x535441524349)\n  dup2\n  mstore\n  pop\n    /* \"@openzeppelin/contracts/token/ERC20/ERC20.sol\":2054:2059  name_ */\n  dup2\n    /* \"@openzeppelin/contracts/token/ERC20/ERC20.sol\":2046:2051  _name */\n  0x03\n    /* \"@openzeppelin/contracts/token/ERC20/ERC20.sol\":2046:2059  _name = name_ */\n  swap1\n  dup2\n  tag_6\n  swap2\n  swap1\n  tag_7\n  jump\t// in\ntag_6:\n  pop\n    /* \"@openzeppelin/contracts/token/ERC20/ERC20.sol\":2069:2076  _symbol */\n  0x04\n    /* \"@openzeppelin/contracts/token/ERC20/ERC20.sol\":2069:2086  _symbol = symbol_ */\n  tag_8\n    /* \"@openzeppelin/contracts/token/ERC20/ERC20.sol\":2079:2086  symbol_ */\n  dup3\n    /* \"@openzeppelin/contracts/token/ERC20/ERC20.sol\":2069:2076  _symbol */\n  dup3\n    /* \"@openzeppelin/contracts/token/ERC20/ERC20.sol\":2069:2086  _symbol = symbol_ */\n  tag_7\n  jump\t// in\ntag_8:\n  pop\n    /* \"@openzeppelin/contracts/token/ERC20/ERC20.sol\":1980:2093  constructor(string memory name_, string memory symbol_) {... */\n  pop\n  pop\n    /* \"@openzeppelin/contracts/access/Ownable.sol\":936:968  _transferOwnership(_msgSender()) */\n  tag_10\n    /* \"@openzeppelin/contracts/access/Ownable.sol\":955:967  _msgSender() */\n  tag_11\n    /* \"@openzeppelin/contracts/access/Ownable.sol\":955:965  _msgSender */\n  shl(0x20, tag_12)\n    /* \"@openzeppelin/contracts/access/Ownable.sol\":955:967  _msgSender() */\n  0x20\n  shr\n  jump\t// in\ntag_11:\n    /* \"@openzeppelin/contracts/access/Ownable.sol\":936:954  _transferOwnership */\n  tag_13\n    /* \"@openzeppelin/contracts/access/Ownable.sol\":936:968  _transferOwnership(_msgSender()) */\n  jump\t// in\ntag_10:\n    /* \"SmartContracts/contracts/Token.sol\":167:606  contract Token is ERC20, Ownable {... */\n  jump(tag_23)\n    /* \"@openzeppelin/contracts/utils/Context.sol\":640:736  function _msgSender() internal view virtual returns (address) {... */\ntag_12:\n    /* \"@openzeppelin/contracts/utils/Context.sol\":719:729  msg.sender */\n  caller\n  swap1\n    /* \"@openzeppelin/contracts/utils/Context.sol\":640:736  function _msgSender() internal view virtual returns (address) {... */\n  jump\t// out\n    /* \"@openzeppelin/contracts/access/Ownable.sol\":2426:2613  function _transferOwnership(address newOwner) internal virtual {... */\ntag_13:\n    /* \"@openzeppelin/contracts/access/Ownable.sol\":2518:2524  _owner */\n  0x05\n  dup1\n  sload\n  sub(shl(0xa0, 0x01), 0x01)\n    /* \"@openzeppelin/contracts/access/Ownable.sol\":2534:2551  _owner = newOwner */\n  dup4\n  dup2\n  and\n  not(sub(shl(0xa0, 0x01), 0x01))\n  dup4\n  and\n  dup2\n  or\n  swap1\n  swap4\n  sstore\n    /* \"@openzeppelin/contracts/access/Ownable.sol\":2566:2606  OwnershipTransferred(oldOwner, newOwner) */\n  mload(0x40)\n    /* \"@openzeppelin/contracts/access/Ownable.sol\":2518:2524  _owner */\n  swap2\n  and\n  swap2\n    /* \"@openzeppelin/contracts/access/Ownable.sol\":2534:2551  _owner = newOwner */\n  swap1\n    /* \"@openzeppelin/contracts/access/Ownable.sol\":2518:2524  _owner */\n  dup3\n  swap1\n    /* \"@openzeppelin/contracts/access/Ownable.sol\":2566:2606  OwnershipTransferred(oldOwner, newOwner) */\n  0x8be0079c531659141344cd1fd0a4f28419497f9722a3daafe3b4186f6b6457e0\n  swap1\n    /* \"@openzeppelin/contracts/access/Ownable.sol\":2499:2515  address oldOwner */\n  0x00\n  swap1\n    /* \"@openzeppelin/contracts/access/Ownable.sol\":2566:2606  OwnershipTransferred(oldOwner, newOwner) */\n  log3\n    /* \"@openzeppelin/contracts/access/Ownable.sol\":2489:2613  {... */\n  pop\n    /* \"@openzeppelin/contracts/access/Ownable.sol\":2426:2613  function _transferOwnership(address newOwner) internal virtual {... */\n  pop\n  jump\t// out\n    /* \"#utility.yul\":14:141   */\ntag_18:\n    /* \"#utility.yul\":75:85   */\n  0x4e487b71\n    /* \"#utility.yul\":70:73   */\n  0xe0\n    /* \"#utility.yul\":66:86   */\n  shl\n    /* \"#utility.yul\":63:64   */\n  0x00\n    /* \"#utility.yul\":56:87   */\n  mstore\n    /* \"#utility.yul\":106:110   */\n  0x41\n    /* \"#utility.yul\":103:104   */\n  0x04\n    /* \"#utility.yul\":96:111   */\n  mstore\n    /* \"#utility.yul\":130:134   */\n  0x24\n    /* \"#utility.yul\":127:128   */\n  0x00\n    /* \"#utility.yul\":120:135   */\n  revert\n    /* \"#utility.yul\":146:526   */\ntag_19:\n    /* \"#utility.yul\":225:226   */\n  0x01\n    /* \"#utility.yul\":221:233   */\n  dup2\n  dup2\n  shr\n  swap1\n    /* \"#utility.yul\":268:280   */\n  dup3\n  and\n  dup1\n    /* \"#utility.yul\":289:350   */\n  tag_26\n  jumpi\n    /* \"#utility.yul\":343:347   */\n  0x7f\n    /* \"#utility.yul\":335:341   */\n  dup3\n    /* \"#utility.yul\":331:348   */\n  and\n    /* \"#utility.yul\":321:348   */\n  swap2\n  pop\n    /* \"#utility.yul\":289:350   */\ntag_26:\n    /* \"#utility.yul\":396:398   */\n  0x20\n    /* \"#utility.yul\":388:394   */\n  dup3\n    /* \"#utility.yul\":385:399   */\n  lt\n    /* \"#utility.yul\":365:383   */\n  dup2\n    /* \"#utility.yul\":362:400   */\n  sub\n    /* \"#utility.yul\":359:520   */\n  tag_27\n  jumpi\n    /* \"#utility.yul\":442:452   */\n  0x4e487b71\n    /* \"#utility.yul\":437:440   */\n  0xe0\n    /* \"#utility.yul\":433:453   */\n  shl\n    /* \"#utility.yul\":430:431   */\n  0x00\n    /* \"#utility.yul\":423:454   */\n  mstore\n    /* \"#utility.yul\":477:481   */\n  0x22\n    /* \"#utility.yul\":474:475   */\n  0x04\n    /* \"#utility.yul\":467:482   */\n  mstore\n    /* \"#utility.yul\":505:509   */\n  0x24\n    /* \"#utility.yul\":502:503   */\n  0x00\n    /* \"#utility.yul\":495:510   */\n  revert\n    /* \"#utility.yul\":359:520   */\ntag_27:\n  pop\n    /* \"#utility.yul\":146:526   */\n  swap2\n  swap1\n  pop\n  jump\t// out\n    /* \"#utility.yul\":657:1202   */\ntag_21:\n    /* \"#utility.yul\":759:761   */\n  0x1f\n    /* \"#utility.yul\":754:757   */\n  dup3\n    /* \"#utility.yul\":751:762   */\n  gt\n    /* \"#utility.yul\":748:1196   */\n  iszero\n  tag_30\n  jumpi\n    /* \"#utility.yul\":795:796   */\n  0x00\n    /* \"#utility.yul\":820:825   */\n  dup2\n    /* \"#utility.yul\":816:818   */\n  dup2\n    /* \"#utility.yul\":809:826   */\n  mstore\n    /* \"#utility.yul\":865:869   */\n  0x20\n    /* \"#utility.yul\":861:863   */\n  dup2\n    /* \"#utility.yul\":851:870   */\n  keccak256\n    /* \"#utility.yul\":935:937   */\n  0x1f\n    /* \"#utility.yul\":923:933   */\n  dup6\n    /* \"#utility.yul\":919:938   */\n  add\n    /* \"#utility.yul\":916:917   */\n  0x05\n    /* \"#utility.yul\":912:939   */\n  shr\n    /* \"#utility.yul\":906:910   */\n  dup2\n    /* \"#utility.yul\":902:940   */\n  add\n    /* \"#utility.yul\":971:975   */\n  0x20\n    /* \"#utility.yul\":959:969   */\n  dup7\n    /* \"#utility.yul\":956:976   */\n  lt\n    /* \"#utility.yul\":953:1000   */\n  iszero\n  tag_31\n  jumpi\n  pop\n    /* \"#utility.yul\":994:998   */\n  dup1\n    /* \"#utility.yul\":953:1000   */\ntag_31:\n    /* \"#utility.yul\":1049:1051   */\n  0x1f\n    /* \"#utility.yul\":1044:1047   */\n  dup6\n    /* \"#utility.yul\":1040:1052   */\n  add\n    /* \"#utility.yul\":1037:1038   */\n  0x05\n    /* \"#utility.yul\":1033:1053   */\n  shr\n    /* \"#utility.yul\":1027:1031   */\n  dup3\n    /* \"#utility.yul\":1023:1054   */\n  add\n    /* \"#utility.yul\":1013:1054   */\n  swap2\n  pop\n    /* \"#utility.yul\":1104:1186   */\ntag_32:\n    /* \"#utility.yul\":1122:1124   */\n  dup2\n    /* \"#utility.yul\":1115:1120   */\n  dup2\n    /* \"#utility.yul\":1112:1125   */\n  lt\n    /* \"#utility.yul\":1104:1186   */\n  iszero\n  tag_34\n  jumpi\n    /* \"#utility.yul\":1167:1184   */\n  dup3\n  dup2\n  sstore\n    /* \"#utility.yul\":1148:1149   */\n  0x01\n    /* \"#utility.yul\":1137:1150   */\n  add\n    /* \"#utility.yul\":1104:1186   */\n  jump(tag_32)\ntag_34:\n    /* \"#utility.yul\":1108:1111   */\n  pop\n  pop\n  pop\n    /* \"#utility.yul\":748:1196   */\ntag_30:\n    /* \"#utility.yul\":657:1202   */\n  pop\n  pop\n  pop\n  jump\t// out\n    /* \"#utility.yul\":1378:2730   */\ntag_7:\n    /* \"#utility.yul\":1498:1508   */\n  dup2\n  mload\n  sub(shl(0x40, 0x01), 0x01)\n    /* \"#utility.yul\":1520:1550   */\n  dup2\n  gt\n    /* \"#utility.yul\":1517:1573   */\n  iszero\n  tag_38\n  jumpi\n    /* \"#utility.yul\":1553:1571   */\n  tag_38\n  tag_18\n  jump\t// in\ntag_38:\n    /* \"#utility.yul\":1582:1679   */\n  tag_39\n    /* \"#utility.yul\":1672:1678   */\n  dup2\n    /* \"#utility.yul\":1632:1670   */\n  tag_40\n    /* \"#utility.yul\":1664:1668   */\n  dup5\n    /* \"#utility.yul\":1658:1669   */\n  sload\n    /* \"#utility.yul\":1632:1670   */\n  tag_19\n  jump\t// in\ntag_40:\n    /* \"#utility.yul\":1626:1630   */\n  dup5\n    /* \"#utility.yul\":1582:1679   */\n  tag_21\n  jump\t// in\ntag_39:\n    /* \"#utility.yul\":1734:1738   */\n  0x20\n  dup1\n    /* \"#utility.yul\":1798:1800   */\n  0x1f\n    /* \"#utility.yul\":1787:1801   */\n  dup4\n  gt\n    /* \"#utility.yul\":1815:1816   */\n  0x01\n    /* \"#utility.yul\":1810:2473   */\n  dup2\n  eq\n  tag_42\n  jumpi\n    /* \"#utility.yul\":2517:2518   */\n  0x00\n    /* \"#utility.yul\":2534:2540   */\n  dup5\n    /* \"#utility.yul\":2531:2620   */\n  iszero\n  tag_43\n  jumpi\n  pop\n    /* \"#utility.yul\":2586:2605   */\n  dup6\n  dup4\n  add\n    /* \"#utility.yul\":2580:2606   */\n  mload\n    /* \"#utility.yul\":2531:2620   */\ntag_43:\n  not(0x00)\n    /* \"#utility.yul\":1335:1336   */\n  0x03\n    /* \"#utility.yul\":1331:1342   */\n  dup7\n  swap1\n  shl\n    /* \"#utility.yul\":1327:1351   */\n  shr\n    /* \"#utility.yul\":1323:1352   */\n  not\n    /* \"#utility.yul\":1313:1353   */\n  and\n    /* \"#utility.yul\":1359:1360   */\n  0x01\n    /* \"#utility.yul\":1355:1366   */\n  dup6\n  swap1\n  shl\n    /* \"#utility.yul\":1310:1367   */\n  or\n    /* \"#utility.yul\":2633:2714   */\n  dup6\n  sstore\n    /* \"#utility.yul\":1780:2724   */\n  jump(tag_34)\n    /* \"#utility.yul\":1810:2473   */\ntag_42:\n    /* \"#utility.yul\":604:605   */\n  0x00\n    /* \"#utility.yul\":597:611   */\n  dup6\n  dup2\n  mstore\n    /* \"#utility.yul\":641:645   */\n  0x20\n    /* \"#utility.yul\":628:646   */\n  dup2\n  keccak256\n  not(0x1f)\n    /* \"#utility.yul\":1846:1866   */\n  dup7\n  and\n  swap2\n    /* \"#utility.yul\":1964:2200   */\ntag_46:\n    /* \"#utility.yul\":1978:1985   */\n  dup3\n    /* \"#utility.yul\":1975:1976   */\n  dup2\n    /* \"#utility.yul\":1972:1986   */\n  lt\n    /* \"#utility.yul\":1964:2200   */\n  iszero\n  tag_48\n  jumpi\n    /* \"#utility.yul\":2067:2086   */\n  dup9\n  dup7\n  add\n    /* \"#utility.yul\":2061:2087   */\n  mload\n    /* \"#utility.yul\":2046:2088   */\n  dup3\n  sstore\n    /* \"#utility.yul\":2159:2186   */\n  swap5\n  dup5\n  add\n  swap5\n    /* \"#utility.yul\":2127:2128   */\n  0x01\n    /* \"#utility.yul\":2115:2129   */\n  swap1\n  swap2\n  add\n  swap1\n    /* \"#utility.yul\":1994:2013   */\n  dup5\n  add\n    /* \"#utility.yul\":1964:2200   */\n  jump(tag_46)\ntag_48:\n    /* \"#utility.yul\":1968:1971   */\n  pop\n    /* \"#utility.yul\":2228:2234   */\n  dup6\n    /* \"#utility.yul\":2219:2226   */\n  dup3\n    /* \"#utility.yul\":2216:2235   */\n  lt\n    /* \"#utility.yul\":2213:2414   */\n  iszero\n  tag_49\n  jumpi\n    /* \"#utility.yul\":2289:2308   */\n  dup8\n  dup6\n  add\n    /* \"#utility.yul\":2283:2309   */\n  mload\n  not(0x00)\n    /* \"#utility.yul\":2372:2373   */\n  0x03\n    /* \"#utility.yul\":2368:2382   */\n  dup9\n  swap1\n  shl\n    /* \"#utility.yul\":2384:2387   */\n  0xf8\n    /* \"#utility.yul\":2364:2388   */\n  and\n    /* \"#utility.yul\":2360:2397   */\n  shr\n    /* \"#utility.yul\":2356:2398   */\n  not\n    /* \"#utility.yul\":2341:2399   */\n  and\n    /* \"#utility.yul\":2326:2400   */\n  dup2\n  sstore\n    /* \"#utility.yul\":2213:2414   */\ntag_49:\n  pop\n  pop\n  pop\n  pop\n  pop\n    /* \"#utility.yul\":2460:2461   */\n  0x01\n    /* \"#utility.yul\":2444:2458   */\n  swap1\n  dup2\n  shl\n    /* \"#utility.yul\":2440:2462   */\n  add\n    /* \"#utility.yul\":2427:2463   */\n  swap1\n  sstore\n  pop\n    /* \"#utility.yul\":1378:2730   */\n  jump\t// out\ntag_23:\n    /* \"SmartContracts/contracts/Token.sol\":167:606  contract Token is ERC20, Ownable {... */\n  dataSize(sub_0)\n  dup1\n  dataOffset(sub_0)\n  0x00\n  codecopy\n  0x00\n  return\nstop\n\nsub_0: assembly {\n        /* \"SmartContracts/contracts/Token.sol\":167:606  contract Token is ERC20, Ownable {... */\n      mstore(0x40, 0x80)\n      callvalue\n      dup1\n      iszero\n      tag_1\n      jumpi\n      0x00\n      dup1\n      revert\n    tag_1:\n      pop\n      jumpi(tag_2, lt(calldatasize, 0x04))\n      shr(0xe0, calldataload(0x00))\n      dup1\n      0x715018a6\n      gt\n      tag_19\n      jumpi\n      dup1\n      0xa457c2d7\n      gt\n      tag_20\n      jumpi\n      dup1\n      0xa457c2d7\n      eq\n      tag_15\n      jumpi\n      dup1\n      0xa9059cbb\n      eq\n      tag_16\n      jumpi\n      dup1\n      0xdd62ed3e\n      eq\n      tag_17\n      jumpi\n      dup1\n      0xf2fde38b\n      eq\n      tag_18\n      jumpi\n      0x00\n      dup1\n      revert\n    tag_20:\n      dup1\n      0x715018a6\n      eq\n      tag_11\n      jumpi\n      dup1\n      0x8da5cb5b\n      eq\n      tag_12\n      jumpi\n      dup1\n      0x95d89b41\n      eq\n      tag_13\n      jumpi\n      dup1\n      0x9dc29fac\n      eq\n      tag_14\n      jumpi\n      0x00\n      dup1\n      revert\n    tag_19:\n      dup1\n      0x313ce567\n      gt\n      tag_21\n      jumpi\n      dup1\n      0x313ce567\n      eq\n      tag_7\n      jumpi\n      dup1\n      0x39509351\n      eq\n      tag_8\n      jumpi\n      dup1\n      0x40c10f19\n      eq\n      tag_9\n      jumpi\n      dup1\n      0x70a08231\n      eq\n      tag_10\n      jumpi\n      0x00\n      dup1\n      revert\n    tag_21:\n      dup1\n      0x06fdde03\n      eq\n      tag_3\n      jumpi\n      dup1\n      0x095ea7b3\n      eq\n      tag_4\n      jumpi\n      dup1\n      0x18160ddd\n      eq\n      tag_5\n      jumpi\n      dup1\n      0x23b872dd\n      eq\n      tag_6\n      jumpi\n    tag_2:\n      0x00\n      dup1\n      revert\n        /* \"@openzeppelin/contracts/token/ERC20/ERC20.sol\":2158:2256  function name() public view virtual override returns (string memory) {... */\n    tag_3:\n      tag_22\n      tag_23\n      jump\t// in\n    tag_22:\n      mload(0x40)\n      tag_24\n      swap2\n      swap1\n      tag_25\n      jump\t// in\n    tag_24:\n      mload(0x40)\n      dup1\n      swap2\n      sub\n      swap1\n      return\n        /* \"@openzeppelin/contracts/token/ERC20/ERC20.sol\":4444:4641  function approve(address spender, uint256 amount) public virtual override returns (bool) {... */\n    tag_4:\n      tag_26\n      tag_27\n      calldatasize\n      0x04\n      tag_28\n      jump\t// in\n    tag_27:\n      tag_29\n      jump\t// in\n    tag_26:\n      mload(0x40)\n        /* \"#utility.yul\":1169:1183   */\n      swap1\n      iszero\n        /* \"#utility.yul\":1162:1184   */\n      iszero\n        /* \"#utility.yul\":1144:1185   */\n      dup2\n      mstore\n        /* \"#utility.yul\":1132:1134   */\n      0x20\n        /* \"#utility.yul\":1117:1135   */\n      add\n        /* \"@openzeppelin/contracts/token/ERC20/ERC20.sol\":4444:4641  function approve(address spender, uint256 amount) public virtual override returns (bool) {... */\n      tag_24\n        /* \"#utility.yul\":1004:1191   */\n      jump\n        /* \"@openzeppelin/contracts/token/ERC20/ERC20.sol\":3255:3361  function totalSupply() public view virtual override returns (uint256) {... */\n    tag_5:\n        /* \"@openzeppelin/contracts/token/ERC20/ERC20.sol\":3342:3354  _totalSupply */\n      sload(0x02)\n        /* \"@openzeppelin/contracts/token/ERC20/ERC20.sol\":3255:3361  function totalSupply() public view virtual override returns (uint256) {... */\n    tag_32:\n      mload(0x40)\n        /* \"#utility.yul\":1342:1367   */\n      swap1\n      dup2\n      mstore\n        /* \"#utility.yul\":1330:1332   */\n      0x20\n        /* \"#utility.yul\":1315:1333   */\n      add\n        /* \"@openzeppelin/contracts/token/ERC20/ERC20.sol\":3255:3361  function totalSupply() public view virtual override returns (uint256) {... */\n      tag_24\n        /* \"#utility.yul\":1196:1373   */\n      jump\n        /* \"@openzeppelin/contracts/token/ERC20/ERC20.sol\":5203:5459  function transferFrom(address from, address to, uint256 amount) public virtual override returns (bool) {... */\n    tag_6:\n      tag_26\n      tag_37\n      calldatasize\n      0x04\n      tag_38\n      jump\t// in\n    tag_37:\n      tag_39\n      jump\t// in\n        /* \"@openzeppelin/contracts/token/ERC20/ERC20.sol\":3104:3195  function decimals() public view virtual override returns (uint8) {... */\n    tag_7:\n      mload(0x40)\n        /* \"@openzeppelin/contracts/token/ERC20/ERC20.sol\":3186:3188  18 */\n      0x12\n        /* \"#utility.yul\":1853:1889   */\n      dup2\n      mstore\n        /* \"#utility.yul\":1841:1843   */\n      0x20\n        /* \"#utility.yul\":1826:1844   */\n      add\n        /* \"@openzeppelin/contracts/token/ERC20/ERC20.sol\":3104:3195  function decimals() public view virtual override returns (uint8) {... */\n      tag_24\n        /* \"#utility.yul\":1711:1895   */\n      jump\n        /* \"@openzeppelin/contracts/token/ERC20/ERC20.sol\":5854:6088  function increaseAllowance(address spender, uint256 addedValue) public virtual returns (bool) {... */\n    tag_8:\n      tag_26\n      tag_46\n      calldatasize\n      0x04\n      tag_28\n      jump\t// in\n    tag_46:\n      tag_47\n      jump\t// in\n        /* \"SmartContracts/contracts/Token.sol\":260:429  function mint(address account, uint256 amount) external {... */\n    tag_9:\n      tag_49\n      tag_50\n      calldatasize\n      0x04\n      tag_28\n      jump\t// in\n    tag_50:\n      tag_51\n      jump\t// in\n    tag_49:\n      stop\n        /* \"@openzeppelin/contracts/token/ERC20/ERC20.sol\":3419:3544  function balanceOf(address account) public view virtual override returns (uint256) {... */\n    tag_10:\n      tag_32\n      tag_53\n      calldatasize\n      0x04\n      tag_54\n      jump\t// in\n    tag_53:\n      sub(shl(0xa0, 0x01), 0x01)\n        /* \"@openzeppelin/contracts/token/ERC20/ERC20.sol\":3519:3537  _balances[account] */\n      and\n        /* \"@openzeppelin/contracts/token/ERC20/ERC20.sol\":3493:3500  uint256 */\n      0x00\n        /* \"@openzeppelin/contracts/token/ERC20/ERC20.sol\":3519:3537  _balances[account] */\n      swap1\n      dup2\n      mstore\n      0x20\n      dup2\n      swap1\n      mstore\n      0x40\n      swap1\n      keccak256\n      sload\n      swap1\n        /* \"@openzeppelin/contracts/token/ERC20/ERC20.sol\":3419:3544  function balanceOf(address account) public view virtual override returns (uint256) {... */\n      jump\n        /* \"@openzeppelin/contracts/access/Ownable.sol\":1824:1925  function renounceOwnership() public virtual onlyOwner {... */\n    tag_11:\n      tag_49\n      tag_58\n      jump\t// in\n        /* \"@openzeppelin/contracts/access/Ownable.sol\":1201:1286  function owner() public view virtual returns (address) {... */\n    tag_12:\n        /* \"@openzeppelin/contracts/access/Ownable.sol\":1273:1279  _owner */\n      sload(0x05)\n        /* \"@openzeppelin/contracts/access/Ownable.sol\":1201:1286  function owner() public view virtual returns (address) {... */\n      mload(0x40)\n      sub(shl(0xa0, 0x01), 0x01)\n        /* \"@openzeppelin/contracts/access/Ownable.sol\":1273:1279  _owner */\n      swap1\n      swap2\n      and\n        /* \"#utility.yul\":2237:2288   */\n      dup2\n      mstore\n        /* \"#utility.yul\":2225:2227   */\n      0x20\n        /* \"#utility.yul\":2210:2228   */\n      add\n        /* \"@openzeppelin/contracts/access/Ownable.sol\":1201:1286  function owner() public view virtual returns (address) {... */\n      tag_24\n        /* \"#utility.yul\":2091:2294   */\n      jump\n        /* \"@openzeppelin/contracts/token/ERC20/ERC20.sol\":2369:2471  function symbol() public view virtual override returns (string memory) {... */\n    tag_13:\n      tag_22\n      tag_64\n      jump\t// in\n        /* \"SmartContracts/contracts/Token.sol\":435:604  function burn(address account, uint256 amount) external {... */\n    tag_14:\n      tag_49\n      tag_67\n      calldatasize\n      0x04\n      tag_28\n      jump\t// in\n    tag_67:\n      tag_68\n      jump\t// in\n        /* \"@openzeppelin/contracts/token/ERC20/ERC20.sol\":6575:7002  function decreaseAllowance(address spender, uint256 subtractedValue) public virtual returns (bool) {... */\n    tag_15:\n      tag_26\n      tag_70\n      calldatasize\n      0x04\n      tag_28\n      jump\t// in\n    tag_70:\n      tag_71\n      jump\t// in\n        /* \"@openzeppelin/contracts/token/ERC20/ERC20.sol\":3740:3929  function transfer(address to, uint256 amount) public virtual override returns (bool) {... */\n    tag_16:\n      tag_26\n      tag_74\n      calldatasize\n      0x04\n      tag_28\n      jump\t// in\n    tag_74:\n      tag_75\n      jump\t// in\n        /* \"@openzeppelin/contracts/token/ERC20/ERC20.sol\":3987:4136  function allowance(address owner, address spender) public view virtual override returns (uint256) {... */\n    tag_17:\n      tag_32\n      tag_78\n      calldatasize\n      0x04\n      tag_79\n      jump\t// in\n    tag_78:\n      tag_80\n      jump\t// in\n        /* \"@openzeppelin/contracts/access/Ownable.sol\":2074:2272  function transferOwnership(address newOwner) public virtual onlyOwner {... */\n    tag_18:\n      tag_49\n      tag_83\n      calldatasize\n      0x04\n      tag_54\n      jump\t// in\n    tag_83:\n      tag_84\n      jump\t// in\n        /* \"@openzeppelin/contracts/token/ERC20/ERC20.sol\":2158:2256  function name() public view virtual override returns (string memory) {... */\n    tag_23:\n        /* \"@openzeppelin/contracts/token/ERC20/ERC20.sol\":2212:2225  string memory */\n      0x60\n        /* \"@openzeppelin/contracts/token/ERC20/ERC20.sol\":2244:2249  _name */\n      0x03\n        /* \"@openzeppelin/contracts/token/ERC20/ERC20.sol\":2237:2249  return _name */\n      dup1\n      sload\n      tag_86\n      swap1\n      tag_87\n      jump\t// in\n    tag_86:\n      dup1\n      0x1f\n      add\n      0x20\n      dup1\n      swap2\n      div\n      mul\n      0x20\n      add\n      mload(0x40)\n      swap1\n      dup2\n      add\n      0x40\n      mstore\n      dup1\n      swap3\n      swap2\n      swap1\n      dup2\n      dup2\n      mstore\n      0x20\n      add\n      dup3\n      dup1\n      sload\n      tag_88\n      swap1\n      tag_87\n      jump\t// in\n    tag_88:\n      dup1\n      iszero\n      tag_89\n      jumpi\n      dup1\n      0x1f\n      lt\n      tag_90\n      jumpi\n      0x0100\n      dup1\n      dup4\n      sload\n      div\n      mul\n      dup4\n      mstore\n      swap2\n      0x20\n      add\n      swap2\n      jump(tag_89)\n    tag_90:\n      dup3\n      add\n      swap2\n      swap1\n      0x00\n      mstore\n      keccak256(0x00, 0x20)\n      swap1\n    tag_91:\n      dup2\n      sload\n      dup2\n      mstore\n      swap1\n      0x01\n      add\n      swap1\n      0x20\n      add\n      dup1\n      dup4\n      gt\n      tag_91\n      jumpi\n      dup3\n      swap1\n      sub\n      0x1f\n      and\n      dup3\n      add\n      swap2\n    tag_89:\n      pop\n      pop\n      pop\n      pop\n      pop\n      swap1\n      pop\n        /* \"@openzeppelin/contracts/token/ERC20/ERC20.sol\":2158:2256  function name() public view virtual override returns (string memory) {... */\n      swap1\n      jump\t// out\n        /* \"@openzeppelin/contracts/token/ERC20/ERC20.sol\":4444:4641  function approve(address spender, uint256 amount) public virtual override returns (bool) {... */\n    tag_29:\n        /* \"@openzeppelin/contracts/token/ERC20/ERC20.sol\":4527:4531  bool */\n      0x00\n        /* \"@openzeppelin/contracts/utils/Context.sol\":719:729  msg.sender */\n      caller\n        /* \"@openzeppelin/contracts/token/ERC20/ERC20.sol\":4581:4613  _approve(owner, spender, amount) */\n      tag_95\n        /* \"@openzeppelin/contracts/utils/Context.sol\":719:729  msg.sender */\n      dup2\n        /* \"@openzeppelin/contracts/token/ERC20/ERC20.sol\":4597:4604  spender */\n      dup6\n        /* \"@openzeppelin/contracts/token/ERC20/ERC20.sol\":4606:4612  amount */\n      dup6\n        /* \"@openzeppelin/contracts/token/ERC20/ERC20.sol\":4581:4589  _approve */\n      tag_96\n        /* \"@openzeppelin/contracts/token/ERC20/ERC20.sol\":4581:4613  _approve(owner, spender, amount) */\n      jump\t// in\n    tag_95:\n        /* \"@openzeppelin/contracts/token/ERC20/ERC20.sol\":4630:4634  true */\n      0x01\n        /* \"@openzeppelin/contracts/token/ERC20/ERC20.sol\":4623:4634  return true */\n      swap2\n      pop\n      pop\n        /* \"@openzeppelin/contracts/token/ERC20/ERC20.sol\":4444:4641  function approve(address spender, uint256 amount) public virtual override returns (bool) {... */\n    tag_92:\n      swap3\n      swap2\n      pop\n      pop\n      jump\t// out\n        /* \"@openzeppelin/contracts/token/ERC20/ERC20.sol\":5203:5459  function transferFrom(address from, address to, uint256 amount) public virtual override returns (bool) {... */\n    tag_39:\n        /* \"@openzeppelin/contracts/token/ERC20/ERC20.sol\":5300:5304  bool */\n      0x00\n        /* \"@openzeppelin/contracts/utils/Context.sol\":719:729  msg.sender */\n      caller\n        /* \"@openzeppelin/contracts/token/ERC20/ERC20.sol\":5356:5394  _spendAllowance(from, spender, amount) */\n      tag_100\n        /* \"@openzeppelin/contracts/token/ERC20/ERC20.sol\":5372:5376  from */\n      dup6\n        /* \"@openzeppelin/contracts/utils/Context.sol\":719:729  msg.sender */\n      dup3\n        /* \"@openzeppelin/contracts/token/ERC20/ERC20.sol\":5387:5393  amount */\n      dup6\n        /* \"@openzeppelin/contracts/token/ERC20/ERC20.sol\":5356:5371  _spendAllowance */\n      tag_101\n        /* \"@openzeppelin/contracts/token/ERC20/ERC20.sol\":5356:5394  _spendAllowance(from, spender, amount) */\n      jump\t// in\n    tag_100:\n        /* \"@openzeppelin/contracts/token/ERC20/ERC20.sol\":5404:5431  _transfer(from, to, amount) */\n      tag_102\n        /* \"@openzeppelin/contracts/token/ERC20/ERC20.sol\":5414:5418  from */\n      dup6\n        /* \"@openzeppelin/contracts/token/ERC20/ERC20.sol\":5420:5422  to */\n      dup6\n        /* \"@openzeppelin/contracts/token/ERC20/ERC20.sol\":5424:5430  amount */\n      dup6\n        /* \"@openzeppelin/contracts/token/ERC20/ERC20.sol\":5404:5413  _transfer */\n      tag_103\n        /* \"@openzeppelin/contracts/token/ERC20/ERC20.sol\":5404:5431  _transfer(from, to, amount) */\n      jump\t// in\n    tag_102:\n      pop\n        /* \"@openzeppelin/contracts/token/ERC20/ERC20.sol\":5448:5452  true */\n      0x01\n      swap5\n        /* \"@openzeppelin/contracts/token/ERC20/ERC20.sol\":5203:5459  function transferFrom(address from, address to, uint256 amount) public virtual override returns (bool) {... */\n      swap4\n      pop\n      pop\n      pop\n      pop\n      jump\t// out\n        /* \"@openzeppelin/contracts/token/ERC20/ERC20.sol\":5854:6088  function increaseAllowance(address spender, uint256 addedValue) public virtual returns (bool) {... */\n    tag_47:\n        /* \"@openzeppelin/contracts/token/ERC20/ERC20.sol\":5942:5946  bool */\n      0x00\n        /* \"@openzeppelin/contracts/utils/Context.sol\":719:729  msg.sender */\n      caller\n        /* \"@openzeppelin/contracts/token/ERC20/ERC20.sol\":5996:6060  _approve(owner, spender, allowance(owner, spender) + addedValue) */\n      tag_95\n        /* \"@openzeppelin/contracts/utils/Context.sol\":719:729  msg.sender */\n      dup2\n        /* \"@openzeppelin/contracts/token/ERC20/ERC20.sol\":6012:6019  spender */\n      dup6\n        /* \"@openzeppelin/contracts/token/ERC20/ERC20.sol\":6049:6059  addedValue */\n      dup6\n        /* \"@openzeppelin/contracts/token/ERC20/ERC20.sol\":6021:6046  allowance(owner, spender) */\n      tag_108\n        /* \"@openzeppelin/contracts/utils/Context.sol\":719:729  msg.sender */\n      dup4\n        /* \"@openzeppelin/contracts/token/ERC20/ERC20.sol\":6012:6019  spender */\n      dup4\n        /* \"@openzeppelin/contracts/token/ERC20/ERC20.sol\":6021:6030  allowance */\n      tag_80\n        /* \"@openzeppelin/contracts/token/ERC20/ERC20.sol\":6021:6046  allowance(owner, spender) */\n      jump\t// in\n    tag_108:\n        /* \"@openzeppelin/contracts/token/ERC20/ERC20.sol\":6021:6059  allowance(owner, spender) + addedValue */\n      tag_109\n      swap2\n      swap1\n      tag_110\n      jump\t// in\n    tag_109:\n        /* \"@openzeppelin/contracts/token/ERC20/ERC20.sol\":5996:6004  _approve */\n      tag_96\n        /* \"@openzeppelin/contracts/token/ERC20/ERC20.sol\":5996:6060  _approve(owner, spender, allowance(owner, spender) + addedValue) */\n      jump\t// in\n        /* \"SmartContracts/contracts/Token.sol\":260:429  function mint(address account, uint256 amount) external {... */\n    tag_51:\n        /* \"@openzeppelin/contracts/access/Ownable.sol\":1273:1279  _owner */\n      and(sub(shl(0xa0, 0x01), 0x01), sload(0x05))\n        /* \"SmartContracts/contracts/Token.sol\":334:344  msg.sender */\n      caller\n        /* \"SmartContracts/contracts/Token.sol\":334:355  msg.sender == owner() */\n      eq\n        /* \"SmartContracts/contracts/Token.sol\":326:390  require(msg.sender == owner(), \"Only the owner can mint tokens\") */\n      tag_113\n      jumpi\n      mload(0x40)\n      shl(0xe5, 0x461bcd)\n      dup2\n      mstore\n        /* \"#utility.yul\":3378:3380   */\n      0x20\n        /* \"SmartContracts/contracts/Token.sol\":326:390  require(msg.sender == owner(), \"Only the owner can mint tokens\") */\n      0x04\n      dup3\n      add\n        /* \"#utility.yul\":3360:3381   */\n      mstore\n        /* \"#utility.yul\":3417:3419   */\n      0x1e\n        /* \"#utility.yul\":3397:3415   */\n      0x24\n      dup3\n      add\n        /* \"#utility.yul\":3390:3420   */\n      mstore\n        /* \"#utility.yul\":3456:3488   */\n      0x4f6e6c7920746865206f776e65722063616e206d696e7420746f6b656e730000\n        /* \"#utility.yul\":3436:3454   */\n      0x44\n      dup3\n      add\n        /* \"#utility.yul\":3429:3489   */\n      mstore\n        /* \"#utility.yul\":3506:3524   */\n      0x64\n      add\n        /* \"SmartContracts/contracts/Token.sol\":326:390  require(msg.sender == owner(), \"Only the owner can mint tokens\") */\n    tag_114:\n      mload(0x40)\n      dup1\n      swap2\n      sub\n      swap1\n      revert\n    tag_113:\n        /* \"SmartContracts/contracts/Token.sol\":400:422  _mint(account, amount) */\n      tag_116\n        /* \"SmartContracts/contracts/Token.sol\":406:413  account */\n      dup3\n        /* \"SmartContracts/contracts/Token.sol\":415:421  amount */\n      dup3\n        /* \"SmartContracts/contracts/Token.sol\":400:405  _mint */\n      tag_117\n        /* \"SmartContracts/contracts/Token.sol\":400:422  _mint(account, amount) */\n      jump\t// in\n    tag_116:\n        /* \"SmartContracts/contracts/Token.sol\":260:429  function mint(address account, uint256 amount) external {... */\n      pop\n      pop\n      jump\t// out\n        /* \"@openzeppelin/contracts/access/Ownable.sol\":1824:1925  function renounceOwnership() public virtual onlyOwner {... */\n    tag_58:\n        /* \"@openzeppelin/contracts/access/Ownable.sol\":1094:1107  _checkOwner() */\n      tag_120\n        /* \"@openzeppelin/contracts/access/Ownable.sol\":1094:1105  _checkOwner */\n      tag_121\n        /* \"@openzeppelin/contracts/access/Ownable.sol\":1094:1107  _checkOwner() */\n      jump\t// in\n    tag_120:\n        /* \"@openzeppelin/contracts/access/Ownable.sol\":1888:1918  _transferOwnership(address(0)) */\n      tag_123\n        /* \"@openzeppelin/contracts/access/Ownable.sol\":1915:1916  0 */\n      0x00\n        /* \"@openzeppelin/contracts/access/Ownable.sol\":1888:1906  _transferOwnership */\n      tag_124\n        /* \"@openzeppelin/contracts/access/Ownable.sol\":1888:1918  _transferOwnership(address(0)) */\n      jump\t// in\n    tag_123:\n        /* \"@openzeppelin/contracts/access/Ownable.sol\":1824:1925  function renounceOwnership() public virtual onlyOwner {... */\n      jump\t// out\n        /* \"@openzeppelin/contracts/token/ERC20/ERC20.sol\":2369:2471  function symbol() public view virtual override returns (string memory) {... */\n    tag_64:\n        /* \"@openzeppelin/contracts/token/ERC20/ERC20.sol\":2425:2438  string memory */\n      0x60\n        /* \"@openzeppelin/contracts/token/ERC20/ERC20.sol\":2457:2464  _symbol */\n      0x04\n        /* \"@openzeppelin/contracts/token/ERC20/ERC20.sol\":2450:2464  return _symbol */\n      dup1\n      sload\n      tag_86\n      swap1\n      tag_87\n      jump\t// in\n        /* \"SmartContracts/contracts/Token.sol\":435:604  function burn(address account, uint256 amount) external {... */\n    tag_68:\n        /* \"@openzeppelin/contracts/access/Ownable.sol\":1273:1279  _owner */\n      and(sub(shl(0xa0, 0x01), 0x01), sload(0x05))\n        /* \"SmartContracts/contracts/Token.sol\":509:519  msg.sender */\n      caller\n        /* \"SmartContracts/contracts/Token.sol\":509:530  msg.sender == owner() */\n      eq\n        /* \"SmartContracts/contracts/Token.sol\":501:565  require(msg.sender == owner(), \"Only the owner can burn tokens\") */\n      tag_134\n      jumpi\n      mload(0x40)\n      shl(0xe5, 0x461bcd)\n      dup2\n      mstore\n        /* \"#utility.yul\":3737:3739   */\n      0x20\n        /* \"SmartContracts/contracts/Token.sol\":501:565  require(msg.sender == owner(), \"Only the owner can burn tokens\") */\n      0x04\n      dup3\n      add\n        /* \"#utility.yul\":3719:3740   */\n      mstore\n        /* \"#utility.yul\":3776:3778   */\n      0x1e\n        /* \"#utility.yul\":3756:3774   */\n      0x24\n      dup3\n      add\n        /* \"#utility.yul\":3749:3779   */\n      mstore\n        /* \"#utility.yul\":3815:3847   */\n      0x4f6e6c7920746865206f776e65722063616e206275726e20746f6b656e730000\n        /* \"#utility.yul\":3795:3813   */\n      0x44\n      dup3\n      add\n        /* \"#utility.yul\":3788:3848   */\n      mstore\n        /* \"#utility.yul\":3865:3883   */\n      0x64\n      add\n        /* \"SmartContracts/contracts/Token.sol\":501:565  require(msg.sender == owner(), \"Only the owner can burn tokens\") */\n      tag_114\n        /* \"#utility.yul\":3535:3889   */\n      jump\n        /* \"SmartContracts/contracts/Token.sol\":501:565  require(msg.sender == owner(), \"Only the owner can burn tokens\") */\n    tag_134:\n        /* \"SmartContracts/contracts/Token.sol\":575:597  _burn(account, amount) */\n      tag_116\n        /* \"SmartContracts/contracts/Token.sol\":581:588  account */\n      dup3\n        /* \"SmartContracts/contracts/Token.sol\":590:596  amount */\n      dup3\n        /* \"SmartContracts/contracts/Token.sol\":575:580  _burn */\n      tag_138\n        /* \"SmartContracts/contracts/Token.sol\":575:597  _burn(account, amount) */\n      jump\t// in\n        /* \"@openzeppelin/contracts/token/ERC20/ERC20.sol\":6575:7002  function decreaseAllowance(address spender, uint256 subtractedValue) public virtual returns (bool) {... */\n    tag_71:\n        /* \"@openzeppelin/contracts/token/ERC20/ERC20.sol\":6668:6672  bool */\n      0x00\n        /* \"@openzeppelin/contracts/utils/Context.sol\":719:729  msg.sender */\n      caller\n        /* \"@openzeppelin/contracts/token/ERC20/ERC20.sol\":6668:6672  bool */\n      dup2\n        /* \"@openzeppelin/contracts/token/ERC20/ERC20.sol\":6749:6774  allowance(owner, spender) */\n      tag_141\n        /* \"@openzeppelin/contracts/utils/Context.sol\":719:729  msg.sender */\n      dup3\n        /* \"@openzeppelin/contracts/token/ERC20/ERC20.sol\":6766:6773  spender */\n      dup7\n        /* \"@openzeppelin/contracts/token/ERC20/ERC20.sol\":6749:6758  allowance */\n      tag_80\n        /* \"@openzeppelin/contracts/token/ERC20/ERC20.sol\":6749:6774  allowance(owner, spender) */\n      jump\t// in\n    tag_141:\n        /* \"@openzeppelin/contracts/token/ERC20/ERC20.sol\":6722:6774  uint256 currentAllowance = allowance(owner, spender) */\n      swap1\n      pop\n        /* \"@openzeppelin/contracts/token/ERC20/ERC20.sol\":6812:6827  subtractedValue */\n      dup4\n        /* \"@openzeppelin/contracts/token/ERC20/ERC20.sol\":6792:6808  currentAllowance */\n      dup2\n        /* \"@openzeppelin/contracts/token/ERC20/ERC20.sol\":6792:6827  currentAllowance >= subtractedValue */\n      lt\n      iszero\n        /* \"@openzeppelin/contracts/token/ERC20/ERC20.sol\":6784:6869  require(currentAllowance >= subtractedValue, \"ERC20: decreased allowance below zero\") */\n      tag_142\n      jumpi\n      mload(0x40)\n      shl(0xe5, 0x461bcd)\n      dup2\n      mstore\n        /* \"#utility.yul\":4096:4098   */\n      0x20\n        /* \"@openzeppelin/contracts/token/ERC20/ERC20.sol\":6784:6869  require(currentAllowance >= subtractedValue, \"ERC20: decreased allowance below zero\") */\n      0x04\n      dup3\n      add\n        /* \"#utility.yul\":4078:4099   */\n      mstore\n        /* \"#utility.yul\":4135:4137   */\n      0x25\n        /* \"#utility.yul\":4115:4133   */\n      0x24\n      dup3\n      add\n        /* \"#utility.yul\":4108:4138   */\n      mstore\n        /* \"#utility.yul\":4174:4208   */\n      0x45524332303a2064656372656173656420616c6c6f77616e63652062656c6f77\n        /* \"#utility.yul\":4154:4172   */\n      0x44\n      dup3\n      add\n        /* \"#utility.yul\":4147:4209   */\n      mstore\n      shl(0xd8, 0x207a65726f)\n        /* \"#utility.yul\":4225:4243   */\n      0x64\n      dup3\n      add\n        /* \"#utility.yul\":4218:4253   */\n      mstore\n        /* \"#utility.yul\":4270:4289   */\n      0x84\n      add\n        /* \"@openzeppelin/contracts/token/ERC20/ERC20.sol\":6784:6869  require(currentAllowance >= subtractedValue, \"ERC20: decreased allowance below zero\") */\n      tag_114\n        /* \"#utility.yul\":3894:4295   */\n      jump\n        /* \"@openzeppelin/contracts/token/ERC20/ERC20.sol\":6784:6869  require(currentAllowance >= subtractedValue, \"ERC20: decreased allowance below zero\") */\n    tag_142:\n        /* \"@openzeppelin/contracts/token/ERC20/ERC20.sol\":6903:6963  _approve(owner, spender, currentAllowance - subtractedValue) */\n      tag_102\n        /* \"@openzeppelin/contracts/token/ERC20/ERC20.sol\":6912:6917  owner */\n      dup3\n        /* \"@openzeppelin/contracts/token/ERC20/ERC20.sol\":6919:6926  spender */\n      dup7\n        /* \"@openzeppelin/contracts/token/ERC20/ERC20.sol\":6947:6962  subtractedValue */\n      dup7\n        /* \"@openzeppelin/contracts/token/ERC20/ERC20.sol\":6928:6944  currentAllowance */\n      dup5\n        /* \"@openzeppelin/contracts/token/ERC20/ERC20.sol\":6928:6962  currentAllowance - subtractedValue */\n      sub\n        /* \"@openzeppelin/contracts/token/ERC20/ERC20.sol\":6903:6911  _approve */\n      tag_96\n        /* \"@openzeppelin/contracts/token/ERC20/ERC20.sol\":6903:6963  _approve(owner, spender, currentAllowance - subtractedValue) */\n      jump\t// in\n        /* \"@openzeppelin/contracts/token/ERC20/ERC20.sol\":3740:3929  function transfer(address to, uint256 amount) public virtual override returns (bool) {... */\n    tag_75:\n        /* \"@openzeppelin/contracts/token/ERC20/ERC20.sol\":3819:3823  bool */\n      0x00\n        /* \"@openzeppelin/contracts/utils/Context.sol\":719:729  msg.sender */\n      caller\n        /* \"@openzeppelin/contracts/token/ERC20/ERC20.sol\":3873:3901  _transfer(owner, to, amount) */\n      tag_95\n        /* \"@openzeppelin/contracts/utils/Context.sol\":719:729  msg.sender */\n      dup2\n        /* \"@openzeppelin/contracts/token/ERC20/ERC20.sol\":3890:3892  to */\n      dup6\n        /* \"@openzeppelin/contracts/token/ERC20/ERC20.sol\":3894:3900  amount */\n      dup6\n        /* \"@openzeppelin/contracts/token/ERC20/ERC20.sol\":3873:3882  _transfer */\n      tag_103\n        /* \"@openzeppelin/contracts/token/ERC20/ERC20.sol\":3873:3901  _transfer(owner, to, amount) */\n      jump\t// in\n        /* \"@openzeppelin/contracts/token/ERC20/ERC20.sol\":3987:4136  function allowance(address owner, address spender) public view virtual override returns (uint256) {... */\n    tag_80:\n      sub(shl(0xa0, 0x01), 0x01)\n        /* \"@openzeppelin/contracts/token/ERC20/ERC20.sol\":4102:4120  _allowances[owner] */\n      swap2\n      dup3\n      and\n        /* \"@openzeppelin/contracts/token/ERC20/ERC20.sol\":4076:4083  uint256 */\n      0x00\n        /* \"@openzeppelin/contracts/token/ERC20/ERC20.sol\":4102:4120  _allowances[owner] */\n      swap1\n      dup2\n      mstore\n        /* \"@openzeppelin/contracts/token/ERC20/ERC20.sol\":4102:4113  _allowances */\n      0x01\n        /* \"@openzeppelin/contracts/token/ERC20/ERC20.sol\":4102:4120  _allowances[owner] */\n      0x20\n      swap1\n      dup2\n      mstore\n      0x40\n      dup1\n      dup4\n      keccak256\n        /* \"@openzeppelin/contracts/token/ERC20/ERC20.sol\":4102:4129  _allowances[owner][spender] */\n      swap4\n      swap1\n      swap5\n      and\n      dup3\n      mstore\n      swap2\n      swap1\n      swap2\n      mstore\n      keccak256\n      sload\n      swap1\n        /* \"@openzeppelin/contracts/token/ERC20/ERC20.sol\":3987:4136  function allowance(address owner, address spender) public view virtual override returns (uint256) {... */\n      jump\t// out\n        /* \"@openzeppelin/contracts/access/Ownable.sol\":2074:2272  function transferOwnership(address newOwner) public virtual onlyOwner {... */\n    tag_84:\n        /* \"@openzeppelin/contracts/access/Ownable.sol\":1094:1107  _checkOwner() */\n      tag_151\n        /* \"@openzeppelin/contracts/access/Ownable.sol\":1094:1105  _checkOwner */\n      tag_121\n        /* \"@openzeppelin/contracts/access/Ownable.sol\":1094:1107  _checkOwner() */\n      jump\t// in\n    tag_151:\n      sub(shl(0xa0, 0x01), 0x01)\n        /* \"@openzeppelin/contracts/access/Ownable.sol\":2162:2184  newOwner != address(0) */\n      dup2\n      and\n        /* \"@openzeppelin/contracts/access/Ownable.sol\":2154:2227  require(newOwner != address(0), \"Ownable: new owner is the zero address\") */\n      tag_153\n      jumpi\n      mload(0x40)\n      shl(0xe5, 0x461bcd)\n      dup2\n      mstore\n        /* \"#utility.yul\":4502:4504   */\n      0x20\n        /* \"@openzeppelin/contracts/access/Ownable.sol\":2154:2227  require(newOwner != address(0), \"Ownable: new owner is the zero address\") */\n      0x04\n      dup3\n      add\n        /* \"#utility.yul\":4484:4505   */\n      mstore\n        /* \"#utility.yul\":4541:4543   */\n      0x26\n        /* \"#utility.yul\":4521:4539   */\n      0x24\n      dup3\n      add\n        /* \"#utility.yul\":4514:4544   */\n      mstore\n        /* \"#utility.yul\":4580:4614   */\n      0x4f776e61626c653a206e6577206f776e657220697320746865207a65726f2061\n        /* \"#utility.yul\":4560:4578   */\n      0x44\n      dup3\n      add\n        /* \"#utility.yul\":4553:4615   */\n      mstore\n      shl(0xd0, 0x646472657373)\n        /* \"#utility.yul\":4631:4649   */\n      0x64\n      dup3\n      add\n        /* \"#utility.yul\":4624:4660   */\n      mstore\n        /* \"#utility.yul\":4677:4696   */\n      0x84\n      add\n        /* \"@openzeppelin/contracts/access/Ownable.sol\":2154:2227  require(newOwner != address(0), \"Ownable: new owner is the zero address\") */\n      tag_114\n        /* \"#utility.yul\":4300:4702   */\n      jump\n        /* \"@openzeppelin/contracts/access/Ownable.sol\":2154:2227  require(newOwner != address(0), \"Ownable: new owner is the zero address\") */\n    tag_153:\n        /* \"@openzeppelin/contracts/access/Ownable.sol\":2237:2265  _transferOwnership(newOwner) */\n      tag_156\n        /* \"@openzeppelin/contracts/access/Ownable.sol\":2256:2264  newOwner */\n      dup2\n        /* \"@openzeppelin/contracts/access/Ownable.sol\":2237:2255  _transferOwnership */\n      tag_124\n        /* \"@openzeppelin/contracts/access/Ownable.sol\":2237:2265  _transferOwnership(newOwner) */\n      jump\t// in\n    tag_156:\n        /* \"@openzeppelin/contracts/access/Ownable.sol\":2074:2272  function transferOwnership(address newOwner) public virtual onlyOwner {... */\n      pop\n      jump\t// out\n        /* \"@openzeppelin/contracts/token/ERC20/ERC20.sol\":10457:10797  function _approve(address owner, address spender, uint256 amount) internal virtual {... */\n    tag_96:\n      sub(shl(0xa0, 0x01), 0x01)\n        /* \"@openzeppelin/contracts/token/ERC20/ERC20.sol\":10558:10577  owner != address(0) */\n      dup4\n      and\n        /* \"@openzeppelin/contracts/token/ERC20/ERC20.sol\":10550:10618  require(owner != address(0), \"ERC20: approve from the zero address\") */\n      tag_159\n      jumpi\n      mload(0x40)\n      shl(0xe5, 0x461bcd)\n      dup2\n      mstore\n        /* \"#utility.yul\":4909:4911   */\n      0x20\n        /* \"@openzeppelin/contracts/token/ERC20/ERC20.sol\":10550:10618  require(owner != address(0), \"ERC20: approve from the zero address\") */\n      0x04\n      dup3\n      add\n        /* \"#utility.yul\":4891:4912   */\n      mstore\n        /* \"#utility.yul\":4948:4950   */\n      0x24\n        /* \"#utility.yul\":4928:4946   */\n      dup1\n      dup3\n      add\n        /* \"#utility.yul\":4921:4951   */\n      mstore\n        /* \"#utility.yul\":4987:5021   */\n      0x45524332303a20617070726f76652066726f6d20746865207a65726f20616464\n        /* \"#utility.yul\":4967:4985   */\n      0x44\n      dup3\n      add\n        /* \"#utility.yul\":4960:5022   */\n      mstore\n      shl(0xe0, 0x72657373)\n        /* \"#utility.yul\":5038:5056   */\n      0x64\n      dup3\n      add\n        /* \"#utility.yul\":5031:5065   */\n      mstore\n        /* \"#utility.yul\":5082:5101   */\n      0x84\n      add\n        /* \"@openzeppelin/contracts/token/ERC20/ERC20.sol\":10550:10618  require(owner != address(0), \"ERC20: approve from the zero address\") */\n      tag_114\n        /* \"#utility.yul\":4707:5107   */\n      jump\n        /* \"@openzeppelin/contracts/token/ERC20/ERC20.sol\":10550:10618  require(owner != address(0), \"ERC20: approve from the zero address\") */\n    tag_159:\n      sub(shl(0xa0, 0x01), 0x01)\n        /* \"@openzeppelin/contracts/token/ERC20/ERC20.sol\":10636:10657  spender != address(0) */\n      dup3\n      and\n        /* \"@openzeppelin/contracts/token/ERC20/ERC20.sol\":10628:10696  require(spender != address(0), \"ERC20: approve to the zero address\") */\n      tag_162\n      jumpi\n      mload(0x40)\n      shl(0xe5, 0x461bcd)\n      dup2\n      mstore\n        /* \"#utility.yul\":5314:5316   */\n      0x20\n        /* \"@openzeppelin/contracts/token/ERC20/ERC20.sol\":10628:10696  require(spender != address(0), \"ERC20: approve to the zero address\") */\n      0x04\n      dup3\n      add\n        /* \"#utility.yul\":5296:5317   */\n      mstore\n        /* \"#utility.yul\":5353:5355   */\n      0x22\n        /* \"#utility.yul\":5333:5351   */\n      0x24\n      dup3\n      add\n        /* \"#utility.yul\":5326:5356   */\n      mstore\n        /* \"#utility.yul\":5392:5426   */\n      0x45524332303a20617070726f766520746f20746865207a65726f206164647265\n        /* \"#utility.yul\":5372:5390   */\n      0x44\n      dup3\n      add\n        /* \"#utility.yul\":5365:5427   */\n      mstore\n      shl(0xf0, 0x7373)\n        /* \"#utility.yul\":5443:5461   */\n      0x64\n      dup3\n      add\n        /* \"#utility.yul\":5436:5468   */\n      mstore\n        /* \"#utility.yul\":5485:5504   */\n      0x84\n      add\n        /* \"@openzeppelin/contracts/token/ERC20/ERC20.sol\":10628:10696  require(spender != address(0), \"ERC20: approve to the zero address\") */\n      tag_114\n        /* \"#utility.yul\":5112:5510   */\n      jump\n        /* \"@openzeppelin/contracts/token/ERC20/ERC20.sol\":10628:10696  require(spender != address(0), \"ERC20: approve to the zero address\") */\n    tag_162:\n      sub(shl(0xa0, 0x01), 0x01)\n        /* \"@openzeppelin/contracts/token/ERC20/ERC20.sol\":10707:10725  _allowances[owner] */\n      dup4\n      dup2\n      and\n      0x00\n      dup2\n      dup2\n      mstore\n        /* \"@openzeppelin/contracts/token/ERC20/ERC20.sol\":10707:10718  _allowances */\n      0x01\n        /* \"@openzeppelin/contracts/token/ERC20/ERC20.sol\":10707:10725  _allowances[owner] */\n      0x20\n      swap1\n      dup2\n      mstore\n      0x40\n      dup1\n      dup4\n      keccak256\n        /* \"@openzeppelin/contracts/token/ERC20/ERC20.sol\":10707:10734  _allowances[owner][spender] */\n      swap5\n      dup8\n      and\n      dup1\n      dup5\n      mstore\n      swap5\n      dup3\n      mstore\n      swap2\n      dup3\n      swap1\n      keccak256\n        /* \"@openzeppelin/contracts/token/ERC20/ERC20.sol\":10707:10743  _allowances[owner][spender] = amount */\n      dup6\n      swap1\n      sstore\n        /* \"@openzeppelin/contracts/token/ERC20/ERC20.sol\":10758:10790  Approval(owner, spender, amount) */\n      swap1\n      mload\n        /* \"#utility.yul\":1342:1367   */\n      dup5\n      dup2\n      mstore\n        /* \"@openzeppelin/contracts/token/ERC20/ERC20.sol\":10758:10790  Approval(owner, spender, amount) */\n      0x8c5be1e5ebec7d5bd14f71427d1e84f3dd0314c0f7b2291e5b200ac8c7c3b925\n      swap2\n        /* \"#utility.yul\":1315:1333   */\n      add\n        /* \"@openzeppelin/contracts/token/ERC20/ERC20.sol\":10758:10790  Approval(owner, spender, amount) */\n    tag_165:\n      mload(0x40)\n      dup1\n      swap2\n      sub\n      swap1\n      log3\n        /* \"@openzeppelin/contracts/token/ERC20/ERC20.sol\":10457:10797  function _approve(address owner, address spender, uint256 amount) internal virtual {... */\n      pop\n      pop\n      pop\n      jump\t// out\n        /* \"@openzeppelin/contracts/token/ERC20/ERC20.sol\":11078:11489  function _spendAllowance(address owner, address spender, uint256 amount) internal virtual {... */\n    tag_101:\n        /* \"@openzeppelin/contracts/token/ERC20/ERC20.sol\":11178:11202  uint256 currentAllowance */\n      0x00\n        /* \"@openzeppelin/contracts/token/ERC20/ERC20.sol\":11205:11230  allowance(owner, spender) */\n      tag_167\n        /* \"@openzeppelin/contracts/token/ERC20/ERC20.sol\":11215:11220  owner */\n      dup5\n        /* \"@openzeppelin/contracts/token/ERC20/ERC20.sol\":11222:11229  spender */\n      dup5\n        /* \"@openzeppelin/contracts/token/ERC20/ERC20.sol\":11205:11214  allowance */\n      tag_80\n        /* \"@openzeppelin/contracts/token/ERC20/ERC20.sol\":11205:11230  allowance(owner, spender) */\n      jump\t// in\n    tag_167:\n        /* \"@openzeppelin/contracts/token/ERC20/ERC20.sol\":11178:11230  uint256 currentAllowance = allowance(owner, spender) */\n      swap1\n      pop\n      not(0x00)\n        /* \"@openzeppelin/contracts/token/ERC20/ERC20.sol\":11244:11260  currentAllowance */\n      dup2\n        /* \"@openzeppelin/contracts/token/ERC20/ERC20.sol\":11244:11281  currentAllowance != type(uint256).max */\n      eq\n        /* \"@openzeppelin/contracts/token/ERC20/ERC20.sol\":11240:11483  if (currentAllowance != type(uint256).max) {... */\n      tag_172\n      jumpi\n        /* \"@openzeppelin/contracts/token/ERC20/ERC20.sol\":11325:11331  amount */\n      dup2\n        /* \"@openzeppelin/contracts/token/ERC20/ERC20.sol\":11305:11321  currentAllowance */\n      dup2\n        /* \"@openzeppelin/contracts/token/ERC20/ERC20.sol\":11305:11331  currentAllowance >= amount */\n      lt\n      iszero\n        /* \"@openzeppelin/contracts/token/ERC20/ERC20.sol\":11297:11365  require(currentAllowance >= amount, \"ERC20: insufficient allowance\") */\n      tag_169\n      jumpi\n      mload(0x40)\n      shl(0xe5, 0x461bcd)\n      dup2\n      mstore\n        /* \"#utility.yul\":5717:5719   */\n      0x20\n        /* \"@openzeppelin/contracts/token/ERC20/ERC20.sol\":11297:11365  require(currentAllowance >= amount, \"ERC20: insufficient allowance\") */\n      0x04\n      dup3\n      add\n        /* \"#utility.yul\":5699:5720   */\n      mstore\n        /* \"#utility.yul\":5756:5758   */\n      0x1d\n        /* \"#utility.yul\":5736:5754   */\n      0x24\n      dup3\n      add\n        /* \"#utility.yul\":5729:5759   */\n      mstore\n        /* \"#utility.yul\":5795:5826   */\n      0x45524332303a20696e73756666696369656e7420616c6c6f77616e6365000000\n        /* \"#utility.yul\":5775:5793   */\n      0x44\n      dup3\n      add\n        /* \"#utility.yul\":5768:5827   */\n      mstore\n        /* \"#utility.yul\":5844:5862   */\n      0x64\n      add\n        /* \"@openzeppelin/contracts/token/ERC20/ERC20.sol\":11297:11365  require(currentAllowance >= amount, \"ERC20: insufficient allowance\") */\n      tag_114\n        /* \"#utility.yul\":5515:5868   */\n      jump\n        /* \"@openzeppelin/contracts/token/ERC20/ERC20.sol\":11297:11365  require(currentAllowance >= amount, \"ERC20: insufficient allowance\") */\n    tag_169:\n        /* \"@openzeppelin/contracts/token/ERC20/ERC20.sol\":11407:11458  _approve(owner, spender, currentAllowance - amount) */\n      tag_172\n        /* \"@openzeppelin/contracts/token/ERC20/ERC20.sol\":11416:11421  owner */\n      dup5\n        /* \"@openzeppelin/contracts/token/ERC20/ERC20.sol\":11423:11430  spender */\n      dup5\n        /* \"@openzeppelin/contracts/token/ERC20/ERC20.sol\":11451:11457  amount */\n      dup5\n        /* \"@openzeppelin/contracts/token/ERC20/ERC20.sol\":11432:11448  currentAllowance */\n      dup5\n        /* \"@openzeppelin/contracts/token/ERC20/ERC20.sol\":11432:11457  currentAllowance - amount */\n      sub\n        /* \"@openzeppelin/contracts/token/ERC20/ERC20.sol\":11407:11415  _approve */\n      tag_96\n        /* \"@openzeppelin/contracts/token/ERC20/ERC20.sol\":11407:11458  _approve(owner, spender, currentAllowance - amount) */\n      jump\t// in\n    tag_172:\n        /* \"@openzeppelin/contracts/token/ERC20/ERC20.sol\":11168:11489  {... */\n      pop\n        /* \"@openzeppelin/contracts/token/ERC20/ERC20.sol\":11078:11489  function _spendAllowance(address owner, address spender, uint256 amount) internal virtual {... */\n      pop\n      pop\n      pop\n      jump\t// out\n        /* \"@openzeppelin/contracts/token/ERC20/ERC20.sol\":7456:8244  function _transfer(address from, address to, uint256 amount) internal virtual {... */\n    tag_103:\n      sub(shl(0xa0, 0x01), 0x01)\n        /* \"@openzeppelin/contracts/token/ERC20/ERC20.sol\":7552:7570  from != address(0) */\n      dup4\n      and\n        /* \"@openzeppelin/contracts/token/ERC20/ERC20.sol\":7544:7612  require(from != address(0), \"ERC20: transfer from the zero address\") */\n      tag_174\n      jumpi\n      mload(0x40)\n      shl(0xe5, 0x461bcd)\n      dup2\n      mstore\n        /* \"#utility.yul\":6075:6077   */\n      0x20\n        /* \"@openzeppelin/contracts/token/ERC20/ERC20.sol\":7544:7612  require(from != address(0), \"ERC20: transfer from the zero address\") */\n      0x04\n      dup3\n      add\n        /* \"#utility.yul\":6057:6078   */\n      mstore\n        /* \"#utility.yul\":6114:6116   */\n      0x25\n        /* \"#utility.yul\":6094:6112   */\n      0x24\n      dup3\n      add\n        /* \"#utility.yul\":6087:6117   */\n      mstore\n        /* \"#utility.yul\":6153:6187   */\n      0x45524332303a207472616e736665722066726f6d20746865207a65726f206164\n        /* \"#utility.yul\":6133:6151   */\n      0x44\n      dup3\n      add\n        /* \"#utility.yul\":6126:6188   */\n      mstore\n      shl(0xd8, 0x6472657373)\n        /* \"#utility.yul\":6204:6222   */\n      0x64\n      dup3\n      add\n        /* \"#utility.yul\":6197:6232   */\n      mstore\n        /* \"#utility.yul\":6249:6268   */\n      0x84\n      add\n        /* \"@openzeppelin/contracts/token/ERC20/ERC20.sol\":7544:7612  require(from != address(0), \"ERC20: transfer from the zero address\") */\n      tag_114\n        /* \"#utility.yul\":5873:6274   */\n      jump\n        /* \"@openzeppelin/contracts/token/ERC20/ERC20.sol\":7544:7612  require(from != address(0), \"ERC20: transfer from the zero address\") */\n    tag_174:\n      sub(shl(0xa0, 0x01), 0x01)\n        /* \"@openzeppelin/contracts/token/ERC20/ERC20.sol\":7630:7646  to != address(0) */\n      dup3\n      and\n        /* \"@openzeppelin/contracts/token/ERC20/ERC20.sol\":7622:7686  require(to != address(0), \"ERC20: transfer to the zero address\") */\n      tag_177\n      jumpi\n      mload(0x40)\n      shl(0xe5, 0x461bcd)\n      dup2\n      mstore\n        /* \"#utility.yul\":6481:6483   */\n      0x20\n        /* \"@openzeppelin/contracts/token/ERC20/ERC20.sol\":7622:7686  require(to != address(0), \"ERC20: transfer to the zero address\") */\n      0x04\n      dup3\n      add\n        /* \"#utility.yul\":6463:6484   */\n      mstore\n        /* \"#utility.yul\":6520:6522   */\n      0x23\n        /* \"#utility.yul\":6500:6518   */\n      0x24\n      dup3\n      add\n        /* \"#utility.yul\":6493:6523   */\n      mstore\n        /* \"#utility.yul\":6559:6593   */\n      0x45524332303a207472616e7366657220746f20746865207a65726f2061646472\n        /* \"#utility.yul\":6539:6557   */\n      0x44\n      dup3\n      add\n        /* \"#utility.yul\":6532:6594   */\n      mstore\n      shl(0xe8, 0x657373)\n        /* \"#utility.yul\":6610:6628   */\n      0x64\n      dup3\n      add\n        /* \"#utility.yul\":6603:6636   */\n      mstore\n        /* \"#utility.yul\":6653:6672   */\n      0x84\n      add\n        /* \"@openzeppelin/contracts/token/ERC20/ERC20.sol\":7622:7686  require(to != address(0), \"ERC20: transfer to the zero address\") */\n      tag_114\n        /* \"#utility.yul\":6279:6678   */\n      jump\n        /* \"@openzeppelin/contracts/token/ERC20/ERC20.sol\":7622:7686  require(to != address(0), \"ERC20: transfer to the zero address\") */\n    tag_177:\n      sub(shl(0xa0, 0x01), 0x01)\n        /* \"@openzeppelin/contracts/token/ERC20/ERC20.sol\":7768:7783  _balances[from] */\n      dup4\n      and\n        /* \"@openzeppelin/contracts/token/ERC20/ERC20.sol\":7746:7765  uint256 fromBalance */\n      0x00\n        /* \"@openzeppelin/contracts/token/ERC20/ERC20.sol\":7768:7783  _balances[from] */\n      swap1\n      dup2\n      mstore\n      0x20\n      dup2\n      swap1\n      mstore\n      0x40\n      swap1\n      keccak256\n      sload\n        /* \"@openzeppelin/contracts/token/ERC20/ERC20.sol\":7801:7822  fromBalance >= amount */\n      dup2\n      dup2\n      lt\n      iszero\n        /* \"@openzeppelin/contracts/token/ERC20/ERC20.sol\":7793:7865  require(fromBalance >= amount, \"ERC20: transfer amount exceeds balance\") */\n      tag_182\n      jumpi\n      mload(0x40)\n      shl(0xe5, 0x461bcd)\n      dup2\n      mstore\n        /* \"#utility.yul\":6885:6887   */\n      0x20\n        /* \"@openzeppelin/contracts/token/ERC20/ERC20.sol\":7793:7865  require(fromBalance >= amount, \"ERC20: transfer amount exceeds balance\") */\n      0x04\n      dup3\n      add\n        /* \"#utility.yul\":6867:6888   */\n      mstore\n        /* \"#utility.yul\":6924:6926   */\n      0x26\n        /* \"#utility.yul\":6904:6922   */\n      0x24\n      dup3\n      add\n        /* \"#utility.yul\":6897:6927   */\n      mstore\n        /* \"#utility.yul\":6963:6997   */\n      0x45524332303a207472616e7366657220616d6f756e7420657863656564732062\n        /* \"#utility.yul\":6943:6961   */\n      0x44\n      dup3\n      add\n        /* \"#utility.yul\":6936:6998   */\n      mstore\n      shl(0xd0, 0x616c616e6365)\n        /* \"#utility.yul\":7014:7032   */\n      0x64\n      dup3\n      add\n        /* \"#utility.yul\":7007:7043   */\n      mstore\n        /* \"#utility.yul\":7060:7079   */\n      0x84\n      add\n        /* \"@openzeppelin/contracts/token/ERC20/ERC20.sol\":7793:7865  require(fromBalance >= amount, \"ERC20: transfer amount exceeds balance\") */\n      tag_114\n        /* \"#utility.yul\":6683:7085   */\n      jump\n        /* \"@openzeppelin/contracts/token/ERC20/ERC20.sol\":7793:7865  require(fromBalance >= amount, \"ERC20: transfer amount exceeds balance\") */\n    tag_182:\n      sub(shl(0xa0, 0x01), 0x01)\n        /* \"@openzeppelin/contracts/token/ERC20/ERC20.sol\":7899:7914  _balances[from] */\n      dup5\n      dup2\n      and\n        /* \"@openzeppelin/contracts/token/ERC20/ERC20.sol\":7899:7908  _balances */\n      0x00\n        /* \"@openzeppelin/contracts/token/ERC20/ERC20.sol\":7899:7914  _balances[from] */\n      dup2\n      dup2\n      mstore\n      0x20\n      dup2\n      dup2\n      mstore\n      0x40\n      dup1\n      dup4\n      keccak256\n        /* \"@openzeppelin/contracts/token/ERC20/ERC20.sol\":7917:7937  fromBalance - amount */\n      dup8\n      dup8\n      sub\n        /* \"@openzeppelin/contracts/token/ERC20/ERC20.sol\":7899:7937  _balances[from] = fromBalance - amount */\n      swap1\n      sstore\n        /* \"@openzeppelin/contracts/token/ERC20/ERC20.sol\":8114:8127  _balances[to] */\n      swap4\n      dup8\n      and\n      dup1\n      dup4\n      mstore\n      swap2\n      dup5\n      swap1\n      keccak256\n        /* \"@openzeppelin/contracts/token/ERC20/ERC20.sol\":8114:8137  _balances[to] += amount */\n      dup1\n      sload\n      dup8\n      add\n      swap1\n      sstore\n        /* \"@openzeppelin/contracts/token/ERC20/ERC20.sol\":8163:8189  Transfer(from, to, amount) */\n      swap3\n      mload\n        /* \"#utility.yul\":1342:1367   */\n      dup6\n      dup2\n      mstore\n        /* \"@openzeppelin/contracts/token/ERC20/ERC20.sol\":8114:8127  _balances[to] */\n      swap1\n      swap3\n        /* \"@openzeppelin/contracts/token/ERC20/ERC20.sol\":8163:8189  Transfer(from, to, amount) */\n      0xddf252ad1be2c89b69c2b068fc378daa952ba7f163c4a11628f55a4df523b3ef\n      swap2\n        /* \"#utility.yul\":1315:1333   */\n      add\n        /* \"@openzeppelin/contracts/token/ERC20/ERC20.sol\":8163:8189  Transfer(from, to, amount) */\n      mload(0x40)\n      dup1\n      swap2\n      sub\n      swap1\n      log3\n        /* \"@openzeppelin/contracts/token/ERC20/ERC20.sol\":8200:8237  _afterTokenTransfer(from, to, amount) */\n      tag_172\n        /* \"@openzeppelin/contracts/token/ERC20/ERC20.sol\":9375:10034  function _burn(address account, uint256 amount) internal virtual {... */\n      jump\n        /* \"@openzeppelin/contracts/token/ERC20/ERC20.sol\":8520:9055  function _mint(address account, uint256 amount) internal virtual {... */\n    tag_117:\n      sub(shl(0xa0, 0x01), 0x01)\n        /* \"@openzeppelin/contracts/token/ERC20/ERC20.sol\":8603:8624  account != address(0) */\n      dup3\n      and\n        /* \"@openzeppelin/contracts/token/ERC20/ERC20.sol\":8595:8660  require(account != address(0), \"ERC20: mint to the zero address\") */\n      tag_189\n      jumpi\n      mload(0x40)\n      shl(0xe5, 0x461bcd)\n      dup2\n      mstore\n        /* \"#utility.yul\":7292:7294   */\n      0x20\n        /* \"@openzeppelin/contracts/token/ERC20/ERC20.sol\":8595:8660  require(account != address(0), \"ERC20: mint to the zero address\") */\n      0x04\n      dup3\n      add\n        /* \"#utility.yul\":7274:7295   */\n      mstore\n        /* \"#utility.yul\":7331:7333   */\n      0x1f\n        /* \"#utility.yul\":7311:7329   */\n      0x24\n      dup3\n      add\n        /* \"#utility.yul\":7304:7334   */\n      mstore\n        /* \"#utility.yul\":7370:7403   */\n      0x45524332303a206d696e7420746f20746865207a65726f206164647265737300\n        /* \"#utility.yul\":7350:7368   */\n      0x44\n      dup3\n      add\n        /* \"#utility.yul\":7343:7404   */\n      mstore\n        /* \"#utility.yul\":7421:7439   */\n      0x64\n      add\n        /* \"@openzeppelin/contracts/token/ERC20/ERC20.sol\":8595:8660  require(account != address(0), \"ERC20: mint to the zero address\") */\n      tag_114\n        /* \"#utility.yul\":7090:7445   */\n      jump\n        /* \"@openzeppelin/contracts/token/ERC20/ERC20.sol\":8595:8660  require(account != address(0), \"ERC20: mint to the zero address\") */\n    tag_189:\n        /* \"@openzeppelin/contracts/token/ERC20/ERC20.sol\":8747:8753  amount */\n      dup1\n        /* \"@openzeppelin/contracts/token/ERC20/ERC20.sol\":8731:8743  _totalSupply */\n      0x02\n      0x00\n        /* \"@openzeppelin/contracts/token/ERC20/ERC20.sol\":8731:8753  _totalSupply += amount */\n      dup3\n      dup3\n      sload\n      tag_193\n      swap2\n      swap1\n      tag_110\n      jump\t// in\n    tag_193:\n      swap1\n      swap2\n      sstore\n      pop\n      pop\n      sub(shl(0xa0, 0x01), 0x01)\n        /* \"@openzeppelin/contracts/token/ERC20/ERC20.sol\":8899:8917  _balances[account] */\n      dup3\n      and\n        /* \"@openzeppelin/contracts/token/ERC20/ERC20.sol\":8899:8908  _balances */\n      0x00\n        /* \"@openzeppelin/contracts/token/ERC20/ERC20.sol\":8899:8917  _balances[account] */\n      dup2\n      dup2\n      mstore\n      0x20\n      dup2\n      dup2\n      mstore\n      0x40\n      dup1\n      dup4\n      keccak256\n        /* \"@openzeppelin/contracts/token/ERC20/ERC20.sol\":8899:8927  _balances[account] += amount */\n      dup1\n      sload\n      dup7\n      add\n      swap1\n      sstore\n        /* \"@openzeppelin/contracts/token/ERC20/ERC20.sol\":8952:8989  Transfer(address(0), account, amount) */\n      mload\n        /* \"#utility.yul\":1342:1367   */\n      dup5\n      dup2\n      mstore\n        /* \"@openzeppelin/contracts/token/ERC20/ERC20.sol\":8952:8989  Transfer(address(0), account, amount) */\n      0xddf252ad1be2c89b69c2b068fc378daa952ba7f163c4a11628f55a4df523b3ef\n      swap2\n        /* \"#utility.yul\":1315:1333   */\n      add\n        /* \"@openzeppelin/contracts/token/ERC20/ERC20.sol\":8952:8989  Transfer(address(0), account, amount) */\n      mload(0x40)\n      dup1\n      swap2\n      sub\n      swap1\n      log3\n        /* \"SmartContracts/contracts/Token.sol\":260:429  function mint(address account, uint256 amount) external {... */\n      pop\n      pop\n      jump\t// out\n        /* \"@openzeppelin/contracts/access/Ownable.sol\":1359:1489  function _checkOwner() internal view virtual {... */\n    tag_121:\n        /* \"@openzeppelin/contracts/access/Ownable.sol\":1273:1279  _owner */\n      and(sub(shl(0xa0, 0x01), 0x01), sload(0x05))\n        /* \"@openzeppelin/contracts/utils/Context.sol\":719:729  msg.sender */\n      caller\n        /* \"@openzeppelin/contracts/access/Ownable.sol\":1422:1445  owner() == _msgSender() */\n      eq\n        /* \"@openzeppelin/contracts/access/Ownable.sol\":1414:1482  require(owner() == _msgSender(), \"Ownable: caller is not the owner\") */\n      tag_123\n      jumpi\n      mload(0x40)\n      shl(0xe5, 0x461bcd)\n      dup2\n      mstore\n        /* \"#utility.yul\":7652:7654   */\n      0x20\n        /* \"@openzeppelin/contracts/access/Ownable.sol\":1414:1482  require(owner() == _msgSender(), \"Ownable: caller is not the owner\") */\n      0x04\n      dup3\n      add\n        /* \"#utility.yul\":7634:7655   */\n      dup2\n      swap1\n      mstore\n        /* \"#utility.yul\":7671:7689   */\n      0x24\n      dup3\n      add\n        /* \"#utility.yul\":7664:7694   */\n      mstore\n        /* \"#utility.yul\":7730:7764   */\n      0x4f776e61626c653a2063616c6c6572206973206e6f7420746865206f776e6572\n        /* \"#utility.yul\":7710:7728   */\n      0x44\n      dup3\n      add\n        /* \"#utility.yul\":7703:7765   */\n      mstore\n        /* \"#utility.yul\":7782:7800   */\n      0x64\n      add\n        /* \"@openzeppelin/contracts/access/Ownable.sol\":1414:1482  require(owner() == _msgSender(), \"Ownable: caller is not the owner\") */\n      tag_114\n        /* \"#utility.yul\":7450:7806   */\n      jump\n        /* \"@openzeppelin/contracts/access/Ownable.sol\":2426:2613  function _transferOwnership(address newOwner) internal virtual {... */\n    tag_124:\n        /* \"@openzeppelin/contracts/access/Ownable.sol\":2518:2524  _owner */\n      0x05\n      dup1\n      sload\n      sub(shl(0xa0, 0x01), 0x01)\n        /* \"@openzeppelin/contracts/access/Ownable.sol\":2534:2551  _owner = newOwner */\n      dup4\n      dup2\n      and\n      not(sub(shl(0xa0, 0x01), 0x01))\n      dup4\n      and\n      dup2\n      or\n      swap1\n      swap4\n      sstore\n        /* \"@openzeppelin/contracts/access/Ownable.sol\":2566:2606  OwnershipTransferred(oldOwner, newOwner) */\n      mload(0x40)\n        /* \"@openzeppelin/contracts/access/Ownable.sol\":2518:2524  _owner */\n      swap2\n      and\n      swap2\n        /* \"@openzeppelin/contracts/access/Ownable.sol\":2534:2551  _owner = newOwner */\n      swap1\n        /* \"@openzeppelin/contracts/access/Ownable.sol\":2518:2524  _owner */\n      dup3\n      swap1\n        /* \"@openzeppelin/contracts/access/Ownable.sol\":2566:2606  OwnershipTransferred(oldOwner, newOwner) */\n      0x8be0079c531659141344cd1fd0a4f28419497f9722a3daafe3b4186f6b6457e0\n      swap1\n        /* \"@openzeppelin/contracts/access/Ownable.sol\":2499:2515  address oldOwner */\n      0x00\n      swap1\n        /* \"@openzeppelin/contracts/access/Ownable.sol\":2566:2606  OwnershipTransferred(oldOwner, newOwner) */\n      log3\n        /* \"@openzeppelin/contracts/access/Ownable.sol\":2489:2613  {... */\n      pop\n        /* \"@openzeppelin/contracts/access/Ownable.sol\":2426:2613  function _transferOwnership(address newOwner) internal virtual {... */\n      pop\n      jump\t// out\n        /* \"@openzeppelin/contracts/token/ERC20/ERC20.sol\":9375:10034  function _burn(address account, uint256 amount) internal virtual {... */\n    tag_138:\n      sub(shl(0xa0, 0x01), 0x01)\n        /* \"@openzeppelin/contracts/token/ERC20/ERC20.sol\":9458:9479  account != address(0) */\n      dup3\n      and\n        /* \"@openzeppelin/contracts/token/ERC20/ERC20.sol\":9450:9517  require(account != address(0), \"ERC20: burn from the zero address\") */\n      tag_204\n      jumpi\n      mload(0x40)\n      shl(0xe5, 0x461bcd)\n      dup2\n      mstore\n        /* \"#utility.yul\":8013:8015   */\n      0x20\n        /* \"@openzeppelin/contracts/token/ERC20/ERC20.sol\":9450:9517  require(account != address(0), \"ERC20: burn from the zero address\") */\n      0x04\n      dup3\n      add\n        /* \"#utility.yul\":7995:8016   */\n      mstore\n        /* \"#utility.yul\":8052:8054   */\n      0x21\n        /* \"#utility.yul\":8032:8050   */\n      0x24\n      dup3\n      add\n        /* \"#utility.yul\":8025:8055   */\n      mstore\n        /* \"#utility.yul\":8091:8125   */\n      0x45524332303a206275726e2066726f6d20746865207a65726f20616464726573\n        /* \"#utility.yul\":8071:8089   */\n      0x44\n      dup3\n      add\n        /* \"#utility.yul\":8064:8126   */\n      mstore\n      shl(0xf8, 0x73)\n        /* \"#utility.yul\":8142:8160   */\n      0x64\n      dup3\n      add\n        /* \"#utility.yul\":8135:8166   */\n      mstore\n        /* \"#utility.yul\":8183:8202   */\n      0x84\n      add\n        /* \"@openzeppelin/contracts/token/ERC20/ERC20.sol\":9450:9517  require(account != address(0), \"ERC20: burn from the zero address\") */\n      tag_114\n        /* \"#utility.yul\":7811:8208   */\n      jump\n        /* \"@openzeppelin/contracts/token/ERC20/ERC20.sol\":9450:9517  require(account != address(0), \"ERC20: burn from the zero address\") */\n    tag_204:\n      sub(shl(0xa0, 0x01), 0x01)\n        /* \"@openzeppelin/contracts/token/ERC20/ERC20.sol\":9613:9631  _balances[account] */\n      dup3\n      and\n        /* \"@openzeppelin/contracts/token/ERC20/ERC20.sol\":9588:9610  uint256 accountBalance */\n      0x00\n        /* \"@openzeppelin/contracts/token/ERC20/ERC20.sol\":9613:9631  _balances[account] */\n      swap1\n      dup2\n      mstore\n      0x20\n      dup2\n      swap1\n      mstore\n      0x40\n      swap1\n      keccak256\n      sload\n        /* \"@openzeppelin/contracts/token/ERC20/ERC20.sol\":9649:9673  accountBalance >= amount */\n      dup2\n      dup2\n      lt\n      iszero\n        /* \"@openzeppelin/contracts/token/ERC20/ERC20.sol\":9641:9712  require(accountBalance >= amount, \"ERC20: burn amount exceeds balance\") */\n      tag_208\n      jumpi\n      mload(0x40)\n      shl(0xe5, 0x461bcd)\n      dup2\n      mstore\n        /* \"#utility.yul\":8415:8417   */\n      0x20\n        /* \"@openzeppelin/contracts/token/ERC20/ERC20.sol\":9641:9712  require(accountBalance >= amount, \"ERC20: burn amount exceeds balance\") */\n      0x04\n      dup3\n      add\n        /* \"#utility.yul\":8397:8418   */\n      mstore\n        /* \"#utility.yul\":8454:8456   */\n      0x22\n        /* \"#utility.yul\":8434:8452   */\n      0x24\n      dup3\n      add\n        /* \"#utility.yul\":8427:8457   */\n      mstore\n        /* \"#utility.yul\":8493:8527   */\n      0x45524332303a206275726e20616d6f756e7420657863656564732062616c616e\n        /* \"#utility.yul\":8473:8491   */\n      0x44\n      dup3\n      add\n        /* \"#utility.yul\":8466:8528   */\n      mstore\n      shl(0xf0, 0x6365)\n        /* \"#utility.yul\":8544:8562   */\n      0x64\n      dup3\n      add\n        /* \"#utility.yul\":8537:8569   */\n      mstore\n        /* \"#utility.yul\":8586:8605   */\n      0x84\n      add\n        /* \"@openzeppelin/contracts/token/ERC20/ERC20.sol\":9641:9712  require(accountBalance >= amount, \"ERC20: burn amount exceeds balance\") */\n      tag_114\n        /* \"#utility.yul\":8213:8611   */\n      jump\n        /* \"@openzeppelin/contracts/token/ERC20/ERC20.sol\":9641:9712  require(accountBalance >= amount, \"ERC20: burn amount exceeds balance\") */\n    tag_208:\n      sub(shl(0xa0, 0x01), 0x01)\n        /* \"@openzeppelin/contracts/token/ERC20/ERC20.sol\":9746:9764  _balances[account] */\n      dup4\n      and\n        /* \"@openzeppelin/contracts/token/ERC20/ERC20.sol\":9746:9755  _balances */\n      0x00\n        /* \"@openzeppelin/contracts/token/ERC20/ERC20.sol\":9746:9764  _balances[account] */\n      dup2\n      dup2\n      mstore\n      0x20\n      dup2\n      dup2\n      mstore\n      0x40\n      dup1\n      dup4\n      keccak256\n        /* \"@openzeppelin/contracts/token/ERC20/ERC20.sol\":9767:9790  accountBalance - amount */\n      dup7\n      dup7\n      sub\n        /* \"@openzeppelin/contracts/token/ERC20/ERC20.sol\":9746:9790  _balances[account] = accountBalance - amount */\n      swap1\n      sstore\n        /* \"@openzeppelin/contracts/token/ERC20/ERC20.sol\":9883:9895  _totalSupply */\n      0x02\n        /* \"@openzeppelin/contracts/token/ERC20/ERC20.sol\":9883:9905  _totalSupply -= amount */\n      dup1\n      sload\n      dup8\n      swap1\n      sub\n      swap1\n      sstore\n        /* \"@openzeppelin/contracts/token/ERC20/ERC20.sol\":9931:9968  Transfer(account, address(0), amount) */\n      mload\n        /* \"#utility.yul\":1342:1367   */\n      dup6\n      dup2\n      mstore\n        /* \"@openzeppelin/contracts/token/ERC20/ERC20.sol\":9746:9755  _balances */\n      swap2\n      swap3\n        /* \"@openzeppelin/contracts/token/ERC20/ERC20.sol\":9746:9764  _balances[account] */\n      swap2\n        /* \"@openzeppelin/contracts/token/ERC20/ERC20.sol\":9931:9968  Transfer(account, address(0), amount) */\n      0xddf252ad1be2c89b69c2b068fc378daa952ba7f163c4a11628f55a4df523b3ef\n      swap2\n        /* \"#utility.yul\":1315:1333   */\n      add\n        /* \"@openzeppelin/contracts/token/ERC20/ERC20.sol\":9931:9968  Transfer(account, address(0), amount) */\n      tag_165\n        /* \"#utility.yul\":1196:1373   */\n      jump\n        /* \"#utility.yul\":14:562   */\n    tag_25:\n        /* \"#utility.yul\":126:130   */\n      0x00\n        /* \"#utility.yul\":155:157   */\n      0x20\n        /* \"#utility.yul\":184:186   */\n      dup1\n        /* \"#utility.yul\":173:182   */\n      dup4\n        /* \"#utility.yul\":166:187   */\n      mstore\n        /* \"#utility.yul\":216:222   */\n      dup4\n        /* \"#utility.yul\":210:223   */\n      mload\n        /* \"#utility.yul\":259:265   */\n      dup1\n        /* \"#utility.yul\":254:256   */\n      dup3\n        /* \"#utility.yul\":243:252   */\n      dup6\n        /* \"#utility.yul\":239:257   */\n      add\n        /* \"#utility.yul\":232:266   */\n      mstore\n        /* \"#utility.yul\":284:285   */\n      0x00\n        /* \"#utility.yul\":294:434   */\n    tag_218:\n        /* \"#utility.yul\":308:314   */\n      dup2\n        /* \"#utility.yul\":305:306   */\n      dup2\n        /* \"#utility.yul\":302:315   */\n      lt\n        /* \"#utility.yul\":294:434   */\n      iszero\n      tag_220\n      jumpi\n        /* \"#utility.yul\":403:417   */\n      dup6\n      dup2\n      add\n        /* \"#utility.yul\":399:422   */\n      dup4\n      add\n        /* \"#utility.yul\":393:423   */\n      mload\n        /* \"#utility.yul\":369:386   */\n      dup6\n      dup3\n      add\n        /* \"#utility.yul\":388:390   */\n      0x40\n        /* \"#utility.yul\":365:391   */\n      add\n        /* \"#utility.yul\":358:424   */\n      mstore\n        /* \"#utility.yul\":323:333   */\n      dup3\n      add\n        /* \"#utility.yul\":294:434   */\n      jump(tag_218)\n    tag_220:\n        /* \"#utility.yul\":298:301   */\n      pop\n        /* \"#utility.yul\":483:484   */\n      0x00\n        /* \"#utility.yul\":478:480   */\n      0x40\n        /* \"#utility.yul\":469:475   */\n      dup3\n        /* \"#utility.yul\":458:467   */\n      dup7\n        /* \"#utility.yul\":454:476   */\n      add\n        /* \"#utility.yul\":450:481   */\n      add\n        /* \"#utility.yul\":443:485   */\n      mstore\n        /* \"#utility.yul\":553:555   */\n      0x40\n        /* \"#utility.yul\":546:548   */\n      0x1f\n        /* \"#utility.yul\":542:549   */\n      not\n        /* \"#utility.yul\":537:539   */\n      0x1f\n        /* \"#utility.yul\":529:535   */\n      dup4\n        /* \"#utility.yul\":525:540   */\n      add\n        /* \"#utility.yul\":521:550   */\n      and\n        /* \"#utility.yul\":510:519   */\n      dup6\n        /* \"#utility.yul\":506:551   */\n      add\n        /* \"#utility.yul\":502:556   */\n      add\n        /* \"#utility.yul\":494:556   */\n      swap3\n      pop\n      pop\n      pop\n        /* \"#utility.yul\":14:562   */\n      swap3\n      swap2\n      pop\n      pop\n      jump\t// out\n        /* \"#utility.yul\":567:740   */\n    tag_215:\n        /* \"#utility.yul\":635:655   */\n      dup1\n      calldataload\n      sub(shl(0xa0, 0x01), 0x01)\n        /* \"#utility.yul\":684:715   */\n      dup2\n      and\n        /* \"#utility.yul\":674:716   */\n      dup2\n      eq\n        /* \"#utility.yul\":664:734   */\n      tag_222\n      jumpi\n        /* \"#utility.yul\":730:731   */\n      0x00\n        /* \"#utility.yul\":727:728   */\n      dup1\n        /* \"#utility.yul\":720:732   */\n      revert\n        /* \"#utility.yul\":664:734   */\n    tag_222:\n        /* \"#utility.yul\":567:740   */\n      swap2\n      swap1\n      pop\n      jump\t// out\n        /* \"#utility.yul\":745:999   */\n    tag_28:\n        /* \"#utility.yul\":813:819   */\n      0x00\n        /* \"#utility.yul\":821:827   */\n      dup1\n        /* \"#utility.yul\":874:876   */\n      0x40\n        /* \"#utility.yul\":862:871   */\n      dup4\n        /* \"#utility.yul\":853:860   */\n      dup6\n        /* \"#utility.yul\":849:872   */\n      sub\n        /* \"#utility.yul\":845:877   */\n      slt\n        /* \"#utility.yul\":842:894   */\n      iszero\n      tag_224\n      jumpi\n        /* \"#utility.yul\":890:891   */\n      0x00\n        /* \"#utility.yul\":887:888   */\n      dup1\n        /* \"#utility.yul\":880:892   */\n      revert\n        /* \"#utility.yul\":842:894   */\n    tag_224:\n        /* \"#utility.yul\":913:942   */\n      tag_225\n        /* \"#utility.yul\":932:941   */\n      dup4\n        /* \"#utility.yul\":913:942   */\n      tag_215\n      jump\t// in\n    tag_225:\n        /* \"#utility.yul\":903:942   */\n      swap5\n        /* \"#utility.yul\":989:991   */\n      0x20\n        /* \"#utility.yul\":974:992   */\n      swap4\n      swap1\n      swap4\n      add\n        /* \"#utility.yul\":961:993   */\n      calldataload\n      swap4\n      pop\n      pop\n      pop\n        /* \"#utility.yul\":745:999   */\n      jump\t// out\n        /* \"#utility.yul\":1378:1706   */\n    tag_38:\n        /* \"#utility.yul\":1455:1461   */\n      0x00\n        /* \"#utility.yul\":1463:1469   */\n      dup1\n        /* \"#utility.yul\":1471:1477   */\n      0x00\n        /* \"#utility.yul\":1524:1526   */\n      0x60\n        /* \"#utility.yul\":1512:1521   */\n      dup5\n        /* \"#utility.yul\":1503:1510   */\n      dup7\n        /* \"#utility.yul\":1499:1522   */\n      sub\n        /* \"#utility.yul\":1495:1527   */\n      slt\n        /* \"#utility.yul\":1492:1544   */\n      iszero\n      tag_229\n      jumpi\n        /* \"#utility.yul\":1540:1541   */\n      0x00\n        /* \"#utility.yul\":1537:1538   */\n      dup1\n        /* \"#utility.yul\":1530:1542   */\n      revert\n        /* \"#utility.yul\":1492:1544   */\n    tag_229:\n        /* \"#utility.yul\":1563:1592   */\n      tag_230\n        /* \"#utility.yul\":1582:1591   */\n      dup5\n        /* \"#utility.yul\":1563:1592   */\n      tag_215\n      jump\t// in\n    tag_230:\n        /* \"#utility.yul\":1553:1592   */\n      swap3\n      pop\n        /* \"#utility.yul\":1611:1649   */\n      tag_231\n        /* \"#utility.yul\":1645:1647   */\n      0x20\n        /* \"#utility.yul\":1634:1643   */\n      dup6\n        /* \"#utility.yul\":1630:1648   */\n      add\n        /* \"#utility.yul\":1611:1649   */\n      tag_215\n      jump\t// in\n    tag_231:\n        /* \"#utility.yul\":1601:1649   */\n      swap2\n      pop\n        /* \"#utility.yul\":1696:1698   */\n      0x40\n        /* \"#utility.yul\":1685:1694   */\n      dup5\n        /* \"#utility.yul\":1681:1699   */\n      add\n        /* \"#utility.yul\":1668:1700   */\n      calldataload\n        /* \"#utility.yul\":1658:1700   */\n      swap1\n      pop\n        /* \"#utility.yul\":1378:1706   */\n      swap3\n      pop\n      swap3\n      pop\n      swap3\n      jump\t// out\n        /* \"#utility.yul\":1900:2086   */\n    tag_54:\n        /* \"#utility.yul\":1959:1965   */\n      0x00\n        /* \"#utility.yul\":2012:2014   */\n      0x20\n        /* \"#utility.yul\":2000:2009   */\n      dup3\n        /* \"#utility.yul\":1991:1998   */\n      dup5\n        /* \"#utility.yul\":1987:2010   */\n      sub\n        /* \"#utility.yul\":1983:2015   */\n      slt\n        /* \"#utility.yul\":1980:2032   */\n      iszero\n      tag_234\n      jumpi\n        /* \"#utility.yul\":2028:2029   */\n      0x00\n        /* \"#utility.yul\":2025:2026   */\n      dup1\n        /* \"#utility.yul\":2018:2030   */\n      revert\n        /* \"#utility.yul\":1980:2032   */\n    tag_234:\n        /* \"#utility.yul\":2051:2080   */\n      tag_235\n        /* \"#utility.yul\":2070:2079   */\n      dup3\n        /* \"#utility.yul\":2051:2080   */\n      tag_215\n      jump\t// in\n    tag_235:\n        /* \"#utility.yul\":2041:2080   */\n      swap4\n        /* \"#utility.yul\":1900:2086   */\n      swap3\n      pop\n      pop\n      pop\n      jump\t// out\n        /* \"#utility.yul\":2299:2559   */\n    tag_79:\n        /* \"#utility.yul\":2367:2373   */\n      0x00\n        /* \"#utility.yul\":2375:2381   */\n      dup1\n        /* \"#utility.yul\":2428:2430   */\n      0x40\n        /* \"#utility.yul\":2416:2425   */\n      dup4\n        /* \"#utility.yul\":2407:2414   */\n      dup6\n        /* \"#utility.yul\":2403:2426   */\n      sub\n        /* \"#utility.yul\":2399:2431   */\n      slt\n        /* \"#utility.yul\":2396:2448   */\n      iszero\n      tag_238\n      jumpi\n        /* \"#utility.yul\":2444:2445   */\n      0x00\n        /* \"#utility.yul\":2441:2442   */\n      dup1\n        /* \"#utility.yul\":2434:2446   */\n      revert\n        /* \"#utility.yul\":2396:2448   */\n    tag_238:\n        /* \"#utility.yul\":2467:2496   */\n      tag_239\n        /* \"#utility.yul\":2486:2495   */\n      dup4\n        /* \"#utility.yul\":2467:2496   */\n      tag_215\n      jump\t// in\n    tag_239:\n        /* \"#utility.yul\":2457:2496   */\n      swap2\n      pop\n        /* \"#utility.yul\":2515:2553   */\n      tag_240\n        /* \"#utility.yul\":2549:2551   */\n      0x20\n        /* \"#utility.yul\":2538:2547   */\n      dup5\n        /* \"#utility.yul\":2534:2552   */\n      add\n        /* \"#utility.yul\":2515:2553   */\n      tag_215\n      jump\t// in\n    tag_240:\n        /* \"#utility.yul\":2505:2553   */\n      swap1\n      pop\n        /* \"#utility.yul\":2299:2559   */\n      swap3\n      pop\n      swap3\n      swap1\n      pop\n      jump\t// out\n        /* \"#utility.yul\":2564:2944   */\n    tag_87:\n        /* \"#utility.yul\":2643:2644   */\n      0x01\n        /* \"#utility.yul\":2639:2651   */\n      dup2\n      dup2\n      shr\n      swap1\n        /* \"#utility.yul\":2686:2698   */\n      dup3\n      and\n      dup1\n        /* \"#utility.yul\":2707:2768   */\n      tag_242\n      jumpi\n        /* \"#utility.yul\":2761:2765   */\n      0x7f\n        /* \"#utility.yul\":2753:2759   */\n      dup3\n        /* \"#utility.yul\":2749:2766   */\n      and\n        /* \"#utility.yul\":2739:2766   */\n      swap2\n      pop\n        /* \"#utility.yul\":2707:2768   */\n    tag_242:\n        /* \"#utility.yul\":2814:2816   */\n      0x20\n        /* \"#utility.yul\":2806:2812   */\n      dup3\n        /* \"#utility.yul\":2803:2817   */\n      lt\n        /* \"#utility.yul\":2783:2801   */\n      dup2\n        /* \"#utility.yul\":2780:2818   */\n      sub\n        /* \"#utility.yul\":2777:2938   */\n      tag_243\n      jumpi\n        /* \"#utility.yul\":2860:2870   */\n      0x4e487b71\n        /* \"#utility.yul\":2855:2858   */\n      0xe0\n        /* \"#utility.yul\":2851:2871   */\n      shl\n        /* \"#utility.yul\":2848:2849   */\n      0x00\n        /* \"#utility.yul\":2841:2872   */\n      mstore\n        /* \"#utility.yul\":2895:2899   */\n      0x22\n        /* \"#utility.yul\":2892:2893   */\n      0x04\n        /* \"#utility.yul\":2885:2900   */\n      mstore\n        /* \"#utility.yul\":2923:2927   */\n      0x24\n        /* \"#utility.yul\":2920:2921   */\n      0x00\n        /* \"#utility.yul\":2913:2928   */\n      revert\n        /* \"#utility.yul\":2777:2938   */\n    tag_243:\n      pop\n        /* \"#utility.yul\":2564:2944   */\n      swap2\n      swap1\n      pop\n      jump\t// out\n        /* \"#utility.yul\":2949:3171   */\n    tag_110:\n        /* \"#utility.yul\":3014:3023   */\n      dup1\n      dup3\n      add\n        /* \"#utility.yul\":3035:3045   */\n      dup1\n      dup3\n      gt\n        /* \"#utility.yul\":3032:3165   */\n      iszero\n      tag_92\n      jumpi\n        /* \"#utility.yul\":3087:3097   */\n      0x4e487b71\n        /* \"#utility.yul\":3082:3085   */\n      0xe0\n        /* \"#utility.yul\":3078:3098   */\n      shl\n        /* \"#utility.yul\":3075:3076   */\n      0x00\n        /* \"#utility.yul\":3068:3099   */\n      mstore\n        /* \"#utility.yul\":3122:3126   */\n      0x11\n        /* \"#utility.yul\":3119:3120   */\n      0x04\n        /* \"#utility.yul\":3112:3127   */\n      mstore\n        /* \"#utility.yul\":3150:3154   */\n      0x24\n        /* \"#utility.yul\":3147:3148   */\n      0x00\n        /* \"#utility.yul\":3140:3155   */\n      revert\n\n    auxdata: 0xa2646970667358221220bce60b085bad9d2b64d120530597d22d103cb0f63036aa0749169932f6cdfaad64736f6c63430008150033\n}\n",
				"bytecode": {
					"linkReferences": {},
					"object": "608060405234801562000010575f80fd5b506040518060400160405280600c81526020016b29ba30b921b4902a37b5b2b760a11b8152506040518060400160405280600681526020016553544152434960d01b81525081600390816200006691906200018d565b5060046200007582826200018d565b505050620000926200008c6200009860201b60201c565b6200009c565b62000255565b3390565b600580546001600160a01b038381166001600160a01b0319831681179093556040519116919082907f8be0079c531659141344cd1fd0a4f28419497f9722a3daafe3b4186f6b6457e0905f90a35050565b634e487b7160e01b5f52604160045260245ffd5b600181811c908216806200011657607f821691505b6020821081036200013557634e487b7160e01b5f52602260045260245ffd5b50919050565b601f82111562000188575f81815260208120601f850160051c81016020861015620001635750805b601f850160051c820191505b8181101562000184578281556001016200016f565b5050505b505050565b81516001600160401b03811115620001a957620001a9620000ed565b620001c181620001ba845462000101565b846200013b565b602080601f831160018114620001f7575f8415620001df5750858301515b5f19600386901b1c1916600185901b17855562000184565b5f85815260208120601f198616915b82811015620002275788860151825594840194600190910190840162000206565b50858210156200024557878501515f19600388901b60f8161c191681555b5050505050600190811b01905550565b610ccb80620002635f395ff3fe608060405234801561000f575f80fd5b50600436106100fb575f3560e01c8063715018a611610093578063a457c2d711610063578063a457c2d714610202578063a9059cbb14610215578063dd62ed3e14610228578063f2fde38b1461023b575f80fd5b8063715018a6146101c45780638da5cb5b146101cc57806395d89b41146101e75780639dc29fac146101ef575f80fd5b8063313ce567116100ce578063313ce56714610165578063395093511461017457806340c10f191461018757806370a082311461019c575f80fd5b806306fdde03146100ff578063095ea7b31461011d57806318160ddd1461014057806323b872dd14610152575b5f80fd5b61010761024e565b6040516101149190610b26565b60405180910390f35b61013061012b366004610b8c565b6102de565b6040519015158152602001610114565b6002545b604051908152602001610114565b610130610160366004610bb4565b6102f7565b60405160128152602001610114565b610130610182366004610b8c565b61031a565b61019a610195366004610b8c565b61033b565b005b6101446101aa366004610bed565b6001600160a01b03165f9081526020819052604090205490565b61019a6103a8565b6005546040516001600160a01b039091168152602001610114565b6101076103bb565b61019a6101fd366004610b8c565b6103ca565b610130610210366004610b8c565b61042e565b610130610223366004610b8c565b6104a8565b610144610236366004610c0d565b6104b5565b61019a610249366004610bed565b6104df565b60606003805461025d90610c3e565b80601f016020809104026020016040519081016040528092919081815260200182805461028990610c3e565b80156102d45780601f106102ab576101008083540402835291602001916102d4565b820191905f5260205f20905b8154815290600101906020018083116102b757829003601f168201915b5050505050905090565b5f336102eb818585610558565b60019150505b92915050565b5f3361030485828561067c565b61030f8585856106f4565b506001949350505050565b5f336102eb81858561032c83836104b5565b6103369190610c76565b610558565b6005546001600160a01b0316331461039a5760405162461bcd60e51b815260206004820152601e60248201527f4f6e6c7920746865206f776e65722063616e206d696e7420746f6b656e73000060448201526064015b60405180910390fd5b6103a48282610896565b5050565b6103b0610953565b6103b95f6109ad565b565b60606004805461025d90610c3e565b6005546001600160a01b031633146104245760405162461bcd60e51b815260206004820152601e60248201527f4f6e6c7920746865206f776e65722063616e206275726e20746f6b656e7300006044820152606401610391565b6103a482826109fe565b5f338161043b82866104b5565b90508381101561049b5760405162461bcd60e51b815260206004820152602560248201527f45524332303a2064656372656173656420616c6c6f77616e63652062656c6f77604482015264207a65726f60d81b6064820152608401610391565b61030f8286868403610558565b5f336102eb8185856106f4565b6001600160a01b039182165f90815260016020908152604080832093909416825291909152205490565b6104e7610953565b6001600160a01b03811661054c5760405162461bcd60e51b815260206004820152602660248201527f4f776e61626c653a206e6577206f776e657220697320746865207a65726f206160448201526564647265737360d01b6064820152608401610391565b610555816109ad565b50565b6001600160a01b0383166105ba5760405162461bcd60e51b8152602060048201526024808201527f45524332303a20617070726f76652066726f6d20746865207a65726f206164646044820152637265737360e01b6064820152608401610391565b6001600160a01b03821661061b5760405162461bcd60e51b815260206004820152602260248201527f45524332303a20617070726f766520746f20746865207a65726f206164647265604482015261737360f01b6064820152608401610391565b6001600160a01b038381165f8181526001602090815260408083209487168084529482529182902085905590518481527f8c5be1e5ebec7d5bd14f71427d1e84f3dd0314c0f7b2291e5b200ac8c7c3b92591015b60405180910390a3505050565b5f61068784846104b5565b90505f1981146106ee57818110156106e15760405162461bcd60e51b815260206004820152601d60248201527f45524332303a20696e73756666696369656e7420616c6c6f77616e63650000006044820152606401610391565b6106ee8484848403610558565b50505050565b6001600160a01b0383166107585760405162461bcd60e51b815260206004820152602560248201527f45524332303a207472616e736665722066726f6d20746865207a65726f206164604482015264647265737360d81b6064820152608401610391565b6001600160a01b0382166107ba5760405162461bcd60e51b815260206004820152602360248201527f45524332303a207472616e7366657220746f20746865207a65726f206164647260448201526265737360e81b6064820152608401610391565b6001600160a01b0383165f90815260208190526040902054818110156108315760405162461bcd60e51b815260206004820152602660248201527f45524332303a207472616e7366657220616d6f756e7420657863656564732062604482015265616c616e636560d01b6064820152608401610391565b6001600160a01b038481165f81815260208181526040808320878703905593871680835291849020805487019055925185815290927fddf252ad1be2c89b69c2b068fc378daa952ba7f163c4a11628f55a4df523b3ef910160405180910390a36106ee565b6001600160a01b0382166108ec5760405162461bcd60e51b815260206004820152601f60248201527f45524332303a206d696e7420746f20746865207a65726f2061646472657373006044820152606401610391565b8060025f8282546108fd9190610c76565b90915550506001600160a01b0382165f81815260208181526040808320805486019055518481527fddf252ad1be2c89b69c2b068fc378daa952ba7f163c4a11628f55a4df523b3ef910160405180910390a35050565b6005546001600160a01b031633146103b95760405162461bcd60e51b815260206004820181905260248201527f4f776e61626c653a2063616c6c6572206973206e6f7420746865206f776e65726044820152606401610391565b600580546001600160a01b038381166001600160a01b0319831681179093556040519116919082907f8be0079c531659141344cd1fd0a4f28419497f9722a3daafe3b4186f6b6457e0905f90a35050565b6001600160a01b038216610a5e5760405162461bcd60e51b815260206004820152602160248201527f45524332303a206275726e2066726f6d20746865207a65726f206164647265736044820152607360f81b6064820152608401610391565b6001600160a01b0382165f9081526020819052604090205481811015610ad15760405162461bcd60e51b815260206004820152602260248201527f45524332303a206275726e20616d6f756e7420657863656564732062616c616e604482015261636560f01b6064820152608401610391565b6001600160a01b0383165f818152602081815260408083208686039055600280548790039055518581529192917fddf252ad1be2c89b69c2b068fc378daa952ba7f163c4a11628f55a4df523b3ef910161066f565b5f6020808352835180828501525f5b81811015610b5157858101830151858201604001528201610b35565b505f604082860101526040601f19601f8301168501019250505092915050565b80356001600160a01b0381168114610b87575f80fd5b919050565b5f8060408385031215610b9d575f80fd5b610ba683610b71565b946020939093013593505050565b5f805f60608486031215610bc6575f80fd5b610bcf84610b71565b9250610bdd60208501610b71565b9150604084013590509250925092565b5f60208284031215610bfd575f80fd5b610c0682610b71565b9392505050565b5f8060408385031215610c1e575f80fd5b610c2783610b71565b9150610c3560208401610b71565b90509250929050565b600181811c90821680610c5257607f821691505b602082108103610c7057634e487b7160e01b5f52602260045260245ffd5b50919050565b808201808211156102f157634e487b7160e01b5f52601160045260245ffdfea2646970667358221220bce60b085bad9d2b64d120530597d22d103cb0f63036aa0749169932f6cdfaad64736f6c63430008150033",
					"opcodes": "PUSH1 0x80 PUSH1 0x40 MSTORE CALLVALUE DUP1 ISZERO PUSH3 0x10 JUMPI PUSH0 DUP1 REVERT JUMPDEST POP PUSH1 0x40 MLOAD DUP1 PUSH1 0x40 ADD PUSH1 0x40 MSTORE DUP1 PUSH1 0xC DUP2 MSTORE PUSH1 0x20 ADD PUSH12 0x29BA30B921B4902A37B5B2B7 PUSH1 0xA1 SHL DUP2 MSTORE POP PUSH1 0x40 MLOAD DUP1 PUSH1 0x40 ADD PUSH1 0x40 MSTORE DUP1 PUSH1 0x6 DUP2 MSTORE PUSH1 0x20 ADD PUSH6 0x535441524349 PUSH1 0xD0 SHL DUP2 MSTORE POP DUP2 PUSH1 0x3 SWAP1 DUP2 PUSH3 0x66 SWAP2 SWAP1 PUSH3 0x18D JUMP JUMPDEST POP PUSH1 0x4 PUSH3 0x75 DUP3 DUP3 PUSH3 0x18D JUMP JUMPDEST POP POP POP PUSH3 0x92 PUSH3 0x8C PUSH3 0x98 PUSH1 0x20 SHL PUSH1 0x20 SHR JUMP JUMPDEST PUSH3 0x9C JUMP JUMPDEST PUSH3 0x255 JUMP JUMPDEST CALLER SWAP1 JUMP JUMPDEST PUSH1 0x5 DUP1 SLOAD PUSH1 0x1 PUSH1 0x1 PUSH1 0xA0 SHL SUB DUP4 DUP2 AND PUSH1 0x1 PUSH1 0x1 PUSH1 0xA0 SHL SUB NOT DUP4 AND DUP2 OR SWAP1 SWAP4 SSTORE PUSH1 0x40 MLOAD SWAP2 AND SWAP2 SWAP1 DUP3 SWAP1 PUSH32 0x8BE0079C531659141344CD1FD0A4F28419497F9722A3DAAFE3B4186F6B6457E0 SWAP1 PUSH0 SWAP1 LOG3 POP POP JUMP JUMPDEST PUSH4 0x4E487B71 PUSH1 0xE0 SHL PUSH0 MSTORE PUSH1 0x41 PUSH1 0x4 MSTORE PUSH1 0x24 PUSH0 REVERT JUMPDEST PUSH1 0x1 DUP2 DUP2 SHR SWAP1 DUP3 AND DUP1 PUSH3 0x116 JUMPI PUSH1 0x7F DUP3 AND SWAP2 POP JUMPDEST PUSH1 0x20 DUP3 LT DUP2 SUB PUSH3 0x135 JUMPI PUSH4 0x4E487B71 PUSH1 0xE0 SHL PUSH0 MSTORE PUSH1 0x22 PUSH1 0x4 MSTORE PUSH1 0x24 PUSH0 REVERT JUMPDEST POP SWAP2 SWAP1 POP JUMP JUMPDEST PUSH1 0x1F DUP3 GT ISZERO PUSH3 0x188 JUMPI PUSH0 DUP2 DUP2 MSTORE PUSH1 0x20 DUP2 KECCAK256 PUSH1 0x1F DUP6 ADD PUSH1 0x5 SHR DUP2 ADD PUSH1 0x20 DUP7 LT ISZERO PUSH3 0x163 JUMPI POP DUP1 JUMPDEST PUSH1 0x1F DUP6 ADD PUSH1 0x5 SHR DUP3 ADD SWAP2 POP JUMPDEST DUP2 DUP2 LT ISZERO PUSH3 0x184 JUMPI DUP3 DUP2 SSTORE PUSH1 0x1 ADD PUSH3 0x16F JUMP JUMPDEST POP POP POP JUMPDEST POP POP POP JUMP JUMPDEST DUP2 MLOAD PUSH1 0x1 PUSH1 0x1 PUSH1 0x40 SHL SUB DUP2 GT ISZERO PUSH3 0x1A9 JUMPI PUSH3 0x1A9 PUSH3 0xED JUMP JUMPDEST PUSH3 0x1C1 DUP2 PUSH3 0x1BA DUP5 SLOAD PUSH3 0x101 JUMP JUMPDEST DUP5 PUSH3 0x13B JUMP JUMPDEST PUSH1 0x20 DUP1 PUSH1 0x1F DUP4 GT PUSH1 0x1 DUP2 EQ PUSH3 0x1F7 JUMPI PUSH0 DUP5 ISZERO PUSH3 0x1DF JUMPI POP DUP6 DUP4 ADD MLOAD JUMPDEST PUSH0 NOT PUSH1 0x3 DUP7 SWAP1 SHL SHR NOT AND PUSH1 0x1 DUP6 SWAP1 SHL OR DUP6 SSTORE PUSH3 0x184 JUMP JUMPDEST PUSH0 DUP6 DUP2 MSTORE PUSH1 0x20 DUP2 KECCAK256 PUSH1 0x1F NOT DUP7 AND SWAP2 JUMPDEST DUP3 DUP2 LT ISZERO PUSH3 0x227 JUMPI DUP9 DUP7 ADD MLOAD DUP3 SSTORE SWAP5 DUP5 ADD SWAP5 PUSH1 0x1 SWAP1 SWAP2 ADD SWAP1 DUP5 ADD PUSH3 0x206 JUMP JUMPDEST POP DUP6 DUP3 LT ISZERO PUSH3 0x245 JUMPI DUP8 DUP6 ADD MLOAD PUSH0 NOT PUSH1 0x3 DUP9 SWAP1 SHL PUSH1 0xF8 AND SHR NOT AND DUP2 SSTORE JUMPDEST POP POP POP POP POP PUSH1 0x1 SWAP1 DUP2 SHL ADD SWAP1 SSTORE POP JUMP JUMPDEST PUSH2 0xCCB DUP1 PUSH3 0x263 PUSH0 CODECOPY PUSH0 RETURN INVALID PUSH1 0x80 PUSH1 0x40 MSTORE CALLVALUE DUP1 ISZERO PUSH2 0xF JUMPI PUSH0 DUP1 REVERT JUMPDEST POP PUSH1 0x4 CALLDATASIZE LT PUSH2 0xFB JUMPI PUSH0 CALLDATALOAD PUSH1 0xE0 SHR DUP1 PUSH4 0x715018A6 GT PUSH2 0x93 JUMPI DUP1 PUSH4 0xA457C2D7 GT PUSH2 0x63 JUMPI DUP1 PUSH4 0xA457C2D7 EQ PUSH2 0x202 JUMPI DUP1 PUSH4 0xA9059CBB EQ PUSH2 0x215 JUMPI DUP1 PUSH4 0xDD62ED3E EQ PUSH2 0x228 JUMPI DUP1 PUSH4 0xF2FDE38B EQ PUSH2 0x23B JUMPI PUSH0 DUP1 REVERT JUMPDEST DUP1 PUSH4 0x715018A6 EQ PUSH2 0x1C4 JUMPI DUP1 PUSH4 0x8DA5CB5B EQ PUSH2 0x1CC JUMPI DUP1 PUSH4 0x95D89B41 EQ PUSH2 0x1E7 JUMPI DUP1 PUSH4 0x9DC29FAC EQ PUSH2 0x1EF JUMPI PUSH0 DUP1 REVERT JUMPDEST DUP1 PUSH4 0x313CE567 GT PUSH2 0xCE JUMPI DUP1 PUSH4 0x313CE567 EQ PUSH2 0x165 JUMPI DUP1 PUSH4 0x39509351 EQ PUSH2 0x174 JUMPI DUP1 PUSH4 0x40C10F19 EQ PUSH2 0x187 JUMPI DUP1 PUSH4 0x70A08231 EQ PUSH2 0x19C JUMPI PUSH0 DUP1 REVERT JUMPDEST DUP1 PUSH4 0x6FDDE03 EQ PUSH2 0xFF JUMPI DUP1 PUSH4 0x95EA7B3 EQ PUSH2 0x11D JUMPI DUP1 PUSH4 0x18160DDD EQ PUSH2 0x140 JUMPI DUP1 PUSH4 0x23B872DD EQ PUSH2 0x152 JUMPI JUMPDEST PUSH0 DUP1 REVERT JUMPDEST PUSH2 0x107 PUSH2 0x24E JUMP JUMPDEST PUSH1 0x40 MLOAD PUSH2 0x114 SWAP2 SWAP1 PUSH2 0xB26 JUMP JUMPDEST PUSH1 0x40 MLOAD DUP1 SWAP2 SUB SWAP1 RETURN JUMPDEST PUSH2 0x130 PUSH2 0x12B CALLDATASIZE PUSH1 0x4 PUSH2 0xB8C JUMP JUMPDEST PUSH2 0x2DE JUMP JUMPDEST PUSH1 0x40 MLOAD SWAP1 ISZERO ISZERO DUP2 MSTORE PUSH1 0x20 ADD PUSH2 0x114 JUMP JUMPDEST PUSH1 0x2 SLOAD JUMPDEST PUSH1 0x40 MLOAD SWAP1 DUP2 MSTORE PUSH1 0x20 ADD PUSH2 0x114 JUMP JUMPDEST PUSH2 0x130 PUSH2 0x160 CALLDATASIZE PUSH1 0x4 PUSH2 0xBB4 JUMP JUMPDEST PUSH2 0x2F7 JUMP JUMPDEST PUSH1 0x40 MLOAD PUSH1 0x12 DUP2 MSTORE PUSH1 0x20 ADD PUSH2 0x114 JUMP JUMPDEST PUSH2 0x130 PUSH2 0x182 CALLDATASIZE PUSH1 0x4 PUSH2 0xB8C JUMP JUMPDEST PUSH2 0x31A JUMP JUMPDEST PUSH2 0x19A PUSH2 0x195 CALLDATASIZE PUSH1 0x4 PUSH2 0xB8C JUMP JUMPDEST PUSH2 0x33B JUMP JUMPDEST STOP JUMPDEST PUSH2 0x144 PUSH2 0x1AA CALLDATASIZE PUSH1 0x4 PUSH2 0xBED JUMP JUMPDEST PUSH1 0x1 PUSH1 0x1 PUSH1 0xA0 SHL SUB AND PUSH0 SWAP1 DUP2 MSTORE PUSH1 0x20 DUP2 SWAP1 MSTORE PUSH1 0x40 SWAP1 KECCAK256 SLOAD SWAP1 JUMP JUMPDEST PUSH2 0x19A PUSH2 0x3A8 JUMP JUMPDEST PUSH1 0x5 SLOAD PUSH1 0x40 MLOAD PUSH1 0x1 PUSH1 0x1 PUSH1 0xA0 SHL SUB SWAP1 SWAP2 AND DUP2 MSTORE PUSH1 0x20 ADD PUSH2 0x114 JUMP JUMPDEST PUSH2 0x107 PUSH2 0x3BB JUMP JUMPDEST PUSH2 0x19A PUSH2 0x1FD CALLDATASIZE PUSH1 0x4 PUSH2 0xB8C JUMP JUMPDEST PUSH2 0x3CA JUMP JUMPDEST PUSH2 0x130 PUSH2 0x210 CALLDATASIZE PUSH1 0x4 PUSH2 0xB8C JUMP JUMPDEST PUSH2 0x42E JUMP JUMPDEST PUSH2 0x130 PUSH2 0x223 CALLDATASIZE PUSH1 0x4 PUSH2 0xB8C JUMP JUMPDEST PUSH2 0x4A8 JUMP JUMPDEST PUSH2 0x144 PUSH2 0x236 CALLDATASIZE PUSH1 0x4 PUSH2 0xC0D JUMP JUMPDEST PUSH2 0x4B5 JUMP JUMPDEST PUSH2 0x19A PUSH2 0x249 CALLDATASIZE PUSH1 0x4 PUSH2 0xBED JUMP JUMPDEST PUSH2 0x4DF JUMP JUMPDEST PUSH1 0x60 PUSH1 0x3 DUP1 SLOAD PUSH2 0x25D SWAP1 PUSH2 0xC3E JUMP JUMPDEST DUP1 PUSH1 0x1F ADD PUSH1 0x20 DUP1 SWAP2 DIV MUL PUSH1 0x20 ADD PUSH1 0x40 MLOAD SWAP1 DUP2 ADD PUSH1 0x40 MSTORE DUP1 SWAP3 SWAP2 SWAP1 DUP2 DUP2 MSTORE PUSH1 0x20 ADD DUP3 DUP1 SLOAD PUSH2 0x289 SWAP1 PUSH2 0xC3E JUMP JUMPDEST DUP1 ISZERO PUSH2 0x2D4 JUMPI DUP1 PUSH1 0x1F LT PUSH2 0x2AB JUMPI PUSH2 0x100 DUP1 DUP4 SLOAD DIV MUL DUP4 MSTORE SWAP2 PUSH1 0x20 ADD SWAP2 PUSH2 0x2D4 JUMP JUMPDEST DUP3 ADD SWAP2 SWAP1 PUSH0 MSTORE PUSH1 0x20 PUSH0 KECCAK256 SWAP1 JUMPDEST DUP2 SLOAD DUP2 MSTORE SWAP1 PUSH1 0x1 ADD SWAP1 PUSH1 0x20 ADD DUP1 DUP4 GT PUSH2 0x2B7 JUMPI DUP3 SWAP1 SUB PUSH1 0x1F AND DUP3 ADD SWAP2 JUMPDEST POP POP POP POP POP SWAP1 POP SWAP1 JUMP JUMPDEST PUSH0 CALLER PUSH2 0x2EB DUP2 DUP6 DUP6 PUSH2 0x558 JUMP JUMPDEST PUSH1 0x1 SWAP2 POP POP JUMPDEST SWAP3 SWAP2 POP POP JUMP JUMPDEST PUSH0 CALLER PUSH2 0x304 DUP6 DUP3 DUP6 PUSH2 0x67C JUMP JUMPDEST PUSH2 0x30F DUP6 DUP6 DUP6 PUSH2 0x6F4 JUMP JUMPDEST POP PUSH1 0x1 SWAP5 SWAP4 POP POP POP POP JUMP JUMPDEST PUSH0 CALLER PUSH2 0x2EB DUP2 DUP6 DUP6 PUSH2 0x32C DUP4 DUP4 PUSH2 0x4B5 JUMP JUMPDEST PUSH2 0x336 SWAP2 SWAP1 PUSH2 0xC76 JUMP JUMPDEST PUSH2 0x558 JUMP JUMPDEST PUSH1 0x5 SLOAD PUSH1 0x1 PUSH1 0x1 PUSH1 0xA0 SHL SUB AND CALLER EQ PUSH2 0x39A JUMPI PUSH1 0x40 MLOAD PUSH3 0x461BCD PUSH1 0xE5 SHL DUP2 MSTORE PUSH1 0x20 PUSH1 0x4 DUP3 ADD MSTORE PUSH1 0x1E PUSH1 0x24 DUP3 ADD MSTORE PUSH32 0x4F6E6C7920746865206F776E65722063616E206D696E7420746F6B656E730000 PUSH1 0x44 DUP3 ADD MSTORE PUSH1 0x64 ADD JUMPDEST PUSH1 0x40 MLOAD DUP1 SWAP2 SUB SWAP1 REVERT JUMPDEST PUSH2 0x3A4 DUP3 DUP3 PUSH2 0x896 JUMP JUMPDEST POP POP JUMP JUMPDEST PUSH2 0x3B0 PUSH2 0x953 JUMP JUMPDEST PUSH2 0x3B9 PUSH0 PUSH2 0x9AD JUMP JUMPDEST JUMP JUMPDEST PUSH1 0x60 PUSH1 0x4 DUP1 SLOAD PUSH2 0x25D SWAP1 PUSH2 0xC3E JUMP JUMPDEST PUSH1 0x5 SLOAD PUSH1 0x1 PUSH1 0x1 PUSH1 0xA0 SHL SUB AND CALLER EQ PUSH2 0x424 JUMPI PUSH1 0x40 MLOAD PUSH3 0x461BCD PUSH1 0xE5 SHL DUP2 MSTORE PUSH1 0x20 PUSH1 0x4 DUP3 ADD MSTORE PUSH1 0x1E PUSH1 0x24 DUP3 ADD MSTORE PUSH32 0x4F6E6C7920746865206F776E65722063616E206275726E20746F6B656E730000 PUSH1 0x44 DUP3 ADD MSTORE PUSH1 0x64 ADD PUSH2 0x391 JUMP JUMPDEST PUSH2 0x3A4 DUP3 DUP3 PUSH2 0x9FE JUMP JUMPDEST PUSH0 CALLER DUP2 PUSH2 0x43B DUP3 DUP7 PUSH2 0x4B5 JUMP JUMPDEST SWAP1 POP DUP4 DUP2 LT ISZERO PUSH2 0x49B JUMPI PUSH1 0x40 MLOAD PUSH3 0x461BCD PUSH1 0xE5 SHL DUP2 MSTORE PUSH1 0x20 PUSH1 0x4 DUP3 ADD MSTORE PUSH1 0x25 PUSH1 0x24 DUP3 ADD MSTORE PUSH32 0x45524332303A2064656372656173656420616C6C6F77616E63652062656C6F77 PUSH1 0x44 DUP3 ADD MSTORE PUSH5 0x207A65726F PUSH1 0xD8 SHL PUSH1 0x64 DUP3 ADD MSTORE PUSH1 0x84 ADD PUSH2 0x391 JUMP JUMPDEST PUSH2 0x30F DUP3 DUP7 DUP7 DUP5 SUB PUSH2 0x558 JUMP JUMPDEST PUSH0 CALLER PUSH2 0x2EB DUP2 DUP6 DUP6 PUSH2 0x6F4 JUMP JUMPDEST PUSH1 0x1 PUSH1 0x1 PUSH1 0xA0 SHL SUB SWAP2 DUP3 AND PUSH0 SWAP1 DUP2 MSTORE PUSH1 0x1 PUSH1 0x20 SWAP1 DUP2 MSTORE PUSH1 0x40 DUP1 DUP4 KECCAK256 SWAP4 SWAP1 SWAP5 AND DUP3 MSTORE SWAP2 SWAP1 SWAP2 MSTORE KECCAK256 SLOAD SWAP1 JUMP JUMPDEST PUSH2 0x4E7 PUSH2 0x953 JUMP JUMPDEST PUSH1 0x1 PUSH1 0x1 PUSH1 0xA0 SHL SUB DUP2 AND PUSH2 0x54C JUMPI PUSH1 0x40 MLOAD PUSH3 0x461BCD PUSH1 0xE5 SHL DUP2 MSTORE PUSH1 0x20 PUSH1 0x4 DUP3 ADD MSTORE PUSH1 0x26 PUSH1 0x24 DUP3 ADD MSTORE PUSH32 0x4F776E61626C653A206E6577206F776E657220697320746865207A65726F2061 PUSH1 0x44 DUP3 ADD MSTORE PUSH6 0x646472657373 PUSH1 0xD0 SHL PUSH1 0x64 DUP3 ADD MSTORE PUSH1 0x84 ADD PUSH2 0x391 JUMP JUMPDEST PUSH2 0x555 DUP2 PUSH2 0x9AD JUMP JUMPDEST POP JUMP JUMPDEST PUSH1 0x1 PUSH1 0x1 PUSH1 0xA0 SHL SUB DUP4 AND PUSH2 0x5BA JUMPI PUSH1 0x40 MLOAD PUSH3 0x461BCD PUSH1 0xE5 SHL DUP2 MSTORE PUSH1 0x20 PUSH1 0x4 DUP3 ADD MSTORE PUSH1 0x24 DUP1 DUP3 ADD MSTORE PUSH32 0x45524332303A20617070726F76652066726F6D20746865207A65726F20616464 PUSH1 0x44 DUP3 ADD MSTORE PUSH4 0x72657373 PUSH1 0xE0 SHL PUSH1 0x64 DUP3 ADD MSTORE PUSH1 0x84 ADD PUSH2 0x391 JUMP JUMPDEST PUSH1 0x1 PUSH1 0x1 PUSH1 0xA0 SHL SUB DUP3 AND PUSH2 0x61B JUMPI PUSH1 0x40 MLOAD PUSH3 0x461BCD PUSH1 0xE5 SHL DUP2 MSTORE PUSH1 0x20 PUSH1 0x4 DUP3 ADD MSTORE PUSH1 0x22 PUSH1 0x24 DUP3 ADD MSTORE PUSH32 0x45524332303A20617070726F766520746F20746865207A65726F206164647265 PUSH1 0x44 DUP3 ADD MSTORE PUSH2 0x7373 PUSH1 0xF0 SHL PUSH1 0x64 DUP3 ADD MSTORE PUSH1 0x84 ADD PUSH2 0x391 JUMP JUMPDEST PUSH1 0x1 PUSH1 0x1 PUSH1 0xA0 SHL SUB DUP4 DUP2 AND PUSH0 DUP2 DUP2 MSTORE PUSH1 0x1 PUSH1 0x20 SWAP1 DUP2 MSTORE PUSH1 0x40 DUP1 DUP4 KECCAK256 SWAP5 DUP8 AND DUP1 DUP5 MSTORE SWAP5 DUP3 MSTORE SWAP2 DUP3 SWAP1 KECCAK256 DUP6 SWAP1 SSTORE SWAP1 MLOAD DUP5 DUP2 MSTORE PUSH32 0x8C5BE1E5EBEC7D5BD14F71427D1E84F3DD0314C0F7B2291E5B200AC8C7C3B925 SWAP2 ADD JUMPDEST PUSH1 0x40 MLOAD DUP1 SWAP2 SUB SWAP1 LOG3 POP POP POP JUMP JUMPDEST PUSH0 PUSH2 0x687 DUP5 DUP5 PUSH2 0x4B5 JUMP JUMPDEST SWAP1 POP PUSH0 NOT DUP2 EQ PUSH2 0x6EE JUMPI DUP2 DUP2 LT ISZERO PUSH2 0x6E1 JUMPI PUSH1 0x40 MLOAD PUSH3 0x461BCD PUSH1 0xE5 SHL DUP2 MSTORE PUSH1 0x20 PUSH1 0x4 DUP3 ADD MSTORE PUSH1 0x1D PUSH1 0x24 DUP3 ADD MSTORE PUSH32 0x45524332303A20696E73756666696369656E7420616C6C6F77616E6365000000 PUSH1 0x44 DUP3 ADD MSTORE PUSH1 0x64 ADD PUSH2 0x391 JUMP JUMPDEST PUSH2 0x6EE DUP5 DUP5 DUP5 DUP5 SUB PUSH2 0x558 JUMP JUMPDEST POP POP POP POP JUMP JUMPDEST PUSH1 0x1 PUSH1 0x1 PUSH1 0xA0 SHL SUB DUP4 AND PUSH2 0x758 JUMPI PUSH1 0x40 MLOAD PUSH3 0x461BCD PUSH1 0xE5 SHL DUP2 MSTORE PUSH1 0x20 PUSH1 0x4 DUP3 ADD MSTORE PUSH1 0x25 PUSH1 0x24 DUP3 ADD MSTORE PUSH32 0x45524332303A207472616E736665722066726F6D20746865207A65726F206164 PUSH1 0x44 DUP3 ADD MSTORE PUSH5 0x6472657373 PUSH1 0xD8 SHL PUSH1 0x64 DUP3 ADD MSTORE PUSH1 0x84 ADD PUSH2 0x391 JUMP JUMPDEST PUSH1 0x1 PUSH1 0x1 PUSH1 0xA0 SHL SUB DUP3 AND PUSH2 0x7BA JUMPI PUSH1 0x40 MLOAD PUSH3 0x461BCD PUSH1 0xE5 SHL DUP2 MSTORE PUSH1 0x20 PUSH1 0x4 DUP3 ADD MSTORE PUSH1 0x23 PUSH1 0x24 DUP3 ADD MSTORE PUSH32 0x45524332303A207472616E7366657220746F20746865207A65726F2061646472 PUSH1 0x44 DUP3 ADD MSTORE PUSH3 0x657373 PUSH1 0xE8 SHL PUSH1 0x64 DUP3 ADD MSTORE PUSH1 0x84 ADD PUSH2 0x391 JUMP JUMPDEST PUSH1 0x1 PUSH1 0x1 PUSH1 0xA0 SHL SUB DUP4 AND PUSH0 SWAP1 DUP2 MSTORE PUSH1 0x20 DUP2 SWAP1 MSTORE PUSH1 0x40 SWAP1 KECCAK256 SLOAD DUP2 DUP2 LT ISZERO PUSH2 0x831 JUMPI PUSH1 0x40 MLOAD PUSH3 0x461BCD PUSH1 0xE5 SHL DUP2 MSTORE PUSH1 0x20 PUSH1 0x4 DUP3 ADD MSTORE PUSH1 0x26 PUSH1 0x24 DUP3 ADD MSTORE PUSH32 0x45524332303A207472616E7366657220616D6F756E7420657863656564732062 PUSH1 0x44 DUP3 ADD MSTORE PUSH6 0x616C616E6365 PUSH1 0xD0 SHL PUSH1 0x64 DUP3 ADD MSTORE PUSH1 0x84 ADD PUSH2 0x391 JUMP JUMPDEST PUSH1 0x1 PUSH1 0x1 PUSH1 0xA0 SHL SUB DUP5 DUP2 AND PUSH0 DUP2 DUP2 MSTORE PUSH1 0x20 DUP2 DUP2 MSTORE PUSH1 0x40 DUP1 DUP4 KECCAK256 DUP8 DUP8 SUB SWAP1 SSTORE SWAP4 DUP8 AND DUP1 DUP4 MSTORE SWAP2 DUP5 SWAP1 KECCAK256 DUP1 SLOAD DUP8 ADD SWAP1 SSTORE SWAP3 MLOAD DUP6 DUP2 MSTORE SWAP1 SWAP3 PUSH32 0xDDF252AD1BE2C89B69C2B068FC378DAA952BA7F163C4A11628F55A4DF523B3EF SWAP2 ADD PUSH1 0x40 MLOAD DUP1 SWAP2 SUB SWAP1 LOG3 PUSH2 0x6EE JUMP JUMPDEST PUSH1 0x1 PUSH1 0x1 PUSH1 0xA0 SHL SUB DUP3 AND PUSH2 0x8EC JUMPI PUSH1 0x40 MLOAD PUSH3 0x461BCD PUSH1 0xE5 SHL DUP2 MSTORE PUSH1 0x20 PUSH1 0x4 DUP3 ADD MSTORE PUSH1 0x1F PUSH1 0x24 DUP3 ADD MSTORE PUSH32 0x45524332303A206D696E7420746F20746865207A65726F206164647265737300 PUSH1 0x44 DUP3 ADD MSTORE PUSH1 0x64 ADD PUSH2 0x391 JUMP JUMPDEST DUP1 PUSH1 0x2 PUSH0 DUP3 DUP3 SLOAD PUSH2 0x8FD SWAP2 SWAP1 PUSH2 0xC76 JUMP JUMPDEST SWAP1 SWAP2 SSTORE POP POP PUSH1 0x1 PUSH1 0x1 PUSH1 0xA0 SHL SUB DUP3 AND PUSH0 DUP2 DUP2 MSTORE PUSH1 0x20 DUP2 DUP2 MSTORE PUSH1 0x40 DUP1 DUP4 KECCAK256 DUP1 SLOAD DUP7 ADD SWAP1 SSTORE MLOAD DUP5 DUP2 MSTORE PUSH32 0xDDF252AD1BE2C89B69C2B068FC378DAA952BA7F163C4A11628F55A4DF523B3EF SWAP2 ADD PUSH1 0x40 MLOAD DUP1 SWAP2 SUB SWAP1 LOG3 POP POP JUMP JUMPDEST PUSH1 0x5 SLOAD PUSH1 0x1 PUSH1 0x1 PUSH1 0xA0 SHL SUB AND CALLER EQ PUSH2 0x3B9 JUMPI PUSH1 0x40 MLOAD PUSH3 0x461BCD PUSH1 0xE5 SHL DUP2 MSTORE PUSH1 0x20 PUSH1 0x4 DUP3 ADD DUP2 SWAP1 MSTORE PUSH1 0x24 DUP3 ADD MSTORE PUSH32 0x4F776E61626C653A2063616C6C6572206973206E6F7420746865206F776E6572 PUSH1 0x44 DUP3 ADD MSTORE PUSH1 0x64 ADD PUSH2 0x391 JUMP JUMPDEST PUSH1 0x5 DUP1 SLOAD PUSH1 0x1 PUSH1 0x1 PUSH1 0xA0 SHL SUB DUP4 DUP2 AND PUSH1 0x1 PUSH1 0x1 PUSH1 0xA0 SHL SUB NOT DUP4 AND DUP2 OR SWAP1 SWAP4 SSTORE PUSH1 0x40 MLOAD SWAP2 AND SWAP2 SWAP1 DUP3 SWAP1 PUSH32 0x8BE0079C531659141344CD1FD0A4F28419497F9722A3DAAFE3B4186F6B6457E0 SWAP1 PUSH0 SWAP1 LOG3 POP POP JUMP JUMPDEST PUSH1 0x1 PUSH1 0x1 PUSH1 0xA0 SHL SUB DUP3 AND PUSH2 0xA5E JUMPI PUSH1 0x40 MLOAD PUSH3 0x461BCD PUSH1 0xE5 SHL DUP2 MSTORE PUSH1 0x20 PUSH1 0x4 DUP3 ADD MSTORE PUSH1 0x21 PUSH1 0x24 DUP3 ADD MSTORE PUSH32 0x45524332303A206275726E2066726F6D20746865207A65726F20616464726573 PUSH1 0x44 DUP3 ADD MSTORE PUSH1 0x73 PUSH1 0xF8 SHL PUSH1 0x64 DUP3 ADD MSTORE PUSH1 0x84 ADD PUSH2 0x391 JUMP JUMPDEST PUSH1 0x1 PUSH1 0x1 PUSH1 0xA0 SHL SUB DUP3 AND PUSH0 SWAP1 DUP2 MSTORE PUSH1 0x20 DUP2 SWAP1 MSTORE PUSH1 0x40 SWAP1 KECCAK256 SLOAD DUP2 DUP2 LT ISZERO PUSH2 0xAD1 JUMPI PUSH1 0x40 MLOAD PUSH3 0x461BCD PUSH1 0xE5 SHL DUP2 MSTORE PUSH1 0x20 PUSH1 0x4 DUP3 ADD MSTORE PUSH1 0x22 PUSH1 0x24 DUP3 ADD MSTORE PUSH32 0x45524332303A206275726E20616D6F756E7420657863656564732062616C616E PUSH1 0x44 DUP3 ADD MSTORE PUSH2 0x6365 PUSH1 0xF0 SHL PUSH1 0x64 DUP3 ADD MSTORE PUSH1 0x84 ADD PUSH2 0x391 JUMP JUMPDEST PUSH1 0x1 PUSH1 0x1 PUSH1 0xA0 SHL SUB DUP4 AND PUSH0 DUP2 DUP2 MSTORE PUSH1 0x20 DUP2 DUP2 MSTORE PUSH1 0x40 DUP1 DUP4 KECCAK256 DUP7 DUP7 SUB SWAP1 SSTORE PUSH1 0x2 DUP1 SLOAD DUP8 SWAP1 SUB SWAP1 SSTORE MLOAD DUP6 DUP2 MSTORE SWAP2 SWAP3 SWAP2 PUSH32 0xDDF252AD1BE2C89B69C2B068FC378DAA952BA7F163C4A11628F55A4DF523B3EF SWAP2 ADD PUSH2 0x66F JUMP JUMPDEST PUSH0 PUSH1 0x20 DUP1 DUP4 MSTORE DUP4 MLOAD DUP1 DUP3 DUP6 ADD MSTORE PUSH0 JUMPDEST DUP2 DUP2 LT ISZERO PUSH2 0xB51 JUMPI DUP6 DUP2 ADD DUP4 ADD MLOAD DUP6 DUP3 ADD PUSH1 0x40 ADD MSTORE DUP3 ADD PUSH2 0xB35 JUMP JUMPDEST POP PUSH0 PUSH1 0x40 DUP3 DUP7 ADD ADD MSTORE PUSH1 0x40 PUSH1 0x1F NOT PUSH1 0x1F DUP4 ADD AND DUP6 ADD ADD SWAP3 POP POP POP SWAP3 SWAP2 POP POP JUMP JUMPDEST DUP1 CALLDATALOAD PUSH1 0x1 PUSH1 0x1 PUSH1 0xA0 SHL SUB DUP2 AND DUP2 EQ PUSH2 0xB87 JUMPI PUSH0 DUP1 REVERT JUMPDEST SWAP2 SWAP1 POP JUMP JUMPDEST PUSH0 DUP1 PUSH1 0x40 DUP4 DUP6 SUB SLT ISZERO PUSH2 0xB9D JUMPI PUSH0 DUP1 REVERT JUMPDEST PUSH2 0xBA6 DUP4 PUSH2 0xB71 JUMP JUMPDEST SWAP5 PUSH1 0x20 SWAP4 SWAP1 SWAP4 ADD CALLDATALOAD SWAP4 POP POP POP JUMP JUMPDEST PUSH0 DUP1 PUSH0 PUSH1 0x60 DUP5 DUP7 SUB SLT ISZERO PUSH2 0xBC6 JUMPI PUSH0 DUP1 REVERT JUMPDEST PUSH2 0xBCF DUP5 PUSH2 0xB71 JUMP JUMPDEST SWAP3 POP PUSH2 0xBDD PUSH1 0x20 DUP6 ADD PUSH2 0xB71 JUMP JUMPDEST SWAP2 POP PUSH1 0x40 DUP5 ADD CALLDATALOAD SWAP1 POP SWAP3 POP SWAP3 POP SWAP3 JUMP JUMPDEST PUSH0 PUSH1 0x20 DUP3 DUP5 SUB SLT ISZERO PUSH2 0xBFD JUMPI PUSH0 DUP1 REVERT JUMPDEST PUSH2 0xC06 DUP3 PUSH2 0xB71 JUMP JUMPDEST SWAP4 SWAP3 POP POP POP JUMP JUMPDEST PUSH0 DUP1 PUSH1 0x40 DUP4 DUP6 SUB SLT ISZERO PUSH2 0xC1E JUMPI PUSH0 DUP1 REVERT JUMPDEST PUSH2 0xC27 DUP4 PUSH2 0xB71 JUMP JUMPDEST SWAP2 POP PUSH2 0xC35 PUSH1 0x20 DUP5 ADD PUSH2 0xB71 JUMP JUMPDEST SWAP1 POP SWAP3 POP SWAP3 SWAP1 POP JUMP JUMPDEST PUSH1 0x1 DUP2 DUP2 SHR SWAP1 DUP3 AND DUP1 PUSH2 0xC52 JUMPI PUSH1 0x7F DUP3 AND SWAP2 POP JUMPDEST PUSH1 0x20 DUP3 LT DUP2 SUB PUSH2 0xC70 JUMPI PUSH4 0x4E487B71 PUSH1 0xE0 SHL PUSH0 MSTORE PUSH1 0x22 PUSH1 0x4 MSTORE PUSH1 0x24 PUSH0 REVERT JUMPDEST POP SWAP2 SWAP1 POP JUMP JUMPDEST DUP1 DUP3 ADD DUP1 DUP3 GT ISZERO PUSH2 0x2F1 JUMPI PUSH4 0x4E487B71 PUSH1 0xE0 SHL PUSH0 MSTORE PUSH1 0x11 PUSH1 0x4 MSTORE PUSH1 0x24 PUSH0 REVERT INVALID LOG2 PUSH5 0x6970667358 0x22 SLT KECCAK256 0xBC 0xE6 SIGNEXTEND ADDMOD JUMPDEST 0xAD SWAP14 0x2B PUSH5 0xD120530597 0xD2 0x2D LT EXTCODECOPY 0xB0 0xF6 ADDRESS CALLDATASIZE 0xAA SMOD 0x49 AND SWAP10 ORIGIN 0xF6 0xCD STATICCALL 0xAD PUSH5 0x736F6C6343 STOP ADDMOD ISZERO STOP CALLER "
				},
				"gasEstimates": {
					"creation": {
						"codeDepositCost": "655000",
						"executionCost": "infinite",
						"totalCost": "infinite"
					},
					"external": {
						"allowance(address,address)": "infinite",
						"approve(address,uint256)": "24648",
						"balanceOf(address)": "2626",
						"burn(address,uint256)": "53090",
						"decimals()": "199",
						"decreaseAllowance(address,uint256)": "26968",
						"increaseAllowance(address,uint256)": "infinite",
						"mint(address,uint256)": "53008",
						"name()": "infinite",
						"owner()": "2345",
						"renounceOwnership()": "infinite",
						"symbol()": "infinite",
						"totalSupply()": "2348",
						"transfer(address,uint256)": "51089",
						"transferFrom(address,address,uint256)": "infinite",
						"transferOwnership(address)": "28421"
					}
				},
				"methodIdentifiers": {
					"allowance(address,address)": "dd62ed3e",
					"approve(address,uint256)": "095ea7b3",
					"balanceOf(address)": "70a08231",
					"burn(address,uint256)": "9dc29fac",
					"decimals()": "313ce567",
					"decreaseAllowance(address,uint256)": "a457c2d7",
					"increaseAllowance(address,uint256)": "39509351",
					"mint(address,uint256)": "40c10f19",
					"name()": "06fdde03",
					"owner()": "8da5cb5b",
					"renounceOwnership()": "715018a6",
					"symbol()": "95d89b41",
					"totalSupply()": "18160ddd",
					"transfer(address,uint256)": "a9059cbb",
					"transferFrom(address,address,uint256)": "23b872dd",
					"transferOwnership(address)": "f2fde38b"
				}
			},
			"storageLayout": {
				"storage": [
					{
						"astId": 128,
						"contract": "SmartContracts/contracts/Token.sol:Token",
						"label": "_balances",
						"offset": 0,
						"slot": "0",
						"type": "t_mapping(t_address,t_uint256)"
					},
					{
						"astId": 134,
						"contract": "SmartContracts/contracts/Token.sol:Token",
						"label": "_allowances",
						"offset": 0,
						"slot": "1",
						"type": "t_mapping(t_address,t_mapping(t_address,t_uint256))"
					},
					{
						"astId": 136,
						"contract": "SmartContracts/contracts/Token.sol:Token",
						"label": "_totalSupply",
						"offset": 0,
						"slot": "2",
						"type": "t_uint256"
					},
					{
						"astId": 138,
						"contract": "SmartContracts/contracts/Token.sol:Token",
						"label": "_name",
						"offset": 0,
						"slot": "3",
						"type": "t_string_storage"
					},
					{
						"astId": 140,
						"contract": "SmartContracts/contracts/Token.sol:Token",
						"label": "_symbol",
						"offset": 0,
						"slot": "4",
						"type": "t_string_storage"
					},
					{
						"astId": 7,
						"contract": "SmartContracts/contracts/Token.sol:Token",
						"label": "_owner",
						"offset": 0,
						"slot": "5",
						"type": "t_address"
					}
				],
				"types": {
					"t_address": {
						"encoding": "inplace",
						"label": "address",
						"numberOfBytes": "20"
					},
					"t_mapping(t_address,t_mapping(t_address,t_uint256))": {
						"encoding": "mapping",
						"key": "t_address",
						"label": "mapping(address => mapping(address => uint256))",
						"numberOfBytes": "32",
						"value": "t_mapping(t_address,t_uint256)"
					},
					"t_mapping(t_address,t_uint256)": {
						"encoding": "mapping",
						"key": "t_address",
						"label": "mapping(address => uint256)",
						"numberOfBytes": "32",
						"value": "t_uint256"
					},
					"t_string_storage": {
						"encoding": "bytes",
						"label": "string",
						"numberOfBytes": "32"
					},
					"t_uint256": {
						"encoding": "inplace",
						"label": "uint256",
						"numberOfBytes": "32"
					}
				}
			},
			"userdoc": {
				"kind": "user",
				"methods": {},
				"version": 1
			}
		}
	}
}