{
	"SmartContracts/contracts/LiquidityPool.sol": {
		"LiquidityPool": {
			"abi": [
				{
					"inputs": [
						{
							"internalType": "address",
							"name": "_token0",
							"type": "address"
						},
						{
							"internalType": "address",
							"name": "_token1",
							"type": "address"
						},
						{
							"internalType": "uint256",
							"name": "_token0MaxAmount",
							"type": "uint256"
						},
						{
							"internalType": "uint256",
							"name": "_token1MaxAmount",
							"type": "uint256"
						},
						{
							"internalType": "uint256",
							"name": "_token1MinPrice",
							"type": "uint256"
						},
						{
							"internalType": "uint256",
							"name": "_token1MaxPrice",
							"type": "uint256"
						},
						{
							"internalType": "uint256",
							"name": "_protocolFee",
							"type": "uint256"
						},
						{
							"internalType": "address",
							"name": "_factory",
							"type": "address"
						}
					],
					"stateMutability": "nonpayable",
					"type": "constructor"
				},
				{
					"anonymous": false,
					"inputs": [
						{
							"indexed": true,
							"internalType": "address",
							"name": "previousOwner",
							"type": "address"
						},
						{
							"indexed": true,
							"internalType": "address",
							"name": "newOwner",
							"type": "address"
						}
					],
					"name": "OwnershipTransferred",
					"type": "event"
				},
				{
					"inputs": [],
					"name": "factory",
					"outputs": [
						{
							"internalType": "address",
							"name": "",
							"type": "address"
						}
					],
					"stateMutability": "view",
					"type": "function"
				},
				{
					"inputs": [],
					"name": "factoryOwner",
					"outputs": [
						{
							"internalType": "address",
							"name": "",
							"type": "address"
						}
					],
					"stateMutability": "view",
					"type": "function"
				},
				{
					"inputs": [],
					"name": "liquidity",
					"outputs": [
						{
							"internalType": "uint256",
							"name": "",
							"type": "uint256"
						}
					],
					"stateMutability": "view",
					"type": "function"
				},
				{
					"inputs": [],
					"name": "owner",
					"outputs": [
						{
							"internalType": "address",
							"name": "",
							"type": "address"
						}
					],
					"stateMutability": "view",
					"type": "function"
				},
				{
					"inputs": [],
					"name": "protocolFee",
					"outputs": [
						{
							"internalType": "uint256",
							"name": "",
							"type": "uint256"
						}
					],
					"stateMutability": "view",
					"type": "function"
				},
				{
					"inputs": [],
					"name": "renounceOwnership",
					"outputs": [],
					"stateMutability": "nonpayable",
					"type": "function"
				},
				{
					"inputs": [],
					"name": "token0",
					"outputs": [
						{
							"internalType": "address",
							"name": "",
							"type": "address"
						}
					],
					"stateMutability": "view",
					"type": "function"
				},
				{
					"inputs": [],
					"name": "token0MaxAmount",
					"outputs": [
						{
							"internalType": "uint256",
							"name": "",
							"type": "uint256"
						}
					],
					"stateMutability": "view",
					"type": "function"
				},
				{
					"inputs": [],
					"name": "token1",
					"outputs": [
						{
							"internalType": "address",
							"name": "",
							"type": "address"
						}
					],
					"stateMutability": "view",
					"type": "function"
				},
				{
					"inputs": [],
					"name": "token1MaxAmount",
					"outputs": [
						{
							"internalType": "uint256",
							"name": "",
							"type": "uint256"
						}
					],
					"stateMutability": "view",
					"type": "function"
				},
				{
					"inputs": [],
					"name": "token1MaxPrice",
					"outputs": [
						{
							"internalType": "uint256",
							"name": "",
							"type": "uint256"
						}
					],
					"stateMutability": "view",
					"type": "function"
				},
				{
					"inputs": [],
					"name": "token1MinPrice",
					"outputs": [
						{
							"internalType": "uint256",
							"name": "",
							"type": "uint256"
						}
					],
					"stateMutability": "view",
					"type": "function"
				},
				{
					"inputs": [
						{
							"internalType": "address",
							"name": "newOwner",
							"type": "address"
						}
					],
					"name": "transferOwnership",
					"outputs": [],
					"stateMutability": "nonpayable",
					"type": "function"
				}
			],
			"devdoc": {
				"kind": "dev",
				"methods": {
					"owner()": {
						"details": "Returns the address of the current owner."
					},
					"renounceOwnership()": {
						"details": "Leaves the contract without owner. It will not be possible to call `onlyOwner` functions. Can only be called by the current owner. NOTE: Renouncing ownership will leave the contract without an owner, thereby disabling any functionality that is only available to the owner."
					},
					"transferOwnership(address)": {
						"details": "Transfers ownership of the contract to a new account (`newOwner`). Can only be called by the current owner."
					}
				},
				"version": 1
			},
			"evm": {
				"assembly": "    /* \"SmartContracts/contracts/LiquidityPool.sol\":256:3952  contract LiquidityPool is Ownable {... */\n  mstore(0x40, 0x80)\n    /* \"SmartContracts/contracts/LiquidityPool.sol\":622:1296  constructor(... */\n  callvalue\n  dup1\n  iszero\n  tag_1\n  jumpi\n  0x00\n  dup1\n  revert\ntag_1:\n  pop\n  mload(0x40)\n  sub(codesize, bytecodeSize)\n  dup1\n  bytecodeSize\n  dup4\n  codecopy\n  dup2\n  dup2\n  add\n  0x40\n  mstore\n  dup2\n  add\n  swap1\n  tag_2\n  swap2\n  swap1\n  tag_3\n  jump\t// in\ntag_2:\n    /* \"@openzeppelin/contracts/access/Ownable.sol\":936:968  _transferOwnership(_msgSender()) */\n  tag_7\n    /* \"@openzeppelin/contracts/access/Ownable.sol\":955:967  _msgSender() */\n  tag_8\n    /* \"@openzeppelin/contracts/access/Ownable.sol\":955:965  _msgSender */\n  shl(0x20, tag_9)\n    /* \"@openzeppelin/contracts/access/Ownable.sol\":955:967  _msgSender() */\n  0x20\n  shr\n  jump\t// in\ntag_8:\n    /* \"@openzeppelin/contracts/access/Ownable.sol\":936:954  _transferOwnership */\n  shl(0x20, tag_10)\n    /* \"@openzeppelin/contracts/access/Ownable.sol\":936:968  _transferOwnership(_msgSender()) */\n  0x20\n  shr\n  jump\t// in\ntag_7:\n    /* \"SmartContracts/contracts/LiquidityPool.sol\":894:901  _token0 */\n  dup8\n    /* \"SmartContracts/contracts/LiquidityPool.sol\":885:891  token0 */\n  0x03\n  0x00\n    /* \"SmartContracts/contracts/LiquidityPool.sol\":885:901  token0 = _token0 */\n  0x0100\n  exp\n  dup2\n  sload\n  dup2\n  0xffffffffffffffffffffffffffffffffffffffff\n  mul\n  not\n  and\n  swap1\n  dup4\n  0xffffffffffffffffffffffffffffffffffffffff\n  and\n  mul\n  or\n  swap1\n  sstore\n  pop\n    /* \"SmartContracts/contracts/LiquidityPool.sol\":921:928  _token1 */\n  dup7\n    /* \"SmartContracts/contracts/LiquidityPool.sol\":912:918  token1 */\n  0x04\n  0x00\n    /* \"SmartContracts/contracts/LiquidityPool.sol\":912:928  token1 = _token1 */\n  0x0100\n  exp\n  dup2\n  sload\n  dup2\n  0xffffffffffffffffffffffffffffffffffffffff\n  mul\n  not\n  and\n  swap1\n  dup4\n  0xffffffffffffffffffffffffffffffffffffffff\n  and\n  mul\n  or\n  swap1\n  sstore\n  pop\n    /* \"SmartContracts/contracts/LiquidityPool.sol\":959:975  _token0MaxAmount */\n  dup6\n    /* \"SmartContracts/contracts/LiquidityPool.sol\":941:956  token0MaxAmount */\n  0x05\n    /* \"SmartContracts/contracts/LiquidityPool.sol\":941:975  token0MaxAmount = _token0MaxAmount */\n  dup2\n  swap1\n  sstore\n  pop\n    /* \"SmartContracts/contracts/LiquidityPool.sol\":1003:1019  _token1MaxAmount */\n  dup5\n    /* \"SmartContracts/contracts/LiquidityPool.sol\":986:1000  token1MaxPrice */\n  0x08\n    /* \"SmartContracts/contracts/LiquidityPool.sol\":986:1019  token1MaxPrice = _token1MaxAmount */\n  dup2\n  swap1\n  sstore\n  pop\n    /* \"SmartContracts/contracts/LiquidityPool.sol\":1049:1064  _token1MinPrice */\n  dup4\n    /* \"SmartContracts/contracts/LiquidityPool.sol\":1032:1046  token1MinPrice */\n  0x07\n    /* \"SmartContracts/contracts/LiquidityPool.sol\":1032:1064  token1MinPrice = _token1MinPrice */\n  dup2\n  swap1\n  sstore\n  pop\n    /* \"SmartContracts/contracts/LiquidityPool.sol\":1092:1107  _token1MaxPrice */\n  dup3\n    /* \"SmartContracts/contracts/LiquidityPool.sol\":1075:1089  token1MaxPrice */\n  0x08\n    /* \"SmartContracts/contracts/LiquidityPool.sol\":1075:1107  token1MaxPrice = _token1MaxPrice */\n  dup2\n  swap1\n  sstore\n  pop\n    /* \"SmartContracts/contracts/LiquidityPool.sol\":1134:1146  _protocolFee */\n  dup2\n    /* \"SmartContracts/contracts/LiquidityPool.sol\":1120:1131  protocolFee */\n  0x09\n    /* \"SmartContracts/contracts/LiquidityPool.sol\":1120:1146  protocolFee = _protocolFee */\n  dup2\n  swap1\n  sstore\n  pop\n    /* \"SmartContracts/contracts/LiquidityPool.sol\":1159:1182  Factory factoryContract */\n  0x00\n    /* \"SmartContracts/contracts/LiquidityPool.sol\":1193:1201  _factory */\n  dup2\n    /* \"SmartContracts/contracts/LiquidityPool.sol\":1159:1202  Factory factoryContract = Factory(_factory) */\n  swap1\n  pop\n    /* \"SmartContracts/contracts/LiquidityPool.sol\":1228:1243  factoryContract */\n  dup1\n    /* \"SmartContracts/contracts/LiquidityPool.sol\":1228:1249  factoryContract.owner */\n  0xffffffffffffffffffffffffffffffffffffffff\n  and\n  0x8da5cb5b\n    /* \"SmartContracts/contracts/LiquidityPool.sol\":1228:1251  factoryContract.owner() */\n  mload(0x40)\n  dup2\n  0xffffffff\n  and\n  0xe0\n  shl\n  dup2\n  mstore\n  0x04\n  add\n  0x20\n  mload(0x40)\n  dup1\n  dup4\n  sub\n  dup2\n  dup7\n  gas\n  staticcall\n  iszero\n  dup1\n  iszero\n  tag_13\n  jumpi\n  returndatasize\n  0x00\n  dup1\n  returndatacopy\n  revert(0x00, returndatasize)\ntag_13:\n  pop\n  pop\n  pop\n  pop\n  mload(0x40)\n  returndatasize\n  not(0x1f)\n  0x1f\n  dup3\n  add\n  and\n  dup3\n  add\n  dup1\n  0x40\n  mstore\n  pop\n  dup2\n  add\n  swap1\n  tag_14\n  swap2\n  swap1\n  tag_15\n  jump\t// in\ntag_14:\n    /* \"SmartContracts/contracts/LiquidityPool.sol\":1213:1225  factoryOwner */\n  0x02\n  0x00\n    /* \"SmartContracts/contracts/LiquidityPool.sol\":1213:1251  factoryOwner = factoryContract.owner() */\n  0x0100\n  exp\n  dup2\n  sload\n  dup2\n  0xffffffffffffffffffffffffffffffffffffffff\n  mul\n  not\n  and\n  swap1\n  dup4\n  0xffffffffffffffffffffffffffffffffffffffff\n  and\n  mul\n  or\n  swap1\n  sstore\n  pop\n    /* \"SmartContracts/contracts/LiquidityPool.sol\":874:1296  {... */\n  pop\n    /* \"SmartContracts/contracts/LiquidityPool.sol\":622:1296  constructor(... */\n  pop\n  pop\n  pop\n  pop\n  pop\n  pop\n  pop\n  pop\n    /* \"SmartContracts/contracts/LiquidityPool.sol\":256:3952  contract LiquidityPool is Ownable {... */\n  jump(tag_16)\n    /* \"@openzeppelin/contracts/utils/Context.sol\":640:736  function _msgSender() internal view virtual returns (address) {... */\ntag_9:\n    /* \"@openzeppelin/contracts/utils/Context.sol\":693:700  address */\n  0x00\n    /* \"@openzeppelin/contracts/utils/Context.sol\":719:729  msg.sender */\n  caller\n    /* \"@openzeppelin/contracts/utils/Context.sol\":712:729  return msg.sender */\n  swap1\n  pop\n    /* \"@openzeppelin/contracts/utils/Context.sol\":640:736  function _msgSender() internal view virtual returns (address) {... */\n  swap1\n  jump\t// out\n    /* \"@openzeppelin/contracts/access/Ownable.sol\":2426:2613  function _transferOwnership(address newOwner) internal virtual {... */\ntag_10:\n    /* \"@openzeppelin/contracts/access/Ownable.sol\":2499:2515  address oldOwner */\n  0x00\n    /* \"@openzeppelin/contracts/access/Ownable.sol\":2518:2524  _owner */\n  dup1\n  0x00\n  swap1\n  sload\n  swap1\n  0x0100\n  exp\n  swap1\n  div\n  0xffffffffffffffffffffffffffffffffffffffff\n  and\n    /* \"@openzeppelin/contracts/access/Ownable.sol\":2499:2524  address oldOwner = _owner */\n  swap1\n  pop\n    /* \"@openzeppelin/contracts/access/Ownable.sol\":2543:2551  newOwner */\n  dup2\n    /* \"@openzeppelin/contracts/access/Ownable.sol\":2534:2540  _owner */\n  0x00\n  dup1\n    /* \"@openzeppelin/contracts/access/Ownable.sol\":2534:2551  _owner = newOwner */\n  0x0100\n  exp\n  dup2\n  sload\n  dup2\n  0xffffffffffffffffffffffffffffffffffffffff\n  mul\n  not\n  and\n  swap1\n  dup4\n  0xffffffffffffffffffffffffffffffffffffffff\n  and\n  mul\n  or\n  swap1\n  sstore\n  pop\n    /* \"@openzeppelin/contracts/access/Ownable.sol\":2597:2605  newOwner */\n  dup2\n    /* \"@openzeppelin/contracts/access/Ownable.sol\":2566:2606  OwnershipTransferred(oldOwner, newOwner) */\n  0xffffffffffffffffffffffffffffffffffffffff\n  and\n    /* \"@openzeppelin/contracts/access/Ownable.sol\":2587:2595  oldOwner */\n  dup2\n    /* \"@openzeppelin/contracts/access/Ownable.sol\":2566:2606  OwnershipTransferred(oldOwner, newOwner) */\n  0xffffffffffffffffffffffffffffffffffffffff\n  and\n  0x8be0079c531659141344cd1fd0a4f28419497f9722a3daafe3b4186f6b6457e0\n  mload(0x40)\n  mload(0x40)\n  dup1\n  swap2\n  sub\n  swap1\n  log3\n    /* \"@openzeppelin/contracts/access/Ownable.sol\":2489:2613  {... */\n  pop\n    /* \"@openzeppelin/contracts/access/Ownable.sol\":2426:2613  function _transferOwnership(address newOwner) internal virtual {... */\n  pop\n  jump\t// out\n    /* \"#utility.yul\":88:205   */\ntag_20:\n    /* \"#utility.yul\":197:198   */\n  0x00\n    /* \"#utility.yul\":194:195   */\n  dup1\n    /* \"#utility.yul\":187:199   */\n  revert\n    /* \"#utility.yul\":334:460   */\ntag_22:\n    /* \"#utility.yul\":371:378   */\n  0x00\n    /* \"#utility.yul\":411:453   */\n  0xffffffffffffffffffffffffffffffffffffffff\n    /* \"#utility.yul\":404:409   */\n  dup3\n    /* \"#utility.yul\":400:454   */\n  and\n    /* \"#utility.yul\":389:454   */\n  swap1\n  pop\n    /* \"#utility.yul\":334:460   */\n  swap2\n  swap1\n  pop\n  jump\t// out\n    /* \"#utility.yul\":466:562   */\ntag_23:\n    /* \"#utility.yul\":503:510   */\n  0x00\n    /* \"#utility.yul\":532:556   */\n  tag_35\n    /* \"#utility.yul\":550:555   */\n  dup3\n    /* \"#utility.yul\":532:556   */\n  tag_22\n  jump\t// in\ntag_35:\n    /* \"#utility.yul\":521:556   */\n  swap1\n  pop\n    /* \"#utility.yul\":466:562   */\n  swap2\n  swap1\n  pop\n  jump\t// out\n    /* \"#utility.yul\":568:690   */\ntag_24:\n    /* \"#utility.yul\":641:665   */\n  tag_37\n    /* \"#utility.yul\":659:664   */\n  dup2\n    /* \"#utility.yul\":641:665   */\n  tag_23\n  jump\t// in\ntag_37:\n    /* \"#utility.yul\":634:639   */\n  dup2\n    /* \"#utility.yul\":631:666   */\n  eq\n    /* \"#utility.yul\":621:684   */\n  tag_38\n  jumpi\n    /* \"#utility.yul\":680:681   */\n  0x00\n    /* \"#utility.yul\":677:678   */\n  dup1\n    /* \"#utility.yul\":670:682   */\n  revert\n    /* \"#utility.yul\":621:684   */\ntag_38:\n    /* \"#utility.yul\":568:690   */\n  pop\n  jump\t// out\n    /* \"#utility.yul\":696:839   */\ntag_25:\n    /* \"#utility.yul\":753:758   */\n  0x00\n    /* \"#utility.yul\":784:790   */\n  dup2\n    /* \"#utility.yul\":778:791   */\n  mload\n    /* \"#utility.yul\":769:791   */\n  swap1\n  pop\n    /* \"#utility.yul\":800:833   */\n  tag_40\n    /* \"#utility.yul\":827:832   */\n  dup2\n    /* \"#utility.yul\":800:833   */\n  tag_24\n  jump\t// in\ntag_40:\n    /* \"#utility.yul\":696:839   */\n  swap3\n  swap2\n  pop\n  pop\n  jump\t// out\n    /* \"#utility.yul\":845:922   */\ntag_26:\n    /* \"#utility.yul\":882:889   */\n  0x00\n    /* \"#utility.yul\":911:916   */\n  dup2\n    /* \"#utility.yul\":900:916   */\n  swap1\n  pop\n    /* \"#utility.yul\":845:922   */\n  swap2\n  swap1\n  pop\n  jump\t// out\n    /* \"#utility.yul\":928:1050   */\ntag_27:\n    /* \"#utility.yul\":1001:1025   */\n  tag_43\n    /* \"#utility.yul\":1019:1024   */\n  dup2\n    /* \"#utility.yul\":1001:1025   */\n  tag_26\n  jump\t// in\ntag_43:\n    /* \"#utility.yul\":994:999   */\n  dup2\n    /* \"#utility.yul\":991:1026   */\n  eq\n    /* \"#utility.yul\":981:1044   */\n  tag_44\n  jumpi\n    /* \"#utility.yul\":1040:1041   */\n  0x00\n    /* \"#utility.yul\":1037:1038   */\n  dup1\n    /* \"#utility.yul\":1030:1042   */\n  revert\n    /* \"#utility.yul\":981:1044   */\ntag_44:\n    /* \"#utility.yul\":928:1050   */\n  pop\n  jump\t// out\n    /* \"#utility.yul\":1056:1199   */\ntag_28:\n    /* \"#utility.yul\":1113:1118   */\n  0x00\n    /* \"#utility.yul\":1144:1150   */\n  dup2\n    /* \"#utility.yul\":1138:1151   */\n  mload\n    /* \"#utility.yul\":1129:1151   */\n  swap1\n  pop\n    /* \"#utility.yul\":1160:1193   */\n  tag_46\n    /* \"#utility.yul\":1187:1192   */\n  dup2\n    /* \"#utility.yul\":1160:1193   */\n  tag_27\n  jump\t// in\ntag_46:\n    /* \"#utility.yul\":1056:1199   */\n  swap3\n  swap2\n  pop\n  pop\n  jump\t// out\n    /* \"#utility.yul\":1205:2653   */\ntag_3:\n    /* \"#utility.yul\":1338:1344   */\n  0x00\n    /* \"#utility.yul\":1346:1352   */\n  dup1\n    /* \"#utility.yul\":1354:1360   */\n  0x00\n    /* \"#utility.yul\":1362:1368   */\n  dup1\n    /* \"#utility.yul\":1370:1376   */\n  0x00\n    /* \"#utility.yul\":1378:1384   */\n  dup1\n    /* \"#utility.yul\":1386:1392   */\n  0x00\n    /* \"#utility.yul\":1394:1400   */\n  dup1\n    /* \"#utility.yul\":1443:1446   */\n  0x0100\n    /* \"#utility.yul\":1431:1440   */\n  dup10\n    /* \"#utility.yul\":1422:1429   */\n  dup12\n    /* \"#utility.yul\":1418:1441   */\n  sub\n    /* \"#utility.yul\":1414:1447   */\n  slt\n    /* \"#utility.yul\":1411:1531   */\n  iszero\n  tag_48\n  jumpi\n    /* \"#utility.yul\":1450:1529   */\n  tag_49\n  tag_20\n  jump\t// in\ntag_49:\n    /* \"#utility.yul\":1411:1531   */\ntag_48:\n    /* \"#utility.yul\":1570:1571   */\n  0x00\n    /* \"#utility.yul\":1595:1659   */\n  tag_50\n    /* \"#utility.yul\":1651:1658   */\n  dup12\n    /* \"#utility.yul\":1642:1648   */\n  dup3\n    /* \"#utility.yul\":1631:1640   */\n  dup13\n    /* \"#utility.yul\":1627:1649   */\n  add\n    /* \"#utility.yul\":1595:1659   */\n  tag_25\n  jump\t// in\ntag_50:\n    /* \"#utility.yul\":1585:1659   */\n  swap9\n  pop\n    /* \"#utility.yul\":1541:1669   */\n  pop\n    /* \"#utility.yul\":1708:1710   */\n  0x20\n    /* \"#utility.yul\":1734:1798   */\n  tag_51\n    /* \"#utility.yul\":1790:1797   */\n  dup12\n    /* \"#utility.yul\":1781:1787   */\n  dup3\n    /* \"#utility.yul\":1770:1779   */\n  dup13\n    /* \"#utility.yul\":1766:1788   */\n  add\n    /* \"#utility.yul\":1734:1798   */\n  tag_25\n  jump\t// in\ntag_51:\n    /* \"#utility.yul\":1724:1798   */\n  swap8\n  pop\n    /* \"#utility.yul\":1679:1808   */\n  pop\n    /* \"#utility.yul\":1847:1849   */\n  0x40\n    /* \"#utility.yul\":1873:1937   */\n  tag_52\n    /* \"#utility.yul\":1929:1936   */\n  dup12\n    /* \"#utility.yul\":1920:1926   */\n  dup3\n    /* \"#utility.yul\":1909:1918   */\n  dup13\n    /* \"#utility.yul\":1905:1927   */\n  add\n    /* \"#utility.yul\":1873:1937   */\n  tag_28\n  jump\t// in\ntag_52:\n    /* \"#utility.yul\":1863:1937   */\n  swap7\n  pop\n    /* \"#utility.yul\":1818:1947   */\n  pop\n    /* \"#utility.yul\":1986:1988   */\n  0x60\n    /* \"#utility.yul\":2012:2076   */\n  tag_53\n    /* \"#utility.yul\":2068:2075   */\n  dup12\n    /* \"#utility.yul\":2059:2065   */\n  dup3\n    /* \"#utility.yul\":2048:2057   */\n  dup13\n    /* \"#utility.yul\":2044:2066   */\n  add\n    /* \"#utility.yul\":2012:2076   */\n  tag_28\n  jump\t// in\ntag_53:\n    /* \"#utility.yul\":2002:2076   */\n  swap6\n  pop\n    /* \"#utility.yul\":1957:2086   */\n  pop\n    /* \"#utility.yul\":2125:2128   */\n  0x80\n    /* \"#utility.yul\":2152:2216   */\n  tag_54\n    /* \"#utility.yul\":2208:2215   */\n  dup12\n    /* \"#utility.yul\":2199:2205   */\n  dup3\n    /* \"#utility.yul\":2188:2197   */\n  dup13\n    /* \"#utility.yul\":2184:2206   */\n  add\n    /* \"#utility.yul\":2152:2216   */\n  tag_28\n  jump\t// in\ntag_54:\n    /* \"#utility.yul\":2142:2216   */\n  swap5\n  pop\n    /* \"#utility.yul\":2096:2226   */\n  pop\n    /* \"#utility.yul\":2265:2268   */\n  0xa0\n    /* \"#utility.yul\":2292:2356   */\n  tag_55\n    /* \"#utility.yul\":2348:2355   */\n  dup12\n    /* \"#utility.yul\":2339:2345   */\n  dup3\n    /* \"#utility.yul\":2328:2337   */\n  dup13\n    /* \"#utility.yul\":2324:2346   */\n  add\n    /* \"#utility.yul\":2292:2356   */\n  tag_28\n  jump\t// in\ntag_55:\n    /* \"#utility.yul\":2282:2356   */\n  swap4\n  pop\n    /* \"#utility.yul\":2236:2366   */\n  pop\n    /* \"#utility.yul\":2405:2408   */\n  0xc0\n    /* \"#utility.yul\":2432:2496   */\n  tag_56\n    /* \"#utility.yul\":2488:2495   */\n  dup12\n    /* \"#utility.yul\":2479:2485   */\n  dup3\n    /* \"#utility.yul\":2468:2477   */\n  dup13\n    /* \"#utility.yul\":2464:2486   */\n  add\n    /* \"#utility.yul\":2432:2496   */\n  tag_28\n  jump\t// in\ntag_56:\n    /* \"#utility.yul\":2422:2496   */\n  swap3\n  pop\n    /* \"#utility.yul\":2376:2506   */\n  pop\n    /* \"#utility.yul\":2545:2548   */\n  0xe0\n    /* \"#utility.yul\":2572:2636   */\n  tag_57\n    /* \"#utility.yul\":2628:2635   */\n  dup12\n    /* \"#utility.yul\":2619:2625   */\n  dup3\n    /* \"#utility.yul\":2608:2617   */\n  dup13\n    /* \"#utility.yul\":2604:2626   */\n  add\n    /* \"#utility.yul\":2572:2636   */\n  tag_25\n  jump\t// in\ntag_57:\n    /* \"#utility.yul\":2562:2636   */\n  swap2\n  pop\n    /* \"#utility.yul\":2516:2646   */\n  pop\n    /* \"#utility.yul\":1205:2653   */\n  swap3\n  swap6\n  swap9\n  pop\n  swap3\n  swap6\n  swap9\n  swap1\n  swap4\n  swap7\n  pop\n  jump\t// out\n    /* \"#utility.yul\":2659:3010   */\ntag_15:\n    /* \"#utility.yul\":2729:2735   */\n  0x00\n    /* \"#utility.yul\":2778:2780   */\n  0x20\n    /* \"#utility.yul\":2766:2775   */\n  dup3\n    /* \"#utility.yul\":2757:2764   */\n  dup5\n    /* \"#utility.yul\":2753:2776   */\n  sub\n    /* \"#utility.yul\":2749:2781   */\n  slt\n    /* \"#utility.yul\":2746:2865   */\n  iszero\n  tag_59\n  jumpi\n    /* \"#utility.yul\":2784:2863   */\n  tag_60\n  tag_20\n  jump\t// in\ntag_60:\n    /* \"#utility.yul\":2746:2865   */\ntag_59:\n    /* \"#utility.yul\":2904:2905   */\n  0x00\n    /* \"#utility.yul\":2929:2993   */\n  tag_61\n    /* \"#utility.yul\":2985:2992   */\n  dup5\n    /* \"#utility.yul\":2976:2982   */\n  dup3\n    /* \"#utility.yul\":2965:2974   */\n  dup6\n    /* \"#utility.yul\":2961:2983   */\n  add\n    /* \"#utility.yul\":2929:2993   */\n  tag_25\n  jump\t// in\ntag_61:\n    /* \"#utility.yul\":2919:2993   */\n  swap2\n  pop\n    /* \"#utility.yul\":2875:3003   */\n  pop\n    /* \"#utility.yul\":2659:3010   */\n  swap3\n  swap2\n  pop\n  pop\n  jump\t// out\n    /* \"SmartContracts/contracts/LiquidityPool.sol\":256:3952  contract LiquidityPool is Ownable {... */\ntag_16:\n  dataSize(sub_0)\n  dup1\n  dataOffset(sub_0)\n  0x00\n  codecopy\n  0x00\n  return\nstop\n\nsub_0: assembly {\n        /* \"SmartContracts/contracts/LiquidityPool.sol\":256:3952  contract LiquidityPool is Ownable {... */\n      mstore(0x40, 0x80)\n      callvalue\n      dup1\n      iszero\n      tag_1\n      jumpi\n      0x00\n      dup1\n      revert\n    tag_1:\n      pop\n      jumpi(tag_2, lt(calldatasize, 0x04))\n      shr(0xe0, calldataload(0x00))\n      dup1\n      0xa068bd8f\n      gt\n      tag_16\n      jumpi\n      dup1\n      0xb258598e\n      gt\n      tag_17\n      jumpi\n      dup1\n      0xb258598e\n      eq\n      tag_12\n      jumpi\n      dup1\n      0xc45a0155\n      eq\n      tag_13\n      jumpi\n      dup1\n      0xd21220a7\n      eq\n      tag_14\n      jumpi\n      dup1\n      0xf2fde38b\n      eq\n      tag_15\n      jumpi\n      jump(tag_2)\n    tag_17:\n      dup1\n      0xa068bd8f\n      eq\n      tag_9\n      jumpi\n      dup1\n      0xab11b192\n      eq\n      tag_10\n      jumpi\n      dup1\n      0xb0e21e8a\n      eq\n      tag_11\n      jumpi\n      jump(tag_2)\n    tag_16:\n      dup1\n      0x0dfe1681\n      eq\n      tag_3\n      jumpi\n      dup1\n      0x1a686502\n      eq\n      tag_4\n      jumpi\n      dup1\n      0x4273601c\n      eq\n      tag_5\n      jumpi\n      dup1\n      0x610c06e6\n      eq\n      tag_6\n      jumpi\n      dup1\n      0x715018a6\n      eq\n      tag_7\n      jumpi\n      dup1\n      0x8da5cb5b\n      eq\n      tag_8\n      jumpi\n    tag_2:\n      0x00\n      dup1\n      revert\n        /* \"SmartContracts/contracts/LiquidityPool.sol\":362:383  address public token0 */\n    tag_3:\n      tag_18\n      tag_19\n      jump\t// in\n    tag_18:\n      mload(0x40)\n      tag_20\n      swap2\n      swap1\n      tag_21\n      jump\t// in\n    tag_20:\n      mload(0x40)\n      dup1\n      swap2\n      sub\n      swap1\n      return\n        /* \"SmartContracts/contracts/LiquidityPool.sol\":592:613  uint public liquidity */\n    tag_4:\n      tag_22\n      tag_23\n      jump\t// in\n    tag_22:\n      mload(0x40)\n      tag_24\n      swap2\n      swap1\n      tag_25\n      jump\t// in\n    tag_24:\n      mload(0x40)\n      dup1\n      swap2\n      sub\n      swap1\n      return\n        /* \"SmartContracts/contracts/LiquidityPool.sol\":326:353  address public factoryOwner */\n    tag_5:\n      tag_26\n      tag_27\n      jump\t// in\n    tag_26:\n      mload(0x40)\n      tag_28\n      swap2\n      swap1\n      tag_21\n      jump\t// in\n    tag_28:\n      mload(0x40)\n      dup1\n      swap2\n      sub\n      swap1\n      return\n        /* \"SmartContracts/contracts/LiquidityPool.sol\":458:485  uint public token1MaxAmount */\n    tag_6:\n      tag_29\n      tag_30\n      jump\t// in\n    tag_29:\n      mload(0x40)\n      tag_31\n      swap2\n      swap1\n      tag_25\n      jump\t// in\n    tag_31:\n      mload(0x40)\n      dup1\n      swap2\n      sub\n      swap1\n      return\n        /* \"@openzeppelin/contracts/access/Ownable.sol\":1824:1925  function renounceOwnership() public virtual onlyOwner {... */\n    tag_7:\n      tag_32\n      tag_33\n      jump\t// in\n    tag_32:\n      stop\n        /* \"@openzeppelin/contracts/access/Ownable.sol\":1201:1286  function owner() public view virtual returns (address) {... */\n    tag_8:\n      tag_34\n      tag_35\n      jump\t// in\n    tag_34:\n      mload(0x40)\n      tag_36\n      swap2\n      swap1\n      tag_21\n      jump\t// in\n    tag_36:\n      mload(0x40)\n      dup1\n      swap2\n      sub\n      swap1\n      return\n        /* \"SmartContracts/contracts/LiquidityPool.sol\":527:553  uint public token1MaxPrice */\n    tag_9:\n      tag_37\n      tag_38\n      jump\t// in\n    tag_37:\n      mload(0x40)\n      tag_39\n      swap2\n      swap1\n      tag_25\n      jump\t// in\n    tag_39:\n      mload(0x40)\n      dup1\n      swap2\n      sub\n      swap1\n      return\n        /* \"SmartContracts/contracts/LiquidityPool.sol\":494:520  uint public token1MinPrice */\n    tag_10:\n      tag_40\n      tag_41\n      jump\t// in\n    tag_40:\n      mload(0x40)\n      tag_42\n      swap2\n      swap1\n      tag_25\n      jump\t// in\n    tag_42:\n      mload(0x40)\n      dup1\n      swap2\n      sub\n      swap1\n      return\n        /* \"SmartContracts/contracts/LiquidityPool.sol\":562:585  uint public protocolFee */\n    tag_11:\n      tag_43\n      tag_44\n      jump\t// in\n    tag_43:\n      mload(0x40)\n      tag_45\n      swap2\n      swap1\n      tag_25\n      jump\t// in\n    tag_45:\n      mload(0x40)\n      dup1\n      swap2\n      sub\n      swap1\n      return\n        /* \"SmartContracts/contracts/LiquidityPool.sol\":424:451  uint public token0MaxAmount */\n    tag_12:\n      tag_46\n      tag_47\n      jump\t// in\n    tag_46:\n      mload(0x40)\n      tag_48\n      swap2\n      swap1\n      tag_25\n      jump\t// in\n    tag_48:\n      mload(0x40)\n      dup1\n      swap2\n      sub\n      swap1\n      return\n        /* \"SmartContracts/contracts/LiquidityPool.sol\":297:319  address public factory */\n    tag_13:\n      tag_49\n      tag_50\n      jump\t// in\n    tag_49:\n      mload(0x40)\n      tag_51\n      swap2\n      swap1\n      tag_21\n      jump\t// in\n    tag_51:\n      mload(0x40)\n      dup1\n      swap2\n      sub\n      swap1\n      return\n        /* \"SmartContracts/contracts/LiquidityPool.sol\":390:411  address public token1 */\n    tag_14:\n      tag_52\n      tag_53\n      jump\t// in\n    tag_52:\n      mload(0x40)\n      tag_54\n      swap2\n      swap1\n      tag_21\n      jump\t// in\n    tag_54:\n      mload(0x40)\n      dup1\n      swap2\n      sub\n      swap1\n      return\n        /* \"@openzeppelin/contracts/access/Ownable.sol\":2074:2272  function transferOwnership(address newOwner) public virtual onlyOwner {... */\n    tag_15:\n      tag_55\n      0x04\n      dup1\n      calldatasize\n      sub\n      dup2\n      add\n      swap1\n      tag_56\n      swap2\n      swap1\n      tag_57\n      jump\t// in\n    tag_56:\n      tag_58\n      jump\t// in\n    tag_55:\n      stop\n        /* \"SmartContracts/contracts/LiquidityPool.sol\":362:383  address public token0 */\n    tag_19:\n      0x03\n      0x00\n      swap1\n      sload\n      swap1\n      0x0100\n      exp\n      swap1\n      div\n      0xffffffffffffffffffffffffffffffffffffffff\n      and\n      dup2\n      jump\t// out\n        /* \"SmartContracts/contracts/LiquidityPool.sol\":592:613  uint public liquidity */\n    tag_23:\n      sload(0x0a)\n      dup2\n      jump\t// out\n        /* \"SmartContracts/contracts/LiquidityPool.sol\":326:353  address public factoryOwner */\n    tag_27:\n      0x02\n      0x00\n      swap1\n      sload\n      swap1\n      0x0100\n      exp\n      swap1\n      div\n      0xffffffffffffffffffffffffffffffffffffffff\n      and\n      dup2\n      jump\t// out\n        /* \"SmartContracts/contracts/LiquidityPool.sol\":458:485  uint public token1MaxAmount */\n    tag_30:\n      sload(0x06)\n      dup2\n      jump\t// out\n        /* \"@openzeppelin/contracts/access/Ownable.sol\":1824:1925  function renounceOwnership() public virtual onlyOwner {... */\n    tag_33:\n        /* \"@openzeppelin/contracts/access/Ownable.sol\":1094:1107  _checkOwner() */\n      tag_60\n        /* \"@openzeppelin/contracts/access/Ownable.sol\":1094:1105  _checkOwner */\n      tag_61\n        /* \"@openzeppelin/contracts/access/Ownable.sol\":1094:1107  _checkOwner() */\n      jump\t// in\n    tag_60:\n        /* \"@openzeppelin/contracts/access/Ownable.sol\":1888:1918  _transferOwnership(address(0)) */\n      tag_63\n        /* \"@openzeppelin/contracts/access/Ownable.sol\":1915:1916  0 */\n      0x00\n        /* \"@openzeppelin/contracts/access/Ownable.sol\":1888:1906  _transferOwnership */\n      tag_64\n        /* \"@openzeppelin/contracts/access/Ownable.sol\":1888:1918  _transferOwnership(address(0)) */\n      jump\t// in\n    tag_63:\n        /* \"@openzeppelin/contracts/access/Ownable.sol\":1824:1925  function renounceOwnership() public virtual onlyOwner {... */\n      jump\t// out\n        /* \"@openzeppelin/contracts/access/Ownable.sol\":1201:1286  function owner() public view virtual returns (address) {... */\n    tag_35:\n        /* \"@openzeppelin/contracts/access/Ownable.sol\":1247:1254  address */\n      0x00\n        /* \"@openzeppelin/contracts/access/Ownable.sol\":1273:1279  _owner */\n      dup1\n      0x00\n      swap1\n      sload\n      swap1\n      0x0100\n      exp\n      swap1\n      div\n      0xffffffffffffffffffffffffffffffffffffffff\n      and\n        /* \"@openzeppelin/contracts/access/Ownable.sol\":1266:1279  return _owner */\n      swap1\n      pop\n        /* \"@openzeppelin/contracts/access/Ownable.sol\":1201:1286  function owner() public view virtual returns (address) {... */\n      swap1\n      jump\t// out\n        /* \"SmartContracts/contracts/LiquidityPool.sol\":527:553  uint public token1MaxPrice */\n    tag_38:\n      sload(0x08)\n      dup2\n      jump\t// out\n        /* \"SmartContracts/contracts/LiquidityPool.sol\":494:520  uint public token1MinPrice */\n    tag_41:\n      sload(0x07)\n      dup2\n      jump\t// out\n        /* \"SmartContracts/contracts/LiquidityPool.sol\":562:585  uint public protocolFee */\n    tag_44:\n      sload(0x09)\n      dup2\n      jump\t// out\n        /* \"SmartContracts/contracts/LiquidityPool.sol\":424:451  uint public token0MaxAmount */\n    tag_47:\n      sload(0x05)\n      dup2\n      jump\t// out\n        /* \"SmartContracts/contracts/LiquidityPool.sol\":297:319  address public factory */\n    tag_50:\n      0x01\n      0x00\n      swap1\n      sload\n      swap1\n      0x0100\n      exp\n      swap1\n      div\n      0xffffffffffffffffffffffffffffffffffffffff\n      and\n      dup2\n      jump\t// out\n        /* \"SmartContracts/contracts/LiquidityPool.sol\":390:411  address public token1 */\n    tag_53:\n      0x04\n      0x00\n      swap1\n      sload\n      swap1\n      0x0100\n      exp\n      swap1\n      div\n      0xffffffffffffffffffffffffffffffffffffffff\n      and\n      dup2\n      jump\t// out\n        /* \"@openzeppelin/contracts/access/Ownable.sol\":2074:2272  function transferOwnership(address newOwner) public virtual onlyOwner {... */\n    tag_58:\n        /* \"@openzeppelin/contracts/access/Ownable.sol\":1094:1107  _checkOwner() */\n      tag_67\n        /* \"@openzeppelin/contracts/access/Ownable.sol\":1094:1105  _checkOwner */\n      tag_61\n        /* \"@openzeppelin/contracts/access/Ownable.sol\":1094:1107  _checkOwner() */\n      jump\t// in\n    tag_67:\n        /* \"@openzeppelin/contracts/access/Ownable.sol\":2182:2183  0 */\n      0x00\n        /* \"@openzeppelin/contracts/access/Ownable.sol\":2162:2184  newOwner != address(0) */\n      0xffffffffffffffffffffffffffffffffffffffff\n      and\n        /* \"@openzeppelin/contracts/access/Ownable.sol\":2162:2170  newOwner */\n      dup2\n        /* \"@openzeppelin/contracts/access/Ownable.sol\":2162:2184  newOwner != address(0) */\n      0xffffffffffffffffffffffffffffffffffffffff\n      and\n      sub\n        /* \"@openzeppelin/contracts/access/Ownable.sol\":2154:2227  require(newOwner != address(0), \"Ownable: new owner is the zero address\") */\n      tag_69\n      jumpi\n      mload(0x40)\n      0x08c379a000000000000000000000000000000000000000000000000000000000\n      dup2\n      mstore\n      0x04\n      add\n      tag_70\n      swap1\n      tag_71\n      jump\t// in\n    tag_70:\n      mload(0x40)\n      dup1\n      swap2\n      sub\n      swap1\n      revert\n    tag_69:\n        /* \"@openzeppelin/contracts/access/Ownable.sol\":2237:2265  _transferOwnership(newOwner) */\n      tag_72\n        /* \"@openzeppelin/contracts/access/Ownable.sol\":2256:2264  newOwner */\n      dup2\n        /* \"@openzeppelin/contracts/access/Ownable.sol\":2237:2255  _transferOwnership */\n      tag_64\n        /* \"@openzeppelin/contracts/access/Ownable.sol\":2237:2265  _transferOwnership(newOwner) */\n      jump\t// in\n    tag_72:\n        /* \"@openzeppelin/contracts/access/Ownable.sol\":2074:2272  function transferOwnership(address newOwner) public virtual onlyOwner {... */\n      pop\n      jump\t// out\n        /* \"@openzeppelin/contracts/access/Ownable.sol\":1359:1489  function _checkOwner() internal view virtual {... */\n    tag_61:\n        /* \"@openzeppelin/contracts/access/Ownable.sol\":1433:1445  _msgSender() */\n      tag_74\n        /* \"@openzeppelin/contracts/access/Ownable.sol\":1433:1443  _msgSender */\n      tag_75\n        /* \"@openzeppelin/contracts/access/Ownable.sol\":1433:1445  _msgSender() */\n      jump\t// in\n    tag_74:\n        /* \"@openzeppelin/contracts/access/Ownable.sol\":1422:1445  owner() == _msgSender() */\n      0xffffffffffffffffffffffffffffffffffffffff\n      and\n        /* \"@openzeppelin/contracts/access/Ownable.sol\":1422:1429  owner() */\n      tag_76\n        /* \"@openzeppelin/contracts/access/Ownable.sol\":1422:1427  owner */\n      tag_35\n        /* \"@openzeppelin/contracts/access/Ownable.sol\":1422:1429  owner() */\n      jump\t// in\n    tag_76:\n        /* \"@openzeppelin/contracts/access/Ownable.sol\":1422:1445  owner() == _msgSender() */\n      0xffffffffffffffffffffffffffffffffffffffff\n      and\n      eq\n        /* \"@openzeppelin/contracts/access/Ownable.sol\":1414:1482  require(owner() == _msgSender(), \"Ownable: caller is not the owner\") */\n      tag_77\n      jumpi\n      mload(0x40)\n      0x08c379a000000000000000000000000000000000000000000000000000000000\n      dup2\n      mstore\n      0x04\n      add\n      tag_78\n      swap1\n      tag_79\n      jump\t// in\n    tag_78:\n      mload(0x40)\n      dup1\n      swap2\n      sub\n      swap1\n      revert\n    tag_77:\n        /* \"@openzeppelin/contracts/access/Ownable.sol\":1359:1489  function _checkOwner() internal view virtual {... */\n      jump\t// out\n        /* \"@openzeppelin/contracts/access/Ownable.sol\":2426:2613  function _transferOwnership(address newOwner) internal virtual {... */\n    tag_64:\n        /* \"@openzeppelin/contracts/access/Ownable.sol\":2499:2515  address oldOwner */\n      0x00\n        /* \"@openzeppelin/contracts/access/Ownable.sol\":2518:2524  _owner */\n      dup1\n      0x00\n      swap1\n      sload\n      swap1\n      0x0100\n      exp\n      swap1\n      div\n      0xffffffffffffffffffffffffffffffffffffffff\n      and\n        /* \"@openzeppelin/contracts/access/Ownable.sol\":2499:2524  address oldOwner = _owner */\n      swap1\n      pop\n        /* \"@openzeppelin/contracts/access/Ownable.sol\":2543:2551  newOwner */\n      dup2\n        /* \"@openzeppelin/contracts/access/Ownable.sol\":2534:2540  _owner */\n      0x00\n      dup1\n        /* \"@openzeppelin/contracts/access/Ownable.sol\":2534:2551  _owner = newOwner */\n      0x0100\n      exp\n      dup2\n      sload\n      dup2\n      0xffffffffffffffffffffffffffffffffffffffff\n      mul\n      not\n      and\n      swap1\n      dup4\n      0xffffffffffffffffffffffffffffffffffffffff\n      and\n      mul\n      or\n      swap1\n      sstore\n      pop\n        /* \"@openzeppelin/contracts/access/Ownable.sol\":2597:2605  newOwner */\n      dup2\n        /* \"@openzeppelin/contracts/access/Ownable.sol\":2566:2606  OwnershipTransferred(oldOwner, newOwner) */\n      0xffffffffffffffffffffffffffffffffffffffff\n      and\n        /* \"@openzeppelin/contracts/access/Ownable.sol\":2587:2595  oldOwner */\n      dup2\n        /* \"@openzeppelin/contracts/access/Ownable.sol\":2566:2606  OwnershipTransferred(oldOwner, newOwner) */\n      0xffffffffffffffffffffffffffffffffffffffff\n      and\n      0x8be0079c531659141344cd1fd0a4f28419497f9722a3daafe3b4186f6b6457e0\n      mload(0x40)\n      mload(0x40)\n      dup1\n      swap2\n      sub\n      swap1\n      log3\n        /* \"@openzeppelin/contracts/access/Ownable.sol\":2489:2613  {... */\n      pop\n        /* \"@openzeppelin/contracts/access/Ownable.sol\":2426:2613  function _transferOwnership(address newOwner) internal virtual {... */\n      pop\n      jump\t// out\n        /* \"@openzeppelin/contracts/utils/Context.sol\":640:736  function _msgSender() internal view virtual returns (address) {... */\n    tag_75:\n        /* \"@openzeppelin/contracts/utils/Context.sol\":693:700  address */\n      0x00\n        /* \"@openzeppelin/contracts/utils/Context.sol\":719:729  msg.sender */\n      caller\n        /* \"@openzeppelin/contracts/utils/Context.sol\":712:729  return msg.sender */\n      swap1\n      pop\n        /* \"@openzeppelin/contracts/utils/Context.sol\":640:736  function _msgSender() internal view virtual returns (address) {... */\n      swap1\n      jump\t// out\n        /* \"#utility.yul\":7:133   */\n    tag_82:\n        /* \"#utility.yul\":44:51   */\n      0x00\n        /* \"#utility.yul\":84:126   */\n      0xffffffffffffffffffffffffffffffffffffffff\n        /* \"#utility.yul\":77:82   */\n      dup3\n        /* \"#utility.yul\":73:127   */\n      and\n        /* \"#utility.yul\":62:127   */\n      swap1\n      pop\n        /* \"#utility.yul\":7:133   */\n      swap2\n      swap1\n      pop\n      jump\t// out\n        /* \"#utility.yul\":139:235   */\n    tag_83:\n        /* \"#utility.yul\":176:183   */\n      0x00\n        /* \"#utility.yul\":205:229   */\n      tag_100\n        /* \"#utility.yul\":223:228   */\n      dup3\n        /* \"#utility.yul\":205:229   */\n      tag_82\n      jump\t// in\n    tag_100:\n        /* \"#utility.yul\":194:229   */\n      swap1\n      pop\n        /* \"#utility.yul\":139:235   */\n      swap2\n      swap1\n      pop\n      jump\t// out\n        /* \"#utility.yul\":241:359   */\n    tag_84:\n        /* \"#utility.yul\":328:352   */\n      tag_102\n        /* \"#utility.yul\":346:351   */\n      dup2\n        /* \"#utility.yul\":328:352   */\n      tag_83\n      jump\t// in\n    tag_102:\n        /* \"#utility.yul\":323:326   */\n      dup3\n        /* \"#utility.yul\":316:353   */\n      mstore\n        /* \"#utility.yul\":241:359   */\n      pop\n      pop\n      jump\t// out\n        /* \"#utility.yul\":365:587   */\n    tag_21:\n        /* \"#utility.yul\":458:462   */\n      0x00\n        /* \"#utility.yul\":496:498   */\n      0x20\n        /* \"#utility.yul\":485:494   */\n      dup3\n        /* \"#utility.yul\":481:499   */\n      add\n        /* \"#utility.yul\":473:499   */\n      swap1\n      pop\n        /* \"#utility.yul\":509:580   */\n      tag_104\n        /* \"#utility.yul\":577:578   */\n      0x00\n        /* \"#utility.yul\":566:575   */\n      dup4\n        /* \"#utility.yul\":562:579   */\n      add\n        /* \"#utility.yul\":553:559   */\n      dup5\n        /* \"#utility.yul\":509:580   */\n      tag_84\n      jump\t// in\n    tag_104:\n        /* \"#utility.yul\":365:587   */\n      swap3\n      swap2\n      pop\n      pop\n      jump\t// out\n        /* \"#utility.yul\":593:670   */\n    tag_85:\n        /* \"#utility.yul\":630:637   */\n      0x00\n        /* \"#utility.yul\":659:664   */\n      dup2\n        /* \"#utility.yul\":648:664   */\n      swap1\n      pop\n        /* \"#utility.yul\":593:670   */\n      swap2\n      swap1\n      pop\n      jump\t// out\n        /* \"#utility.yul\":676:794   */\n    tag_86:\n        /* \"#utility.yul\":763:787   */\n      tag_107\n        /* \"#utility.yul\":781:786   */\n      dup2\n        /* \"#utility.yul\":763:787   */\n      tag_85\n      jump\t// in\n    tag_107:\n        /* \"#utility.yul\":758:761   */\n      dup3\n        /* \"#utility.yul\":751:788   */\n      mstore\n        /* \"#utility.yul\":676:794   */\n      pop\n      pop\n      jump\t// out\n        /* \"#utility.yul\":800:1022   */\n    tag_25:\n        /* \"#utility.yul\":893:897   */\n      0x00\n        /* \"#utility.yul\":931:933   */\n      0x20\n        /* \"#utility.yul\":920:929   */\n      dup3\n        /* \"#utility.yul\":916:934   */\n      add\n        /* \"#utility.yul\":908:934   */\n      swap1\n      pop\n        /* \"#utility.yul\":944:1015   */\n      tag_109\n        /* \"#utility.yul\":1012:1013   */\n      0x00\n        /* \"#utility.yul\":1001:1010   */\n      dup4\n        /* \"#utility.yul\":997:1014   */\n      add\n        /* \"#utility.yul\":988:994   */\n      dup5\n        /* \"#utility.yul\":944:1015   */\n      tag_86\n      jump\t// in\n    tag_109:\n        /* \"#utility.yul\":800:1022   */\n      swap3\n      swap2\n      pop\n      pop\n      jump\t// out\n        /* \"#utility.yul\":1109:1226   */\n    tag_88:\n        /* \"#utility.yul\":1218:1219   */\n      0x00\n        /* \"#utility.yul\":1215:1216   */\n      dup1\n        /* \"#utility.yul\":1208:1220   */\n      revert\n        /* \"#utility.yul\":1355:1477   */\n    tag_90:\n        /* \"#utility.yul\":1428:1452   */\n      tag_114\n        /* \"#utility.yul\":1446:1451   */\n      dup2\n        /* \"#utility.yul\":1428:1452   */\n      tag_83\n      jump\t// in\n    tag_114:\n        /* \"#utility.yul\":1421:1426   */\n      dup2\n        /* \"#utility.yul\":1418:1453   */\n      eq\n        /* \"#utility.yul\":1408:1471   */\n      tag_115\n      jumpi\n        /* \"#utility.yul\":1467:1468   */\n      0x00\n        /* \"#utility.yul\":1464:1465   */\n      dup1\n        /* \"#utility.yul\":1457:1469   */\n      revert\n        /* \"#utility.yul\":1408:1471   */\n    tag_115:\n        /* \"#utility.yul\":1355:1477   */\n      pop\n      jump\t// out\n        /* \"#utility.yul\":1483:1622   */\n    tag_91:\n        /* \"#utility.yul\":1529:1534   */\n      0x00\n        /* \"#utility.yul\":1567:1573   */\n      dup2\n        /* \"#utility.yul\":1554:1574   */\n      calldataload\n        /* \"#utility.yul\":1545:1574   */\n      swap1\n      pop\n        /* \"#utility.yul\":1583:1616   */\n      tag_117\n        /* \"#utility.yul\":1610:1615   */\n      dup2\n        /* \"#utility.yul\":1583:1616   */\n      tag_90\n      jump\t// in\n    tag_117:\n        /* \"#utility.yul\":1483:1622   */\n      swap3\n      swap2\n      pop\n      pop\n      jump\t// out\n        /* \"#utility.yul\":1628:1957   */\n    tag_57:\n        /* \"#utility.yul\":1687:1693   */\n      0x00\n        /* \"#utility.yul\":1736:1738   */\n      0x20\n        /* \"#utility.yul\":1724:1733   */\n      dup3\n        /* \"#utility.yul\":1715:1722   */\n      dup5\n        /* \"#utility.yul\":1711:1734   */\n      sub\n        /* \"#utility.yul\":1707:1739   */\n      slt\n        /* \"#utility.yul\":1704:1823   */\n      iszero\n      tag_119\n      jumpi\n        /* \"#utility.yul\":1742:1821   */\n      tag_120\n      tag_88\n      jump\t// in\n    tag_120:\n        /* \"#utility.yul\":1704:1823   */\n    tag_119:\n        /* \"#utility.yul\":1862:1863   */\n      0x00\n        /* \"#utility.yul\":1887:1940   */\n      tag_121\n        /* \"#utility.yul\":1932:1939   */\n      dup5\n        /* \"#utility.yul\":1923:1929   */\n      dup3\n        /* \"#utility.yul\":1912:1921   */\n      dup6\n        /* \"#utility.yul\":1908:1930   */\n      add\n        /* \"#utility.yul\":1887:1940   */\n      tag_91\n      jump\t// in\n    tag_121:\n        /* \"#utility.yul\":1877:1940   */\n      swap2\n      pop\n        /* \"#utility.yul\":1833:1950   */\n      pop\n        /* \"#utility.yul\":1628:1957   */\n      swap3\n      swap2\n      pop\n      pop\n      jump\t// out\n        /* \"#utility.yul\":1963:2132   */\n    tag_92:\n        /* \"#utility.yul\":2047:2058   */\n      0x00\n        /* \"#utility.yul\":2081:2087   */\n      dup3\n        /* \"#utility.yul\":2076:2079   */\n      dup3\n        /* \"#utility.yul\":2069:2088   */\n      mstore\n        /* \"#utility.yul\":2121:2125   */\n      0x20\n        /* \"#utility.yul\":2116:2119   */\n      dup3\n        /* \"#utility.yul\":2112:2126   */\n      add\n        /* \"#utility.yul\":2097:2126   */\n      swap1\n      pop\n        /* \"#utility.yul\":1963:2132   */\n      swap3\n      swap2\n      pop\n      pop\n      jump\t// out\n        /* \"#utility.yul\":2138:2363   */\n    tag_93:\n        /* \"#utility.yul\":2278:2312   */\n      0x4f776e61626c653a206e6577206f776e657220697320746865207a65726f2061\n        /* \"#utility.yul\":2274:2275   */\n      0x00\n        /* \"#utility.yul\":2266:2272   */\n      dup3\n        /* \"#utility.yul\":2262:2276   */\n      add\n        /* \"#utility.yul\":2255:2313   */\n      mstore\n        /* \"#utility.yul\":2347:2355   */\n      0x6464726573730000000000000000000000000000000000000000000000000000\n        /* \"#utility.yul\":2342:2344   */\n      0x20\n        /* \"#utility.yul\":2334:2340   */\n      dup3\n        /* \"#utility.yul\":2330:2345   */\n      add\n        /* \"#utility.yul\":2323:2356   */\n      mstore\n        /* \"#utility.yul\":2138:2363   */\n      pop\n      jump\t// out\n        /* \"#utility.yul\":2369:2735   */\n    tag_94:\n        /* \"#utility.yul\":2511:2514   */\n      0x00\n        /* \"#utility.yul\":2532:2599   */\n      tag_125\n        /* \"#utility.yul\":2596:2598   */\n      0x26\n        /* \"#utility.yul\":2591:2594   */\n      dup4\n        /* \"#utility.yul\":2532:2599   */\n      tag_92\n      jump\t// in\n    tag_125:\n        /* \"#utility.yul\":2525:2599   */\n      swap2\n      pop\n        /* \"#utility.yul\":2608:2701   */\n      tag_126\n        /* \"#utility.yul\":2697:2700   */\n      dup3\n        /* \"#utility.yul\":2608:2701   */\n      tag_93\n      jump\t// in\n    tag_126:\n        /* \"#utility.yul\":2726:2728   */\n      0x40\n        /* \"#utility.yul\":2721:2724   */\n      dup3\n        /* \"#utility.yul\":2717:2729   */\n      add\n        /* \"#utility.yul\":2710:2729   */\n      swap1\n      pop\n        /* \"#utility.yul\":2369:2735   */\n      swap2\n      swap1\n      pop\n      jump\t// out\n        /* \"#utility.yul\":2741:3160   */\n    tag_71:\n        /* \"#utility.yul\":2907:2911   */\n      0x00\n        /* \"#utility.yul\":2945:2947   */\n      0x20\n        /* \"#utility.yul\":2934:2943   */\n      dup3\n        /* \"#utility.yul\":2930:2948   */\n      add\n        /* \"#utility.yul\":2922:2948   */\n      swap1\n      pop\n        /* \"#utility.yul\":2994:3003   */\n      dup2\n        /* \"#utility.yul\":2988:2992   */\n      dup2\n        /* \"#utility.yul\":2984:3004   */\n      sub\n        /* \"#utility.yul\":2980:2981   */\n      0x00\n        /* \"#utility.yul\":2969:2978   */\n      dup4\n        /* \"#utility.yul\":2965:2982   */\n      add\n        /* \"#utility.yul\":2958:3005   */\n      mstore\n        /* \"#utility.yul\":3022:3153   */\n      tag_128\n        /* \"#utility.yul\":3148:3152   */\n      dup2\n        /* \"#utility.yul\":3022:3153   */\n      tag_94\n      jump\t// in\n    tag_128:\n        /* \"#utility.yul\":3014:3153   */\n      swap1\n      pop\n        /* \"#utility.yul\":2741:3160   */\n      swap2\n      swap1\n      pop\n      jump\t// out\n        /* \"#utility.yul\":3166:3348   */\n    tag_95:\n        /* \"#utility.yul\":3306:3340   */\n      0x4f776e61626c653a2063616c6c6572206973206e6f7420746865206f776e6572\n        /* \"#utility.yul\":3302:3303   */\n      0x00\n        /* \"#utility.yul\":3294:3300   */\n      dup3\n        /* \"#utility.yul\":3290:3304   */\n      add\n        /* \"#utility.yul\":3283:3341   */\n      mstore\n        /* \"#utility.yul\":3166:3348   */\n      pop\n      jump\t// out\n        /* \"#utility.yul\":3354:3720   */\n    tag_96:\n        /* \"#utility.yul\":3496:3499   */\n      0x00\n        /* \"#utility.yul\":3517:3584   */\n      tag_131\n        /* \"#utility.yul\":3581:3583   */\n      0x20\n        /* \"#utility.yul\":3576:3579   */\n      dup4\n        /* \"#utility.yul\":3517:3584   */\n      tag_92\n      jump\t// in\n    tag_131:\n        /* \"#utility.yul\":3510:3584   */\n      swap2\n      pop\n        /* \"#utility.yul\":3593:3686   */\n      tag_132\n        /* \"#utility.yul\":3682:3685   */\n      dup3\n        /* \"#utility.yul\":3593:3686   */\n      tag_95\n      jump\t// in\n    tag_132:\n        /* \"#utility.yul\":3711:3713   */\n      0x20\n        /* \"#utility.yul\":3706:3709   */\n      dup3\n        /* \"#utility.yul\":3702:3714   */\n      add\n        /* \"#utility.yul\":3695:3714   */\n      swap1\n      pop\n        /* \"#utility.yul\":3354:3720   */\n      swap2\n      swap1\n      pop\n      jump\t// out\n        /* \"#utility.yul\":3726:4145   */\n    tag_79:\n        /* \"#utility.yul\":3892:3896   */\n      0x00\n        /* \"#utility.yul\":3930:3932   */\n      0x20\n        /* \"#utility.yul\":3919:3928   */\n      dup3\n        /* \"#utility.yul\":3915:3933   */\n      add\n        /* \"#utility.yul\":3907:3933   */\n      swap1\n      pop\n        /* \"#utility.yul\":3979:3988   */\n      dup2\n        /* \"#utility.yul\":3973:3977   */\n      dup2\n        /* \"#utility.yul\":3969:3989   */\n      sub\n        /* \"#utility.yul\":3965:3966   */\n      0x00\n        /* \"#utility.yul\":3954:3963   */\n      dup4\n        /* \"#utility.yul\":3950:3967   */\n      add\n        /* \"#utility.yul\":3943:3990   */\n      mstore\n        /* \"#utility.yul\":4007:4138   */\n      tag_134\n        /* \"#utility.yul\":4133:4137   */\n      dup2\n        /* \"#utility.yul\":4007:4138   */\n      tag_96\n      jump\t// in\n    tag_134:\n        /* \"#utility.yul\":3999:4138   */\n      swap1\n      pop\n        /* \"#utility.yul\":3726:4145   */\n      swap2\n      swap1\n      pop\n      jump\t// out\n\n    auxdata: 0xa2646970667358221220521f484f841f0f33d8256514be7f529b6c409e73114b479706899c4d6ce2cb4964736f6c63430008120033\n}\n",
				"bytecode": {
					"linkReferences": {},
					"object": "60806040523480156200001157600080fd5b5060405162000b7b38038062000b7b833981810160405281019062000037919062000333565b620000576200004b620001c260201b60201c565b620001ca60201b60201c565b87600360006101000a81548173ffffffffffffffffffffffffffffffffffffffff021916908373ffffffffffffffffffffffffffffffffffffffff16021790555086600460006101000a81548173ffffffffffffffffffffffffffffffffffffffff021916908373ffffffffffffffffffffffffffffffffffffffff160217905550856005819055508460088190555083600781905550826008819055508160098190555060008190508073ffffffffffffffffffffffffffffffffffffffff16638da5cb5b6040518163ffffffff1660e01b8152600401602060405180830381865afa1580156200014d573d6000803e3d6000fd5b505050506040513d601f19601f82011682018060405250810190620001739190620003fc565b600260006101000a81548173ffffffffffffffffffffffffffffffffffffffff021916908373ffffffffffffffffffffffffffffffffffffffff1602179055505050505050505050506200042e565b600033905090565b60008060009054906101000a900473ffffffffffffffffffffffffffffffffffffffff169050816000806101000a81548173ffffffffffffffffffffffffffffffffffffffff021916908373ffffffffffffffffffffffffffffffffffffffff1602179055508173ffffffffffffffffffffffffffffffffffffffff168173ffffffffffffffffffffffffffffffffffffffff167f8be0079c531659141344cd1fd0a4f28419497f9722a3daafe3b4186f6b6457e060405160405180910390a35050565b600080fd5b600073ffffffffffffffffffffffffffffffffffffffff82169050919050565b6000620002c08262000293565b9050919050565b620002d281620002b3565b8114620002de57600080fd5b50565b600081519050620002f281620002c7565b92915050565b6000819050919050565b6200030d81620002f8565b81146200031957600080fd5b50565b6000815190506200032d8162000302565b92915050565b600080600080600080600080610100898b0312156200035757620003566200028e565b5b6000620003678b828c01620002e1565b98505060206200037a8b828c01620002e1565b97505060406200038d8b828c016200031c565b9650506060620003a08b828c016200031c565b9550506080620003b38b828c016200031c565b94505060a0620003c68b828c016200031c565b93505060c0620003d98b828c016200031c565b92505060e0620003ec8b828c01620002e1565b9150509295985092959890939650565b6000602082840312156200041557620004146200028e565b5b60006200042584828501620002e1565b91505092915050565b61073d806200043e6000396000f3fe608060405234801561001057600080fd5b50600436106100cf5760003560e01c8063a068bd8f1161008c578063b258598e11610066578063b258598e146101ce578063c45a0155146101ec578063d21220a71461020a578063f2fde38b14610228576100cf565b8063a068bd8f14610174578063ab11b19214610192578063b0e21e8a146101b0576100cf565b80630dfe1681146100d45780631a686502146100f25780634273601c14610110578063610c06e61461012e578063715018a61461014c5780638da5cb5b14610156575b600080fd5b6100dc610244565b6040516100e9919061054b565b60405180910390f35b6100fa61026a565b604051610107919061057f565b60405180910390f35b610118610270565b604051610125919061054b565b60405180910390f35b610136610296565b604051610143919061057f565b60405180910390f35b61015461029c565b005b61015e6102b0565b60405161016b919061054b565b60405180910390f35b61017c6102d9565b604051610189919061057f565b60405180910390f35b61019a6102df565b6040516101a7919061057f565b60405180910390f35b6101b86102e5565b6040516101c5919061057f565b60405180910390f35b6101d66102eb565b6040516101e3919061057f565b60405180910390f35b6101f46102f1565b604051610201919061054b565b60405180910390f35b610212610317565b60405161021f919061054b565b60405180910390f35b610242600480360381019061023d91906105cb565b61033d565b005b600360009054906101000a900473ffffffffffffffffffffffffffffffffffffffff1681565b600a5481565b600260009054906101000a900473ffffffffffffffffffffffffffffffffffffffff1681565b60065481565b6102a46103c0565b6102ae600061043e565b565b60008060009054906101000a900473ffffffffffffffffffffffffffffffffffffffff16905090565b60085481565b60075481565b60095481565b60055481565b600160009054906101000a900473ffffffffffffffffffffffffffffffffffffffff1681565b600460009054906101000a900473ffffffffffffffffffffffffffffffffffffffff1681565b6103456103c0565b600073ffffffffffffffffffffffffffffffffffffffff168173ffffffffffffffffffffffffffffffffffffffff16036103b4576040517f08c379a00000000000000000000000000000000000000000000000000000000081526004016103ab9061067b565b60405180910390fd5b6103bd8161043e565b50565b6103c8610502565b73ffffffffffffffffffffffffffffffffffffffff166103e66102b0565b73ffffffffffffffffffffffffffffffffffffffff161461043c576040517f08c379a0000000000000000000000000000000000000000000000000000000008152600401610433906106e7565b60405180910390fd5b565b60008060009054906101000a900473ffffffffffffffffffffffffffffffffffffffff169050816000806101000a81548173ffffffffffffffffffffffffffffffffffffffff021916908373ffffffffffffffffffffffffffffffffffffffff1602179055508173ffffffffffffffffffffffffffffffffffffffff168173ffffffffffffffffffffffffffffffffffffffff167f8be0079c531659141344cd1fd0a4f28419497f9722a3daafe3b4186f6b6457e060405160405180910390a35050565b600033905090565b600073ffffffffffffffffffffffffffffffffffffffff82169050919050565b60006105358261050a565b9050919050565b6105458161052a565b82525050565b6000602082019050610560600083018461053c565b92915050565b6000819050919050565b61057981610566565b82525050565b60006020820190506105946000830184610570565b92915050565b600080fd5b6105a88161052a565b81146105b357600080fd5b50565b6000813590506105c58161059f565b92915050565b6000602082840312156105e1576105e061059a565b5b60006105ef848285016105b6565b91505092915050565b600082825260208201905092915050565b7f4f776e61626c653a206e6577206f776e657220697320746865207a65726f206160008201527f6464726573730000000000000000000000000000000000000000000000000000602082015250565b60006106656026836105f8565b915061067082610609565b604082019050919050565b6000602082019050818103600083015261069481610658565b9050919050565b7f4f776e61626c653a2063616c6c6572206973206e6f7420746865206f776e6572600082015250565b60006106d16020836105f8565b91506106dc8261069b565b602082019050919050565b60006020820190508181036000830152610700816106c4565b905091905056fea2646970667358221220521f484f841f0f33d8256514be7f529b6c409e73114b479706899c4d6ce2cb4964736f6c63430008120033",
					"opcodes": "PUSH1 0x80 PUSH1 0x40 MSTORE CALLVALUE DUP1 ISZERO PUSH3 0x11 JUMPI PUSH1 0x0 DUP1 REVERT JUMPDEST POP PUSH1 0x40 MLOAD PUSH3 0xB7B CODESIZE SUB DUP1 PUSH3 0xB7B DUP4 CODECOPY DUP2 DUP2 ADD PUSH1 0x40 MSTORE DUP2 ADD SWAP1 PUSH3 0x37 SWAP2 SWAP1 PUSH3 0x333 JUMP JUMPDEST PUSH3 0x57 PUSH3 0x4B PUSH3 0x1C2 PUSH1 0x20 SHL PUSH1 0x20 SHR JUMP JUMPDEST PUSH3 0x1CA PUSH1 0x20 SHL PUSH1 0x20 SHR JUMP JUMPDEST DUP8 PUSH1 0x3 PUSH1 0x0 PUSH2 0x100 EXP DUP2 SLOAD DUP2 PUSH20 0xFFFFFFFFFFFFFFFFFFFFFFFFFFFFFFFFFFFFFFFF MUL NOT AND SWAP1 DUP4 PUSH20 0xFFFFFFFFFFFFFFFFFFFFFFFFFFFFFFFFFFFFFFFF AND MUL OR SWAP1 SSTORE POP DUP7 PUSH1 0x4 PUSH1 0x0 PUSH2 0x100 EXP DUP2 SLOAD DUP2 PUSH20 0xFFFFFFFFFFFFFFFFFFFFFFFFFFFFFFFFFFFFFFFF MUL NOT AND SWAP1 DUP4 PUSH20 0xFFFFFFFFFFFFFFFFFFFFFFFFFFFFFFFFFFFFFFFF AND MUL OR SWAP1 SSTORE POP DUP6 PUSH1 0x5 DUP2 SWAP1 SSTORE POP DUP5 PUSH1 0x8 DUP2 SWAP1 SSTORE POP DUP4 PUSH1 0x7 DUP2 SWAP1 SSTORE POP DUP3 PUSH1 0x8 DUP2 SWAP1 SSTORE POP DUP2 PUSH1 0x9 DUP2 SWAP1 SSTORE POP PUSH1 0x0 DUP2 SWAP1 POP DUP1 PUSH20 0xFFFFFFFFFFFFFFFFFFFFFFFFFFFFFFFFFFFFFFFF AND PUSH4 0x8DA5CB5B PUSH1 0x40 MLOAD DUP2 PUSH4 0xFFFFFFFF AND PUSH1 0xE0 SHL DUP2 MSTORE PUSH1 0x4 ADD PUSH1 0x20 PUSH1 0x40 MLOAD DUP1 DUP4 SUB DUP2 DUP7 GAS STATICCALL ISZERO DUP1 ISZERO PUSH3 0x14D JUMPI RETURNDATASIZE PUSH1 0x0 DUP1 RETURNDATACOPY RETURNDATASIZE PUSH1 0x0 REVERT JUMPDEST POP POP POP POP PUSH1 0x40 MLOAD RETURNDATASIZE PUSH1 0x1F NOT PUSH1 0x1F DUP3 ADD AND DUP3 ADD DUP1 PUSH1 0x40 MSTORE POP DUP2 ADD SWAP1 PUSH3 0x173 SWAP2 SWAP1 PUSH3 0x3FC JUMP JUMPDEST PUSH1 0x2 PUSH1 0x0 PUSH2 0x100 EXP DUP2 SLOAD DUP2 PUSH20 0xFFFFFFFFFFFFFFFFFFFFFFFFFFFFFFFFFFFFFFFF MUL NOT AND SWAP1 DUP4 PUSH20 0xFFFFFFFFFFFFFFFFFFFFFFFFFFFFFFFFFFFFFFFF AND MUL OR SWAP1 SSTORE POP POP POP POP POP POP POP POP POP POP PUSH3 0x42E JUMP JUMPDEST PUSH1 0x0 CALLER SWAP1 POP SWAP1 JUMP JUMPDEST PUSH1 0x0 DUP1 PUSH1 0x0 SWAP1 SLOAD SWAP1 PUSH2 0x100 EXP SWAP1 DIV PUSH20 0xFFFFFFFFFFFFFFFFFFFFFFFFFFFFFFFFFFFFFFFF AND SWAP1 POP DUP2 PUSH1 0x0 DUP1 PUSH2 0x100 EXP DUP2 SLOAD DUP2 PUSH20 0xFFFFFFFFFFFFFFFFFFFFFFFFFFFFFFFFFFFFFFFF MUL NOT AND SWAP1 DUP4 PUSH20 0xFFFFFFFFFFFFFFFFFFFFFFFFFFFFFFFFFFFFFFFF AND MUL OR SWAP1 SSTORE POP DUP2 PUSH20 0xFFFFFFFFFFFFFFFFFFFFFFFFFFFFFFFFFFFFFFFF AND DUP2 PUSH20 0xFFFFFFFFFFFFFFFFFFFFFFFFFFFFFFFFFFFFFFFF AND PUSH32 0x8BE0079C531659141344CD1FD0A4F28419497F9722A3DAAFE3B4186F6B6457E0 PUSH1 0x40 MLOAD PUSH1 0x40 MLOAD DUP1 SWAP2 SUB SWAP1 LOG3 POP POP JUMP JUMPDEST PUSH1 0x0 DUP1 REVERT JUMPDEST PUSH1 0x0 PUSH20 0xFFFFFFFFFFFFFFFFFFFFFFFFFFFFFFFFFFFFFFFF DUP3 AND SWAP1 POP SWAP2 SWAP1 POP JUMP JUMPDEST PUSH1 0x0 PUSH3 0x2C0 DUP3 PUSH3 0x293 JUMP JUMPDEST SWAP1 POP SWAP2 SWAP1 POP JUMP JUMPDEST PUSH3 0x2D2 DUP2 PUSH3 0x2B3 JUMP JUMPDEST DUP2 EQ PUSH3 0x2DE JUMPI PUSH1 0x0 DUP1 REVERT JUMPDEST POP JUMP JUMPDEST PUSH1 0x0 DUP2 MLOAD SWAP1 POP PUSH3 0x2F2 DUP2 PUSH3 0x2C7 JUMP JUMPDEST SWAP3 SWAP2 POP POP JUMP JUMPDEST PUSH1 0x0 DUP2 SWAP1 POP SWAP2 SWAP1 POP JUMP JUMPDEST PUSH3 0x30D DUP2 PUSH3 0x2F8 JUMP JUMPDEST DUP2 EQ PUSH3 0x319 JUMPI PUSH1 0x0 DUP1 REVERT JUMPDEST POP JUMP JUMPDEST PUSH1 0x0 DUP2 MLOAD SWAP1 POP PUSH3 0x32D DUP2 PUSH3 0x302 JUMP JUMPDEST SWAP3 SWAP2 POP POP JUMP JUMPDEST PUSH1 0x0 DUP1 PUSH1 0x0 DUP1 PUSH1 0x0 DUP1 PUSH1 0x0 DUP1 PUSH2 0x100 DUP10 DUP12 SUB SLT ISZERO PUSH3 0x357 JUMPI PUSH3 0x356 PUSH3 0x28E JUMP JUMPDEST JUMPDEST PUSH1 0x0 PUSH3 0x367 DUP12 DUP3 DUP13 ADD PUSH3 0x2E1 JUMP JUMPDEST SWAP9 POP POP PUSH1 0x20 PUSH3 0x37A DUP12 DUP3 DUP13 ADD PUSH3 0x2E1 JUMP JUMPDEST SWAP8 POP POP PUSH1 0x40 PUSH3 0x38D DUP12 DUP3 DUP13 ADD PUSH3 0x31C JUMP JUMPDEST SWAP7 POP POP PUSH1 0x60 PUSH3 0x3A0 DUP12 DUP3 DUP13 ADD PUSH3 0x31C JUMP JUMPDEST SWAP6 POP POP PUSH1 0x80 PUSH3 0x3B3 DUP12 DUP3 DUP13 ADD PUSH3 0x31C JUMP JUMPDEST SWAP5 POP POP PUSH1 0xA0 PUSH3 0x3C6 DUP12 DUP3 DUP13 ADD PUSH3 0x31C JUMP JUMPDEST SWAP4 POP POP PUSH1 0xC0 PUSH3 0x3D9 DUP12 DUP3 DUP13 ADD PUSH3 0x31C JUMP JUMPDEST SWAP3 POP POP PUSH1 0xE0 PUSH3 0x3EC DUP12 DUP3 DUP13 ADD PUSH3 0x2E1 JUMP JUMPDEST SWAP2 POP POP SWAP3 SWAP6 SWAP9 POP SWAP3 SWAP6 SWAP9 SWAP1 SWAP4 SWAP7 POP JUMP JUMPDEST PUSH1 0x0 PUSH1 0x20 DUP3 DUP5 SUB SLT ISZERO PUSH3 0x415 JUMPI PUSH3 0x414 PUSH3 0x28E JUMP JUMPDEST JUMPDEST PUSH1 0x0 PUSH3 0x425 DUP5 DUP3 DUP6 ADD PUSH3 0x2E1 JUMP JUMPDEST SWAP2 POP POP SWAP3 SWAP2 POP POP JUMP JUMPDEST PUSH2 0x73D DUP1 PUSH3 0x43E PUSH1 0x0 CODECOPY PUSH1 0x0 RETURN INVALID PUSH1 0x80 PUSH1 0x40 MSTORE CALLVALUE DUP1 ISZERO PUSH2 0x10 JUMPI PUSH1 0x0 DUP1 REVERT JUMPDEST POP PUSH1 0x4 CALLDATASIZE LT PUSH2 0xCF JUMPI PUSH1 0x0 CALLDATALOAD PUSH1 0xE0 SHR DUP1 PUSH4 0xA068BD8F GT PUSH2 0x8C JUMPI DUP1 PUSH4 0xB258598E GT PUSH2 0x66 JUMPI DUP1 PUSH4 0xB258598E EQ PUSH2 0x1CE JUMPI DUP1 PUSH4 0xC45A0155 EQ PUSH2 0x1EC JUMPI DUP1 PUSH4 0xD21220A7 EQ PUSH2 0x20A JUMPI DUP1 PUSH4 0xF2FDE38B EQ PUSH2 0x228 JUMPI PUSH2 0xCF JUMP JUMPDEST DUP1 PUSH4 0xA068BD8F EQ PUSH2 0x174 JUMPI DUP1 PUSH4 0xAB11B192 EQ PUSH2 0x192 JUMPI DUP1 PUSH4 0xB0E21E8A EQ PUSH2 0x1B0 JUMPI PUSH2 0xCF JUMP JUMPDEST DUP1 PUSH4 0xDFE1681 EQ PUSH2 0xD4 JUMPI DUP1 PUSH4 0x1A686502 EQ PUSH2 0xF2 JUMPI DUP1 PUSH4 0x4273601C EQ PUSH2 0x110 JUMPI DUP1 PUSH4 0x610C06E6 EQ PUSH2 0x12E JUMPI DUP1 PUSH4 0x715018A6 EQ PUSH2 0x14C JUMPI DUP1 PUSH4 0x8DA5CB5B EQ PUSH2 0x156 JUMPI JUMPDEST PUSH1 0x0 DUP1 REVERT JUMPDEST PUSH2 0xDC PUSH2 0x244 JUMP JUMPDEST PUSH1 0x40 MLOAD PUSH2 0xE9 SWAP2 SWAP1 PUSH2 0x54B JUMP JUMPDEST PUSH1 0x40 MLOAD DUP1 SWAP2 SUB SWAP1 RETURN JUMPDEST PUSH2 0xFA PUSH2 0x26A JUMP JUMPDEST PUSH1 0x40 MLOAD PUSH2 0x107 SWAP2 SWAP1 PUSH2 0x57F JUMP JUMPDEST PUSH1 0x40 MLOAD DUP1 SWAP2 SUB SWAP1 RETURN JUMPDEST PUSH2 0x118 PUSH2 0x270 JUMP JUMPDEST PUSH1 0x40 MLOAD PUSH2 0x125 SWAP2 SWAP1 PUSH2 0x54B JUMP JUMPDEST PUSH1 0x40 MLOAD DUP1 SWAP2 SUB SWAP1 RETURN JUMPDEST PUSH2 0x136 PUSH2 0x296 JUMP JUMPDEST PUSH1 0x40 MLOAD PUSH2 0x143 SWAP2 SWAP1 PUSH2 0x57F JUMP JUMPDEST PUSH1 0x40 MLOAD DUP1 SWAP2 SUB SWAP1 RETURN JUMPDEST PUSH2 0x154 PUSH2 0x29C JUMP JUMPDEST STOP JUMPDEST PUSH2 0x15E PUSH2 0x2B0 JUMP JUMPDEST PUSH1 0x40 MLOAD PUSH2 0x16B SWAP2 SWAP1 PUSH2 0x54B JUMP JUMPDEST PUSH1 0x40 MLOAD DUP1 SWAP2 SUB SWAP1 RETURN JUMPDEST PUSH2 0x17C PUSH2 0x2D9 JUMP JUMPDEST PUSH1 0x40 MLOAD PUSH2 0x189 SWAP2 SWAP1 PUSH2 0x57F JUMP JUMPDEST PUSH1 0x40 MLOAD DUP1 SWAP2 SUB SWAP1 RETURN JUMPDEST PUSH2 0x19A PUSH2 0x2DF JUMP JUMPDEST PUSH1 0x40 MLOAD PUSH2 0x1A7 SWAP2 SWAP1 PUSH2 0x57F JUMP JUMPDEST PUSH1 0x40 MLOAD DUP1 SWAP2 SUB SWAP1 RETURN JUMPDEST PUSH2 0x1B8 PUSH2 0x2E5 JUMP JUMPDEST PUSH1 0x40 MLOAD PUSH2 0x1C5 SWAP2 SWAP1 PUSH2 0x57F JUMP JUMPDEST PUSH1 0x40 MLOAD DUP1 SWAP2 SUB SWAP1 RETURN JUMPDEST PUSH2 0x1D6 PUSH2 0x2EB JUMP JUMPDEST PUSH1 0x40 MLOAD PUSH2 0x1E3 SWAP2 SWAP1 PUSH2 0x57F JUMP JUMPDEST PUSH1 0x40 MLOAD DUP1 SWAP2 SUB SWAP1 RETURN JUMPDEST PUSH2 0x1F4 PUSH2 0x2F1 JUMP JUMPDEST PUSH1 0x40 MLOAD PUSH2 0x201 SWAP2 SWAP1 PUSH2 0x54B JUMP JUMPDEST PUSH1 0x40 MLOAD DUP1 SWAP2 SUB SWAP1 RETURN JUMPDEST PUSH2 0x212 PUSH2 0x317 JUMP JUMPDEST PUSH1 0x40 MLOAD PUSH2 0x21F SWAP2 SWAP1 PUSH2 0x54B JUMP JUMPDEST PUSH1 0x40 MLOAD DUP1 SWAP2 SUB SWAP1 RETURN JUMPDEST PUSH2 0x242 PUSH1 0x4 DUP1 CALLDATASIZE SUB DUP2 ADD SWAP1 PUSH2 0x23D SWAP2 SWAP1 PUSH2 0x5CB JUMP JUMPDEST PUSH2 0x33D JUMP JUMPDEST STOP JUMPDEST PUSH1 0x3 PUSH1 0x0 SWAP1 SLOAD SWAP1 PUSH2 0x100 EXP SWAP1 DIV PUSH20 0xFFFFFFFFFFFFFFFFFFFFFFFFFFFFFFFFFFFFFFFF AND DUP2 JUMP JUMPDEST PUSH1 0xA SLOAD DUP2 JUMP JUMPDEST PUSH1 0x2 PUSH1 0x0 SWAP1 SLOAD SWAP1 PUSH2 0x100 EXP SWAP1 DIV PUSH20 0xFFFFFFFFFFFFFFFFFFFFFFFFFFFFFFFFFFFFFFFF AND DUP2 JUMP JUMPDEST PUSH1 0x6 SLOAD DUP2 JUMP JUMPDEST PUSH2 0x2A4 PUSH2 0x3C0 JUMP JUMPDEST PUSH2 0x2AE PUSH1 0x0 PUSH2 0x43E JUMP JUMPDEST JUMP JUMPDEST PUSH1 0x0 DUP1 PUSH1 0x0 SWAP1 SLOAD SWAP1 PUSH2 0x100 EXP SWAP1 DIV PUSH20 0xFFFFFFFFFFFFFFFFFFFFFFFFFFFFFFFFFFFFFFFF AND SWAP1 POP SWAP1 JUMP JUMPDEST PUSH1 0x8 SLOAD DUP2 JUMP JUMPDEST PUSH1 0x7 SLOAD DUP2 JUMP JUMPDEST PUSH1 0x9 SLOAD DUP2 JUMP JUMPDEST PUSH1 0x5 SLOAD DUP2 JUMP JUMPDEST PUSH1 0x1 PUSH1 0x0 SWAP1 SLOAD SWAP1 PUSH2 0x100 EXP SWAP1 DIV PUSH20 0xFFFFFFFFFFFFFFFFFFFFFFFFFFFFFFFFFFFFFFFF AND DUP2 JUMP JUMPDEST PUSH1 0x4 PUSH1 0x0 SWAP1 SLOAD SWAP1 PUSH2 0x100 EXP SWAP1 DIV PUSH20 0xFFFFFFFFFFFFFFFFFFFFFFFFFFFFFFFFFFFFFFFF AND DUP2 JUMP JUMPDEST PUSH2 0x345 PUSH2 0x3C0 JUMP JUMPDEST PUSH1 0x0 PUSH20 0xFFFFFFFFFFFFFFFFFFFFFFFFFFFFFFFFFFFFFFFF AND DUP2 PUSH20 0xFFFFFFFFFFFFFFFFFFFFFFFFFFFFFFFFFFFFFFFF AND SUB PUSH2 0x3B4 JUMPI PUSH1 0x40 MLOAD PUSH32 0x8C379A000000000000000000000000000000000000000000000000000000000 DUP2 MSTORE PUSH1 0x4 ADD PUSH2 0x3AB SWAP1 PUSH2 0x67B JUMP JUMPDEST PUSH1 0x40 MLOAD DUP1 SWAP2 SUB SWAP1 REVERT JUMPDEST PUSH2 0x3BD DUP2 PUSH2 0x43E JUMP JUMPDEST POP JUMP JUMPDEST PUSH2 0x3C8 PUSH2 0x502 JUMP JUMPDEST PUSH20 0xFFFFFFFFFFFFFFFFFFFFFFFFFFFFFFFFFFFFFFFF AND PUSH2 0x3E6 PUSH2 0x2B0 JUMP JUMPDEST PUSH20 0xFFFFFFFFFFFFFFFFFFFFFFFFFFFFFFFFFFFFFFFF AND EQ PUSH2 0x43C JUMPI PUSH1 0x40 MLOAD PUSH32 0x8C379A000000000000000000000000000000000000000000000000000000000 DUP2 MSTORE PUSH1 0x4 ADD PUSH2 0x433 SWAP1 PUSH2 0x6E7 JUMP JUMPDEST PUSH1 0x40 MLOAD DUP1 SWAP2 SUB SWAP1 REVERT JUMPDEST JUMP JUMPDEST PUSH1 0x0 DUP1 PUSH1 0x0 SWAP1 SLOAD SWAP1 PUSH2 0x100 EXP SWAP1 DIV PUSH20 0xFFFFFFFFFFFFFFFFFFFFFFFFFFFFFFFFFFFFFFFF AND SWAP1 POP DUP2 PUSH1 0x0 DUP1 PUSH2 0x100 EXP DUP2 SLOAD DUP2 PUSH20 0xFFFFFFFFFFFFFFFFFFFFFFFFFFFFFFFFFFFFFFFF MUL NOT AND SWAP1 DUP4 PUSH20 0xFFFFFFFFFFFFFFFFFFFFFFFFFFFFFFFFFFFFFFFF AND MUL OR SWAP1 SSTORE POP DUP2 PUSH20 0xFFFFFFFFFFFFFFFFFFFFFFFFFFFFFFFFFFFFFFFF AND DUP2 PUSH20 0xFFFFFFFFFFFFFFFFFFFFFFFFFFFFFFFFFFFFFFFF AND PUSH32 0x8BE0079C531659141344CD1FD0A4F28419497F9722A3DAAFE3B4186F6B6457E0 PUSH1 0x40 MLOAD PUSH1 0x40 MLOAD DUP1 SWAP2 SUB SWAP1 LOG3 POP POP JUMP JUMPDEST PUSH1 0x0 CALLER SWAP1 POP SWAP1 JUMP JUMPDEST PUSH1 0x0 PUSH20 0xFFFFFFFFFFFFFFFFFFFFFFFFFFFFFFFFFFFFFFFF DUP3 AND SWAP1 POP SWAP2 SWAP1 POP JUMP JUMPDEST PUSH1 0x0 PUSH2 0x535 DUP3 PUSH2 0x50A JUMP JUMPDEST SWAP1 POP SWAP2 SWAP1 POP JUMP JUMPDEST PUSH2 0x545 DUP2 PUSH2 0x52A JUMP JUMPDEST DUP3 MSTORE POP POP JUMP JUMPDEST PUSH1 0x0 PUSH1 0x20 DUP3 ADD SWAP1 POP PUSH2 0x560 PUSH1 0x0 DUP4 ADD DUP5 PUSH2 0x53C JUMP JUMPDEST SWAP3 SWAP2 POP POP JUMP JUMPDEST PUSH1 0x0 DUP2 SWAP1 POP SWAP2 SWAP1 POP JUMP JUMPDEST PUSH2 0x579 DUP2 PUSH2 0x566 JUMP JUMPDEST DUP3 MSTORE POP POP JUMP JUMPDEST PUSH1 0x0 PUSH1 0x20 DUP3 ADD SWAP1 POP PUSH2 0x594 PUSH1 0x0 DUP4 ADD DUP5 PUSH2 0x570 JUMP JUMPDEST SWAP3 SWAP2 POP POP JUMP JUMPDEST PUSH1 0x0 DUP1 REVERT JUMPDEST PUSH2 0x5A8 DUP2 PUSH2 0x52A JUMP JUMPDEST DUP2 EQ PUSH2 0x5B3 JUMPI PUSH1 0x0 DUP1 REVERT JUMPDEST POP JUMP JUMPDEST PUSH1 0x0 DUP2 CALLDATALOAD SWAP1 POP PUSH2 0x5C5 DUP2 PUSH2 0x59F JUMP JUMPDEST SWAP3 SWAP2 POP POP JUMP JUMPDEST PUSH1 0x0 PUSH1 0x20 DUP3 DUP5 SUB SLT ISZERO PUSH2 0x5E1 JUMPI PUSH2 0x5E0 PUSH2 0x59A JUMP JUMPDEST JUMPDEST PUSH1 0x0 PUSH2 0x5EF DUP5 DUP3 DUP6 ADD PUSH2 0x5B6 JUMP JUMPDEST SWAP2 POP POP SWAP3 SWAP2 POP POP JUMP JUMPDEST PUSH1 0x0 DUP3 DUP3 MSTORE PUSH1 0x20 DUP3 ADD SWAP1 POP SWAP3 SWAP2 POP POP JUMP JUMPDEST PUSH32 0x4F776E61626C653A206E6577206F776E657220697320746865207A65726F2061 PUSH1 0x0 DUP3 ADD MSTORE PUSH32 0x6464726573730000000000000000000000000000000000000000000000000000 PUSH1 0x20 DUP3 ADD MSTORE POP JUMP JUMPDEST PUSH1 0x0 PUSH2 0x665 PUSH1 0x26 DUP4 PUSH2 0x5F8 JUMP JUMPDEST SWAP2 POP PUSH2 0x670 DUP3 PUSH2 0x609 JUMP JUMPDEST PUSH1 0x40 DUP3 ADD SWAP1 POP SWAP2 SWAP1 POP JUMP JUMPDEST PUSH1 0x0 PUSH1 0x20 DUP3 ADD SWAP1 POP DUP2 DUP2 SUB PUSH1 0x0 DUP4 ADD MSTORE PUSH2 0x694 DUP2 PUSH2 0x658 JUMP JUMPDEST SWAP1 POP SWAP2 SWAP1 POP JUMP JUMPDEST PUSH32 0x4F776E61626C653A2063616C6C6572206973206E6F7420746865206F776E6572 PUSH1 0x0 DUP3 ADD MSTORE POP JUMP JUMPDEST PUSH1 0x0 PUSH2 0x6D1 PUSH1 0x20 DUP4 PUSH2 0x5F8 JUMP JUMPDEST SWAP2 POP PUSH2 0x6DC DUP3 PUSH2 0x69B JUMP JUMPDEST PUSH1 0x20 DUP3 ADD SWAP1 POP SWAP2 SWAP1 POP JUMP JUMPDEST PUSH1 0x0 PUSH1 0x20 DUP3 ADD SWAP1 POP DUP2 DUP2 SUB PUSH1 0x0 DUP4 ADD MSTORE PUSH2 0x700 DUP2 PUSH2 0x6C4 JUMP JUMPDEST SWAP1 POP SWAP2 SWAP1 POP JUMP INVALID LOG2 PUSH5 0x6970667358 0x22 SLT KECCAK256 MSTORE 0x1F BASEFEE 0x4F DUP5 0x1F 0xF CALLER 0xD8 0x25 PUSH6 0x14BE7F529B6C BLOCKHASH SWAP15 PUSH20 0x114B479706899C4D6CE2CB4964736F6C63430008 SLT STOP CALLER "
				},
				"gasEstimates": {
					"creation": {
						"codeDepositCost": "370600",
						"executionCost": "infinite",
						"totalCost": "infinite"
					},
					"external": {
						"factory()": "2558",
						"factoryOwner()": "2559",
						"liquidity()": "2452",
						"owner()": "2633",
						"protocolFee()": "2496",
						"renounceOwnership()": "30487",
						"token0()": "2515",
						"token0MaxAmount()": "2451",
						"token1()": "2580",
						"token1MaxAmount()": "2496",
						"token1MaxPrice()": "2452",
						"token1MinPrice()": "2474",
						"transferOwnership(address)": "30832"
					}
				},
				"methodIdentifiers": {
					"factory()": "c45a0155",
					"factoryOwner()": "4273601c",
					"liquidity()": "1a686502",
					"owner()": "8da5cb5b",
					"protocolFee()": "b0e21e8a",
					"renounceOwnership()": "715018a6",
					"token0()": "0dfe1681",
					"token0MaxAmount()": "b258598e",
					"token1()": "d21220a7",
					"token1MaxAmount()": "610c06e6",
					"token1MaxPrice()": "a068bd8f",
					"token1MinPrice()": "ab11b192",
					"transferOwnership(address)": "f2fde38b"
				}
			},
			"storageLayout": {
				"storage": [
					{
						"astId": 7,
						"contract": "SmartContracts/contracts/LiquidityPool.sol:LiquidityPool",
						"label": "_owner",
						"offset": 0,
						"slot": "0",
						"type": "t_address"
					},
					{
						"astId": 911,
						"contract": "SmartContracts/contracts/LiquidityPool.sol:LiquidityPool",
						"label": "factory",
						"offset": 0,
						"slot": "1",
						"type": "t_address"
					},
					{
						"astId": 913,
						"contract": "SmartContracts/contracts/LiquidityPool.sol:LiquidityPool",
						"label": "factoryOwner",
						"offset": 0,
						"slot": "2",
						"type": "t_address"
					},
					{
						"astId": 915,
						"contract": "SmartContracts/contracts/LiquidityPool.sol:LiquidityPool",
						"label": "token0",
						"offset": 0,
						"slot": "3",
						"type": "t_address"
					},
					{
						"astId": 917,
						"contract": "SmartContracts/contracts/LiquidityPool.sol:LiquidityPool",
						"label": "token1",
						"offset": 0,
						"slot": "4",
						"type": "t_address"
					},
					{
						"astId": 919,
						"contract": "SmartContracts/contracts/LiquidityPool.sol:LiquidityPool",
						"label": "token0MaxAmount",
						"offset": 0,
						"slot": "5",
						"type": "t_uint256"
					},
					{
						"astId": 921,
						"contract": "SmartContracts/contracts/LiquidityPool.sol:LiquidityPool",
						"label": "token1MaxAmount",
						"offset": 0,
						"slot": "6",
						"type": "t_uint256"
					},
					{
						"astId": 923,
						"contract": "SmartContracts/contracts/LiquidityPool.sol:LiquidityPool",
						"label": "token1MinPrice",
						"offset": 0,
						"slot": "7",
						"type": "t_uint256"
					},
					{
						"astId": 925,
						"contract": "SmartContracts/contracts/LiquidityPool.sol:LiquidityPool",
						"label": "token1MaxPrice",
						"offset": 0,
						"slot": "8",
						"type": "t_uint256"
					},
					{
						"astId": 927,
						"contract": "SmartContracts/contracts/LiquidityPool.sol:LiquidityPool",
						"label": "protocolFee",
						"offset": 0,
						"slot": "9",
						"type": "t_uint256"
					},
					{
						"astId": 929,
						"contract": "SmartContracts/contracts/LiquidityPool.sol:LiquidityPool",
						"label": "liquidity",
						"offset": 0,
						"slot": "10",
						"type": "t_uint256"
					}
				],
				"types": {
					"t_address": {
						"encoding": "inplace",
						"label": "address",
						"numberOfBytes": "20"
					},
					"t_uint256": {
						"encoding": "inplace",
						"label": "uint256",
						"numberOfBytes": "32"
					}
				}
			},
			"userdoc": {
				"kind": "user",
				"methods": {},
				"version": 1
			}
		}
	}
}