{
	"tests/ProfitableTokenTick_test.sol": {
		"testSuite": {
			"abi": [
				{
					"inputs": [],
					"name": "beforeAll",
					"outputs": [],
					"stateMutability": "nonpayable",
					"type": "function"
				},
				{
					"inputs": [],
					"name": "checkFailure",
					"outputs": [],
					"stateMutability": "nonpayable",
					"type": "function"
				},
				{
					"inputs": [],
					"name": "checkSenderAndValue",
					"outputs": [],
					"stateMutability": "payable",
					"type": "function"
				},
				{
					"inputs": [],
					"name": "checkSuccess",
					"outputs": [],
					"stateMutability": "nonpayable",
					"type": "function"
				},
				{
					"inputs": [],
					"name": "checkSuccess2",
					"outputs": [
						{
							"internalType": "bool",
							"name": "",
							"type": "bool"
						}
					],
					"stateMutability": "pure",
					"type": "function"
				}
			],
			"devdoc": {
				"kind": "dev",
				"methods": {},
				"version": 1
			},
			"evm": {
				"assembly": "    /* \"tests/ProfitableTokenTick_test.sol\":533:1854  contract testSuite {... */\n  mstore(0x40, 0x80)\n  callvalue\n  dup1\n  iszero\n  tag_1\n  jumpi\n  0x00\n  dup1\n  revert\ntag_1:\n  pop\n  dataSize(sub_0)\n  dup1\n  dataOffset(sub_0)\n  0x00\n  codecopy\n  0x00\n  return\nstop\n\nsub_0: assembly {\n        /* \"tests/ProfitableTokenTick_test.sol\":533:1854  contract testSuite {... */\n      mstore(0x40, 0x80)\n      jumpi(tag_1, lt(calldatasize, 0x04))\n      shr(0xe0, calldataload(0x00))\n      dup1\n      0x011e6492\n      eq\n      tag_2\n      jumpi\n      dup1\n      0x12d487ea\n      eq\n      tag_3\n      jumpi\n      dup1\n      0x36c00656\n      eq\n      tag_4\n      jumpi\n      dup1\n      0x7fea0d4b\n      eq\n      tag_5\n      jumpi\n      dup1\n      0x9074416d\n      eq\n      tag_6\n      jumpi\n    tag_1:\n      0x00\n      dup1\n      revert\n        /* \"tests/ProfitableTokenTick_test.sol\":836:1171  function checkSuccess() public {... */\n    tag_2:\n      callvalue\n      dup1\n      iszero\n      tag_7\n      jumpi\n      0x00\n      dup1\n      revert\n    tag_7:\n      pop\n      tag_8\n      tag_9\n      jump\t// in\n    tag_8:\n      stop\n        /* \"tests/ProfitableTokenTick_test.sol\":1177:1326  function checkSuccess2() public pure returns (bool) {... */\n    tag_3:\n      callvalue\n      dup1\n      iszero\n      tag_10\n      jumpi\n      0x00\n      dup1\n      revert\n    tag_10:\n      pop\n      0x40\n      dup1\n      mload\n        /* \"tests/ProfitableTokenTick_test.sol\":1315:1319  true */\n      0x01\n        /* \"#utility.yul\":154:195   */\n      dup2\n      mstore\n        /* \"tests/ProfitableTokenTick_test.sol\":1177:1326  function checkSuccess2() public pure returns (bool) {... */\n      swap1\n      mload\n      swap1\n      dup2\n      swap1\n      sub\n        /* \"#utility.yul\":142:144   */\n      0x20\n        /* \"tests/ProfitableTokenTick_test.sol\":1177:1326  function checkSuccess2() public pure returns (bool) {... */\n      add\n      swap1\n      return\n        /* \"tests/ProfitableTokenTick_test.sol\":1336:1447  function checkFailure() public {... */\n    tag_4:\n      callvalue\n      dup1\n      iszero\n      tag_15\n      jumpi\n      0x00\n      dup1\n      revert\n    tag_15:\n      pop\n      tag_8\n      tag_17\n      jump\t// in\n        /* \"tests/ProfitableTokenTick_test.sol\":695:830  function beforeAll() public {... */\n    tag_5:\n      callvalue\n      dup1\n      iszero\n      tag_18\n      jumpi\n      0x00\n      dup1\n      revert\n    tag_18:\n      pop\n      tag_8\n      tag_20\n      jump\t// in\n        /* \"tests/ProfitableTokenTick_test.sol\":1610:1852  function checkSenderAndValue() public payable {... */\n    tag_6:\n      tag_8\n      tag_22\n      jump\t// in\n        /* \"tests/ProfitableTokenTick_test.sol\":836:1171  function checkSuccess() public {... */\n    tag_9:\n        /* \"tests/ProfitableTokenTick_test.sol\":973:1008  Assert.ok(2 == 2, 'should be true') */\n      0x40\n      dup1\n      mload\n      shl(0xe0, 0x39df137f)\n      dup2\n      mstore\n        /* \"tests/ProfitableTokenTick_test.sol\":983:989  2 == 2 */\n      0x01\n        /* \"tests/ProfitableTokenTick_test.sol\":973:1008  Assert.ok(2 == 2, 'should be true') */\n      0x04\n      dup3\n      add\n        /* \"#utility.yul\":420:461   */\n      mstore\n        /* \"#utility.yul\":477:495   */\n      0x24\n      dup2\n      add\n        /* \"#utility.yul\":470:500   */\n      swap2\n      swap1\n      swap2\n      mstore\n        /* \"#utility.yul\":536:538   */\n      0x0e\n        /* \"#utility.yul\":516:534   */\n      0x44\n      dup3\n      add\n        /* \"#utility.yul\":509:539   */\n      mstore\n      shl(0x90, 0x73686f756c642062652074727565)\n        /* \"#utility.yul\":555:573   */\n      0x64\n      dup3\n      add\n        /* \"#utility.yul\":548:592   */\n      mstore\n        /* \"tests/ProfitableTokenTick_test.sol\":973:979  Assert */\n      linkerSymbol(\"acbfb1c35000d78352310b16a054a6b1066124b9c6f054b10c085f549bff80c6\")\n      swap1\n        /* \"tests/ProfitableTokenTick_test.sol\":973:982  Assert.ok */\n      0x39df137f\n      swap1\n        /* \"#utility.yul\":609:628   */\n      0x84\n      add\n        /* \"tests/ProfitableTokenTick_test.sol\":973:1008  Assert.ok(2 == 2, 'should be true') */\n      0x20\n      mload(0x40)\n      dup1\n      dup4\n      sub\n      dup2\n      dup7\n      gas\n      delegatecall\n      iszero\n      dup1\n      iszero\n      tag_27\n      jumpi\n      returndatasize\n      0x00\n      dup1\n      returndatacopy\n      revert(0x00, returndatasize)\n    tag_27:\n      pop\n      pop\n      pop\n      pop\n      mload(0x40)\n      returndatasize\n      not(0x1f)\n      0x1f\n      dup3\n      add\n      and\n      dup3\n      add\n      dup1\n      0x40\n      mstore\n      pop\n      dup2\n      add\n      swap1\n      tag_28\n      swap2\n      swap1\n      tag_29\n      jump\t// in\n    tag_28:\n      pop\n        /* \"tests/ProfitableTokenTick_test.sol\":1018:1087  Assert.greaterThan(uint(2), uint(1), \"2 should be greater than to 1\") */\n      mload(0x40)\n      shl(0xe0, 0xa079f1a3)\n      dup2\n      mstore\n        /* \"tests/ProfitableTokenTick_test.sol\":1042:1043  2 */\n      0x02\n        /* \"tests/ProfitableTokenTick_test.sol\":1018:1087  Assert.greaterThan(uint(2), uint(1), \"2 should be greater than to 1\") */\n      0x04\n      dup3\n      add\n        /* \"#utility.yul\":1169:1194   */\n      mstore\n        /* \"tests/ProfitableTokenTick_test.sol\":1051:1052  1 */\n      0x01\n        /* \"#utility.yul\":1210:1228   */\n      0x24\n      dup3\n      add\n        /* \"#utility.yul\":1203:1237   */\n      mstore\n        /* \"#utility.yul\":1273:1275   */\n      0x60\n        /* \"#utility.yul\":1253:1271   */\n      0x44\n      dup3\n      add\n        /* \"#utility.yul\":1246:1276   */\n      mstore\n        /* \"#utility.yul\":1312:1314   */\n      0x1d\n        /* \"#utility.yul\":1292:1310   */\n      0x64\n      dup3\n      add\n        /* \"#utility.yul\":1285:1315   */\n      mstore\n        /* \"#utility.yul\":1352:1383   */\n      0x322073686f756c642062652067726561746572207468616e20746f2031000000\n        /* \"#utility.yul\":1331:1350   */\n      0x84\n      dup3\n      add\n        /* \"#utility.yul\":1324:1384   */\n      mstore\n        /* \"tests/ProfitableTokenTick_test.sol\":1018:1024  Assert */\n      linkerSymbol(\"acbfb1c35000d78352310b16a054a6b1066124b9c6f054b10c085f549bff80c6\")\n      swap1\n        /* \"tests/ProfitableTokenTick_test.sol\":1018:1036  Assert.greaterThan */\n      0xa079f1a3\n      swap1\n        /* \"#utility.yul\":1401:1420   */\n      0xa4\n      add\n        /* \"tests/ProfitableTokenTick_test.sol\":1018:1087  Assert.greaterThan(uint(2), uint(1), \"2 should be greater than to 1\") */\n      0x20\n      mload(0x40)\n      dup1\n      dup4\n      sub\n      dup2\n      dup7\n      gas\n      delegatecall\n      iszero\n      dup1\n      iszero\n      tag_33\n      jumpi\n      returndatasize\n      0x00\n      dup1\n      returndatacopy\n      revert(0x00, returndatasize)\n    tag_33:\n      pop\n      pop\n      pop\n      pop\n      mload(0x40)\n      returndatasize\n      not(0x1f)\n      0x1f\n      dup3\n      add\n      and\n      dup3\n      add\n      dup1\n      0x40\n      mstore\n      pop\n      dup2\n      add\n      swap1\n      tag_34\n      swap2\n      swap1\n      tag_29\n      jump\t// in\n    tag_34:\n      pop\n        /* \"tests/ProfitableTokenTick_test.sol\":1097:1164  Assert.lesserThan(uint(2), uint(3), \"2 should be lesser than to 3\") */\n      mload(0x40)\n      shl(0xe1, 0x575444a9)\n      dup2\n      mstore\n        /* \"tests/ProfitableTokenTick_test.sol\":1120:1121  2 */\n      0x02\n        /* \"tests/ProfitableTokenTick_test.sol\":1097:1164  Assert.lesserThan(uint(2), uint(3), \"2 should be lesser than to 3\") */\n      0x04\n      dup3\n      add\n        /* \"#utility.yul\":1679:1704   */\n      mstore\n        /* \"tests/ProfitableTokenTick_test.sol\":1129:1130  3 */\n      0x03\n        /* \"#utility.yul\":1720:1738   */\n      0x24\n      dup3\n      add\n        /* \"#utility.yul\":1713:1747   */\n      mstore\n        /* \"#utility.yul\":1783:1785   */\n      0x60\n        /* \"#utility.yul\":1763:1781   */\n      0x44\n      dup3\n      add\n        /* \"#utility.yul\":1756:1786   */\n      mstore\n        /* \"#utility.yul\":1822:1824   */\n      0x1c\n        /* \"#utility.yul\":1802:1820   */\n      0x64\n      dup3\n      add\n        /* \"#utility.yul\":1795:1825   */\n      mstore\n        /* \"#utility.yul\":1862:1892   */\n      0x322073686f756c64206265206c6573736572207468616e20746f203300000000\n        /* \"#utility.yul\":1841:1860   */\n      0x84\n      dup3\n      add\n        /* \"#utility.yul\":1834:1893   */\n      mstore\n        /* \"tests/ProfitableTokenTick_test.sol\":1097:1103  Assert */\n      linkerSymbol(\"acbfb1c35000d78352310b16a054a6b1066124b9c6f054b10c085f549bff80c6\")\n      swap1\n        /* \"tests/ProfitableTokenTick_test.sol\":1097:1114  Assert.lesserThan */\n      0xaea88952\n      swap1\n        /* \"#utility.yul\":1910:1929   */\n      0xa4\n      add\n        /* \"tests/ProfitableTokenTick_test.sol\":1097:1164  Assert.lesserThan(uint(2), uint(3), \"2 should be lesser than to 3\") */\n    tag_35:\n      0x20\n      mload(0x40)\n      dup1\n      dup4\n      sub\n      dup2\n      dup7\n      gas\n      delegatecall\n      iszero\n      dup1\n      iszero\n      tag_38\n      jumpi\n      returndatasize\n      0x00\n      dup1\n      returndatacopy\n      revert(0x00, returndatasize)\n    tag_38:\n      pop\n      pop\n      pop\n      pop\n      mload(0x40)\n      returndatasize\n      not(0x1f)\n      0x1f\n      dup3\n      add\n      and\n      dup3\n      add\n      dup1\n      0x40\n      mstore\n      pop\n      dup2\n      add\n      swap1\n      tag_39\n      swap2\n      swap1\n      tag_29\n      jump\t// in\n    tag_39:\n      pop\n        /* \"tests/ProfitableTokenTick_test.sol\":836:1171  function checkSuccess() public {... */\n      jump\t// out\n        /* \"tests/ProfitableTokenTick_test.sol\":1336:1447  function checkFailure() public {... */\n    tag_17:\n        /* \"tests/ProfitableTokenTick_test.sol\":1377:1440  Assert.notEqual(uint(1), uint(1), \"1 should not be equal to 1\") */\n      mload(0x40)\n      shl(0xe1, 0x2b080af1)\n      dup2\n      mstore\n        /* \"tests/ProfitableTokenTick_test.sol\":1398:1399  1 */\n      0x01\n        /* \"tests/ProfitableTokenTick_test.sol\":1377:1440  Assert.notEqual(uint(1), uint(1), \"1 should not be equal to 1\") */\n      0x04\n      dup3\n      add\n        /* \"#utility.yul\":2188:2213   */\n      dup2\n      swap1\n      mstore\n        /* \"#utility.yul\":2229:2247   */\n      0x24\n      dup3\n      add\n        /* \"#utility.yul\":2222:2256   */\n      mstore\n        /* \"#utility.yul\":2292:2294   */\n      0x60\n        /* \"#utility.yul\":2272:2290   */\n      0x44\n      dup3\n      add\n        /* \"#utility.yul\":2265:2295   */\n      mstore\n        /* \"#utility.yul\":2331:2333   */\n      0x1a\n        /* \"#utility.yul\":2311:2329   */\n      0x64\n      dup3\n      add\n        /* \"#utility.yul\":2304:2334   */\n      mstore\n        /* \"#utility.yul\":2371:2399   */\n      0x312073686f756c64206e6f7420626520657175616c20746f2031000000000000\n        /* \"#utility.yul\":2350:2369   */\n      0x84\n      dup3\n      add\n        /* \"#utility.yul\":2343:2400   */\n      mstore\n        /* \"tests/ProfitableTokenTick_test.sol\":1377:1383  Assert */\n      linkerSymbol(\"acbfb1c35000d78352310b16a054a6b1066124b9c6f054b10c085f549bff80c6\")\n      swap1\n        /* \"tests/ProfitableTokenTick_test.sol\":1377:1392  Assert.notEqual */\n      0x561015e2\n      swap1\n        /* \"#utility.yul\":2417:2436   */\n      0xa4\n      add\n        /* \"tests/ProfitableTokenTick_test.sol\":1377:1440  Assert.notEqual(uint(1), uint(1), \"1 should not be equal to 1\") */\n      tag_35\n        /* \"#utility.yul\":1940:2442   */\n      jump\n        /* \"tests/ProfitableTokenTick_test.sol\":695:830  function beforeAll() public {... */\n    tag_20:\n        /* \"tests/ProfitableTokenTick_test.sol\":767:823  Assert.equal(uint(1), uint(1), \"1 should be equal to 1\") */\n      mload(0x40)\n      shl(0xe5, 0x055e6bcb)\n      dup2\n      mstore\n        /* \"tests/ProfitableTokenTick_test.sol\":785:786  1 */\n      0x01\n        /* \"tests/ProfitableTokenTick_test.sol\":767:823  Assert.equal(uint(1), uint(1), \"1 should be equal to 1\") */\n      0x04\n      dup3\n      add\n        /* \"#utility.yul\":2695:2720   */\n      dup2\n      swap1\n      mstore\n        /* \"#utility.yul\":2736:2754   */\n      0x24\n      dup3\n      add\n        /* \"#utility.yul\":2729:2763   */\n      mstore\n        /* \"#utility.yul\":2799:2801   */\n      0x60\n        /* \"#utility.yul\":2779:2797   */\n      0x44\n      dup3\n      add\n        /* \"#utility.yul\":2772:2802   */\n      mstore\n        /* \"#utility.yul\":2838:2840   */\n      0x16\n        /* \"#utility.yul\":2818:2836   */\n      0x64\n      dup3\n      add\n        /* \"#utility.yul\":2811:2841   */\n      mstore\n      shl(0x50, 0x312073686f756c6420626520657175616c20746f2031)\n        /* \"#utility.yul\":2857:2876   */\n      0x84\n      dup3\n      add\n        /* \"#utility.yul\":2850:2903   */\n      mstore\n        /* \"tests/ProfitableTokenTick_test.sol\":767:773  Assert */\n      linkerSymbol(\"acbfb1c35000d78352310b16a054a6b1066124b9c6f054b10c085f549bff80c6\")\n      swap1\n        /* \"tests/ProfitableTokenTick_test.sol\":767:779  Assert.equal */\n      0xabcd7960\n      swap1\n        /* \"#utility.yul\":2920:2939   */\n      0xa4\n      add\n        /* \"tests/ProfitableTokenTick_test.sol\":767:823  Assert.equal(uint(1), uint(1), \"1 should be equal to 1\") */\n      tag_35\n        /* \"#utility.yul\":2447:2945   */\n      jump\n        /* \"tests/ProfitableTokenTick_test.sol\":1610:1852  function checkSenderAndValue() public payable {... */\n    tag_22:\n        /* \"tests/ProfitableTokenTick_test.sol\":1744:1771  TestsAccounts.getAccount(1) */\n      mload(0x40)\n      shl(0xe0, 0xce88b145)\n      dup2\n      mstore\n        /* \"tests/ProfitableTokenTick_test.sol\":1769:1770  1 */\n      0x01\n        /* \"tests/ProfitableTokenTick_test.sol\":1744:1771  TestsAccounts.getAccount(1) */\n      0x04\n      dup3\n      add\n        /* \"#utility.yul\":3112:3137   */\n      mstore\n        /* \"tests/ProfitableTokenTick_test.sol\":1719:1725  Assert */\n      linkerSymbol(\"acbfb1c35000d78352310b16a054a6b1066124b9c6f054b10c085f549bff80c6\")\n      swap1\n        /* \"tests/ProfitableTokenTick_test.sol\":1719:1731  Assert.equal */\n      0xbfba5dd6\n      swap1\n        /* \"tests/ProfitableTokenTick_test.sol\":1732:1742  msg.sender */\n      caller\n      swap1\n        /* \"tests/ProfitableTokenTick_test.sol\":1744:1757  TestsAccounts */\n      linkerSymbol(\"1068a87eb54ed04c4e435de35b2ebf536f41f3ff436b4a9bd78b8044f97a1889\")\n      swap1\n        /* \"tests/ProfitableTokenTick_test.sol\":1744:1768  TestsAccounts.getAccount */\n      0xce88b145\n      swap1\n        /* \"#utility.yul\":3085:3103   */\n      0x24\n      add\n        /* \"tests/ProfitableTokenTick_test.sol\":1744:1771  TestsAccounts.getAccount(1) */\n      0x20\n      mload(0x40)\n      dup1\n      dup4\n      sub\n      dup2\n      dup7\n      gas\n      delegatecall\n      iszero\n      dup1\n      iszero\n      tag_57\n      jumpi\n      returndatasize\n      0x00\n      dup1\n      returndatacopy\n      revert(0x00, returndatasize)\n    tag_57:\n      pop\n      pop\n      pop\n      pop\n      mload(0x40)\n      returndatasize\n      not(0x1f)\n      0x1f\n      dup3\n      add\n      and\n      dup3\n      add\n      dup1\n      0x40\n      mstore\n      pop\n      dup2\n      add\n      swap1\n      tag_58\n      swap2\n      swap1\n      tag_59\n      jump\t// in\n    tag_58:\n        /* \"tests/ProfitableTokenTick_test.sol\":1719:1790  Assert.equal(msg.sender, TestsAccounts.getAccount(1), \"Invalid sender\") */\n      mload(0x40)\n      not(sub(shl(0xe0, 0x01), 0x01))\n      0xe0\n      dup6\n      swap1\n      shl\n      and\n      dup2\n      mstore\n      sub(shl(0xa0, 0x01), 0x01)\n        /* \"#utility.yul\":3747:3762   */\n      swap3\n      dup4\n      and\n        /* \"tests/ProfitableTokenTick_test.sol\":1719:1790  Assert.equal(msg.sender, TestsAccounts.getAccount(1), \"Invalid sender\") */\n      0x04\n      dup3\n      add\n        /* \"#utility.yul\":3729:3763   */\n      mstore\n        /* \"#utility.yul\":3799:3814   */\n      swap2\n      and\n        /* \"#utility.yul\":3779:3797   */\n      0x24\n      dup3\n      add\n        /* \"#utility.yul\":3772:3815   */\n      mstore\n        /* \"#utility.yul\":3851:3853   */\n      0x60\n        /* \"#utility.yul\":3831:3849   */\n      0x44\n      dup3\n      add\n        /* \"#utility.yul\":3824:3854   */\n      mstore\n        /* \"#utility.yul\":3890:3892   */\n      0x0e\n        /* \"#utility.yul\":3870:3888   */\n      0x64\n      dup3\n      add\n        /* \"#utility.yul\":3863:3893   */\n      mstore\n      shl(0x91, 0x24b73b30b634b21039b2b73232b9)\n        /* \"#utility.yul\":3909:3928   */\n      0x84\n      dup3\n      add\n        /* \"#utility.yul\":3902:3947   */\n      mstore\n        /* \"#utility.yul\":3964:3983   */\n      0xa4\n      add\n        /* \"tests/ProfitableTokenTick_test.sol\":1719:1790  Assert.equal(msg.sender, TestsAccounts.getAccount(1), \"Invalid sender\") */\n      0x20\n      mload(0x40)\n      dup1\n      dup4\n      sub\n      dup2\n      dup7\n      gas\n      delegatecall\n      iszero\n      dup1\n      iszero\n      tag_63\n      jumpi\n      returndatasize\n      0x00\n      dup1\n      returndatacopy\n      revert(0x00, returndatasize)\n    tag_63:\n      pop\n      pop\n      pop\n      pop\n      mload(0x40)\n      returndatasize\n      not(0x1f)\n      0x1f\n      dup3\n      add\n      and\n      dup3\n      add\n      dup1\n      0x40\n      mstore\n      pop\n      dup2\n      add\n      swap1\n      tag_64\n      swap2\n      swap1\n      tag_29\n      jump\t// in\n    tag_64:\n      pop\n        /* \"tests/ProfitableTokenTick_test.sol\":1800:1845  Assert.equal(msg.value, 100, \"Invalid value\") */\n      mload(0x40)\n      shl(0xe5, 0x055e6bcb)\n      dup2\n      mstore\n        /* \"tests/ProfitableTokenTick_test.sol\":1813:1822  msg.value */\n      callvalue\n        /* \"tests/ProfitableTokenTick_test.sol\":1800:1845  Assert.equal(msg.value, 100, \"Invalid value\") */\n      0x04\n      dup3\n      add\n        /* \"#utility.yul\":4252:4277   */\n      mstore\n        /* \"tests/ProfitableTokenTick_test.sol\":1824:1827  100 */\n      0x64\n        /* \"#utility.yul\":4293:4311   */\n      0x24\n      dup3\n      add\n        /* \"#utility.yul\":4286:4320   */\n      dup2\n      swap1\n      mstore\n        /* \"#utility.yul\":4356:4358   */\n      0x60\n        /* \"#utility.yul\":4336:4354   */\n      0x44\n      dup4\n      add\n        /* \"#utility.yul\":4329:4359   */\n      mstore\n        /* \"#utility.yul\":4395:4397   */\n      0x0d\n        /* \"#utility.yul\":4375:4393   */\n      swap1\n      dup3\n      add\n        /* \"#utility.yul\":4368:4398   */\n      mstore\n      shl(0x98, 0x496e76616c69642076616c7565)\n        /* \"#utility.yul\":4414:4433   */\n      0x84\n      dup3\n      add\n        /* \"#utility.yul\":4407:4451   */\n      mstore\n        /* \"tests/ProfitableTokenTick_test.sol\":1800:1806  Assert */\n      linkerSymbol(\"acbfb1c35000d78352310b16a054a6b1066124b9c6f054b10c085f549bff80c6\")\n      swap1\n        /* \"tests/ProfitableTokenTick_test.sol\":1800:1812  Assert.equal */\n      0xabcd7960\n      swap1\n        /* \"#utility.yul\":4468:4487   */\n      0xa4\n      add\n        /* \"tests/ProfitableTokenTick_test.sol\":1800:1845  Assert.equal(msg.value, 100, \"Invalid value\") */\n      tag_35\n        /* \"#utility.yul\":3994:4493   */\n      jump\n        /* \"#utility.yul\":639:916   */\n    tag_29:\n        /* \"#utility.yul\":706:712   */\n      0x00\n        /* \"#utility.yul\":759:761   */\n      0x20\n        /* \"#utility.yul\":747:756   */\n      dup3\n        /* \"#utility.yul\":738:745   */\n      dup5\n        /* \"#utility.yul\":734:757   */\n      sub\n        /* \"#utility.yul\":730:762   */\n      slt\n        /* \"#utility.yul\":727:779   */\n      iszero\n      tag_74\n      jumpi\n        /* \"#utility.yul\":775:776   */\n      0x00\n        /* \"#utility.yul\":772:773   */\n      dup1\n        /* \"#utility.yul\":765:777   */\n      revert\n        /* \"#utility.yul\":727:779   */\n    tag_74:\n        /* \"#utility.yul\":807:816   */\n      dup2\n        /* \"#utility.yul\":801:817   */\n      mload\n        /* \"#utility.yul\":860:865   */\n      dup1\n        /* \"#utility.yul\":853:866   */\n      iszero\n        /* \"#utility.yul\":846:867   */\n      iszero\n        /* \"#utility.yul\":839:844   */\n      dup2\n        /* \"#utility.yul\":836:868   */\n      eq\n        /* \"#utility.yul\":826:886   */\n      tag_75\n      jumpi\n        /* \"#utility.yul\":882:883   */\n      0x00\n        /* \"#utility.yul\":879:880   */\n      dup1\n        /* \"#utility.yul\":872:884   */\n      revert\n        /* \"#utility.yul\":826:886   */\n    tag_75:\n        /* \"#utility.yul\":905:910   */\n      swap4\n        /* \"#utility.yul\":639:916   */\n      swap3\n      pop\n      pop\n      pop\n      jump\t// out\n        /* \"#utility.yul\":3148:3438   */\n    tag_59:\n        /* \"#utility.yul\":3218:3224   */\n      0x00\n        /* \"#utility.yul\":3271:3273   */\n      0x20\n        /* \"#utility.yul\":3259:3268   */\n      dup3\n        /* \"#utility.yul\":3250:3257   */\n      dup5\n        /* \"#utility.yul\":3246:3269   */\n      sub\n        /* \"#utility.yul\":3242:3274   */\n      slt\n        /* \"#utility.yul\":3239:3291   */\n      iszero\n      tag_82\n      jumpi\n        /* \"#utility.yul\":3287:3288   */\n      0x00\n        /* \"#utility.yul\":3284:3285   */\n      dup1\n        /* \"#utility.yul\":3277:3289   */\n      revert\n        /* \"#utility.yul\":3239:3291   */\n    tag_82:\n        /* \"#utility.yul\":3313:3329   */\n      dup2\n      mload\n      sub(shl(0xa0, 0x01), 0x01)\n        /* \"#utility.yul\":3358:3389   */\n      dup2\n      and\n        /* \"#utility.yul\":3348:3390   */\n      dup2\n      eq\n        /* \"#utility.yul\":3338:3408   */\n      tag_75\n      jumpi\n        /* \"#utility.yul\":3404:3405   */\n      0x00\n        /* \"#utility.yul\":3401:3402   */\n      dup1\n        /* \"#utility.yul\":3394:3406   */\n      revert\n\n    auxdata: 0xa26469706673582212201fd1fd2a8e04cd64c47671d3b7049c8fbbafea3b7e25afee273c013374f00dda64736f6c63430008150033\n}\n",
				"bytecode": {
					"linkReferences": {
						"remix_accounts.sol": {
							"TestsAccounts": [
								{
									"length": 20,
									"start": 988
								}
							]
						},
						"remix_tests.sol": {
							"Assert": [
								{
									"length": 20,
									"start": 269
								},
								{
									"length": 20,
									"start": 443
								},
								{
									"length": 20,
									"start": 617
								},
								{
									"length": 20,
									"start": 794
								},
								{
									"length": 20,
									"start": 902
								},
								{
									"length": 20,
									"start": 958
								},
								{
									"length": 20,
									"start": 1292
								}
							]
						}
					},
					"object": "608060405234801561000f575f80fd5b506105938061001d5f395ff3fe608060405260043610610049575f3560e01c8063011e64921461004d57806312d487ea1461006357806336c00656146100835780637fea0d4b146100975780639074416d146100ab575b5f80fd5b348015610058575f80fd5b506100616100b3565b005b34801561006e575f80fd5b50604080516001815290519081900360200190f35b34801561008e575f80fd5b506100616102ac565b3480156100a2575f80fd5b5061006161031f565b61006161038b565b604080516339df137f60e01b8152600160048201526024810191909152600e60448201526d73686f756c64206265207472756560901b606482015273__$acbfb1c35000d78352310b16a054a6b106$__906339df137f90608401602060405180830381865af4158015610128573d5f803e3d5ffd5b505050506040513d601f19601f8201168201806040525081019061014c9190610511565b5060405163a079f1a360e01b8152600260048201526001602482015260606044820152601d60648201527f322073686f756c642062652067726561746572207468616e20746f2031000000608482015273__$acbfb1c35000d78352310b16a054a6b106$__9063a079f1a39060a401602060405180830381865af41580156101d6573d5f803e3d5ffd5b505050506040513d601f19601f820116820180604052508101906101fa9190610511565b5060405163575444a960e11b8152600260048201526003602482015260606044820152601c60648201527f322073686f756c64206265206c6573736572207468616e20746f203300000000608482015273__$acbfb1c35000d78352310b16a054a6b106$__9063aea889529060a4015b602060405180830381865af4158015610285573d5f803e3d5ffd5b505050506040513d601f19601f820116820180604052508101906102a99190610511565b50565b604051632b080af160e11b8152600160048201819052602482015260606044820152601a60648201527f312073686f756c64206e6f7420626520657175616c20746f2031000000000000608482015273__$acbfb1c35000d78352310b16a054a6b106$__9063561015e29060a40161026a565b60405163055e6bcb60e51b81526001600482018190526024820152606060448201526016606482015275312073686f756c6420626520657175616c20746f203160501b608482015273__$acbfb1c35000d78352310b16a054a6b106$__9063abcd79609060a40161026a565b60405163ce88b14560e01b81526001600482015273__$acbfb1c35000d78352310b16a054a6b106$__9063bfba5dd690339073__$1068a87eb54ed04c4e435de35b2ebf536f$__9063ce88b14590602401602060405180830381865af41580156103f7573d5f803e3d5ffd5b505050506040513d601f19601f8201168201806040525081019061041b9190610537565b6040516001600160e01b031960e085901b1681526001600160a01b0392831660048201529116602482015260606044820152600e60648201526d24b73b30b634b21039b2b73232b960911b608482015260a401602060405180830381865af4158015610489573d5f803e3d5ffd5b505050506040513d601f19601f820116820180604052508101906104ad9190610511565b5060405163055e6bcb60e51b815234600482015260646024820181905260606044830152600d908201526c496e76616c69642076616c756560981b608482015273__$acbfb1c35000d78352310b16a054a6b106$__9063abcd79609060a40161026a565b5f60208284031215610521575f80fd5b81518015158114610530575f80fd5b9392505050565b5f60208284031215610547575f80fd5b81516001600160a01b0381168114610530575f80fdfea26469706673582212201fd1fd2a8e04cd64c47671d3b7049c8fbbafea3b7e25afee273c013374f00dda64736f6c63430008150033",
					"opcodes": "PUSH1 0x80 PUSH1 0x40 MSTORE CALLVALUE DUP1 ISZERO PUSH2 0xF JUMPI PUSH0 DUP1 REVERT JUMPDEST POP PUSH2 0x593 DUP1 PUSH2 0x1D PUSH0 CODECOPY PUSH0 RETURN INVALID PUSH1 0x80 PUSH1 0x40 MSTORE PUSH1 0x4 CALLDATASIZE LT PUSH2 0x49 JUMPI PUSH0 CALLDATALOAD PUSH1 0xE0 SHR DUP1 PUSH4 0x11E6492 EQ PUSH2 0x4D JUMPI DUP1 PUSH4 0x12D487EA EQ PUSH2 0x63 JUMPI DUP1 PUSH4 0x36C00656 EQ PUSH2 0x83 JUMPI DUP1 PUSH4 0x7FEA0D4B EQ PUSH2 0x97 JUMPI DUP1 PUSH4 0x9074416D EQ PUSH2 0xAB JUMPI JUMPDEST PUSH0 DUP1 REVERT JUMPDEST CALLVALUE DUP1 ISZERO PUSH2 0x58 JUMPI PUSH0 DUP1 REVERT JUMPDEST POP PUSH2 0x61 PUSH2 0xB3 JUMP JUMPDEST STOP JUMPDEST CALLVALUE DUP1 ISZERO PUSH2 0x6E JUMPI PUSH0 DUP1 REVERT JUMPDEST POP PUSH1 0x40 DUP1 MLOAD PUSH1 0x1 DUP2 MSTORE SWAP1 MLOAD SWAP1 DUP2 SWAP1 SUB PUSH1 0x20 ADD SWAP1 RETURN JUMPDEST CALLVALUE DUP1 ISZERO PUSH2 0x8E JUMPI PUSH0 DUP1 REVERT JUMPDEST POP PUSH2 0x61 PUSH2 0x2AC JUMP JUMPDEST CALLVALUE DUP1 ISZERO PUSH2 0xA2 JUMPI PUSH0 DUP1 REVERT JUMPDEST POP PUSH2 0x61 PUSH2 0x31F JUMP JUMPDEST PUSH2 0x61 PUSH2 0x38B JUMP JUMPDEST PUSH1 0x40 DUP1 MLOAD PUSH4 0x39DF137F PUSH1 0xE0 SHL DUP2 MSTORE PUSH1 0x1 PUSH1 0x4 DUP3 ADD MSTORE PUSH1 0x24 DUP2 ADD SWAP2 SWAP1 SWAP2 MSTORE PUSH1 0xE PUSH1 0x44 DUP3 ADD MSTORE PUSH14 0x73686F756C642062652074727565 PUSH1 0x90 SHL PUSH1 0x64 DUP3 ADD MSTORE PUSH20 0x0 SWAP1 PUSH4 0x39DF137F SWAP1 PUSH1 0x84 ADD PUSH1 0x20 PUSH1 0x40 MLOAD DUP1 DUP4 SUB DUP2 DUP7 GAS DELEGATECALL ISZERO DUP1 ISZERO PUSH2 0x128 JUMPI RETURNDATASIZE PUSH0 DUP1 RETURNDATACOPY RETURNDATASIZE PUSH0 REVERT JUMPDEST POP POP POP POP PUSH1 0x40 MLOAD RETURNDATASIZE PUSH1 0x1F NOT PUSH1 0x1F DUP3 ADD AND DUP3 ADD DUP1 PUSH1 0x40 MSTORE POP DUP2 ADD SWAP1 PUSH2 0x14C SWAP2 SWAP1 PUSH2 0x511 JUMP JUMPDEST POP PUSH1 0x40 MLOAD PUSH4 0xA079F1A3 PUSH1 0xE0 SHL DUP2 MSTORE PUSH1 0x2 PUSH1 0x4 DUP3 ADD MSTORE PUSH1 0x1 PUSH1 0x24 DUP3 ADD MSTORE PUSH1 0x60 PUSH1 0x44 DUP3 ADD MSTORE PUSH1 0x1D PUSH1 0x64 DUP3 ADD MSTORE PUSH32 0x322073686F756C642062652067726561746572207468616E20746F2031000000 PUSH1 0x84 DUP3 ADD MSTORE PUSH20 0x0 SWAP1 PUSH4 0xA079F1A3 SWAP1 PUSH1 0xA4 ADD PUSH1 0x20 PUSH1 0x40 MLOAD DUP1 DUP4 SUB DUP2 DUP7 GAS DELEGATECALL ISZERO DUP1 ISZERO PUSH2 0x1D6 JUMPI RETURNDATASIZE PUSH0 DUP1 RETURNDATACOPY RETURNDATASIZE PUSH0 REVERT JUMPDEST POP POP POP POP PUSH1 0x40 MLOAD RETURNDATASIZE PUSH1 0x1F NOT PUSH1 0x1F DUP3 ADD AND DUP3 ADD DUP1 PUSH1 0x40 MSTORE POP DUP2 ADD SWAP1 PUSH2 0x1FA SWAP2 SWAP1 PUSH2 0x511 JUMP JUMPDEST POP PUSH1 0x40 MLOAD PUSH4 0x575444A9 PUSH1 0xE1 SHL DUP2 MSTORE PUSH1 0x2 PUSH1 0x4 DUP3 ADD MSTORE PUSH1 0x3 PUSH1 0x24 DUP3 ADD MSTORE PUSH1 0x60 PUSH1 0x44 DUP3 ADD MSTORE PUSH1 0x1C PUSH1 0x64 DUP3 ADD MSTORE PUSH32 0x322073686F756C64206265206C6573736572207468616E20746F203300000000 PUSH1 0x84 DUP3 ADD MSTORE PUSH20 0x0 SWAP1 PUSH4 0xAEA88952 SWAP1 PUSH1 0xA4 ADD JUMPDEST PUSH1 0x20 PUSH1 0x40 MLOAD DUP1 DUP4 SUB DUP2 DUP7 GAS DELEGATECALL ISZERO DUP1 ISZERO PUSH2 0x285 JUMPI RETURNDATASIZE PUSH0 DUP1 RETURNDATACOPY RETURNDATASIZE PUSH0 REVERT JUMPDEST POP POP POP POP PUSH1 0x40 MLOAD RETURNDATASIZE PUSH1 0x1F NOT PUSH1 0x1F DUP3 ADD AND DUP3 ADD DUP1 PUSH1 0x40 MSTORE POP DUP2 ADD SWAP1 PUSH2 0x2A9 SWAP2 SWAP1 PUSH2 0x511 JUMP JUMPDEST POP JUMP JUMPDEST PUSH1 0x40 MLOAD PUSH4 0x2B080AF1 PUSH1 0xE1 SHL DUP2 MSTORE PUSH1 0x1 PUSH1 0x4 DUP3 ADD DUP2 SWAP1 MSTORE PUSH1 0x24 DUP3 ADD MSTORE PUSH1 0x60 PUSH1 0x44 DUP3 ADD MSTORE PUSH1 0x1A PUSH1 0x64 DUP3 ADD MSTORE PUSH32 0x312073686F756C64206E6F7420626520657175616C20746F2031000000000000 PUSH1 0x84 DUP3 ADD MSTORE PUSH20 0x0 SWAP1 PUSH4 0x561015E2 SWAP1 PUSH1 0xA4 ADD PUSH2 0x26A JUMP JUMPDEST PUSH1 0x40 MLOAD PUSH4 0x55E6BCB PUSH1 0xE5 SHL DUP2 MSTORE PUSH1 0x1 PUSH1 0x4 DUP3 ADD DUP2 SWAP1 MSTORE PUSH1 0x24 DUP3 ADD MSTORE PUSH1 0x60 PUSH1 0x44 DUP3 ADD MSTORE PUSH1 0x16 PUSH1 0x64 DUP3 ADD MSTORE PUSH22 0x312073686F756C6420626520657175616C20746F2031 PUSH1 0x50 SHL PUSH1 0x84 DUP3 ADD MSTORE PUSH20 0x0 SWAP1 PUSH4 0xABCD7960 SWAP1 PUSH1 0xA4 ADD PUSH2 0x26A JUMP JUMPDEST PUSH1 0x40 MLOAD PUSH4 0xCE88B145 PUSH1 0xE0 SHL DUP2 MSTORE PUSH1 0x1 PUSH1 0x4 DUP3 ADD MSTORE PUSH20 0x0 SWAP1 PUSH4 0xBFBA5DD6 SWAP1 CALLER SWAP1 PUSH20 0x0 SWAP1 PUSH4 0xCE88B145 SWAP1 PUSH1 0x24 ADD PUSH1 0x20 PUSH1 0x40 MLOAD DUP1 DUP4 SUB DUP2 DUP7 GAS DELEGATECALL ISZERO DUP1 ISZERO PUSH2 0x3F7 JUMPI RETURNDATASIZE PUSH0 DUP1 RETURNDATACOPY RETURNDATASIZE PUSH0 REVERT JUMPDEST POP POP POP POP PUSH1 0x40 MLOAD RETURNDATASIZE PUSH1 0x1F NOT PUSH1 0x1F DUP3 ADD AND DUP3 ADD DUP1 PUSH1 0x40 MSTORE POP DUP2 ADD SWAP1 PUSH2 0x41B SWAP2 SWAP1 PUSH2 0x537 JUMP JUMPDEST PUSH1 0x40 MLOAD PUSH1 0x1 PUSH1 0x1 PUSH1 0xE0 SHL SUB NOT PUSH1 0xE0 DUP6 SWAP1 SHL AND DUP2 MSTORE PUSH1 0x1 PUSH1 0x1 PUSH1 0xA0 SHL SUB SWAP3 DUP4 AND PUSH1 0x4 DUP3 ADD MSTORE SWAP2 AND PUSH1 0x24 DUP3 ADD MSTORE PUSH1 0x60 PUSH1 0x44 DUP3 ADD MSTORE PUSH1 0xE PUSH1 0x64 DUP3 ADD MSTORE PUSH14 0x24B73B30B634B21039B2B73232B9 PUSH1 0x91 SHL PUSH1 0x84 DUP3 ADD MSTORE PUSH1 0xA4 ADD PUSH1 0x20 PUSH1 0x40 MLOAD DUP1 DUP4 SUB DUP2 DUP7 GAS DELEGATECALL ISZERO DUP1 ISZERO PUSH2 0x489 JUMPI RETURNDATASIZE PUSH0 DUP1 RETURNDATACOPY RETURNDATASIZE PUSH0 REVERT JUMPDEST POP POP POP POP PUSH1 0x40 MLOAD RETURNDATASIZE PUSH1 0x1F NOT PUSH1 0x1F DUP3 ADD AND DUP3 ADD DUP1 PUSH1 0x40 MSTORE POP DUP2 ADD SWAP1 PUSH2 0x4AD SWAP2 SWAP1 PUSH2 0x511 JUMP JUMPDEST POP PUSH1 0x40 MLOAD PUSH4 0x55E6BCB PUSH1 0xE5 SHL DUP2 MSTORE CALLVALUE PUSH1 0x4 DUP3 ADD MSTORE PUSH1 0x64 PUSH1 0x24 DUP3 ADD DUP2 SWAP1 MSTORE PUSH1 0x60 PUSH1 0x44 DUP4 ADD MSTORE PUSH1 0xD SWAP1 DUP3 ADD MSTORE PUSH13 0x496E76616C69642076616C7565 PUSH1 0x98 SHL PUSH1 0x84 DUP3 ADD MSTORE PUSH20 0x0 SWAP1 PUSH4 0xABCD7960 SWAP1 PUSH1 0xA4 ADD PUSH2 0x26A JUMP JUMPDEST PUSH0 PUSH1 0x20 DUP3 DUP5 SUB SLT ISZERO PUSH2 0x521 JUMPI PUSH0 DUP1 REVERT JUMPDEST DUP2 MLOAD DUP1 ISZERO ISZERO DUP2 EQ PUSH2 0x530 JUMPI PUSH0 DUP1 REVERT JUMPDEST SWAP4 SWAP3 POP POP POP JUMP JUMPDEST PUSH0 PUSH1 0x20 DUP3 DUP5 SUB SLT ISZERO PUSH2 0x547 JUMPI PUSH0 DUP1 REVERT JUMPDEST DUP2 MLOAD PUSH1 0x1 PUSH1 0x1 PUSH1 0xA0 SHL SUB DUP2 AND DUP2 EQ PUSH2 0x530 JUMPI PUSH0 DUP1 REVERT INVALID LOG2 PUSH5 0x6970667358 0x22 SLT KECCAK256 0x1F 0xD1 REVERT 0x2A DUP15 DIV 0xCD PUSH5 0xC47671D3B7 DIV SWAP13 DUP16 0xBB 0xAF 0xEA EXTCODESIZE PUSH31 0x25AFEE273C013374F00DDA64736F6C63430008150033000000000000000000 "
				},
				"gasEstimates": {
					"creation": {
						"codeDepositCost": "285400",
						"executionCost": "322",
						"totalCost": "285722"
					},
					"external": {
						"beforeAll()": "infinite",
						"checkFailure()": "infinite",
						"checkSenderAndValue()": "infinite",
						"checkSuccess()": "infinite",
						"checkSuccess2()": "170"
					}
				},
				"methodIdentifiers": {
					"beforeAll()": "7fea0d4b",
					"checkFailure()": "36c00656",
					"checkSenderAndValue()": "9074416d",
					"checkSuccess()": "011e6492",
					"checkSuccess2()": "12d487ea"
				}
			},
			"storageLayout": {
				"storage": [],
				"types": null
			},
			"userdoc": {
				"kind": "user",
				"methods": {
					"beforeAll()": {
						"notice": "'beforeAll' runs before all other tests More special functions are: 'beforeEach', 'beforeAll', 'afterEach' & 'afterAll'"
					},
					"checkSenderAndValue()": {
						"notice": "Custom Transaction Context: https://remix-ide.readthedocs.io/en/latest/unittesting.html#customization #sender: account-1 #value: 100"
					}
				},
				"version": 1
			}
		}
	}
}